{
  "address": "0x8Fa6460437F6Ba76808C93108F2134c5D6394D94",
  "abi": [
    {
      "inputs": [
        {
          "internalType": "bool",
          "name": "timeBased_",
          "type": "bool"
        },
        {
          "internalType": "uint256",
          "name": "blocksPerYear_",
          "type": "uint256"
        },
        {
          "internalType": "uint256",
          "name": "maxBorrowRateMantissa_",
          "type": "uint256"
        }
      ],
      "stateMutability": "nonpayable",
      "type": "constructor"
    },
    {
      "inputs": [
        {
          "internalType": "uint256",
          "name": "actualAddAmount",
          "type": "uint256"
        }
      ],
      "name": "AddReservesFactorFreshCheck",
      "type": "error"
    },
    {
      "inputs": [],
      "name": "BorrowCashNotAvailable",
      "type": "error"
    },
    {
      "inputs": [],
      "name": "BorrowFreshnessCheck",
      "type": "error"
    },
    {
      "inputs": [],
      "name": "DelegateNotApproved",
      "type": "error"
    },
    {
      "inputs": [],
      "name": "ForceLiquidateBorrowUnauthorized",
      "type": "error"
    },
    {
      "inputs": [],
      "name": "HealBorrowUnauthorized",
      "type": "error"
    },
    {
      "inputs": [],
      "name": "InvalidBlocksPerYear",
      "type": "error"
    },
    {
      "inputs": [],
      "name": "InvalidTimeBasedConfiguration",
      "type": "error"
    },
    {
      "inputs": [
        {
          "internalType": "uint256",
          "name": "errorCode",
          "type": "uint256"
        }
      ],
      "name": "LiquidateAccrueCollateralInterestFailed",
      "type": "error"
    },
    {
      "inputs": [],
      "name": "LiquidateCloseAmountIsUintMax",
      "type": "error"
    },
    {
      "inputs": [],
      "name": "LiquidateCloseAmountIsZero",
      "type": "error"
    },
    {
      "inputs": [],
      "name": "LiquidateCollateralFreshnessCheck",
      "type": "error"
    },
    {
      "inputs": [],
      "name": "LiquidateFreshnessCheck",
      "type": "error"
    },
    {
      "inputs": [],
      "name": "LiquidateLiquidatorIsBorrower",
      "type": "error"
    },
    {
      "inputs": [],
      "name": "LiquidateSeizeLiquidatorIsBorrower",
      "type": "error"
    },
    {
      "inputs": [],
      "name": "MintFreshnessCheck",
      "type": "error"
    },
    {
      "inputs": [],
      "name": "ProtocolSeizeShareTooBig",
      "type": "error"
    },
    {
      "inputs": [],
      "name": "RedeemFreshnessCheck",
      "type": "error"
    },
    {
      "inputs": [],
      "name": "RedeemTransferOutNotPossible",
      "type": "error"
    },
    {
      "inputs": [],
      "name": "ReduceReservesCashNotAvailable",
      "type": "error"
    },
    {
      "inputs": [],
      "name": "ReduceReservesCashValidation",
      "type": "error"
    },
    {
      "inputs": [],
      "name": "ReduceReservesFreshCheck",
      "type": "error"
    },
    {
      "inputs": [],
      "name": "RepayBorrowFreshnessCheck",
      "type": "error"
    },
    {
      "inputs": [],
      "name": "SetInterestRateModelFreshCheck",
      "type": "error"
    },
    {
      "inputs": [],
      "name": "SetReserveFactorBoundsCheck",
      "type": "error"
    },
    {
      "inputs": [],
      "name": "SetReserveFactorFreshCheck",
      "type": "error"
    },
    {
      "inputs": [],
      "name": "TransferNotAllowed",
      "type": "error"
    },
    {
      "inputs": [
        {
          "internalType": "address",
          "name": "sender",
          "type": "address"
        },
        {
          "internalType": "address",
          "name": "calledContract",
          "type": "address"
        },
        {
          "internalType": "string",
          "name": "methodSignature",
          "type": "string"
        }
      ],
      "name": "Unauthorized",
      "type": "error"
    },
    {
      "inputs": [],
      "name": "ZeroAddressNotAllowed",
      "type": "error"
    },
    {
      "anonymous": false,
      "inputs": [
        {
          "indexed": false,
          "internalType": "uint256",
          "name": "cashPrior",
          "type": "uint256"
        },
        {
          "indexed": false,
          "internalType": "uint256",
          "name": "interestAccumulated",
          "type": "uint256"
        },
        {
          "indexed": false,
          "internalType": "uint256",
          "name": "borrowIndex",
          "type": "uint256"
        },
        {
          "indexed": false,
          "internalType": "uint256",
          "name": "totalBorrows",
          "type": "uint256"
        }
      ],
      "name": "AccrueInterest",
      "type": "event"
    },
    {
      "anonymous": false,
      "inputs": [
        {
          "indexed": true,
          "internalType": "address",
          "name": "owner",
          "type": "address"
        },
        {
          "indexed": true,
          "internalType": "address",
          "name": "spender",
          "type": "address"
        },
        {
          "indexed": false,
          "internalType": "uint256",
          "name": "amount",
          "type": "uint256"
        }
      ],
      "name": "Approval",
      "type": "event"
    },
    {
      "anonymous": false,
      "inputs": [
        {
          "indexed": true,
          "internalType": "address",
          "name": "borrower",
          "type": "address"
        },
        {
          "indexed": false,
          "internalType": "uint256",
          "name": "badDebtDelta",
          "type": "uint256"
        },
        {
          "indexed": false,
          "internalType": "uint256",
          "name": "badDebtOld",
          "type": "uint256"
        },
        {
          "indexed": false,
          "internalType": "uint256",
          "name": "badDebtNew",
          "type": "uint256"
        }
      ],
      "name": "BadDebtIncreased",
      "type": "event"
    },
    {
      "anonymous": false,
      "inputs": [
        {
          "indexed": false,
          "internalType": "uint256",
          "name": "badDebtOld",
          "type": "uint256"
        },
        {
          "indexed": false,
          "internalType": "uint256",
          "name": "badDebtNew",
          "type": "uint256"
        }
      ],
      "name": "BadDebtRecovered",
      "type": "event"
    },
    {
      "anonymous": false,
      "inputs": [
        {
          "indexed": true,
          "internalType": "address",
          "name": "borrower",
          "type": "address"
        },
        {
          "indexed": false,
          "internalType": "uint256",
          "name": "borrowAmount",
          "type": "uint256"
        },
        {
          "indexed": false,
          "internalType": "uint256",
          "name": "accountBorrows",
          "type": "uint256"
        },
        {
          "indexed": false,
          "internalType": "uint256",
          "name": "totalBorrows",
          "type": "uint256"
        }
      ],
      "name": "Borrow",
      "type": "event"
    },
    {
      "anonymous": false,
      "inputs": [
        {
          "indexed": true,
          "internalType": "address",
          "name": "payer",
          "type": "address"
        },
        {
          "indexed": true,
          "internalType": "address",
          "name": "borrower",
          "type": "address"
        },
        {
          "indexed": false,
          "internalType": "uint256",
          "name": "repayAmount",
          "type": "uint256"
        }
      ],
      "name": "HealBorrow",
      "type": "event"
    },
    {
      "anonymous": false,
      "inputs": [
        {
          "indexed": false,
          "internalType": "uint8",
          "name": "version",
          "type": "uint8"
        }
      ],
      "name": "Initialized",
      "type": "event"
    },
    {
      "anonymous": false,
      "inputs": [
        {
          "indexed": true,
          "internalType": "address",
          "name": "liquidator",
          "type": "address"
        },
        {
          "indexed": true,
          "internalType": "address",
          "name": "borrower",
          "type": "address"
        },
        {
          "indexed": false,
          "internalType": "uint256",
          "name": "repayAmount",
          "type": "uint256"
        },
        {
          "indexed": true,
          "internalType": "address",
          "name": "vTokenCollateral",
          "type": "address"
        },
        {
          "indexed": false,
          "internalType": "uint256",
          "name": "seizeTokens",
          "type": "uint256"
        }
      ],
      "name": "LiquidateBorrow",
      "type": "event"
    },
    {
      "anonymous": false,
      "inputs": [
        {
          "indexed": true,
          "internalType": "address",
          "name": "minter",
          "type": "address"
        },
        {
          "indexed": false,
          "internalType": "uint256",
          "name": "mintAmount",
          "type": "uint256"
        },
        {
          "indexed": false,
          "internalType": "uint256",
          "name": "mintTokens",
          "type": "uint256"
        },
        {
          "indexed": false,
          "internalType": "uint256",
          "name": "accountBalance",
          "type": "uint256"
        }
      ],
      "name": "Mint",
      "type": "event"
    },
    {
      "anonymous": false,
      "inputs": [
        {
          "indexed": false,
          "internalType": "address",
          "name": "oldAccessControlManager",
          "type": "address"
        },
        {
          "indexed": false,
          "internalType": "address",
          "name": "newAccessControlManager",
          "type": "address"
        }
      ],
      "name": "NewAccessControlManager",
      "type": "event"
    },
    {
      "anonymous": false,
      "inputs": [
        {
          "indexed": true,
          "internalType": "contract ComptrollerInterface",
          "name": "oldComptroller",
          "type": "address"
        },
        {
          "indexed": true,
          "internalType": "contract ComptrollerInterface",
          "name": "newComptroller",
          "type": "address"
        }
      ],
      "name": "NewComptroller",
      "type": "event"
    },
    {
      "anonymous": false,
      "inputs": [
        {
          "indexed": true,
          "internalType": "contract InterestRateModel",
          "name": "oldInterestRateModel",
          "type": "address"
        },
        {
          "indexed": true,
          "internalType": "contract InterestRateModel",
          "name": "newInterestRateModel",
          "type": "address"
        }
      ],
      "name": "NewMarketInterestRateModel",
      "type": "event"
    },
    {
      "anonymous": false,
      "inputs": [
        {
          "indexed": false,
          "internalType": "uint256",
          "name": "oldProtocolSeizeShareMantissa",
          "type": "uint256"
        },
        {
          "indexed": false,
          "internalType": "uint256",
          "name": "newProtocolSeizeShareMantissa",
          "type": "uint256"
        }
      ],
      "name": "NewProtocolSeizeShare",
      "type": "event"
    },
    {
      "anonymous": false,
      "inputs": [
        {
          "indexed": true,
          "internalType": "address",
          "name": "oldProtocolShareReserve",
          "type": "address"
        },
        {
          "indexed": true,
          "internalType": "address",
          "name": "newProtocolShareReserve",
          "type": "address"
        }
      ],
      "name": "NewProtocolShareReserve",
      "type": "event"
    },
    {
      "anonymous": false,
      "inputs": [
        {
          "indexed": false,
          "internalType": "uint256",
          "name": "oldReduceReservesBlockOrTimestampDelta",
          "type": "uint256"
        },
        {
          "indexed": false,
          "internalType": "uint256",
          "name": "newReduceReservesBlockOrTimestampDelta",
          "type": "uint256"
        }
      ],
      "name": "NewReduceReservesBlockDelta",
      "type": "event"
    },
    {
      "anonymous": false,
      "inputs": [
        {
          "indexed": false,
          "internalType": "uint256",
          "name": "oldReserveFactorMantissa",
          "type": "uint256"
        },
        {
          "indexed": false,
          "internalType": "uint256",
          "name": "newReserveFactorMantissa",
          "type": "uint256"
        }
      ],
      "name": "NewReserveFactor",
      "type": "event"
    },
    {
      "anonymous": false,
      "inputs": [
        {
          "indexed": true,
          "internalType": "address",
          "name": "oldShortfall",
          "type": "address"
        },
        {
          "indexed": true,
          "internalType": "address",
          "name": "newShortfall",
          "type": "address"
        }
      ],
      "name": "NewShortfallContract",
      "type": "event"
    },
    {
      "anonymous": false,
      "inputs": [
        {
          "indexed": true,
          "internalType": "address",
          "name": "previousOwner",
          "type": "address"
        },
        {
          "indexed": true,
          "internalType": "address",
          "name": "newOwner",
          "type": "address"
        }
      ],
      "name": "OwnershipTransferStarted",
      "type": "event"
    },
    {
      "anonymous": false,
      "inputs": [
        {
          "indexed": true,
          "internalType": "address",
          "name": "previousOwner",
          "type": "address"
        },
        {
          "indexed": true,
          "internalType": "address",
          "name": "newOwner",
          "type": "address"
        }
      ],
      "name": "OwnershipTransferred",
      "type": "event"
    },
    {
      "anonymous": false,
      "inputs": [
        {
          "indexed": true,
          "internalType": "address",
          "name": "from",
          "type": "address"
        },
        {
          "indexed": true,
          "internalType": "address",
          "name": "to",
          "type": "address"
        },
        {
          "indexed": false,
          "internalType": "uint256",
          "name": "amount",
          "type": "uint256"
        }
      ],
      "name": "ProtocolSeize",
      "type": "event"
    },
    {
      "anonymous": false,
      "inputs": [
        {
          "indexed": true,
          "internalType": "address",
          "name": "redeemer",
          "type": "address"
        },
        {
          "indexed": false,
          "internalType": "uint256",
          "name": "redeemAmount",
          "type": "uint256"
        },
        {
          "indexed": false,
          "internalType": "uint256",
          "name": "redeemTokens",
          "type": "uint256"
        },
        {
          "indexed": false,
          "internalType": "uint256",
          "name": "accountBalance",
          "type": "uint256"
        }
      ],
      "name": "Redeem",
      "type": "event"
    },
    {
      "anonymous": false,
      "inputs": [
        {
          "indexed": true,
          "internalType": "address",
          "name": "payer",
          "type": "address"
        },
        {
          "indexed": true,
          "internalType": "address",
          "name": "borrower",
          "type": "address"
        },
        {
          "indexed": false,
          "internalType": "uint256",
          "name": "repayAmount",
          "type": "uint256"
        },
        {
          "indexed": false,
          "internalType": "uint256",
          "name": "accountBorrows",
          "type": "uint256"
        },
        {
          "indexed": false,
          "internalType": "uint256",
          "name": "totalBorrows",
          "type": "uint256"
        }
      ],
      "name": "RepayBorrow",
      "type": "event"
    },
    {
      "anonymous": false,
      "inputs": [
        {
          "indexed": true,
          "internalType": "address",
          "name": "benefactor",
          "type": "address"
        },
        {
          "indexed": false,
          "internalType": "uint256",
          "name": "addAmount",
          "type": "uint256"
        },
        {
          "indexed": false,
          "internalType": "uint256",
          "name": "newTotalReserves",
          "type": "uint256"
        }
      ],
      "name": "ReservesAdded",
      "type": "event"
    },
    {
      "anonymous": false,
      "inputs": [
        {
          "indexed": true,
          "internalType": "address",
          "name": "protocolShareReserve",
          "type": "address"
        },
        {
          "indexed": false,
          "internalType": "uint256",
          "name": "reduceAmount",
          "type": "uint256"
        },
        {
          "indexed": false,
          "internalType": "uint256",
          "name": "newTotalReserves",
          "type": "uint256"
        }
      ],
      "name": "SpreadReservesReduced",
      "type": "event"
    },
    {
      "anonymous": false,
      "inputs": [
        {
          "indexed": true,
          "internalType": "address",
          "name": "token",
          "type": "address"
        }
      ],
      "name": "SweepToken",
      "type": "event"
    },
    {
      "anonymous": false,
      "inputs": [
        {
          "indexed": true,
          "internalType": "address",
          "name": "from",
          "type": "address"
        },
        {
          "indexed": true,
          "internalType": "address",
          "name": "to",
          "type": "address"
        },
        {
          "indexed": false,
          "internalType": "uint256",
          "name": "amount",
          "type": "uint256"
        }
      ],
      "name": "Transfer",
      "type": "event"
    },
    {
      "inputs": [],
      "name": "NO_ERROR",
      "outputs": [
        {
          "internalType": "uint256",
          "name": "",
          "type": "uint256"
        }
      ],
      "stateMutability": "view",
      "type": "function"
    },
    {
      "inputs": [],
      "name": "acceptOwnership",
      "outputs": [],
      "stateMutability": "nonpayable",
      "type": "function"
    },
    {
      "inputs": [],
      "name": "accessControlManager",
      "outputs": [
        {
          "internalType": "contract IAccessControlManagerV8",
          "name": "",
          "type": "address"
        }
      ],
      "stateMutability": "view",
      "type": "function"
    },
    {
      "inputs": [],
      "name": "accrualBlockNumber",
      "outputs": [
        {
          "internalType": "uint256",
          "name": "",
          "type": "uint256"
        }
      ],
      "stateMutability": "view",
      "type": "function"
    },
    {
      "inputs": [],
      "name": "accrueInterest",
      "outputs": [
        {
          "internalType": "uint256",
          "name": "",
          "type": "uint256"
        }
      ],
      "stateMutability": "nonpayable",
      "type": "function"
    },
    {
      "inputs": [
        {
          "internalType": "uint256",
          "name": "addAmount",
          "type": "uint256"
        }
      ],
      "name": "addReserves",
      "outputs": [],
      "stateMutability": "nonpayable",
      "type": "function"
    },
    {
      "inputs": [
        {
          "internalType": "address",
          "name": "owner",
          "type": "address"
        },
        {
          "internalType": "address",
          "name": "spender",
          "type": "address"
        }
      ],
      "name": "allowance",
      "outputs": [
        {
          "internalType": "uint256",
          "name": "",
          "type": "uint256"
        }
      ],
      "stateMutability": "view",
      "type": "function"
    },
    {
      "inputs": [
        {
          "internalType": "address",
          "name": "spender",
          "type": "address"
        },
        {
          "internalType": "uint256",
          "name": "amount",
          "type": "uint256"
        }
      ],
      "name": "approve",
      "outputs": [
        {
          "internalType": "bool",
          "name": "",
          "type": "bool"
        }
      ],
      "stateMutability": "nonpayable",
      "type": "function"
    },
    {
      "inputs": [],
      "name": "badDebt",
      "outputs": [
        {
          "internalType": "uint256",
          "name": "",
          "type": "uint256"
        }
      ],
      "stateMutability": "view",
      "type": "function"
    },
    {
      "inputs": [
        {
          "internalType": "uint256",
          "name": "recoveredAmount_",
          "type": "uint256"
        }
      ],
      "name": "badDebtRecovered",
      "outputs": [],
      "stateMutability": "nonpayable",
      "type": "function"
    },
    {
      "inputs": [
        {
          "internalType": "address",
          "name": "owner",
          "type": "address"
        }
      ],
      "name": "balanceOf",
      "outputs": [
        {
          "internalType": "uint256",
          "name": "",
          "type": "uint256"
        }
      ],
      "stateMutability": "view",
      "type": "function"
    },
    {
      "inputs": [
        {
          "internalType": "address",
          "name": "owner",
          "type": "address"
        }
      ],
      "name": "balanceOfUnderlying",
      "outputs": [
        {
          "internalType": "uint256",
          "name": "",
          "type": "uint256"
        }
      ],
      "stateMutability": "nonpayable",
      "type": "function"
    },
    {
      "inputs": [],
      "name": "blocksOrSecondsPerYear",
      "outputs": [
        {
          "internalType": "uint256",
          "name": "",
          "type": "uint256"
        }
      ],
      "stateMutability": "view",
      "type": "function"
    },
    {
      "inputs": [
        {
          "internalType": "uint256",
          "name": "borrowAmount",
          "type": "uint256"
        }
      ],
      "name": "borrow",
      "outputs": [
        {
          "internalType": "uint256",
          "name": "",
          "type": "uint256"
        }
      ],
      "stateMutability": "nonpayable",
      "type": "function"
    },
    {
      "inputs": [
        {
          "internalType": "address",
          "name": "account",
          "type": "address"
        }
      ],
      "name": "borrowBalanceCurrent",
      "outputs": [
        {
          "internalType": "uint256",
          "name": "",
          "type": "uint256"
        }
      ],
      "stateMutability": "nonpayable",
      "type": "function"
    },
    {
      "inputs": [
        {
          "internalType": "address",
          "name": "account",
          "type": "address"
        }
      ],
      "name": "borrowBalanceStored",
      "outputs": [
        {
          "internalType": "uint256",
          "name": "",
          "type": "uint256"
        }
      ],
      "stateMutability": "view",
      "type": "function"
    },
    {
      "inputs": [
        {
          "internalType": "address",
          "name": "borrower",
          "type": "address"
        },
        {
          "internalType": "uint256",
          "name": "borrowAmount",
          "type": "uint256"
        }
      ],
      "name": "borrowBehalf",
      "outputs": [
        {
          "internalType": "uint256",
          "name": "",
          "type": "uint256"
        }
      ],
      "stateMutability": "nonpayable",
      "type": "function"
    },
    {
      "inputs": [],
      "name": "borrowIndex",
      "outputs": [
        {
          "internalType": "uint256",
          "name": "",
          "type": "uint256"
        }
      ],
      "stateMutability": "view",
      "type": "function"
    },
    {
      "inputs": [],
      "name": "borrowRatePerBlock",
      "outputs": [
        {
          "internalType": "uint256",
          "name": "",
          "type": "uint256"
        }
      ],
      "stateMutability": "view",
      "type": "function"
    },
    {
      "inputs": [],
      "name": "comptroller",
      "outputs": [
        {
          "internalType": "contract ComptrollerInterface",
          "name": "",
          "type": "address"
        }
      ],
      "stateMutability": "view",
      "type": "function"
    },
    {
      "inputs": [],
      "name": "decimals",
      "outputs": [
        {
          "internalType": "uint8",
          "name": "",
          "type": "uint8"
        }
      ],
      "stateMutability": "view",
      "type": "function"
    },
    {
      "inputs": [
        {
          "internalType": "address",
          "name": "spender",
          "type": "address"
        },
        {
          "internalType": "uint256",
          "name": "subtractedValue",
          "type": "uint256"
        }
      ],
      "name": "decreaseAllowance",
      "outputs": [
        {
          "internalType": "bool",
          "name": "",
          "type": "bool"
        }
      ],
      "stateMutability": "nonpayable",
      "type": "function"
    },
    {
      "inputs": [],
      "name": "exchangeRateCurrent",
      "outputs": [
        {
          "internalType": "uint256",
          "name": "",
          "type": "uint256"
        }
      ],
      "stateMutability": "nonpayable",
      "type": "function"
    },
    {
      "inputs": [],
      "name": "exchangeRateStored",
      "outputs": [
        {
          "internalType": "uint256",
          "name": "",
          "type": "uint256"
        }
      ],
      "stateMutability": "view",
      "type": "function"
    },
    {
      "inputs": [
        {
          "internalType": "address",
          "name": "liquidator",
          "type": "address"
        },
        {
          "internalType": "address",
          "name": "borrower",
          "type": "address"
        },
        {
          "internalType": "uint256",
          "name": "repayAmount",
          "type": "uint256"
        },
        {
          "internalType": "contract VTokenInterface",
          "name": "vTokenCollateral",
          "type": "address"
        },
        {
          "internalType": "bool",
          "name": "skipLiquidityCheck",
          "type": "bool"
        }
      ],
      "name": "forceLiquidateBorrow",
      "outputs": [],
      "stateMutability": "nonpayable",
      "type": "function"
    },
    {
      "inputs": [
        {
          "internalType": "address",
          "name": "account",
          "type": "address"
        }
      ],
      "name": "getAccountSnapshot",
      "outputs": [
        {
          "internalType": "uint256",
          "name": "error",
          "type": "uint256"
        },
        {
          "internalType": "uint256",
          "name": "vTokenBalance",
          "type": "uint256"
        },
        {
          "internalType": "uint256",
          "name": "borrowBalance",
          "type": "uint256"
        },
        {
          "internalType": "uint256",
          "name": "exchangeRate",
          "type": "uint256"
        }
      ],
      "stateMutability": "view",
      "type": "function"
    },
    {
      "inputs": [],
      "name": "getBlockNumberOrTimestamp",
      "outputs": [
        {
          "internalType": "uint256",
          "name": "",
          "type": "uint256"
        }
      ],
      "stateMutability": "view",
      "type": "function"
    },
    {
      "inputs": [],
      "name": "getCash",
      "outputs": [
        {
          "internalType": "uint256",
          "name": "",
          "type": "uint256"
        }
      ],
      "stateMutability": "view",
      "type": "function"
    },
    {
      "inputs": [
        {
          "internalType": "address",
          "name": "payer",
          "type": "address"
        },
        {
          "internalType": "address",
          "name": "borrower",
          "type": "address"
        },
        {
          "internalType": "uint256",
          "name": "repayAmount",
          "type": "uint256"
        }
      ],
      "name": "healBorrow",
      "outputs": [],
      "stateMutability": "nonpayable",
      "type": "function"
    },
    {
      "inputs": [
        {
          "internalType": "address",
          "name": "spender",
          "type": "address"
        },
        {
          "internalType": "uint256",
          "name": "addedValue",
          "type": "uint256"
        }
      ],
      "name": "increaseAllowance",
      "outputs": [
        {
          "internalType": "bool",
          "name": "",
          "type": "bool"
        }
      ],
      "stateMutability": "nonpayable",
      "type": "function"
    },
    {
      "inputs": [
        {
          "internalType": "address",
          "name": "underlying_",
          "type": "address"
        },
        {
          "internalType": "contract ComptrollerInterface",
          "name": "comptroller_",
          "type": "address"
        },
        {
          "internalType": "contract InterestRateModel",
          "name": "interestRateModel_",
          "type": "address"
        },
        {
          "internalType": "uint256",
          "name": "initialExchangeRateMantissa_",
          "type": "uint256"
        },
        {
          "internalType": "string",
          "name": "name_",
          "type": "string"
        },
        {
          "internalType": "string",
          "name": "symbol_",
          "type": "string"
        },
        {
          "internalType": "uint8",
          "name": "decimals_",
          "type": "uint8"
        },
        {
          "internalType": "address",
          "name": "admin_",
          "type": "address"
        },
        {
          "internalType": "address",
          "name": "accessControlManager_",
          "type": "address"
        },
        {
          "components": [
            {
              "internalType": "address",
              "name": "shortfall",
              "type": "address"
            },
            {
              "internalType": "address payable",
              "name": "protocolShareReserve",
              "type": "address"
            }
          ],
          "internalType": "struct VTokenInterface.RiskManagementInit",
          "name": "riskManagement",
          "type": "tuple"
        },
        {
          "internalType": "uint256",
          "name": "reserveFactorMantissa_",
          "type": "uint256"
        }
      ],
      "name": "initialize",
      "outputs": [],
      "stateMutability": "nonpayable",
      "type": "function"
    },
    {
      "inputs": [],
      "name": "interestRateModel",
      "outputs": [
        {
          "internalType": "contract InterestRateModel",
          "name": "",
          "type": "address"
        }
      ],
      "stateMutability": "view",
      "type": "function"
    },
    {
      "inputs": [],
      "name": "isTimeBased",
      "outputs": [
        {
          "internalType": "bool",
          "name": "",
          "type": "bool"
        }
      ],
      "stateMutability": "view",
      "type": "function"
    },
    {
      "inputs": [],
      "name": "isVToken",
      "outputs": [
        {
          "internalType": "bool",
          "name": "",
          "type": "bool"
        }
      ],
      "stateMutability": "pure",
      "type": "function"
    },
    {
      "inputs": [
        {
          "internalType": "address",
          "name": "borrower",
          "type": "address"
        },
        {
          "internalType": "uint256",
          "name": "repayAmount",
          "type": "uint256"
        },
        {
          "internalType": "contract VTokenInterface",
          "name": "vTokenCollateral",
          "type": "address"
        }
      ],
      "name": "liquidateBorrow",
      "outputs": [
        {
          "internalType": "uint256",
          "name": "",
          "type": "uint256"
        }
      ],
      "stateMutability": "nonpayable",
      "type": "function"
    },
    {
      "inputs": [
        {
          "internalType": "uint256",
          "name": "mintAmount",
          "type": "uint256"
        }
      ],
      "name": "mint",
      "outputs": [
        {
          "internalType": "uint256",
          "name": "",
          "type": "uint256"
        }
      ],
      "stateMutability": "nonpayable",
      "type": "function"
    },
    {
      "inputs": [
        {
          "internalType": "address",
          "name": "minter",
          "type": "address"
        },
        {
          "internalType": "uint256",
          "name": "mintAmount",
          "type": "uint256"
        }
      ],
      "name": "mintBehalf",
      "outputs": [
        {
          "internalType": "uint256",
          "name": "",
          "type": "uint256"
        }
      ],
      "stateMutability": "nonpayable",
      "type": "function"
    },
    {
      "inputs": [],
      "name": "name",
      "outputs": [
        {
          "internalType": "string",
          "name": "",
          "type": "string"
        }
      ],
      "stateMutability": "view",
      "type": "function"
    },
    {
      "inputs": [],
      "name": "owner",
      "outputs": [
        {
          "internalType": "address",
          "name": "",
          "type": "address"
        }
      ],
      "stateMutability": "view",
      "type": "function"
    },
    {
      "inputs": [],
      "name": "pendingOwner",
      "outputs": [
        {
          "internalType": "address",
          "name": "",
          "type": "address"
        }
      ],
      "stateMutability": "view",
      "type": "function"
    },
    {
      "inputs": [],
      "name": "protocolSeizeShareMantissa",
      "outputs": [
        {
          "internalType": "uint256",
          "name": "",
          "type": "uint256"
        }
      ],
      "stateMutability": "view",
      "type": "function"
    },
    {
      "inputs": [],
      "name": "protocolShareReserve",
      "outputs": [
        {
          "internalType": "address payable",
          "name": "",
          "type": "address"
        }
      ],
      "stateMutability": "view",
      "type": "function"
    },
    {
      "inputs": [
        {
          "internalType": "uint256",
          "name": "redeemTokens",
          "type": "uint256"
        }
      ],
      "name": "redeem",
      "outputs": [
        {
          "internalType": "uint256",
          "name": "",
          "type": "uint256"
        }
      ],
      "stateMutability": "nonpayable",
      "type": "function"
    },
    {
      "inputs": [
        {
          "internalType": "address",
          "name": "redeemer",
          "type": "address"
        },
        {
          "internalType": "uint256",
          "name": "redeemTokens",
          "type": "uint256"
        }
      ],
      "name": "redeemBehalf",
      "outputs": [
        {
          "internalType": "uint256",
          "name": "",
          "type": "uint256"
        }
      ],
      "stateMutability": "nonpayable",
      "type": "function"
    },
    {
      "inputs": [
        {
          "internalType": "uint256",
          "name": "redeemAmount",
          "type": "uint256"
        }
      ],
      "name": "redeemUnderlying",
      "outputs": [
        {
          "internalType": "uint256",
          "name": "",
          "type": "uint256"
        }
      ],
      "stateMutability": "nonpayable",
      "type": "function"
    },
    {
      "inputs": [
        {
          "internalType": "address",
          "name": "redeemer",
          "type": "address"
        },
        {
          "internalType": "uint256",
          "name": "redeemAmount",
          "type": "uint256"
        }
      ],
      "name": "redeemUnderlyingBehalf",
      "outputs": [
        {
          "internalType": "uint256",
          "name": "",
          "type": "uint256"
        }
      ],
      "stateMutability": "nonpayable",
      "type": "function"
    },
    {
      "inputs": [
        {
          "internalType": "uint256",
          "name": "reduceAmount",
          "type": "uint256"
        }
      ],
      "name": "reduceReserves",
      "outputs": [],
      "stateMutability": "nonpayable",
      "type": "function"
    },
    {
      "inputs": [],
      "name": "reduceReservesBlockDelta",
      "outputs": [
        {
          "internalType": "uint256",
          "name": "",
          "type": "uint256"
        }
      ],
      "stateMutability": "view",
      "type": "function"
    },
    {
      "inputs": [],
      "name": "reduceReservesBlockNumber",
      "outputs": [
        {
          "internalType": "uint256",
          "name": "",
          "type": "uint256"
        }
      ],
      "stateMutability": "view",
      "type": "function"
    },
    {
      "inputs": [],
      "name": "renounceOwnership",
      "outputs": [],
      "stateMutability": "nonpayable",
      "type": "function"
    },
    {
      "inputs": [
        {
          "internalType": "uint256",
          "name": "repayAmount",
          "type": "uint256"
        }
      ],
      "name": "repayBorrow",
      "outputs": [
        {
          "internalType": "uint256",
          "name": "",
          "type": "uint256"
        }
      ],
      "stateMutability": "nonpayable",
      "type": "function"
    },
    {
      "inputs": [
        {
          "internalType": "address",
          "name": "borrower",
          "type": "address"
        },
        {
          "internalType": "uint256",
          "name": "repayAmount",
          "type": "uint256"
        }
      ],
      "name": "repayBorrowBehalf",
      "outputs": [
        {
          "internalType": "uint256",
          "name": "",
          "type": "uint256"
        }
      ],
      "stateMutability": "nonpayable",
      "type": "function"
    },
    {
      "inputs": [],
      "name": "reserveFactorMantissa",
      "outputs": [
        {
          "internalType": "uint256",
          "name": "",
          "type": "uint256"
        }
      ],
      "stateMutability": "view",
      "type": "function"
    },
    {
      "inputs": [
        {
          "internalType": "address",
          "name": "liquidator",
          "type": "address"
        },
        {
          "internalType": "address",
          "name": "borrower",
          "type": "address"
        },
        {
          "internalType": "uint256",
          "name": "seizeTokens",
          "type": "uint256"
        }
      ],
      "name": "seize",
      "outputs": [],
      "stateMutability": "nonpayable",
      "type": "function"
    },
    {
      "inputs": [
        {
          "internalType": "address",
          "name": "accessControlManager_",
          "type": "address"
        }
      ],
      "name": "setAccessControlManager",
      "outputs": [],
      "stateMutability": "nonpayable",
      "type": "function"
    },
    {
      "inputs": [
        {
          "internalType": "contract InterestRateModel",
          "name": "newInterestRateModel",
          "type": "address"
        }
      ],
      "name": "setInterestRateModel",
      "outputs": [],
      "stateMutability": "nonpayable",
      "type": "function"
    },
    {
      "inputs": [
        {
          "internalType": "uint256",
          "name": "newProtocolSeizeShareMantissa_",
          "type": "uint256"
        }
      ],
      "name": "setProtocolSeizeShare",
      "outputs": [],
      "stateMutability": "nonpayable",
      "type": "function"
    },
    {
      "inputs": [
        {
          "internalType": "address payable",
          "name": "protocolShareReserve_",
          "type": "address"
        }
      ],
      "name": "setProtocolShareReserve",
      "outputs": [],
      "stateMutability": "nonpayable",
      "type": "function"
    },
    {
      "inputs": [
        {
          "internalType": "uint256",
          "name": "_newReduceReservesBlockOrTimestampDelta",
          "type": "uint256"
        }
      ],
      "name": "setReduceReservesBlockDelta",
      "outputs": [],
      "stateMutability": "nonpayable",
      "type": "function"
    },
    {
      "inputs": [
        {
          "internalType": "uint256",
          "name": "newReserveFactorMantissa",
          "type": "uint256"
        }
      ],
      "name": "setReserveFactor",
      "outputs": [],
      "stateMutability": "nonpayable",
      "type": "function"
    },
    {
      "inputs": [
        {
          "internalType": "address",
          "name": "shortfall_",
          "type": "address"
        }
      ],
      "name": "setShortfallContract",
      "outputs": [],
      "stateMutability": "nonpayable",
      "type": "function"
    },
    {
      "inputs": [],
      "name": "shortfall",
      "outputs": [
        {
          "internalType": "address",
          "name": "",
          "type": "address"
        }
      ],
      "stateMutability": "view",
      "type": "function"
    },
    {
      "inputs": [],
      "name": "supplyRatePerBlock",
      "outputs": [
        {
          "internalType": "uint256",
          "name": "",
          "type": "uint256"
        }
      ],
      "stateMutability": "view",
      "type": "function"
    },
    {
      "inputs": [
        {
          "internalType": "contract IERC20Upgradeable",
          "name": "token",
          "type": "address"
        }
      ],
      "name": "sweepToken",
      "outputs": [],
      "stateMutability": "nonpayable",
      "type": "function"
    },
    {
      "inputs": [],
      "name": "symbol",
      "outputs": [
        {
          "internalType": "string",
          "name": "",
          "type": "string"
        }
      ],
      "stateMutability": "view",
      "type": "function"
    },
    {
      "inputs": [],
      "name": "totalBorrows",
      "outputs": [
        {
          "internalType": "uint256",
          "name": "",
          "type": "uint256"
        }
      ],
      "stateMutability": "view",
      "type": "function"
    },
    {
      "inputs": [],
      "name": "totalBorrowsCurrent",
      "outputs": [
        {
          "internalType": "uint256",
          "name": "",
          "type": "uint256"
        }
      ],
      "stateMutability": "nonpayable",
      "type": "function"
    },
    {
      "inputs": [],
      "name": "totalReserves",
      "outputs": [
        {
          "internalType": "uint256",
          "name": "",
          "type": "uint256"
        }
      ],
      "stateMutability": "view",
      "type": "function"
    },
    {
      "inputs": [],
      "name": "totalSupply",
      "outputs": [
        {
          "internalType": "uint256",
          "name": "",
          "type": "uint256"
        }
      ],
      "stateMutability": "view",
      "type": "function"
    },
    {
      "inputs": [
        {
          "internalType": "address",
          "name": "dst",
          "type": "address"
        },
        {
          "internalType": "uint256",
          "name": "amount",
          "type": "uint256"
        }
      ],
      "name": "transfer",
      "outputs": [
        {
          "internalType": "bool",
          "name": "",
          "type": "bool"
        }
      ],
      "stateMutability": "nonpayable",
      "type": "function"
    },
    {
      "inputs": [
        {
          "internalType": "address",
          "name": "src",
          "type": "address"
        },
        {
          "internalType": "address",
          "name": "dst",
          "type": "address"
        },
        {
          "internalType": "uint256",
          "name": "amount",
          "type": "uint256"
        }
      ],
      "name": "transferFrom",
      "outputs": [
        {
          "internalType": "bool",
          "name": "",
          "type": "bool"
        }
      ],
      "stateMutability": "nonpayable",
      "type": "function"
    },
    {
      "inputs": [
        {
          "internalType": "address",
          "name": "newOwner",
          "type": "address"
        }
      ],
      "name": "transferOwnership",
      "outputs": [],
      "stateMutability": "nonpayable",
      "type": "function"
    },
    {
      "inputs": [],
      "name": "underlying",
      "outputs": [
        {
          "internalType": "address",
          "name": "",
          "type": "address"
        }
      ],
      "stateMutability": "view",
      "type": "function"
    }
  ],
  "transactionHash": "0xcf49ca679986964d2e68d68943f6be966be18925321d754d1c2ca48a781e30e6",
  "args": [
    false,
    63072000,
    "5000000000000"
  ],
  "numDeployments": 1,
  "solcInputHash": "bf6504e8406cd8d7763a8de7cdacad9c",
  "bytecode": "0x61010060405234801561001157600080fd5b506040516150cb3803806150cb83398101604081905261003091610202565b82828115801561003e575080155b1561005c576040516302723dfb60e21b815260040160405180910390fd5b81801561006857508015155b156100865760405163ae0fcab360e01b815260040160405180910390fd5b81151560a05281610097578061009d565b6301e133805b608052816100b45761013f60201b6120a5176100bf565b61014360201b6120a9175b6001600160401b031660c0525050670de0b6b3a764000081111561012a5760405162461bcd60e51b815260206004820152601f60248201527f4d617820626f72726f772072617465206d757374206265203c3d20316531380060448201526064015b60405180910390fd5b60e0819052610137610147565b50505061023e565b4390565b4290565b600054610100900460ff16156101af5760405162461bcd60e51b815260206004820152602760248201527f496e697469616c697a61626c653a20636f6e747261637420697320696e697469604482015266616c697a696e6760c81b6064820152608401610121565b60005460ff90811614610200576000805460ff191660ff9081179091556040519081527f7f26b83ff96e1f2b6a682f133852f6798a09c465da95921460cefb38474024989060200160405180910390a15b565b60008060006060848603121561021757600080fd5b8351801515811461022757600080fd5b602085015160409095015190969495509392505050565b60805160a05160c05160e051614e546102776000396000611a3e01526000611e7901526000610877015260006106560152614e546000f3fe608060405234801561001057600080fd5b50600436106104335760003560e01c80637821a51411610236578063b2a02ff11161013b578063dd62ed3e116100c3578063ef60450c11610087578063ef60450c14610932578063f2fde38b14610945578063f3fdb15a14610958578063f5e3c4621461096b578063f8f9da281461097e57600080fd5b8063dd62ed3e146108b5578063df3a516e146108ee578063e1d146fb14610901578063e30c397814610909578063e9a44fd91461091a57600080fd5b8063c37f68e21161010a578063c37f68e21461082c578063c5ebeaec1461085f578063c7ad089514610872578063d1109c2f14610899578063db006a75146108a257600080fd5b8063b2a02ff1146107f7578063b4a0bdf31461080a578063bbcac5571461081b578063bd6d894d1461082457600080fd5b806395d89b41116101be578063a6afed951161018d578063a6afed95146107c2578063a9059cbb146107ca578063aa5af0fd146107dd578063ae96f141146107e6578063ae9d70b0146107ef57600080fd5b806395d89b411461078157806395dd919314610789578063a0712d681461079c578063a457c2d7146107af57600080fd5b80638a42c319116102055780638a42c3191461072e5780638bbdb6db146107415780638bcd4016146107545780638da5cb5b146107675780638f840ddd1461077857600080fd5b80637821a514146106ed57806379ba509714610700578063852a12e314610708578063856e5bb31461071b57600080fd5b8063313ce5671161033c5780636752e702116102c45780636f307dc3116102935780636f307dc31461068957806370a08231146106a1578063715018a6146106ca57806373acee98146106d2578063757212f0146106da57600080fd5b80636752e702146106485780636857249c1461065157806369ab3250146106785780636c540baf1461068057600080fd5b80633d9ea3a11161030b5780633d9ea3a1146105ff57806341f641ee1461060657806344fe6ffe1461061957806347bd37181461062c5780635fe3b5671461063557600080fd5b8063313ce567146105b257806339509351146105d15780633af9e669146105e45780633b1d21a2146105f757600080fd5b8063182df0f5116103bf578063210bc0521161038e578063210bc0521461055357806323323e031461056657806323b872dd146105795780632464176b1461058c5780632608f8181461059f57600080fd5b8063182df0f5146104fa57806319b1faef146105025780631be195601461052d5780631c4469831461054057600080fd5b80630e752702116104065780630e752702146104a1578063107568df146104c2578063173b9904146104d557806317bfdfbc146104de57806318160ddd146104f157600080fd5b806306fdde031461043857806307e2795914610456578063095ea7b31461046b5780630e32cb861461048e575b600080fd5b610440610986565b60405161044d919061468f565b60405180910390f35b6104696104643660046146a2565b610a14565b005b61047e6104793660046146e0565b610a7b565b604051901515815260200161044d565b61046961049c36600461470c565b610aec565b6104b46104af3660046146a2565b610b00565b60405190815260200161044d565b6104696104d036600461470c565b610b5a565b6104b460d05481565b6104b46104ec36600461470c565b610b6b565b6104b460d55481565b6104b4610bc0565b60db54610515906001600160a01b031681565b6040516001600160a01b03909116815260200161044d565b61046961053b36600461470c565b610bcf565b61046961054e3660046146a2565b610d8a565b6104b46105613660046146e0565b610e05565b6104b46105743660046146e0565b610e69565b61047e610587366004614729565b610eb5565b61046961059a3660046146a2565b610f07565b6104b46105ad3660046146e0565b610fa9565b60cc546105bf9060ff1681565b60405160ff909116815260200161044d565b61047e6105df3660046146e0565b611004565b6104b46105f236600461470c565b6110ac565b6104b46110f2565b600161047e565b61046961061436600461470c565b6110fc565b610469610627366004614729565b61110d565b6104b460d35481565b60cd54610515906001600160a01b031681565b6104b460da5481565b6104b47f000000000000000000000000000000000000000000000000000000000000000081565b6104b4600081565b6104b460d15481565b60c9546105159061010090046001600160a01b031681565b6104b46106af36600461470c565b6001600160a01b0316600090815260d7602052604090205490565b6104696113b0565b6104b46113c4565b6104696106e83660046146a2565b611410565b6104696106fb3660046146a2565b611537565b610469611586565b6104b46107163660046146a2565b6115fd565b6104b46107293660046146e0565b611657565b61046961073c366004614881565b61167f565b61046961074f366004614982565b6117af565b61046961076236600461470c565b6117ee565b6033546001600160a01b0316610515565b6104b460d45481565b61044061183e565b6104b461079736600461470c565b61184b565b6104b46107aa3660046146a2565b611856565b61047e6107bd3660046146e0565b611899565b6104b4611976565b61047e6107d83660046146e0565b611bcb565b6104b460d25481565b6104b460dd5481565b6104b4611c1c565b610469610805366004614729565b611cbf565b6097546001600160a01b0316610515565b6104b460d65481565b6104b4611d09565b61083f61083a36600461470c565b611d5b565b60408051948552602085019390935291830152606082015260800161044d565b6104b461086d3660046146a2565b611d9c565b61047e7f000000000000000000000000000000000000000000000000000000000000000081565b6104b460dc5481565b6104b46108b03660046146a2565b611ddf565b6104b46108c33660046149ea565b6001600160a01b03918216600090815260d86020908152604080832093909416825291909152205490565b6104b46108fc3660046146e0565b611e24565b6104b4611e72565b6065546001600160a01b0316610515565b60cc546105159061010090046001600160a01b031681565b6104696109403660046146a2565b611ea0565b61046961095336600461470c565b611fbf565b60ce54610515906001600160a01b031681565b6104b4610979366004614a23565b612030565b6104b461204a565b60ca805461099390614a65565b80601f01602080910402602001604051908101604052809291908181526020018280546109bf90614a65565b8015610a0c5780601f106109e157610100808354040283529160200191610a0c565b820191906000526020600020905b8154815290600101906020018083116109ef57829003601f168201915b505050505081565b60c95460ff16610a3f5760405162461bcd60e51b8152600401610a3690614a9f565b60405180910390fd5b60c9805460ff19169055610a51611976565b50610a5a611e72565b60dd5414610a6b57610a6b816120ad565b5060c9805460ff19166001179055565b6000610a8683612229565b33600081815260d8602090815260408083206001600160a01b038816808552908352928190208690555185815283917f8c5be1e5ebec7d5bd14f71427d1e84f3dd0314c0f7b2291e5b200ac8c7c3b925910160405180910390a360019150505b92915050565b610af4612250565b610afd816122aa565b50565b60c95460009060ff16610b255760405162461bcd60e51b8152600401610a3690614a9f565b60c9805460ff19169055610b37611976565b50610b43333384612370565b506000905060c9805460ff19166001179055919050565b610b62612250565b610afd8161254b565b60c95460009060ff16610b905760405162461bcd60e51b8152600401610a3690614a9f565b60c9805460ff19169055610ba2611976565b50610bac826125ae565b905060c9805460ff19166001179055919050565b6000610bca61261e565b905090565b6033546001600160a01b03163314610c415760405162461bcd60e51b815260206004820152602f60248201527f56546f6b656e3a3a7377656570546f6b656e3a206f6e6c792061646d696e206360448201526e616e20737765657020746f6b656e7360881b6064820152608401610a36565b60c9546001600160a01b03610100909104811690821603610cbf5760405162461bcd60e51b815260206004820152603260248201527f56546f6b656e3a3a7377656570546f6b656e3a2063616e206e6f74207377656560448201527138103ab73232b9363cb4b733903a37b5b2b760711b6064820152608401610a36565b6040516370a0823160e01b81523060048201526000906001600160a01b038316906370a0823190602401602060405180830381865afa158015610d06573d6000803e3d6000fd5b505050506040513d601f19601f82011682018060405250810190610d2a9190614ac3565b9050610d52610d416033546001600160a01b031690565b6001600160a01b0384169083612693565b6040516001600160a01b038316907f35ce4c546a473796a8e70ec2d4af4f2031afe357afa7057b6ea7fa340730e1b290600090a25050565b60c95460ff16610dac5760405162461bcd60e51b8152600401610a3690614a9f565b60c9805460ff1916905560408051808201909152601981527f73657452657365727665466163746f722875696e7432353629000000000000006020820152610df3906126fb565b610dfb611976565b50610a6b81612799565b60c95460009060ff16610e2a5760405162461bcd60e51b8152600401610a3690614a9f565b60c9805460ff19169055610e3d83612829565b610e45611976565b50610e5383338460006128ba565b50600060c9805460ff1916600117905592915050565b60c95460009060ff16610e8e5760405162461bcd60e51b8152600401610a3690614a9f565b60c9805460ff19169055610ea183612229565b610ea9611976565b50610e53338484612bf3565b60c95460009060ff16610eda5760405162461bcd60e51b8152600401610a3690614a9f565b60c9805460ff19169055610ef033858585612df8565b50600160c9805460ff191660011790559392505050565b610f28604051806060016040528060248152602001614ddb602491396126fb565b60008111610f685760405162461bcd60e51b815260206004820152600d60248201526c125b9d985b1a5908125b9c1d5d609a1b6044820152606401610a36565b60dc5460408051918252602082018390527fc2ac513cdb57f91eb2bef4db918c285829524f549682b99717c6cb06cc011183910160405180910390a160dc55565b60c95460009060ff16610fce5760405162461bcd60e51b8152600401610a3690614a9f565b60c9805460ff19169055610fe0611976565b50610fec338484612370565b506000905060c9805460ff1916600117905592915050565b600061100f83612229565b33600081815260d8602090815260408083206001600160a01b038816845290915290205461103d8482614af2565b6001600160a01b03838116600081815260d860209081526040808320948b16808452948252918290208590559051848152939450919290917f8c5be1e5ebec7d5bd14f71427d1e84f3dd0314c0f7b2291e5b200ac8c7c3b92591015b60405180910390a3506001949350505050565b60008060405180602001604052806110c2611d09565b90526001600160a01b038416600090815260d760205260409020549091506110eb908290613022565b9392505050565b6000610bca61303a565b611104612250565b610afd81613070565b60c95460ff1661112f5760405162461bcd60e51b8152600401610a3690614a9f565b60c9805460ff1916905580156111a55760cd5460405163eade3eed60e01b81523060048201526001600160a01b0384811660248301529091169063eade3eed90604401600060405180830381600087803b15801561118c57600080fd5b505af11580156111a0573d6000803e3d6000fd5b505050505b60cd546001600160a01b031633146111d057604051632c40292560e01b815260040160405180910390fd5b60006111db836125ae565b60d3549091506000831561125b576111f386856130cb565b90506111ff8183614b05565b91506001600160a01b038086169087167f1a2a22cb034d26d1854bdc6666a5b91fe25efbbb5dcad3b0355478d6f5c362a18361123b8188614b05565b604080519283526020830191909152810186905260600160405180910390a35b60006112678285614b05565b9050801561132f5760d654600061127e8383614af2565b905061128a8386614b05565b60d682905560408051858152600060208201529081018290529095506001600160a01b0389169030907f1a2a22cb034d26d1854bdc6666a5b91fe25efbbb5dcad3b0355478d6f5c362a19060600160405180910390a360408051848152602081018490529081018290526001600160a01b038916907f90125ffdb441e57c4f6bf69789206424859f206bea5727f2d81ad2470826ef6a9060600160405180910390a250505b6001600160a01b03808716600081815260d9602052604080822091825560d25460019092019190915560d38690555190918916907f9fe0294717a8efbc6ace1c151b73a4c89982339b2228a27d1ca21394e348986f906113929089815260200190565b60405180910390a3505060c9805460ff191660011790555050505050565b6113b8612250565b6113c260006131d9565b565b60c95460009060ff166113e95760405162461bcd60e51b8152600401610a3690614a9f565b60c9805460ff191690556113fb611976565b505060d35460c9805460ff1916600117905590565b61144e6040518060400160405280601e81526020017f73657450726f746f636f6c5365697a6553686172652875696e743235362900008152506126fb565b60cd5460408051634ada90af60e01b815290516000926001600160a01b031691634ada90af9160048083019260209291908290030181865afa158015611498573d6000803e3d6000fd5b505050506040513d601f19601f820116820180604052508101906114bc9190614ac3565b9050806114d1670de0b6b3a764000084614af2565b11156114f05760405163034dd2c160e11b815260040160405180910390fd5b60da80549083905560408051828152602081018590527ff5815f353a60e815cce7553e4f60c533a59d26b1b5504ea4b6db8d60da3e4da291015b60405180910390a1505050565b60c95460ff166115595760405162461bcd60e51b8152600401610a3690614a9f565b60c9805460ff1916905561156b611976565b50611575816131f2565b505060c9805460ff19166001179055565b60655433906001600160a01b031681146115f45760405162461bcd60e51b815260206004820152602960248201527f4f776e61626c6532537465703a2063616c6c6572206973206e6f7420746865206044820152683732bb9037bbb732b960b91b6064820152608401610a36565b610afd816131d9565b60c95460009060ff166116225760405162461bcd60e51b8152600401610a3690614a9f565b60c9805460ff19169055611634611976565b5061164233336000856128ba565b50600060c9805460ff19166001179055919050565b600061166283612829565b61166a611976565b50611676833384613287565b50600092915050565b600054610100900460ff161580801561169f5750600054600160ff909116105b806116b95750303b1580156116b9575060005460ff166001145b61171c5760405162461bcd60e51b815260206004820152602e60248201527f496e697469616c697a61626c653a20636f6e747261637420697320616c72656160448201526d191e481a5b9a5d1a585b1a5e995960921b6064820152608401610a36565b6000805460ff19166001179055801561173f576000805461ff0019166101001790555b61174885612229565b61175b8c8c8c8c8c8c8c8c8c8c8c613465565b80156117a1576000805461ff0019169055604051600181527f7f26b83ff96e1f2b6a682f133852f6798a09c465da95921460cefb38474024989060200160405180910390a15b505050505050505050505050565b60cd546001600160a01b031633146117da57604051635c85a5e760e01b815260040160405180910390fd5b6117e78585858585613692565b5050505050565b61182c6040518060400160405280601d81526020017f736574496e746572657374526174654d6f64656c2861646472657373290000008152506126fb565b611834611976565b50610afd81613773565b60cb805461099390614a65565b6000610ae6826125ae565b60c95460009060ff1661187b5760405162461bcd60e51b8152600401610a3690614a9f565b60c9805460ff1916905561188d611976565b50611642333384612bf3565b60006118a483612229565b33600081815260d8602090815260408083206001600160a01b0388168452909152902054838110156119185760405162461bcd60e51b815260206004820152601e60248201527f64656372656173656420616c6c6f77616e63652062656c6f77207a65726f00006044820152606401610a36565b6001600160a01b03828116600081815260d860209081526040808320948a1680845294825291829020948890039485905590518481527f8c5be1e5ebec7d5bd14f71427d1e84f3dd0314c0f7b2291e5b200ac8c7c3b9259101611099565b600080611981611e72565b60d1549091508181036119975760009250505090565b60006119a161303a565b60d35460d45460d25460ce5460d6546040516301cee29d60e21b815260048101879052602481018690526044810185905260648101919091529495509293919290916000916001600160a01b03169063073b8a7490608401602060405180830381865afa158015611a16573d6000803e3d6000fd5b505050506040513d601f19601f82011682018060405250810190611a3a9190614ac3565b90507f0000000000000000000000000000000000000000000000000000000000000000811115611aac5760405162461bcd60e51b815260206004820152601c60248201527f626f72726f772072617465206973206162737572646c792068696768000000006044820152606401610a36565b6000611ab88789614b05565b90506000611ad4604051806020016040528085815250836138b5565b90506000611ae28288613022565b90506000611af08883614af2565b90506000611b0f604051806020016040528060d054815250848a6138e6565b90506000611b1e85898a6138e6565b60d18e905560d281905560d384905560d483905560dc5460dd5491925090611b46908f614b05565b10611b6f5760dd8d9055818b1015611b6657611b618b6120ad565b611b6f565b611b6f826120ad565b604080518c815260208101869052908101829052606081018490527f4dec04e750ca11537cabcd8a9eab06494de08da3735bc8871cd41250e190bc049060800160405180910390a160009d505050505050505050505050505090565b60c95460009060ff16611bf05760405162461bcd60e51b8152600401610a3690614a9f565b60c9805460ff19169055611c0633808585612df8565b50600160c9805460ff1916600117905592915050565b60ce546000906001600160a01b0316630cde8d1c611c3861303a565b60d35460d45460d05460d6546040516001600160e01b031960e088901b1681526004810195909552602485019390935260448401919091526064830152608482015260a4015b602060405180830381865afa158015611c9b573d6000803e3d6000fd5b505050506040513d601f19601f82011682018060405250810190610bca9190614ac3565b60c95460ff16611ce15760405162461bcd60e51b8152600401610a3690614a9f565b60c9805460ff19169055611cf733848484613907565b505060c9805460ff1916600117905550565b60c95460009060ff16611d2e5760405162461bcd60e51b8152600401610a3690614a9f565b60c9805460ff19169055611d40611976565b50611d4961261e565b905060c9805460ff1916600117905590565b6001600160a01b038116600090815260d760205260408120548190819081908190611d85876125ae565b611d8d61261e565b93509350935093509193509193565b60c95460009060ff16611dc15760405162461bcd60e51b8152600401610a3690614a9f565b60c9805460ff19169055611dd3611976565b50611642333384613287565b60c95460009060ff16611e045760405162461bcd60e51b8152600401610a3690614a9f565b60c9805460ff19169055611e16611976565b5061164233338460006128ba565b60c95460009060ff16611e495760405162461bcd60e51b8152600401610a3690614a9f565b60c9805460ff19169055611e5c83612829565b611e64611976565b50610e5383336000856128ba565b6000610bca7f000000000000000000000000000000000000000000000000000000000000000063ffffffff16565b60db546001600160a01b03163314611f0e5760405162461bcd60e51b815260206004820152602b60248201527f6f6e6c792073686f727466616c6c20636f6e74726163742063616e207570646160448201526a1d1948189859081919589d60aa1b6064820152608401610a36565b60d654811115611f725760405162461bcd60e51b815260206004820152602960248201527f6d6f7265207468616e206261642064656274207265636f76657265642066726f604482015268369030bab1ba34b7b760b91b6064820152608401610a36565b60d6546000611f818383614b05565b60d681905560408051848152602081018390529192507f9e19ec7d2b8f8a94df8cc0072453ace318d221e3cbb2731d0eaa0baac856520f910161152a565b611fc7612250565b606580546001600160a01b0383166001600160a01b03199091168117909155611ff86033546001600160a01b031690565b6001600160a01b03167f38d16b8cac22d99fc7c124b9cd0de2d3fa1faef420bfe791d8c362d765e2270060405160405180910390a350565b6000612040338585856000613692565b5060009392505050565b60ce546000906001600160a01b031663073b8a7461206661303a565b60d35460d45460d6546040516001600160e01b031960e087901b1681526004810194909452602484019290925260448301526064820152608401611c7e565b4390565b4290565b806000036120b85750565b60006120c2611e72565b60d154146120e357604051630dff50cb60e41b815260040160405180910390fd5b816120ec61303a565b101561210b57604051633345e99960e01b815260040160405180910390fd5b60d45482111561212e576040516378d2980560e11b815260040160405180910390fd5b8160d45461213c9190614b05565b60d481905560cc5490915061215f9061010090046001600160a01b031683613cb1565b60cc5460cd5460c9546040516305bebb3b60e21b81526001600160a01b03610100948590048116946316faecec946121a7949083169391900490911690600090600401614b18565b600060405180830381600087803b1580156121c157600080fd5b505af11580156121d5573d6000803e3d6000fd5b505060cc5460408051868152602081018690526101009092046001600160a01b031693507f9cc63bb4ef37ad6a5f5f657dfaf94865531d4234acbc431cc8ac035468f6272092500160405180910390a25050565b6001600160a01b038116610afd576040516342bcdf7f60e11b815260040160405180910390fd5b6033546001600160a01b031633146113c25760405162461bcd60e51b815260206004820181905260248201527f4f776e61626c653a2063616c6c6572206973206e6f7420746865206f776e65726044820152606401610a36565b6001600160a01b03811661230e5760405162461bcd60e51b815260206004820152602560248201527f696e76616c696420616365737320636f6e74726f6c206d616e61676572206164604482015264647265737360d81b6064820152608401610a36565b609780546001600160a01b038381166001600160a01b031983168117909355604080519190921680825260208201939093527f66fd58e82f7b31a2a5c30e0888f3093efe4e111b00cd2b0c31fe014601293aa091015b60405180910390a15050565b60cd5460405163eade3eed60e01b81523060048201526001600160a01b038481166024830152600092169063eade3eed90604401600060405180830381600087803b1580156123be57600080fd5b505af11580156123d2573d6000803e3d6000fd5b505050506123de611e72565b60d154146123ff5760405163c9021e2f60e01b815260040160405180910390fd5b600061240a846125ae565b905060008184101561241c578361241e565b815b9050600061242c87836130cb565b9050600061243a8285614b05565b905060008260d35461244c9190614b05565b6001600160a01b03898116600081815260d9602090815260409182902087815560d25460019091015560d3859055815188815290810187905290810184905292935091908b16907f1a2a22cb034d26d1854bdc6666a5b91fe25efbbb5dcad3b0355478d6f5c362a19060600160405180910390a360cd5460d254604051631ededc9160e01b81523060048201526001600160a01b038c811660248301528b81166044830152606482018790526084820192909252911690631ededc919060a401600060405180830381600087803b15801561252657600080fd5b505af115801561253a573d6000803e3d6000fd5b50949b9a5050505050505050505050565b61255481612229565b60cc80546001600160a01b03838116610100818102610100600160a81b031985161790945560405193909204169182907fafec95c8612496c3ecf5dddc71e393528fe29bd145fbaf9c6b496d78d7e2d79b90600090a35050565b6001600160a01b038116600090815260d96020908152604080832081518083019092528054808352600190910154928201929092529082036125f35750600092915050565b60d254815160009161260491614b5c565b90508160200151816126169190614b73565b949350505050565b60d55460009080820361263357505060cf5490565b600061263d61303a565b9050600060d45460d65460d354846126559190614af2565b61265f9190614af2565b6126699190614b05565b9050600083612680670de0b6b3a764000084614b5c565b61268a9190614b73565b95945050505050565b6040516001600160a01b0383166024820152604481018290526126f690849063a9059cbb60e01b906064015b60408051601f198184030181529190526020810180516001600160e01b03166001600160e01b031990931692909217909152613ccd565b505050565b6097546040516318c5e8ab60e01b81526000916001600160a01b0316906318c5e8ab9061272e9033908690600401614b95565b602060405180830381865afa15801561274b573d6000803e3d6000fd5b505050506040513d601f19601f8201168201806040525081019061276f9190614bb9565b90508061279557333083604051634a3fa29360e01b8152600401610a3693929190614bd6565b5050565b6127a1611e72565b60d154146127c257604051637dfca6b760e11b815260040160405180910390fd5b670de0b6b3a76400008111156127eb5760405163717220f360e11b815260040160405180910390fd5b60d080549082905560408051828152602081018490527faaa68312e2ea9d50e16af5068410ab56e1a1fd06037b1a35664812c30f8214609101612364565b60cd54604051630217306760e31b81526001600160a01b038381166004830152336024830152909116906310b9833890604401602060405180830381865afa158015612879573d6000803e3d6000fd5b505050506040513d601f19601f8201168201806040525081019061289d9190614bb9565b610afd57604051630cf0b6f560e01b815260040160405180910390fd5b8115806128c5575080155b61292e5760405162461bcd60e51b815260206004820152603460248201527f6f6e65206f662072656465656d546f6b656e73496e206f722072656465656d416044820152736d6f756e74496e206d757374206265207a65726f60601b6064820152608401610a36565b612936611e72565b60d15414612957576040516397b5cfcd60e01b815260040160405180910390fd5b6000604051806020016040528061296c61261e565b905290506000808415612981578491506129bf565b61298b8484613da2565b915060006129998385613dc0565b905080158015906129aa5750848114155b156129bd57826129b981614c02565b9350505b505b6129c98383613022565b905080600003612a125760405162461bcd60e51b815260206004820152601460248201527372656465656d416d6f756e74206973207a65726f60601b6044820152606401610a36565b60cd54604051634732387560e11b81526001600160a01b0390911690638e6470ea90612a469030908b908790600401614c1b565b600060405180830381600087803b158015612a6057600080fd5b505af1158015612a74573d6000803e3d6000fd5b505050508060d454612a8461303a565b612a8e9190614b05565b1015612aad576040516391240a1b60e01b815260040160405180910390fd5b8160d554612abb9190614b05565b60d5556001600160a01b038716600090815260d76020526040812054612ae2908490614b05565b6001600160a01b038916600090815260d7602052604090208190559050612b098783613cb1565b60405183815230906001600160a01b038a1690600080516020614dff8339815191529060200160405180910390a360408051838152602081018590529081018290526001600160a01b038916907fbd5034ffbd47e4e72a94baa2cdb74c6fad73cb3bcdc13036b72ec8306f5a76469060600160405180910390a260cd546040516351dff98960e01b81523060048201526001600160a01b038a811660248301526044820185905260648201869052909116906351dff989906084015b600060405180830381600087803b158015612bdf57600080fd5b505af11580156117a1573d6000803e3d6000fd5b60cd5460405163c0891ba960e01b81526001600160a01b039091169063c0891ba990612c2790309086908690600401614c1b565b600060405180830381600087803b158015612c4157600080fd5b505af1158015612c55573d6000803e3d6000fd5b50505050612c61611e72565b60d15414612c82576040516338d8859760e01b815260040160405180910390fd5b60006040518060200160405280612c9761261e565b905290506000612ca785846130cb565b90506000612cb58284613da2565b90508060d554612cc59190614af2565b60d5556001600160a01b038516600090815260d76020526040812054612cec908390614af2565b6001600160a01b038716600081815260d760209081526040918290208490558151878152908101869052908101839052919250907fb4c03061fb5b7fed76389d5af8f2e0ddb09f8c70d1333abbb62582835e10accb9060600160405180910390a26040518281526001600160a01b03871690600090600080516020614dff8339815191529060200160405180910390a360cd546040516341c728b960e01b81523060048201526001600160a01b0388811660248301526044820186905260648201859052909116906341c728b990608401600060405180830381600087803b158015612dd757600080fd5b505af1158015612deb573d6000803e3d6000fd5b5050505050505050505050565b60cd54604051636d0be88d60e01b81523060048201526001600160a01b03858116602483015284811660448301526064820184905290911690636d0be88d90608401600060405180830381600087803b158015612e5457600080fd5b505af1158015612e68573d6000803e3d6000fd5b50505050816001600160a01b0316836001600160a01b031603612e9e57604051638cd22d1960e01b815260040160405180910390fd5b6000836001600160a01b0316856001600160a01b031603612ec25750600019612eea565b506001600160a01b03808416600090815260d860209081526040808320938816835292905220545b6000612ef68383614b05565b6001600160a01b038616600090815260d7602052604081205491925090612f1e908590614b05565b6001600160a01b038616600090815260d7602052604081205491925090612f46908690614af2565b6001600160a01b03808916600090815260d7602052604080822086905591891681522081905590506000198414612fa0576001600160a01b03808816600090815260d860209081526040808320938c168352929052208390555b856001600160a01b0316876001600160a01b0316600080516020614dff83398151915287604051612fd391815260200190565b60405180910390a360cd5460405163352b4a3f60e11b81523060048201526001600160a01b03898116602483015288811660448301526064820188905290911690636a56947e90608401612bc5565b60008061302f84846138b5565b905061261681613de3565b60c9546040516370a0823160e01b815230600482015260009161010090046001600160a01b0316906370a0823190602401611c7e565b61307981612229565b60db80546001600160a01b038381166001600160a01b0319831681179093556040519116919082907f6dbf1ff28f860de5edafa4c6505e37c0aba213288cc4166c5352b6d3776c79ef90600090a35050565b60c9546040516370a0823160e01b815230600482015260009161010090046001600160a01b031690829082906370a0823190602401602060405180830381865afa15801561311d573d6000803e3d6000fd5b505050506040513d601f19601f820116820180604052508101906131419190614ac3565b90506131586001600160a01b038316863087613dfb565b6040516370a0823160e01b81523060048201526000906001600160a01b038416906370a0823190602401602060405180830381865afa15801561319f573d6000803e3d6000fd5b505050506040513d601f19601f820116820180604052508101906131c39190614ac3565b90506131cf8282614b05565b9695505050505050565b606580546001600160a01b0319169055610afd81613e22565b60008060006131ff611e72565b60d15414613223576040516338acf79960e01b815260048101829052602401610a36565b61322d33856130cb565b90508060d45461323d9190614af2565b60d4819055604080518381526020810183905291935033917fa91e67c5ea634cd43a12c5a482724b03de01e85ca68702a53d0c2f45cb7c1dc5910160405180910390a29392505050565b60cd5460405163df71403b60e01b81526001600160a01b039091169063df71403b906132bb90309087908690600401614c1b565b600060405180830381600087803b1580156132d557600080fd5b505af11580156132e9573d6000803e3d6000fd5b505050506132f5611e72565b60d1541461331657604051630e8d8c6160e21b815260040160405180910390fd5b8060d45461332261303a565b61332c9190614b05565b101561334b576040516348c2588160e01b815260040160405180910390fd5b6000613356846125ae565b905060006133648383614af2565b905060008360d3546133769190614af2565b6001600160a01b038716600090815260d96020526040902083815560d25460019091015560d381905590506133ab8585613cb1565b60408051858152602081018490529081018290526001600160a01b038716907f13ed6866d4e1ee6da46f845c46d7e54120883d75c5ea9a2dacc1c4ca8984ab809060600160405180910390a260cd54604051635c77860560e01b81526001600160a01b0390911690635c7786059061342b9030908a908990600401614c1b565b600060405180830381600087803b15801561344557600080fd5b505af1158015613459573d6000803e3d6000fd5b50505050505050505050565b600054610100900460ff1661348c5760405162461bcd60e51b8152600401610a3690614c3f565b613494613e74565b61349d83613ea3565b60d1541580156134ad575060d254155b6135055760405162461bcd60e51b815260206004820152602360248201527f6d61726b6574206d6179206f6e6c7920626520696e697469616c697a6564206f6044820152626e636560e81b6064820152608401610a36565b60cf889055876135705760405162461bcd60e51b815260206004820152603060248201527f696e697469616c2065786368616e67652072617465206d75737420626520677260448201526f32b0ba32b9103a3430b7103d32b9379760811b6064820152608401610a36565b6135798a613eca565b613581611e72565b60d155670de0b6b3a764000060d25561359989613773565b6135a281612799565b60ca6135ae8882614cda565b5060cb6135bb8782614cda565b5060cc805460ff191660ff871617905581516135d690613070565b6135e3826020015161254b565b66b1a2bc2ec5000060da5560c98054610100600160a81b0319166101006001600160a01b038e811682029290921792839055604080516318160ddd60e01b8152905191909304909116916318160ddd9160048083019260209291908290030181865afa158015613657573d6000803e3d6000fd5b505050506040513d601f19601f8201168201806040525081019061367b9190614ac3565b5060c9805460ff19166001179055612deb846131d9565b60c95460ff166136b45760405162461bcd60e51b8152600401610a3690614a9f565b60c9805460ff191690556136c6611976565b506000826001600160a01b031663a6afed956040518163ffffffff1660e01b81526004016020604051808303816000875af1158015613709573d6000803e3d6000fd5b505050506040513d601f19601f8201168201806040525081019061372d9190614ac3565b9050801561375157604051633eea49b760e11b815260048101829052602401610a36565b61375e8686868686613fd5565b505060c9805460ff1916600117905550505050565b600061377d611e72565b60d1541461379e57604051630be2a5cb60e11b815260040160405180910390fd5b60ce60009054906101000a90046001600160a01b03169050816001600160a01b0316632191f92a6040518163ffffffff1660e01b8152600401602060405180830381865afa1580156137f4573d6000803e3d6000fd5b505050506040513d601f19601f820116820180604052508101906138189190614bb9565b6138645760405162461bcd60e51b815260206004820152601c60248201527f6d61726b6572206d6574686f642072657475726e65642066616c7365000000006044820152606401610a36565b60ce80546001600160a01b0319166001600160a01b0384811691821790925560405190918316907fedffc32e068c7c95dfd4bdfd5c4d939a084d6b11c4199eac8436ed234d72f92690600090a35050565b60408051602081019091526000815260405180602001604052806138dd856000015185614463565b90529392505050565b6000806138f385856138b5565b905061268a61390182613de3565b8461446f565b60cd5460405163037883e560e31b81523060048201526001600160a01b0386811660248301528581166044830152848116606483015290911690631bc41f2890608401600060405180830381600087803b15801561396457600080fd5b505af1158015613978573d6000803e3d6000fd5b50505050826001600160a01b0316826001600160a01b0316036139ae57604051633a94626760e11b815260040160405180910390fd5b60cd5460408051634ada90af60e01b815290516000926001600160a01b031691634ada90af9160048083019260209291908290030181865afa1580156139f8573d6000803e3d6000fd5b505050506040513d601f19601f82011682018060405250810190613a1c9190614ac3565b90506000613a3a83604051806020016040528060da54815250613dc0565b90506000613a5682604051806020016040528086815250613da2565b90506000613a648286614b05565b905060006040518060200160405280613a7b61261e565b905290506000613a8b8285613022565b90508360d554613a9b9190614b05565b60d5556001600160a01b038816600090815260d76020526040902054613ac2908890614b05565b6001600160a01b03808a16600090815260d7602052604080822093909355908b1681522054613af2908490614af2565b6001600160a01b03808b16600090815260d7602052604090209190915560cc54613b23916101009091041682613cb1565b60cc5460cd5460c9546040516305bebb3b60e21b81526001600160a01b03610100948590048116946316faecec94613b6b949083169391900490911690600190600401614b18565b600060405180830381600087803b158015613b8557600080fd5b505af1158015613b99573d6000803e3d6000fd5b50505050886001600160a01b0316886001600160a01b0316600080516020614dff83398151915285604051613bd091815260200190565b60405180910390a360cc546040516001600160a01b036101009092048216918a16907f3ac0548d62d3fa3c9a817cd33899b9acacd57e8958ebe51bc7d9a79f26a8a5db90613c219085815260200190565b60405180910390a360cd54604051636d35bf9160e01b81523060048201526001600160a01b038c811660248301528b811660448301528a81166064830152608482018a905290911690636d35bf919060a401600060405180830381600087803b158015613c8d57600080fd5b505af1158015613ca1573d6000803e3d6000fd5b5050505050505050505050505050565b60c95461010090046001600160a01b03166126f6818484612693565b6000613d22826040518060400160405280602081526020017f5361666545524332303a206c6f772d6c6576656c2063616c6c206661696c6564815250856001600160a01b031661447b9092919063ffffffff16565b9050805160001480613d43575080806020019051810190613d439190614bb9565b6126f65760405162461bcd60e51b815260206004820152602a60248201527f5361666545524332303a204552433230206f7065726174696f6e20646964206e6044820152691bdd081cdd58d8d9595960b21b6064820152608401610a36565b60006110eb613db984670de0b6b3a7640000614463565b835161448a565b6000670de0b6b3a7640000613dd9848460000151614463565b6110eb9190614b73565b8051600090610ae690670de0b6b3a764000090614b73565b613e1c846323b872dd60e01b8585856040516024016126bf93929190614c1b565b50505050565b603380546001600160a01b038381166001600160a01b0319831681179093556040519116919082907f8be0079c531659141344cd1fd0a4f28419497f9722a3daafe3b4186f6b6457e090600090a35050565b600054610100900460ff16613e9b5760405162461bcd60e51b8152600401610a3690614c3f565b6113c2614496565b600054610100900460ff16610af45760405162461bcd60e51b8152600401610a3690614c3f565b60cd5460408051623f1ee960e11b815290516001600160a01b0392831692841691627e3dd29160048083019260209291908290030181865afa158015613f14573d6000803e3d6000fd5b505050506040513d601f19601f82011682018060405250810190613f389190614bb9565b613f845760405162461bcd60e51b815260206004820152601c60248201527f6d61726b6572206d6574686f642072657475726e65642066616c7365000000006044820152606401610a36565b60cd80546001600160a01b0319166001600160a01b0384811691821790925560405190918316907f7ac369dbd14fa5ea3f473ed67cc9d598964a77501540ba6751eb0b3decf5870d90600090a35050565b60cd5460405163e89d51ad60e01b81523060048201526001600160a01b03848116602483015286811660448301526064820186905283151560848301529091169063e89d51ad9060a401600060405180830381600087803b15801561403957600080fd5b505af115801561404d573d6000803e3d6000fd5b50505050614059611e72565b60d1541461407a576040516380965b1b60e01b815260040160405180910390fd5b614082611e72565b826001600160a01b0316636c540baf6040518163ffffffff1660e01b8152600401602060405180830381865afa1580156140c0573d6000803e3d6000fd5b505050506040513d601f19601f820116820180604052508101906140e49190614ac3565b1461410257604051631046f38d60e31b815260040160405180910390fd5b846001600160a01b0316846001600160a01b03160361413457604051631bd1a62160e21b815260040160405180910390fd5b826000036141555760405163d29da7ef60e01b815260040160405180910390fd5b600019830361417757604051635982c5bb60e11b815260040160405180910390fd5b6000614184868686612370565b60cd5460405163c488847b60e01b815291925060009182916001600160a01b03169063c488847b906141be90309089908890600401614c1b565b6040805180830381865afa1580156141da573d6000803e3d6000fd5b505050506040513d601f19601f820116820180604052508101906141fe9190614d9a565b915091506000821461426e5760405162461bcd60e51b815260206004820152603360248201527f4c49515549444154455f434f4d5054524f4c4c45525f43414c43554c4154455f604482015272105353d5539517d4d152569157d19052531151606a1b6064820152608401610a36565b6040516370a0823160e01b81526001600160a01b0388811660048301528291908716906370a0823190602401602060405180830381865afa1580156142b7573d6000803e3d6000fd5b505050506040513d601f19601f820116820180604052508101906142db9190614ac3565b10156143295760405162461bcd60e51b815260206004820152601860248201527f4c49515549444154455f5345495a455f544f4f5f4d55434800000000000000006044820152606401610a36565b306001600160a01b0386160361434a5761434530898984613907565b6143ad565b60405163b2a02ff160e01b81526001600160a01b0386169063b2a02ff19061437a908b908b908690600401614c1b565b600060405180830381600087803b15801561439457600080fd5b505af11580156143a8573d6000803e3d6000fd5b505050505b846001600160a01b0316876001600160a01b0316896001600160a01b03167f298637f684da70674f26509b10f07ec2fbc77a335ab1e7d6215a4b2484d8bb528685604051614405929190918252602082015260400190565b60405180910390a460cd546040516347ef3b3b60e01b81523060048201526001600160a01b0387811660248301528a8116604483015289811660648301526084820186905260a48201849052909116906347ef3b3b9060c401612bc5565b60006110eb8284614b5c565b60006110eb8284614af2565b606061261684846000856144c6565b60006110eb8284614b73565b600054610100900460ff166144bd5760405162461bcd60e51b8152600401610a3690614c3f565b6113c2336131d9565b6060824710156145275760405162461bcd60e51b815260206004820152602660248201527f416464726573733a20696e73756666696369656e742062616c616e636520666f6044820152651c8818d85b1b60d21b6064820152608401610a36565b600080866001600160a01b031685876040516145439190614dbe565b60006040518083038185875af1925050503d8060008114614580576040519150601f19603f3d011682016040523d82523d6000602084013e614585565b606091505b5091509150614596878383876145a1565b979650505050505050565b60608315614610578251600003614609576001600160a01b0385163b6146095760405162461bcd60e51b815260206004820152601d60248201527f416464726573733a2063616c6c20746f206e6f6e2d636f6e74726163740000006044820152606401610a36565b5081612616565b61261683838151156146255781518083602001fd5b8060405162461bcd60e51b8152600401610a36919061468f565b60005b8381101561465a578181015183820152602001614642565b50506000910152565b6000815180845261467b81602086016020860161463f565b601f01601f19169290920160200192915050565b6020815260006110eb6020830184614663565b6000602082840312156146b457600080fd5b5035919050565b6001600160a01b0381168114610afd57600080fd5b80356146db816146bb565b919050565b600080604083850312156146f357600080fd5b82356146fe816146bb565b946020939093013593505050565b60006020828403121561471e57600080fd5b81356110eb816146bb565b60008060006060848603121561473e57600080fd5b8335614749816146bb565b92506020840135614759816146bb565b929592945050506040919091013590565b634e487b7160e01b600052604160045260246000fd5b600082601f83011261479157600080fd5b813567ffffffffffffffff808211156147ac576147ac61476a565b604051601f8301601f19908116603f011681019082821181831017156147d4576147d461476a565b816040528381528660208588010111156147ed57600080fd5b836020870160208301376000602085830101528094505050505092915050565b803560ff811681146146db57600080fd5b60006040828403121561483057600080fd5b6040516040810181811067ffffffffffffffff821117156148535761485361476a565b6040529050808235614864816146bb565b81526020830135614874816146bb565b6020919091015292915050565b60008060008060008060008060008060006101808c8e0312156148a357600080fd5b6148ac8c6146d0565b9a506148ba60208d016146d0565b99506148c860408d016146d0565b985060608c0135975067ffffffffffffffff8060808e013511156148eb57600080fd5b6148fb8e60808f01358f01614780565b97508060a08e0135111561490e57600080fd5b5061491f8d60a08e01358e01614780565b955061492d60c08d0161480d565b945061493b60e08d016146d0565b935061494a6101008d016146d0565b925061495a8d6101208e0161481e565b91506101608c013590509295989b509295989b9093969950565b8015158114610afd57600080fd5b600080600080600060a0868803121561499a57600080fd5b85356149a5816146bb565b945060208601356149b5816146bb565b93506040860135925060608601356149cc816146bb565b915060808601356149dc81614974565b809150509295509295909350565b600080604083850312156149fd57600080fd5b8235614a08816146bb565b91506020830135614a18816146bb565b809150509250929050565b600080600060608486031215614a3857600080fd5b8335614a43816146bb565b9250602084013591506040840135614a5a816146bb565b809150509250925092565b600181811c90821680614a7957607f821691505b602082108103614a9957634e487b7160e01b600052602260045260246000fd5b50919050565b6020808252600a90820152691c994b595b9d195c995960b21b604082015260600190565b600060208284031215614ad557600080fd5b5051919050565b634e487b7160e01b600052601160045260246000fd5b80820180821115610ae657610ae6614adc565b81810381811115610ae657610ae6614adc565b6001600160a01b038481168252831660208201526060810160028310614b4e57634e487b7160e01b600052602160045260246000fd5b826040830152949350505050565b8082028115828204841417610ae657610ae6614adc565b600082614b9057634e487b7160e01b600052601260045260246000fd5b500490565b6001600160a01b038316815260406020820181905260009061261690830184614663565b600060208284031215614bcb57600080fd5b81516110eb81614974565b6001600160a01b0384811682528316602082015260606040820181905260009061268a90830184614663565b600060018201614c1457614c14614adc565b5060010190565b6001600160a01b039384168152919092166020820152604081019190915260600190565b6020808252602b908201527f496e697469616c697a61626c653a20636f6e7472616374206973206e6f74206960408201526a6e697469616c697a696e6760a81b606082015260800190565b601f8211156126f6576000816000526020600020601f850160051c81016020861015614cb35750805b601f850160051c820191505b81811015614cd257828155600101614cbf565b505050505050565b815167ffffffffffffffff811115614cf457614cf461476a565b614d0881614d028454614a65565b84614c8a565b602080601f831160018114614d3d5760008415614d255750858301515b600019600386901b1c1916600185901b178555614cd2565b600085815260208120601f198616915b82811015614d6c57888601518255948401946001909101908401614d4d565b5085821015614d8a5787850151600019600388901b60f8161c191681555b5050505050600190811b01905550565b60008060408385031215614dad57600080fd5b505080516020909101519092909150565b60008251614dd081846020870161463f565b919091019291505056fe7365745265647563655265736572766573426c6f636b44656c74612875696e7432353629ddf252ad1be2c89b69c2b068fc378daa952ba7f163c4a11628f55a4df523b3efa2646970667358221220ea8b111e42a34b649ca4a2dd9f75e129412dd50037fa3a998ff5958bd540d05864736f6c63430008190033",
  "devdoc": {
    "author": "Venus",
    "events": {
      "BadDebtIncreased(address,uint256,uint256,uint256)": {
        "params": {
          "badDebtDelta": "amount of new bad debt recorded",
          "badDebtNew": "new bad debt value",
          "badDebtOld": "previous bad debt value",
          "borrower": "borrower to \"forgive\""
        }
      },
      "BadDebtRecovered(uint256,uint256)": {
        "params": {
          "badDebtNew": "new bad debt value",
          "badDebtOld": "previous bad debt value"
        }
      },
      "Initialized(uint8)": {
        "details": "Triggered when the contract has been initialized or reinitialized."
      }
    },
    "kind": "dev",
    "methods": {
      "acceptOwnership()": {
        "details": "The new owner accepts the ownership transfer."
      },
      "accrueInterest()": {
        "custom:access": "Not restricted",
        "custom:event": "Emits AccrueInterest event on success",
        "details": "This calculates interest accrued from the last checkpointed slot(block or second)  up to the current slot(block or second) and writes new checkpoint to storage and  reduce spread reserves to protocol share reserve  if currentSlot - reduceReservesBlockNumber >= slotDelta",
        "returns": {
          "_0": "Always NO_ERROR"
        }
      },
      "addReserves(uint256)": {
        "custom:access": "Not restricted",
        "custom:event": "Emits ReservesAdded event; may emit AccrueInterest",
        "params": {
          "addAmount": "The amount of underlying token to add as reserves"
        }
      },
      "allowance(address,address)": {
        "params": {
          "owner": "The address of the account which owns the tokens to be spent",
          "spender": "The address of the account which may transfer tokens"
        },
        "returns": {
          "_0": "amount The number of tokens allowed to be spent (type(uint256).max means infinite)"
        }
      },
      "approve(address,uint256)": {
        "custom:access": "Not restricted",
        "custom:error": "ZeroAddressNotAllowed is thrown when spender address is zero",
        "custom:event": "Emits Approval event",
        "details": "This will overwrite the approval amount for `spender`  and is subject to issues noted [here](https://eips.ethereum.org/EIPS/eip-20#approve)",
        "params": {
          "amount": "The number of tokens that are approved (uint256.max means infinite)",
          "spender": "The address of the account which may transfer tokens"
        },
        "returns": {
          "_0": "success Whether or not the approval succeeded"
        }
      },
      "badDebtRecovered(uint256)": {
        "custom:access": "Only Shortfall contract",
        "custom:event": "Emits BadDebtRecovered event",
        "details": "Called only when bad debt is recovered from auction",
        "params": {
          "recoveredAmount_": "The amount of bad debt recovered"
        }
      },
      "balanceOf(address)": {
        "params": {
          "owner": "The address of the account to query"
        },
        "returns": {
          "_0": "amount The number of tokens owned by `owner`"
        }
      },
      "balanceOfUnderlying(address)": {
        "details": "This also accrues interest in a transaction",
        "params": {
          "owner": "The address of the account to query"
        },
        "returns": {
          "_0": "amount The amount of underlying owned by `owner`"
        }
      },
      "borrow(uint256)": {
        "custom:access": "Not restricted",
        "custom:error": "BorrowCashNotAvailable is thrown when the protocol has insufficient cash",
        "custom:event": "Emits Borrow event; may emit AccrueInterest",
        "params": {
          "borrowAmount": "The amount of the underlying asset to borrow"
        },
        "returns": {
          "_0": "error Always NO_ERROR for compatibility with Venus core tooling"
        }
      },
      "borrowBalanceCurrent(address)": {
        "params": {
          "account": "The address whose balance should be calculated after updating borrowIndex"
        },
        "returns": {
          "_0": "borrowBalance The calculated balance"
        }
      },
      "borrowBalanceStored(address)": {
        "params": {
          "account": "The address whose balance should be calculated"
        },
        "returns": {
          "_0": "borrowBalance The calculated balance"
        }
      },
      "borrowBehalf(address,uint256)": {
        "custom:access": "Not restricted",
        "custom:error": "DelegateNotApproved is thrown if caller is not approved delegateBorrowCashNotAvailable is thrown when the protocol has insufficient cash",
        "custom:event": "Emits Borrow event; may emit AccrueInterest",
        "params": {
          "borrowAmount": "The amount of the underlying asset to borrow",
          "borrower": "The borrower, on behalf of whom to borrow"
        },
        "returns": {
          "_0": "error Always NO_ERROR for compatibility with Venus core tooling"
        }
      },
      "borrowRatePerBlock()": {
        "returns": {
          "_0": "rate The borrow interest rate per slot(block or second), scaled by 1e18"
        }
      },
      "constructor": {
        "custom:oz-upgrades-unsafe-allow": "constructor",
        "params": {
          "blocksPerYear_": "The number of blocks per year",
          "maxBorrowRateMantissa_": "The maximum value of borrowing rate mantissa",
          "timeBased_": "A boolean indicating whether the contract is based on time or block."
        }
      },
      "decreaseAllowance(address,uint256)": {
        "custom:access": "Not restricted",
        "custom:error": "ZeroAddressNotAllowed is thrown when spender address is zero",
        "custom:event": "Emits Approval event",
        "params": {
          "spender": "The address of the account which may transfer tokens",
          "subtractedValue": "The number of tokens to remove from total approval"
        },
        "returns": {
          "_0": "success Whether or not the approval succeeded"
        }
      },
      "exchangeRateCurrent()": {
        "returns": {
          "_0": "exchangeRate Calculated exchange rate scaled by 1e18"
        }
      },
      "exchangeRateStored()": {
        "details": "This function does not accrue interest before calculating the exchange rate",
        "returns": {
          "_0": "exchangeRate Calculated exchange rate scaled by 1e18"
        }
      },
      "forceLiquidateBorrow(address,address,uint256,address,bool)": {
        "custom:access": "Only Comptroller",
        "custom:error": "ForceLiquidateBorrowUnauthorized is thrown when the request does not come from ComptrollerLiquidateAccrueCollateralInterestFailed is thrown when it is not possible to accrue interest on the collateral vTokenLiquidateCollateralFreshnessCheck is thrown when interest has not been accrued on the collateral vTokenLiquidateLiquidatorIsBorrower is thrown when trying to liquidate selfLiquidateCloseAmountIsZero is thrown when repayment amount is zeroLiquidateCloseAmountIsUintMax is thrown when repayment amount is UINT_MAX",
        "custom:event": "Emits LiquidateBorrow event; may emit AccrueInterest",
        "params": {
          "borrower": "The borrower of this vToken to be liquidated",
          "liquidator": "The address repaying the borrow and seizing collateral",
          "repayAmount": "The amount of the underlying borrowed asset to repay",
          "skipLiquidityCheck": "If set to true, allows to liquidate up to 100% of the borrow   regardless of the account liquidity",
          "vTokenCollateral": "The market in which to seize collateral from the borrower"
        }
      },
      "getAccountSnapshot(address)": {
        "details": "This is used by comptroller to more efficiently perform liquidity checks.",
        "params": {
          "account": "Address of the account to snapshot"
        },
        "returns": {
          "borrowBalance": "Amount owed in terms of underlying",
          "error": "Always NO_ERROR for compatibility with Venus core tooling",
          "exchangeRate": "Stored exchange rate",
          "vTokenBalance": "User's balance of vTokens"
        }
      },
      "getBlockNumberOrTimestamp()": {
        "details": "Function to simply retrieve block number or block timestamp",
        "returns": {
          "_0": "Current block number or block timestamp"
        }
      },
      "getCash()": {
        "returns": {
          "_0": "cash The quantity of underlying asset owned by this contract"
        }
      },
      "healBorrow(address,address,uint256)": {
        "custom:access": "Only Comptroller",
        "custom:error": "HealBorrowUnauthorized is thrown when the request does not come from Comptroller",
        "custom:event": "Emits RepayBorrow, BadDebtIncreased events; may emit AccrueInterest",
        "details": "This function does not call any Comptroller hooks (like \"healAllowed\"), because we assume   the Comptroller does all the necessary checks before calling this function.",
        "params": {
          "borrower": "account to heal",
          "payer": "account who repays the debt",
          "repayAmount": "amount to repay"
        }
      },
      "increaseAllowance(address,uint256)": {
        "custom:access": "Not restricted",
        "custom:error": "ZeroAddressNotAllowed is thrown when spender address is zero",
        "custom:event": "Emits Approval event",
        "params": {
          "addedValue": "The number of additional tokens spender can transfer",
          "spender": "The address of the account which may transfer tokens"
        },
        "returns": {
          "_0": "success Whether or not the approval succeeded"
        }
      },
      "initialize(address,address,address,uint256,string,string,uint8,address,address,(address,address),uint256)": {
        "custom:error": "ZeroAddressNotAllowed is thrown when admin address is zeroZeroAddressNotAllowed is thrown when shortfall contract address is zeroZeroAddressNotAllowed is thrown when protocol share reserve address is zero",
        "params": {
          "accessControlManager_": "AccessControlManager contract address",
          "admin_": "Address of the administrator of this token",
          "comptroller_": "The address of the Comptroller",
          "decimals_": "ERC-20 decimal precision of this token",
          "initialExchangeRateMantissa_": "The initial exchange rate, scaled by 1e18",
          "interestRateModel_": "The address of the interest rate model",
          "name_": "ERC-20 name of this token",
          "reserveFactorMantissa_": "Percentage of borrow interest that goes to reserves (from 0 to 1e18)",
          "riskManagement": "Addresses of risk & income related contracts",
          "symbol_": "ERC-20 symbol of this token",
          "underlying_": "The address of the underlying asset"
        }
      },
      "isVToken()": {
        "returns": {
          "_0": "Always true"
        }
      },
      "liquidateBorrow(address,uint256,address)": {
        "custom:access": "Not restricted",
        "custom:error": "LiquidateAccrueCollateralInterestFailed is thrown when it is not possible to accrue interest on the collateral vTokenLiquidateCollateralFreshnessCheck is thrown when interest has not been accrued on the collateral vTokenLiquidateLiquidatorIsBorrower is thrown when trying to liquidate selfLiquidateCloseAmountIsZero is thrown when repayment amount is zeroLiquidateCloseAmountIsUintMax is thrown when repayment amount is UINT_MAX",
        "custom:event": "Emits LiquidateBorrow event; may emit AccrueInterest",
        "params": {
          "borrower": "The borrower of this vToken to be liquidated",
          "repayAmount": "The amount of the underlying borrowed asset to repay",
          "vTokenCollateral": "The market in which to seize collateral from the borrower"
        },
        "returns": {
          "_0": "error Always NO_ERROR for compatibility with Venus core tooling"
        }
      },
      "mint(uint256)": {
        "custom:access": "Not restricted",
        "custom:event": "Emits Mint and Transfer events; may emit AccrueInterest",
        "details": "Accrues interest whether or not the operation succeeds, unless reverted",
        "params": {
          "mintAmount": "The amount of the underlying asset to supply"
        },
        "returns": {
          "_0": "error Always NO_ERROR for compatibility with Venus core tooling"
        }
      },
      "mintBehalf(address,uint256)": {
        "custom:access": "Not restricted",
        "custom:error": "ZeroAddressNotAllowed is thrown when minter address is zero",
        "custom:event": "Emits Mint and Transfer events; may emit AccrueInterest",
        "details": "Accrues interest whether or not the operation succeeds, unless reverted",
        "params": {
          "mintAmount": "The amount of the underlying asset to supply",
          "minter": "User whom the supply will be attributed to"
        },
        "returns": {
          "_0": "error Always NO_ERROR for compatibility with Venus core tooling"
        }
      },
      "owner()": {
        "details": "Returns the address of the current owner."
      },
      "pendingOwner()": {
        "details": "Returns the address of the pending owner."
      },
      "redeem(uint256)": {
        "custom:access": "Not restricted",
        "custom:error": "RedeemTransferOutNotPossible is thrown when the protocol has insufficient cash",
        "custom:event": "Emits Redeem and Transfer events; may emit AccrueInterest",
        "details": "Accrues interest whether or not the operation succeeds, unless reverted",
        "params": {
          "redeemTokens": "The number of vTokens to redeem into underlying"
        },
        "returns": {
          "_0": "error Always NO_ERROR for compatibility with Venus core tooling"
        }
      },
      "redeemBehalf(address,uint256)": {
        "custom:access": "Not restricted",
        "custom:error": "InsufficientRedeemApproval is thrown when sender is not approved by the redeemer for the given amountRedeemTransferOutNotPossible is thrown when the protocol has insufficient cash",
        "custom:event": "Emits Redeem and Transfer events; may emit AccrueInterest",
        "details": "Accrues interest whether or not the operation succeeds, unless reverted",
        "params": {
          "redeemTokens": "The number of vTokens to redeem into underlying",
          "redeemer": "The user on behalf of whom to redeem"
        },
        "returns": {
          "_0": "error Always NO_ERROR for compatibility with Venus core tooling"
        }
      },
      "redeemUnderlying(uint256)": {
        "details": "Accrues interest whether or not the operation succeeds, unless reverted",
        "params": {
          "redeemAmount": "The amount of underlying to receive from redeeming vTokens"
        },
        "returns": {
          "_0": "error Always NO_ERROR for compatibility with Venus core tooling"
        }
      },
      "redeemUnderlyingBehalf(address,uint256)": {
        "custom:access": "Not restricted",
        "custom:error": "InsufficientRedeemApproval is thrown when sender is not approved by the redeemer for the given amount",
        "custom:event": "Emits Redeem and Transfer events; may emit AccrueInterest",
        "details": "Accrues interest whether or not the operation succeeds, unless reverted",
        "params": {
          "redeemAmount": "The amount of underlying to receive from redeeming vTokens",
          "redeemer": ", on behalf of whom to redeem"
        },
        "returns": {
          "_0": "error Always NO_ERROR for compatibility with Venus core tooling"
        }
      },
      "reduceReserves(uint256)": {
        "custom:access": "Not restricted",
        "custom:error": "ReduceReservesCashNotAvailable is thrown when the vToken does not have sufficient cashReduceReservesCashValidation is thrown when trying to withdraw more cash than the reserves have",
        "custom:event": "Emits ReservesReduced event; may emit AccrueInterest",
        "details": "Gracefully return if reserves already reduced in accrueInterest",
        "params": {
          "reduceAmount": "Amount of reduction to reserves"
        }
      },
      "renounceOwnership()": {
        "details": "Leaves the contract without owner. It will not be possible to call `onlyOwner` functions. Can only be called by the current owner. NOTE: Renouncing ownership will leave the contract without an owner, thereby disabling any functionality that is only available to the owner."
      },
      "repayBorrow(uint256)": {
        "custom:access": "Not restricted",
        "custom:event": "Emits RepayBorrow event; may emit AccrueInterest",
        "params": {
          "repayAmount": "The amount to repay, or type(uint256).max for the full outstanding amount"
        },
        "returns": {
          "_0": "error Always NO_ERROR for compatibility with Venus core tooling"
        }
      },
      "repayBorrowBehalf(address,uint256)": {
        "custom:access": "Not restricted",
        "custom:event": "Emits RepayBorrow event; may emit AccrueInterest",
        "params": {
          "borrower": "the account with the debt being payed off",
          "repayAmount": "The amount to repay, or type(uint256).max for the full outstanding amount"
        },
        "returns": {
          "_0": "error Always NO_ERROR for compatibility with Venus core tooling"
        }
      },
      "seize(address,address,uint256)": {
        "custom:access": "Not restricted",
        "custom:error": "LiquidateSeizeLiquidatorIsBorrower is thrown when trying to liquidate self",
        "custom:event": "Emits Transfer, ReservesAdded events",
        "details": "Will fail unless called by another vToken during the process of liquidation.  It's absolutely critical to use msg.sender as the borrowed vToken and not a parameter.",
        "params": {
          "borrower": "The account having collateral seized",
          "liquidator": "The account receiving seized collateral",
          "seizeTokens": "The number of vTokens to seize"
        }
      },
      "setAccessControlManager(address)": {
        "custom:access": "Only Governance",
        "custom:event": "Emits NewAccessControlManager event",
        "details": "Admin function to set address of AccessControlManager",
        "params": {
          "accessControlManager_": "The new address of the AccessControlManager"
        }
      },
      "setInterestRateModel(address)": {
        "custom:access": "Controlled by AccessControlManager",
        "custom:error": "Unauthorized error is thrown when the call is not authorized by AccessControlManager",
        "custom:event": "Emits NewMarketInterestRateModel event; may emit AccrueInterest",
        "details": "Admin function to accrue interest and update the interest rate model",
        "params": {
          "newInterestRateModel": "the new interest rate model to use"
        }
      },
      "setProtocolSeizeShare(uint256)": {
        "custom:access": "Controlled by AccessControlManager",
        "custom:error": "Unauthorized error is thrown when the call is not authorized by AccessControlManagerProtocolSeizeShareTooBig is thrown when the new seize share is too high",
        "custom:event": "Emits NewProtocolSeizeShare event on success",
        "details": "must be equal or less than liquidation incentive - 1",
        "params": {
          "newProtocolSeizeShareMantissa_": "new protocol share mantissa"
        }
      },
      "setProtocolShareReserve(address)": {
        "custom:access": "Only Governance",
        "custom:error": "ZeroAddressNotAllowed is thrown when protocol share reserve address is zero",
        "params": {
          "protocolShareReserve_": "The address of the protocol share reserve contract"
        }
      },
      "setReduceReservesBlockDelta(uint256)": {
        "custom:access": "Only Governance",
        "params": {
          "_newReduceReservesBlockOrTimestampDelta": "slot(block or second) difference value"
        }
      },
      "setReserveFactor(uint256)": {
        "custom:access": "Controlled by AccessControlManager",
        "custom:error": "Unauthorized error is thrown when the call is not authorized by AccessControlManagerSetReserveFactorBoundsCheck is thrown when the new reserve factor is too high",
        "custom:event": "Emits NewReserveFactor event; may emit AccrueInterest",
        "details": "Admin function to accrue interest and set a new reserve factor",
        "params": {
          "newReserveFactorMantissa": "New reserve factor (from 0 to 1e18)"
        }
      },
      "setShortfallContract(address)": {
        "custom:access": "Only Governance",
        "custom:error": "ZeroAddressNotAllowed is thrown when shortfall contract address is zero",
        "params": {
          "shortfall_": "The address of the shortfall contract"
        }
      },
      "supplyRatePerBlock()": {
        "returns": {
          "_0": "rate The supply interest rate per slot(block or second), scaled by 1e18"
        }
      },
      "sweepToken(address)": {
        "custom:access": "Only Governance",
        "params": {
          "token": "The address of the ERC-20 token to sweep"
        }
      },
      "totalBorrowsCurrent()": {
        "returns": {
          "_0": "totalBorrows The total borrows with interest"
        }
      },
      "transfer(address,uint256)": {
        "custom:access": "Not restricted",
        "custom:error": "TransferNotAllowed is thrown if trying to transfer to self",
        "custom:event": "Emits Transfer event on success",
        "params": {
          "amount": "The number of tokens to transfer",
          "dst": "The address of the destination account"
        },
        "returns": {
          "_0": "success True if the transfer succeeded, reverts otherwise"
        }
      },
      "transferFrom(address,address,uint256)": {
        "custom:access": "Not restricted",
        "custom:error": "TransferNotAllowed is thrown if trying to transfer to self",
        "custom:event": "Emits Transfer event on success",
        "params": {
          "amount": "The number of tokens to transfer",
          "dst": "The address of the destination account",
          "src": "The address of the source account"
        },
        "returns": {
          "_0": "success True if the transfer succeeded, reverts otherwise"
        }
      },
      "transferOwnership(address)": {
        "details": "Starts the ownership transfer of the contract to a new account. Replaces the pending transfer if there is one. Can only be called by the current owner."
      }
    },
    "stateVariables": {
      "MAX_BORROW_RATE_MANTISSA": {
        "custom:oz-upgrades-unsafe-allow": "state-variable-immutable"
      }
    },
    "title": "VToken",
    "version": 1
  },
  "userdoc": {
    "errors": {
      "InvalidBlocksPerYear()": [
        {
          "notice": "Thrown when blocks per year is invalid"
        }
      ],
      "InvalidTimeBasedConfiguration()": [
        {
          "notice": "Thrown when time based but blocks per year is provided"
        }
      ],
      "Unauthorized(address,address,string)": [
        {
          "notice": "Thrown when the action is prohibited by AccessControlManager"
        }
      ],
      "ZeroAddressNotAllowed()": [
        {
          "notice": "Thrown if the supplied address is a zero address where it is not allowed"
        }
      ]
    },
    "events": {
      "AccrueInterest(uint256,uint256,uint256,uint256)": {
        "notice": "Event emitted when interest is accrued"
      },
      "Approval(address,address,uint256)": {
        "notice": "EIP20 Approval event"
      },
      "BadDebtIncreased(address,uint256,uint256,uint256)": {
        "notice": "Event emitted when bad debt is accumulated on a market"
      },
      "BadDebtRecovered(uint256,uint256)": {
        "notice": "Event emitted when bad debt is recovered via an auction"
      },
      "Borrow(address,uint256,uint256,uint256)": {
        "notice": "Event emitted when underlying is borrowed"
      },
      "HealBorrow(address,address,uint256)": {
        "notice": "Event emitted when healing the borrow"
      },
      "LiquidateBorrow(address,address,uint256,address,uint256)": {
        "notice": "Event emitted when a borrow is liquidated"
      },
      "Mint(address,uint256,uint256,uint256)": {
        "notice": "Event emitted when tokens are minted"
      },
      "NewAccessControlManager(address,address)": {
        "notice": "Emitted when access control manager contract address is changed"
      },
      "NewComptroller(address,address)": {
        "notice": "Event emitted when comptroller is changed"
      },
      "NewMarketInterestRateModel(address,address)": {
        "notice": "Event emitted when interestRateModel is changed"
      },
      "NewProtocolSeizeShare(uint256,uint256)": {
        "notice": "Event emitted when protocol seize share is changed"
      },
      "NewProtocolShareReserve(address,address)": {
        "notice": "Event emitted when protocol share reserve contract address is changed"
      },
      "NewReduceReservesBlockDelta(uint256,uint256)": {
        "notice": "Event emitted when reduce reserves slot (block or second) delta is changed"
      },
      "NewReserveFactor(uint256,uint256)": {
        "notice": "Event emitted when the reserve factor is changed"
      },
      "NewShortfallContract(address,address)": {
        "notice": "Event emitted when shortfall contract address is changed"
      },
      "ProtocolSeize(address,address,uint256)": {
        "notice": "Event emitted when liquidation reserves are reduced"
      },
      "Redeem(address,uint256,uint256,uint256)": {
        "notice": "Event emitted when tokens are redeemed"
      },
      "RepayBorrow(address,address,uint256,uint256,uint256)": {
        "notice": "Event emitted when a borrow is repaid"
      },
      "ReservesAdded(address,uint256,uint256)": {
        "notice": "Event emitted when the reserves are added"
      },
      "SpreadReservesReduced(address,uint256,uint256)": {
        "notice": "Event emitted when the spread reserves are reduced"
      },
      "SweepToken(address)": {
        "notice": "Event emitted when tokens are swept"
      },
      "Transfer(address,address,uint256)": {
        "notice": "EIP20 Transfer event"
      }
    },
    "kind": "user",
    "methods": {
      "accessControlManager()": {
        "notice": "Returns the address of the access control manager contract"
      },
      "accrualBlockNumber()": {
        "notice": "Slot(block or second) number that interest was last accrued at"
      },
      "accrueInterest()": {
        "notice": "Applies accrued interest to total borrows and reserves"
      },
      "addReserves(uint256)": {
        "notice": "The sender adds to reserves."
      },
      "allowance(address,address)": {
        "notice": "Get the current allowance from `owner` for `spender`"
      },
      "approve(address,uint256)": {
        "notice": "Approve `spender` to transfer up to `amount` from `src`"
      },
      "badDebt()": {
        "notice": "Total bad debt of the market"
      },
      "badDebtRecovered(uint256)": {
        "notice": "Updates bad debt"
      },
      "balanceOf(address)": {
        "notice": "Get the token balance of the `owner`"
      },
      "balanceOfUnderlying(address)": {
        "notice": "Get the underlying balance of the `owner`"
      },
      "blocksOrSecondsPerYear()": {
        "notice": "Stores blocksPerYear if isTimeBased is true else secondsPerYear is stored"
      },
      "borrow(uint256)": {
        "notice": "Sender borrows assets from the protocol to their own address"
      },
      "borrowBalanceCurrent(address)": {
        "notice": "Accrue interest to updated borrowIndex and then calculate account's borrow balance using the updated borrowIndex"
      },
      "borrowBalanceStored(address)": {
        "notice": "Return the borrow balance of account based on stored data"
      },
      "borrowBehalf(address,uint256)": {
        "notice": "Sender borrows assets on behalf of some other address. This function is only available   for senders, explicitly marked as delegates of the borrower using `comptroller.updateDelegate`"
      },
      "borrowIndex()": {
        "notice": "Accumulator of the total earned interest rate since the opening of the market"
      },
      "borrowRatePerBlock()": {
        "notice": "Returns the current per slot(block or second) borrow interest rate for this vToken"
      },
      "comptroller()": {
        "notice": "Contract which oversees inter-vToken operations"
      },
      "decimals()": {
        "notice": "EIP-20 token decimals for this token"
      },
      "decreaseAllowance(address,uint256)": {
        "notice": "Decreases approval for `spender`"
      },
      "exchangeRateCurrent()": {
        "notice": "Accrue interest then return the up-to-date exchange rate"
      },
      "exchangeRateStored()": {
        "notice": "Calculates the exchange rate from the underlying to the VToken"
      },
      "forceLiquidateBorrow(address,address,uint256,address,bool)": {
        "notice": "The extended version of liquidations, callable only by Comptroller. May skip  the close factor check. The collateral seized is transferred to the liquidator."
      },
      "getAccountSnapshot(address)": {
        "notice": "Get a snapshot of the account's balances, and the cached exchange rate"
      },
      "getCash()": {
        "notice": "Get cash balance of this vToken in the underlying asset"
      },
      "healBorrow(address,address,uint256)": {
        "notice": "Repays a certain amount of debt, treats the rest of the borrow as bad debt, essentially   \"forgiving\" the borrower. Healing is a situation that should rarely happen. However, some pools   may list risky assets or be configured improperly  we want to still handle such cases gracefully.   We assume that Comptroller does the seizing, so this function is only available to Comptroller."
      },
      "increaseAllowance(address,uint256)": {
        "notice": "Increase approval for `spender`"
      },
      "initialize(address,address,address,uint256,string,string,uint8,address,address,(address,address),uint256)": {
        "notice": "Construct a new money market"
      },
      "interestRateModel()": {
        "notice": "Model which tells what the current interest rate should be"
      },
      "isTimeBased()": {
        "notice": "Acknowledges if a contract is time based or not"
      },
      "isVToken()": {
        "notice": "Indicator that this is a VToken contract (for inspection)"
      },
      "liquidateBorrow(address,uint256,address)": {
        "notice": "The sender liquidates the borrowers collateral.  The collateral seized is transferred to the liquidator."
      },
      "mint(uint256)": {
        "notice": "Sender supplies assets into the market and receives vTokens in exchange"
      },
      "mintBehalf(address,uint256)": {
        "notice": "Sender calls on-behalf of minter. minter supplies assets into the market and receives vTokens in exchange"
      },
      "name()": {
        "notice": "EIP-20 token name for this token"
      },
      "protocolSeizeShareMantissa()": {
        "notice": "Share of seized collateral that is added to reserves"
      },
      "protocolShareReserve()": {
        "notice": "Protocol share Reserve contract address"
      },
      "redeem(uint256)": {
        "notice": "Sender redeems vTokens in exchange for the underlying asset"
      },
      "redeemBehalf(address,uint256)": {
        "notice": "Sender redeems assets on behalf of some other address. This function is only available   for senders, explicitly marked as delegates of the supplier using `comptroller.updateDelegate`"
      },
      "redeemUnderlying(uint256)": {
        "notice": "Sender redeems vTokens in exchange for a specified amount of underlying asset"
      },
      "redeemUnderlyingBehalf(address,uint256)": {
        "notice": "Sender redeems underlying assets on behalf of some other address. This function is only available   for senders, explicitly marked as delegates of the supplier using `comptroller.updateDelegate`"
      },
      "reduceReserves(uint256)": {
        "notice": "Accrues interest and reduces reserves by transferring to the protocol reserve contract"
      },
      "reduceReservesBlockDelta()": {
        "notice": "delta slot (block or second) after which reserves will be reduced"
      },
      "reduceReservesBlockNumber()": {
        "notice": "last slot (block or second) number at which reserves were reduced"
      },
      "repayBorrow(uint256)": {
        "notice": "Sender repays their own borrow"
      },
      "repayBorrowBehalf(address,uint256)": {
        "notice": "Sender repays a borrow belonging to borrower"
      },
      "reserveFactorMantissa()": {
        "notice": "Fraction of interest currently set aside for reserves"
      },
      "seize(address,address,uint256)": {
        "notice": "Transfers collateral tokens (this market) to the liquidator."
      },
      "setAccessControlManager(address)": {
        "notice": "Sets the address of AccessControlManager"
      },
      "setInterestRateModel(address)": {
        "notice": "accrues interest and updates the interest rate model using _setInterestRateModelFresh"
      },
      "setProtocolSeizeShare(uint256)": {
        "notice": "sets protocol share accumulated from liquidations"
      },
      "setProtocolShareReserve(address)": {
        "notice": "Sets protocol share reserve contract address"
      },
      "setReduceReservesBlockDelta(uint256)": {
        "notice": "A public function to set new threshold of slot(block or second) difference after which funds will be sent to the protocol share reserve"
      },
      "setReserveFactor(uint256)": {
        "notice": "accrues interest and sets a new reserve factor for the protocol using _setReserveFactorFresh"
      },
      "setShortfallContract(address)": {
        "notice": "Sets shortfall contract address"
      },
      "shortfall()": {
        "notice": "Storage of Shortfall contract address"
      },
      "supplyRatePerBlock()": {
        "notice": "Returns the current per-slot(block or second) supply interest rate for this v"
      },
      "sweepToken(address)": {
        "notice": "A public function to sweep accidental ERC-20 transfers to this contract. Tokens are sent to admin (timelock)"
      },
      "symbol()": {
        "notice": "EIP-20 token symbol for this token"
      },
      "totalBorrows()": {
        "notice": "Total amount of outstanding borrows of the underlying in this market"
      },
      "totalBorrowsCurrent()": {
        "notice": "Returns the current total borrows plus accrued interest"
      },
      "totalReserves()": {
        "notice": "Total amount of reserves of the underlying held in this market"
      },
      "totalSupply()": {
        "notice": "Total number of tokens in circulation"
      },
      "transfer(address,uint256)": {
        "notice": "Transfer `amount` tokens from `msg.sender` to `dst`"
      },
      "transferFrom(address,address,uint256)": {
        "notice": "Transfer `amount` tokens from `src` to `dst`"
      },
      "underlying()": {
        "notice": "Underlying asset for this VToken"
      }
    },
    "notice": "Each asset that is supported by a pool is integrated through an instance of the `VToken` contract. As outlined in the protocol overview, each isolated pool creates its own `vToken` corresponding to an asset. Within a given pool, each included `vToken` is referred to as a market of the pool. The main actions a user regularly interacts with in a market are: - mint/redeem of vTokens; - transfer of vTokens; - borrow/repay a loan on an underlying asset; - liquidate a borrow or liquidate/heal an account. A user supplies the underlying asset to a pool by minting `vTokens`, where the corresponding `vToken` amount is determined by the `exchangeRate`. The `exchangeRate` will change over time, dependent on a number of factors, some of which accrue interest. Additionally, once users have minted `vToken` in a pool, they can borrow any asset in the isolated pool by using their `vToken` as collateral. In order to borrow an asset or use a `vToken` as collateral, the user must be entered into each corresponding market (else, the `vToken` will not be considered collateral for a borrow). Note that a user may borrow up to a portion of their collateral determined by the markets collateral factor. However, if their borrowed amount exceeds an amount calculated using the markets corresponding liquidation threshold, the borrow is eligible for liquidation. When a user repays a borrow, they must also pay off interest accrued on the borrow.  The Venus protocol includes unique mechanisms for healing an account and liquidating an account. These actions are performed in the `Comptroller` and consider all borrows and collateral for which a given account is entered within a market. These functions may only be called on an account with a total collateral amount that is no larger than a universal `minLiquidatableCollateral` value, which is used for all markets within a `Comptroller`. Both functions settle all of an accounts borrows, but `healAccount()` may add `badDebt` to a vToken. For more detail, see the description of `healAccount()` and `liquidateAccount()` in the `Comptroller` summary section below.",
    "version": 1
  },
  "storageLayout": {
    "storage": [
      {
        "astId": 292,
        "contract": "contracts/VToken.sol:VToken",
        "label": "_initialized",
        "offset": 0,
        "slot": "0",
        "type": "t_uint8"
      },
      {
        "astId": 295,
        "contract": "contracts/VToken.sol:VToken",
        "label": "_initializing",
        "offset": 1,
        "slot": "0",
        "type": "t_bool"
      },
      {
        "astId": 1562,
        "contract": "contracts/VToken.sol:VToken",
        "label": "__gap",
        "offset": 0,
        "slot": "1",
        "type": "t_array(t_uint256)50_storage"
      },
      {
        "astId": 164,
        "contract": "contracts/VToken.sol:VToken",
        "label": "_owner",
        "offset": 0,
        "slot": "51",
        "type": "t_address"
      },
      {
        "astId": 284,
        "contract": "contracts/VToken.sol:VToken",
        "label": "__gap",
        "offset": 0,
        "slot": "52",
        "type": "t_array(t_uint256)49_storage"
      },
      {
        "astId": 57,
        "contract": "contracts/VToken.sol:VToken",
        "label": "_pendingOwner",
        "offset": 0,
        "slot": "101",
        "type": "t_address"
      },
      {
        "astId": 151,
        "contract": "contracts/VToken.sol:VToken",
        "label": "__gap",
        "offset": 0,
        "slot": "102",
        "type": "t_array(t_uint256)49_storage"
      },
      {
        "astId": 7293,
        "contract": "contracts/VToken.sol:VToken",
        "label": "_accessControlManager",
        "offset": 0,
        "slot": "151",
        "type": "t_contract(IAccessControlManagerV8)7478"
      },
      {
        "astId": 7298,
        "contract": "contracts/VToken.sol:VToken",
        "label": "__gap",
        "offset": 0,
        "slot": "152",
        "type": "t_array(t_uint256)49_storage"
      },
      {
        "astId": 35528,
        "contract": "contracts/VToken.sol:VToken",
        "label": "_notEntered",
        "offset": 0,
        "slot": "201",
        "type": "t_bool"
      },
      {
        "astId": 35531,
        "contract": "contracts/VToken.sol:VToken",
        "label": "underlying",
        "offset": 1,
        "slot": "201",
        "type": "t_address"
      },
      {
        "astId": 35534,
        "contract": "contracts/VToken.sol:VToken",
        "label": "name",
        "offset": 0,
        "slot": "202",
        "type": "t_string_storage"
      },
      {
        "astId": 35537,
        "contract": "contracts/VToken.sol:VToken",
        "label": "symbol",
        "offset": 0,
        "slot": "203",
        "type": "t_string_storage"
      },
      {
        "astId": 35540,
        "contract": "contracts/VToken.sol:VToken",
        "label": "decimals",
        "offset": 0,
        "slot": "204",
        "type": "t_uint8"
      },
      {
        "astId": 35543,
        "contract": "contracts/VToken.sol:VToken",
        "label": "protocolShareReserve",
        "offset": 1,
        "slot": "204",
        "type": "t_address_payable"
      },
      {
        "astId": 35547,
        "contract": "contracts/VToken.sol:VToken",
        "label": "comptroller",
        "offset": 0,
        "slot": "205",
        "type": "t_contract(ComptrollerInterface)20040"
      },
      {
        "astId": 35551,
        "contract": "contracts/VToken.sol:VToken",
        "label": "interestRateModel",
        "offset": 0,
        "slot": "206",
        "type": "t_contract(InterestRateModel)21767"
      },
      {
        "astId": 35553,
        "contract": "contracts/VToken.sol:VToken",
        "label": "initialExchangeRateMantissa",
        "offset": 0,
        "slot": "207",
        "type": "t_uint256"
      },
      {
        "astId": 35556,
        "contract": "contracts/VToken.sol:VToken",
        "label": "reserveFactorMantissa",
        "offset": 0,
        "slot": "208",
        "type": "t_uint256"
      },
      {
        "astId": 35559,
        "contract": "contracts/VToken.sol:VToken",
        "label": "accrualBlockNumber",
        "offset": 0,
        "slot": "209",
        "type": "t_uint256"
      },
      {
        "astId": 35562,
        "contract": "contracts/VToken.sol:VToken",
        "label": "borrowIndex",
        "offset": 0,
        "slot": "210",
        "type": "t_uint256"
      },
      {
        "astId": 35565,
        "contract": "contracts/VToken.sol:VToken",
        "label": "totalBorrows",
        "offset": 0,
        "slot": "211",
        "type": "t_uint256"
      },
      {
        "astId": 35568,
        "contract": "contracts/VToken.sol:VToken",
        "label": "totalReserves",
        "offset": 0,
        "slot": "212",
        "type": "t_uint256"
      },
      {
        "astId": 35571,
        "contract": "contracts/VToken.sol:VToken",
        "label": "totalSupply",
        "offset": 0,
        "slot": "213",
        "type": "t_uint256"
      },
      {
        "astId": 35574,
        "contract": "contracts/VToken.sol:VToken",
        "label": "badDebt",
        "offset": 0,
        "slot": "214",
        "type": "t_uint256"
      },
      {
        "astId": 35578,
        "contract": "contracts/VToken.sol:VToken",
        "label": "accountTokens",
        "offset": 0,
        "slot": "215",
        "type": "t_mapping(t_address,t_uint256)"
      },
      {
        "astId": 35584,
        "contract": "contracts/VToken.sol:VToken",
        "label": "transferAllowances",
        "offset": 0,
        "slot": "216",
        "type": "t_mapping(t_address,t_mapping(t_address,t_uint256))"
      },
      {
        "astId": 35589,
        "contract": "contracts/VToken.sol:VToken",
        "label": "accountBorrows",
        "offset": 0,
        "slot": "217",
        "type": "t_mapping(t_address,t_struct(BorrowSnapshot)35525_storage)"
      },
      {
        "astId": 35592,
        "contract": "contracts/VToken.sol:VToken",
        "label": "protocolSeizeShareMantissa",
        "offset": 0,
        "slot": "218",
        "type": "t_uint256"
      },
      {
        "astId": 35595,
        "contract": "contracts/VToken.sol:VToken",
        "label": "shortfall",
        "offset": 0,
        "slot": "219",
        "type": "t_address"
      },
      {
        "astId": 35598,
        "contract": "contracts/VToken.sol:VToken",
        "label": "reduceReservesBlockDelta",
        "offset": 0,
        "slot": "220",
        "type": "t_uint256"
      },
      {
        "astId": 35601,
        "contract": "contracts/VToken.sol:VToken",
        "label": "reduceReservesBlockNumber",
        "offset": 0,
        "slot": "221",
        "type": "t_uint256"
      },
      {
        "astId": 35606,
        "contract": "contracts/VToken.sol:VToken",
        "label": "__gap",
        "offset": 0,
        "slot": "222",
        "type": "t_array(t_uint256)48_storage"
      },
      {
        "astId": 9747,
        "contract": "contracts/VToken.sol:VToken",
        "label": "__gap",
        "offset": 0,
        "slot": "270",
        "type": "t_array(t_uint256)48_storage"
      }
    ],
    "types": {
      "t_address": {
        "encoding": "inplace",
        "label": "address",
        "numberOfBytes": "20"
      },
      "t_address_payable": {
        "encoding": "inplace",
        "label": "address payable",
        "numberOfBytes": "20"
      },
      "t_array(t_uint256)48_storage": {
        "base": "t_uint256",
        "encoding": "inplace",
        "label": "uint256[48]",
        "numberOfBytes": "1536"
      },
      "t_array(t_uint256)49_storage": {
        "base": "t_uint256",
        "encoding": "inplace",
        "label": "uint256[49]",
        "numberOfBytes": "1568"
      },
      "t_array(t_uint256)50_storage": {
        "base": "t_uint256",
        "encoding": "inplace",
        "label": "uint256[50]",
        "numberOfBytes": "1600"
      },
      "t_bool": {
        "encoding": "inplace",
        "label": "bool",
        "numberOfBytes": "1"
      },
      "t_contract(ComptrollerInterface)20040": {
        "encoding": "inplace",
        "label": "contract ComptrollerInterface",
        "numberOfBytes": "20"
      },
      "t_contract(IAccessControlManagerV8)7478": {
        "encoding": "inplace",
        "label": "contract IAccessControlManagerV8",
        "numberOfBytes": "20"
      },
      "t_contract(InterestRateModel)21767": {
        "encoding": "inplace",
        "label": "contract InterestRateModel",
        "numberOfBytes": "20"
      },
      "t_mapping(t_address,t_mapping(t_address,t_uint256))": {
        "encoding": "mapping",
        "key": "t_address",
        "label": "mapping(address => mapping(address => uint256))",
        "numberOfBytes": "32",
        "value": "t_mapping(t_address,t_uint256)"
      },
      "t_mapping(t_address,t_struct(BorrowSnapshot)35525_storage)": {
        "encoding": "mapping",
        "key": "t_address",
        "label": "mapping(address => struct VTokenStorage.BorrowSnapshot)",
        "numberOfBytes": "32",
        "value": "t_struct(BorrowSnapshot)35525_storage"
      },
      "t_mapping(t_address,t_uint256)": {
        "encoding": "mapping",
        "key": "t_address",
        "label": "mapping(address => uint256)",
        "numberOfBytes": "32",
        "value": "t_uint256"
      },
      "t_string_storage": {
        "encoding": "bytes",
        "label": "string",
        "numberOfBytes": "32"
      },
      "t_struct(BorrowSnapshot)35525_storage": {
        "encoding": "inplace",
        "label": "struct VTokenStorage.BorrowSnapshot",
        "members": [
          {
            "astId": 35522,
            "contract": "contracts/VToken.sol:VToken",
            "label": "principal",
            "offset": 0,
            "slot": "0",
            "type": "t_uint256"
          },
          {
            "astId": 35524,
            "contract": "contracts/VToken.sol:VToken",
            "label": "interestIndex",
            "offset": 0,
            "slot": "1",
            "type": "t_uint256"
          }
        ],
        "numberOfBytes": "64"
      },
      "t_uint256": {
        "encoding": "inplace",
        "label": "uint256",
        "numberOfBytes": "32"
      },
      "t_uint8": {
        "encoding": "inplace",
        "label": "uint8",
        "numberOfBytes": "1"
      }
    }
  }
}