{
  "address": "0x5Ad771f15016c10434f1141eD96bb6c10dcB3e1e",
  "abi": [
    {
      "inputs": [
        {
          "internalType": "address",
          "name": "poolRegistry_",
          "type": "address"
        }
      ],
      "stateMutability": "nonpayable",
      "type": "constructor"
    },
    {
      "inputs": [
        {
          "internalType": "address",
          "name": "market",
          "type": "address"
        },
        {
          "internalType": "enum Action",
          "name": "action",
          "type": "uint8"
        }
      ],
      "name": "ActionPaused",
      "type": "error"
    },
    {
      "inputs": [
        {
          "internalType": "address",
          "name": "market",
          "type": "address"
        },
        {
          "internalType": "uint256",
          "name": "cap",
          "type": "uint256"
        }
      ],
      "name": "BorrowCapExceeded",
      "type": "error"
    },
    {
      "inputs": [
        {
          "internalType": "uint256",
          "name": "expectedLessThanOrEqualTo",
          "type": "uint256"
        },
        {
          "internalType": "uint256",
          "name": "actual",
          "type": "uint256"
        }
      ],
      "name": "CollateralExceedsThreshold",
      "type": "error"
    },
    {
      "inputs": [],
      "name": "ComptrollerMismatch",
      "type": "error"
    },
    {
      "inputs": [],
      "name": "DelegationStatusUnchanged",
      "type": "error"
    },
    {
      "inputs": [
        {
          "internalType": "uint256",
          "name": "collateralToSeize",
          "type": "uint256"
        },
        {
          "internalType": "uint256",
          "name": "availableCollateral",
          "type": "uint256"
        }
      ],
      "name": "InsufficientCollateral",
      "type": "error"
    },
    {
      "inputs": [],
      "name": "InsufficientLiquidity",
      "type": "error"
    },
    {
      "inputs": [],
      "name": "InsufficientShortfall",
      "type": "error"
    },
    {
      "inputs": [],
      "name": "InvalidCollateralFactor",
      "type": "error"
    },
    {
      "inputs": [],
      "name": "InvalidLiquidationThreshold",
      "type": "error"
    },
    {
      "inputs": [
        {
          "internalType": "address",
          "name": "market",
          "type": "address"
        }
      ],
      "name": "MarketAlreadyListed",
      "type": "error"
    },
    {
      "inputs": [
        {
          "internalType": "address",
          "name": "vToken",
          "type": "address"
        },
        {
          "internalType": "address",
          "name": "user",
          "type": "address"
        }
      ],
      "name": "MarketNotCollateral",
      "type": "error"
    },
    {
      "inputs": [
        {
          "internalType": "address",
          "name": "market",
          "type": "address"
        }
      ],
      "name": "MarketNotListed",
      "type": "error"
    },
    {
      "inputs": [
        {
          "internalType": "uint256",
          "name": "loopsLimit",
          "type": "uint256"
        },
        {
          "internalType": "uint256",
          "name": "requiredLoops",
          "type": "uint256"
        }
      ],
      "name": "MaxLoopsLimitExceeded",
      "type": "error"
    },
    {
      "inputs": [
        {
          "internalType": "uint256",
          "name": "expectedGreaterThan",
          "type": "uint256"
        },
        {
          "internalType": "uint256",
          "name": "actual",
          "type": "uint256"
        }
      ],
      "name": "MinimalCollateralViolated",
      "type": "error"
    },
    {
      "inputs": [],
      "name": "NonzeroBorrowBalance",
      "type": "error"
    },
    {
      "inputs": [
        {
          "internalType": "address",
          "name": "vToken",
          "type": "address"
        }
      ],
      "name": "PriceError",
      "type": "error"
    },
    {
      "inputs": [
        {
          "internalType": "address",
          "name": "vToken",
          "type": "address"
        },
        {
          "internalType": "address",
          "name": "user",
          "type": "address"
        }
      ],
      "name": "SnapshotError",
      "type": "error"
    },
    {
      "inputs": [
        {
          "internalType": "address",
          "name": "market",
          "type": "address"
        },
        {
          "internalType": "uint256",
          "name": "cap",
          "type": "uint256"
        }
      ],
      "name": "SupplyCapExceeded",
      "type": "error"
    },
    {
      "inputs": [],
      "name": "TooMuchRepay",
      "type": "error"
    },
    {
      "inputs": [
        {
          "internalType": "address",
          "name": "sender",
          "type": "address"
        },
        {
          "internalType": "address",
          "name": "calledContract",
          "type": "address"
        },
        {
          "internalType": "string",
          "name": "methodSignature",
          "type": "string"
        }
      ],
      "name": "Unauthorized",
      "type": "error"
    },
    {
      "inputs": [
        {
          "internalType": "address",
          "name": "expectedSender",
          "type": "address"
        },
        {
          "internalType": "address",
          "name": "actualSender",
          "type": "address"
        }
      ],
      "name": "UnexpectedSender",
      "type": "error"
    },
    {
      "inputs": [],
      "name": "ZeroAddressNotAllowed",
      "type": "error"
    },
    {
      "anonymous": false,
      "inputs": [
        {
          "indexed": false,
          "internalType": "contract VToken",
          "name": "vToken",
          "type": "address"
        },
        {
          "indexed": false,
          "internalType": "enum Action",
          "name": "action",
          "type": "uint8"
        },
        {
          "indexed": false,
          "internalType": "bool",
          "name": "pauseState",
          "type": "bool"
        }
      ],
      "name": "ActionPausedMarket",
      "type": "event"
    },
    {
      "anonymous": false,
      "inputs": [
        {
          "indexed": true,
          "internalType": "address",
          "name": "approver",
          "type": "address"
        },
        {
          "indexed": true,
          "internalType": "address",
          "name": "delegate",
          "type": "address"
        },
        {
          "indexed": false,
          "internalType": "bool",
          "name": "approved",
          "type": "bool"
        }
      ],
      "name": "DelegateUpdated",
      "type": "event"
    },
    {
      "anonymous": false,
      "inputs": [
        {
          "indexed": false,
          "internalType": "uint8",
          "name": "version",
          "type": "uint8"
        }
      ],
      "name": "Initialized",
      "type": "event"
    },
    {
      "anonymous": false,
      "inputs": [
        {
          "indexed": true,
          "internalType": "address",
          "name": "vToken",
          "type": "address"
        },
        {
          "indexed": false,
          "internalType": "bool",
          "name": "enable",
          "type": "bool"
        }
      ],
      "name": "IsForcedLiquidationEnabledUpdated",
      "type": "event"
    },
    {
      "anonymous": false,
      "inputs": [
        {
          "indexed": true,
          "internalType": "contract VToken",
          "name": "vToken",
          "type": "address"
        },
        {
          "indexed": true,
          "internalType": "address",
          "name": "account",
          "type": "address"
        }
      ],
      "name": "MarketEntered",
      "type": "event"
    },
    {
      "anonymous": false,
      "inputs": [
        {
          "indexed": true,
          "internalType": "contract VToken",
          "name": "vToken",
          "type": "address"
        },
        {
          "indexed": true,
          "internalType": "address",
          "name": "account",
          "type": "address"
        }
      ],
      "name": "MarketExited",
      "type": "event"
    },
    {
      "anonymous": false,
      "inputs": [
        {
          "indexed": false,
          "internalType": "contract VToken",
          "name": "vToken",
          "type": "address"
        }
      ],
      "name": "MarketSupported",
      "type": "event"
    },
    {
      "anonymous": false,
      "inputs": [
        {
          "indexed": false,
          "internalType": "uint256",
          "name": "oldMaxLoopsLimit",
          "type": "uint256"
        },
        {
          "indexed": false,
          "internalType": "uint256",
          "name": "newmaxLoopsLimit",
          "type": "uint256"
        }
      ],
      "name": "MaxLoopsLimitUpdated",
      "type": "event"
    },
    {
      "anonymous": false,
      "inputs": [
        {
          "indexed": false,
          "internalType": "address",
          "name": "oldAccessControlManager",
          "type": "address"
        },
        {
          "indexed": false,
          "internalType": "address",
          "name": "newAccessControlManager",
          "type": "address"
        }
      ],
      "name": "NewAccessControlManager",
      "type": "event"
    },
    {
      "anonymous": false,
      "inputs": [
        {
          "indexed": true,
          "internalType": "contract VToken",
          "name": "vToken",
          "type": "address"
        },
        {
          "indexed": false,
          "internalType": "uint256",
          "name": "newBorrowCap",
          "type": "uint256"
        }
      ],
      "name": "NewBorrowCap",
      "type": "event"
    },
    {
      "anonymous": false,
      "inputs": [
        {
          "indexed": false,
          "internalType": "uint256",
          "name": "oldCloseFactorMantissa",
          "type": "uint256"
        },
        {
          "indexed": false,
          "internalType": "uint256",
          "name": "newCloseFactorMantissa",
          "type": "uint256"
        }
      ],
      "name": "NewCloseFactor",
      "type": "event"
    },
    {
      "anonymous": false,
      "inputs": [
        {
          "indexed": false,
          "internalType": "contract VToken",
          "name": "vToken",
          "type": "address"
        },
        {
          "indexed": false,
          "internalType": "uint256",
          "name": "oldCollateralFactorMantissa",
          "type": "uint256"
        },
        {
          "indexed": false,
          "internalType": "uint256",
          "name": "newCollateralFactorMantissa",
          "type": "uint256"
        }
      ],
      "name": "NewCollateralFactor",
      "type": "event"
    },
    {
      "anonymous": false,
      "inputs": [
        {
          "indexed": false,
          "internalType": "uint256",
          "name": "oldLiquidationIncentiveMantissa",
          "type": "uint256"
        },
        {
          "indexed": false,
          "internalType": "uint256",
          "name": "newLiquidationIncentiveMantissa",
          "type": "uint256"
        }
      ],
      "name": "NewLiquidationIncentive",
      "type": "event"
    },
    {
      "anonymous": false,
      "inputs": [
        {
          "indexed": false,
          "internalType": "contract VToken",
          "name": "vToken",
          "type": "address"
        },
        {
          "indexed": false,
          "internalType": "uint256",
          "name": "oldLiquidationThresholdMantissa",
          "type": "uint256"
        },
        {
          "indexed": false,
          "internalType": "uint256",
          "name": "newLiquidationThresholdMantissa",
          "type": "uint256"
        }
      ],
      "name": "NewLiquidationThreshold",
      "type": "event"
    },
    {
      "anonymous": false,
      "inputs": [
        {
          "indexed": false,
          "internalType": "uint256",
          "name": "oldMinLiquidatableCollateral",
          "type": "uint256"
        },
        {
          "indexed": false,
          "internalType": "uint256",
          "name": "newMinLiquidatableCollateral",
          "type": "uint256"
        }
      ],
      "name": "NewMinLiquidatableCollateral",
      "type": "event"
    },
    {
      "anonymous": false,
      "inputs": [
        {
          "indexed": false,
          "internalType": "contract ResilientOracleInterface",
          "name": "oldPriceOracle",
          "type": "address"
        },
        {
          "indexed": false,
          "internalType": "contract ResilientOracleInterface",
          "name": "newPriceOracle",
          "type": "address"
        }
      ],
      "name": "NewPriceOracle",
      "type": "event"
    },
    {
      "anonymous": false,
      "inputs": [
        {
          "indexed": false,
          "internalType": "contract IPrime",
          "name": "oldPrimeToken",
          "type": "address"
        },
        {
          "indexed": false,
          "internalType": "contract IPrime",
          "name": "newPrimeToken",
          "type": "address"
        }
      ],
      "name": "NewPrimeToken",
      "type": "event"
    },
    {
      "anonymous": false,
      "inputs": [
        {
          "indexed": true,
          "internalType": "address",
          "name": "rewardsDistributor",
          "type": "address"
        },
        {
          "indexed": true,
          "internalType": "address",
          "name": "rewardToken",
          "type": "address"
        }
      ],
      "name": "NewRewardsDistributor",
      "type": "event"
    },
    {
      "anonymous": false,
      "inputs": [
        {
          "indexed": true,
          "internalType": "contract VToken",
          "name": "vToken",
          "type": "address"
        },
        {
          "indexed": false,
          "internalType": "uint256",
          "name": "newSupplyCap",
          "type": "uint256"
        }
      ],
      "name": "NewSupplyCap",
      "type": "event"
    },
    {
      "anonymous": false,
      "inputs": [
        {
          "indexed": true,
          "internalType": "address",
          "name": "previousOwner",
          "type": "address"
        },
        {
          "indexed": true,
          "internalType": "address",
          "name": "newOwner",
          "type": "address"
        }
      ],
      "name": "OwnershipTransferStarted",
      "type": "event"
    },
    {
      "anonymous": false,
      "inputs": [
        {
          "indexed": true,
          "internalType": "address",
          "name": "previousOwner",
          "type": "address"
        },
        {
          "indexed": true,
          "internalType": "address",
          "name": "newOwner",
          "type": "address"
        }
      ],
      "name": "OwnershipTransferred",
      "type": "event"
    },
    {
      "inputs": [],
      "name": "acceptOwnership",
      "outputs": [],
      "stateMutability": "nonpayable",
      "type": "function"
    },
    {
      "inputs": [],
      "name": "accessControlManager",
      "outputs": [
        {
          "internalType": "contract IAccessControlManagerV8",
          "name": "",
          "type": "address"
        }
      ],
      "stateMutability": "view",
      "type": "function"
    },
    {
      "inputs": [
        {
          "internalType": "address",
          "name": "",
          "type": "address"
        },
        {
          "internalType": "uint256",
          "name": "",
          "type": "uint256"
        }
      ],
      "name": "accountAssets",
      "outputs": [
        {
          "internalType": "contract VToken",
          "name": "",
          "type": "address"
        }
      ],
      "stateMutability": "view",
      "type": "function"
    },
    {
      "inputs": [
        {
          "internalType": "address",
          "name": "market",
          "type": "address"
        },
        {
          "internalType": "enum Action",
          "name": "action",
          "type": "uint8"
        }
      ],
      "name": "actionPaused",
      "outputs": [
        {
          "internalType": "bool",
          "name": "",
          "type": "bool"
        }
      ],
      "stateMutability": "view",
      "type": "function"
    },
    {
      "inputs": [
        {
          "internalType": "contract RewardsDistributor",
          "name": "_rewardsDistributor",
          "type": "address"
        }
      ],
      "name": "addRewardsDistributor",
      "outputs": [],
      "stateMutability": "nonpayable",
      "type": "function"
    },
    {
      "inputs": [
        {
          "internalType": "uint256",
          "name": "",
          "type": "uint256"
        }
      ],
      "name": "allMarkets",
      "outputs": [
        {
          "internalType": "contract VToken",
          "name": "",
          "type": "address"
        }
      ],
      "stateMutability": "view",
      "type": "function"
    },
    {
      "inputs": [
        {
          "internalType": "address",
          "name": "",
          "type": "address"
        },
        {
          "internalType": "address",
          "name": "",
          "type": "address"
        }
      ],
      "name": "approvedDelegates",
      "outputs": [
        {
          "internalType": "bool",
          "name": "",
          "type": "bool"
        }
      ],
      "stateMutability": "view",
      "type": "function"
    },
    {
      "inputs": [
        {
          "internalType": "address",
          "name": "",
          "type": "address"
        }
      ],
      "name": "borrowCaps",
      "outputs": [
        {
          "internalType": "uint256",
          "name": "",
          "type": "uint256"
        }
      ],
      "stateMutability": "view",
      "type": "function"
    },
    {
      "inputs": [
        {
          "internalType": "address",
          "name": "vToken",
          "type": "address"
        },
        {
          "internalType": "address",
          "name": "borrower",
          "type": "address"
        },
        {
          "internalType": "uint256",
          "name": "borrowAmount",
          "type": "uint256"
        }
      ],
      "name": "borrowVerify",
      "outputs": [],
      "stateMutability": "nonpayable",
      "type": "function"
    },
    {
      "inputs": [
        {
          "internalType": "address",
          "name": "account",
          "type": "address"
        },
        {
          "internalType": "contract VToken",
          "name": "vToken",
          "type": "address"
        }
      ],
      "name": "checkMembership",
      "outputs": [
        {
          "internalType": "bool",
          "name": "",
          "type": "bool"
        }
      ],
      "stateMutability": "view",
      "type": "function"
    },
    {
      "inputs": [],
      "name": "closeFactorMantissa",
      "outputs": [
        {
          "internalType": "uint256",
          "name": "",
          "type": "uint256"
        }
      ],
      "stateMutability": "view",
      "type": "function"
    },
    {
      "inputs": [
        {
          "internalType": "address[]",
          "name": "vTokens",
          "type": "address[]"
        }
      ],
      "name": "enterMarkets",
      "outputs": [
        {
          "internalType": "uint256[]",
          "name": "",
          "type": "uint256[]"
        }
      ],
      "stateMutability": "nonpayable",
      "type": "function"
    },
    {
      "inputs": [
        {
          "internalType": "address",
          "name": "vTokenAddress",
          "type": "address"
        }
      ],
      "name": "exitMarket",
      "outputs": [
        {
          "internalType": "uint256",
          "name": "",
          "type": "uint256"
        }
      ],
      "stateMutability": "nonpayable",
      "type": "function"
    },
    {
      "inputs": [
        {
          "internalType": "address",
          "name": "account",
          "type": "address"
        }
      ],
      "name": "getAccountLiquidity",
      "outputs": [
        {
          "internalType": "uint256",
          "name": "error",
          "type": "uint256"
        },
        {
          "internalType": "uint256",
          "name": "liquidity",
          "type": "uint256"
        },
        {
          "internalType": "uint256",
          "name": "shortfall",
          "type": "uint256"
        }
      ],
      "stateMutability": "view",
      "type": "function"
    },
    {
      "inputs": [],
      "name": "getAllMarkets",
      "outputs": [
        {
          "internalType": "contract VToken[]",
          "name": "",
          "type": "address[]"
        }
      ],
      "stateMutability": "view",
      "type": "function"
    },
    {
      "inputs": [
        {
          "internalType": "address",
          "name": "account",
          "type": "address"
        }
      ],
      "name": "getAssetsIn",
      "outputs": [
        {
          "internalType": "contract VToken[]",
          "name": "",
          "type": "address[]"
        }
      ],
      "stateMutability": "view",
      "type": "function"
    },
    {
      "inputs": [
        {
          "internalType": "address",
          "name": "account",
          "type": "address"
        }
      ],
      "name": "getBorrowingPower",
      "outputs": [
        {
          "internalType": "uint256",
          "name": "error",
          "type": "uint256"
        },
        {
          "internalType": "uint256",
          "name": "liquidity",
          "type": "uint256"
        },
        {
          "internalType": "uint256",
          "name": "shortfall",
          "type": "uint256"
        }
      ],
      "stateMutability": "view",
      "type": "function"
    },
    {
      "inputs": [
        {
          "internalType": "address",
          "name": "account",
          "type": "address"
        },
        {
          "internalType": "address",
          "name": "vTokenModify",
          "type": "address"
        },
        {
          "internalType": "uint256",
          "name": "redeemTokens",
          "type": "uint256"
        },
        {
          "internalType": "uint256",
          "name": "borrowAmount",
          "type": "uint256"
        }
      ],
      "name": "getHypotheticalAccountLiquidity",
      "outputs": [
        {
          "internalType": "uint256",
          "name": "error",
          "type": "uint256"
        },
        {
          "internalType": "uint256",
          "name": "liquidity",
          "type": "uint256"
        },
        {
          "internalType": "uint256",
          "name": "shortfall",
          "type": "uint256"
        }
      ],
      "stateMutability": "view",
      "type": "function"
    },
    {
      "inputs": [],
      "name": "getRewardDistributors",
      "outputs": [
        {
          "internalType": "contract RewardsDistributor[]",
          "name": "",
          "type": "address[]"
        }
      ],
      "stateMutability": "view",
      "type": "function"
    },
    {
      "inputs": [
        {
          "internalType": "address",
          "name": "vToken",
          "type": "address"
        }
      ],
      "name": "getRewardsByMarket",
      "outputs": [
        {
          "components": [
            {
              "internalType": "address",
              "name": "rewardToken",
              "type": "address"
            },
            {
              "internalType": "uint256",
              "name": "supplySpeed",
              "type": "uint256"
            },
            {
              "internalType": "uint256",
              "name": "borrowSpeed",
              "type": "uint256"
            }
          ],
          "internalType": "struct ComptrollerStorage.RewardSpeeds[]",
          "name": "rewardSpeeds",
          "type": "tuple[]"
        }
      ],
      "stateMutability": "view",
      "type": "function"
    },
    {
      "inputs": [
        {
          "internalType": "address",
          "name": "user",
          "type": "address"
        }
      ],
      "name": "healAccount",
      "outputs": [],
      "stateMutability": "nonpayable",
      "type": "function"
    },
    {
      "inputs": [
        {
          "internalType": "uint256",
          "name": "loopLimit",
          "type": "uint256"
        },
        {
          "internalType": "address",
          "name": "accessControlManager",
          "type": "address"
        }
      ],
      "name": "initialize",
      "outputs": [],
      "stateMutability": "nonpayable",
      "type": "function"
    },
    {
      "inputs": [],
      "name": "isComptroller",
      "outputs": [
        {
          "internalType": "bool",
          "name": "",
          "type": "bool"
        }
      ],
      "stateMutability": "pure",
      "type": "function"
    },
    {
      "inputs": [
        {
          "internalType": "address",
          "name": "",
          "type": "address"
        }
      ],
      "name": "isForcedLiquidationEnabled",
      "outputs": [
        {
          "internalType": "bool",
          "name": "",
          "type": "bool"
        }
      ],
      "stateMutability": "view",
      "type": "function"
    },
    {
      "inputs": [
        {
          "internalType": "contract VToken",
          "name": "vToken",
          "type": "address"
        }
      ],
      "name": "isMarketListed",
      "outputs": [
        {
          "internalType": "bool",
          "name": "",
          "type": "bool"
        }
      ],
      "stateMutability": "view",
      "type": "function"
    },
    {
      "inputs": [
        {
          "internalType": "address",
          "name": "borrower",
          "type": "address"
        },
        {
          "components": [
            {
              "internalType": "contract VToken",
              "name": "vTokenCollateral",
              "type": "address"
            },
            {
              "internalType": "contract VToken",
              "name": "vTokenBorrowed",
              "type": "address"
            },
            {
              "internalType": "uint256",
              "name": "repayAmount",
              "type": "uint256"
            }
          ],
          "internalType": "struct ComptrollerStorage.LiquidationOrder[]",
          "name": "orders",
          "type": "tuple[]"
        }
      ],
      "name": "liquidateAccount",
      "outputs": [],
      "stateMutability": "nonpayable",
      "type": "function"
    },
    {
      "inputs": [
        {
          "internalType": "address",
          "name": "vTokenBorrowed",
          "type": "address"
        },
        {
          "internalType": "address",
          "name": "vTokenCollateral",
          "type": "address"
        },
        {
          "internalType": "address",
          "name": "liquidator",
          "type": "address"
        },
        {
          "internalType": "address",
          "name": "borrower",
          "type": "address"
        },
        {
          "internalType": "uint256",
          "name": "actualRepayAmount",
          "type": "uint256"
        },
        {
          "internalType": "uint256",
          "name": "seizeTokens",
          "type": "uint256"
        }
      ],
      "name": "liquidateBorrowVerify",
      "outputs": [],
      "stateMutability": "nonpayable",
      "type": "function"
    },
    {
      "inputs": [
        {
          "internalType": "address",
          "name": "vTokenBorrowed",
          "type": "address"
        },
        {
          "internalType": "address",
          "name": "vTokenCollateral",
          "type": "address"
        },
        {
          "internalType": "uint256",
          "name": "actualRepayAmount",
          "type": "uint256"
        }
      ],
      "name": "liquidateCalculateSeizeTokens",
      "outputs": [
        {
          "internalType": "uint256",
          "name": "error",
          "type": "uint256"
        },
        {
          "internalType": "uint256",
          "name": "tokensToSeize",
          "type": "uint256"
        }
      ],
      "stateMutability": "view",
      "type": "function"
    },
    {
      "inputs": [],
      "name": "liquidationIncentiveMantissa",
      "outputs": [
        {
          "internalType": "uint256",
          "name": "",
          "type": "uint256"
        }
      ],
      "stateMutability": "view",
      "type": "function"
    },
    {
      "inputs": [
        {
          "internalType": "address",
          "name": "",
          "type": "address"
        }
      ],
      "name": "markets",
      "outputs": [
        {
          "internalType": "bool",
          "name": "isListed",
          "type": "bool"
        },
        {
          "internalType": "uint256",
          "name": "collateralFactorMantissa",
          "type": "uint256"
        },
        {
          "internalType": "uint256",
          "name": "liquidationThresholdMantissa",
          "type": "uint256"
        }
      ],
      "stateMutability": "view",
      "type": "function"
    },
    {
      "inputs": [],
      "name": "maxLoopsLimit",
      "outputs": [
        {
          "internalType": "uint256",
          "name": "",
          "type": "uint256"
        }
      ],
      "stateMutability": "view",
      "type": "function"
    },
    {
      "inputs": [],
      "name": "minLiquidatableCollateral",
      "outputs": [
        {
          "internalType": "uint256",
          "name": "",
          "type": "uint256"
        }
      ],
      "stateMutability": "view",
      "type": "function"
    },
    {
      "inputs": [
        {
          "internalType": "address",
          "name": "vToken",
          "type": "address"
        },
        {
          "internalType": "address",
          "name": "minter",
          "type": "address"
        },
        {
          "internalType": "uint256",
          "name": "actualMintAmount",
          "type": "uint256"
        },
        {
          "internalType": "uint256",
          "name": "mintTokens",
          "type": "uint256"
        }
      ],
      "name": "mintVerify",
      "outputs": [],
      "stateMutability": "nonpayable",
      "type": "function"
    },
    {
      "inputs": [],
      "name": "oracle",
      "outputs": [
        {
          "internalType": "contract ResilientOracleInterface",
          "name": "",
          "type": "address"
        }
      ],
      "stateMutability": "view",
      "type": "function"
    },
    {
      "inputs": [],
      "name": "owner",
      "outputs": [
        {
          "internalType": "address",
          "name": "",
          "type": "address"
        }
      ],
      "stateMutability": "view",
      "type": "function"
    },
    {
      "inputs": [],
      "name": "pendingOwner",
      "outputs": [
        {
          "internalType": "address",
          "name": "",
          "type": "address"
        }
      ],
      "stateMutability": "view",
      "type": "function"
    },
    {
      "inputs": [],
      "name": "poolRegistry",
      "outputs": [
        {
          "internalType": "address",
          "name": "",
          "type": "address"
        }
      ],
      "stateMutability": "view",
      "type": "function"
    },
    {
      "inputs": [
        {
          "internalType": "address",
          "name": "vToken",
          "type": "address"
        },
        {
          "internalType": "address",
          "name": "borrower",
          "type": "address"
        },
        {
          "internalType": "uint256",
          "name": "borrowAmount",
          "type": "uint256"
        }
      ],
      "name": "preBorrowHook",
      "outputs": [],
      "stateMutability": "nonpayable",
      "type": "function"
    },
    {
      "inputs": [
        {
          "internalType": "address",
          "name": "vTokenBorrowed",
          "type": "address"
        },
        {
          "internalType": "address",
          "name": "vTokenCollateral",
          "type": "address"
        },
        {
          "internalType": "address",
          "name": "borrower",
          "type": "address"
        },
        {
          "internalType": "uint256",
          "name": "repayAmount",
          "type": "uint256"
        },
        {
          "internalType": "bool",
          "name": "skipLiquidityCheck",
          "type": "bool"
        }
      ],
      "name": "preLiquidateHook",
      "outputs": [],
      "stateMutability": "nonpayable",
      "type": "function"
    },
    {
      "inputs": [
        {
          "internalType": "address",
          "name": "vToken",
          "type": "address"
        },
        {
          "internalType": "address",
          "name": "minter",
          "type": "address"
        },
        {
          "internalType": "uint256",
          "name": "mintAmount",
          "type": "uint256"
        }
      ],
      "name": "preMintHook",
      "outputs": [],
      "stateMutability": "nonpayable",
      "type": "function"
    },
    {
      "inputs": [
        {
          "internalType": "address",
          "name": "vToken",
          "type": "address"
        },
        {
          "internalType": "address",
          "name": "redeemer",
          "type": "address"
        },
        {
          "internalType": "uint256",
          "name": "redeemTokens",
          "type": "uint256"
        }
      ],
      "name": "preRedeemHook",
      "outputs": [],
      "stateMutability": "nonpayable",
      "type": "function"
    },
    {
      "inputs": [
        {
          "internalType": "address",
          "name": "vToken",
          "type": "address"
        },
        {
          "internalType": "address",
          "name": "borrower",
          "type": "address"
        }
      ],
      "name": "preRepayHook",
      "outputs": [],
      "stateMutability": "nonpayable",
      "type": "function"
    },
    {
      "inputs": [
        {
          "internalType": "address",
          "name": "vTokenCollateral",
          "type": "address"
        },
        {
          "internalType": "address",
          "name": "seizerContract",
          "type": "address"
        },
        {
          "internalType": "address",
          "name": "liquidator",
          "type": "address"
        },
        {
          "internalType": "address",
          "name": "borrower",
          "type": "address"
        }
      ],
      "name": "preSeizeHook",
      "outputs": [],
      "stateMutability": "nonpayable",
      "type": "function"
    },
    {
      "inputs": [
        {
          "internalType": "address",
          "name": "vToken",
          "type": "address"
        },
        {
          "internalType": "address",
          "name": "src",
          "type": "address"
        },
        {
          "internalType": "address",
          "name": "dst",
          "type": "address"
        },
        {
          "internalType": "uint256",
          "name": "transferTokens",
          "type": "uint256"
        }
      ],
      "name": "preTransferHook",
      "outputs": [],
      "stateMutability": "nonpayable",
      "type": "function"
    },
    {
      "inputs": [],
      "name": "prime",
      "outputs": [
        {
          "internalType": "contract IPrime",
          "name": "",
          "type": "address"
        }
      ],
      "stateMutability": "view",
      "type": "function"
    },
    {
      "inputs": [
        {
          "internalType": "address",
          "name": "vToken",
          "type": "address"
        },
        {
          "internalType": "address",
          "name": "redeemer",
          "type": "address"
        },
        {
          "internalType": "uint256",
          "name": "redeemAmount",
          "type": "uint256"
        },
        {
          "internalType": "uint256",
          "name": "redeemTokens",
          "type": "uint256"
        }
      ],
      "name": "redeemVerify",
      "outputs": [],
      "stateMutability": "nonpayable",
      "type": "function"
    },
    {
      "inputs": [],
      "name": "renounceOwnership",
      "outputs": [],
      "stateMutability": "nonpayable",
      "type": "function"
    },
    {
      "inputs": [
        {
          "internalType": "address",
          "name": "vToken",
          "type": "address"
        },
        {
          "internalType": "address",
          "name": "payer",
          "type": "address"
        },
        {
          "internalType": "address",
          "name": "borrower",
          "type": "address"
        },
        {
          "internalType": "uint256",
          "name": "actualRepayAmount",
          "type": "uint256"
        },
        {
          "internalType": "uint256",
          "name": "borrowerIndex",
          "type": "uint256"
        }
      ],
      "name": "repayBorrowVerify",
      "outputs": [],
      "stateMutability": "nonpayable",
      "type": "function"
    },
    {
      "inputs": [
        {
          "internalType": "address",
          "name": "vTokenCollateral",
          "type": "address"
        },
        {
          "internalType": "address",
          "name": "vTokenBorrowed",
          "type": "address"
        },
        {
          "internalType": "address",
          "name": "liquidator",
          "type": "address"
        },
        {
          "internalType": "address",
          "name": "borrower",
          "type": "address"
        },
        {
          "internalType": "uint256",
          "name": "seizeTokens",
          "type": "uint256"
        }
      ],
      "name": "seizeVerify",
      "outputs": [],
      "stateMutability": "nonpayable",
      "type": "function"
    },
    {
      "inputs": [
        {
          "internalType": "address",
          "name": "accessControlManager_",
          "type": "address"
        }
      ],
      "name": "setAccessControlManager",
      "outputs": [],
      "stateMutability": "nonpayable",
      "type": "function"
    },
    {
      "inputs": [
        {
          "internalType": "contract VToken[]",
          "name": "marketsList",
          "type": "address[]"
        },
        {
          "internalType": "enum Action[]",
          "name": "actionsList",
          "type": "uint8[]"
        },
        {
          "internalType": "bool",
          "name": "paused",
          "type": "bool"
        }
      ],
      "name": "setActionsPaused",
      "outputs": [],
      "stateMutability": "nonpayable",
      "type": "function"
    },
    {
      "inputs": [
        {
          "internalType": "uint256",
          "name": "newCloseFactorMantissa",
          "type": "uint256"
        }
      ],
      "name": "setCloseFactor",
      "outputs": [],
      "stateMutability": "nonpayable",
      "type": "function"
    },
    {
      "inputs": [
        {
          "internalType": "contract VToken",
          "name": "vToken",
          "type": "address"
        },
        {
          "internalType": "uint256",
          "name": "newCollateralFactorMantissa",
          "type": "uint256"
        },
        {
          "internalType": "uint256",
          "name": "newLiquidationThresholdMantissa",
          "type": "uint256"
        }
      ],
      "name": "setCollateralFactor",
      "outputs": [],
      "stateMutability": "nonpayable",
      "type": "function"
    },
    {
      "inputs": [
        {
          "internalType": "address",
          "name": "vTokenBorrowed",
          "type": "address"
        },
        {
          "internalType": "bool",
          "name": "enable",
          "type": "bool"
        }
      ],
      "name": "setForcedLiquidation",
      "outputs": [],
      "stateMutability": "nonpayable",
      "type": "function"
    },
    {
      "inputs": [
        {
          "internalType": "uint256",
          "name": "newLiquidationIncentiveMantissa",
          "type": "uint256"
        }
      ],
      "name": "setLiquidationIncentive",
      "outputs": [],
      "stateMutability": "nonpayable",
      "type": "function"
    },
    {
      "inputs": [
        {
          "internalType": "contract VToken[]",
          "name": "vTokens",
          "type": "address[]"
        },
        {
          "internalType": "uint256[]",
          "name": "newBorrowCaps",
          "type": "uint256[]"
        }
      ],
      "name": "setMarketBorrowCaps",
      "outputs": [],
      "stateMutability": "nonpayable",
      "type": "function"
    },
    {
      "inputs": [
        {
          "internalType": "contract VToken[]",
          "name": "vTokens",
          "type": "address[]"
        },
        {
          "internalType": "uint256[]",
          "name": "newSupplyCaps",
          "type": "uint256[]"
        }
      ],
      "name": "setMarketSupplyCaps",
      "outputs": [],
      "stateMutability": "nonpayable",
      "type": "function"
    },
    {
      "inputs": [
        {
          "internalType": "uint256",
          "name": "limit",
          "type": "uint256"
        }
      ],
      "name": "setMaxLoopsLimit",
      "outputs": [],
      "stateMutability": "nonpayable",
      "type": "function"
    },
    {
      "inputs": [
        {
          "internalType": "uint256",
          "name": "newMinLiquidatableCollateral",
          "type": "uint256"
        }
      ],
      "name": "setMinLiquidatableCollateral",
      "outputs": [],
      "stateMutability": "nonpayable",
      "type": "function"
    },
    {
      "inputs": [
        {
          "internalType": "contract ResilientOracleInterface",
          "name": "newOracle",
          "type": "address"
        }
      ],
      "name": "setPriceOracle",
      "outputs": [],
      "stateMutability": "nonpayable",
      "type": "function"
    },
    {
      "inputs": [
        {
          "internalType": "contract IPrime",
          "name": "_prime",
          "type": "address"
        }
      ],
      "name": "setPrimeToken",
      "outputs": [],
      "stateMutability": "nonpayable",
      "type": "function"
    },
    {
      "inputs": [
        {
          "internalType": "address",
          "name": "",
          "type": "address"
        }
      ],
      "name": "supplyCaps",
      "outputs": [
        {
          "internalType": "uint256",
          "name": "",
          "type": "uint256"
        }
      ],
      "stateMutability": "view",
      "type": "function"
    },
    {
      "inputs": [
        {
          "internalType": "contract VToken",
          "name": "vToken",
          "type": "address"
        }
      ],
      "name": "supportMarket",
      "outputs": [],
      "stateMutability": "nonpayable",
      "type": "function"
    },
    {
      "inputs": [
        {
          "internalType": "address",
          "name": "newOwner",
          "type": "address"
        }
      ],
      "name": "transferOwnership",
      "outputs": [],
      "stateMutability": "nonpayable",
      "type": "function"
    },
    {
      "inputs": [
        {
          "internalType": "address",
          "name": "vToken",
          "type": "address"
        },
        {
          "internalType": "address",
          "name": "src",
          "type": "address"
        },
        {
          "internalType": "address",
          "name": "dst",
          "type": "address"
        },
        {
          "internalType": "uint256",
          "name": "transferTokens",
          "type": "uint256"
        }
      ],
      "name": "transferVerify",
      "outputs": [],
      "stateMutability": "nonpayable",
      "type": "function"
    },
    {
      "inputs": [
        {
          "internalType": "address",
          "name": "delegate",
          "type": "address"
        },
        {
          "internalType": "bool",
          "name": "approved",
          "type": "bool"
        }
      ],
      "name": "updateDelegate",
      "outputs": [],
      "stateMutability": "nonpayable",
      "type": "function"
    },
    {
      "inputs": [
        {
          "internalType": "address",
          "name": "account",
          "type": "address"
        }
      ],
      "name": "updatePrices",
      "outputs": [],
      "stateMutability": "nonpayable",
      "type": "function"
    }
  ],
  "transactionHash": "0xbdc8e9609db5cf801e05b4ddb6b9e1531b002fa44e1eaa1d30d92daff7a526fd",
  "args": [
    "0xEcFa4d4FcBB76A19EB90F947CCCd5c29375bD3Bd"
  ],
  "numDeployments": 1,
  "solcInputHash": "ab048682e1128bf58892ce9ad2539f59",
  "bytecode": "0x60a06040523480156200001157600080fd5b5060405162005d2038038062005d20833981016040819052620000349162000149565b6200003f816200005d565b6001600160a01b0381166080526200005662000088565b506200017b565b6001600160a01b03811662000085576040516342bcdf7f60e11b815260040160405180910390fd5b50565b600054610100900460ff1615620000f55760405162461bcd60e51b815260206004820152602760248201527f496e697469616c697a61626c653a20636f6e747261637420697320696e697469604482015266616c697a696e6760c81b606482015260840160405180910390fd5b60005460ff9081161462000147576000805460ff191660ff9081179091556040519081527f7f26b83ff96e1f2b6a682f133852f6798a09c465da95921460cefb38474024989060200160405180910390a15b565b6000602082840312156200015c57600080fd5b81516001600160a01b03811681146200017457600080fd5b9392505050565b608051615b826200019e6000396000818161080901526130fb0152615b826000f3fe608060405234801561001057600080fd5b50600436106103f05760003560e01c806380d45a2d11610215578063c32094c711610125578063ddbf54fd116100b8578063e875544611610087578063e87554461461098e578063e89d51ad14610997578063eade3eed146109aa578063ede4edd0146109bd578063f2fde38b146109d057600080fd5b8063ddbf54fd14610944578063df71403b14610957578063e30c39781461096a578063e85a29601461097b57600080fd5b8063d136af44116100f4578063d136af4414610902578063da35a26f14610915578063db5c65de14610928578063dce154491461093157600080fd5b8063c32094c7146108a1578063c488847b146108b4578063c7ee005e146108dc578063cab4f84c146108ef57600080fd5b8063a8431081116101a8578063b2068e8411610177578063b2068e8414610833578063b4a0bdf314610853578063be26317e14610864578063c0891ba91461086e578063c29982381461088157600080fd5b8063a8431081146107de578063abfceffc146107f1578063afcff50f14610804578063b0772d0b1461082b57600080fd5b80638e6470ea116101e45780638e6470ea146107275780638e8f294b1461073a578063921363951461078a578063929fe9a11461079d57600080fd5b806380d45a2d146106cd5780638b3113f6146106e05780638c1ac18a146106f35780638da5cb5b1461071657600080fd5b806351dff989116103105780635cc4fdeb116102a35780636d0be88d116102725780636d0be88d146106845780636d35bf9114610697578063715018a6146106aa57806379ba5097146106b25780637dc0d1d0146106ba57600080fd5b80635cc4fdeb146106365780635ec88c791461064957806361252fd11461065c5780636a56947e1461067157600080fd5b8063530e784f116102df578063530e784f146105ea57806356aaee2d146105fd5780635c21b6c5146106105780635c7786051461062357600080fd5b806351dff9891461051c578063520b6c7414610599578063528a174c146105ac57806352d84d1e146105bf57600080fd5b806324aaa2201161038857806347ef3b3b1161035757806347ef3b3b1461052f5780634a584432146105425780634ada90af146105625780634e79238f1461056b57600080fd5b806324aaa220146104ca5780632bce219c146104dd5780633d98a1e5146104f057806341c728b91461051c57600080fd5b806312348e96116103c457806312348e961461047e578063186db48f146104915780631bc41f28146104a45780631ededc91146104b757600080fd5b80627e3dd2146103f557806302c3bcbb1461040d5780630e32cb861461043b57806310b9833814610450575b600080fd5b60015b60405190151581526020015b60405180910390f35b61042d61041b366004614fa0565b60d16020526000908152604090205481565b604051908152602001610404565b61044e610449366004614fa0565b6109e3565b005b6103f861045e366004614fbd565b60d760209081526000928352604080842090915290825290205460ff1681565b61044e61048c366004614ff6565b6109f7565b61044e61049f36600461505b565b610b5d565b61044e6104b23660046150c7565b610cd6565b61044e6104c5366004615123565b6110a5565b61044e6104d836600461518c565b611122565b61044e6104eb366004615210565b6111ef565b6103f86104fe366004614fa0565b6001600160a01b0316600090815260cd602052604090205460ff1690565b61044e61052a366004615298565b6115cb565b61044e61053d3660046152de565b611642565b61042d610550366004614fa0565b60cf6020526000908152604090205481565b61042d60cb5481565b61057e610579366004615298565b611724565b60408051938452602084019290925290820152606001610404565b61044e6105a7366004614ff6565b611755565b61057e6105ba366004614fa0565b6117b3565b6105d26105cd366004614ff6565b6117de565b6040516001600160a01b039091168152602001610404565b61044e6105f8366004614fa0565b611808565b61044e61060b366004614fa0565b61186c565b61044e61061e366004614fa0565b611a8f565b61044e61063136600461534c565b611bb4565b61044e61064436600461538d565b611c2a565b61057e610657366004614fa0565b611e66565b610664611e78565b60405161040491906153c2565b61044e61067f36600461540f565b611eda565b61044e61069236600461540f565b611f81565b61044e6106a5366004615460565b6120f7565b61044e61219e565b61044e6121b2565b60c9546105d2906001600160a01b031681565b61044e6106db366004614ff6565b612229565b61044e6106ee3660046154c4565b61223a565b6103f8610701366004614fa0565b60d56020526000908152604090205460ff1681565b6033546001600160a01b03166105d2565b61044e61073536600461534c565b612307565b61076d610748366004614fa0565b60cd6020526000908152604090208054600182015460029092015460ff909116919083565b604080519315158452602084019290925290820152606001610404565b61044e610798366004614fa0565b61241d565b6103f86107ab366004614fbd565b6001600160a01b03808216600090815260cd60209081526040808320938616835260039093019052205460ff1692915050565b61044e6107ec366004614ff6565b612803565b6106646107ff366004614fa0565b6128f1565b6105d27f000000000000000000000000000000000000000000000000000000000000000081565b610664612967565b610846610841366004614fa0565b6129c7565b60405161040491906154f2565b6097546001600160a01b03166105d2565b61042d6101075481565b61044e61087c36600461534c565b612c0a565b61089461088f36600461556a565b612e9a565b604051610404919061562f565b61044e6108af366004614fa0565b612f51565b6108c76108c236600461534c565b612fcb565b60408051928352602083019190915201610404565b60d6546105d2906001600160a01b031681565b61044e6108fd366004614fa0565b6130f6565b61044e61091036600461505b565b61332a565b61044e610923366004615667565b6134e7565b61042d60d05481565b6105d261093f36600461568c565b613603565b61044e6109523660046154c4565b61363b565b61044e61096536600461534c565b6136fc565b6065546001600160a01b03166105d2565b6103f86109893660046156c7565b613b2b565b61042d60ca5481565b61044e6109a53660046156fc565b613b82565b61044e6109b8366004614fbd565b613d86565b61042d6109cb366004614fa0565b613fba565b61044e6109de366004614fa0565b61422c565b6109eb61429d565b6109f4816142f7565b50565b610a356040518060400160405280601781526020017f736574436c6f7365466163746f722875696e74323536290000000000000000008152506143ae565b80670c7d713b49da00001015610aa95760405162461bcd60e51b815260206004820152602e60248201527f436c6f736520666163746f722067726561746572207468616e206d6178696d7560448201526d369031b637b9b2903330b1ba37b960911b60648201526084015b60405180910390fd5b8066b1a2bc2ec500001115610b175760405162461bcd60e51b815260206004820152602e60248201527f436c6f736520666163746f7220736d616c6c6572207468616e206d696e696d7560448201526d369031b637b9b2903330b1ba37b960911b6064820152608401610aa0565b60ca80549082905560408051828152602081018490527f3b9670cf975d26958e754b57098eaa2ac914d8d2a31b83257997b9f346110fd991015b60405180910390a15050565b610b7e604051806060016040528060288152602001615a60602891396143ae565b82818115801590610b8e57508082145b610bca5760405162461bcd60e51b815260206004820152600d60248201526c1a5b9d985b1a59081a5b9c1d5d609a1b6044820152606401610aa0565b610bd38261444c565b60005b82811015610ccd57848482818110610bf057610bf0615756565b9050602002013560cf6000898985818110610c0d57610c0d615756565b9050602002016020810190610c229190614fa0565b6001600160a01b03168152602081019190915260400160002055868682818110610c4e57610c4e615756565b9050602002016020810190610c639190614fa0565b6001600160a01b03167f6f1951b2aad10f3fc81b86d91105b413a5b3f847a34bbc5ce1904201b14438f6868684818110610c9f57610c9f615756565b90506020020135604051610cb591815260200190565b60405180910390a2610cc681615782565b9050610bd6565b50505050505050565b610ce184600461447f565b6001600160a01b038416600090815260cd60205260409020805460ff16610d2657604051635a9a1eb960e11b81526001600160a01b0386166004820152602401610aa0565b306001600160a01b03851603610dce57306001600160a01b0316856001600160a01b0316635fe3b5676040518163ffffffff1660e01b8152600401602060405180830381865afa158015610d7e573d6000803e3d6000fd5b505050506040513d601f19601f82011682018060405250810190610da2919061579b565b6001600160a01b031614610dc957604051630c73eb0560e01b815260040160405180910390fd5b610f06565b6001600160a01b038416600090815260cd602052604090205460ff16610e1257604051635a9a1eb960e11b81526001600160a01b0385166004820152602401610aa0565b836001600160a01b0316635fe3b5676040518163ffffffff1660e01b8152600401602060405180830381865afa158015610e50573d6000803e3d6000fd5b505050506040513d601f19601f82011682018060405250810190610e74919061579b565b6001600160a01b0316856001600160a01b0316635fe3b5676040518163ffffffff1660e01b8152600401602060405180830381865afa158015610ebb573d6000803e3d6000fd5b505050506040513d601f19601f82011682018060405250810190610edf919061579b565b6001600160a01b031614610f0657604051630c73eb0560e01b815260040160405180910390fd5b6001600160a01b038216600090815260038201602052604090205460ff16610f45578482604051630cdfb2db60e31b8152600401610aa09291906157b8565b60d35460005b81811015610ccd57600060d38281548110610f6857610f68615756565b60009182526020909120015460405163051d1d4f60e11b81526001600160a01b038a8116600483015290911691508190630a3a3a9e90602401600060405180830381600087803b158015610fbb57600080fd5b505af1158015610fcf573d6000803e3d6000fd5b505060405163db7954fd60e01b81526001600160a01b038416925063db7954fd9150611001908b9089906004016157b8565b600060405180830381600087803b15801561101b57600080fd5b505af115801561102f573d6000803e3d6000fd5b505060405163db7954fd60e01b81526001600160a01b038416925063db7954fd9150611061908b908a906004016157b8565b600060405180830381600087803b15801561107b57600080fd5b505af115801561108f573d6000803e3d6000fd5b50505050508061109e90615782565b9050610f4b565b60d6546001600160a01b03161561111b5760d6546040516367994e8b60e11b81526001600160a01b039091169063cf329d16906110e890869089906004016157b8565b600060405180830381600087803b15801561110257600080fd5b505af1158015611116573d6000803e3d6000fd5b505050505b5050505050565b6111436040518060600160405280602a8152602001615ad9602a91396143ae565b838261115761115282846157d2565b61444c565b60005b828110156111e55760005b828110156111d4576111c489898481811061118257611182615756565b90506020020160208101906111979190614fa0565b8888848181106111a9576111a9615756565b90506020020160208101906111be91906157f1565b876144ab565b6111cd81615782565b9050611165565b506111de81615782565b905061115a565b5050505050505050565b60006111fd846145b96145ed565b905060d054816000015111156112345760d0548151604051631a451c0f60e21b815260048101929092526024820152604401610aa0565b6000611254604051806020016040528060cb54815250836040015161463c565b82519091508110611285578151604051632c1f8ef160e21b8152610aa0918391600401918252602082015260400190565b8160a001516000036112aa5760405163095bf33360e01b815260040160405180910390fd5b826112b961115260028361580c565b60005b818110156114b15760cd60008787848181106112da576112da615756565b90506060020160200160208101906112f29190614fa0565b6001600160a01b0316815260208101919091526040016000205460ff166113625785858281811061132557611325615756565b905060600201602001602081019061133d9190614fa0565b604051635a9a1eb960e11b81526001600160a01b039091166004820152602401610aa0565b60cd600087878481811061137857611378615756565b61138e9260206060909202019081019150614fa0565b6001600160a01b0316815260208101919091526040016000205460ff166113d7578585828181106113c1576113c1615756565b61133d9260206060909202019081019150614fa0565b368686838181106113ea576113ea615756565b90506060020190508060200160208101906114059190614fa0565b6001600160a01b0316638bbdb6db338a60408501356114276020870187614fa0565b60405160e086901b6001600160e01b03191681526001600160a01b0394851660048201529284166024840152604483019190915290911660648201526001608482015260a401600060405180830381600087803b15801561148757600080fd5b505af115801561149b573d6000803e3d6000fd5b5050505050806114aa90615782565b90506112bc565b506001600160a01b038616600090815260cc602090815260408083208054825181850281018501909352808352919290919083018282801561151c57602002820191906000526020600020905b81546001600160a01b031681526001909101906020018083116114fe575b505083519394506000925050505b8181101561111657600061155784838151811061154957611549615756565b60200260200101518b61465c565b5091505080156115ba5760405162461bcd60e51b815260206004820152602860248201527f4e6f6e7a65726f20626f72726f772062616c616e6365206166746572206c69716044820152673ab4b230ba34b7b760c11b6064820152608401610aa0565b506115c481615782565b905061152a565b60d6546001600160a01b03161561163c5760d6546040516367994e8b60e11b81526001600160a01b039091169063cf329d169061160e90869088906004016157b8565b600060405180830381600087803b15801561162857600080fd5b505af11580156111e5573d6000803e3d6000fd5b50505050565b60d6546001600160a01b03161561171c5760d6546040516367994e8b60e11b81526001600160a01b039091169063cf329d16906116859086908a906004016157b8565b600060405180830381600087803b15801561169f57600080fd5b505af11580156116b3573d6000803e3d6000fd5b505060d6546040516367994e8b60e11b81526001600160a01b03909116925063cf329d1691506116e99087908a906004016157b8565b600060405180830381600087803b15801561170357600080fd5b505af1158015611717573d6000803e3d6000fd5b505050505b505050505050565b60008060008061173988888888614703614737565b608081015160a09091015160009a919950975095505050505050565b611776604051806060016040528060258152602001615a88602591396143ae565b60d080549082905560408051828152602081018490527eb4f4f153ad7f1397564a8830fef092481e8cf6a2cd3ff04f96d10ba51200a59101610b51565b6000806000806117c5856147036145ed565b608081015160a090910151600097919650945092505050565b60ce81815481106117ee57600080fd5b6000918252602090912001546001600160a01b0316905081565b61181061429d565b6118198161496c565b60c980546001600160a01b038381166001600160a01b03198316179092556040519116907fd52b2b9b7e9ee655fcb95d2e5b9e0c9f69e7ef2b8e9d2d0ea78402d576d22e2290610b5190839085906157b8565b61187461429d565b6001600160a01b038116600090815260d4602052604090205460ff16156118ce5760405162461bcd60e51b815260206004820152600e60248201526d616c72656164792065786973747360901b6044820152606401610aa0565b60d3546118df61115282600161582e565b60d3805460018082019092557f915c3eb987b20e1af620c1403197bf687fb7f18513b3a73fde6e78c7072c41a60180546001600160a01b0319166001600160a01b038516908117909155600090815260d460205260408120805460ff191690921790915560ce54905b818110156119e857836001600160a01b0316632a869a4d60ce838154811061197257611972615756565b60009182526020909120015460405160e083901b6001600160e01b03191681526001600160a01b039091166004820152602401600060405180830381600087803b1580156119bf57600080fd5b505af11580156119d3573d6000803e3d6000fd5b50505050806119e190615782565b9050611948565b50826001600160a01b031663f7c618c16040518163ffffffff1660e01b8152600401602060405180830381865afa158015611a27573d6000803e3d6000fd5b505050506040513d601f19601f82011682018060405250810190611a4b919061579b565b6001600160a01b0316836001600160a01b03167f066a44d77db1581603d7d8ca1ca494756c0d359c7ffacd9b2c8f78dab7aceae260405160405180910390a3505050565b6001600160a01b038116600090815260cc6020908152604080832080548251818502810185019093528083529192909190830182828015611af957602002820191906000526020600020905b81546001600160a01b03168152600190910190602001808311611adb575b5050835160c954949550936001600160a01b0316925060009150505b8281101561111b57816001600160a01b03166396e85ced858381518110611b3e57611b3e615756565b60200260200101516040518263ffffffff1660e01b8152600401611b7191906001600160a01b0391909116815260200190565b600060405180830381600087803b158015611b8b57600080fd5b505af1158015611b9f573d6000803e3d6000fd5b5050505080611bad90615782565b9050611b15565b60d6546001600160a01b031615611c255760d6546040516367994e8b60e11b81526001600160a01b039091169063cf329d1690611bf790859087906004016157b8565b600060405180830381600087803b158015611c1157600080fd5b505af1158015610ccd573d6000803e3d6000fd5b505050565b611c4b6040518060600160405280602c8152602001615aad602c91396143ae565b6001600160a01b038316600090815260cd60205260409020805460ff16611c9057604051635a9a1eb960e11b81526001600160a01b0385166004820152602401610aa0565b670c7d713b49da0000831115611cb9576040516302f22cad60e61b815260040160405180910390fd5b670de0b6b3a7640000821115611ce15760405162f9474b60e61b815260040160405180910390fd5b82821015611d015760405162f9474b60e61b815260040160405180910390fd5b8215801590611d7b575060c95460405163fc57d4df60e01b81526001600160a01b0386811660048301529091169063fc57d4df90602401602060405180830381865afa158015611d55573d6000803e3d6000fd5b505050506040513d601f19601f82011682018060405250810190611d799190615846565b155b15611da35760405162e52a7d60e41b81526001600160a01b0385166004820152602401610aa0565b6001810154838114611e015760018201849055604080516001600160a01b0387168152602081018390529081018590527f70483e6592cd5182d45ac970e05bc62cdcc90e9d8ef2c2dbe686cf383bcd7fc59060600160405180910390a15b600282015483811461171c5760028301849055604080516001600160a01b0388168152602081018390529081018590527f9e92c7d5fef69846094f3ddcadcb9402c6ba469c461368714f1cabd8ef48b5919060600160405180910390a1505050505050565b6000806000806117c5856145b96145ed565b606060d3805480602002602001604051908101604052809291908181526020018280548015611ed057602002820191906000526020600020905b81546001600160a01b03168152600190910190602001808311611eb2575b5050505050905090565b60d6546001600160a01b03161561163c5760d6546040516367994e8b60e11b81526001600160a01b039091169063cf329d1690611f1d90869088906004016157b8565b600060405180830381600087803b158015611f3757600080fd5b505af1158015611f4b573d6000803e3d6000fd5b505060d6546040516367994e8b60e11b81526001600160a01b03909116925063cf329d16915061160e90859088906004016157b8565b611f8c84600661447f565b611f97848483614993565b60d35460005b8181101561171c57600060d38281548110611fba57611fba615756565b60009182526020909120015460405163051d1d4f60e11b81526001600160a01b03898116600483015290911691508190630a3a3a9e90602401600060405180830381600087803b15801561200d57600080fd5b505af1158015612021573d6000803e3d6000fd5b505060405163db7954fd60e01b81526001600160a01b038416925063db7954fd9150612053908a908a906004016157b8565b600060405180830381600087803b15801561206d57600080fd5b505af1158015612081573d6000803e3d6000fd5b505060405163db7954fd60e01b81526001600160a01b038416925063db7954fd91506120b3908a9089906004016157b8565b600060405180830381600087803b1580156120cd57600080fd5b505af11580156120e1573d6000803e3d6000fd5b5050505050806120f090615782565b9050611f9d565b60d6546001600160a01b03161561111b5760d6546040516367994e8b60e11b81526001600160a01b039091169063cf329d169061213a90859089906004016157b8565b600060405180830381600087803b15801561215457600080fd5b505af1158015612168573d6000803e3d6000fd5b505060d6546040516367994e8b60e11b81526001600160a01b03909116925063cf329d1691506110e890869089906004016157b8565b6121a661429d565b6121b06000614a41565b565b60655433906001600160a01b031681146122205760405162461bcd60e51b815260206004820152602960248201527f4f776e61626c6532537465703a2063616c6c6572206973206e6f7420746865206044820152683732bb9037bbb732b960b91b6064820152608401610aa0565b6109f481614a41565b61223161429d565b6109f481614a5a565b61225b604051806060016040528060228152602001615b03602291396143ae565b6122648261496c565b6001600160a01b038216600090815260cd602052604090205460ff166122a857604051635a9a1eb960e11b81526001600160a01b0383166004820152602401610aa0565b6001600160a01b038216600081815260d56020908152604091829020805460ff191685151590811790915591519182527f03561d5280ebb02280893b1d60978e4a27e7654a149c5d0e7c2cf65389ce1694910160405180910390a25050565b61231283600161447f565b61231d838383614993565b60d35460005b8181101561111b57600060d3828154811061234057612340615756565b60009182526020909120015460405163051d1d4f60e11b81526001600160a01b03888116600483015290911691508190630a3a3a9e90602401600060405180830381600087803b15801561239357600080fd5b505af11580156123a7573d6000803e3d6000fd5b505060405163db7954fd60e01b81526001600160a01b038416925063db7954fd91506123d990899089906004016157b8565b600060405180830381600087803b1580156123f357600080fd5b505af1158015612407573d6000803e3d6000fd5b50505050508061241690615782565b9050612323565b6001600160a01b038116600090815260cc602090815260408083208054825181850281018501909352808352919290919083018282801561248757602002820191906000526020600020905b81546001600160a01b03168152600190910190602001808311612469575b5050835160c954949550933393506001600160a01b03169150600090505b838110156125c2578481815181106124bf576124bf615756565b60200260200101516001600160a01b031663a6afed956040518163ffffffff1660e01b81526004016020604051808303816000875af1158015612506573d6000803e3d6000fd5b505050506040513d601f19601f8201168201806040525081019061252a9190615846565b50816001600160a01b03166396e85ced86838151811061254c5761254c615756565b60200260200101516040518263ffffffff1660e01b815260040161257f91906001600160a01b0391909116815260200190565b600060405180830381600087803b15801561259957600080fd5b505af11580156125ad573d6000803e3d6000fd5b50505050806125bb90615782565b90506124a5565b505060006125d2856145b96145ed565b905060d054816000015111156126095760d0548151604051631a451c0f60e21b815260048101929092526024820152604401610aa0565b8060a0015160000361262e5760405163095bf33360e01b815260040160405180910390fd5b60408051602080820183528351825282518082018452848401518152835191820190935260cb54815290916000916126669190614af6565b905060006126748383614b3e565b90506126986040518060200160405280670de0b6b3a7640000815250825190511090565b156126c35781518351604051631a451c0f60e21b815260048101929092526024820152604401610aa0565b60005b868110156111165760008882815181106126e2576126e2615756565b602002602001015190506000806126f9838d61465c565b5091509150600061270a868361463c565b9050821561277d5760405163b2a02ff160e01b81526001600160a01b038b811660048301528e811660248301526044820185905285169063b2a02ff190606401600060405180830381600087803b15801561276457600080fd5b505af1158015612778573d6000803e3d6000fd5b505050505b81156127ee5760405163227f37ff60e11b81526001600160a01b038b811660048301528e81166024830152604482018390528516906344fe6ffe90606401600060405180830381600087803b1580156127d557600080fd5b505af11580156127e9573d6000803e3d6000fd5b505050505b50505050806127fc90615782565b90506126c6565b670de0b6b3a76400008110156128755760405162461bcd60e51b815260206004820152603160248201527f6c69717569646174696f6e20696e63656e746976652073686f756c64206265206044820152700cee4cac2e8cae440e8d0c2dc4062ca627607b1b6064820152608401610aa0565b6128b36040518060400160405280602081526020017f7365744c69717569646174696f6e496e63656e746976652875696e74323536298152506143ae565b60cb80549082905560408051828152602081018490527faeba5a6c40a8ac138134bff1aaa65debf25971188a58804bad717f82f0ec13169101610b51565b6001600160a01b038116600090815260cc6020908152604080832080548251818502810185019093528083526060949383018282801561295a57602002820191906000526020600020905b81546001600160a01b0316815260019091019060200180831161293c575b5093979650505050505050565b606060ce805480602002602001604051908101604052809291908181526020018280548015611ed0576020028201919060005260206000209081546001600160a01b03168152600190910190602001808311611eb2575050505050905090565b60d3546060908067ffffffffffffffff8111156129e6576129e6615554565b604051908082528060200260200182016040528015612a4457816020015b612a31604051806060016040528060006001600160a01b0316815260200160008152602001600081525090565b815260200190600190039081612a045790505b50915060005b81811015612c0357600060d38281548110612a6757612a67615756565b60009182526020808320909101546040805163f7c618c160e01b815290516001600160a01b039092169450849263f7c618c1926004808401938290030181865afa158015612ab9573d6000803e3d6000fd5b505050506040513d601f19601f82011682018060405250810190612add919061579b565b604080516060810182526001600160a01b0380841682529151631d31307360e21b815289831660048201529293509160208301918516906374c4c1cc90602401602060405180830381865afa158015612b3a573d6000803e3d6000fd5b505050506040513d601f19601f82011682018060405250810190612b5e9190615846565b8152604051637c05a7c560e01b81526001600160a01b038981166004830152602090920191851690637c05a7c590602401602060405180830381865afa158015612bac573d6000803e3d6000fd5b505050506040513d601f19601f82011682018060405250810190612bd09190615846565b815250858481518110612be557612be5615756565b6020026020010181905250505080612bfc90615782565b9050612a4a565b5050919050565b612c1583600061447f565b6001600160a01b038316600090815260cd602052604090205460ff16612c5957604051635a9a1eb960e11b81526001600160a01b0384166004820152602401610aa0565b6001600160a01b038316600090815260d160205260409020546000198114612d9a576000846001600160a01b03166318160ddd6040518163ffffffff1660e01b8152600401602060405180830381865afa158015612cbb573d6000803e3d6000fd5b505050506040513d601f19601f82011682018060405250810190612cdf9190615846565b905060006040518060200160405280876001600160a01b031663182df0f56040518163ffffffff1660e01b8152600401602060405180830381865afa158015612d2c573d6000803e3d6000fd5b505050506040513d601f19601f82011682018060405250810190612d509190615846565b905290506000612d61828487614b78565b905083811115612d965760405163db33be3d60e01b81526001600160a01b038816600482015260248101859052604401610aa0565b5050505b60d35460005b8181101561171c57600060d38281548110612dbd57612dbd615756565b60009182526020909120015460405163051d1d4f60e11b81526001600160a01b03898116600483015290911691508190630a3a3a9e90602401600060405180830381600087803b158015612e1057600080fd5b505af1158015612e24573d6000803e3d6000fd5b505060405163db7954fd60e01b81526001600160a01b038416925063db7954fd9150612e56908a908a906004016157b8565b600060405180830381600087803b158015612e7057600080fd5b505af1158015612e84573d6000803e3d6000fd5b505050505080612e9390615782565b9050612da0565b805160609060008167ffffffffffffffff811115612eba57612eba615554565b604051908082528060200260200182016040528015612ee3578160200160208202803683370190505b50905060005b82811015612f49576000858281518110612f0557612f05615756565b60200260200101519050612f198133614ba2565b6000838381518110612f2d57612f2d615756565b602090810291909101015250612f4281615782565b9050612ee9565b509392505050565b612f5961429d565b612f628161496c565b60d6546040517fcb20dab7409e4fb972d9adccb39530520b226ce6940d85c9523a499b950b6ea391612fa1916001600160a01b039091169084906157b8565b60405180910390a160d680546001600160a01b0319166001600160a01b0392909216919091179055565b6000806000612fd986614c9e565b90506000612fe686614c9e565b90506000866001600160a01b031663182df0f56040518163ffffffff1660e01b8152600401602060405180830381865afa158015613028573d6000803e3d6000fd5b505050506040513d601f19601f8201168201806040525081019061304c9190615846565b905060006130666040518060200160405280600081525090565b60408051602080820183526000808352835180830185529081528351808301855260cb548152845192830190945288825291926130a291614af6565b92506130ca604051806020016040528088815250604051806020016040528088815250614af6565b91506130d68383614b3e565b90506130e2818b61463c565b60009d909c509a5050505050505050505050565b61311f7f0000000000000000000000000000000000000000000000000000000000000000614d43565b6001600160a01b038116600090815260cd602052604090205460ff16156131645760405163d005ce4760e01b81526001600160a01b0382166004820152602401610aa0565b806001600160a01b0316633d9ea3a16040518163ffffffff1660e01b8152600401602060405180830381865afa1580156131a2573d6000803e3d6000fd5b505050506040513d601f19601f820116820180604052508101906131c6919061585f565b6132125760405162461bcd60e51b815260206004820152601b60248201527f436f6d7074726f6c6c65723a20496e76616c69642076546f6b656e00000000006044820152606401610aa0565b6001600160a01b038116600090815260cd60205260408120805460ff1916600190811782558101829055600281019190915561324d82614d70565b60d35460005b818110156132e75760d3818154811061326e5761326e615756565b600091825260209091200154604051632a869a4d60e01b81526001600160a01b03868116600483015290911690632a869a4d90602401600060405180830381600087803b1580156132be57600080fd5b505af11580156132d2573d6000803e3d6000fd5b50505050806132e090615782565b9050613253565b506040516001600160a01b03841681527faf16ad15f9e29d5140e8e81a30a92a755aa8edff3d301053c84392b70c0d09a3906020015b60405180910390a1505050565b61334b604051806060016040528060288152602001615b25602891396143ae565b8260008190036133995760405162461bcd60e51b8152602060048201526019602482015278696e76616c6964206e756d626572206f66206d61726b65747360381b6044820152606401610aa0565b8082146133e45760405162461bcd60e51b8152602060048201526019602482015278696e76616c6964206e756d626572206f66206d61726b65747360381b6044820152606401610aa0565b6133ed8161444c565b60005b8181101561171c5783838281811061340a5761340a615756565b9050602002013560d1600088888581811061342757613427615756565b905060200201602081019061343c9190614fa0565b6001600160a01b0316815260208101919091526040016000205585858281811061346857613468615756565b905060200201602081019061347d9190614fa0565b6001600160a01b03167f9e0ad9cee10bdf36b7fbd38910c0bdff0f275ace679b45b922381c2723d676f88585848181106134b9576134b9615756565b905060200201356040516134cf91815260200190565b60405180910390a26134e081615782565b90506133f0565b600054610100900460ff16158080156135075750600054600160ff909116105b806135215750303b158015613521575060005460ff166001145b6135845760405162461bcd60e51b815260206004820152602e60248201527f496e697469616c697a61626c653a20636f6e747261637420697320616c72656160448201526d191e481a5b9a5d1a585b1a5e995960921b6064820152608401610aa0565b6000805460ff1916600117905580156135a7576000805461ff0019166101001790555b6135af614e3f565b6135b882614e6e565b6135c183614a5a565b8015611c25576000805461ff0019169055604051600181527f7f26b83ff96e1f2b6a682f133852f6798a09c465da95921460cefb38474024989060200161331d565b60cc602052816000526040600020818154811061361f57600080fd5b6000918252602090912001546001600160a01b03169150829050565b6136448261496c565b33600090815260d7602090815260408083206001600160a01b038616845290915290205481151560ff9091161515036136905760405163db6c2c8360e01b815260040160405180910390fd5b33600081815260d7602090815260408083206001600160a01b03871680855290835292819020805460ff191686151590811790915590519081529192917fcb325b7784f78486e42849c7a50b8c5ee008d00cd90e108a58912c0fcb6288b4910160405180910390a35050565b61370783600261447f565b6001600160a01b038316600090815260cd602052604090205460ff1661374b57604051635a9a1eb960e11b81526001600160a01b0384166004820152602401610aa0565b6001600160a01b03808416600090815260cd60209081526040808320938616835260039093019052205460ff1661378f5761378583614d43565b61378f3383614ba2565b61379882611a8f565b60c95460405163fc57d4df60e01b81526001600160a01b0385811660048301529091169063fc57d4df90602401602060405180830381865afa1580156137e2573d6000803e3d6000fd5b505050506040513d601f19601f820116820180604052508101906138069190615846565b6000036138305760405162e52a7d60e41b81526001600160a01b0384166004820152602401610aa0565b6001600160a01b038316600090815260cf6020526040902054600019811461396e576000846001600160a01b03166347bd37186040518163ffffffff1660e01b8152600401602060405180830381865afa158015613892573d6000803e3d6000fd5b505050506040513d601f19601f820116820180604052508101906138b69190615846565b90506000856001600160a01b031663bbcac5576040518163ffffffff1660e01b8152600401602060405180830381865afa1580156138f8573d6000803e3d6000fd5b505050506040513d601f19601f8201168201806040525081019061391c9190615846565b905060008161392b868561582e565b613935919061582e565b90508381111561396a57604051632e649eed60e01b81526001600160a01b038816600482015260248101859052604401610aa0565b5050505b60006139808486600086614703614737565b60a0810151909150156139a65760405163bb55fd2760e01b815260040160405180910390fd5b60006040518060200160405280876001600160a01b031663aa5af0fd6040518163ffffffff1660e01b8152600401602060405180830381865afa1580156139f1573d6000803e3d6000fd5b505050506040513d601f19601f82011682018060405250810190613a159190615846565b905260d35490915060005b818110156111e557600060d38281548110613a3d57613a3d615756565b600091825260209091200154604051632352607960e01b81526001600160a01b038b811660048301528651602483015290911691508190632352607990604401600060405180830381600087803b158015613a9757600080fd5b505af1158015613aab573d6000803e3d6000fd5b5050604051636a95ddef60e01b81526001600160a01b038c811660048301528b811660248301528751604483015284169250636a95ddef9150606401600060405180830381600087803b158015613b0157600080fd5b505af1158015613b15573d6000803e3d6000fd5b505050505080613b2490615782565b9050613a20565b6001600160a01b038216600090815260d26020526040812081836008811115613b5657613b5661587c565b6008811115613b6757613b6761587c565b815260208101919091526040016000205460ff169392505050565b613b8d85600561447f565b613b9683611a8f565b6001600160a01b038516600090815260cd602052604090205460ff16613bda57604051635a9a1eb960e11b81526001600160a01b0386166004820152602401610aa0565b6001600160a01b038416600090815260cd602052604090205460ff16613c1e57604051635a9a1eb960e11b81526001600160a01b0385166004820152602401610aa0565b6040516395dd919360e01b81526001600160a01b038481166004830152600091908716906395dd919390602401602060405180830381865afa158015613c68573d6000803e3d6000fd5b505050506040513d601f19601f82011682018060405250810190613c8c9190615846565b90508180613cb257506001600160a01b038616600090815260d5602052604090205460ff165b15613cde5780831115613cd85760405163e46c155960e01b815260040160405180910390fd5b5061111b565b6000613cec856145b96145ed565b905060d054816000015111613d225760d0548151604051636e61bb0560e11b815260048101929092526024820152604401610aa0565b8060a00151600003613d475760405163095bf33360e01b815260040160405180910390fd5b6000613d63604051806020016040528060ca548152508461463c565b9050808511156111e55760405163e46c155960e01b815260040160405180910390fd5b613d9182600361447f565b60c9546040516396e85ced60e01b81526001600160a01b038481166004830152909116906396e85ced90602401600060405180830381600087803b158015613dd857600080fd5b505af1158015613dec573d6000803e3d6000fd5b505050506001600160a01b038216600090815260cd602052604090205460ff16613e3457604051635a9a1eb960e11b81526001600160a01b0383166004820152602401610aa0565b60d35460005b8181101561163c5760006040518060200160405280866001600160a01b031663aa5af0fd6040518163ffffffff1660e01b8152600401602060405180830381865afa158015613e8d573d6000803e3d6000fd5b505050506040513d601f19601f82011682018060405250810190613eb19190615846565b8152509050600060d38381548110613ecb57613ecb615756565b600091825260209091200154604051632352607960e01b81526001600160a01b0388811660048301528451602483015290911691508190632352607990604401600060405180830381600087803b158015613f2557600080fd5b505af1158015613f39573d6000803e3d6000fd5b5050604051636a95ddef60e01b81526001600160a01b03898116600483015288811660248301528551604483015284169250636a95ddef9150606401600060405180830381600087803b158015613f8f57600080fd5b505af1158015613fa3573d6000803e3d6000fd5b50505050505080613fb390615782565b9050613e3a565b6000613fc782600861447f565b81600080613fd5833361465c565b509150915080600014613ffb5760405163f8a5d66d60e01b815260040160405180910390fd5b614006853384614993565b6001600160a01b038316600090815260cd60209081526040808320338452600381019092529091205460ff166140425750600095945050505050565b3360009081526003820160209081526040808320805460ff1916905560cc8252808320805482518185028101850190935280835291929091908301828280156140b457602002820191906000526020600020905b81546001600160a01b03168152600190910190602001808311614096575b5050835193945083925060009150505b8281101561411657876001600160a01b03168482815181106140e8576140e8615756565b60200260200101516001600160a01b03160361410657809150614116565b61410f81615782565b90506140c4565b5081811061412657614126615892565b33600090815260cc6020526040902080548190614145906001906158a8565b8154811061415557614155615756565b9060005260206000200160009054906101000a90046001600160a01b031681838154811061418557614185615756565b9060005260206000200160006101000a8154816001600160a01b0302191690836001600160a01b03160217905550808054806141c3576141c36158bf565b600082815260208120820160001990810180546001600160a01b031916905590910190915560405133916001600160a01b038b16917fe699a64c18b07ac5b7301aa273f36a2287239eb9501d81950672794afba29a0d9190a35060009998505050505050505050565b61423461429d565b606580546001600160a01b0383166001600160a01b031990911681179091556142656033546001600160a01b031690565b6001600160a01b03167f38d16b8cac22d99fc7c124b9cd0de2d3fa1faef420bfe791d8c362d765e2270060405160405180910390a350565b6033546001600160a01b031633146121b05760405162461bcd60e51b815260206004820181905260248201527f4f776e61626c653a2063616c6c6572206973206e6f7420746865206f776e65726044820152606401610aa0565b6001600160a01b03811661435b5760405162461bcd60e51b815260206004820152602560248201527f696e76616c696420616365737320636f6e74726f6c206d616e61676572206164604482015264647265737360d81b6064820152608401610aa0565b609780546001600160a01b038381166001600160a01b03198316179092556040519116907f66fd58e82f7b31a2a5c30e0888f3093efe4e111b00cd2b0c31fe014601293aa090610b5190839085906157b8565b6097546040516318c5e8ab60e01b81526000916001600160a01b0316906318c5e8ab906143e19033908690600401615922565b602060405180830381865afa1580156143fe573d6000803e3d6000fd5b505050506040513d601f19601f82011682018060405250810190614422919061585f565b90508061444857333083604051634a3fa29360e01b8152600401610aa093929190615946565b5050565b610107548111156109f4576101075460405163792bfb1b60e11b8152600481019190915260248101829052604401610aa0565b6144898282613b2b565b156144485781816040516313b3ccb160e31b8152600401610aa0929190615994565b6001600160a01b038316600090815260cd602052604090205460ff166145245760405162461bcd60e51b815260206004820152602860248201527f63616e6e6f742070617573652061206d61726b65742074686174206973206e6f6044820152671d081b1a5cdd195960c21b6064820152608401610aa0565b6001600160a01b038316600090815260d26020526040812082918460088111156145505761455061587c565b60088111156145615761456161587c565b815260200190815260200160002060006101000a81548160ff0219169083151502179055507f35007a986bcd36d2f73fc7f1b73762e12eadb4406dd163194950fd3b5a6a827d83838360405161331d939291906159b1565b6040805160208082018352600091829052825180820184526001600160a01b0394909416825260cd90522060020154815290565b6146266040518060c001604052806000815260200160008152602001600081526020016000815260200160008152602001600081525090565b61463583600080600086614737565b9392505050565b6000806146498484614e95565b905061465481614ebd565b949350505050565b6040516361bfb47160e11b81526001600160a01b03828116600483015260009182918291829187169063c37f68e290602401608060405180830381865afa1580156146ab573d6000803e3d6000fd5b505050506040513d601f19601f820116820180604052508101906146cf91906159de565b91965094509250905080156146fb57858560405163015e34d960e61b8152600401610aa09291906157b8565b509250925092565b6040805160208082018352600091829052825180820184526001600160a01b0394909416825260cd90522060010154815290565b6147706040518060c001604052806000815260200160008152602001600081526020016000815260200160008152602001600081525090565b6001600160a01b038616600090815260cc60209081526040808320805482518185028101850190935280835291929091908301828280156147da57602002820191906000526020600020905b81546001600160a01b031681526001909101906020018083116147bc575b505083519394506000925050505b8181101561490e57600083828151811061480457614804615756565b60200260200101519050600080600061481d848e61465c565b9250925092506000604051806020016040528061483987614c9e565b8152509050600061485860405180602001604052808581525083614af6565b9050600061487261486c888e63ffffffff16565b83614af6565b905061488381878d60200151614b78565b60208c01528a516148979083908890614b78565b8b5260408b01516148ab9084908790614b78565b8b60400181815250508e6001600160a01b0316876001600160a01b0316036148f6576148dc818f8d60600151614b78565b60608c018190526148f09084908f90614b78565b60608c01525b505050505050508061490790615782565b90506147e8565b50600083606001518460400151614925919061582e565b9050808460200151111561494c5760208401518190036080850152600060a0850152614960565b600060808501526020840151810360a08501525b50505095945050505050565b6001600160a01b0381166109f4576040516342bcdf7f60e11b815260040160405180910390fd5b6001600160a01b038316600090815260cd60205260409020805460ff166149d857604051635a9a1eb960e11b81526001600160a01b0385166004820152602401610aa0565b6001600160a01b038316600090815260038201602052604090205460ff16614a005750505050565b614a0983611a8f565b6000614a1b8486856000614703614737565b60a08101519091501561111b5760405163bb55fd2760e01b815260040160405180910390fd5b606580546001600160a01b03191690556109f481614ed5565b610107548111614ab75760405162461bcd60e51b815260206004820152602260248201527f436f6d7074726f6c6c65723a20496e76616c6964206d61784c6f6f70734c696d6044820152611a5d60f21b6064820152608401610aa0565b61010780549082905560408051828152602081018490527fc2d09fef144f7c8a86f71ea459f8fc17f675768eb1ae369cbd77fb31d467aafa9101610b51565b6040805160208101909152600081526040518060200160405280670de0b6b3a7640000614b2b86600001518660000151614f27565b614b35919061580c565b90529392505050565b6040805160208101909152600081526040518060200160405280614b35614b718660000151670de0b6b3a7640000614f27565b8551614f33565b600080614b858585614e95565b9050614b99614b9382614ebd565b84614f3f565b95945050505050565b614bad82600761447f565b6001600160a01b038216600090815260cd60205260409020805460ff16614bf257604051635a9a1eb960e11b81526001600160a01b0384166004820152602401610aa0565b6001600160a01b038216600090815260038201602052604090205460ff1615614c1a57505050565b6001600160a01b0380831660008181526003840160209081526040808320805460ff1916600190811790915560cc835281842080549182018155845291832090910180549488166001600160a01b031990951685179055519192917f3ab23ab0d51cccc0c3085aec51f99228625aa1a922b3a8ca89a26b0f2027a1a59190a3505050565b60c95460405163fc57d4df60e01b81526001600160a01b038381166004830152600092839291169063fc57d4df90602401602060405180830381865afa158015614cec573d6000803e3d6000fd5b505050506040513d601f19601f82011682018060405250810190614d109190615846565b905080600003614d3d5760405162e52a7d60e41b81526001600160a01b0384166004820152602401610aa0565b92915050565b336001600160a01b038216146109f4578033604051634e9383fb60e11b8152600401610aa09291906157b8565b60ce5460005b81811015614de957826001600160a01b031660ce8281548110614d9b57614d9b615756565b6000918252602090912001546001600160a01b031603614dd95760405163d005ce4760e01b81526001600160a01b0384166004820152602401610aa0565b614de281615782565b9050614d76565b505060ce805460018101825560008290527fd36cd1c74ef8d7326d8021b776c18fb5a5724b7f7bc93c2f42e43e10ef27d12a0180546001600160a01b0319166001600160a01b038416179055546144488161444c565b600054610100900460ff16614e665760405162461bcd60e51b8152600401610aa090615a14565b6121b0614f4b565b600054610100900460ff166109eb5760405162461bcd60e51b8152600401610aa090615a14565b6040805160208101909152600081526040518060200160405280614b35856000015185614f27565b8051600090614d3d90670de0b6b3a76400009061580c565b603380546001600160a01b038381166001600160a01b0319831681179093556040519116919082907f8be0079c531659141344cd1fd0a4f28419497f9722a3daafe3b4186f6b6457e090600090a35050565b600061463582846157d2565b6000614635828461580c565b6000614635828461582e565b600054610100900460ff16614f725760405162461bcd60e51b8152600401610aa090615a14565b6121b033614a41565b6001600160a01b03811681146109f457600080fd5b8035614f9b81614f7b565b919050565b600060208284031215614fb257600080fd5b813561463581614f7b565b60008060408385031215614fd057600080fd5b8235614fdb81614f7b565b91506020830135614feb81614f7b565b809150509250929050565b60006020828403121561500857600080fd5b5035919050565b60008083601f84011261502157600080fd5b50813567ffffffffffffffff81111561503957600080fd5b6020830191508360208260051b850101111561505457600080fd5b9250929050565b6000806000806040858703121561507157600080fd5b843567ffffffffffffffff8082111561508957600080fd5b6150958883890161500f565b909650945060208701359150808211156150ae57600080fd5b506150bb8782880161500f565b95989497509550505050565b600080600080608085870312156150dd57600080fd5b84356150e881614f7b565b935060208501356150f881614f7b565b9250604085013561510881614f7b565b9150606085013561511881614f7b565b939692955090935050565b600080600080600060a0868803121561513b57600080fd5b853561514681614f7b565b9450602086013561515681614f7b565b9350604086013561516681614f7b565b94979396509394606081013594506080013592915050565b80151581146109f457600080fd5b6000806000806000606086880312156151a457600080fd5b853567ffffffffffffffff808211156151bc57600080fd5b6151c889838a0161500f565b909750955060208801359150808211156151e157600080fd5b506151ee8882890161500f565b90945092505060408601356152028161517e565b809150509295509295909350565b60008060006040848603121561522557600080fd5b833561523081614f7b565b9250602084013567ffffffffffffffff8082111561524d57600080fd5b818601915086601f83011261526157600080fd5b81358181111561527057600080fd5b87602060608302850101111561528557600080fd5b6020830194508093505050509250925092565b600080600080608085870312156152ae57600080fd5b84356152b981614f7b565b935060208501356152c981614f7b565b93969395505050506040820135916060013590565b60008060008060008060c087890312156152f757600080fd5b863561530281614f7b565b9550602087013561531281614f7b565b9450604087013561532281614f7b565b9350606087013561533281614f7b565b9598949750929560808101359460a0909101359350915050565b60008060006060848603121561536157600080fd5b833561536c81614f7b565b9250602084013561537c81614f7b565b929592945050506040919091013590565b6000806000606084860312156153a257600080fd5b83356153ad81614f7b565b95602085013595506040909401359392505050565b6020808252825182820181905260009190848201906040850190845b818110156154035783516001600160a01b0316835292840192918401916001016153de565b50909695505050505050565b6000806000806080858703121561542557600080fd5b843561543081614f7b565b9350602085013561544081614f7b565b9250604085013561545081614f7b565b9396929550929360600135925050565b600080600080600060a0868803121561547857600080fd5b853561548381614f7b565b9450602086013561549381614f7b565b935060408601356154a381614f7b565b925060608601356154b381614f7b565b949793965091946080013592915050565b600080604083850312156154d757600080fd5b82356154e281614f7b565b91506020830135614feb8161517e565b602080825282518282018190526000919060409081850190868401855b8281101561554757815180516001600160a01b031685528681015187860152850151858501526060909301929085019060010161550f565b5091979650505050505050565b634e487b7160e01b600052604160045260246000fd5b6000602080838503121561557d57600080fd5b823567ffffffffffffffff8082111561559557600080fd5b818501915085601f8301126155a957600080fd5b8135818111156155bb576155bb615554565b8060051b604051601f19603f830116810181811085821117156155e0576155e0615554565b6040529182528482019250838101850191888311156155fe57600080fd5b938501935b828510156156235761561485614f90565b84529385019392850192615603565b98975050505050505050565b6020808252825182820181905260009190848201906040850190845b818110156154035783518352928401929184019160010161564b565b6000806040838503121561567a57600080fd5b823591506020830135614feb81614f7b565b6000806040838503121561569f57600080fd5b82356156aa81614f7b565b946020939093013593505050565b803560098110614f9b57600080fd5b600080604083850312156156da57600080fd5b82356156e581614f7b565b91506156f3602084016156b8565b90509250929050565b600080600080600060a0868803121561571457600080fd5b853561571f81614f7b565b9450602086013561572f81614f7b565b9350604086013561573f81614f7b565b92506060860135915060808601356152028161517e565b634e487b7160e01b600052603260045260246000fd5b634e487b7160e01b600052601160045260246000fd5b6000600182016157945761579461576c565b5060010190565b6000602082840312156157ad57600080fd5b815161463581614f7b565b6001600160a01b0392831681529116602082015260400190565b60008160001904831182151516156157ec576157ec61576c565b500290565b60006020828403121561580357600080fd5b614635826156b8565b60008261582957634e487b7160e01b600052601260045260246000fd5b500490565b600082198211156158415761584161576c565b500190565b60006020828403121561585857600080fd5b5051919050565b60006020828403121561587157600080fd5b81516146358161517e565b634e487b7160e01b600052602160045260246000fd5b634e487b7160e01b600052600160045260246000fd5b6000828210156158ba576158ba61576c565b500390565b634e487b7160e01b600052603160045260246000fd5b6000815180845260005b818110156158fb576020818501810151868301820152016158df565b8181111561590d576000602083870101525b50601f01601f19169290920160200192915050565b6001600160a01b0383168152604060208201819052600090614654908301846158d5565b6001600160a01b03848116825283166020820152606060408201819052600090614b99908301846158d5565b6009811061599057634e487b7160e01b600052602160045260246000fd5b9052565b6001600160a01b0383168152604081016146356020830184615972565b6001600160a01b0384168152606081016159ce6020830185615972565b8215156040830152949350505050565b600080600080608085870312156159f457600080fd5b505082516020840151604085015160609095015191969095509092509050565b6020808252602b908201527f496e697469616c697a61626c653a20636f6e7472616374206973206e6f74206960408201526a6e697469616c697a696e6760a81b60608201526080019056fe7365744d61726b6574426f72726f774361707328616464726573735b5d2c75696e743235365b5d297365744d696e4c6971756964617461626c65436f6c6c61746572616c2875696e7432353629736574436f6c6c61746572616c466163746f7228616464726573732c75696e743235362c75696e7432353629736574416374696f6e7350617573656428616464726573735b5d2c75696e743235365b5d2c626f6f6c29736574466f726365644c69717569646174696f6e28616464726573732c626f6f6c297365744d61726b6574537570706c794361707328616464726573735b5d2c75696e743235365b5d29a2646970667358221220e6d4adc7713d33e8b8936f653938ae79a90f583b2c09c5db42a191b4f3b748d664736f6c634300080d0033",
  "devdoc": {
    "author": "Venus",
    "kind": "dev",
    "methods": {
      "acceptOwnership()": {
        "details": "The new owner accepts the ownership transfer."
      },
      "actionPaused(address,uint8)": {
        "params": {
          "action": "Action to check",
          "market": "vToken address"
        },
        "returns": {
          "_0": "paused True if the action is paused otherwise false"
        }
      },
      "addRewardsDistributor(address)": {
        "custom:access": "Only Governance",
        "custom:event": "Emits NewRewardsDistributor with distributor address",
        "details": "Only callable by the admin",
        "params": {
          "_rewardsDistributor": "Address of the RewardDistributor contract to add"
        }
      },
      "borrowVerify(address,address,uint256)": {
        "params": {
          "borrowAmount": "The amount of the underlying asset requested to borrow",
          "borrower": "The address borrowing the underlying",
          "vToken": "Asset whose underlying is being borrowed"
        }
      },
      "checkMembership(address,address)": {
        "params": {
          "account": "The address of the account to check",
          "vToken": "The vToken to check"
        },
        "returns": {
          "_0": "True if the account is in the market specified, otherwise false."
        }
      },
      "constructor": {
        "custom:error": "ZeroAddressNotAllowed is thrown when pool registry address is zero",
        "custom:oz-upgrades-unsafe-allow": "constructor",
        "params": {
          "poolRegistry_": "Pool registry address"
        }
      },
      "enterMarkets(address[])": {
        "custom:access": "Not restricted",
        "custom:error": "ActionPaused error is thrown if entering any of the markets is pausedMarketNotListed error is thrown if any of the markets is not listed",
        "custom:event": "MarketEntered is emitted for each market on success",
        "params": {
          "vTokens": "The list of addresses of the vToken markets to be enabled"
        },
        "returns": {
          "_0": "errors An array of NO_ERROR for compatibility with Venus core tooling"
        }
      },
      "exitMarket(address)": {
        "custom:access": "Not restricted",
        "custom:error": "ActionPaused error is thrown if exiting the market is pausedNonzeroBorrowBalance error is thrown if the user has an outstanding borrow in this marketMarketNotListed error is thrown when the market is not listedInsufficientLiquidity error is thrown if exiting the market would lead to user's insolvencySnapshotError is thrown if some vToken fails to return the account's supply and borrowsPriceError is thrown if the oracle returns an incorrect price for some asset",
        "custom:event": "MarketExited is emitted on success",
        "details": "Sender must not have an outstanding borrow balance in the asset,  or be providing necessary collateral for an outstanding borrow.",
        "params": {
          "vTokenAddress": "The address of the asset to be removed"
        },
        "returns": {
          "_0": "error Always NO_ERROR for compatibility with Venus core tooling"
        }
      },
      "getAccountLiquidity(address)": {
        "details": "The interface of this function is intentionally kept compatible with Compound and Venus Core",
        "params": {
          "account": "The account get liquidity for"
        },
        "returns": {
          "error": "Always NO_ERROR for compatibility with Venus core tooling",
          "liquidity": "Account liquidity in excess of liquidation threshold requirements,",
          "shortfall": "Account shortfall below liquidation threshold requirements"
        }
      },
      "getAllMarkets()": {
        "details": "The automatic getter may be used to access an individual market.",
        "returns": {
          "_0": "markets The list of market addresses"
        }
      },
      "getAssetsIn(address)": {
        "params": {
          "account": "The address of the account to pull assets for"
        },
        "returns": {
          "_0": "A list with the assets the account has entered"
        }
      },
      "getBorrowingPower(address)": {
        "details": "The interface of this function is intentionally kept compatible with Compound and Venus Core",
        "params": {
          "account": "The account get liquidity for"
        },
        "returns": {
          "error": "Always NO_ERROR for compatibility with Venus core tooling",
          "liquidity": "Account liquidity in excess of collateral requirements,",
          "shortfall": "Account shortfall below collateral requirements"
        }
      },
      "getHypotheticalAccountLiquidity(address,address,uint256,uint256)": {
        "details": "The interface of this function is intentionally kept compatible with Compound and Venus Core",
        "params": {
          "account": "The account to determine liquidity for",
          "borrowAmount": "The amount of underlying to hypothetically borrow",
          "redeemTokens": "The number of tokens to hypothetically redeem",
          "vTokenModify": "The market to hypothetically redeem/borrow in"
        },
        "returns": {
          "error": "Always NO_ERROR for compatibility with Venus core tooling",
          "liquidity": "Hypothetical account liquidity in excess of collateral requirements,",
          "shortfall": "Hypothetical account shortfall below collateral requirements"
        }
      },
      "getRewardDistributors()": {
        "returns": {
          "_0": "Array of RewardDistributor addresses"
        }
      },
      "getRewardsByMarket(address)": {
        "params": {
          "vToken": "The vToken to get the reward speeds for"
        },
        "returns": {
          "rewardSpeeds": "Array of total supply and borrow speeds and reward token for all reward distributors"
        }
      },
      "healAccount(address)": {
        "custom:access": "Not restricted",
        "custom:error": "CollateralExceedsThreshold error is thrown when the collateral is too big for healingSnapshotError is thrown if some vToken fails to return the account's supply and borrowsPriceError is thrown if the oracle returns an incorrect price for some asset",
        "params": {
          "user": "account to heal"
        }
      },
      "initialize(uint256,address)": {
        "params": {
          "accessControlManager": "Access control manager contract address",
          "loopLimit": "Limit for the loops can iterate to avoid the DOS"
        }
      },
      "isComptroller()": {
        "returns": {
          "_0": "Always true"
        }
      },
      "isMarketListed(address)": {
        "params": {
          "vToken": "vToken Address for the market to check"
        },
        "returns": {
          "_0": "listed True if listed otherwise false"
        }
      },
      "liquidateAccount(address,(address,address,uint256)[])": {
        "custom:access": "Not restricted",
        "custom:error": "CollateralExceedsThreshold error is thrown when the collateral is too big for a batch liquidationInsufficientCollateral error is thrown when there is not enough collateral to cover the debtSnapshotError is thrown if some vToken fails to return the account's supply and borrowsPriceError is thrown if the oracle returns an incorrect price for some asset",
        "params": {
          "borrower": "the borrower address",
          "orders": "an array of liquidation orders"
        }
      },
      "liquidateBorrowVerify(address,address,address,address,uint256,uint256)": {
        "params": {
          "actualRepayAmount": "The amount of underlying being repaid",
          "borrower": "The address of the borrower",
          "liquidator": "The address repaying the borrow and seizing the collateral",
          "seizeTokens": "The amount of collateral token that will be seized",
          "vTokenBorrowed": "Asset which was borrowed by the borrower",
          "vTokenCollateral": "Asset which was used as collateral and will be seized"
        }
      },
      "liquidateCalculateSeizeTokens(address,address,uint256)": {
        "custom:error": "PriceError if the oracle returns an invalid price",
        "details": "Used in liquidation (called in vToken.liquidateBorrowFresh)",
        "params": {
          "actualRepayAmount": "The amount of vTokenBorrowed underlying to convert into vTokenCollateral tokens",
          "vTokenBorrowed": "The address of the borrowed vToken",
          "vTokenCollateral": "The address of the collateral vToken"
        },
        "returns": {
          "error": "Always NO_ERROR for compatibility with Venus core tooling",
          "tokensToSeize": "Number of vTokenCollateral tokens to be seized in a liquidation"
        }
      },
      "mintVerify(address,address,uint256,uint256)": {
        "params": {
          "actualMintAmount": "The amount of the underlying asset being minted",
          "mintTokens": "The number of tokens being minted",
          "minter": "The address minting the tokens",
          "vToken": "Asset being minted"
        }
      },
      "owner()": {
        "details": "Returns the address of the current owner."
      },
      "pendingOwner()": {
        "details": "Returns the address of the pending owner."
      },
      "preLiquidateHook(address,address,address,uint256,bool)": {
        "custom:error": "ActionPaused error is thrown if liquidations are paused in this marketMarketNotListed error is thrown if either collateral or borrowed token is not listedTooMuchRepay error is thrown if the liquidator is trying to repay more than allowed by close factorMinimalCollateralViolated is thrown if the users' total collateral is lower than the threshold for non-batch liquidationsInsufficientShortfall is thrown when trying to liquidate a healthy accountSnapshotError is thrown if some vToken fails to return the account's supply and borrowsPriceError is thrown if the oracle returns an incorrect price for some asset",
        "params": {
          "borrower": "The address of the borrower",
          "repayAmount": "The amount of underlying being repaid",
          "skipLiquidityCheck": "Allows the borrow to be liquidated regardless of the account liquidity",
          "vTokenBorrowed": "Asset which was borrowed by the borrower",
          "vTokenCollateral": "Asset which was used as collateral and will be seized"
        }
      },
      "preMintHook(address,address,uint256)": {
        "custom:access": "Not restricted",
        "custom:error": "ActionPaused error is thrown if supplying to this market is pausedMarketNotListed error is thrown when the market is not listedSupplyCapExceeded error is thrown if the total supply exceeds the cap after minting",
        "params": {
          "mintAmount": "The amount of underlying being supplied to the market in exchange for tokens",
          "minter": "The account which would get the minted tokens",
          "vToken": "The market to verify the mint against"
        }
      },
      "preRedeemHook(address,address,uint256)": {
        "custom:access": "Not restricted",
        "custom:error": "ActionPaused error is thrown if withdrawals are paused in this marketMarketNotListed error is thrown when the market is not listedInsufficientLiquidity error is thrown if the withdrawal would lead to user's insolvencySnapshotError is thrown if some vToken fails to return the account's supply and borrowsPriceError is thrown if the oracle returns an incorrect price for some asset",
        "params": {
          "redeemTokens": "The number of vTokens to exchange for the underlying asset in the market",
          "redeemer": "The account which would redeem the tokens",
          "vToken": "The market to verify the redeem against"
        }
      },
      "preRepayHook(address,address)": {
        "custom:access": "Not restricted",
        "custom:error": "ActionPaused error is thrown if repayments are paused in this marketMarketNotListed error is thrown when the market is not listed",
        "params": {
          "borrower": "The account which would borrowed the asset",
          "vToken": "The market to verify the repay against"
        }
      },
      "preSeizeHook(address,address,address,address)": {
        "custom:access": "Not restricted",
        "custom:error": "ActionPaused error is thrown if seizing this type of collateral is pausedMarketNotListed error is thrown if either collateral or borrowed token is not listedComptrollerMismatch error is when seizer contract or seized asset belong to different pools",
        "params": {
          "borrower": "The address of the borrower",
          "liquidator": "The address repaying the borrow and seizing the collateral",
          "seizerContract": "Contract that tries to seize the asset (either borrowed vToken or Comptroller)",
          "vTokenCollateral": "Asset which was used as collateral and will be seized"
        }
      },
      "preTransferHook(address,address,address,uint256)": {
        "custom:access": "Not restricted",
        "custom:error": "ActionPaused error is thrown if withdrawals are paused in this marketMarketNotListed error is thrown when the market is not listedInsufficientLiquidity error is thrown if the withdrawal would lead to user's insolvencySnapshotError is thrown if some vToken fails to return the account's supply and borrowsPriceError is thrown if the oracle returns an incorrect price for some asset",
        "params": {
          "dst": "The account which receives the tokens",
          "src": "The account which sources the tokens",
          "transferTokens": "The number of vTokens to transfer",
          "vToken": "The market to verify the transfer against"
        }
      },
      "redeemVerify(address,address,uint256,uint256)": {
        "params": {
          "redeemAmount": "The amount of the underlying asset being redeemed",
          "redeemTokens": "The number of tokens being redeemed",
          "redeemer": "The address redeeming the tokens",
          "vToken": "Asset being redeemed"
        }
      },
      "renounceOwnership()": {
        "details": "Leaves the contract without owner. It will not be possible to call `onlyOwner` functions. Can only be called by the current owner. NOTE: Renouncing ownership will leave the contract without an owner, thereby disabling any functionality that is only available to the owner."
      },
      "repayBorrowVerify(address,address,address,uint256,uint256)": {
        "params": {
          "actualRepayAmount": "The amount of underlying being repaid",
          "borrower": "The address of the borrower",
          "payer": "The address repaying the borrow",
          "vToken": "Asset being repaid"
        }
      },
      "seizeVerify(address,address,address,address,uint256)": {
        "params": {
          "borrower": "The address of the borrower",
          "liquidator": "The address repaying the borrow and seizing the collateral",
          "seizeTokens": "The number of collateral tokens to seize",
          "vTokenBorrowed": "Asset which was borrowed by the borrower",
          "vTokenCollateral": "Asset which was used as collateral and will be seized"
        }
      },
      "setAccessControlManager(address)": {
        "custom:access": "Only Governance",
        "custom:event": "Emits NewAccessControlManager event",
        "details": "Admin function to set address of AccessControlManager",
        "params": {
          "accessControlManager_": "The new address of the AccessControlManager"
        }
      },
      "setActionsPaused(address[],uint8[],bool)": {
        "custom:access": "Controlled by AccessControlManager",
        "details": "This function is restricted by the AccessControlManager",
        "params": {
          "actionsList": "List of action ids to pause/unpause",
          "marketsList": "Markets to pause/unpause the actions on",
          "paused": "The new paused state (true=paused, false=unpaused)"
        }
      },
      "setCloseFactor(uint256)": {
        "custom:access": "Controlled by AccessControlManager",
        "custom:event": "Emits NewCloseFactor on success",
        "params": {
          "newCloseFactorMantissa": "New close factor, scaled by 1e18"
        }
      },
      "setCollateralFactor(address,uint256,uint256)": {
        "custom:access": "Controlled by AccessControlManager",
        "custom:error": "MarketNotListed error is thrown when the market is not listedInvalidCollateralFactor error is thrown when collateral factor is too highInvalidLiquidationThreshold error is thrown when liquidation threshold is lower than collateral factorPriceError is thrown when the oracle returns an invalid price for the asset",
        "custom:event": "Emits NewCollateralFactor when collateral factor is updated    and NewLiquidationThreshold when liquidation threshold is updated",
        "details": "This function is restricted by the AccessControlManager",
        "params": {
          "newCollateralFactorMantissa": "The new collateral factor, scaled by 1e18",
          "newLiquidationThresholdMantissa": "The new liquidation threshold, scaled by 1e18",
          "vToken": "The market to set the factor on"
        }
      },
      "setForcedLiquidation(address,bool)": {
        "params": {
          "enable": "Whether to enable forced liquidations",
          "vTokenBorrowed": "Borrowed vToken"
        }
      },
      "setLiquidationIncentive(uint256)": {
        "custom:access": "Controlled by AccessControlManager",
        "custom:event": "Emits NewLiquidationIncentive on success",
        "details": "This function is restricted by the AccessControlManager",
        "params": {
          "newLiquidationIncentiveMantissa": "New liquidationIncentive scaled by 1e18"
        }
      },
      "setMarketBorrowCaps(address[],uint256[])": {
        "custom:access": "Controlled by AccessControlManager",
        "details": "This function is restricted by the AccessControlManagerA borrow cap of type(uint256).max corresponds to unlimited borrowing.Borrow caps smaller than the current total borrows are accepted. This way, new borrows will not be allowed until the total borrows amount goes below the new borrow cap",
        "params": {
          "newBorrowCaps": "The new borrow cap values in underlying to be set. A value of type(uint256).max corresponds to unlimited borrowing.",
          "vTokens": "The addresses of the markets (tokens) to change the borrow caps for"
        }
      },
      "setMarketSupplyCaps(address[],uint256[])": {
        "custom:access": "Controlled by AccessControlManager",
        "details": "This function is restricted by the AccessControlManagerA supply cap of type(uint256).max corresponds to unlimited supply.Supply caps smaller than the current total supplies are accepted. This way, new supplies will not be allowed until the total supplies amount goes below the new supply cap",
        "params": {
          "newSupplyCaps": "The new supply cap values in underlying to be set. A value of type(uint256).max corresponds to unlimited supply.",
          "vTokens": "The addresses of the markets (tokens) to change the supply caps for"
        }
      },
      "setMaxLoopsLimit(uint256)": {
        "params": {
          "limit": "Limit for the max loops can execute at a time"
        }
      },
      "setMinLiquidatableCollateral(uint256)": {
        "custom:access": "Controlled by AccessControlManager",
        "details": "This function is restricted by the AccessControlManager",
        "params": {
          "newMinLiquidatableCollateral": "The new min liquidatable collateral (in USD)."
        }
      },
      "setPriceOracle(address)": {
        "custom:error": "ZeroAddressNotAllowed is thrown when the new oracle address is zero",
        "custom:event": "Emits NewPriceOracle on success",
        "details": "Only callable by the admin",
        "params": {
          "newOracle": "Address of the new price oracle to set"
        }
      },
      "setPrimeToken(address)": {
        "params": {
          "_prime": "Address of the Prime contract"
        }
      },
      "supportMarket(address)": {
        "custom:access": "Only PoolRegistry",
        "custom:error": "MarketAlreadyListed is thrown if the market is already listed in this pool",
        "details": "Only callable by the PoolRegistry",
        "params": {
          "vToken": "The address of the market (token) to list"
        }
      },
      "transferOwnership(address)": {
        "details": "Starts the ownership transfer of the contract to a new account. Replaces the pending transfer if there is one. Can only be called by the current owner."
      },
      "transferVerify(address,address,address,uint256)": {
        "params": {
          "dst": "The account which receives the tokens",
          "src": "The account which sources the tokens",
          "transferTokens": "The number of vTokens to transfer",
          "vToken": "Asset being transferred"
        }
      },
      "updateDelegate(address,bool)": {
        "custom:access": "Not restricted",
        "custom:error": "ZeroAddressNotAllowed is thrown when delegate address is zeroDelegationStatusUnchanged is thrown if approval status is already set to the requested value",
        "custom:event": "DelegateUpdated emits on success",
        "params": {
          "approved": "Whether to grant (true) or revoke (false) the borrowing or redeeming rights",
          "delegate": "The address to update the rights for"
        }
      },
      "updatePrices(address)": {
        "params": {
          "account": "Address of the account to get associated tokens with"
        }
      }
    },
    "stateVariables": {
      "poolRegistry": {
        "custom:oz-upgrades-unsafe-allow": "state-variable-immutable"
      }
    },
    "title": "Comptroller",
    "version": 1
  },
  "userdoc": {
    "errors": {
      "ActionPaused(address,uint8)": [
        {
          "notice": "Thrown when trying to perform an action that is paused"
        }
      ],
      "BorrowCapExceeded(address,uint256)": [
        {
          "notice": "Thrown if the borrow cap is exceeded"
        }
      ],
      "ComptrollerMismatch()": [
        {
          "notice": "Thrown when a market has an unexpected comptroller"
        }
      ],
      "DelegationStatusUnchanged()": [
        {
          "notice": "Thrown if delegate approval status is already set to the requested value"
        }
      ],
      "InsufficientLiquidity()": [
        {
          "notice": "Thrown when the account doesn't have enough liquidity to redeem or borrow"
        }
      ],
      "InsufficientShortfall()": [
        {
          "notice": "Thrown when trying to liquidate a healthy account"
        }
      ],
      "InvalidCollateralFactor()": [
        {
          "notice": "Thrown when collateral factor exceeds the upper bound"
        }
      ],
      "InvalidLiquidationThreshold()": [
        {
          "notice": "Thrown when liquidation threshold exceeds the collateral factor"
        }
      ],
      "MarketAlreadyListed(address)": [
        {
          "notice": "Thrown when trying to add a market that is already listed"
        }
      ],
      "MarketNotCollateral(address,address)": [
        {
          "notice": "Thrown when user is not member of market"
        }
      ],
      "MarketNotListed(address)": [
        {
          "notice": "Thrown when the market is not listed"
        }
      ],
      "MaxLoopsLimitExceeded(uint256,uint256)": [
        {
          "notice": "Thrown an error on maxLoopsLimit exceeds for any loop"
        }
      ],
      "MinimalCollateralViolated(uint256,uint256)": [
        {
          "notice": "Thrown during the liquidation if user's total collateral amount is lower than   a predefined threshold. In this case only batch liquidations (either liquidateAccount   or healAccount) are available."
        }
      ],
      "NonzeroBorrowBalance()": [
        {
          "notice": "Thrown if the user is trying to exit a market in which they have an outstanding debt"
        }
      ],
      "PriceError(address)": [
        {
          "notice": "Thrown when the oracle returns an invalid price for some asset"
        }
      ],
      "SnapshotError(address,address)": [
        {
          "notice": "Thrown if VToken unexpectedly returned a nonzero error code while trying to get account snapshot"
        }
      ],
      "SupplyCapExceeded(address,uint256)": [
        {
          "notice": "Thrown if the supply cap is exceeded"
        }
      ],
      "TooMuchRepay()": [
        {
          "notice": "Thrown when trying to repay more than allowed by close factor"
        }
      ],
      "Unauthorized(address,address,string)": [
        {
          "notice": "Thrown when the action is prohibited by AccessControlManager"
        }
      ],
      "UnexpectedSender(address,address)": [
        {
          "notice": "Thrown when the action is only available to specific sender, but the real sender was different"
        }
      ],
      "ZeroAddressNotAllowed()": [
        {
          "notice": "Thrown if the supplied address is a zero address where it is not allowed"
        }
      ]
    },
    "events": {
      "ActionPausedMarket(address,uint8,bool)": {
        "notice": "Emitted when an action is paused on a market"
      },
      "DelegateUpdated(address,address,bool)": {
        "notice": "Emitted when the borrowing or redeeming delegate rights are updated for an account"
      },
      "IsForcedLiquidationEnabledUpdated(address,bool)": {
        "notice": "Emitted when forced liquidation is enabled or disabled for a market"
      },
      "MarketEntered(address,address)": {
        "notice": "Emitted when an account enters a market"
      },
      "MarketExited(address,address)": {
        "notice": "Emitted when an account exits a market"
      },
      "MarketSupported(address)": {
        "notice": "Emitted when a market is supported"
      },
      "MaxLoopsLimitUpdated(uint256,uint256)": {
        "notice": "Emitted when max loops limit is set"
      },
      "NewAccessControlManager(address,address)": {
        "notice": "Emitted when access control manager contract address is changed"
      },
      "NewBorrowCap(address,uint256)": {
        "notice": "Emitted when borrow cap for a vToken is changed"
      },
      "NewCloseFactor(uint256,uint256)": {
        "notice": "Emitted when close factor is changed by admin"
      },
      "NewCollateralFactor(address,uint256,uint256)": {
        "notice": "Emitted when a collateral factor is changed by admin"
      },
      "NewLiquidationIncentive(uint256,uint256)": {
        "notice": "Emitted when liquidation incentive is changed by admin"
      },
      "NewLiquidationThreshold(address,uint256,uint256)": {
        "notice": "Emitted when liquidation threshold is changed by admin"
      },
      "NewMinLiquidatableCollateral(uint256,uint256)": {
        "notice": "Emitted when the collateral threshold (in USD) for non-batch liquidations is changed"
      },
      "NewPriceOracle(address,address)": {
        "notice": "Emitted when price oracle is changed"
      },
      "NewPrimeToken(address,address)": {
        "notice": "Emitted when prime token contract address is changed"
      },
      "NewRewardsDistributor(address,address)": {
        "notice": "Emitted when a rewards distributor is added"
      },
      "NewSupplyCap(address,uint256)": {
        "notice": "Emitted when supply cap for a vToken is changed"
      }
    },
    "kind": "user",
    "methods": {
      "accessControlManager()": {
        "notice": "Returns the address of the access control manager contract"
      },
      "accountAssets(address,uint256)": {
        "notice": "Per-account mapping of \"assets you are in\""
      },
      "actionPaused(address,uint8)": {
        "notice": "Checks if a certain action is paused on a market"
      },
      "addRewardsDistributor(address)": {
        "notice": "Add a new RewardsDistributor and initialize it with all markets. We can add several RewardsDistributor contracts with the same rewardToken, and there could be overlaping among them considering the last reward slot (block or second)"
      },
      "allMarkets(uint256)": {
        "notice": "A list of all markets"
      },
      "approvedDelegates(address,address)": {
        "notice": "Whether the delegate is allowed to borrow or redeem on behalf of the user"
      },
      "borrowCaps(address)": {
        "notice": "Borrow caps enforced by borrowAllowed for each vToken address. Defaults to zero which restricts borrowing."
      },
      "borrowVerify(address,address,uint256)": {
        "notice": "Validates borrow, accrues interest and updates score in prime. Reverts on rejection. May emit logs."
      },
      "checkMembership(address,address)": {
        "notice": "Returns whether the given account is entered in a given market"
      },
      "closeFactorMantissa()": {
        "notice": "Multiplier used to calculate the maximum repayAmount when liquidating a borrow"
      },
      "enterMarkets(address[])": {
        "notice": "Add assets to be included in account liquidity calculation; enabling them to be used as collateral"
      },
      "exitMarket(address)": {
        "notice": "Removes asset from sender's account liquidity calculation; disabling them as collateral"
      },
      "getAccountLiquidity(address)": {
        "notice": "Determine the current account liquidity with respect to liquidation threshold requirements"
      },
      "getAllMarkets()": {
        "notice": "Return all of the markets"
      },
      "getAssetsIn(address)": {
        "notice": "Returns the assets an account has entered"
      },
      "getBorrowingPower(address)": {
        "notice": "Determine the current account liquidity with respect to collateral requirements"
      },
      "getHypotheticalAccountLiquidity(address,address,uint256,uint256)": {
        "notice": "Determine what the account liquidity would be if the given amounts were redeemed/borrowed"
      },
      "getRewardDistributors()": {
        "notice": "Return all reward distributors for this pool"
      },
      "getRewardsByMarket(address)": {
        "notice": "Returns reward speed given a vToken"
      },
      "healAccount(address)": {
        "notice": "Seizes all the remaining collateral, makes msg.sender repay the existing   borrows, and treats the rest of the debt as bad debt (for each market).   The sender has to repay a certain percentage of the debt, computed as   collateral / (borrows * liquidationIncentive)."
      },
      "isComptroller()": {
        "notice": "A marker method that returns true for a valid Comptroller contract"
      },
      "isForcedLiquidationEnabled(address)": {
        "notice": "Flag indicating whether forced liquidation enabled for a market"
      },
      "isMarketListed(address)": {
        "notice": "Check if a market is marked as listed (active)"
      },
      "liquidateAccount(address,(address,address,uint256)[])": {
        "notice": "Liquidates all borrows of the borrower. Callable only if the collateral is less than   a predefined threshold, and the account collateral can be seized to cover all borrows. If   the collateral is higher than the threshold, use regular liquidations. If the collateral is   below the threshold, and the account is insolvent, use healAccount."
      },
      "liquidateBorrowVerify(address,address,address,address,uint256,uint256)": {
        "notice": "Validates liquidateBorrow, accrues interest and updates score in prime. Reverts on rejection. May emit logs."
      },
      "liquidateCalculateSeizeTokens(address,address,uint256)": {
        "notice": "Calculate number of tokens of collateral asset to seize given an underlying amount"
      },
      "liquidationIncentiveMantissa()": {
        "notice": "Multiplier representing the discount on collateral that a liquidator receives"
      },
      "markets(address)": {
        "notice": "Official mapping of vTokens -> Market metadata"
      },
      "minLiquidatableCollateral()": {
        "notice": "Minimal collateral required for regular (non-batch) liquidations"
      },
      "mintVerify(address,address,uint256,uint256)": {
        "notice": "Validates mint, accrues interest and updates score in prime. Reverts on rejection. May emit logs."
      },
      "oracle()": {
        "notice": "Oracle which gives the price of any given asset"
      },
      "preBorrowHook(address,address,uint256)": {
        "notice": "disable-eslint"
      },
      "preLiquidateHook(address,address,address,uint256,bool)": {
        "notice": "Checks if the liquidation should be allowed to occur"
      },
      "preMintHook(address,address,uint256)": {
        "notice": "Checks if the account should be allowed to mint tokens in the given market"
      },
      "preRedeemHook(address,address,uint256)": {
        "notice": "Checks if the account should be allowed to redeem tokens in the given market"
      },
      "preRepayHook(address,address)": {
        "notice": "Checks if the account should be allowed to repay a borrow in the given market"
      },
      "preSeizeHook(address,address,address,address)": {
        "notice": "Checks if the seizing of assets should be allowed to occur"
      },
      "preTransferHook(address,address,address,uint256)": {
        "notice": "Checks if the account should be allowed to transfer tokens in the given market"
      },
      "prime()": {
        "notice": "Prime token address"
      },
      "redeemVerify(address,address,uint256,uint256)": {
        "notice": "Validates redeem, accrues interest and updates score in prime. Reverts on rejection. May emit logs."
      },
      "repayBorrowVerify(address,address,address,uint256,uint256)": {
        "notice": "Validates repayBorrow, accrues interest and updates score in prime. Reverts on rejection. May emit logs."
      },
      "seizeVerify(address,address,address,address,uint256)": {
        "notice": "Validates seize, accrues interest and updates score in prime. Reverts on rejection. May emit logs."
      },
      "setAccessControlManager(address)": {
        "notice": "Sets the address of AccessControlManager"
      },
      "setActionsPaused(address[],uint8[],bool)": {
        "notice": "Pause/unpause specified actions"
      },
      "setCloseFactor(uint256)": {
        "notice": "Sets the closeFactor to use when liquidating borrows"
      },
      "setCollateralFactor(address,uint256,uint256)": {
        "notice": "Sets the collateralFactor for a market"
      },
      "setForcedLiquidation(address,bool)": {
        "notice": "Enables forced liquidations for a market. If forced liquidation is enabled, borrows in the market may be liquidated regardless of the account liquidity"
      },
      "setLiquidationIncentive(uint256)": {
        "notice": "Sets liquidationIncentive"
      },
      "setMarketBorrowCaps(address[],uint256[])": {
        "notice": "Set the given borrow caps for the given vToken markets. Borrowing that brings total borrows to or above borrow cap will revert."
      },
      "setMarketSupplyCaps(address[],uint256[])": {
        "notice": "Set the given supply caps for the given vToken markets. Supply that brings total Supply to or above supply cap will revert."
      },
      "setMaxLoopsLimit(uint256)": {
        "notice": "Set the for loop iteration limit to avoid DOS"
      },
      "setMinLiquidatableCollateral(uint256)": {
        "notice": "Set the given collateral threshold for non-batch liquidations. Regular liquidations   will fail if the collateral amount is less than this threshold. Liquidators should use batch   operations like liquidateAccount or healAccount."
      },
      "setPriceOracle(address)": {
        "notice": "Sets a new price oracle for the Comptroller"
      },
      "setPrimeToken(address)": {
        "notice": "Sets the prime token contract for the comptroller"
      },
      "supplyCaps(address)": {
        "notice": "Supply caps enforced by mintAllowed for each vToken address. Defaults to zero which corresponds to minting not allowed"
      },
      "supportMarket(address)": {
        "notice": "Add the market to the markets mapping and set it as listed"
      },
      "transferVerify(address,address,address,uint256)": {
        "notice": "Validates transfer, accrues interest and updates score in prime. Reverts on rejection. May emit logs."
      },
      "updateDelegate(address,bool)": {
        "notice": "Grants or revokes the borrowing or redeeming delegate rights to / from an account  If allowed, the delegate will be able to borrow funds on behalf of the sender  Upon a delegated borrow, the delegate will receive the funds, and the borrower  will see the debt on their account  Upon a delegated redeem, the delegate will receive the redeemed amount and the approver  will see a deduction in his vToken balance"
      },
      "updatePrices(address)": {
        "notice": "Update the prices of all the tokens associated with the provided account"
      }
    },
    "notice": "The Comptroller is designed to provide checks for all minting, redeeming, transferring, borrowing, lending, repaying, liquidating, and seizing done by the `vToken` contract. Each pool has one `Comptroller` checking these interactions across markets. When a user interacts with a given market by one of these main actions, a call is made to a corresponding hook in the associated `Comptroller`, which either allows or reverts the transaction. These hooks also update supply and borrow rewards as they are called. The comptroller holds the logic for assessing liquidity snapshots of an account via the collateral factor and liquidation threshold. This check determines the collateral needed for a borrow, as well as how much of a borrow may be liquidated. A user may borrow a portion of their collateral with the maximum amount determined by the markets collateral factor. However, if their borrowed amount exceeds an amount calculated using the markets corresponding liquidation threshold, the borrow is eligible for liquidation. The `Comptroller` also includes two functions `liquidateAccount()` and `healAccount()`, which are meant to handle accounts that do not exceed the `minLiquidatableCollateral` for the `Comptroller`: - `healAccount()`: This function is called to seize all of a given users collateral, requiring the `msg.sender` repay a certain percentage of the debt calculated by `collateral/(borrows*liquidationIncentive)`. The function can only be called if the calculated percentage does not exceed 100%, because otherwise no `badDebt` would be created and `liquidateAccount()` should be used instead. The difference in the actual amount of debt and debt paid off is recorded as `badDebt` for each market, which can then be auctioned off for the risk reserves of the associated pool. - `liquidateAccount()`: This function can only be called if the collateral seized will cover all borrows of an account, as well as the liquidation incentive. Otherwise, the pool will incur bad debt, in which case the function `healAccount()` should be used instead. This function skips the logic verifying that the repay amount does not exceed the close factor.",
    "version": 1
  },
  "storageLayout": {
    "storage": [
      {
        "astId": 292,
        "contract": "contracts/Comptroller.sol:Comptroller",
        "label": "_initialized",
        "offset": 0,
        "slot": "0",
        "type": "t_uint8"
      },
      {
        "astId": 295,
        "contract": "contracts/Comptroller.sol:Comptroller",
        "label": "_initializing",
        "offset": 1,
        "slot": "0",
        "type": "t_bool"
      },
      {
        "astId": 1409,
        "contract": "contracts/Comptroller.sol:Comptroller",
        "label": "__gap",
        "offset": 0,
        "slot": "1",
        "type": "t_array(t_uint256)50_storage"
      },
      {
        "astId": 164,
        "contract": "contracts/Comptroller.sol:Comptroller",
        "label": "_owner",
        "offset": 0,
        "slot": "51",
        "type": "t_address"
      },
      {
        "astId": 284,
        "contract": "contracts/Comptroller.sol:Comptroller",
        "label": "__gap",
        "offset": 0,
        "slot": "52",
        "type": "t_array(t_uint256)49_storage"
      },
      {
        "astId": 57,
        "contract": "contracts/Comptroller.sol:Comptroller",
        "label": "_pendingOwner",
        "offset": 0,
        "slot": "101",
        "type": "t_address"
      },
      {
        "astId": 151,
        "contract": "contracts/Comptroller.sol:Comptroller",
        "label": "__gap",
        "offset": 0,
        "slot": "102",
        "type": "t_array(t_uint256)49_storage"
      },
      {
        "astId": 3361,
        "contract": "contracts/Comptroller.sol:Comptroller",
        "label": "_accessControlManager",
        "offset": 0,
        "slot": "151",
        "type": "t_contract(IAccessControlManagerV8)3546"
      },
      {
        "astId": 3366,
        "contract": "contracts/Comptroller.sol:Comptroller",
        "label": "__gap",
        "offset": 0,
        "slot": "152",
        "type": "t_array(t_uint256)49_storage"
      },
      {
        "astId": 10475,
        "contract": "contracts/Comptroller.sol:Comptroller",
        "label": "oracle",
        "offset": 0,
        "slot": "201",
        "type": "t_contract(ResilientOracleInterface)3605"
      },
      {
        "astId": 10478,
        "contract": "contracts/Comptroller.sol:Comptroller",
        "label": "closeFactorMantissa",
        "offset": 0,
        "slot": "202",
        "type": "t_uint256"
      },
      {
        "astId": 10481,
        "contract": "contracts/Comptroller.sol:Comptroller",
        "label": "liquidationIncentiveMantissa",
        "offset": 0,
        "slot": "203",
        "type": "t_uint256"
      },
      {
        "astId": 10488,
        "contract": "contracts/Comptroller.sol:Comptroller",
        "label": "accountAssets",
        "offset": 0,
        "slot": "204",
        "type": "t_mapping(t_address,t_array(t_contract(VToken)22386)dyn_storage)"
      },
      {
        "astId": 10494,
        "contract": "contracts/Comptroller.sol:Comptroller",
        "label": "markets",
        "offset": 0,
        "slot": "205",
        "type": "t_mapping(t_address,t_struct(Market)10471_storage)"
      },
      {
        "astId": 10499,
        "contract": "contracts/Comptroller.sol:Comptroller",
        "label": "allMarkets",
        "offset": 0,
        "slot": "206",
        "type": "t_array(t_contract(VToken)22386)dyn_storage"
      },
      {
        "astId": 10504,
        "contract": "contracts/Comptroller.sol:Comptroller",
        "label": "borrowCaps",
        "offset": 0,
        "slot": "207",
        "type": "t_mapping(t_address,t_uint256)"
      },
      {
        "astId": 10507,
        "contract": "contracts/Comptroller.sol:Comptroller",
        "label": "minLiquidatableCollateral",
        "offset": 0,
        "slot": "208",
        "type": "t_uint256"
      },
      {
        "astId": 10512,
        "contract": "contracts/Comptroller.sol:Comptroller",
        "label": "supplyCaps",
        "offset": 0,
        "slot": "209",
        "type": "t_mapping(t_address,t_uint256)"
      },
      {
        "astId": 10520,
        "contract": "contracts/Comptroller.sol:Comptroller",
        "label": "_actionPaused",
        "offset": 0,
        "slot": "210",
        "type": "t_mapping(t_address,t_mapping(t_enum(Action)10135,t_bool))"
      },
      {
        "astId": 10524,
        "contract": "contracts/Comptroller.sol:Comptroller",
        "label": "rewardsDistributors",
        "offset": 0,
        "slot": "211",
        "type": "t_array(t_contract(RewardsDistributor)16299)dyn_storage"
      },
      {
        "astId": 10528,
        "contract": "contracts/Comptroller.sol:Comptroller",
        "label": "rewardsDistributorExists",
        "offset": 0,
        "slot": "212",
        "type": "t_mapping(t_address,t_bool)"
      },
      {
        "astId": 10533,
        "contract": "contracts/Comptroller.sol:Comptroller",
        "label": "isForcedLiquidationEnabled",
        "offset": 0,
        "slot": "213",
        "type": "t_mapping(t_address,t_bool)"
      },
      {
        "astId": 10549,
        "contract": "contracts/Comptroller.sol:Comptroller",
        "label": "prime",
        "offset": 0,
        "slot": "214",
        "type": "t_contract(IPrime)6192"
      },
      {
        "astId": 10556,
        "contract": "contracts/Comptroller.sol:Comptroller",
        "label": "approvedDelegates",
        "offset": 0,
        "slot": "215",
        "type": "t_mapping(t_address,t_mapping(t_address,t_bool))"
      },
      {
        "astId": 10561,
        "contract": "contracts/Comptroller.sol:Comptroller",
        "label": "__gap",
        "offset": 0,
        "slot": "216",
        "type": "t_array(t_uint256)47_storage"
      },
      {
        "astId": 13471,
        "contract": "contracts/Comptroller.sol:Comptroller",
        "label": "maxLoopsLimit",
        "offset": 0,
        "slot": "263",
        "type": "t_uint256"
      },
      {
        "astId": 13476,
        "contract": "contracts/Comptroller.sol:Comptroller",
        "label": "__gap",
        "offset": 0,
        "slot": "264",
        "type": "t_array(t_uint256)49_storage"
      }
    ],
    "types": {
      "t_address": {
        "encoding": "inplace",
        "label": "address",
        "numberOfBytes": "20"
      },
      "t_array(t_contract(RewardsDistributor)16299)dyn_storage": {
        "base": "t_contract(RewardsDistributor)16299",
        "encoding": "dynamic_array",
        "label": "contract RewardsDistributor[]",
        "numberOfBytes": "32"
      },
      "t_array(t_contract(VToken)22386)dyn_storage": {
        "base": "t_contract(VToken)22386",
        "encoding": "dynamic_array",
        "label": "contract VToken[]",
        "numberOfBytes": "32"
      },
      "t_array(t_uint256)47_storage": {
        "base": "t_uint256",
        "encoding": "inplace",
        "label": "uint256[47]",
        "numberOfBytes": "1504"
      },
      "t_array(t_uint256)49_storage": {
        "base": "t_uint256",
        "encoding": "inplace",
        "label": "uint256[49]",
        "numberOfBytes": "1568"
      },
      "t_array(t_uint256)50_storage": {
        "base": "t_uint256",
        "encoding": "inplace",
        "label": "uint256[50]",
        "numberOfBytes": "1600"
      },
      "t_bool": {
        "encoding": "inplace",
        "label": "bool",
        "numberOfBytes": "1"
      },
      "t_contract(IAccessControlManagerV8)3546": {
        "encoding": "inplace",
        "label": "contract IAccessControlManagerV8",
        "numberOfBytes": "20"
      },
      "t_contract(IPrime)6192": {
        "encoding": "inplace",
        "label": "contract IPrime",
        "numberOfBytes": "20"
      },
      "t_contract(ResilientOracleInterface)3605": {
        "encoding": "inplace",
        "label": "contract ResilientOracleInterface",
        "numberOfBytes": "20"
      },
      "t_contract(RewardsDistributor)16299": {
        "encoding": "inplace",
        "label": "contract RewardsDistributor",
        "numberOfBytes": "20"
      },
      "t_contract(VToken)22386": {
        "encoding": "inplace",
        "label": "contract VToken",
        "numberOfBytes": "20"
      },
      "t_enum(Action)10135": {
        "encoding": "inplace",
        "label": "enum Action",
        "numberOfBytes": "1"
      },
      "t_mapping(t_address,t_array(t_contract(VToken)22386)dyn_storage)": {
        "encoding": "mapping",
        "key": "t_address",
        "label": "mapping(address => contract VToken[])",
        "numberOfBytes": "32",
        "value": "t_array(t_contract(VToken)22386)dyn_storage"
      },
      "t_mapping(t_address,t_bool)": {
        "encoding": "mapping",
        "key": "t_address",
        "label": "mapping(address => bool)",
        "numberOfBytes": "32",
        "value": "t_bool"
      },
      "t_mapping(t_address,t_mapping(t_address,t_bool))": {
        "encoding": "mapping",
        "key": "t_address",
        "label": "mapping(address => mapping(address => bool))",
        "numberOfBytes": "32",
        "value": "t_mapping(t_address,t_bool)"
      },
      "t_mapping(t_address,t_mapping(t_enum(Action)10135,t_bool))": {
        "encoding": "mapping",
        "key": "t_address",
        "label": "mapping(address => mapping(enum Action => bool))",
        "numberOfBytes": "32",
        "value": "t_mapping(t_enum(Action)10135,t_bool)"
      },
      "t_mapping(t_address,t_struct(Market)10471_storage)": {
        "encoding": "mapping",
        "key": "t_address",
        "label": "mapping(address => struct ComptrollerStorage.Market)",
        "numberOfBytes": "32",
        "value": "t_struct(Market)10471_storage"
      },
      "t_mapping(t_address,t_uint256)": {
        "encoding": "mapping",
        "key": "t_address",
        "label": "mapping(address => uint256)",
        "numberOfBytes": "32",
        "value": "t_uint256"
      },
      "t_mapping(t_enum(Action)10135,t_bool)": {
        "encoding": "mapping",
        "key": "t_enum(Action)10135",
        "label": "mapping(enum Action => bool)",
        "numberOfBytes": "32",
        "value": "t_bool"
      },
      "t_struct(Market)10471_storage": {
        "encoding": "inplace",
        "label": "struct ComptrollerStorage.Market",
        "members": [
          {
            "astId": 10462,
            "contract": "contracts/Comptroller.sol:Comptroller",
            "label": "isListed",
            "offset": 0,
            "slot": "0",
            "type": "t_bool"
          },
          {
            "astId": 10464,
            "contract": "contracts/Comptroller.sol:Comptroller",
            "label": "collateralFactorMantissa",
            "offset": 0,
            "slot": "1",
            "type": "t_uint256"
          },
          {
            "astId": 10466,
            "contract": "contracts/Comptroller.sol:Comptroller",
            "label": "liquidationThresholdMantissa",
            "offset": 0,
            "slot": "2",
            "type": "t_uint256"
          },
          {
            "astId": 10470,
            "contract": "contracts/Comptroller.sol:Comptroller",
            "label": "accountMembership",
            "offset": 0,
            "slot": "3",
            "type": "t_mapping(t_address,t_bool)"
          }
        ],
        "numberOfBytes": "128"
      },
      "t_uint256": {
        "encoding": "inplace",
        "label": "uint256",
        "numberOfBytes": "32"
      },
      "t_uint8": {
        "encoding": "inplace",
        "label": "uint8",
        "numberOfBytes": "1"
      }
    }
  }
}