{
  "address": "0xd109E4cbd098581Caa78fD3b259DEFaF14baBd06",
  "abi": [
    {
      "inputs": [
        {
          "internalType": "uint256",
          "name": "baseRatePerYear_",
          "type": "uint256"
        },
        {
          "internalType": "uint256",
          "name": "multiplierPerYear_",
          "type": "uint256"
        },
        {
          "internalType": "uint256",
          "name": "jumpMultiplierPerYear_",
          "type": "uint256"
        },
        {
          "internalType": "uint256",
          "name": "kink_",
          "type": "uint256"
        },
        {
          "internalType": "contract IAccessControlManagerV8",
          "name": "accessControlManager_",
          "type": "address"
        },
        {
          "internalType": "bool",
          "name": "timeBased_",
          "type": "bool"
        },
        {
          "internalType": "uint256",
          "name": "blocksPerYear_",
          "type": "uint256"
        }
      ],
      "stateMutability": "nonpayable",
      "type": "constructor"
    },
    {
      "inputs": [],
      "name": "InvalidBlocksPerYear",
      "type": "error"
    },
    {
      "inputs": [],
      "name": "InvalidTimeBasedConfiguration",
      "type": "error"
    },
    {
      "inputs": [
        {
          "internalType": "address",
          "name": "sender",
          "type": "address"
        },
        {
          "internalType": "address",
          "name": "calledContract",
          "type": "address"
        },
        {
          "internalType": "string",
          "name": "methodSignature",
          "type": "string"
        }
      ],
      "name": "Unauthorized",
      "type": "error"
    },
    {
      "anonymous": false,
      "inputs": [
        {
          "indexed": false,
          "internalType": "uint256",
          "name": "baseRatePerBlockOrTimestamp",
          "type": "uint256"
        },
        {
          "indexed": false,
          "internalType": "uint256",
          "name": "multiplierPerBlockOrTimestamp",
          "type": "uint256"
        },
        {
          "indexed": false,
          "internalType": "uint256",
          "name": "jumpMultiplierPerBlockOrTimestamp",
          "type": "uint256"
        },
        {
          "indexed": false,
          "internalType": "uint256",
          "name": "kink",
          "type": "uint256"
        }
      ],
      "name": "NewInterestParams",
      "type": "event"
    },
    {
      "inputs": [],
      "name": "accessControlManager",
      "outputs": [
        {
          "internalType": "contract IAccessControlManagerV8",
          "name": "",
          "type": "address"
        }
      ],
      "stateMutability": "view",
      "type": "function"
    },
    {
      "inputs": [],
      "name": "baseRatePerBlock",
      "outputs": [
        {
          "internalType": "uint256",
          "name": "",
          "type": "uint256"
        }
      ],
      "stateMutability": "view",
      "type": "function"
    },
    {
      "inputs": [],
      "name": "blocksOrSecondsPerYear",
      "outputs": [
        {
          "internalType": "uint256",
          "name": "",
          "type": "uint256"
        }
      ],
      "stateMutability": "view",
      "type": "function"
    },
    {
      "inputs": [],
      "name": "getBlockNumberOrTimestamp",
      "outputs": [
        {
          "internalType": "uint256",
          "name": "",
          "type": "uint256"
        }
      ],
      "stateMutability": "view",
      "type": "function"
    },
    {
      "inputs": [
        {
          "internalType": "uint256",
          "name": "cash",
          "type": "uint256"
        },
        {
          "internalType": "uint256",
          "name": "borrows",
          "type": "uint256"
        },
        {
          "internalType": "uint256",
          "name": "reserves",
          "type": "uint256"
        },
        {
          "internalType": "uint256",
          "name": "badDebt",
          "type": "uint256"
        }
      ],
      "name": "getBorrowRate",
      "outputs": [
        {
          "internalType": "uint256",
          "name": "",
          "type": "uint256"
        }
      ],
      "stateMutability": "view",
      "type": "function"
    },
    {
      "inputs": [
        {
          "internalType": "uint256",
          "name": "cash",
          "type": "uint256"
        },
        {
          "internalType": "uint256",
          "name": "borrows",
          "type": "uint256"
        },
        {
          "internalType": "uint256",
          "name": "reserves",
          "type": "uint256"
        },
        {
          "internalType": "uint256",
          "name": "reserveFactorMantissa",
          "type": "uint256"
        },
        {
          "internalType": "uint256",
          "name": "badDebt",
          "type": "uint256"
        }
      ],
      "name": "getSupplyRate",
      "outputs": [
        {
          "internalType": "uint256",
          "name": "",
          "type": "uint256"
        }
      ],
      "stateMutability": "view",
      "type": "function"
    },
    {
      "inputs": [],
      "name": "isInterestRateModel",
      "outputs": [
        {
          "internalType": "bool",
          "name": "",
          "type": "bool"
        }
      ],
      "stateMutability": "pure",
      "type": "function"
    },
    {
      "inputs": [],
      "name": "isTimeBased",
      "outputs": [
        {
          "internalType": "bool",
          "name": "",
          "type": "bool"
        }
      ],
      "stateMutability": "view",
      "type": "function"
    },
    {
      "inputs": [],
      "name": "jumpMultiplierPerBlock",
      "outputs": [
        {
          "internalType": "uint256",
          "name": "",
          "type": "uint256"
        }
      ],
      "stateMutability": "view",
      "type": "function"
    },
    {
      "inputs": [],
      "name": "kink",
      "outputs": [
        {
          "internalType": "uint256",
          "name": "",
          "type": "uint256"
        }
      ],
      "stateMutability": "view",
      "type": "function"
    },
    {
      "inputs": [],
      "name": "multiplierPerBlock",
      "outputs": [
        {
          "internalType": "uint256",
          "name": "",
          "type": "uint256"
        }
      ],
      "stateMutability": "view",
      "type": "function"
    },
    {
      "inputs": [
        {
          "internalType": "uint256",
          "name": "baseRatePerYear",
          "type": "uint256"
        },
        {
          "internalType": "uint256",
          "name": "multiplierPerYear",
          "type": "uint256"
        },
        {
          "internalType": "uint256",
          "name": "jumpMultiplierPerYear",
          "type": "uint256"
        },
        {
          "internalType": "uint256",
          "name": "kink_",
          "type": "uint256"
        }
      ],
      "name": "updateJumpRateModel",
      "outputs": [],
      "stateMutability": "nonpayable",
      "type": "function"
    },
    {
      "inputs": [
        {
          "internalType": "uint256",
          "name": "cash",
          "type": "uint256"
        },
        {
          "internalType": "uint256",
          "name": "borrows",
          "type": "uint256"
        },
        {
          "internalType": "uint256",
          "name": "reserves",
          "type": "uint256"
        },
        {
          "internalType": "uint256",
          "name": "badDebt",
          "type": "uint256"
        }
      ],
      "name": "utilizationRate",
      "outputs": [
        {
          "internalType": "uint256",
          "name": "",
          "type": "uint256"
        }
      ],
      "stateMutability": "pure",
      "type": "function"
    }
  ],
  "transactionHash": "0x58d6e6cea3c5bdcfa1f90345b6f0276255bc99a1f6c1acd1277487819b6c7dc4",
  "args": [
    "30000000000000000",
    "200000000000000000",
    "2500000000000000000",
    "600000000000000000",
    "0x4788629abc6cfca10f9f969efdeaa1cf70c23555",
    false,
    10512000
  ],
  "numDeployments": 1,
  "solcInputHash": "3c20dc65cc123659b5918437b44f9306",
  "bytecode": "0x60e060405234801561001057600080fd5b50604051610abd380380610abd83398101604081905261002f916101ed565b81818115801561003d575080155b1561005b576040516302723dfb60e21b815260040160405180910390fd5b81801561006757508015155b156100855760405163ae0fcab360e01b815260040160405180910390fd5b81151560a05281610096578061009c565b6301e133805b608052816100b35761015960201b61042c176100be565b61015d60201b610430175b6001600160401b031660c05250506001600160a01b0383166101265760405162461bcd60e51b815260206004820152601360248201527f696e76616c69642041434d206164647265737300000000000000000000000000604482015260640160405180910390fd5b603080546001600160a01b0319166001600160a01b03851617905561014d87878787610161565b5050505050505061028c565b4390565b4290565b60805161016e908561026a565b60325560805161017e908461026a565b60315560805161018e908361026a565b60338190556034829055603254603154604080519283526020830191909152810191909152606081018290527f6960ab234c7ef4b0c9197100f5393cfcde7c453ac910a27bd2000aa1dd4c068d9060800160405180910390a150505050565b600080600080600080600060e0888a03121561020857600080fd5b8751602089015160408a015160608b015160808c0151939a50919850965094506001600160a01b038116811461023d57600080fd5b60a0890151909350801515811461025357600080fd5b8092505060c0880151905092959891949750929550565b60008261028757634e487b7160e01b600052601260045260246000fd5b500490565b60805160a05160c0516107ed6102d06000396000610400015260006101b101526000818161013a015281816104fe0152818161052b015261055801526107ed6000f3fe608060405234801561001057600080fd5b50600436106100cf5760003560e01c80638726bb891161008c578063c7ad089511610066578063c7ad0895146101ac578063e1d146fb146101d3578063f14039de146101db578063fd2da339146101e457600080fd5b80638726bb891461016f578063b4a0bdf314610178578063b9f9850a146101a357600080fd5b8063073b8a74146100d45780630cde8d1c146100fa5780632037f3e71461010d5780632191f92a146101225780636857249c1461013557806370d3c43f1461015c575b600080fd5b6100e76100e23660046105dc565b6101ed565b6040519081526020015b60405180910390f35b6100e761010836600461060e565b610206565b61012061011b3660046105dc565b610299565b005b60015b60405190151581526020016100f1565b6100e77f000000000000000000000000000000000000000000000000000000000000000081565b6100e761016a3660046105dc565b610370565b6100e760315481565b60305461018b906001600160a01b031681565b6040516001600160a01b0390911681526020016100f1565b6100e760335481565b6101257f000000000000000000000000000000000000000000000000000000000000000081565b6100e76103f9565b6100e760325481565b6100e760345481565b60006101fb85858585610434565b90505b949350505050565b60008061021b84670de0b6b3a764000061065f565b9050600061022b88888887610434565b90506000670de0b6b3a76400006102428484610678565b61024c919061068f565b9050600061025a828a610678565b90506000888761026a8c8e6106b1565b61027491906106b1565b61027e919061065f565b905061028a818361068f565b9b9a5050505050505050505050565b6000604051806060016040528060348152602001610784603491396030546040516318c5e8ab60e01b81529192506000916001600160a01b03909116906318c5e8ab906102ec903390869060040161070a565b602060405180830381865afa158015610309573d6000803e3d6000fd5b505050506040513d601f19601f8201168201806040525081019061032d919061072e565b90508061035c57333083604051634a3fa29360e01b815260040161035393929190610757565b60405180910390fd5b610368868686866104f9565b505050505050565b600061037c82856106b1565b60000361038b575060006101fe565b6000838361039987896106b1565b6103a391906106b1565b6103ad919061065f565b670de0b6b3a76400006103c085886106b1565b6103ca9190610678565b6103d4919061068f565b9050670de0b6b3a76400008111156101fb5750670de0b6b3a764000095945050505050565b60006104277f000000000000000000000000000000000000000000000000000000000000000063ffffffff16565b905090565b4390565b4290565b60008061044386868686610370565b60345490915080821161048757603254670de0b6b3a76400006031548461046a9190610678565b610474919061068f565b61047e91906106b1565b925050506101fe565b6000603254670de0b6b3a7640000603154846104a39190610678565b6104ad919061068f565b6104b791906106b1565b90506000828403905081670de0b6b3a7640000603354836104d89190610678565b6104e2919061068f565b6104ec91906106b1565b9998505050505050505050565b6105237f00000000000000000000000000000000000000000000000000000000000000008561068f565b6032556105507f00000000000000000000000000000000000000000000000000000000000000008461068f565b60315561057d7f00000000000000000000000000000000000000000000000000000000000000008361068f565b60338190556034829055603254603154604080519283526020830191909152810191909152606081018290527f6960ab234c7ef4b0c9197100f5393cfcde7c453ac910a27bd2000aa1dd4c068d9060800160405180910390a150505050565b600080600080608085870312156105f257600080fd5b5050823594602084013594506040840135936060013592509050565b600080600080600060a0868803121561062657600080fd5b505083359560208501359550604085013594606081013594506080013592509050565b634e487b7160e01b600052601160045260246000fd5b8181038181111561067257610672610649565b92915050565b808202811582820484141761067257610672610649565b6000826106ac57634e487b7160e01b600052601260045260246000fd5b500490565b8082018082111561067257610672610649565b6000815180845260005b818110156106ea576020818501810151868301820152016106ce565b506000602082860101526020601f19601f83011685010191505092915050565b6001600160a01b03831681526040602082018190526000906101fe908301846106c4565b60006020828403121561074057600080fd5b8151801515811461075057600080fd5b9392505050565b6001600160a01b038481168252831660208201526060604082018190526000906101fb908301846106c456fe7570646174654a756d70526174654d6f64656c2875696e743235362c75696e743235362c75696e743235362c75696e7432353629a2646970667358221220c93e2af3e05152d7c10d83dd7b48d9708df3ad5d5901502bf132652935f6e78164736f6c63430008190033",
  "devdoc": {
    "author": "Compound (modified by Dharma Labs, Arr00 and Venus)",
    "kind": "dev",
    "methods": {
      "constructor": {
        "params": {
          "accessControlManager_": "The address of the AccessControlManager contract",
          "baseRatePerYear_": "The approximate target base APR, as a mantissa (scaled by EXP_SCALE)",
          "blocksPerYear_": "The number of blocks per year",
          "jumpMultiplierPerYear_": "The multiplier after hitting a specified utilization point",
          "kink_": "The utilization point at which the jump multiplier is applied",
          "multiplierPerYear_": "The rate of increase in interest rate wrt utilization (scaled by EXP_SCALE)",
          "timeBased_": "A boolean indicating whether the contract is based on time or block."
        }
      },
      "getBlockNumberOrTimestamp()": {
        "details": "Function to simply retrieve block number or block timestamp",
        "returns": {
          "_0": "Current block number or block timestamp"
        }
      },
      "getBorrowRate(uint256,uint256,uint256,uint256)": {
        "params": {
          "badDebt": "The amount of badDebt in the market",
          "borrows": "The amount of borrows in the market",
          "cash": "The amount of cash in the market",
          "reserves": "The amount of reserves in the market"
        },
        "returns": {
          "_0": "The borrow rate percentage per slot (block or second) as a mantissa (scaled by 1e18)"
        }
      },
      "getSupplyRate(uint256,uint256,uint256,uint256,uint256)": {
        "params": {
          "badDebt": "The amount of badDebt in the market",
          "borrows": "The amount of borrows in the market",
          "cash": "The amount of cash in the market",
          "reserveFactorMantissa": "The current reserve factor for the market",
          "reserves": "The amount of reserves in the market"
        },
        "returns": {
          "_0": "The supply rate percentage per slot (block or second) as a mantissa (scaled by EXP_SCALE)"
        }
      },
      "isInterestRateModel()": {
        "returns": {
          "_0": "Always true"
        }
      },
      "updateJumpRateModel(uint256,uint256,uint256,uint256)": {
        "custom:access": "Controlled by AccessControlManager",
        "custom:error": "Unauthorized if the sender is not allowed to call this function",
        "params": {
          "baseRatePerYear": "The approximate target base APR, as a mantissa (scaled by EXP_SCALE)",
          "jumpMultiplierPerYear": "The multiplierPerBlockOrTimestamp after hitting a specified utilization point",
          "kink_": "The utilization point at which the jump multiplier is applied",
          "multiplierPerYear": "The rate of increase in interest rate wrt utilization (scaled by EXP_SCALE)"
        }
      },
      "utilizationRate(uint256,uint256,uint256,uint256)": {
        "params": {
          "badDebt": "The amount of badDebt in the market",
          "borrows": "The amount of borrows in the market",
          "cash": "The amount of cash in the market",
          "reserves": "The amount of reserves in the market (currently unused)"
        },
        "returns": {
          "_0": "The utilization rate as a mantissa between [0, MANTISSA_ONE]"
        }
      }
    },
    "title": "JumpRateModelV2",
    "version": 1
  },
  "userdoc": {
    "errors": {
      "InvalidBlocksPerYear()": [
        {
          "notice": "Thrown when blocks per year is invalid"
        }
      ],
      "InvalidTimeBasedConfiguration()": [
        {
          "notice": "Thrown when time based but blocks per year is provided"
        }
      ],
      "Unauthorized(address,address,string)": [
        {
          "notice": "Thrown when the action is prohibited by AccessControlManager"
        }
      ]
    },
    "kind": "user",
    "methods": {
      "accessControlManager()": {
        "notice": "The address of the AccessControlManager contract"
      },
      "baseRatePerBlock()": {
        "notice": "The base interest rate per block or second which is the y-intercept when utilization rate is 0"
      },
      "blocksOrSecondsPerYear()": {
        "notice": "Stores blocksPerYear if isTimeBased is true else secondsPerYear is stored"
      },
      "constructor": {
        "notice": "Construct an interest rate model"
      },
      "getBorrowRate(uint256,uint256,uint256,uint256)": {
        "notice": "Calculates the current borrow rate per slot (block or second)"
      },
      "getSupplyRate(uint256,uint256,uint256,uint256,uint256)": {
        "notice": "Calculates the current supply rate per slot (block or second)"
      },
      "isInterestRateModel()": {
        "notice": "Indicator that this is an InterestRateModel contract (for inspection)"
      },
      "isTimeBased()": {
        "notice": "Acknowledges if a contract is time based or not"
      },
      "jumpMultiplierPerBlock()": {
        "notice": "The multiplier per block or second after hitting a specified utilization point"
      },
      "kink()": {
        "notice": "The utilization point at which the jump multiplier is applied"
      },
      "multiplierPerBlock()": {
        "notice": "The multiplier of utilization rate per block or second that gives the slope of the interest rate"
      },
      "updateJumpRateModel(uint256,uint256,uint256,uint256)": {
        "notice": "Update the parameters of the interest rate model"
      },
      "utilizationRate(uint256,uint256,uint256,uint256)": {
        "notice": "Calculates the utilization rate of the market: `(borrows + badDebt) / (cash + borrows + badDebt - reserves)`"
      }
    },
    "notice": "An interest rate model with a steep increase after a certain utilization threshold called **kink** is reached. The parameters of this interest rate model can be adjusted by the owner. Version 2 modifies Version 1 by enabling updateable parameters",
    "version": 1
  },
  "storageLayout": {
    "storage": [
      {
        "astId": 9747,
        "contract": "contracts/JumpRateModelV2.sol:JumpRateModelV2",
        "label": "__gap",
        "offset": 0,
        "slot": "0",
        "type": "t_array(t_uint256)48_storage"
      },
      {
        "astId": 21518,
        "contract": "contracts/JumpRateModelV2.sol:JumpRateModelV2",
        "label": "accessControlManager",
        "offset": 0,
        "slot": "48",
        "type": "t_contract(IAccessControlManagerV8)7478"
      },
      {
        "astId": 21521,
        "contract": "contracts/JumpRateModelV2.sol:JumpRateModelV2",
        "label": "multiplierPerBlock",
        "offset": 0,
        "slot": "49",
        "type": "t_uint256"
      },
      {
        "astId": 21524,
        "contract": "contracts/JumpRateModelV2.sol:JumpRateModelV2",
        "label": "baseRatePerBlock",
        "offset": 0,
        "slot": "50",
        "type": "t_uint256"
      },
      {
        "astId": 21527,
        "contract": "contracts/JumpRateModelV2.sol:JumpRateModelV2",
        "label": "jumpMultiplierPerBlock",
        "offset": 0,
        "slot": "51",
        "type": "t_uint256"
      },
      {
        "astId": 21530,
        "contract": "contracts/JumpRateModelV2.sol:JumpRateModelV2",
        "label": "kink",
        "offset": 0,
        "slot": "52",
        "type": "t_uint256"
      }
    ],
    "types": {
      "t_array(t_uint256)48_storage": {
        "base": "t_uint256",
        "encoding": "inplace",
        "label": "uint256[48]",
        "numberOfBytes": "1536"
      },
      "t_contract(IAccessControlManagerV8)7478": {
        "encoding": "inplace",
        "label": "contract IAccessControlManagerV8",
        "numberOfBytes": "20"
      },
      "t_uint256": {
        "encoding": "inplace",
        "label": "uint256",
        "numberOfBytes": "32"
      }
    }
  }
}