{
  "address": "0xa8433F284795aE7f8652127af47482578b58673d",
  "abi": [
    {
      "inputs": [
        {
          "internalType": "contract IVToken",
          "name": "vWrappedNativeToken",
          "type": "address"
        }
      ],
      "stateMutability": "nonpayable",
      "type": "constructor"
    },
    {
      "inputs": [],
      "name": "NativeTokenTransferFailed",
      "type": "error"
    },
    {
      "inputs": [],
      "name": "ZeroAddressNotAllowed",
      "type": "error"
    },
    {
      "inputs": [],
      "name": "ZeroValueNotAllowed",
      "type": "error"
    },
    {
      "anonymous": false,
      "inputs": [
        {
          "indexed": true,
          "internalType": "address",
          "name": "previousOwner",
          "type": "address"
        },
        {
          "indexed": true,
          "internalType": "address",
          "name": "newOwner",
          "type": "address"
        }
      ],
      "name": "OwnershipTransferStarted",
      "type": "event"
    },
    {
      "anonymous": false,
      "inputs": [
        {
          "indexed": true,
          "internalType": "address",
          "name": "previousOwner",
          "type": "address"
        },
        {
          "indexed": true,
          "internalType": "address",
          "name": "newOwner",
          "type": "address"
        }
      ],
      "name": "OwnershipTransferred",
      "type": "event"
    },
    {
      "anonymous": false,
      "inputs": [
        {
          "indexed": true,
          "internalType": "address",
          "name": "receiver",
          "type": "address"
        },
        {
          "indexed": false,
          "internalType": "uint256",
          "name": "amount",
          "type": "uint256"
        }
      ],
      "name": "SweepNative",
      "type": "event"
    },
    {
      "anonymous": false,
      "inputs": [
        {
          "indexed": true,
          "internalType": "address",
          "name": "token",
          "type": "address"
        },
        {
          "indexed": true,
          "internalType": "address",
          "name": "receiver",
          "type": "address"
        },
        {
          "indexed": false,
          "internalType": "uint256",
          "name": "amount",
          "type": "uint256"
        }
      ],
      "name": "SweepToken",
      "type": "event"
    },
    {
      "anonymous": false,
      "inputs": [
        {
          "indexed": true,
          "internalType": "address",
          "name": "sender",
          "type": "address"
        },
        {
          "indexed": true,
          "internalType": "address",
          "name": "vToken",
          "type": "address"
        },
        {
          "indexed": false,
          "internalType": "uint256",
          "name": "amount",
          "type": "uint256"
        }
      ],
      "name": "TokensBorrowedAndUnwrapped",
      "type": "event"
    },
    {
      "anonymous": false,
      "inputs": [
        {
          "indexed": true,
          "internalType": "address",
          "name": "sender",
          "type": "address"
        },
        {
          "indexed": true,
          "internalType": "address",
          "name": "vToken",
          "type": "address"
        },
        {
          "indexed": false,
          "internalType": "uint256",
          "name": "amount",
          "type": "uint256"
        }
      ],
      "name": "TokensRedeemedAndUnwrapped",
      "type": "event"
    },
    {
      "anonymous": false,
      "inputs": [
        {
          "indexed": true,
          "internalType": "address",
          "name": "sender",
          "type": "address"
        },
        {
          "indexed": true,
          "internalType": "address",
          "name": "vToken",
          "type": "address"
        },
        {
          "indexed": false,
          "internalType": "uint256",
          "name": "amount",
          "type": "uint256"
        }
      ],
      "name": "TokensWrappedAndRepaid",
      "type": "event"
    },
    {
      "anonymous": false,
      "inputs": [
        {
          "indexed": true,
          "internalType": "address",
          "name": "sender",
          "type": "address"
        },
        {
          "indexed": true,
          "internalType": "address",
          "name": "vToken",
          "type": "address"
        },
        {
          "indexed": false,
          "internalType": "uint256",
          "name": "amount",
          "type": "uint256"
        }
      ],
      "name": "TokensWrappedAndSupplied",
      "type": "event"
    },
    {
      "stateMutability": "payable",
      "type": "fallback"
    },
    {
      "inputs": [],
      "name": "acceptOwnership",
      "outputs": [],
      "stateMutability": "nonpayable",
      "type": "function"
    },
    {
      "inputs": [
        {
          "internalType": "uint256",
          "name": "borrowAmount",
          "type": "uint256"
        }
      ],
      "name": "borrowAndUnwrap",
      "outputs": [],
      "stateMutability": "nonpayable",
      "type": "function"
    },
    {
      "inputs": [],
      "name": "owner",
      "outputs": [
        {
          "internalType": "address",
          "name": "",
          "type": "address"
        }
      ],
      "stateMutability": "view",
      "type": "function"
    },
    {
      "inputs": [],
      "name": "pendingOwner",
      "outputs": [
        {
          "internalType": "address",
          "name": "",
          "type": "address"
        }
      ],
      "stateMutability": "view",
      "type": "function"
    },
    {
      "inputs": [
        {
          "internalType": "uint256",
          "name": "redeemAmount",
          "type": "uint256"
        }
      ],
      "name": "redeemUnderlyingAndUnwrap",
      "outputs": [],
      "stateMutability": "nonpayable",
      "type": "function"
    },
    {
      "inputs": [],
      "name": "renounceOwnership",
      "outputs": [],
      "stateMutability": "nonpayable",
      "type": "function"
    },
    {
      "inputs": [],
      "name": "sweepNative",
      "outputs": [],
      "stateMutability": "nonpayable",
      "type": "function"
    },
    {
      "inputs": [
        {
          "internalType": "contract IERC20",
          "name": "token",
          "type": "address"
        }
      ],
      "name": "sweepToken",
      "outputs": [],
      "stateMutability": "nonpayable",
      "type": "function"
    },
    {
      "inputs": [
        {
          "internalType": "address",
          "name": "newOwner",
          "type": "address"
        }
      ],
      "name": "transferOwnership",
      "outputs": [],
      "stateMutability": "nonpayable",
      "type": "function"
    },
    {
      "inputs": [],
      "name": "vWNativeToken",
      "outputs": [
        {
          "internalType": "contract IVToken",
          "name": "",
          "type": "address"
        }
      ],
      "stateMutability": "view",
      "type": "function"
    },
    {
      "inputs": [],
      "name": "wNativeToken",
      "outputs": [
        {
          "internalType": "contract IWrappedNative",
          "name": "",
          "type": "address"
        }
      ],
      "stateMutability": "view",
      "type": "function"
    },
    {
      "inputs": [],
      "name": "wrapAndRepay",
      "outputs": [],
      "stateMutability": "payable",
      "type": "function"
    },
    {
      "inputs": [
        {
          "internalType": "address",
          "name": "minter",
          "type": "address"
        }
      ],
      "name": "wrapAndSupply",
      "outputs": [],
      "stateMutability": "payable",
      "type": "function"
    },
    {
      "stateMutability": "payable",
      "type": "receive"
    }
  ],
  "transactionHash": "0x21bdc681f7bb46189ef3f00e243f25b34ff2c9fd75801f9cfcada6e71c47d275",
  "args": [
    "0xe10E80B7FD3a29fE46E16C30CC8F4dd938B742e2"
  ],
  "numDeployments": 1,
  "solcInputHash": "1449136d9e3e63e68a87e69db9e82136",
  "bytecode": "0x60c06040523480156200001157600080fd5b506040516200191738038062001917833981016040819052620000349162000181565b6200003f33620000d5565b60016002556200004f81620000f3565b6001600160a01b03811660a081905260408051636f307dc360e01b81529051636f307dc39160048082019260209290919082900301816000875af11580156200009c573d6000803e3d6000fd5b505050506040513d601f19601f82011682018060405250810190620000c2919062000181565b6001600160a01b031660805250620001a8565b600180546001600160a01b0319169055620000f0816200011b565b50565b6001600160a01b038116620000f0576040516342bcdf7f60e11b815260040160405180910390fd5b600080546001600160a01b038381166001600160a01b0319831681178455604051919092169283917f8be0079c531659141344cd1fd0a4f28419497f9722a3daafe3b4186f6b6457e09190a35050565b6001600160a01b0381168114620000f057600080fd5b6000602082840312156200019457600080fd5b8151620001a1816200016b565b9392505050565b60805160a05161169b6200027c6000396000818160f80152818161049f01528181610645015281816106cf015281816107d9015281816108f20152818161093f015281816109dc01528181610a0401528181610c0d01528181610c4c01528181610ce001528181610d6e01528181610e140152610ee00152600081816101480152818161040d0152818161052d015281816105c70152818161075b01528181610850015281816108ce015281816109ba01528181610b6b01528181610be901528181610df20152610e66015261169b6000f3fe6080604052600436106100bd5760003560e01c80638da5cb5b11610079578063ab803a7611610056578063ab803a7614610205578063e30c39781461021a578063f2fde38b14610238578063ff0f4abd1461025857005b80638da5cb5b146101b45780639cc60d44146101d2578063a86f8221146101f257005b80631be19560146100c657806355a490a7146100e657806359c91f1914610136578063715018a61461016a57806379ba50971461017f57806385ceb1e41461019457005b366100c457005b005b3480156100d257600080fd5b506100c46100e1366004611559565b610260565b3480156100f257600080fd5b5061011a7f000000000000000000000000000000000000000000000000000000000000000081565b6040516001600160a01b03909116815260200160405180910390f35b34801561014257600080fd5b5061011a7f000000000000000000000000000000000000000000000000000000000000000081565b34801561017657600080fd5b506100c4610351565b34801561018b57600080fd5b506100c4610365565b3480156101a057600080fd5b506100c46101af36600461157d565b6103e4565b3480156101c057600080fd5b506000546001600160a01b031661011a565b3480156101de57600080fd5b506100c46101ed36600461157d565b6106a2565b6100c4610200366004611559565b610833565b34801561021157600080fd5b506100c4610a7a565b34801561022657600080fd5b506001546001600160a01b031661011a565b34801561024457600080fd5b506100c4610253366004611559565b610ae6565b6100c4610b57565b610268610f49565b6040516370a0823160e01b81523060048201526000906001600160a01b038316906370a0823190602401602060405180830381865afa1580156102af573d6000803e3d6000fd5b505050506040513d601f19601f820116820180604052508101906102d39190611596565b9050801561034d57600080546001600160a01b031690506102fe6001600160a01b0384168284610fa3565b806001600160a01b0316836001600160a01b03167f6d25be279134f4ecaa4770aff0c3d916d9e7c5ef37b65ed95dbdba411f5d54d58460405161034391815260200190565b60405180910390a3505b5050565b610359610f49565b610363600061100b565b565b60015433906001600160a01b031681146103d85760405162461bcd60e51b815260206004820152602960248201527f4f776e61626c6532537465703a2063616c6c6572206973206e6f7420746865206044820152683732bb9037bbb732b960b91b60648201526084015b60405180910390fd5b6103e18161100b565b50565b6103ec611024565b6103f58161107b565b6040516370a0823160e01b81523060048201526000907f00000000000000000000000000000000000000000000000000000000000000006001600160a01b0316906370a0823190602401602060405180830381865afa15801561045c573d6000803e3d6000fd5b505050506040513d601f19601f820116820180604052508101906104809190611596565b604051636f9d28b760e11b8152336004820152602481018490529091507f00000000000000000000000000000000000000000000000000000000000000006001600160a01b03169063df3a516e906044016020604051808303816000875af11580156104f0573d6000803e3d6000fd5b505050506040513d601f19601f820116820180604052508101906105149190611596565b506040516370a0823160e01b81523060048201526000907f00000000000000000000000000000000000000000000000000000000000000006001600160a01b0316906370a0823190602401602060405180830381865afa15801561057c573d6000803e3d6000fd5b505050506040513d601f19601f820116820180604052508101906105a09190611596565b905060006105ae83836115af565b604051632e1a7d4d60e01b8152600481018290529091507f00000000000000000000000000000000000000000000000000000000000000006001600160a01b031690632e1a7d4d90602401600060405180830381600087803b15801561061357600080fd5b505af1158015610627573d6000803e3d6000fd5b50505050610635338261109c565b6040518181526001600160a01b037f0000000000000000000000000000000000000000000000000000000000000000169033907faf321c699f4cc4970eef3edf8fe2a0a395a3f5b62c6e91958cad3d424952436b9060200160405180910390a35050506103e16001600255565b6106aa611024565b6106b38161107b565b60405163856e5bb360e01b8152336004820152602481018290527f00000000000000000000000000000000000000000000000000000000000000006001600160a01b03169063856e5bb3906044016020604051808303816000875af1158015610720573d6000803e3d6000fd5b505050506040513d601f19601f820116820180604052508101906107449190611596565b50604051632e1a7d4d60e01b8152600481018290527f00000000000000000000000000000000000000000000000000000000000000006001600160a01b031690632e1a7d4d90602401600060405180830381600087803b1580156107a757600080fd5b505af11580156107bb573d6000803e3d6000fd5b505050506107c9338261109c565b6040518181526001600160a01b037f0000000000000000000000000000000000000000000000000000000000000000169033907f3b325d03ea6fc2aa5ba54c0fd65bb0febe127cb8c7ff01f190fcddf2893b80699060200160405180910390a36103e16001600255565b61083b611024565b6108448161112a565b3461084e8161107b565b7f00000000000000000000000000000000000000000000000000000000000000006001600160a01b031663d0e30db0826040518263ffffffff1660e01b81526004016000604051808303818588803b1580156108a957600080fd5b505af11580156108bd573d6000803e3d6000fd5b506109199350506001600160a01b037f00000000000000000000000000000000000000000000000000000000000000001691507f0000000000000000000000000000000000000000000000000000000000000000905083611151565b6040516323323e0360e01b81526001600160a01b038381166004830152602482018390527f000000000000000000000000000000000000000000000000000000000000000016906323323e03906044016020604051808303816000875af1158015610988573d6000803e3d6000fd5b505050506040513d601f19601f820116820180604052508101906109ac9190611596565b50610a026001600160a01b037f0000000000000000000000000000000000000000000000000000000000000000167f00000000000000000000000000000000000000000000000000000000000000006000611151565b7f00000000000000000000000000000000000000000000000000000000000000006001600160a01b0316826001600160a01b03167ffc54dd2cff8bcf58b0746818b1d9aac56525760131df031a96427ecd6e56124483604051610a6791815260200190565b60405180910390a3506103e16001600255565b610a82610f49565b4780156103e1576000546001600160a01b0316610a9f818361109c565b806001600160a01b03167f0a1dd7c5bdc40ecbdefc1bfda22f1dfb98c8fc3e3940aab73ad7fba37720d0a083604051610ada91815260200190565b60405180910390a25050565b610aee610f49565b600180546001600160a01b0383166001600160a01b03199091168117909155610b1f6000546001600160a01b031690565b6001600160a01b03167f38d16b8cac22d99fc7c124b9cd0de2d3fa1faef420bfe791d8c362d765e2270060405160405180910390a350565b610b5f611024565b34610b698161107b565b7f00000000000000000000000000000000000000000000000000000000000000006001600160a01b031663d0e30db0826040518263ffffffff1660e01b81526004016000604051808303818588803b158015610bc457600080fd5b505af1158015610bd8573d6000803e3d6000fd5b50610c349350506001600160a01b037f00000000000000000000000000000000000000000000000000000000000000001691507f0000000000000000000000000000000000000000000000000000000000000000905083611151565b6040516305eff7ef60e21b81523360048201526000907f00000000000000000000000000000000000000000000000000000000000000006001600160a01b0316906317bfdfbc906024016020604051808303816000875af1158015610c9d573d6000803e3d6000fd5b505050506040513d601f19601f82011682018060405250810190610cc19190611596565b6040516304c11f0360e31b8152336004820152602481018490529091507f00000000000000000000000000000000000000000000000000000000000000006001600160a01b031690632608f818906044016020604051808303816000875af1158015610d31573d6000803e3d6000fd5b505050506040513d601f19601f82011682018060405250810190610d559190611596565b506040516305eff7ef60e21b81523360048201526000907f00000000000000000000000000000000000000000000000000000000000000006001600160a01b0316906317bfdfbc906024016020604051808303816000875af1158015610dbf573d6000803e3d6000fd5b505050506040513d601f19601f82011682018060405250810190610de39190611596565b9050610e3a6001600160a01b037f0000000000000000000000000000000000000000000000000000000000000000167f00000000000000000000000000000000000000000000000000000000000000006000611151565b80158015610e4757508183115b15610ed657604051632e1a7d4d60e01b815282840360048201819052907f00000000000000000000000000000000000000000000000000000000000000006001600160a01b031690632e1a7d4d90602401600060405180830381600087803b158015610eb257600080fd5b505af1158015610ec6573d6000803e3d6000fd5b50505050610ed4338261109c565b505b6001600160a01b037f000000000000000000000000000000000000000000000000000000000000000016337e2a489ca326b23ea0117956ee9d62960c53a81b8f57fafd608e56f57f324168610f2b84866115af565b60405190815260200160405180910390a35050506103636001600255565b6000546001600160a01b031633146103635760405162461bcd60e51b815260206004820181905260248201527f4f776e61626c653a2063616c6c6572206973206e6f7420746865206f776e657260448201526064016103cf565b6040516001600160a01b03831660248201526044810182905261100690849063a9059cbb60e01b906064015b60408051601f198184030181529190526020810180516001600160e01b03166001600160e01b0319909316929092179091526111e6565b505050565b600180546001600160a01b03191690556103e1816112bb565b60028054036110755760405162461bcd60e51b815260206004820152601f60248201527f5265656e7472616e637947756172643a207265656e7472616e742063616c6c0060448201526064016103cf565b60028055565b806000036103e15760405163273e150360e21b815260040160405180910390fd5b604080516000808252602082019092526001600160a01b0384169083906040516110c691906115f4565b60006040518083038185875af1925050503d8060008114611103576040519150601f19603f3d011682016040523d82523d6000602084013e611108565b606091505b505090508061100657604051630c08bcb960e21b815260040160405180910390fd5b6001600160a01b0381166103e1576040516342bcdf7f60e11b815260040160405180910390fd5b604080516001600160a01b038416602482015260448082018490528251808303909101815260649091019091526020810180516001600160e01b031663095ea7b360e01b1790526111a2848261130b565b6111e0576040516001600160a01b0384166024820152600060448201526111d690859063095ea7b360e01b90606401610fcf565b6111e084826111e6565b50505050565b600061123b826040518060400160405280602081526020017f5361666545524332303a206c6f772d6c6576656c2063616c6c206661696c6564815250856001600160a01b03166113b49092919063ffffffff16565b905080516000148061125c57508080602001905181019061125c9190611610565b6110065760405162461bcd60e51b815260206004820152602a60248201527f5361666545524332303a204552433230206f7065726174696f6e20646964206e6044820152691bdd081cdd58d8d9595960b21b60648201526084016103cf565b600080546001600160a01b038381166001600160a01b0319831681178455604051919092169283917f8be0079c531659141344cd1fd0a4f28419497f9722a3daafe3b4186f6b6457e09190a35050565b6000806000846001600160a01b03168460405161132891906115f4565b6000604051808303816000865af19150503d8060008114611365576040519150601f19603f3d011682016040523d82523d6000602084013e61136a565b606091505b50915091508180156113945750805115806113945750808060200190518101906113949190611610565b80156113a957506001600160a01b0385163b15155b925050505b92915050565b60606113c384846000856113cb565b949350505050565b60608247101561142c5760405162461bcd60e51b815260206004820152602660248201527f416464726573733a20696e73756666696369656e742062616c616e636520666f6044820152651c8818d85b1b60d21b60648201526084016103cf565b600080866001600160a01b0316858760405161144891906115f4565b60006040518083038185875af1925050503d8060008114611485576040519150601f19603f3d011682016040523d82523d6000602084013e61148a565b606091505b509150915061149b878383876114a6565b979650505050505050565b6060831561151557825160000361150e576001600160a01b0385163b61150e5760405162461bcd60e51b815260206004820152601d60248201527f416464726573733a2063616c6c20746f206e6f6e2d636f6e747261637400000060448201526064016103cf565b50816113c3565b6113c3838381511561152a5781518083602001fd5b8060405162461bcd60e51b81526004016103cf9190611632565b6001600160a01b03811681146103e157600080fd5b60006020828403121561156b57600080fd5b813561157681611544565b9392505050565b60006020828403121561158f57600080fd5b5035919050565b6000602082840312156115a857600080fd5b5051919050565b818103818111156113ae57634e487b7160e01b600052601160045260246000fd5b60005b838110156115eb5781810151838201526020016115d3565b50506000910152565b600082516116068184602087016115d0565b9190910192915050565b60006020828403121561162257600080fd5b8151801515811461157657600080fd5b60208152600082518060208401526116518160408501602087016115d0565b601f01601f1916919091016040019291505056fea2646970667358221220787557e16e9dde0d0782b7f43a4bd490204ed99ef48ec497514d390be6c7618964736f6c63430008140033",
  "devdoc": {
    "author": "Venus",
    "events": {
      "SweepNative(address,uint256)": {
        "details": "Emitted when native asset is swept from the contract"
      },
      "SweepToken(address,address,uint256)": {
        "details": "Emitted when wNativeToken is swept from the contract"
      },
      "TokensBorrowedAndUnwrapped(address,address,uint256)": {
        "details": "Emitted when native tokens are borrowed and unwrapped"
      },
      "TokensRedeemedAndUnwrapped(address,address,uint256)": {
        "details": "Emitted when tokens are redeemed and then unwrapped to be sent to user"
      },
      "TokensWrappedAndRepaid(address,address,uint256)": {
        "details": "Emitted when native currency is wrapped and repaid"
      },
      "TokensWrappedAndSupplied(address,address,uint256)": {
        "details": "Emitted when native currency is supplied"
      }
    },
    "kind": "dev",
    "methods": {
      "acceptOwnership()": {
        "details": "The new owner accepts the ownership transfer."
      },
      "borrowAndUnwrap(uint256)": {
        "custom:error": "ZeroValueNotAllowed is thrown if borrowAmount is zero",
        "custom:event": "TokensBorrowedAndUnwrapped is emitted when assets are borrowed from a market and unwrapped",
        "details": "Borrow wNativeToken, unwrap to Native, and send to the user",
        "params": {
          "borrowAmount": "The amount of underlying tokens to borrow"
        }
      },
      "constructor": {
        "params": {
          "vWrappedNativeToken": "Address of wrapped native token market"
        }
      },
      "owner()": {
        "details": "Returns the address of the current owner."
      },
      "pendingOwner()": {
        "details": "Returns the address of the pending owner."
      },
      "redeemUnderlyingAndUnwrap(uint256)": {
        "custom:error": "ZeroValueNotAllowed is thrown if redeemAmount is zero",
        "custom:event": "TokensRedeemedAndUnwrapped is emitted when assets are redeemed from a market and unwrapped",
        "params": {
          "redeemAmount": "The amount of underlying tokens to redeem"
        }
      },
      "renounceOwnership()": {
        "details": "Leaves the contract without owner. It will not be possible to call `onlyOwner` functions. Can only be called by the current owner. NOTE: Renouncing ownership will leave the contract without an owner, thereby disabling any functionality that is only available to the owner."
      },
      "sweepNative()": {
        "custom:access": "Controlled by Governance",
        "custom:event": "SweepNative is emitted when assets are swept from the contract"
      },
      "sweepToken(address)": {
        "custom:access": "Controlled by Governance",
        "custom:event": "SweepToken emits on success",
        "params": {
          "token": "Address of the token"
        }
      },
      "transferOwnership(address)": {
        "details": "Starts the ownership transfer of the contract to a new account. Replaces the pending transfer if there is one. Can only be called by the current owner."
      },
      "wrapAndRepay()": {
        "custom:error": "ZeroValueNotAllowed is thrown if repayAmount is zero",
        "custom:event": "TokensWrappedAndRepaid is emitted when assets are repaid to a market and unwrapped"
      },
      "wrapAndSupply(address)": {
        "custom:error": "ZeroAddressNotAllowed is thrown if address of minter is zero addressZeroValueNotAllowed is thrown if mintAmount is zero",
        "custom:event": "TokensWrappedAndSupplied is emitted when assets are supplied to the market",
        "params": {
          "minter": "The address on behalf of whom the supply is performed."
        }
      }
    },
    "title": "NativeTokenGateway",
    "version": 1
  },
  "userdoc": {
    "errors": {
      "NativeTokenTransferFailed()": [
        {
          "notice": "Thrown if transfer of native token fails"
        }
      ],
      "ZeroAddressNotAllowed()": [
        {
          "notice": "Thrown if the supplied address is a zero address where it is not allowed"
        }
      ],
      "ZeroValueNotAllowed()": [
        {
          "notice": "Thrown if the supplied value is 0 where it is not allowed"
        }
      ]
    },
    "kind": "user",
    "methods": {
      "constructor": {
        "notice": "Constructor for NativeTokenGateway"
      },
      "redeemUnderlyingAndUnwrap(uint256)": {
        "notice": "Redeem vWNativeToken, unwrap to Native Token, and send to the user"
      },
      "sweepNative()": {
        "notice": "Sweeps native assets (Native) from the contract and sends them to the owner"
      },
      "sweepToken(address)": {
        "notice": "Sweeps the input token address tokens from the contract and sends them to the owner"
      },
      "vWNativeToken()": {
        "notice": "Address of wrapped native token market"
      },
      "wNativeToken()": {
        "notice": "Address of wrapped native token contract"
      },
      "wrapAndRepay()": {
        "notice": "Wrap Native, repay borrow in the market, and send remaining Native to the user"
      },
      "wrapAndSupply(address)": {
        "notice": "Wrap Native, get wNativeToken, mint vWNativeToken, and supply to the market."
      }
    },
    "notice": "NativeTokenGateway contract facilitates interactions with a vToken market for native tokens (Native or wNativeToken)",
    "version": 1
  },
  "storageLayout": {
    "storage": [
      {
        "astId": 3501,
        "contract": "contracts/Gateway/NativeTokenGateway.sol:NativeTokenGateway",
        "label": "_owner",
        "offset": 0,
        "slot": "0",
        "type": "t_address"
      },
      {
        "astId": 3614,
        "contract": "contracts/Gateway/NativeTokenGateway.sol:NativeTokenGateway",
        "label": "_pendingOwner",
        "offset": 0,
        "slot": "1",
        "type": "t_address"
      },
      {
        "astId": 4238,
        "contract": "contracts/Gateway/NativeTokenGateway.sol:NativeTokenGateway",
        "label": "_status",
        "offset": 0,
        "slot": "2",
        "type": "t_uint256"
      }
    ],
    "types": {
      "t_address": {
        "encoding": "inplace",
        "label": "address",
        "numberOfBytes": "20"
      },
      "t_uint256": {
        "encoding": "inplace",
        "label": "uint256",
        "numberOfBytes": "32"
      }
    }
  }
}