{
  "address": "0x470443271a416214841a617cbFB8b2f060dDb830",
  "abi": [
    {
      "inputs": [
        {
          "internalType": "address",
          "name": "corePoolComptroller_",
          "type": "address"
        },
        {
          "internalType": "address",
          "name": "vbnb_",
          "type": "address"
        },
        {
          "internalType": "address",
          "name": "nativeWrapped_",
          "type": "address"
        }
      ],
      "stateMutability": "nonpayable",
      "type": "constructor"
    },
    {
      "inputs": [],
      "name": "ApproveFailed",
      "type": "error"
    },
    {
      "inputs": [
        {
          "internalType": "uint256",
          "name": "loopsLimit",
          "type": "uint256"
        },
        {
          "internalType": "uint256",
          "name": "requiredLoops",
          "type": "uint256"
        }
      ],
      "name": "MaxLoopsLimitExceeded",
      "type": "error"
    },
    {
      "inputs": [
        {
          "internalType": "address",
          "name": "sender",
          "type": "address"
        },
        {
          "internalType": "address",
          "name": "calledContract",
          "type": "address"
        },
        {
          "internalType": "string",
          "name": "methodSignature",
          "type": "string"
        }
      ],
      "name": "Unauthorized",
      "type": "error"
    },
    {
      "inputs": [],
      "name": "ZeroAddressNotAllowed",
      "type": "error"
    },
    {
      "anonymous": false,
      "inputs": [
        {
          "indexed": true,
          "internalType": "address",
          "name": "comptroller",
          "type": "address"
        },
        {
          "indexed": true,
          "internalType": "address",
          "name": "asset",
          "type": "address"
        },
        {
          "indexed": false,
          "internalType": "uint256",
          "name": "amount",
          "type": "uint256"
        }
      ],
      "name": "AssetsReservesUpdated",
      "type": "event"
    },
    {
      "anonymous": false,
      "inputs": [
        {
          "indexed": true,
          "internalType": "address",
          "name": "oldConvertibleBaseAsset",
          "type": "address"
        },
        {
          "indexed": true,
          "internalType": "address",
          "name": "newConvertibleBaseAsset",
          "type": "address"
        }
      ],
      "name": "ConvertibleBaseAssetUpdated",
      "type": "event"
    },
    {
      "anonymous": false,
      "inputs": [
        {
          "indexed": false,
          "internalType": "uint8",
          "name": "version",
          "type": "uint8"
        }
      ],
      "name": "Initialized",
      "type": "event"
    },
    {
      "anonymous": false,
      "inputs": [
        {
          "indexed": false,
          "internalType": "uint256",
          "name": "oldMaxLoopsLimit",
          "type": "uint256"
        },
        {
          "indexed": false,
          "internalType": "uint256",
          "name": "newmaxLoopsLimit",
          "type": "uint256"
        }
      ],
      "name": "MaxLoopsLimitUpdated",
      "type": "event"
    },
    {
      "anonymous": false,
      "inputs": [
        {
          "indexed": false,
          "internalType": "uint256",
          "name": "oldMinAmountToConvert",
          "type": "uint256"
        },
        {
          "indexed": false,
          "internalType": "uint256",
          "name": "newMinAmountToConvert",
          "type": "uint256"
        }
      ],
      "name": "MinAmountToConvertUpdated",
      "type": "event"
    },
    {
      "anonymous": false,
      "inputs": [
        {
          "indexed": false,
          "internalType": "address",
          "name": "oldAccessControlManager",
          "type": "address"
        },
        {
          "indexed": false,
          "internalType": "address",
          "name": "newAccessControlManager",
          "type": "address"
        }
      ],
      "name": "NewAccessControlManager",
      "type": "event"
    },
    {
      "anonymous": false,
      "inputs": [
        {
          "indexed": true,
          "internalType": "address",
          "name": "previousOwner",
          "type": "address"
        },
        {
          "indexed": true,
          "internalType": "address",
          "name": "newOwner",
          "type": "address"
        }
      ],
      "name": "OwnershipTransferStarted",
      "type": "event"
    },
    {
      "anonymous": false,
      "inputs": [
        {
          "indexed": true,
          "internalType": "address",
          "name": "previousOwner",
          "type": "address"
        },
        {
          "indexed": true,
          "internalType": "address",
          "name": "newOwner",
          "type": "address"
        }
      ],
      "name": "OwnershipTransferred",
      "type": "event"
    },
    {
      "anonymous": false,
      "inputs": [
        {
          "indexed": true,
          "internalType": "address",
          "name": "oldPancakeSwapRouter",
          "type": "address"
        },
        {
          "indexed": true,
          "internalType": "address",
          "name": "newPancakeSwapRouter",
          "type": "address"
        }
      ],
      "name": "PancakeSwapRouterUpdated",
      "type": "event"
    },
    {
      "anonymous": false,
      "inputs": [
        {
          "indexed": true,
          "internalType": "address",
          "name": "oldPoolRegistry",
          "type": "address"
        },
        {
          "indexed": true,
          "internalType": "address",
          "name": "newPoolRegistry",
          "type": "address"
        }
      ],
      "name": "PoolRegistryUpdated",
      "type": "event"
    },
    {
      "anonymous": false,
      "inputs": [
        {
          "indexed": true,
          "internalType": "address",
          "name": "oldShortfallContract",
          "type": "address"
        },
        {
          "indexed": true,
          "internalType": "address",
          "name": "newShortfallContract",
          "type": "address"
        }
      ],
      "name": "ShortfallContractUpdated",
      "type": "event"
    },
    {
      "anonymous": false,
      "inputs": [
        {
          "indexed": false,
          "internalType": "address[]",
          "name": "markets",
          "type": "address[]"
        },
        {
          "indexed": false,
          "internalType": "uint256[]",
          "name": "amountsOutMin",
          "type": "uint256[]"
        },
        {
          "indexed": false,
          "internalType": "uint256",
          "name": "totalAmount",
          "type": "uint256"
        }
      ],
      "name": "SwappedPoolsAssets",
      "type": "event"
    },
    {
      "anonymous": false,
      "inputs": [
        {
          "indexed": true,
          "internalType": "address",
          "name": "token",
          "type": "address"
        },
        {
          "indexed": true,
          "internalType": "address",
          "name": "to",
          "type": "address"
        },
        {
          "indexed": false,
          "internalType": "uint256",
          "name": "amount",
          "type": "uint256"
        }
      ],
      "name": "SweepToken",
      "type": "event"
    },
    {
      "anonymous": false,
      "inputs": [
        {
          "indexed": true,
          "internalType": "address",
          "name": "comptroller",
          "type": "address"
        },
        {
          "indexed": false,
          "internalType": "uint256",
          "name": "amount",
          "type": "uint256"
        }
      ],
      "name": "TransferredReserveForAuction",
      "type": "event"
    },
    {
      "inputs": [],
      "name": "CORE_POOL_COMPTROLLER",
      "outputs": [
        {
          "internalType": "address",
          "name": "",
          "type": "address"
        }
      ],
      "stateMutability": "view",
      "type": "function"
    },
    {
      "inputs": [],
      "name": "NATIVE_WRAPPED",
      "outputs": [
        {
          "internalType": "address",
          "name": "",
          "type": "address"
        }
      ],
      "stateMutability": "view",
      "type": "function"
    },
    {
      "inputs": [],
      "name": "VBNB",
      "outputs": [
        {
          "internalType": "address",
          "name": "",
          "type": "address"
        }
      ],
      "stateMutability": "view",
      "type": "function"
    },
    {
      "inputs": [],
      "name": "acceptOwnership",
      "outputs": [],
      "stateMutability": "nonpayable",
      "type": "function"
    },
    {
      "inputs": [],
      "name": "accessControlManager",
      "outputs": [
        {
          "internalType": "contract IAccessControlManagerV8",
          "name": "",
          "type": "address"
        }
      ],
      "stateMutability": "view",
      "type": "function"
    },
    {
      "inputs": [
        {
          "internalType": "address",
          "name": "",
          "type": "address"
        }
      ],
      "name": "assetsReserves",
      "outputs": [
        {
          "internalType": "uint256",
          "name": "",
          "type": "uint256"
        }
      ],
      "stateMutability": "view",
      "type": "function"
    },
    {
      "inputs": [],
      "name": "convertibleBaseAsset",
      "outputs": [
        {
          "internalType": "address",
          "name": "",
          "type": "address"
        }
      ],
      "stateMutability": "view",
      "type": "function"
    },
    {
      "inputs": [
        {
          "internalType": "address",
          "name": "comptroller",
          "type": "address"
        },
        {
          "internalType": "address",
          "name": "asset",
          "type": "address"
        }
      ],
      "name": "getPoolAssetReserve",
      "outputs": [
        {
          "internalType": "uint256",
          "name": "",
          "type": "uint256"
        }
      ],
      "stateMutability": "view",
      "type": "function"
    },
    {
      "inputs": [
        {
          "internalType": "address",
          "name": "comptroller",
          "type": "address"
        }
      ],
      "name": "getPoolsBaseAssetReserves",
      "outputs": [
        {
          "internalType": "uint256",
          "name": "",
          "type": "uint256"
        }
      ],
      "stateMutability": "view",
      "type": "function"
    },
    {
      "inputs": [
        {
          "internalType": "address",
          "name": "pancakeSwapRouter_",
          "type": "address"
        },
        {
          "internalType": "uint256",
          "name": "minAmountToConvert_",
          "type": "uint256"
        },
        {
          "internalType": "address",
          "name": "convertibleBaseAsset_",
          "type": "address"
        },
        {
          "internalType": "address",
          "name": "accessControlManager_",
          "type": "address"
        },
        {
          "internalType": "uint256",
          "name": "loopsLimit_",
          "type": "uint256"
        }
      ],
      "name": "initialize",
      "outputs": [],
      "stateMutability": "nonpayable",
      "type": "function"
    },
    {
      "inputs": [],
      "name": "maxLoopsLimit",
      "outputs": [
        {
          "internalType": "uint256",
          "name": "",
          "type": "uint256"
        }
      ],
      "stateMutability": "view",
      "type": "function"
    },
    {
      "inputs": [],
      "name": "minAmountToConvert",
      "outputs": [
        {
          "internalType": "uint256",
          "name": "",
          "type": "uint256"
        }
      ],
      "stateMutability": "view",
      "type": "function"
    },
    {
      "inputs": [],
      "name": "owner",
      "outputs": [
        {
          "internalType": "address",
          "name": "",
          "type": "address"
        }
      ],
      "stateMutability": "view",
      "type": "function"
    },
    {
      "inputs": [],
      "name": "pancakeSwapRouter",
      "outputs": [
        {
          "internalType": "address",
          "name": "",
          "type": "address"
        }
      ],
      "stateMutability": "view",
      "type": "function"
    },
    {
      "inputs": [],
      "name": "pendingOwner",
      "outputs": [
        {
          "internalType": "address",
          "name": "",
          "type": "address"
        }
      ],
      "stateMutability": "view",
      "type": "function"
    },
    {
      "inputs": [],
      "name": "poolRegistry",
      "outputs": [
        {
          "internalType": "address",
          "name": "",
          "type": "address"
        }
      ],
      "stateMutability": "view",
      "type": "function"
    },
    {
      "inputs": [],
      "name": "renounceOwnership",
      "outputs": [],
      "stateMutability": "nonpayable",
      "type": "function"
    },
    {
      "inputs": [
        {
          "internalType": "address",
          "name": "accessControlManager_",
          "type": "address"
        }
      ],
      "name": "setAccessControlManager",
      "outputs": [],
      "stateMutability": "nonpayable",
      "type": "function"
    },
    {
      "inputs": [
        {
          "internalType": "address",
          "name": "_convertibleBaseAsset",
          "type": "address"
        }
      ],
      "name": "setConvertibleBaseAsset",
      "outputs": [],
      "stateMutability": "nonpayable",
      "type": "function"
    },
    {
      "inputs": [
        {
          "internalType": "uint256",
          "name": "limit",
          "type": "uint256"
        }
      ],
      "name": "setMaxLoopsLimit",
      "outputs": [],
      "stateMutability": "nonpayable",
      "type": "function"
    },
    {
      "inputs": [
        {
          "internalType": "uint256",
          "name": "minAmountToConvert_",
          "type": "uint256"
        }
      ],
      "name": "setMinAmountToConvert",
      "outputs": [],
      "stateMutability": "nonpayable",
      "type": "function"
    },
    {
      "inputs": [
        {
          "internalType": "address",
          "name": "pancakeSwapRouter_",
          "type": "address"
        }
      ],
      "name": "setPancakeSwapRouter",
      "outputs": [],
      "stateMutability": "nonpayable",
      "type": "function"
    },
    {
      "inputs": [
        {
          "internalType": "address",
          "name": "poolRegistry_",
          "type": "address"
        }
      ],
      "name": "setPoolRegistry",
      "outputs": [],
      "stateMutability": "nonpayable",
      "type": "function"
    },
    {
      "inputs": [
        {
          "internalType": "address",
          "name": "shortfallContractAddress_",
          "type": "address"
        }
      ],
      "name": "setShortfallContractAddress",
      "outputs": [],
      "stateMutability": "nonpayable",
      "type": "function"
    },
    {
      "inputs": [],
      "name": "shortfall",
      "outputs": [
        {
          "internalType": "address",
          "name": "",
          "type": "address"
        }
      ],
      "stateMutability": "view",
      "type": "function"
    },
    {
      "inputs": [
        {
          "internalType": "address[]",
          "name": "markets",
          "type": "address[]"
        },
        {
          "internalType": "uint256[]",
          "name": "amountsOutMin",
          "type": "uint256[]"
        },
        {
          "internalType": "address[][]",
          "name": "paths",
          "type": "address[][]"
        },
        {
          "internalType": "uint256",
          "name": "deadline",
          "type": "uint256"
        }
      ],
      "name": "swapPoolsAssets",
      "outputs": [
        {
          "internalType": "uint256",
          "name": "",
          "type": "uint256"
        }
      ],
      "stateMutability": "nonpayable",
      "type": "function"
    },
    {
      "inputs": [
        {
          "internalType": "address",
          "name": "_token",
          "type": "address"
        },
        {
          "internalType": "address",
          "name": "_to",
          "type": "address"
        }
      ],
      "name": "sweepToken",
      "outputs": [],
      "stateMutability": "nonpayable",
      "type": "function"
    },
    {
      "inputs": [
        {
          "internalType": "address",
          "name": "newOwner",
          "type": "address"
        }
      ],
      "name": "transferOwnership",
      "outputs": [],
      "stateMutability": "nonpayable",
      "type": "function"
    },
    {
      "inputs": [
        {
          "internalType": "address",
          "name": "comptroller",
          "type": "address"
        },
        {
          "internalType": "uint256",
          "name": "amount",
          "type": "uint256"
        }
      ],
      "name": "transferReserveForAuction",
      "outputs": [
        {
          "internalType": "uint256",
          "name": "",
          "type": "uint256"
        }
      ],
      "stateMutability": "nonpayable",
      "type": "function"
    },
    {
      "inputs": [
        {
          "internalType": "address",
          "name": "comptroller",
          "type": "address"
        },
        {
          "internalType": "address",
          "name": "asset",
          "type": "address"
        }
      ],
      "name": "updateAssetsState",
      "outputs": [],
      "stateMutability": "nonpayable",
      "type": "function"
    }
  ],
  "transactionHash": "0xf1bb734413dee3f943e457c8734e4b66e3dd8dd9783329b88c273f4780e95ef6",
  "args": [
    "0xfD36E2c2a6789Db23113685031d7F16329158384",
    "0xA07c5b74C9B40447a954e1466938b865b6BBea36",
    "0xbb4CdB9CBd36B01bD1cBaEBF2De08d9173bc095c"
  ],
  "numDeployments": 1,
  "solcInputHash": "f237ea044837d6f4ff4c08abcdd27558",
  "bytecode": "0x60e06040523480156200001157600080fd5b50604051620032b8380380620032b883398101604081905262000034916200018c565b828282620000428362000083565b6200004d8262000083565b620000588162000083565b6001600160a01b0392831660805290821660a0521660c0526200007a620000ae565b505050620001d6565b6001600160a01b038116620000ab576040516342bcdf7f60e11b815260040160405180910390fd5b50565b600054610100900460ff16156200011b5760405162461bcd60e51b815260206004820152602760248201527f496e697469616c697a61626c653a20636f6e747261637420697320696e697469604482015266616c697a696e6760c81b606482015260840160405180910390fd5b60005460ff908116146200016d576000805460ff191660ff9081179091556040519081527f7f26b83ff96e1f2b6a682f133852f6798a09c465da95921460cefb38474024989060200160405180910390a15b565b80516001600160a01b03811681146200018757600080fd5b919050565b600080600060608486031215620001a257600080fd5b620001ad846200016f565b9250620001bd602085016200016f565b9150620001cd604085016200016f565b90509250925092565b60805160a05160c05161309662000222600039600081816102bf015261258601526000818161029801526124c3015260008181610437015281816122df015261240c01526130966000f3fe608060405234801561001057600080fd5b50600436106101da5760003560e01c806377d4937f11610104578063afcff50f116100a2578063e30c397811610071578063e30c39781461040e578063f2fde38b1461041f578063fa7b81a014610432578063fe3da9841461045957600080fd5b8063afcff50f146103cd578063b4a0bdf3146103e0578063be26317e146103f1578063c8ecc0d3146103fa57600080fd5b806380d45a2d116100de57806380d45a2d146103835780638da5cb5b14610396578063a69bd19e146103a7578063aac59a75146103ba57600080fd5b806377d4937f1461035557806379ba5097146103685780637b77cd6a1461037057600080fd5b80633421fc521161017c5780635f30e37b1161014b5780635f30e37b146103145780636fb0527514610327578063715018a61461033a578063746460a91461034257600080fd5b80633421fc5214610293578063362b6795146102ba578063439b5517146102e15780634dd9584a1461030157600080fd5b806324558995116101b85780632455899514610246578063258836fe1461025a5780632a1d05471461026d5780632e6881411461028057600080fd5b80630a9837c5146101df5780630e32cb861461020557806319b1faef1461021a575b600080fd5b6101f26101ed366004612779565b610463565b6040519081526020015b60405180910390f35b6102186102133660046127a5565b610632565b005b61012e5461022e906001600160a01b031681565b6040516001600160a01b0390911681526020016101fc565b61012f5461022e906001600160a01b031681565b6102186102683660046127c2565b610646565b61021861027b3660046127fb565b6107d7565b61021861028e3660046127a5565b6109c8565b61022e7f000000000000000000000000000000000000000000000000000000000000000081565b61022e7f000000000000000000000000000000000000000000000000000000000000000081565b6101f26102ef3660046127a5565b60c96020526000908152604090205481565b61021861030f3660046127a5565b610acd565b6101f26103223660046128a2565b610b31565b6101f26103353660046127c2565b611085565b61021861113b565b610218610350366004612945565b61114f565b6102186103633660046127a5565b6111f4565b610218611258565b61021861037e3660046127a5565b6112cf565b610218610391366004612945565b611332565b6033546001600160a01b031661022e565b6101f26103b53660046127a5565b611343565b6102186103c83660046127c2565b61142f565b60cb5461022e906001600160a01b031681565b6097546001600160a01b031661022e565b6101f260fb5481565b61012d5461022e906001600160a01b031681565b6065546001600160a01b031661022e565b61021861042d3660046127a5565b61143d565b61022e7f000000000000000000000000000000000000000000000000000000000000000081565b6101f26101305481565b6000600260cc54036104905760405162461bcd60e51b81526004016104879061295e565b60405180910390fd5b600260cc5561012e546001600160a01b03163381146105085760405162461bcd60e51b815260206004820152602e60248201527f5269736b2066756e643a204f6e6c792063616c6c61626c652062792053686f7260448201526d1d19985b1b0818dbdb9d1c9858dd60921b6064820152608401610487565b6001600160a01b03808516600090815260ca6020908152604080832061012d549094168352929052205483111561058f5760405162461bcd60e51b815260206004820152602560248201527f5269736b2046756e643a20496e73756666696369656e7420706f6f6c2072657360448201526432b93b329760d91b6064820152608401610487565b6001600160a01b03808516600081815260ca6020908152604080832061012d80548716855290835281842080548a9003905554909416825260c990528290208054869003905590517fc8d0a37ed16dfaa43514df00e18f478b60d5cc7b4bfc687103948b9020f737fd906106069086815260200190565b60405180910390a261012d54610626906001600160a01b031682856114ae565b5050600160cc55919050565b61063a611505565b6106438161155f565b50565b61064e611505565b600260cc54036106705760405162461bcd60e51b81526004016104879061295e565b600260cc5561067e8161161d565b6040516370a0823160e01b815230600482015260009081906001600160a01b038516906370a0823190602401602060405180830381865afa1580156106c7573d6000803e3d6000fd5b505050506040513d601f19601f820116820180604052508101906106eb9190612982565b6001600160a01b038516600090815260c9602052604090205490915081116107615760405162461bcd60e51b815260206004820152602360248201527f5265736572766548656c706572733a205a65726f20737572706c757320746f6b604482015262656e7360e81b6064820152608401610487565b6001600160a01b03848116600081815260c960209081526040918290205491519185038083529550928616927f6d25be279134f4ecaa4770aff0c3d916d9e7c5ef37b65ed95dbdba411f5d54d5910160405180910390a36107cc6001600160a01b03851684846114ae565b5050600160cc555050565b600054610100900460ff16158080156107f75750600054600160ff909116105b806108115750303b158015610811575060005460ff166001145b6108745760405162461bcd60e51b815260206004820152602e60248201527f496e697469616c697a61626c653a20636f6e747261637420697320616c72656160448201526d191e481a5b9a5d1a585b1a5e995960921b6064820152608401610487565b6000805460ff191660011790558015610897576000805461ff0019166101001790555b6108a08661161d565b6108a98461161d565b600085116108c95760405162461bcd60e51b81526004016104879061299b565b600082116109285760405162461bcd60e51b815260206004820152602660248201527f5269736b2046756e643a204c6f6f7073206c696d69742063616e206e6f74206260448201526565207a65726f60d01b6064820152608401610487565b610930611644565b61093983611673565b61012f80546001600160a01b038089166001600160a01b03199283161790925561013087905561012d80549287169290911691909117905561097a8261169a565b80156109c0576000805461ff0019169055604051600181527f7f26b83ff96e1f2b6a682f133852f6798a09c465da95921460cefb38474024989060200160405180910390a15b505050505050565b610a066040518060400160405280602081526020017f736574436f6e7665727469626c65426173654173736574286164647265737329815250611734565b6001600160a01b038116610a7a5760405162461bcd60e51b815260206004820152603560248201527f5269736b2046756e643a206e657720636f6e7665727469626c65206261736520604482015274185cdcd95d081859191c995cdcc81a5b9d985b1a59605a1b6064820152608401610487565b61012d80546001600160a01b038381166001600160a01b0319831681179093556040519116919082907f5fa61583da12070720613fefdd68cc6c0e464a71e009742526bd2b2e0ac62cd290600090a35050565b610ad5611505565b610ade8161161d565b61012f80546001600160a01b038381166001600160a01b0319831681179093556040519116919082907fd37b9d138f53ea58d7e50292588239a46efa8f523966febf4066da96defc77fd90600090a35050565b6000600260cc5403610b555760405162461bcd60e51b81526004016104879061295e565b600260cc81905550610b7e60405180606001604052806038815260200161302960389139611734565b42821015610bce5760405162461bcd60e51b815260206004820152601a60248201527f5269736b2066756e643a20646561646c696e65207061737365640000000000006044820152606401610487565b60cb546001600160a01b0316610be38161161d565b878614610c585760405162461bcd60e51b815260206004820152603860248201527f5269736b2066756e643a206d61726b65747320616e6420616d6f756e74734f7560448201527f744d696e2061726520756e657175616c206c656e6774687300000000000000006064820152608401610487565b878414610cc05760405162461bcd60e51b815260206004820152603060248201527f5269736b2066756e643a206d61726b65747320616e642070617468732061726560448201526f20756e657175616c206c656e6774687360801b6064820152608401610487565b600088610ccc816117ce565b60005b818110156110325760008c8c83818110610ceb57610ceb6129e3565b9050602002016020810190610d0091906127a5565b6001600160a01b0316635fe3b5676040518163ffffffff1660e01b8152600401602060405180830381865afa158015610d3d573d6000803e3d6000fd5b505050506040513d601f19601f82011682018060405250810190610d6191906129f9565b604051637aee632d60e01b81526001600160a01b038083166004830152919250600091871690637aee632d90602401600060405180830381865afa158015610dad573d6000803e3d6000fd5b505050506040513d6000823e601f3d908101601f19168201604052610dd59190810190612ac6565b9050816001600160a01b031681604001516001600160a01b031614610e4c5760405162461bcd60e51b815260206004820152602760248201527f636f6d7074726f6c6c657220646f65736e277420657869737420706f6f6c20726044820152666567697374727960c81b6064820152608401610487565b816001600160a01b0316633d98a1e58f8f86818110610e6d57610e6d6129e3565b9050602002016020810190610e8291906127a5565b6040516001600160e01b031960e084901b1681526001600160a01b039091166004820152602401602060405180830381865afa158015610ec6573d6000803e3d6000fd5b505050506040513d601f19601f82011682018060405250810190610eea9190612bbc565b610f2d5760405162461bcd60e51b81526020600482015260146024820152731b585c9ad95d081a5cc81b9bdd081b1a5cdd195960621b6044820152606401610487565b6000610f9c8f8f86818110610f4457610f446129e3565b9050602002016020810190610f5991906127a5565b848f8f88818110610f6c57610f6c6129e3565b905060200201358e8e89818110610f8557610f856129e3565b9050602002810190610f979190612bde565b6117ff565b6001600160a01b03808516600090815260ca6020908152604080832061012d54909416835292905290812080549293508392909190610fdc908490612c3e565b909155505061012d546001600160a01b0316600090815260c960205260408120805483929061100c908490612c3e565b9091555061101c90508187612c3e565b95505050508061102b90612c56565b9050610ccf565b507fb17530966b045b50d4975e7f05048ca00d7335780c24f1c465165a4b94b2d37d8b8b8b8b8660405161106a959493929190612cb8565b60405180910390a150600160cc559998505050505050505050565b60006110908261161d565b826001600160a01b0316627e3dd26040518163ffffffff1660e01b8152600401602060405180830381865afa1580156110cd573d6000803e3d6000fd5b505050506040513d601f19601f820116820180604052508101906110f19190612bbc565b61110d5760405162461bcd60e51b815260040161048790612d13565b506001600160a01b03808316600090815260ca60209081526040808320938516835292905220545b92915050565b611143611505565b61114d6000611da2565b565b61118d6040518060400160405280601e81526020017f7365744d696e416d6f756e74546f436f6e766572742875696e74323536290000815250611734565b600081116111ad5760405162461bcd60e51b81526004016104879061299b565b61013080549082905560408051828152602081018490527fada67d0d38fa20c8ae6a5c17cb9d60b0fe7f2d4e4f27ac9ee55e54ac88de9d8d91015b60405180910390a15050565b6111fc611505565b6112058161161d565b61012e80546001600160a01b038381166001600160a01b0319831681179093556040519116919082907fb6e5fcf02f7fbb8acfbaa3bac4fd5abf9ff51e3f2e8884b5498927179b211b2890600090a35050565b60655433906001600160a01b031681146112c65760405162461bcd60e51b815260206004820152602960248201527f4f776e61626c6532537465703a2063616c6c6572206973206e6f7420746865206044820152683732bb9037bbb732b960b91b6064820152608401610487565b61064381611da2565b6112d7611505565b6112e08161161d565b60cb80546001600160a01b038381166001600160a01b0319831681179093556040519116919082907fa87b964d321035d2165e484ff4b722dd6eae30606c0b98887d2ed1a34e594bfe90600090a35050565b61133a611505565b6106438161169a565b6000816001600160a01b0316627e3dd26040518163ffffffff1660e01b8152600401602060405180830381865afa158015611382573d6000803e3d6000fd5b505050506040513d601f19601f820116820180604052508101906113a69190612bbc565b6114015760405162461bcd60e51b815260206004820152602660248201527f5269736b2046756e643a20436f6d7074726f6c6c6572206164647265737320696044820152651b9d985b1a5960d21b6064820152608401610487565b506001600160a01b03908116600090815260ca6020908152604080832061012d549094168352929052205490565b6114398282611dbb565b5050565b611445611505565b606580546001600160a01b0383166001600160a01b031990911681179091556114766033546001600160a01b031690565b6001600160a01b03167f38d16b8cac22d99fc7c124b9cd0de2d3fa1faef420bfe791d8c362d765e2270060405160405180910390a350565b604080516001600160a01b038416602482015260448082018490528251808303909101815260649091019091526020810180516001600160e01b031663a9059cbb60e01b179052611500908490612078565b505050565b6033546001600160a01b0316331461114d5760405162461bcd60e51b815260206004820181905260248201527f4f776e61626c653a2063616c6c6572206973206e6f7420746865206f776e65726044820152606401610487565b6001600160a01b0381166115c35760405162461bcd60e51b815260206004820152602560248201527f696e76616c696420616365737320636f6e74726f6c206d616e61676572206164604482015264647265737360d81b6064820152608401610487565b609780546001600160a01b038381166001600160a01b031983168117909355604080519190921680825260208201939093527f66fd58e82f7b31a2a5c30e0888f3093efe4e111b00cd2b0c31fe014601293aa091016111e8565b6001600160a01b038116610643576040516342bcdf7f60e11b815260040160405180910390fd5b600054610100900460ff1661166b5760405162461bcd60e51b815260040161048790612d5e565b61114d61214d565b600054610100900460ff1661063a5760405162461bcd60e51b815260040161048790612d5e565b60fb5481116116f65760405162461bcd60e51b815260206004820152602260248201527f436f6d7074726f6c6c65723a20496e76616c6964206d61784c6f6f70734c696d6044820152611a5d60f21b6064820152608401610487565b60fb80549082905560408051828152602081018490527fc2d09fef144f7c8a86f71ea459f8fc17f675768eb1ae369cbd77fb31d467aafa91016111e8565b6097546040516318c5e8ab60e01b81526000916001600160a01b0316906318c5e8ab906117679033908690600401612dd5565b602060405180830381865afa158015611784573d6000803e3d6000fd5b505050506040513d601f19601f820116820180604052508101906117a89190612bbc565b90508061143957333083604051634a3fa29360e01b815260040161048793929190612df9565b60fb548111156106435760fb5460405163792bfb1b60e11b8152600481019190915260248101829052604401610487565b6000836000036118775760405162461bcd60e51b815260206004820152603c60248201527f5269736b46756e643a20616d6f756e744f75744d696e206d757374206265206760448201527f726561746572207468616e203020746f20737761702076546f6b656e000000006064820152608401610487565b600080876001600160a01b0316636f307dc36040518163ffffffff1660e01b8152600401602060405180830381865afa1580156118b8573d6000803e3d6000fd5b505050506040513d601f19601f820116820180604052508101906118dc91906129f9565b61012d546001600160a01b03898116600090815260ca60209081526040808320848716845290915281205493945091169190819003611922576000945050505050611d99565b6000896001600160a01b0316637dc0d1d06040518163ffffffff1660e01b8152600401602060405180830381865afa158015611962573d6000803e3d6000fd5b505050506040513d601f19601f8201168201806040525081019061198691906129f9565b60405163b62cad6960e01b81526001600160a01b0385811660048301529192509082169063b62cad6990602401600060405180830381600087803b1580156119cd57600080fd5b505af11580156119e1573d6000803e3d6000fd5b50506040805160208101918290526341976e0960e01b9091526001600160a01b03868116602483015260009350909150819084166341976e0960448301602060405180830381865afa158015611a3b573d6000803e3d6000fd5b505050506040513d601f19601f82011682018060405250810190611a5f9190612982565b905290506000611a6f828c61217d565b905061013054811015611ad25760405162461bcd60e51b815260206004820152602560248201527f5269736b46756e643a206d696e416d6f756e74546f436f6e766572742076696f6044820152641b185d195960da1b6064820152608401610487565b6001600160a01b038616600090815260c9602052604081208054869290611afa908490612e25565b90915550506001600160a01b03808d16600090815260ca60209081526040808320938a1683529290529081208054869290611b36908490612e25565b90915550506001600160a01b0386811690861614611d8b57856001600160a01b03168a8a6000818110611b6b57611b6b6129e3565b9050602002016020810190611b8091906127a5565b6001600160a01b031614611bfc5760405162461bcd60e51b815260206004820152603860248201527f5269736b46756e643a20737761702070617468206d757374207374617274207760448201527f6974682074686520756e6465726c79696e6720617373657400000000000000006064820152608401610487565b6001600160a01b0385168a8a611c13600182612e25565b818110611c2257611c226129e3565b9050602002016020810190611c3791906127a5565b6001600160a01b031614611cab5760405162461bcd60e51b815260206004820152603560248201527f5269736b46756e643a2066696e616c6c792070617468206d75737420626520636044820152741bdb9d995c9d1a589b194818985cd948185cdcd95d605a1b6064820152608401610487565b61012f546001600160a01b0390811690611cc990881682600061219d565b611cdd6001600160a01b038816828761219d565b6000816001600160a01b03166338ed1739878f8f8f30426040518763ffffffff1660e01b8152600401611d1596959493929190612e3c565b6000604051808303816000875af1158015611d34573d6000803e3d6000fd5b505050506040513d6000823e601f3d908101601f19168201604052611d5c9190810190612e9e565b905080611d6a60018d612e25565b81518110611d7a57611d7a6129e3565b602002602001015198505050611d8f565b8396505b5094955050505050505b95945050505050565b606580546001600160a01b031916905561064381612289565b611dc48161161d565b816001600160a01b0316627e3dd26040518163ffffffff1660e01b8152600401602060405180830381865afa158015611e01573d6000803e3d6000fd5b505050506040513d601f19601f82011682018060405250810190611e259190612bbc565b611e415760405162461bcd60e51b815260040161048790612d13565b60cb546001600160a01b031680611eb35760405162461bcd60e51b815260206004820152603060248201527f5265736572766548656c706572733a20506f6f6c20526567697374727920616460448201526f191c995cdcc81a5cc81b9bdd081cd95d60821b6064820152608401610487565b611ebd83836122db565b611f245760405162461bcd60e51b815260206004820152603260248201527f5265736572766548656c706572733a2054686520706f6f6c20646f65736e2774604482015271081cdd5c1c1bdc9d081d1a1948185cdcd95d60721b6064820152608401610487565b6040516370a0823160e01b81523060048201526000906001600160a01b038416906370a0823190602401602060405180830381865afa158015611f6b573d6000803e3d6000fd5b505050506040513d601f19601f82011682018060405250810190611f8f9190612982565b6001600160a01b038416600090815260c9602052604090205490915080821115612071576001600160a01b038416600090815260c960205260408120805483850392839291611fdf908490612c3e565b90915550506001600160a01b03808716600090815260ca602090815260408083209389168352929052908120805483929061201b908490612c3e565b92505081905550846001600160a01b0316866001600160a01b03167fc39e3e80c0219fde334a8cb5d8468b628482e23388b6e809c90cb00c63c8ce388360405161206791815260200190565b60405180910390a3505b5050505050565b60006120cd826040518060400160405280602081526020017f5361666545524332303a206c6f772d6c6576656c2063616c6c206661696c6564815250856001600160a01b03166123af9092919063ffffffff16565b90508051600014806120ee5750808060200190518101906120ee9190612bbc565b6115005760405162461bcd60e51b815260206004820152602a60248201527f5361666545524332303a204552433230206f7065726174696f6e20646964206e6044820152691bdd081cdd58d8d9595960b21b6064820152608401610487565b600054610100900460ff166121745760405162461bcd60e51b815260040161048790612d5e565b61114d33611da2565b60008061218a84846123be565b9050612195816123ef565b949350505050565b604080516001600160a01b038481166024830152604480830185905283518084039091018152606490920183526020820180516001600160e01b031663095ea7b360e01b1790529151909160009182918716906121fb908590612f29565b6000604051808303816000865af19150503d8060008114612238576040519150601f19603f3d011682016040523d82523d6000602084013e61223d565b606091505b509150915081158061226b575080511580159061226b5750808060200190518101906122699190612bbc565b155b156109c057604051633e3f8f7360e01b815260040160405180910390fd5b603380546001600160a01b038381166001600160a01b0319831681179093556040519116919082907f8be0079c531659141344cd1fd0a4f28419497f9722a3daafe3b4186f6b6457e090600090a35050565b60007f00000000000000000000000000000000000000000000000000000000000000006001600160a01b0316836001600160a01b0316036123265761231f82612407565b9050611135565b60cb5460405163266e0a7f60e01b81526001600160a01b0385811660048301528481166024830152600092169063266e0a7f90604401602060405180830381865afa158015612379573d6000803e3d6000fd5b505050506040513d601f19601f8201168201806040525081019061239d91906129f9565b6001600160a01b031614159392505050565b606061219584846000856125d8565b60408051602081019091526000815260405180602001604052806123e68560000151856126b3565b90529392505050565b805160009061113590670de0b6b3a764000090612f45565b6000807f00000000000000000000000000000000000000000000000000000000000000006001600160a01b031663b0772d0b6040518163ffffffff1660e01b8152600401600060405180830381865afa158015612468573d6000803e3d6000fd5b505050506040513d6000823e601f3d908101601f191682016040526124909190810190612f67565b905060005b81518110156125d1578181815181106124b0576124b06129e3565b60200260200101516001600160a01b03167f00000000000000000000000000000000000000000000000000000000000000006001600160a01b03161461258457836001600160a01b031682828151811061250c5761250c6129e3565b60200260200101516001600160a01b0316636f307dc36040518163ffffffff1660e01b8152600401602060405180830381865afa158015612551573d6000803e3d6000fd5b505050506040513d601f19601f8201168201806040525081019061257591906129f9565b6001600160a01b0316146125ba565b7f00000000000000000000000000000000000000000000000000000000000000006001600160a01b0316846001600160a01b0316145b9250826125d1576125ca81612c56565b9050612495565b5050919050565b6060824710156126395760405162461bcd60e51b815260206004820152602660248201527f416464726573733a20696e73756666696369656e742062616c616e636520666f6044820152651c8818d85b1b60d21b6064820152608401610487565b600080866001600160a01b031685876040516126559190612f29565b60006040518083038185875af1925050503d8060008114612692576040519150601f19603f3d011682016040523d82523d6000602084013e612697565b606091505b50915091506126a8878383876126c6565b979650505050505050565b60006126bf8284612ff6565b9392505050565b6060831561273557825160000361272e576001600160a01b0385163b61272e5760405162461bcd60e51b815260206004820152601d60248201527f416464726573733a2063616c6c20746f206e6f6e2d636f6e74726163740000006044820152606401610487565b5081612195565b612195838381511561274a5781518083602001fd5b8060405162461bcd60e51b81526004016104879190613015565b6001600160a01b038116811461064357600080fd5b6000806040838503121561278c57600080fd5b823561279781612764565b946020939093013593505050565b6000602082840312156127b757600080fd5b81356126bf81612764565b600080604083850312156127d557600080fd5b82356127e081612764565b915060208301356127f081612764565b809150509250929050565b600080600080600060a0868803121561281357600080fd5b853561281e81612764565b945060208601359350604086013561283581612764565b9250606086013561284581612764565b949793965091946080013592915050565b60008083601f84011261286857600080fd5b50813567ffffffffffffffff81111561288057600080fd5b6020830191508360208260051b850101111561289b57600080fd5b9250929050565b60008060008060008060006080888a0312156128bd57600080fd5b873567ffffffffffffffff808211156128d557600080fd5b6128e18b838c01612856565b909950975060208a01359150808211156128fa57600080fd5b6129068b838c01612856565b909750955060408a013591508082111561291f57600080fd5b5061292c8a828b01612856565b989b979a50959894979596606090950135949350505050565b60006020828403121561295757600080fd5b5035919050565b6020808252600a90820152691c994b595b9d195c995960b21b604082015260600190565b60006020828403121561299457600080fd5b5051919050565b60208082526028908201527f5269736b2046756e643a20496e76616c6964206d696e20616d6f756e7420746f6040820152670818dbdb9d995c9d60c21b606082015260800190565b634e487b7160e01b600052603260045260246000fd5b600060208284031215612a0b57600080fd5b81516126bf81612764565b634e487b7160e01b600052604160045260246000fd5b60405160a0810167ffffffffffffffff81118282101715612a4f57612a4f612a16565b60405290565b604051601f8201601f1916810167ffffffffffffffff81118282101715612a7e57612a7e612a16565b604052919050565b60005b83811015612aa1578181015183820152602001612a89565b83811115612ab0576000848401525b50505050565b8051612ac181612764565b919050565b60006020808385031215612ad957600080fd5b825167ffffffffffffffff80821115612af157600080fd5b9084019060a08287031215612b0557600080fd5b612b0d612a2c565b825182811115612b1c57600080fd5b8301601f81018813612b2d57600080fd5b805183811115612b3f57612b3f612a16565b612b51601f8201601f19168701612a55565b93508084528886828401011115612b6757600080fd5b612b7681878601888501612a86565b5050818152612b86848401612ab6565b84820152612b9660408401612ab6565b604082015260608301516060820152608083015160808201528094505050505092915050565b600060208284031215612bce57600080fd5b815180151581146126bf57600080fd5b6000808335601e19843603018112612bf557600080fd5b83018035915067ffffffffffffffff821115612c1057600080fd5b6020019150600581901b360382131561289b57600080fd5b634e487b7160e01b600052601160045260246000fd5b60008219821115612c5157612c51612c28565b500190565b600060018201612c6857612c68612c28565b5060010190565b8183526000602080850194508260005b85811015612cad578135612c9281612764565b6001600160a01b031687529582019590820190600101612c7f565b509495945050505050565b606081526000612ccc606083018789612c6f565b82810360208401528481526001600160fb1b03851115612ceb57600080fd5b8460051b80876020840137600091016020019081526040929092019290925295945050505050565b6020808252602b908201527f5265736572766548656c706572733a20436f6d7074726f6c6c6572206164647260408201526a195cdcc81a5b9d985b1a5960aa1b606082015260800190565b6020808252602b908201527f496e697469616c697a61626c653a20636f6e7472616374206973206e6f74206960408201526a6e697469616c697a696e6760a81b606082015260800190565b60008151808452612dc1816020860160208601612a86565b601f01601f19169290920160200192915050565b6001600160a01b038316815260406020820181905260009061219590830184612da9565b6001600160a01b03848116825283166020820152606060408201819052600090611d9990830184612da9565b600082821015612e3757612e37612c28565b500390565b86815285602082015260a060408201526000612e5c60a083018688612c6f565b6001600160a01b039490941660608301525060800152949350505050565b600067ffffffffffffffff821115612e9457612e94612a16565b5060051b60200190565b60006020808385031215612eb157600080fd5b825167ffffffffffffffff811115612ec857600080fd5b8301601f81018513612ed957600080fd5b8051612eec612ee782612e7a565b612a55565b81815260059190911b82018301908381019087831115612f0b57600080fd5b928401925b828410156126a857835182529284019290840190612f10565b60008251612f3b818460208701612a86565b9190910192915050565b600082612f6257634e487b7160e01b600052601260045260246000fd5b500490565b60006020808385031215612f7a57600080fd5b825167ffffffffffffffff811115612f9157600080fd5b8301601f81018513612fa257600080fd5b8051612fb0612ee782612e7a565b81815260059190911b82018301908381019087831115612fcf57600080fd5b928401925b828410156126a8578351612fe781612764565b82529284019290840190612fd4565b600081600019048311821515161561301057613010612c28565b500290565b6020815260006126bf6020830184612da956fe73776170506f6f6c7341737365747328616464726573735b5d2c75696e743235365b5d2c616464726573735b5d5b5d2c75696e7432353629a2646970667358221220c967afe4ee07c007702bfe8b40ad090042c372456a0a152775ad412949fc6bc564736f6c634300080d0033",
  "devdoc": {
    "author": "Venus",
    "details": "This contract does not support BNB.",
    "kind": "dev",
    "methods": {
      "acceptOwnership()": {
        "details": "The new owner accepts the ownership transfer."
      },
      "constructor": {
        "custom:oz-upgrades-unsafe-allow": "constructor",
        "details": "Note that the contract is upgradeable. Use initialize() or reinitializers      to set the state variables."
      },
      "getPoolAssetReserve(address,address)": {
        "custom:error": "ZeroAddressNotAllowed is thrown when asset address is zero",
        "params": {
          "asset": "Asset address.",
          "comptroller": "Comptroller address(pool)."
        },
        "returns": {
          "_0": "Asset's reserve in risk fund."
        }
      },
      "getPoolsBaseAssetReserves(address)": {
        "params": {
          "comptroller": "Comptroller address(pool)."
        },
        "returns": {
          "_0": "Base Asset's reserve in risk fund."
        }
      },
      "initialize(address,uint256,address,address,uint256)": {
        "custom:error": "ZeroAddressNotAllowed is thrown when PCS router address is zeroZeroAddressNotAllowed is thrown when convertible base asset address is zero",
        "params": {
          "accessControlManager_": "Address of the access control contract",
          "convertibleBaseAsset_": "Address of the base asset",
          "loopsLimit_": "Limit for the loops in the contract to avoid DOS",
          "minAmountToConvert_": "Minimum amount assets must be worth to convert into base asset",
          "pancakeSwapRouter_": "Address of the PancakeSwap router"
        }
      },
      "owner()": {
        "details": "Returns the address of the current owner."
      },
      "pendingOwner()": {
        "details": "Returns the address of the pending owner."
      },
      "renounceOwnership()": {
        "details": "Leaves the contract without owner. It will not be possible to call `onlyOwner` functions. Can only be called by the current owner. NOTE: Renouncing ownership will leave the contract without an owner, thereby disabling any functionality that is only available to the owner."
      },
      "setAccessControlManager(address)": {
        "custom:access": "Only Governance",
        "custom:event": "Emits NewAccessControlManager event",
        "details": "Admin function to set address of AccessControlManager",
        "params": {
          "accessControlManager_": "The new address of the AccessControlManager"
        }
      },
      "setConvertibleBaseAsset(address)": {
        "params": {
          "_convertibleBaseAsset": "Address for new convertible base asset."
        }
      },
      "setMaxLoopsLimit(uint256)": {
        "params": {
          "limit": "Limit for the max loops can execute at a time"
        }
      },
      "setMinAmountToConvert(uint256)": {
        "params": {
          "minAmountToConvert_": "Min amount to convert."
        }
      },
      "setPancakeSwapRouter(address)": {
        "custom:error": "ZeroAddressNotAllowed is thrown when PCS router address is zero",
        "params": {
          "pancakeSwapRouter_": "Address of the PancakeSwap router"
        }
      },
      "setPoolRegistry(address)": {
        "custom:error": "ZeroAddressNotAllowed is thrown when pool registry address is zero",
        "params": {
          "poolRegistry_": "Address of the pool registry"
        }
      },
      "setShortfallContractAddress(address)": {
        "custom:error": "ZeroAddressNotAllowed is thrown when shortfall contract address is zero",
        "params": {
          "shortfallContractAddress_": "Address of the auction contract"
        }
      },
      "swapPoolsAssets(address[],uint256[],address[][],uint256)": {
        "custom:error": "ZeroAddressNotAllowed is thrown if PoolRegistry contract address is not configured",
        "params": {
          "amountsOutMin": "Minimum amount to receive for swap",
          "deadline": "Deadline for the swap",
          "markets": "Array of vTokens whose assets to swap for base asset",
          "paths": "A path consisting of PCS token pairs for each swap"
        },
        "returns": {
          "_0": "Number of swapped tokens"
        }
      },
      "sweepToken(address,address)": {
        "custom:access": "Only Owner",
        "custom:error": "ZeroAddressNotAllowed is thrown when asset address is zero",
        "params": {
          "_to": "Recipient of the output tokens.",
          "_token": "The address of the BEP-20 token to sweep"
        }
      },
      "transferOwnership(address)": {
        "details": "Starts the ownership transfer of the contract to a new account. Replaces the pending transfer if there is one. Can only be called by the current owner."
      },
      "transferReserveForAuction(address,uint256)": {
        "params": {
          "amount": "Amount to be transferred to auction contract.",
          "comptroller": "Comptroller of the pool."
        },
        "returns": {
          "_0": "Number reserved tokens."
        }
      },
      "updateAssetsState(address,address)": {
        "params": {
          "asset": "Asset address.",
          "comptroller": "Comptroller address(pool)."
        }
      }
    },
    "title": "RiskFund",
    "version": 1
  },
  "userdoc": {
    "errors": {
      "ApproveFailed()": [
        {
          "notice": "Thrown if a contract is unable to approve a transfer"
        }
      ],
      "MaxLoopsLimitExceeded(uint256,uint256)": [
        {
          "notice": "Thrown an error on maxLoopsLimit exceeds for any loop"
        }
      ],
      "Unauthorized(address,address,string)": [
        {
          "notice": "Thrown when the action is prohibited by AccessControlManager"
        }
      ],
      "ZeroAddressNotAllowed()": [
        {
          "notice": "Thrown if the supplied address is a zero address where it is not allowed"
        }
      ]
    },
    "events": {
      "AssetsReservesUpdated(address,address,uint256)": {
        "notice": "Event emitted after the update of the assets reserves."
      },
      "ConvertibleBaseAssetUpdated(address,address)": {
        "notice": "Emitted when convertible base asset is updated"
      },
      "MaxLoopsLimitUpdated(uint256,uint256)": {
        "notice": "Emitted when max loops limit is set"
      },
      "MinAmountToConvertUpdated(uint256,uint256)": {
        "notice": "Emitted when minimum amount to convert is updated"
      },
      "NewAccessControlManager(address,address)": {
        "notice": "Emitted when access control manager contract address is changed"
      },
      "PancakeSwapRouterUpdated(address,address)": {
        "notice": "Emitted when PancakeSwap router contract address is updated"
      },
      "PoolRegistryUpdated(address,address)": {
        "notice": "Emitted when pool registry address is updated"
      },
      "ShortfallContractUpdated(address,address)": {
        "notice": "Emitted when shortfall contract address is updated"
      },
      "SwappedPoolsAssets(address[],uint256[],uint256)": {
        "notice": "Emitted when pools assets are swapped"
      },
      "SweepToken(address,address,uint256)": {
        "notice": "event emitted on sweep token success"
      },
      "TransferredReserveForAuction(address,uint256)": {
        "notice": "Emitted when reserves are transferred for auction"
      }
    },
    "kind": "user",
    "methods": {
      "accessControlManager()": {
        "notice": "Returns the address of the access control manager contract"
      },
      "getPoolAssetReserve(address,address)": {
        "notice": "Get the Amount of the asset in the risk fund for the specific pool."
      },
      "getPoolsBaseAssetReserves(address)": {
        "notice": "Get the Amount of the Base asset in the risk fund for the specific pool."
      },
      "initialize(address,uint256,address,address,uint256)": {
        "notice": "Initializes the deployer to owner."
      },
      "setAccessControlManager(address)": {
        "notice": "Sets the address of AccessControlManager"
      },
      "setConvertibleBaseAsset(address)": {
        "notice": "Sets a new convertible base asset"
      },
      "setMaxLoopsLimit(uint256)": {
        "notice": "Set the limit for the loops can iterate to avoid the DOS"
      },
      "setMinAmountToConvert(uint256)": {
        "notice": "Min amount to convert setter"
      },
      "setPancakeSwapRouter(address)": {
        "notice": "PancakeSwap router address setter"
      },
      "setPoolRegistry(address)": {
        "notice": "Pool registry setter"
      },
      "setShortfallContractAddress(address)": {
        "notice": "Shortfall contract address setter"
      },
      "swapPoolsAssets(address[],uint256[],address[][],uint256)": {
        "notice": "Swap array of pool assets into base asset's tokens of at least a minimum amount"
      },
      "sweepToken(address,address)": {
        "notice": "A public function to sweep accidental BEP-20 transfers to this contract. Tokens are sent to the address `to`, provided in input"
      },
      "transferReserveForAuction(address,uint256)": {
        "notice": "Transfer tokens for auction."
      },
      "updateAssetsState(address,address)": {
        "notice": "Update the reserve of the asset for the specific pool after transferring to risk fund."
      }
    },
    "notice": "Contract with basic features to track/hold different assets for different Comptrollers.",
    "version": 1
  },
  "storageLayout": {
    "storage": [
      {
        "astId": 244,
        "contract": "contracts/RiskFund/RiskFund.sol:RiskFund",
        "label": "_initialized",
        "offset": 0,
        "slot": "0",
        "type": "t_uint8"
      },
      {
        "astId": 247,
        "contract": "contracts/RiskFund/RiskFund.sol:RiskFund",
        "label": "_initializing",
        "offset": 1,
        "slot": "0",
        "type": "t_bool"
      },
      {
        "astId": 1267,
        "contract": "contracts/RiskFund/RiskFund.sol:RiskFund",
        "label": "__gap",
        "offset": 0,
        "slot": "1",
        "type": "t_array(t_uint256)50_storage"
      },
      {
        "astId": 116,
        "contract": "contracts/RiskFund/RiskFund.sol:RiskFund",
        "label": "_owner",
        "offset": 0,
        "slot": "51",
        "type": "t_address"
      },
      {
        "astId": 236,
        "contract": "contracts/RiskFund/RiskFund.sol:RiskFund",
        "label": "__gap",
        "offset": 0,
        "slot": "52",
        "type": "t_array(t_uint256)49_storage"
      },
      {
        "astId": 25,
        "contract": "contracts/RiskFund/RiskFund.sol:RiskFund",
        "label": "_pendingOwner",
        "offset": 0,
        "slot": "101",
        "type": "t_address"
      },
      {
        "astId": 104,
        "contract": "contracts/RiskFund/RiskFund.sol:RiskFund",
        "label": "__gap",
        "offset": 0,
        "slot": "102",
        "type": "t_array(t_uint256)49_storage"
      },
      {
        "astId": 1355,
        "contract": "contracts/RiskFund/RiskFund.sol:RiskFund",
        "label": "_accessControlManager",
        "offset": 0,
        "slot": "151",
        "type": "t_contract(IAccessControlManagerV8)1539"
      },
      {
        "astId": 1360,
        "contract": "contracts/RiskFund/RiskFund.sol:RiskFund",
        "label": "__gap",
        "offset": 0,
        "slot": "152",
        "type": "t_array(t_uint256)49_storage"
      },
      {
        "astId": 8855,
        "contract": "contracts/RiskFund/RiskFund.sol:RiskFund",
        "label": "assetsReserves",
        "offset": 0,
        "slot": "201",
        "type": "t_mapping(t_address,t_uint256)"
      },
      {
        "astId": 8861,
        "contract": "contracts/RiskFund/RiskFund.sol:RiskFund",
        "label": "_poolsAssetsReserves",
        "offset": 0,
        "slot": "202",
        "type": "t_mapping(t_address,t_mapping(t_address,t_uint256))"
      },
      {
        "astId": 8863,
        "contract": "contracts/RiskFund/RiskFund.sol:RiskFund",
        "label": "poolRegistry",
        "offset": 0,
        "slot": "203",
        "type": "t_address"
      },
      {
        "astId": 8866,
        "contract": "contracts/RiskFund/RiskFund.sol:RiskFund",
        "label": "status",
        "offset": 0,
        "slot": "204",
        "type": "t_uint256"
      },
      {
        "astId": 8871,
        "contract": "contracts/RiskFund/RiskFund.sol:RiskFund",
        "label": "__gap",
        "offset": 0,
        "slot": "205",
        "type": "t_array(t_uint256)46_storage"
      },
      {
        "astId": 6064,
        "contract": "contracts/RiskFund/RiskFund.sol:RiskFund",
        "label": "maxLoopsLimit",
        "offset": 0,
        "slot": "251",
        "type": "t_uint256"
      },
      {
        "astId": 6069,
        "contract": "contracts/RiskFund/RiskFund.sol:RiskFund",
        "label": "__gap",
        "offset": 0,
        "slot": "252",
        "type": "t_array(t_uint256)49_storage"
      },
      {
        "astId": 9284,
        "contract": "contracts/RiskFund/RiskFund.sol:RiskFund",
        "label": "convertibleBaseAsset",
        "offset": 0,
        "slot": "301",
        "type": "t_address"
      },
      {
        "astId": 9286,
        "contract": "contracts/RiskFund/RiskFund.sol:RiskFund",
        "label": "shortfall",
        "offset": 0,
        "slot": "302",
        "type": "t_address"
      },
      {
        "astId": 9288,
        "contract": "contracts/RiskFund/RiskFund.sol:RiskFund",
        "label": "pancakeSwapRouter",
        "offset": 0,
        "slot": "303",
        "type": "t_address"
      },
      {
        "astId": 9290,
        "contract": "contracts/RiskFund/RiskFund.sol:RiskFund",
        "label": "minAmountToConvert",
        "offset": 0,
        "slot": "304",
        "type": "t_uint256"
      }
    ],
    "types": {
      "t_address": {
        "encoding": "inplace",
        "label": "address",
        "numberOfBytes": "20"
      },
      "t_array(t_uint256)46_storage": {
        "base": "t_uint256",
        "encoding": "inplace",
        "label": "uint256[46]",
        "numberOfBytes": "1472"
      },
      "t_array(t_uint256)49_storage": {
        "base": "t_uint256",
        "encoding": "inplace",
        "label": "uint256[49]",
        "numberOfBytes": "1568"
      },
      "t_array(t_uint256)50_storage": {
        "base": "t_uint256",
        "encoding": "inplace",
        "label": "uint256[50]",
        "numberOfBytes": "1600"
      },
      "t_bool": {
        "encoding": "inplace",
        "label": "bool",
        "numberOfBytes": "1"
      },
      "t_contract(IAccessControlManagerV8)1539": {
        "encoding": "inplace",
        "label": "contract IAccessControlManagerV8",
        "numberOfBytes": "20"
      },
      "t_mapping(t_address,t_mapping(t_address,t_uint256))": {
        "encoding": "mapping",
        "key": "t_address",
        "label": "mapping(address => mapping(address => uint256))",
        "numberOfBytes": "32",
        "value": "t_mapping(t_address,t_uint256)"
      },
      "t_mapping(t_address,t_uint256)": {
        "encoding": "mapping",
        "key": "t_address",
        "label": "mapping(address => uint256)",
        "numberOfBytes": "32",
        "value": "t_uint256"
      },
      "t_uint256": {
        "encoding": "inplace",
        "label": "uint256",
        "numberOfBytes": "32"
      },
      "t_uint8": {
        "encoding": "inplace",
        "label": "uint8",
        "numberOfBytes": "1"
      }
    }
  }
}