{
  "address": "0xe17aB0c10be44c64d9B41385a2d3C2335f57701B",
  "abi": [
    {
      "inputs": [],
      "name": "Unauthorized",
      "type": "error"
    },
    {
      "inputs": [],
      "name": "run",
      "outputs": [],
      "stateMutability": "nonpayable",
      "type": "function"
    }
  ],
  "transactionHash": "0x5a46507fb16b7b2c8493738ed707a77f887b44d33dea0f0d2592a95d3604b329",
  "args": [],
  "numDeployments": 1,
  "solcInputHash": "0108bd354924f4f9aa3c40a8445d0e0a",
  "bytecode": "0x6080604052348015600f57600080fd5b506112418061001f6000396000f3fe608060405234801561001057600080fd5b506004361061002b5760003560e01c8063c040622614610030575b600080fd5b61003861003a565b005b73939bd8d64c0a9583a7dcea9933f7b21697ab6396331461006d576040516282b42960e81b815260040160405180910390fd5b6040516345e6a00b60e11b8152735d285a71f2a74f9d4a38932953358bca17ee1dfc600482015273ca2d81aa7c09a1a025de797600a7081146dceed990638bcd401690602401600060405180830381600087803b1580156100cd57600080fd5b505af11580156100e1573d6000803e3d6000fd5b50506040516345e6a00b60e11b81527354dad38165def4e77f9f788d44c0d89fd3ce7ebe6004820152735e3072305f9cae1c7a82f6fe9e38811c74922c3b9250638bcd40169150602401600060405180830381600087803b15801561014557600080fd5b505af1158015610159573d6000803e3d6000fd5b50506040516345e6a00b60e11b815273ea3fc3698bd29f756e8f4b0bdcd9d836edc419c2600482015273c3a45ad8812189cab659ad99e64b1376f6acd0359250638bcd40169150602401600060405180830381600087803b1580156101bd57600080fd5b505af11580156101d1573d6000803e3d6000fd5b50506040516345e6a00b60e11b8152735d285a71f2a74f9d4a38932953358bca17ee1dfc600482015273795de779be00ea46ea97a28bdd38d9ed570bcf0f9250638bcd40169150602401600060405180830381600087803b15801561023557600080fd5b505af1158015610249573d6000803e3d6000fd5b50506040516345e6a00b60e11b81526000805160206111ec8339815191526004820152738f657dfd3a1354deb4545765fe6840cc54afd3799250638bcd40169150602401600060405180830381600087803b1580156102a757600080fd5b505af11580156102bb573d6000803e3d6000fd5b50506040516345e6a00b60e11b81526000805160206111ec83398151915260048201527302c5fb0f26761093d297165e902e96d08576d3449250638bcd40169150602401600060405180830381600087803b15801561031957600080fd5b505af115801561032d573d6000803e3d6000fd5b50506040516345e6a00b60e11b81527304f75b66efaf6309a304336bf3e6759ef2c42b1c6004820152731d8bbde12b6b34140604e18e9f9c6e14dec168549250638bcd40169150602401600060405180830381600087803b15801561039157600080fd5b505af11580156103a5573d6000803e3d6000fd5b50506040516345e6a00b60e11b815273ea3fc3698bd29f756e8f4b0bdcd9d836edc419c2600482015273a615467cae6b9e0bb98bc04b4411d9296fd1dfa09250638bcd40169150602401600060405180830381600087803b15801561040957600080fd5b505af115801561041d573d6000803e3d6000fd5b50506040516345e6a00b60e11b81526000805160206111ec83398151915260048201527319ce11c8817a1828d1d357dfbf62dcf5b0b2a3629250638bcd40169150602401600060405180830381600087803b15801561047b57600080fd5b505af115801561048f573d6000803e3d6000fd5b50506040516345e6a00b60e11b815273572f9bb6d6762ecddf2165582d5098d9d5ddc0c960048201527353728fd51060a85ac41974c6c3eb1dae427767239250638bcd40169150602401600060405180830381600087803b1580156104f357600080fd5b505af1158015610507573d6000803e3d6000fd5b50506040516345e6a00b60e11b81527362ce9f349843c99d11ab024447e6ad840d5dd58b600482015273ff1112ba7f88a53d4d23ed4e14a117a2ae17c6be9250638bcd40169150602401600060405180830381600087803b15801561056b57600080fd5b505af115801561057f573d6000803e3d6000fd5b50506040516345e6a00b60e11b81526000805160206111ec833981519152600482015273736bf1d21a28b5dc19a1ac8ca71fc2856c23c03f9250638bcd40169150602401600060405180830381600087803b1580156105dd57600080fd5b505af11580156105f1573d6000803e3d6000fd5b50506040516345e6a00b60e11b81526000805160206111ec833981519152600482015273e5fe5527a5b76c75eede77fdfa6b80d52444a4659250638bcd40169150602401600060405180830381600087803b15801561064f57600080fd5b505af1158015610663573d6000803e3d6000fd5b50506040516345e6a00b60e11b81526000805160206111ec833981519152600482015273c353b7a1e13ddba393b5e120d4169da7185aa2cb9250638bcd40169150602401600060405180830381600087803b1580156106c157600080fd5b505af11580156106d5573d6000803e3d6000fd5b50506040516345e6a00b60e11b81527304f75b66efaf6309a304336bf3e6759ef2c42b1c6004820152734978591f17670a846137d9d613e333c38dc68a379250638bcd40169150602401600060405180830381600087803b15801561073957600080fd5b505af115801561074d573d6000803e3d6000fd5b50506040516345e6a00b60e11b815273ea3fc3698bd29f756e8f4b0bdcd9d836edc419c26004820152739f2fd23bd0a5e08c5f2b9dd6cf9c96bfb5fa515c9250638bcd40169150602401600060405180830381600087803b1580156107b157600080fd5b505af11580156107c5573d6000803e3d6000fd5b50506040516345e6a00b60e11b81526000805160206111ec833981519152600482015273bfe25459ba784e70e2d7a718be99a1f3521ca17f9250638bcd40169150602401600060405180830381600087803b15801561082357600080fd5b505af1158015610837573d6000803e3d6000fd5b50506040516345e6a00b60e11b81526000805160206111ec8339815191526004820152735e21bf67a6af41c74c1773e4b473ca5ce8fd37919250638bcd40169150602401600060405180830381600087803b15801561089557600080fd5b505af11580156108a9573d6000803e3d6000fd5b50506040516345e6a00b60e11b81526000805160206111ec833981519152600482015273cc5d9e502574cda17215e70bc0b45466637852279250638bcd40169150602401600060405180830381600087803b15801561090757600080fd5b505af115801561091b573d6000803e3d6000fd5b50506040516345e6a00b60e11b8152736db1d5f1b5949dd18fb38f2c7f4792a543c2ecc9600482015273e10e80b7fd3a29fe46e16c30cc8f4dd938b742e29250638bcd40169150602401600060405180830381600087803b15801561097f57600080fd5b505af1158015610993573d6000803e3d6000fd5b50506040516345e6a00b60e11b8152735504444b7e2ba37ae919834125b19f697aca8bd6600482015273b3cd745d46a7551c7df21e0defeb710f546bca629250638bcd40169150602401600060405180830381600087803b1580156109f757600080fd5b505af1158015610a0b573d6000803e3d6000fd5b50506040516345e6a00b60e11b8152735504444b7e2ba37ae919834125b19f697aca8bd66004820152733ee4be3425e5cc72445cd4c5325a6b5a155076709250638bcd40169150602401600060405180830381600087803b158015610a6f57600080fd5b505af1158015610a83573d6000803e3d6000fd5b50506040516345e6a00b60e11b81526000805160206111ec833981519152600482015273d3cc9d8f3689b83c91b7b59cab4946b063eb894a9250638bcd40169150602401600060405180830381600087803b158015610ae157600080fd5b505af1158015610af5573d6000803e3d6000fd5b50506040516345e6a00b60e11b8152734a9ceade80f4e4fbb954dd839c3a60e1e926f229600482015273a537acf381b12bbb91c58398b66d1d220f1c77c89250638bcd40169150602401600060405180830381600087803b158015610b5957600080fd5b505af1158015610b6d573d6000803e3d6000fd5b50506040516345e6a00b60e11b8152734a9ceade80f4e4fbb954dd839c3a60e1e926f2296004820152734a50a0a1c832190362e1491d5bb464b1bc2bd2889250638bcd40169150602401600060405180830381600087803b158015610bd157600080fd5b505af1158015610be5573d6000803e3d6000fd5b50506040516345e6a00b60e11b81526000805160206111ec83398151915260048201527349c26e12959345472e2fd95e5f79f8381058d3ee9250638bcd40169150602401600060405180830381600087803b158015610c4357600080fd5b505af1158015610c57573d6000803e3d6000fd5b50506040516345e6a00b60e11b81526000805160206111ec83398151915260048201527385baa9cd6186b416ef92c0587cd9e9be3bce2a4d9250638bcd40169150602401600060405180830381600087803b158015610cb557600080fd5b505af1158015610cc9573d6000803e3d6000fd5b50506040516345e6a00b60e11b81526000805160206111ec833981519152600482015273b114cfa615c828d88021a41bfc524b800e64a9d59250638bcd40169150602401600060405180830381600087803b158015610d2757600080fd5b505af1158015610d3b573d6000803e3d6000fd5b50506040516345e6a00b60e11b81526000805160206111ec833981519152600482015273836beb2cb723c498136e1119248436a645845f4e9250638bcd40169150602401600060405180830381600087803b158015610d9957600080fd5b505af1158015610dad573d6000803e3d6000fd5b50506040516345e6a00b60e11b81527304f75b66efaf6309a304336bf3e6759ef2c42b1c600482015273281e5378f99a4bc55b295abc0a3e7ed32deba0599250638bcd40169150602401600060405180830381600087803b158015610e1157600080fd5b505af1158015610e25573d6000803e3d6000fd5b50506040516345e6a00b60e11b815273ea3fc3698bd29f756e8f4b0bdcd9d836edc419c2600482015273f1da185cce5bed1bebbb3007ef738ea4224025f79250638bcd40169150602401600060405180830381600087803b158015610e8957600080fd5b505af1158015610e9d573d6000803e3d6000fd5b50506040516345e6a00b60e11b81527362ce9f349843c99d11ab024447e6ad840d5dd58b60048201527352ed99cd0a56d60451dd4314058854bc0845bbb59250638bcd40169150602401600060405180830381600087803b158015610f0157600080fd5b505af1158015610f15573d6000803e3d6000fd5b50506040516345e6a00b60e11b81527354dad38165def4e77f9f788d44c0d89fd3ce7ebe6004820152734a9613d06a241b76b81d3777fce3ddd1f61d4bd09250638bcd40169150602401600060405180830381600087803b158015610f7957600080fd5b505af1158015610f8d573d6000803e3d6000fd5b50506040516345e6a00b60e11b815273dae1d8b317f2aaecfb74e8f0643cdeab63e6e21460048201527394180a3948296530024ef7d60f60b85cfe0422c89250638bcd40169150602401600060405180830381600087803b158015610ff157600080fd5b505af1158015611005573d6000803e3d6000fd5b50506040516345e6a00b60e11b815273dae1d8b317f2aaecfb74e8f0643cdeab63e6e214600482015273c5b24f347254bd8cf8988913d1fd0f795274900f9250638bcd40169150602401600060405180830381600087803b15801561106957600080fd5b505af115801561107d573d6000803e3d6000fd5b50506040516345e6a00b60e11b815273ac59b091657c7d4ed841715b1a8ac909a715ce46600482015273eccacf760fea7943c5b0285bd09f601505a29c059250638bcd40169150602401600060405180830381600087803b1580156110e157600080fd5b505af11580156110f5573d6000803e3d6000fd5b50506040516345e6a00b60e11b81527372678413e92f11a3edb62b310cfb8fb46b6da6f66004820152738f2ae20b25c327714248c95dfd3b02815cc823029250638bcd40169150602401600060405180830381600087803b15801561115957600080fd5b505af115801561116d573d6000803e3d6000fd5b50506040516345e6a00b60e11b81527372678413e92f11a3edb62b310cfb8fb46b6da6f660048201527302243f036897e3be1cce1e540fa362fd587491499250638bcd40169150602401600060405180830381600087803b1580156111d157600080fd5b505af11580156111e5573d6000803e3d6000fd5b5050505056fe0000000000000000000000001e8d70accaad5718bdb54c00a8713b8fd1996a36a26469706673582212208f0faabe5f57b331b197407fb14da62d661b2f694e6662c3c84125a03a3e23ec64736f6c63430008190033",
  "devdoc": {
    "kind": "dev",
    "methods": {},
    "version": 1
  },
  "userdoc": {
    "kind": "user",
    "methods": {},
    "version": 1
  },
  "storageLayout": {
    "storage": [],
    "types": null
  }
}