{
  "address": "0x916e607AF3250ECB2Fd4ea82A37Eb2756A20e1fC",
  "abi": [
    {
      "inputs": [],
      "stateMutability": "nonpayable",
      "type": "constructor"
    },
    {
      "inputs": [
        {
          "internalType": "address",
          "name": "token",
          "type": "address"
        },
        {
          "internalType": "address",
          "name": "recipient",
          "type": "address"
        },
        {
          "internalType": "uint256",
          "name": "amount",
          "type": "uint256"
        },
        {
          "internalType": "uint256",
          "name": "availableBalance",
          "type": "uint256"
        }
      ],
      "name": "InsufficientBalance",
      "type": "error"
    },
    {
      "inputs": [
        {
          "internalType": "address",
          "name": "token",
          "type": "address"
        },
        {
          "internalType": "address",
          "name": "user",
          "type": "address"
        },
        {
          "internalType": "uint256",
          "name": "owedAmount",
          "type": "uint256"
        },
        {
          "internalType": "uint256",
          "name": "amount",
          "type": "uint256"
        }
      ],
      "name": "InsufficientDebt",
      "type": "error"
    },
    {
      "inputs": [
        {
          "internalType": "address",
          "name": "sender",
          "type": "address"
        },
        {
          "internalType": "address",
          "name": "calledContract",
          "type": "address"
        },
        {
          "internalType": "string",
          "name": "methodSignature",
          "type": "string"
        }
      ],
      "name": "Unauthorized",
      "type": "error"
    },
    {
      "inputs": [],
      "name": "ZeroAddressNotAllowed",
      "type": "error"
    },
    {
      "anonymous": false,
      "inputs": [
        {
          "indexed": true,
          "internalType": "address",
          "name": "comptroller",
          "type": "address"
        },
        {
          "indexed": false,
          "internalType": "uint256",
          "name": "auctionStartBlock",
          "type": "uint256"
        },
        {
          "indexed": true,
          "internalType": "address",
          "name": "highestBidder",
          "type": "address"
        },
        {
          "indexed": false,
          "internalType": "uint256",
          "name": "highestBidBps",
          "type": "uint256"
        },
        {
          "indexed": false,
          "internalType": "uint256",
          "name": "seizedRiskFind",
          "type": "uint256"
        },
        {
          "indexed": false,
          "internalType": "contract VToken[]",
          "name": "markets",
          "type": "address[]"
        },
        {
          "indexed": false,
          "internalType": "uint256[]",
          "name": "marketDebt",
          "type": "uint256[]"
        }
      ],
      "name": "AuctionClosed",
      "type": "event"
    },
    {
      "anonymous": false,
      "inputs": [
        {
          "indexed": true,
          "internalType": "address",
          "name": "comptroller",
          "type": "address"
        },
        {
          "indexed": false,
          "internalType": "uint256",
          "name": "auctionStartBlock",
          "type": "uint256"
        }
      ],
      "name": "AuctionRestarted",
      "type": "event"
    },
    {
      "anonymous": false,
      "inputs": [
        {
          "indexed": true,
          "internalType": "address",
          "name": "comptroller",
          "type": "address"
        },
        {
          "indexed": false,
          "internalType": "uint256",
          "name": "auctionStartBlock",
          "type": "uint256"
        },
        {
          "indexed": false,
          "internalType": "enum Shortfall.AuctionType",
          "name": "auctionType",
          "type": "uint8"
        },
        {
          "indexed": false,
          "internalType": "contract VToken[]",
          "name": "markets",
          "type": "address[]"
        },
        {
          "indexed": false,
          "internalType": "uint256[]",
          "name": "marketsDebt",
          "type": "uint256[]"
        },
        {
          "indexed": false,
          "internalType": "uint256",
          "name": "seizedRiskFund",
          "type": "uint256"
        },
        {
          "indexed": false,
          "internalType": "uint256",
          "name": "startBidBps",
          "type": "uint256"
        }
      ],
      "name": "AuctionStarted",
      "type": "event"
    },
    {
      "anonymous": false,
      "inputs": [
        {
          "indexed": false,
          "internalType": "address",
          "name": "sender",
          "type": "address"
        }
      ],
      "name": "AuctionsPaused",
      "type": "event"
    },
    {
      "anonymous": false,
      "inputs": [
        {
          "indexed": false,
          "internalType": "address",
          "name": "sender",
          "type": "address"
        }
      ],
      "name": "AuctionsResumed",
      "type": "event"
    },
    {
      "anonymous": false,
      "inputs": [
        {
          "indexed": true,
          "internalType": "address",
          "name": "comptroller",
          "type": "address"
        },
        {
          "indexed": false,
          "internalType": "uint256",
          "name": "auctionStartBlock",
          "type": "uint256"
        },
        {
          "indexed": false,
          "internalType": "uint256",
          "name": "bidBps",
          "type": "uint256"
        },
        {
          "indexed": true,
          "internalType": "address",
          "name": "bidder",
          "type": "address"
        }
      ],
      "name": "BidPlaced",
      "type": "event"
    },
    {
      "anonymous": false,
      "inputs": [
        {
          "indexed": false,
          "internalType": "uint256",
          "name": "oldIncentiveBps",
          "type": "uint256"
        },
        {
          "indexed": false,
          "internalType": "uint256",
          "name": "newIncentiveBps",
          "type": "uint256"
        }
      ],
      "name": "IncentiveBpsUpdated",
      "type": "event"
    },
    {
      "anonymous": false,
      "inputs": [
        {
          "indexed": false,
          "internalType": "uint8",
          "name": "version",
          "type": "uint8"
        }
      ],
      "name": "Initialized",
      "type": "event"
    },
    {
      "anonymous": false,
      "inputs": [
        {
          "indexed": false,
          "internalType": "uint256",
          "name": "oldMinimumPoolBadDebt",
          "type": "uint256"
        },
        {
          "indexed": false,
          "internalType": "uint256",
          "name": "newMinimumPoolBadDebt",
          "type": "uint256"
        }
      ],
      "name": "MinimumPoolBadDebtUpdated",
      "type": "event"
    },
    {
      "anonymous": false,
      "inputs": [
        {
          "indexed": false,
          "internalType": "address",
          "name": "oldAccessControlManager",
          "type": "address"
        },
        {
          "indexed": false,
          "internalType": "address",
          "name": "newAccessControlManager",
          "type": "address"
        }
      ],
      "name": "NewAccessControlManager",
      "type": "event"
    },
    {
      "anonymous": false,
      "inputs": [
        {
          "indexed": false,
          "internalType": "uint256",
          "name": "oldNextBidderBlockLimit",
          "type": "uint256"
        },
        {
          "indexed": false,
          "internalType": "uint256",
          "name": "newNextBidderBlockLimit",
          "type": "uint256"
        }
      ],
      "name": "NextBidderBlockLimitUpdated",
      "type": "event"
    },
    {
      "anonymous": false,
      "inputs": [
        {
          "indexed": true,
          "internalType": "address",
          "name": "previousOwner",
          "type": "address"
        },
        {
          "indexed": true,
          "internalType": "address",
          "name": "newOwner",
          "type": "address"
        }
      ],
      "name": "OwnershipTransferStarted",
      "type": "event"
    },
    {
      "anonymous": false,
      "inputs": [
        {
          "indexed": true,
          "internalType": "address",
          "name": "previousOwner",
          "type": "address"
        },
        {
          "indexed": true,
          "internalType": "address",
          "name": "newOwner",
          "type": "address"
        }
      ],
      "name": "OwnershipTransferred",
      "type": "event"
    },
    {
      "anonymous": false,
      "inputs": [
        {
          "indexed": true,
          "internalType": "address",
          "name": "oldPoolRegistry",
          "type": "address"
        },
        {
          "indexed": true,
          "internalType": "address",
          "name": "newPoolRegistry",
          "type": "address"
        }
      ],
      "name": "PoolRegistryUpdated",
      "type": "event"
    },
    {
      "anonymous": false,
      "inputs": [
        {
          "indexed": true,
          "internalType": "address",
          "name": "token",
          "type": "address"
        },
        {
          "indexed": true,
          "internalType": "address",
          "name": "user",
          "type": "address"
        },
        {
          "indexed": false,
          "internalType": "uint256",
          "name": "amount",
          "type": "uint256"
        }
      ],
      "name": "TokenDebtAdded",
      "type": "event"
    },
    {
      "anonymous": false,
      "inputs": [
        {
          "indexed": true,
          "internalType": "address",
          "name": "token",
          "type": "address"
        },
        {
          "indexed": true,
          "internalType": "address",
          "name": "user",
          "type": "address"
        },
        {
          "indexed": false,
          "internalType": "uint256",
          "name": "amount",
          "type": "uint256"
        }
      ],
      "name": "TokenDebtClaimed",
      "type": "event"
    },
    {
      "anonymous": false,
      "inputs": [
        {
          "indexed": false,
          "internalType": "uint256",
          "name": "oldWaitForFirstBidder",
          "type": "uint256"
        },
        {
          "indexed": false,
          "internalType": "uint256",
          "name": "newWaitForFirstBidder",
          "type": "uint256"
        }
      ],
      "name": "WaitForFirstBidderUpdated",
      "type": "event"
    },
    {
      "inputs": [],
      "name": "acceptOwnership",
      "outputs": [],
      "stateMutability": "nonpayable",
      "type": "function"
    },
    {
      "inputs": [],
      "name": "accessControlManager",
      "outputs": [
        {
          "internalType": "contract IAccessControlManagerV8",
          "name": "",
          "type": "address"
        }
      ],
      "stateMutability": "view",
      "type": "function"
    },
    {
      "inputs": [
        {
          "internalType": "address",
          "name": "",
          "type": "address"
        }
      ],
      "name": "auctions",
      "outputs": [
        {
          "internalType": "uint256",
          "name": "startBlock",
          "type": "uint256"
        },
        {
          "internalType": "enum Shortfall.AuctionType",
          "name": "auctionType",
          "type": "uint8"
        },
        {
          "internalType": "enum Shortfall.AuctionStatus",
          "name": "status",
          "type": "uint8"
        },
        {
          "internalType": "uint256",
          "name": "seizedRiskFund",
          "type": "uint256"
        },
        {
          "internalType": "address",
          "name": "highestBidder",
          "type": "address"
        },
        {
          "internalType": "uint256",
          "name": "highestBidBps",
          "type": "uint256"
        },
        {
          "internalType": "uint256",
          "name": "highestBidBlock",
          "type": "uint256"
        },
        {
          "internalType": "uint256",
          "name": "startBidBps",
          "type": "uint256"
        }
      ],
      "stateMutability": "view",
      "type": "function"
    },
    {
      "inputs": [],
      "name": "auctionsPaused",
      "outputs": [
        {
          "internalType": "bool",
          "name": "",
          "type": "bool"
        }
      ],
      "stateMutability": "view",
      "type": "function"
    },
    {
      "inputs": [
        {
          "internalType": "contract IERC20Upgradeable",
          "name": "token",
          "type": "address"
        },
        {
          "internalType": "uint256",
          "name": "amount_",
          "type": "uint256"
        }
      ],
      "name": "claimTokenDebt",
      "outputs": [],
      "stateMutability": "nonpayable",
      "type": "function"
    },
    {
      "inputs": [
        {
          "internalType": "address",
          "name": "comptroller",
          "type": "address"
        }
      ],
      "name": "closeAuction",
      "outputs": [],
      "stateMutability": "nonpayable",
      "type": "function"
    },
    {
      "inputs": [],
      "name": "incentiveBps",
      "outputs": [
        {
          "internalType": "uint256",
          "name": "",
          "type": "uint256"
        }
      ],
      "stateMutability": "view",
      "type": "function"
    },
    {
      "inputs": [
        {
          "internalType": "contract IRiskFund",
          "name": "riskFund_",
          "type": "address"
        },
        {
          "internalType": "uint256",
          "name": "minimumPoolBadDebt_",
          "type": "uint256"
        },
        {
          "internalType": "address",
          "name": "accessControlManager_",
          "type": "address"
        }
      ],
      "name": "initialize",
      "outputs": [],
      "stateMutability": "nonpayable",
      "type": "function"
    },
    {
      "inputs": [],
      "name": "minimumPoolBadDebt",
      "outputs": [
        {
          "internalType": "uint256",
          "name": "",
          "type": "uint256"
        }
      ],
      "stateMutability": "view",
      "type": "function"
    },
    {
      "inputs": [],
      "name": "nextBidderBlockLimit",
      "outputs": [
        {
          "internalType": "uint256",
          "name": "",
          "type": "uint256"
        }
      ],
      "stateMutability": "view",
      "type": "function"
    },
    {
      "inputs": [],
      "name": "owner",
      "outputs": [
        {
          "internalType": "address",
          "name": "",
          "type": "address"
        }
      ],
      "stateMutability": "view",
      "type": "function"
    },
    {
      "inputs": [],
      "name": "pauseAuctions",
      "outputs": [],
      "stateMutability": "nonpayable",
      "type": "function"
    },
    {
      "inputs": [],
      "name": "pendingOwner",
      "outputs": [
        {
          "internalType": "address",
          "name": "",
          "type": "address"
        }
      ],
      "stateMutability": "view",
      "type": "function"
    },
    {
      "inputs": [
        {
          "internalType": "address",
          "name": "comptroller",
          "type": "address"
        },
        {
          "internalType": "uint256",
          "name": "bidBps",
          "type": "uint256"
        },
        {
          "internalType": "uint256",
          "name": "auctionStartBlock",
          "type": "uint256"
        }
      ],
      "name": "placeBid",
      "outputs": [],
      "stateMutability": "nonpayable",
      "type": "function"
    },
    {
      "inputs": [],
      "name": "poolRegistry",
      "outputs": [
        {
          "internalType": "address",
          "name": "",
          "type": "address"
        }
      ],
      "stateMutability": "view",
      "type": "function"
    },
    {
      "inputs": [],
      "name": "renounceOwnership",
      "outputs": [],
      "stateMutability": "nonpayable",
      "type": "function"
    },
    {
      "inputs": [
        {
          "internalType": "address",
          "name": "comptroller",
          "type": "address"
        }
      ],
      "name": "restartAuction",
      "outputs": [],
      "stateMutability": "nonpayable",
      "type": "function"
    },
    {
      "inputs": [],
      "name": "resumeAuctions",
      "outputs": [],
      "stateMutability": "nonpayable",
      "type": "function"
    },
    {
      "inputs": [],
      "name": "riskFund",
      "outputs": [
        {
          "internalType": "contract IRiskFund",
          "name": "",
          "type": "address"
        }
      ],
      "stateMutability": "view",
      "type": "function"
    },
    {
      "inputs": [
        {
          "internalType": "address",
          "name": "accessControlManager_",
          "type": "address"
        }
      ],
      "name": "setAccessControlManager",
      "outputs": [],
      "stateMutability": "nonpayable",
      "type": "function"
    },
    {
      "inputs": [
        {
          "internalType": "address",
          "name": "comptroller",
          "type": "address"
        }
      ],
      "name": "startAuction",
      "outputs": [],
      "stateMutability": "nonpayable",
      "type": "function"
    },
    {
      "inputs": [
        {
          "internalType": "contract IERC20Upgradeable",
          "name": "",
          "type": "address"
        },
        {
          "internalType": "address",
          "name": "",
          "type": "address"
        }
      ],
      "name": "tokenDebt",
      "outputs": [
        {
          "internalType": "uint256",
          "name": "",
          "type": "uint256"
        }
      ],
      "stateMutability": "view",
      "type": "function"
    },
    {
      "inputs": [
        {
          "internalType": "contract IERC20Upgradeable",
          "name": "",
          "type": "address"
        }
      ],
      "name": "totalTokenDebt",
      "outputs": [
        {
          "internalType": "uint256",
          "name": "",
          "type": "uint256"
        }
      ],
      "stateMutability": "view",
      "type": "function"
    },
    {
      "inputs": [
        {
          "internalType": "address",
          "name": "newOwner",
          "type": "address"
        }
      ],
      "name": "transferOwnership",
      "outputs": [],
      "stateMutability": "nonpayable",
      "type": "function"
    },
    {
      "inputs": [
        {
          "internalType": "uint256",
          "name": "_incentiveBps",
          "type": "uint256"
        }
      ],
      "name": "updateIncentiveBps",
      "outputs": [],
      "stateMutability": "nonpayable",
      "type": "function"
    },
    {
      "inputs": [
        {
          "internalType": "uint256",
          "name": "_minimumPoolBadDebt",
          "type": "uint256"
        }
      ],
      "name": "updateMinimumPoolBadDebt",
      "outputs": [],
      "stateMutability": "nonpayable",
      "type": "function"
    },
    {
      "inputs": [
        {
          "internalType": "uint256",
          "name": "_nextBidderBlockLimit",
          "type": "uint256"
        }
      ],
      "name": "updateNextBidderBlockLimit",
      "outputs": [],
      "stateMutability": "nonpayable",
      "type": "function"
    },
    {
      "inputs": [
        {
          "internalType": "address",
          "name": "poolRegistry_",
          "type": "address"
        }
      ],
      "name": "updatePoolRegistry",
      "outputs": [],
      "stateMutability": "nonpayable",
      "type": "function"
    },
    {
      "inputs": [
        {
          "internalType": "uint256",
          "name": "_waitForFirstBidder",
          "type": "uint256"
        }
      ],
      "name": "updateWaitForFirstBidder",
      "outputs": [],
      "stateMutability": "nonpayable",
      "type": "function"
    },
    {
      "inputs": [],
      "name": "waitForFirstBidder",
      "outputs": [
        {
          "internalType": "uint256",
          "name": "",
          "type": "uint256"
        }
      ],
      "stateMutability": "view",
      "type": "function"
    }
  ],
  "transactionHash": "0xb52e9cab1643fcc3836a7b4531380d4432acd32eae648c9fe3906ed07c10c624",
  "args": [],
  "numDeployments": 1,
  "solcInputHash": "394b060e0e484d4aa39aea929deecf07",
  "bytecode": "0x60806040523480156200001157600080fd5b506200001c62000022565b620000e3565b600054610100900460ff16156200008f5760405162461bcd60e51b815260206004820152602760248201527f496e697469616c697a61626c653a20636f6e747261637420697320696e697469604482015266616c697a696e6760c81b606482015260840160405180910390fd5b60005460ff90811614620000e1576000805460ff191660ff9081179091556040519081527f7f26b83ff96e1f2b6a682f133852f6798a09c465da95921460cefb38474024989060200160405180910390a15b565b61379080620000f36000396000f3fe608060405234801561001057600080fd5b50600436106101da5760003560e01c806376ee801711610104578063a23926e1116100a2578063c350a1b511610071578063c350a1b51461043a578063e30c39781461044d578063e630fee01461045e578063f2fde38b1461047157600080fd5b8063a23926e1146103e4578063ae8ddcb014610402578063afcff50f14610415578063b4a0bdf31461042957600080fd5b80637f9c714f116100de5780637f9c714f14610396578063892149a3146103c15780638da5cb5b146103cb57806391f8e694146103dc57600080fd5b806376ee80171461034f57806379ba5097146103625780637cf890301461036a57600080fd5b80634b34e5661161017c578063690d6a141161014b578063690d6a141461030a5780636f254c321461032a578063715018a61461033d57806373d73f401461034557600080fd5b80634b34e566146102c957806351b2fd01146102dc5780635be3fe1b146102ef57806367cd03ab146102f757600080fd5b80631d59410a116101b85780631d59410a1461021a578063264ad3d4146102945780634075fa0f146102ac578063438d33d7146102bf57600080fd5b806304717aca146101df5780630db011d0146101f45780630e32cb8614610207575b600080fd5b6101f26101ed366004612fcf565b610484565b005b6101f2610202366004613004565b610afb565b6101f2610215366004613004565b610c60565b610277610228366004613004565b610134602052600090815260409020805460018201546003830154600484015460058501546006860154600790960154949560ff8086169661010090960416946001600160a01b039093169288565b60405161028b98979695949392919061304b565b60405180910390f35b61029e61012f5481565b60405190815260200161028b565b6101f26102ba366004613004565b610c71565b61029e6101305481565b6101f26102d7366004613004565b610cd6565b6101f26102ea3660046130aa565b611300565b6101f2611368565b6101f26103053660046130aa565b61142d565b61029e610318366004613004565b60fc6020526000908152604090205481565b6101f26103383660046130aa565b6114fa565b6101f26115b6565b61029e6101315481565b6101f261035d3660046130c3565b6115ca565b6101f26116e3565b61012e5461037e906001600160a01b031681565b6040516001600160a01b03909116815260200161028b565b61029e6103a43660046130ef565b60fb60209081526000928352604080842090915290825290205481565b61029e6101335481565b6033546001600160a01b031661037e565b6101f261175a565b610132546103f29060ff1681565b604051901515815260200161028b565b6101f2610410366004613004565b61181c565b61012d5461037e906001600160a01b031681565b6097546001600160a01b031661037e565b6101f2610448366004613128565b611880565b6065546001600160a01b031661037e565b6101f261046c3660046130aa565b611a45565b6101f261047f366004613004565b611aa5565b61048c611b16565b6001600160a01b038316600090815261013460205260409020805482146104fa5760405162461bcd60e51b815260206004820152601a60248201527f61756374696f6e20686173206265656e2072657374617274656400000000000060448201526064015b60405180910390fd5b61050381611b6f565b61051f5760405162461bcd60e51b81526004016104f19061316a565b61052881611b97565b156105755760405162461bcd60e51b815260206004820152601c60248201527f61756374696f6e206973207374616c652c20726573746172742069740000000060448201526064016104f1565b600083116105c55760405162461bcd60e51b815260206004820152601b60248201527f626173697320706f696e74732063616e6e6f74206265207a65726f000000000060448201526064016104f1565b6127108311156106265760405162461bcd60e51b815260206004820152602660248201527f626173697320706f696e74732063616e6e6f74206265206d6f7265207468616e60448201526502031303030360d41b60648201526084016104f1565b600060018083015460ff169081111561064157610641613021565b14801561068d575060048101546001600160a01b0316158015906106685750806005015483115b8061068d575060048101546001600160a01b031615801561068d575080600701548310155b806106f8575060018181015460ff16818111156106ac576106ac613021565b1480156106f8575060048101546001600160a01b0316158015906106d35750806005015483105b806106f8575060048101546001600160a01b03161580156106f8575080600701548311155b6107445760405162461bcd60e51b815260206004820152601b60248201527f796f757220626964206973206e6f74207468652068696768657374000000000060448201526064016104f1565b600281015460005b81811015610a7f57600083600201828154811061076b5761076b613197565b600091825260208083209091015460408051636f307dc360e01b815290516001600160a01b0390921694508492636f307dc3926004808401938290030181865afa1580156107bd573d6000803e3d6000fd5b505050506040513d601f19601f820116820180604052508101906107e191906131bd565b60048601549091506001600160a01b03161561085857610858818660040160009054906101000a90046001600160a01b031687600901600089600201888154811061082e5761082e613197565b60009182526020808320909101546001600160a01b03168352820192909252604001902054611bcb565b6040516370a0823160e01b81523060048201526000906001600160a01b038316906370a0823190602401602060405180830381865afa15801561089f573d6000803e3d6000fd5b505050506040513d601f19601f820116820180604052508101906108c391906131da565b9050600060018088015460ff16908111156108e0576108e0613021565b0361095c576000612710898860080160008a600201898154811061090657610906613197565b60009182526020808320909101546001600160a01b031683528201929092526040019020546109359190613209565b61093f9190613228565b90506109566001600160a01b038416333084611c83565b506109b1565b6109b133308860080160008a600201898154811061097c5761097c613197565b60009182526020808320909101546001600160a01b039081168452908301939093526040909101902054908616929190611c83565b6040516370a0823160e01b81523060048201526000906001600160a01b038416906370a0823190602401602060405180830381865afa1580156109f8573d6000803e3d6000fd5b505050506040513d601f19601f82011682018060405250810190610a1c91906131da565b9050610a28828261324a565b876009016000896002018881548110610a4357610a43613197565b60009182526020808320909101546001600160a01b0316835282019290925260400190205550610a7892508391506132619050565b905061074c565b506004820180546001600160a01b0319163390811790915560058301859055436006840155825460408051918252602082018790526001600160a01b038816917f5485cf82060404805b51f48c0c4afa3cec4a9e5755c0131e1243553f0eebb9a3910160405180910390a35050610af6600160c955565b505050565b610b03611b16565b6001600160a01b0381166000908152610134602052604090206101325460ff1615610b665760405162461bcd60e51b8152602060048201526013602482015272185d58dd1a5bdb9cc8185c99481c185d5cd959606a1b60448201526064016104f1565b610b6f81611b6f565b610b8b5760405162461bcd60e51b81526004016104f19061316a565b610b9481611b97565b610bf85760405162461bcd60e51b815260206004820152602f60248201527f796f75206e65656420746f207761697420666f72206d6f72652074696d65206660448201526e37b9103334b939ba103134b23232b960891b60648201526084016104f1565b60018101805461ff001916610200179055805460408051918252516001600160a01b038416917faca104a4f0d6f116782afaefa8b644e86d53857ff9151824131b726b49a858d4919081900360200190a2610c5282611cf5565b50610c5d600160c955565b50565b610c68612694565b610c5d816126ee565b610c79611b16565b6101325460ff1615610cc35760405162461bcd60e51b8152602060048201526013602482015272105d58dd1a5bdb9cc8185c99481c185d5cd959606a1b60448201526064016104f1565b610ccc81611cf5565b610c5d600160c955565b610cde611b16565b6001600160a01b038116600090815261013460205260409020610d0081611b6f565b610d1c5760405162461bcd60e51b81526004016104f19061316a565b610131548160060154610d2f919061327a565b43118015610d49575060048101546001600160a01b031615155b610dab5760405162461bcd60e51b815260206004820152602d60248201527f77616974696e6720666f72206e657874206269646465722e2063616e6e6f742060448201526c31b637b9b29030bab1ba34b7b760991b60648201526084016104f1565b600281015460008167ffffffffffffffff811115610dcb57610dcb613292565b604051908082528060200260200182016040528015610df4578160200160208202803683370190505b5060018401805461ff001916610200179055905060005b8281101561113b576000846002018281548110610e2a57610e2a613197565b600091825260208083209091015460408051636f307dc360e01b815290516001600160a01b0390921694508492636f307dc3926004808401938290030181865afa158015610e7c573d6000803e3d6000fd5b505050506040513d601f19601f82011682018060405250810190610ea091906131bd565b90506000816001600160a01b03166370a08231886002018681548110610ec857610ec8613197565b60009182526020909120015460405160e083901b6001600160e01b03191681526001600160a01b039091166004820152602401602060405180830381865afa158015610f18573d6000803e3d6000fd5b505050506040513d601f19601f82011682018060405250810190610f3c91906131da565b9050610fc3876002018581548110610f5657610f56613197565b9060005260206000200160009054906101000a90046001600160a01b03168860090160008a6002018881548110610f8f57610f8f613197565b60009182526020808320909101546001600160a01b03908116845290830193909352604090910190205490851691906127ac565b6000826001600160a01b03166370a08231896002018781548110610fe957610fe9613197565b60009182526020909120015460405160e083901b6001600160e01b03191681526001600160a01b039091166004820152602401602060405180830381865afa158015611039573d6000803e3d6000fd5b505050506040513d601f19601f8201168201806040525081019061105d91906131da565b9050611069828261324a565b86868151811061107b5761107b613197565b60200260200101818152505087600201858154811061109c5761109c613197565b60009182526020909120015486516001600160a01b039091169063ef60450c908890889081106110ce576110ce613197565b60200260200101516040518263ffffffff1660e01b81526004016110f491815260200190565b600060405180830381600087803b15801561110e57600080fd5b505af1158015611122573d6000803e3d6000fd5b50505050505050508061113490613261565b9050610e0b565b5060008060018086015460ff169081111561115857611158613021565b036111685750600383015461118c565b6127108460050154856003015461117f9190613209565b6111899190613228565b90505b61012e546040805163c8ecc0d360e01b815290516000926001600160a01b03169163c8ecc0d39160048083019260209291908290030181865afa1580156111d7573d6000803e3d6000fd5b505050506040513d601f19601f820116820180604052508101906111fb91906131bd565b61012e54604051630a9837c560e01b81526001600160a01b0389811660048301526024820186905292935060009290911690630a9837c5906044016020604051808303816000875af1158015611255573d6000803e3d6000fd5b505050506040513d601f19601f8201168201806040525081019061127991906131da565b60048701549091506112969083906001600160a01b031685611bcb565b6004860154865460058801546040516001600160a01b03938416938b16927ff50338be3ffa7cdbebca76c758cfd1745fb4abe5bd3736c2dbf0cc6483a7b93f926112e892879060028e01908c90613321565b60405180910390a3505050505050610c5d600160c955565b6113216040518060600160405280602181526020016136f6602191396127dc565b61012f80549082905560408051828152602081018490527f85814f0246fcd999c88af70c9e6238211e79444ff07ec745b80aed19ddb268c891015b60405180910390a15050565b6113996040518060400160405280601081526020016f726573756d6541756374696f6e73282960801b8152506127dc565b6101325460ff166113ec5760405162461bcd60e51b815260206004820152601760248201527f41756374696f6e7320617265206e6f742070617573656400000000000000000060448201526064016104f1565b610132805460ff191690556040513381527f91b812e075fb9190eebe2d938c00a7179d150156469a467ec60a290035f4635a906020015b60405180910390a1565b61146b6040518060400160405280601b81526020017f757064617465496e63656e746976654270732875696e743235362900000000008152506127dc565b806000036114bb5760405162461bcd60e51b815260206004820152601a60248201527f696e63656e74697665427073206d757374206e6f74206265203000000000000060448201526064016104f1565b61013080549082905560408051828152602081018490527f3d438fa36c5052935d12a6925d1660c8150c74ef11ca672d4279bc6fd41b8bcf910161135c565b61151b604051806060016040528060238152602001613717602391396127dc565b806000036115775760405162461bcd60e51b815260206004820152602360248201527f5f6e657874426964646572426c6f636b4c696d6974206d757374206e6f74206260448201526206520360ec1b60648201526084016104f1565b61013180549082905560408051828152602081018490527f3f22dba09ee9845bd2be6926fea5337a0db935ca059cbb205d62174783e29664910161135c565b6115be612694565b6115c8600061287a565b565b6001600160a01b038216600090815260fb602090815260408083203384529091528120549060001983146115fe5782611600565b815b90508181111561164257604051639d2df25760e01b81526001600160a01b038516600482015233602482015260448101839052606481018290526084016104f1565b6001600160a01b038416600081815260fb602090815260408083203384528252808320858703905592825260fc9052908120805483929061168490849061324a565b909155505060405181815233906001600160a01b038616907f8d0aa4a41b0206123877a3705f51d17acf5f31dc241d24188abb2b881297ecfd9060200160405180910390a36116dd6001600160a01b03851633836127ac565b50505050565b60655433906001600160a01b031681146117515760405162461bcd60e51b815260206004820152602960248201527f4f776e61626c6532537465703a2063616c6c6572206973206e6f7420746865206044820152683732bb9037bbb732b960b91b60648201526084016104f1565b610c5d8161287a565b61178a6040518060400160405280600f81526020016e706175736541756374696f6e73282960881b8152506127dc565b6101325460ff16156117de5760405162461bcd60e51b815260206004820152601b60248201527f41756374696f6e732061726520616c726561647920706175736564000000000060448201526064016104f1565b610132805460ff191660011790556040513381527fc1be5163c9ebecf05bfbd6c6ae7c2b6ce2d3c43088dffaf5270cbf951615049990602001611423565b611824612694565b61182d81612893565b61012d80546001600160a01b038381166001600160a01b0319831681179093556040519116919082907fa87b964d321035d2165e484ff4b722dd6eae30606c0b98887d2ed1a34e594bfe90600090a35050565b600054610100900460ff16158080156118a05750600054600160ff909116105b806118ba5750303b1580156118ba575060005460ff166001145b61191d5760405162461bcd60e51b815260206004820152602e60248201527f496e697469616c697a61626c653a20636f6e747261637420697320616c72656160448201526d191e481a5b9a5d1a585b1a5e995960921b60648201526084016104f1565b6000805460ff191660011790558015611940576000805461ff0019166101001790555b61194984612893565b826000036119995760405162461bcd60e51b815260206004820152601d60248201527f696e76616c6964206d696e696d756d20706f6f6c20626164206465627400000060448201526064016104f1565b6119a16128ba565b6119aa826128e9565b6119b2612910565b6119ba61293f565b61012f83905561012e80546001600160a01b0319166001600160a01b0386161790556064610133819055610131556103e861013055610132805460ff1916905580156116dd576000805461ff0019169055604051600181527f7f26b83ff96e1f2b6a682f133852f6798a09c465da95921460cefb38474024989060200160405180910390a150505050565b611a6660405180606001604052806021815260200161373a602191396127dc565b61013380549082905560408051828152602081018490527f2a5be8a6b827e16c392d22522295794d6baff64565057a17b1f14c9d6c125a60910161135c565b611aad612694565b606580546001600160a01b0383166001600160a01b03199091168117909155611ade6033546001600160a01b031690565b6001600160a01b03167f38d16b8cac22d99fc7c124b9cd0de2d3fa1faef420bfe791d8c362d765e2270060405160405180910390a350565b600260c95403611b685760405162461bcd60e51b815260206004820152601f60248201527f5265656e7472616e637947756172643a207265656e7472616e742063616c6c0060448201526064016104f1565b600260c955565b6000600180830154610100900460ff166002811115611b9057611b90613021565b1492915050565b60048101546000906001600160a01b031615808015611bc45750610133548354611bc1919061327a565b43115b9392505050565b6040516370a0823160e01b81523060048201526000906001600160a01b038516906370a0823190602401602060405180830381865afa158015611c12573d6000803e3d6000fd5b505050506040513d601f19601f82011682018060405250810190611c3691906131da565b905081811015611c785760405163861da4bd60e01b81526001600160a01b038516600482015230602482015260448101839052606481018290526084016104f1565b6116dd84848461296e565b6040516001600160a01b03808516602483015283166044820152606481018290526116dd9085906323b872dd60e01b906084015b60408051601f198184030181529190526020810180516001600160e01b03166001600160e01b031990931692909217909152612a40565b600160c955565b61012d54604051637aee632d60e01b81526001600160a01b0383811660048301526000921690637aee632d90602401600060405180830381865afa158015611d41573d6000803e3d6000fd5b505050506040513d6000823e601f3d908101601f19168201604052611d6991908101906133ea565b9050816001600160a01b031681604001516001600160a01b031614611de05760405162461bcd60e51b815260206004820152602760248201527f636f6d7074726f6c6c657220646f65736e277420657869737420706f6f6c20726044820152666567697374727960c81b60648201526084016104f1565b6001600160a01b038216600090815261013460205260408120906001820154610100900460ff166002811115611e1857611e18613021565b1480611e41575060026001820154610100900460ff166002811115611e3f57611e3f613021565b145b611e835760405162461bcd60e51b815260206004820152601360248201527261756374696f6e206973206f6e2d676f696e6760681b60448201526064016104f1565b600060058201819055600682018190556002820154905b81811015611eee576000836002018281548110611eb957611eb9613197565b60009182526020808320909101546001600160a01b03168252600886019052604081205550611ee781613261565b9050611e9a565b50611efd600283016000612f22565b6000611f0885612b15565b9050805191506000611f1986612b83565b90506000808467ffffffffffffffff811115611f3757611f37613292565b604051908082528060200260200182016040528015611f60578160200160208202803683370190505b5090508467ffffffffffffffff811115611f7c57611f7c613292565b604051908082528060200260200182016040528015611fa5578160200160208202803683370190505b508051611fbc916002890191602090910190612f40565b5060005b85811015612264576000858281518110611fdc57611fdc613197565b60200260200101516001600160a01b031663bbcac5576040518163ffffffff1660e01b8152600401602060405180830381865afa158015612021573d6000803e3d6000fd5b505050506040513d601f19601f8201168201806040525081019061204591906131da565b9050846001600160a01b03166396e85ced87848151811061206857612068613197565b60200260200101516040518263ffffffff1660e01b815260040161209b91906001600160a01b0391909116815260200190565b600060405180830381600087803b1580156120b557600080fd5b505af11580156120c9573d6000803e3d6000fd5b505050506000670de0b6b3a764000082876001600160a01b031663fc57d4df8a87815181106120fa576120fa613197565b60200260200101516040518263ffffffff1660e01b815260040161212d91906001600160a01b0391909116815260200190565b602060405180830381865afa15801561214a573d6000803e3d6000fd5b505050506040513d601f19601f8201168201806040525081019061216e91906131da565b6121789190613209565b6121829190613228565b905061218e818661327a565b94508683815181106121a2576121a2613197565b60200260200101518960020184815481106121bf576121bf613197565b9060005260206000200160006101000a8154816001600160a01b0302191690836001600160a01b031602179055508189600801600089868151811061220657612206613197565b60200260200101516001600160a01b03166001600160a01b03168152602001908152602001600020819055508184848151811061224557612245613197565b60200260200101818152505050508061225d90613261565b9050611fc0565b5061012f548210156122b85760405162461bcd60e51b815260206004820152601860248201527f706f6f6c20626164206465627420697320746f6f206c6f77000000000000000060448201526064016104f1565b826001600160a01b031663b62cad6961012e60009054906101000a90046001600160a01b03166001600160a01b031663c8ecc0d36040518163ffffffff1660e01b8152600401602060405180830381865afa15801561231b573d6000803e3d6000fd5b505050506040513d601f19601f8201168201806040525081019061233f91906131bd565b6040516001600160e01b031960e084901b1681526001600160a01b039091166004820152602401600060405180830381600087803b15801561238057600080fd5b505af1158015612394573d6000803e3d6000fd5b505061012e5460405163534de8cf60e11b81526001600160a01b038c8116600483015260009450670de0b6b3a764000093509091169063a69bd19e90602401602060405180830381865afa1580156123f0573d6000803e3d6000fd5b505050506040513d601f19601f8201168201806040525081019061241491906131da565b856001600160a01b03166341976e0961012e60009054906101000a90046001600160a01b03166001600160a01b031663c8ecc0d36040518163ffffffff1660e01b8152600401602060405180830381865afa158015612477573d6000803e3d6000fd5b505050506040513d601f19601f8201168201806040525081019061249b91906131bd565b6040516001600160e01b031960e084901b1681526001600160a01b039091166004820152602401602060405180830381865afa1580156124df573d6000803e3d6000fd5b505050506040513d601f19601f8201168201806040525081019061250391906131da565b61250d9190613209565b6125179190613228565b90506000819050600061271061013054866125329190613209565b61253c9190613228565b612546908661327a565b90508281106125a4576101305461255f9061271061327a565b6125699086613209565b8261257661271080613209565b6125809190613209565b61258a9190613228565b60078a015560018901805460ff19169055600091506125cb565b806125af818461324a565b60018b8101805460ff1916909117905561271060078c01559250505b6125d5828461324a565b60038a01554389556001808a01805461ff00191661010083021790555060008960040160006101000a8154816001600160a01b0302191690836001600160a01b031602179055508a6001600160a01b03167f56c1f0c5ea96c78d614c0246b1915086a325f09ce15526bd5d69b50232d681328a600001548b60010160009054906101000a900460ff168c600201888e600301548f6007015460405161267f969594939291906134e0565b60405180910390a25050505050505050505050565b6033546001600160a01b031633146115c85760405162461bcd60e51b815260206004820181905260248201527f4f776e61626c653a2063616c6c6572206973206e6f7420746865206f776e657260448201526064016104f1565b6001600160a01b0381166127525760405162461bcd60e51b815260206004820152602560248201527f696e76616c696420616365737320636f6e74726f6c206d616e61676572206164604482015264647265737360d81b60648201526084016104f1565b609780546001600160a01b038381166001600160a01b031983168117909355604080519190921680825260208201939093527f66fd58e82f7b31a2a5c30e0888f3093efe4e111b00cd2b0c31fe014601293aa0910161135c565b6040516001600160a01b038316602482015260448101829052610af690849063a9059cbb60e01b90606401611cb7565b6097546040516318c5e8ab60e01b81526000916001600160a01b0316906318c5e8ab9061280f903390869060040161355a565b602060405180830381865afa15801561282c573d6000803e3d6000fd5b505050506040513d601f19601f82011682018060405250810190612850919061357e565b90508061287657333083604051634a3fa29360e01b81526004016104f1939291906135a0565b5050565b606580546001600160a01b0319169055610c5d81612be7565b6001600160a01b038116610c5d576040516342bcdf7f60e11b815260040160405180910390fd5b600054610100900460ff166128e15760405162461bcd60e51b81526004016104f1906135d5565b6115c8612c39565b600054610100900460ff16610c685760405162461bcd60e51b81526004016104f1906135d5565b600054610100900460ff166129375760405162461bcd60e51b81526004016104f1906135d5565b6115c8612c69565b600054610100900460ff166129665760405162461bcd60e51b81526004016104f1906135d5565b6115c8612c90565b600061297b848484612cb7565b9050806116dd576001600160a01b03808516600090815260fb60209081526040808320938716835292905290812080548492906129b990849061327a565b90915550506001600160a01b038416600090815260fc6020526040812080548492906129e690849061327a565b92505081905550826001600160a01b0316846001600160a01b03167fca6abeb3233ce8fb0de841c83102849b2d4165b80c92c5627899a5148ab4650084604051612a3291815260200190565b60405180910390a350505050565b6000612a95826040518060400160405280602081526020017f5361666545524332303a206c6f772d6c6576656c2063616c6c206661696c6564815250856001600160a01b0316612da29092919063ffffffff16565b9050805160001480612ab6575080806020019051810190612ab6919061357e565b610af65760405162461bcd60e51b815260206004820152602a60248201527f5361666545524332303a204552433230206f7065726174696f6e20646964206e6044820152691bdd081cdd58d8d9595960b21b60648201526084016104f1565b6060816001600160a01b031663b0772d0b6040518163ffffffff1660e01b8152600401600060405180830381865afa158015612b55573d6000803e3d6000fd5b505050506040513d6000823e601f3d908101601f19168201604052612b7d9190810190613620565b92915050565b6000816001600160a01b0316637dc0d1d06040518163ffffffff1660e01b8152600401602060405180830381865afa158015612bc3573d6000803e3d6000fd5b505050506040513d601f19601f82011682018060405250810190612b7d91906131bd565b603380546001600160a01b038381166001600160a01b0319831681179093556040519116919082907f8be0079c531659141344cd1fd0a4f28419497f9722a3daafe3b4186f6b6457e090600090a35050565b600054610100900460ff16612c605760405162461bcd60e51b81526004016104f1906135d5565b6115c83361287a565b600054610100900460ff16611cee5760405162461bcd60e51b81526004016104f1906135d5565b600054610100900460ff166115c85760405162461bcd60e51b81526004016104f1906135d5565b604080516001600160a01b038481166024830152604480830185905283518084039091018152606490920183526020820180516001600160e01b031663a9059cbb60e01b179052915160009283918291881690612d159085906136c6565b6000604051808303816000865af19150503d8060008114612d52576040519150601f19603f3d011682016040523d82523d6000602084013e612d57565b606091505b5091509150818015612d81575080511580612d81575080806020019051810190612d81919061357e565b8015612d9757506000876001600160a01b03163b115b979650505050505050565b6060612db18484600085612db9565b949350505050565b606082471015612e1a5760405162461bcd60e51b815260206004820152602660248201527f416464726573733a20696e73756666696369656e742062616c616e636520666f6044820152651c8818d85b1b60d21b60648201526084016104f1565b600080866001600160a01b03168587604051612e3691906136c6565b60006040518083038185875af1925050503d8060008114612e73576040519150601f19603f3d011682016040523d82523d6000602084013e612e78565b606091505b5091509150612d978783838760608315612ef3578251600003612eec576001600160a01b0385163b612eec5760405162461bcd60e51b815260206004820152601d60248201527f416464726573733a2063616c6c20746f206e6f6e2d636f6e747261637400000060448201526064016104f1565b5081612db1565b612db18383815115612f085781518083602001fd5b8060405162461bcd60e51b81526004016104f191906136e2565b5080546000825590600052602060002090810190610c5d9190612fa5565b828054828255906000526020600020908101928215612f95579160200282015b82811115612f9557825182546001600160a01b0319166001600160a01b03909116178255602090920191600190910190612f60565b50612fa1929150612fa5565b5090565b5b80821115612fa15760008155600101612fa6565b6001600160a01b0381168114610c5d57600080fd5b600080600060608486031215612fe457600080fd5b8335612fef81612fba565b95602085013595506040909401359392505050565b60006020828403121561301657600080fd5b8135611bc481612fba565b634e487b7160e01b600052602160045260246000fd5b6002811061304757613047613021565b9052565b8881526101008101613060602083018a613037565b6003881061307057613070613021565b604082019790975260608101959095526001600160a01b0393909316608085015260a084019190915260c083015260e09091015292915050565b6000602082840312156130bc57600080fd5b5035919050565b600080604083850312156130d657600080fd5b82356130e181612fba565b946020939093013593505050565b6000806040838503121561310257600080fd5b823561310d81612fba565b9150602083013561311d81612fba565b809150509250929050565b60008060006060848603121561313d57600080fd5b833561314881612fba565b925060208401359150604084013561315f81612fba565b809150509250925092565b60208082526013908201527237379037b716b3b7b4b7339030bab1ba34b7b760691b604082015260600190565b634e487b7160e01b600052603260045260246000fd5b80516131b881612fba565b919050565b6000602082840312156131cf57600080fd5b8151611bc481612fba565b6000602082840312156131ec57600080fd5b5051919050565b634e487b7160e01b600052601160045260246000fd5b6000816000190483118215151615613223576132236131f3565b500290565b60008261324557634e487b7160e01b600052601260045260246000fd5b500490565b60008282101561325c5761325c6131f3565b500390565b600060018201613273576132736131f3565b5060010190565b6000821982111561328d5761328d6131f3565b500190565b634e487b7160e01b600052604160045260246000fd5b6000815480845260208085019450836000528060002060005b838110156132e65781546001600160a01b0316875295820195600191820191016132c1565b509495945050505050565b600081518084526020808501945080840160005b838110156132e657815187529582019590820190600101613305565b85815284602082015283604082015260a06060820152600061334660a08301856132a8565b828103608084015261335881856132f1565b98975050505050505050565b60405160a0810167ffffffffffffffff8111828210171561338757613387613292565b60405290565b604051601f8201601f1916810167ffffffffffffffff811182821017156133b6576133b6613292565b604052919050565b60005b838110156133d95781810151838201526020016133c1565b838111156116dd5750506000910152565b600060208083850312156133fd57600080fd5b825167ffffffffffffffff8082111561341557600080fd5b9084019060a0828703121561342957600080fd5b613431613364565b82518281111561344057600080fd5b8301601f8101881361345157600080fd5b80518381111561346357613463613292565b613475601f8201601f1916870161338d565b9350808452888682840101111561348b57600080fd5b61349a818786018885016133be565b50508181526134aa8484016131ad565b848201526134ba604084016131ad565b604082015260608301516060820152608083015160808201528094505050505092915050565b8681526134f06020820187613037565b60c06040820152600061350660c08301876132a8565b828103606084015261351881876132f1565b6080840195909552505060a00152949350505050565b600081518084526135468160208601602086016133be565b601f01601f19169290920160200192915050565b6001600160a01b0383168152604060208201819052600090612db19083018461352e565b60006020828403121561359057600080fd5b81518015158114611bc457600080fd5b6001600160a01b038481168252831660208201526060604082018190526000906135cc9083018461352e565b95945050505050565b6020808252602b908201527f496e697469616c697a61626c653a20636f6e7472616374206973206e6f74206960408201526a6e697469616c697a696e6760a81b606082015260800190565b6000602080838503121561363357600080fd5b825167ffffffffffffffff8082111561364b57600080fd5b818501915085601f83011261365f57600080fd5b81518181111561367157613671613292565b8060051b915061368284830161338d565b818152918301840191848101908884111561369c57600080fd5b938501935b8385101561335857845192506136b683612fba565b82825293850193908501906136a1565b600082516136d88184602087016133be565b9190910192915050565b602081526000611bc4602083018461352e56fe7570646174654d696e696d756d506f6f6c426164446562742875696e74323536297570646174654e657874426964646572426c6f636b4c696d69742875696e743235362975706461746557616974466f7246697273744269646465722875696e7432353629a2646970667358221220cdd1210a9ea7d2dc0776d5d22df850b673565d10413487e9a45d7df9c7039cdf64736f6c634300080d0033",
  "devdoc": {
    "author": "Venus",
    "errors": {
      "InsufficientBalance(address,address,uint256,uint256)": [
        {
          "params": {
            "amount": "The amount of tokens the contract is trying to transfer",
            "availableBalance": "The amount of tokens the contract currently has",
            "recipient": "The recipient of the transfer",
            "token": "The token the contract is trying to transfer"
          }
        }
      ],
      "InsufficientDebt(address,address,uint256,uint256)": [
        {
          "params": {
            "amount": "The amount of tokens the user is trying to claim",
            "owedAmount": "The amount of tokens the contract owes to the user",
            "token": "The token the user is trying to claim"
          }
        }
      ]
    },
    "kind": "dev",
    "methods": {
      "acceptOwnership()": {
        "details": "The new owner accepts the ownership transfer."
      },
      "claimTokenDebt(address,uint256)": {
        "custom:error": "InsufficientDebt The contract doesn't have enough debt to the user",
        "params": {
          "amount_": "The amount of tokens to claim (or max uint256 to claim all)",
          "token": "The token to claim"
        }
      },
      "closeAuction(address)": {
        "custom:event": "Emits AuctionClosed event on successful close",
        "params": {
          "comptroller": "Comptroller address of the pool"
        }
      },
      "constructor": {
        "custom:oz-upgrades-unsafe-allow": "constructor"
      },
      "initialize(address,uint256,address)": {
        "custom:error": "ZeroAddressNotAllowed is thrown when convertible base asset address is zeroZeroAddressNotAllowed is thrown when risk fund address is zero",
        "params": {
          "accessControlManager_": "AccessControlManager contract address",
          "minimumPoolBadDebt_": "Minimum bad debt in base asset for a pool to start auction",
          "riskFund_": "RiskFund contract address"
        }
      },
      "owner()": {
        "details": "Returns the address of the current owner."
      },
      "pauseAuctions()": {
        "custom:access": "Restricted by ACM",
        "custom:error": "Errors is auctions are paused",
        "custom:event": "Emits AuctionsPaused on success"
      },
      "pendingOwner()": {
        "details": "Returns the address of the pending owner."
      },
      "placeBid(address,uint256,uint256)": {
        "custom:event": "Emits BidPlaced event on success",
        "params": {
          "auctionStartBlock": "The block number when auction started",
          "bidBps": "The bid percent of the risk fund or bad debt depending on auction type",
          "comptroller": "Comptroller address of the pool"
        }
      },
      "renounceOwnership()": {
        "details": "Leaves the contract without owner. It will not be possible to call `onlyOwner` functions. Can only be called by the current owner. NOTE: Renouncing ownership will leave the contract without an owner, thereby disabling any functionality that is only available to the owner."
      },
      "restartAuction(address)": {
        "custom:event": "Emits AuctionRestarted event on successful restart",
        "params": {
          "comptroller": "Address of the pool"
        }
      },
      "resumeAuctions()": {
        "custom:access": "Restricted by ACM",
        "custom:error": "Errors is auctions are active",
        "custom:event": "Emits AuctionsResumed on success"
      },
      "setAccessControlManager(address)": {
        "custom:access": "Only Governance",
        "custom:event": "Emits NewAccessControlManager event",
        "details": "Admin function to set address of AccessControlManager",
        "params": {
          "accessControlManager_": "The new address of the AccessControlManager"
        }
      },
      "startAuction(address)": {
        "custom:event": "Emits AuctionStarted event on successErrors if auctions are paused",
        "params": {
          "comptroller": "Comptroller address of the pool"
        }
      },
      "transferOwnership(address)": {
        "details": "Starts the ownership transfer of the contract to a new account. Replaces the pending transfer if there is one. Can only be called by the current owner."
      },
      "updateIncentiveBps(uint256)": {
        "custom:access": "Restricted by ACM",
        "custom:event": "Emits IncentiveBpsUpdated on success",
        "params": {
          "_incentiveBps": "New incentive BPS"
        }
      },
      "updateMinimumPoolBadDebt(uint256)": {
        "custom:access": "Restricted by ACM",
        "custom:event": "Emits MinimumPoolBadDebtUpdated on success",
        "params": {
          "_minimumPoolBadDebt": "Minimum bad debt in BUSD for a pool to start auction"
        }
      },
      "updateNextBidderBlockLimit(uint256)": {
        "custom:access": "Restricted by ACM",
        "custom:event": "Emits NextBidderBlockLimitUpdated on success",
        "params": {
          "_nextBidderBlockLimit": "New next bidder block limit"
        }
      },
      "updatePoolRegistry(address)": {
        "custom:access": "Restricted to owner",
        "custom:error": "ZeroAddressNotAllowed is thrown when pool registry address is zero",
        "custom:event": "Emits PoolRegistryUpdated on success",
        "details": "After Pool Registry is deployed we need to set the pool registry address",
        "params": {
          "poolRegistry_": "Address of pool registry contract"
        }
      },
      "updateWaitForFirstBidder(uint256)": {
        "custom:access": "Restricted by ACM",
        "custom:event": "Emits WaitForFirstBidderUpdated on success",
        "params": {
          "_waitForFirstBidder": "New wait for first bidder block count"
        }
      }
    },
    "stateVariables": {
      "MAX_BPS": {
        "details": "Max basis points i.e., 100%"
      }
    },
    "title": "Shortfall",
    "version": 1
  },
  "userdoc": {
    "errors": {
      "InsufficientBalance(address,address,uint256,uint256)": [
        {
          "notice": "Thrown if trying to transfer more tokens than the contract currently has"
        }
      ],
      "InsufficientDebt(address,address,uint256,uint256)": [
        {
          "notice": "Thrown if the user tries to claim more tokens than they are owed"
        }
      ],
      "Unauthorized(address,address,string)": [
        {
          "notice": "Thrown when the action is prohibited by AccessControlManager"
        }
      ],
      "ZeroAddressNotAllowed()": [
        {
          "notice": "Thrown if the supplied address is a zero address where it is not allowed"
        }
      ]
    },
    "events": {
      "AuctionClosed(address,uint256,address,uint256,uint256,address[],uint256[])": {
        "notice": "Emitted when a auction is completed"
      },
      "AuctionRestarted(address,uint256)": {
        "notice": "Emitted when a auction is restarted"
      },
      "AuctionStarted(address,uint256,uint8,address[],uint256[],uint256,uint256)": {
        "notice": "Emitted when a auction starts"
      },
      "AuctionsPaused(address)": {
        "notice": "Emitted when auctions are paused"
      },
      "AuctionsResumed(address)": {
        "notice": "Emitted when auctions are unpaused"
      },
      "BidPlaced(address,uint256,uint256,address)": {
        "notice": "Emitted when a bid is placed"
      },
      "IncentiveBpsUpdated(uint256,uint256)": {
        "notice": "Emitted when incentiveBps is updated"
      },
      "MinimumPoolBadDebtUpdated(uint256,uint256)": {
        "notice": "Emitted when minimum pool bad debt is updated"
      },
      "NewAccessControlManager(address,address)": {
        "notice": "Emitted when access control manager contract address is changed"
      },
      "NextBidderBlockLimitUpdated(uint256,uint256)": {
        "notice": "Emitted when next bidder block limit is updated"
      },
      "PoolRegistryUpdated(address,address)": {
        "notice": "Emitted when pool registry address is updated"
      },
      "TokenDebtAdded(address,address,uint256)": {
        "notice": "Emitted when the contract's debt to the user is increased due to a failed transfer"
      },
      "TokenDebtClaimed(address,address,uint256)": {
        "notice": "Emitted when a user claims tokens that the contract owes them"
      },
      "WaitForFirstBidderUpdated(uint256,uint256)": {
        "notice": "Emitted when wait for first bidder block count is updated"
      }
    },
    "kind": "user",
    "methods": {
      "accessControlManager()": {
        "notice": "Returns the address of the access control manager contract"
      },
      "auctions(address)": {
        "notice": "Auctions for each pool"
      },
      "auctionsPaused()": {
        "notice": "Boolean of if auctions are paused"
      },
      "claimTokenDebt(address,uint256)": {
        "notice": "Transfers the tokens we owe to msg.sender, if any"
      },
      "closeAuction(address)": {
        "notice": "Close an auction"
      },
      "incentiveBps()": {
        "notice": "Incentive to auction participants, initial value set to 1000 or 10%"
      },
      "initialize(address,uint256,address)": {
        "notice": "Initialize the shortfall contract"
      },
      "minimumPoolBadDebt()": {
        "notice": "Minimum USD debt in pool for shortfall to trigger"
      },
      "nextBidderBlockLimit()": {
        "notice": "Time to wait for next bidder. Initially waits for 100 blocks"
      },
      "pauseAuctions()": {
        "notice": "Pause auctions. This disables starting new auctions but lets the current auction finishes"
      },
      "placeBid(address,uint256,uint256)": {
        "notice": "Place a bid greater than the previous in an ongoing auction"
      },
      "poolRegistry()": {
        "notice": "Pool registry address"
      },
      "restartAuction(address)": {
        "notice": "Restart an auction"
      },
      "resumeAuctions()": {
        "notice": "Resume paused auctions."
      },
      "riskFund()": {
        "notice": "Risk fund address"
      },
      "setAccessControlManager(address)": {
        "notice": "Sets the address of AccessControlManager"
      },
      "startAuction(address)": {
        "notice": "Start a auction when there is not currently one active"
      },
      "tokenDebt(address,address)": {
        "notice": "Mapping (IERC20Upgradeable token => (address user => uint256 amount)). Tracks failed transfers: when a token transfer fails, we record the amount of the transfer, so that the user can redeem this debt later."
      },
      "totalTokenDebt(address)": {
        "notice": "Mapping (IERC20Upgradeable token => uint256 amount) shows how many tokens the contract owes to all users. This is useful for accounting to understand how much of balanceOf(address(this)) is already owed to users."
      },
      "updateIncentiveBps(uint256)": {
        "notice": "Updates the incentive BPS"
      },
      "updateMinimumPoolBadDebt(uint256)": {
        "notice": "Update minimum pool bad debt to start auction"
      },
      "updateNextBidderBlockLimit(uint256)": {
        "notice": "Update next bidder block limit which is used determine when an auction can be closed"
      },
      "updatePoolRegistry(address)": {
        "notice": "Update the pool registry this shortfall supports"
      },
      "updateWaitForFirstBidder(uint256)": {
        "notice": "Update wait for first bidder block count. If the first bid is not made within this limit, the auction is closed and needs to be restarted"
      },
      "waitForFirstBidder()": {
        "notice": "Time to wait for first bidder. Initially waits for 100 blocks"
      }
    },
    "notice": "Shortfall is an auction contract designed to auction off the `convertibleBaseAsset` accumulated in `RiskFund`. The `convertibleBaseAsset` is auctioned in exchange for users paying off the pool's bad debt. An auction can be started by anyone once a pool's bad debt has reached a minimum value. This value is set and can be changed by the authorized accounts. If the pools bad debt exceeds the risk fund plus a 10% incentive, then the auction winner is determined by who will pay off the largest percentage of the pool's bad debt. The auction winner then exchanges for the entire risk fund. Otherwise, if the risk fund covers the pool's bad debt plus the 10% incentive, then the auction winner is determined by who will take the smallest percentage of the risk fund in exchange for paying off all the pool's bad debt.",
    "version": 1
  },
  "storageLayout": {
    "storage": [
      {
        "astId": 290,
        "contract": "contracts/Shortfall/Shortfall.sol:Shortfall",
        "label": "_initialized",
        "offset": 0,
        "slot": "0",
        "type": "t_uint8"
      },
      {
        "astId": 293,
        "contract": "contracts/Shortfall/Shortfall.sol:Shortfall",
        "label": "_initializing",
        "offset": 1,
        "slot": "0",
        "type": "t_bool"
      },
      {
        "astId": 1397,
        "contract": "contracts/Shortfall/Shortfall.sol:Shortfall",
        "label": "__gap",
        "offset": 0,
        "slot": "1",
        "type": "t_array(t_uint256)50_storage"
      },
      {
        "astId": 162,
        "contract": "contracts/Shortfall/Shortfall.sol:Shortfall",
        "label": "_owner",
        "offset": 0,
        "slot": "51",
        "type": "t_address"
      },
      {
        "astId": 282,
        "contract": "contracts/Shortfall/Shortfall.sol:Shortfall",
        "label": "__gap",
        "offset": 0,
        "slot": "52",
        "type": "t_array(t_uint256)49_storage"
      },
      {
        "astId": 71,
        "contract": "contracts/Shortfall/Shortfall.sol:Shortfall",
        "label": "_pendingOwner",
        "offset": 0,
        "slot": "101",
        "type": "t_address"
      },
      {
        "astId": 150,
        "contract": "contracts/Shortfall/Shortfall.sol:Shortfall",
        "label": "__gap",
        "offset": 0,
        "slot": "102",
        "type": "t_array(t_uint256)49_storage"
      },
      {
        "astId": 3341,
        "contract": "contracts/Shortfall/Shortfall.sol:Shortfall",
        "label": "_accessControlManager",
        "offset": 0,
        "slot": "151",
        "type": "t_contract(IAccessControlManagerV8)3525"
      },
      {
        "astId": 3346,
        "contract": "contracts/Shortfall/Shortfall.sol:Shortfall",
        "label": "__gap",
        "offset": 0,
        "slot": "152",
        "type": "t_array(t_uint256)49_storage"
      },
      {
        "astId": 466,
        "contract": "contracts/Shortfall/Shortfall.sol:Shortfall",
        "label": "_status",
        "offset": 0,
        "slot": "201",
        "type": "t_uint256"
      },
      {
        "astId": 535,
        "contract": "contracts/Shortfall/Shortfall.sol:Shortfall",
        "label": "__gap",
        "offset": 0,
        "slot": "202",
        "type": "t_array(t_uint256)49_storage"
      },
      {
        "astId": 19411,
        "contract": "contracts/Shortfall/Shortfall.sol:Shortfall",
        "label": "tokenDebt",
        "offset": 0,
        "slot": "251",
        "type": "t_mapping(t_contract(IERC20Upgradeable)614,t_mapping(t_address,t_uint256))"
      },
      {
        "astId": 19417,
        "contract": "contracts/Shortfall/Shortfall.sol:Shortfall",
        "label": "totalTokenDebt",
        "offset": 0,
        "slot": "252",
        "type": "t_mapping(t_contract(IERC20Upgradeable)614,t_uint256)"
      },
      {
        "astId": 19422,
        "contract": "contracts/Shortfall/Shortfall.sol:Shortfall",
        "label": "__gap",
        "offset": 0,
        "slot": "253",
        "type": "t_array(t_uint256)48_storage"
      },
      {
        "astId": 14516,
        "contract": "contracts/Shortfall/Shortfall.sol:Shortfall",
        "label": "poolRegistry",
        "offset": 0,
        "slot": "301",
        "type": "t_address"
      },
      {
        "astId": 14520,
        "contract": "contracts/Shortfall/Shortfall.sol:Shortfall",
        "label": "riskFund",
        "offset": 0,
        "slot": "302",
        "type": "t_contract(IRiskFund)13073"
      },
      {
        "astId": 14523,
        "contract": "contracts/Shortfall/Shortfall.sol:Shortfall",
        "label": "minimumPoolBadDebt",
        "offset": 0,
        "slot": "303",
        "type": "t_uint256"
      },
      {
        "astId": 14526,
        "contract": "contracts/Shortfall/Shortfall.sol:Shortfall",
        "label": "incentiveBps",
        "offset": 0,
        "slot": "304",
        "type": "t_uint256"
      },
      {
        "astId": 14529,
        "contract": "contracts/Shortfall/Shortfall.sol:Shortfall",
        "label": "nextBidderBlockLimit",
        "offset": 0,
        "slot": "305",
        "type": "t_uint256"
      },
      {
        "astId": 14532,
        "contract": "contracts/Shortfall/Shortfall.sol:Shortfall",
        "label": "auctionsPaused",
        "offset": 0,
        "slot": "306",
        "type": "t_bool"
      },
      {
        "astId": 14535,
        "contract": "contracts/Shortfall/Shortfall.sol:Shortfall",
        "label": "waitForFirstBidder",
        "offset": 0,
        "slot": "307",
        "type": "t_uint256"
      },
      {
        "astId": 14541,
        "contract": "contracts/Shortfall/Shortfall.sol:Shortfall",
        "label": "auctions",
        "offset": 0,
        "slot": "308",
        "type": "t_mapping(t_address,t_struct(Auction)14500_storage)"
      }
    ],
    "types": {
      "t_address": {
        "encoding": "inplace",
        "label": "address",
        "numberOfBytes": "20"
      },
      "t_array(t_contract(VToken)18767)dyn_storage": {
        "base": "t_contract(VToken)18767",
        "encoding": "dynamic_array",
        "label": "contract VToken[]",
        "numberOfBytes": "32"
      },
      "t_array(t_uint256)48_storage": {
        "base": "t_uint256",
        "encoding": "inplace",
        "label": "uint256[48]",
        "numberOfBytes": "1536"
      },
      "t_array(t_uint256)49_storage": {
        "base": "t_uint256",
        "encoding": "inplace",
        "label": "uint256[49]",
        "numberOfBytes": "1568"
      },
      "t_array(t_uint256)50_storage": {
        "base": "t_uint256",
        "encoding": "inplace",
        "label": "uint256[50]",
        "numberOfBytes": "1600"
      },
      "t_bool": {
        "encoding": "inplace",
        "label": "bool",
        "numberOfBytes": "1"
      },
      "t_contract(IAccessControlManagerV8)3525": {
        "encoding": "inplace",
        "label": "contract IAccessControlManagerV8",
        "numberOfBytes": "20"
      },
      "t_contract(IERC20Upgradeable)614": {
        "encoding": "inplace",
        "label": "contract IERC20Upgradeable",
        "numberOfBytes": "20"
      },
      "t_contract(IRiskFund)13073": {
        "encoding": "inplace",
        "label": "contract IRiskFund",
        "numberOfBytes": "20"
      },
      "t_contract(VToken)18767": {
        "encoding": "inplace",
        "label": "contract VToken",
        "numberOfBytes": "20"
      },
      "t_enum(AuctionStatus)14467": {
        "encoding": "inplace",
        "label": "enum Shortfall.AuctionStatus",
        "numberOfBytes": "1"
      },
      "t_enum(AuctionType)14463": {
        "encoding": "inplace",
        "label": "enum Shortfall.AuctionType",
        "numberOfBytes": "1"
      },
      "t_mapping(t_address,t_struct(Auction)14500_storage)": {
        "encoding": "mapping",
        "key": "t_address",
        "label": "mapping(address => struct Shortfall.Auction)",
        "numberOfBytes": "32",
        "value": "t_struct(Auction)14500_storage"
      },
      "t_mapping(t_address,t_uint256)": {
        "encoding": "mapping",
        "key": "t_address",
        "label": "mapping(address => uint256)",
        "numberOfBytes": "32",
        "value": "t_uint256"
      },
      "t_mapping(t_contract(IERC20Upgradeable)614,t_mapping(t_address,t_uint256))": {
        "encoding": "mapping",
        "key": "t_contract(IERC20Upgradeable)614",
        "label": "mapping(contract IERC20Upgradeable => mapping(address => uint256))",
        "numberOfBytes": "32",
        "value": "t_mapping(t_address,t_uint256)"
      },
      "t_mapping(t_contract(IERC20Upgradeable)614,t_uint256)": {
        "encoding": "mapping",
        "key": "t_contract(IERC20Upgradeable)614",
        "label": "mapping(contract IERC20Upgradeable => uint256)",
        "numberOfBytes": "32",
        "value": "t_uint256"
      },
      "t_mapping(t_contract(VToken)18767,t_uint256)": {
        "encoding": "mapping",
        "key": "t_contract(VToken)18767",
        "label": "mapping(contract VToken => uint256)",
        "numberOfBytes": "32",
        "value": "t_uint256"
      },
      "t_struct(Auction)14500_storage": {
        "encoding": "inplace",
        "label": "struct Shortfall.Auction",
        "members": [
          {
            "astId": 14469,
            "contract": "contracts/Shortfall/Shortfall.sol:Shortfall",
            "label": "startBlock",
            "offset": 0,
            "slot": "0",
            "type": "t_uint256"
          },
          {
            "astId": 14472,
            "contract": "contracts/Shortfall/Shortfall.sol:Shortfall",
            "label": "auctionType",
            "offset": 0,
            "slot": "1",
            "type": "t_enum(AuctionType)14463"
          },
          {
            "astId": 14475,
            "contract": "contracts/Shortfall/Shortfall.sol:Shortfall",
            "label": "status",
            "offset": 1,
            "slot": "1",
            "type": "t_enum(AuctionStatus)14467"
          },
          {
            "astId": 14479,
            "contract": "contracts/Shortfall/Shortfall.sol:Shortfall",
            "label": "markets",
            "offset": 0,
            "slot": "2",
            "type": "t_array(t_contract(VToken)18767)dyn_storage"
          },
          {
            "astId": 14481,
            "contract": "contracts/Shortfall/Shortfall.sol:Shortfall",
            "label": "seizedRiskFund",
            "offset": 0,
            "slot": "3",
            "type": "t_uint256"
          },
          {
            "astId": 14483,
            "contract": "contracts/Shortfall/Shortfall.sol:Shortfall",
            "label": "highestBidder",
            "offset": 0,
            "slot": "4",
            "type": "t_address"
          },
          {
            "astId": 14485,
            "contract": "contracts/Shortfall/Shortfall.sol:Shortfall",
            "label": "highestBidBps",
            "offset": 0,
            "slot": "5",
            "type": "t_uint256"
          },
          {
            "astId": 14487,
            "contract": "contracts/Shortfall/Shortfall.sol:Shortfall",
            "label": "highestBidBlock",
            "offset": 0,
            "slot": "6",
            "type": "t_uint256"
          },
          {
            "astId": 14489,
            "contract": "contracts/Shortfall/Shortfall.sol:Shortfall",
            "label": "startBidBps",
            "offset": 0,
            "slot": "7",
            "type": "t_uint256"
          },
          {
            "astId": 14494,
            "contract": "contracts/Shortfall/Shortfall.sol:Shortfall",
            "label": "marketDebt",
            "offset": 0,
            "slot": "8",
            "type": "t_mapping(t_contract(VToken)18767,t_uint256)"
          },
          {
            "astId": 14499,
            "contract": "contracts/Shortfall/Shortfall.sol:Shortfall",
            "label": "bidAmount",
            "offset": 0,
            "slot": "9",
            "type": "t_mapping(t_contract(VToken)18767,t_uint256)"
          }
        ],
        "numberOfBytes": "320"
      },
      "t_uint256": {
        "encoding": "inplace",
        "label": "uint256",
        "numberOfBytes": "32"
      },
      "t_uint8": {
        "encoding": "inplace",
        "label": "uint8",
        "numberOfBytes": "1"
      }
    }
  }
}