{
  "address": "0xef7549b38aa8A4aB658E56f77cB273B2C7E0f621",
  "abi": [
    {
      "inputs": [],
      "stateMutability": "nonpayable",
      "type": "constructor"
    },
    {
      "anonymous": false,
      "inputs": [
        {
          "indexed": false,
          "internalType": "address",
          "name": "account",
          "type": "address"
        },
        {
          "indexed": false,
          "internalType": "address",
          "name": "contractAddress",
          "type": "address"
        },
        {
          "indexed": false,
          "internalType": "string",
          "name": "functionSig",
          "type": "string"
        }
      ],
      "name": "PermissionGranted",
      "type": "event"
    },
    {
      "anonymous": false,
      "inputs": [
        {
          "indexed": false,
          "internalType": "address",
          "name": "account",
          "type": "address"
        },
        {
          "indexed": false,
          "internalType": "address",
          "name": "contractAddress",
          "type": "address"
        },
        {
          "indexed": false,
          "internalType": "string",
          "name": "functionSig",
          "type": "string"
        }
      ],
      "name": "PermissionRevoked",
      "type": "event"
    },
    {
      "anonymous": false,
      "inputs": [
        {
          "indexed": true,
          "internalType": "bytes32",
          "name": "role",
          "type": "bytes32"
        },
        {
          "indexed": true,
          "internalType": "bytes32",
          "name": "previousAdminRole",
          "type": "bytes32"
        },
        {
          "indexed": true,
          "internalType": "bytes32",
          "name": "newAdminRole",
          "type": "bytes32"
        }
      ],
      "name": "RoleAdminChanged",
      "type": "event"
    },
    {
      "anonymous": false,
      "inputs": [
        {
          "indexed": true,
          "internalType": "bytes32",
          "name": "role",
          "type": "bytes32"
        },
        {
          "indexed": true,
          "internalType": "address",
          "name": "account",
          "type": "address"
        },
        {
          "indexed": true,
          "internalType": "address",
          "name": "sender",
          "type": "address"
        }
      ],
      "name": "RoleGranted",
      "type": "event"
    },
    {
      "anonymous": false,
      "inputs": [
        {
          "indexed": true,
          "internalType": "bytes32",
          "name": "role",
          "type": "bytes32"
        },
        {
          "indexed": true,
          "internalType": "address",
          "name": "account",
          "type": "address"
        },
        {
          "indexed": true,
          "internalType": "address",
          "name": "sender",
          "type": "address"
        }
      ],
      "name": "RoleRevoked",
      "type": "event"
    },
    {
      "inputs": [],
      "name": "DEFAULT_ADMIN_ROLE",
      "outputs": [
        {
          "internalType": "bytes32",
          "name": "",
          "type": "bytes32"
        }
      ],
      "stateMutability": "view",
      "type": "function"
    },
    {
      "inputs": [
        {
          "internalType": "bytes32",
          "name": "role",
          "type": "bytes32"
        }
      ],
      "name": "getRoleAdmin",
      "outputs": [
        {
          "internalType": "bytes32",
          "name": "",
          "type": "bytes32"
        }
      ],
      "stateMutability": "view",
      "type": "function"
    },
    {
      "inputs": [
        {
          "internalType": "address",
          "name": "contractAddress",
          "type": "address"
        },
        {
          "internalType": "string",
          "name": "functionSig",
          "type": "string"
        },
        {
          "internalType": "address",
          "name": "accountToPermit",
          "type": "address"
        }
      ],
      "name": "giveCallPermission",
      "outputs": [],
      "stateMutability": "nonpayable",
      "type": "function"
    },
    {
      "inputs": [
        {
          "internalType": "bytes32",
          "name": "role",
          "type": "bytes32"
        },
        {
          "internalType": "address",
          "name": "account",
          "type": "address"
        }
      ],
      "name": "grantRole",
      "outputs": [],
      "stateMutability": "nonpayable",
      "type": "function"
    },
    {
      "inputs": [
        {
          "internalType": "address",
          "name": "account",
          "type": "address"
        },
        {
          "internalType": "address",
          "name": "contractAddress",
          "type": "address"
        },
        {
          "internalType": "string",
          "name": "functionSig",
          "type": "string"
        }
      ],
      "name": "hasPermission",
      "outputs": [
        {
          "internalType": "bool",
          "name": "",
          "type": "bool"
        }
      ],
      "stateMutability": "view",
      "type": "function"
    },
    {
      "inputs": [
        {
          "internalType": "bytes32",
          "name": "role",
          "type": "bytes32"
        },
        {
          "internalType": "address",
          "name": "account",
          "type": "address"
        }
      ],
      "name": "hasRole",
      "outputs": [
        {
          "internalType": "bool",
          "name": "",
          "type": "bool"
        }
      ],
      "stateMutability": "view",
      "type": "function"
    },
    {
      "inputs": [
        {
          "internalType": "address",
          "name": "account",
          "type": "address"
        },
        {
          "internalType": "string",
          "name": "functionSig",
          "type": "string"
        }
      ],
      "name": "isAllowedToCall",
      "outputs": [
        {
          "internalType": "bool",
          "name": "",
          "type": "bool"
        }
      ],
      "stateMutability": "view",
      "type": "function"
    },
    {
      "inputs": [
        {
          "internalType": "bytes32",
          "name": "role",
          "type": "bytes32"
        },
        {
          "internalType": "address",
          "name": "account",
          "type": "address"
        }
      ],
      "name": "renounceRole",
      "outputs": [],
      "stateMutability": "nonpayable",
      "type": "function"
    },
    {
      "inputs": [
        {
          "internalType": "address",
          "name": "contractAddress",
          "type": "address"
        },
        {
          "internalType": "string",
          "name": "functionSig",
          "type": "string"
        },
        {
          "internalType": "address",
          "name": "accountToRevoke",
          "type": "address"
        }
      ],
      "name": "revokeCallPermission",
      "outputs": [],
      "stateMutability": "nonpayable",
      "type": "function"
    },
    {
      "inputs": [
        {
          "internalType": "bytes32",
          "name": "role",
          "type": "bytes32"
        },
        {
          "internalType": "address",
          "name": "account",
          "type": "address"
        }
      ],
      "name": "revokeRole",
      "outputs": [],
      "stateMutability": "nonpayable",
      "type": "function"
    },
    {
      "inputs": [
        {
          "internalType": "bytes4",
          "name": "interfaceId",
          "type": "bytes4"
        }
      ],
      "name": "supportsInterface",
      "outputs": [
        {
          "internalType": "bool",
          "name": "",
          "type": "bool"
        }
      ],
      "stateMutability": "view",
      "type": "function"
    }
  ],
  "transactionHash": "0x586543739adf3d68667bd8193daf991e0308fbf228cfaaccbe9a086dd4ffc311",
  "args": [],
  "numDeployments": 1,
  "solcInputHash": "bfe6cf08237990fb7f580aa34eab6bcb",
  "bytecode": "0x608060405234801561001057600080fd5b5061001c600033610021565b6100cd565b61002b828261002f565b5050565b6000828152602081815260408083206001600160a01b038516845290915290205460ff1661002b576000828152602081815260408083206001600160a01b03851684529091529020805460ff191660011790556100893390565b6001600160a01b0316816001600160a01b0316837f2f8788117e7eff1d82e926ec794901d17c78024a50270940304540a733656f0d60405160405180910390a45050565b610c16806100dc6000396000f3fe608060405234801561001057600080fd5b50600436106100a95760003560e01c8063545f7a3211610071578063545f7a3214610142578063584f6b601461015557806382bfd0f01461016857806391d148541461017b578063a217fddf1461018e578063d547741f1461019657600080fd5b806301ffc9a7146100ae57806318c5e8ab146100d6578063248a9ca3146100e95780632f2ff15d1461011a57806336568abe1461012f575b600080fd5b6100c16100bc3660046107c0565b6101a9565b60405190151581526020015b60405180910390f35b6100c16100e43660046108a9565b6101e0565b61010c6100f73660046108f7565b60009081526020819052604090206001015490565b6040519081526020016100cd565b61012d610128366004610910565b610265565b005b61012d61013d366004610910565b61028f565b61012d61015036600461093c565b610312565b61012d61016336600461093c565b61038a565b6100c161017636600461099a565b610434565b6100c1610189366004610910565b610475565b61010c600081565b61012d6101a4366004610910565b61049e565b60006001600160e01b03198216637965db0b60e01b14806101da57506301ffc9a760e01b6001600160e01b03198316145b92915050565b60008033836040516020016101f6929190610a28565b6040516020818303038152906040528051906020012090506102188185610475565b156102275760019150506101da565b60405161023b906000908590602001610a60565b60405160208183030381529060405280519060200120905061025d8185610475565b949350505050565b600082815260208190526040902060010154610280816104c3565b61028a83836104d0565b505050565b6001600160a01b03811633146103045760405162461bcd60e51b815260206004820152602f60248201527f416363657373436f6e74726f6c3a2063616e206f6e6c792072656e6f756e636560448201526e103937b632b9903337b91039b2b63360891b60648201526084015b60405180910390fd5b61030e8282610554565b5050565b60008383604051602001610327929190610a28565b604051602081830303815290604052805190602001209050610349818361049e565b7f55426a61e90ac7d7d1fc886b67b420ade8c8b535e68d655394bc271e3a12b8e282858560405161037c93929190610ab2565b60405180910390a150505050565b60006001600160a01b0384166103cb576040516103ae906000908590602001610a60565b6040516020818303038152906040528051906020012090506103f7565b83836040516020016103de929190610a28565b6040516020818303038152906040528051906020012090505b6104018183610265565b7f69c5ce2d658fea352a2464f87ffbe1f09746c918a91da0994044c3767d641b3f82858560405161037c93929190610ab2565b600080838360405160200161044a929190610a28565b60405160208183030381529060405280519060200120905061046c8186610475565b95945050505050565b6000918252602082815260408084206001600160a01b0393909316845291905290205460ff1690565b6000828152602081905260409020600101546104b9816104c3565b61028a8383610554565b6104cd81336105b9565b50565b6104da8282610475565b61030e576000828152602081815260408083206001600160a01b03851684529091529020805460ff191660011790556105103390565b6001600160a01b0316816001600160a01b0316837f2f8788117e7eff1d82e926ec794901d17c78024a50270940304540a733656f0d60405160405180910390a45050565b61055e8282610475565b1561030e576000828152602081815260408083206001600160a01b0385168085529252808320805460ff1916905551339285917ff6391f5c32d9c69d2a47ea670b442974b53935d1edc7fd64eb21e047a839171b9190a45050565b6105c38282610475565b61030e576105db816001600160a01b0316601461061d565b6105e683602061061d565b6040516020016105f7929190610ade565b60408051601f198184030181529082905262461bcd60e51b82526102fb91600401610b53565b6060600061062c836002610b7c565b610637906002610b9b565b67ffffffffffffffff81111561064f5761064f610806565b6040519080825280601f01601f191660200182016040528015610679576020820181803683370190505b509050600360fc1b8160008151811061069457610694610bb3565b60200101906001600160f81b031916908160001a905350600f60fb1b816001815181106106c3576106c3610bb3565b60200101906001600160f81b031916908160001a90535060006106e7846002610b7c565b6106f2906001610b9b565b90505b600181111561076a576f181899199a1a9b1b9c1cb0b131b232b360811b85600f166010811061072657610726610bb3565b1a60f81b82828151811061073c5761073c610bb3565b60200101906001600160f81b031916908160001a90535060049490941c9361076381610bc9565b90506106f5565b5083156107b95760405162461bcd60e51b815260206004820181905260248201527f537472696e67733a20686578206c656e67746820696e73756666696369656e7460448201526064016102fb565b9392505050565b6000602082840312156107d257600080fd5b81356001600160e01b0319811681146107b957600080fd5b80356001600160a01b038116811461080157600080fd5b919050565b634e487b7160e01b600052604160045260246000fd5b600082601f83011261082d57600080fd5b813567ffffffffffffffff8082111561084857610848610806565b604051601f8301601f19908116603f0116810190828211818310171561087057610870610806565b8160405283815286602085880101111561088957600080fd5b836020870160208301376000602085830101528094505050505092915050565b600080604083850312156108bc57600080fd5b6108c5836107ea565b9150602083013567ffffffffffffffff8111156108e157600080fd5b6108ed8582860161081c565b9150509250929050565b60006020828403121561090957600080fd5b5035919050565b6000806040838503121561092357600080fd5b82359150610933602084016107ea565b90509250929050565b60008060006060848603121561095157600080fd5b61095a846107ea565b9250602084013567ffffffffffffffff81111561097657600080fd5b6109828682870161081c565b925050610991604085016107ea565b90509250925092565b6000806000606084860312156109af57600080fd5b6109b8846107ea565b92506109c6602085016107ea565b9150604084013567ffffffffffffffff8111156109e257600080fd5b6109ee8682870161081c565b9150509250925092565b60005b83811015610a135781810151838201526020016109fb565b83811115610a22576000848401525b50505050565b6bffffffffffffffffffffffff198360601b16815260008251610a528160148501602087016109f8565b919091016014019392505050565b82815260008251610a788160208501602087016109f8565b919091016020019392505050565b60008151808452610a9e8160208601602086016109f8565b601f01601f19169290920160200192915050565b6001600160a01b0384811682528316602082015260606040820181905260009061046c90830184610a86565b7f416363657373436f6e74726f6c3a206163636f756e7420000000000000000000815260008351610b168160178501602088016109f8565b7001034b99036b4b9b9b4b733903937b6329607d1b6017918401918201528351610b478160288401602088016109f8565b01602801949350505050565b6020815260006107b96020830184610a86565b634e487b7160e01b600052601160045260246000fd5b6000816000190483118215151615610b9657610b96610b66565b500290565b60008219821115610bae57610bae610b66565b500190565b634e487b7160e01b600052603260045260246000fd5b600081610bd857610bd8610b66565b50600019019056fea264697066735822122059def83365c0c0b086173a987993b094ab99b2dca037ce7857656fee6d2fe45064736f6c634300080d0033",
  "devdoc": {
    "author": "0xLucian",
    "details": "This contract is a wrapper of OpenZeppelin AccessControl\t\textending it in a way to standartize access control\t\twithin Venus Smart Contract Ecosystem",
    "kind": "dev",
    "methods": {
      "getRoleAdmin(bytes32)": {
        "details": "Returns the admin role that controls `role`. See {grantRole} and {revokeRole}. To change a role's admin, use {_setRoleAdmin}."
      },
      "giveCallPermission(address,string,address)": {
        "details": "this function can be called only from Role Admin or DEFAULT_ADMIN_ROLE \t\tMay emit a {RoleGranted} event.",
        "params": {
          "accountToPermit": "account that will be given access to the contract function Emits {PermissionGranted} event.",
          "contractAddress": "address of contract for which call permissions will be granted NOTE: if contractAddress is zero address, we give the account DEFAULT_ADMIN_ROLE,      meaning that this account can access the certain function on ANY contract managed by this ACL",
          "functionSig": "signature e.g. \"functionName(uint,bool)\""
        }
      },
      "grantRole(bytes32,address)": {
        "details": "Grants `role` to `account`. If `account` had not been already granted `role`, emits a {RoleGranted} event. Requirements: - the caller must have ``role``'s admin role. May emit a {RoleGranted} event."
      },
      "hasPermission(address,address,string)": {
        "details": "This function is used as a view function to check permissions rather than contract hook for access restriction check.",
        "params": {
          "account": "for which call permissions will be checked against",
          "contractAddress": "address of the restricted contract",
          "functionSig": "signature of the restricted function e.g. \"functionName(uint,bool)\""
        },
        "returns": {
          "_0": "false if the user account cannot call the particular contract function"
        }
      },
      "hasRole(bytes32,address)": {
        "details": "Returns `true` if `account` has been granted `role`."
      },
      "isAllowedToCall(address,string)": {
        "details": "Since restricted contracts using this function as a permission hook, we can get contracts address with msg.sender",
        "params": {
          "account": "for which call permissions will be checked",
          "functionSig": "restricted function signature e.g. \"functionName(uint,bool)\""
        },
        "returns": {
          "_0": "false if the user account cannot call the particular contract function"
        }
      },
      "renounceRole(bytes32,address)": {
        "details": "Revokes `role` from the calling account. Roles are often managed via {grantRole} and {revokeRole}: this function's purpose is to provide a mechanism for accounts to lose their privileges if they are compromised (such as when a trusted device is misplaced). If the calling account had been revoked `role`, emits a {RoleRevoked} event. Requirements: - the caller must be `account`. May emit a {RoleRevoked} event."
      },
      "revokeCallPermission(address,string,address)": {
        "details": "this function can be called only from Role Admin or DEFAULT_ADMIN_ROLE \t\tMay emit a {RoleRevoked} event.",
        "params": {
          "contractAddress": "address of contract for which call permissions will be revoked",
          "functionSig": "signature e.g. \"functionName(uint,bool)\" Emits {PermissionRevoked} event."
        }
      },
      "revokeRole(bytes32,address)": {
        "details": "Revokes `role` from `account`. If `account` had been granted `role`, emits a {RoleRevoked} event. Requirements: - the caller must have ``role``'s admin role. May emit a {RoleRevoked} event."
      },
      "supportsInterface(bytes4)": {
        "details": "See {IERC165-supportsInterface}."
      }
    },
    "title": "Venus Access Control Contract",
    "version": 1
  },
  "userdoc": {
    "events": {
      "PermissionGranted(address,address,string)": {
        "notice": "Emitted when an account is given a permission to a certain contract function NOTE: If contract address is 0x000..0 this means that the account is a default admin of this function and can call any contract function with this signature"
      },
      "PermissionRevoked(address,address,string)": {
        "notice": "Emitted when an account is revoked a permission to a certain contract function"
      }
    },
    "kind": "user",
    "methods": {
      "giveCallPermission(address,string,address)": {
        "notice": "Gives a function call permission to one single account"
      },
      "hasPermission(address,address,string)": {
        "notice": "Verifies if the given account can call a contract's guarded function"
      },
      "isAllowedToCall(address,string)": {
        "notice": "Verifies if the given account can call a contract's guarded function"
      },
      "revokeCallPermission(address,string,address)": {
        "notice": "Revokes an account's permission to a particular function call"
      }
    },
    "version": 1
  },
  "storageLayout": {
    "storage": [
      {
        "astId": 858,
        "contract": "contracts/Governance/AccessControlManager.sol:AccessControlManager",
        "label": "_roles",
        "offset": 0,
        "slot": "0",
        "type": "t_mapping(t_bytes32,t_struct(RoleData)853_storage)"
      }
    ],
    "types": {
      "t_address": {
        "encoding": "inplace",
        "label": "address",
        "numberOfBytes": "20"
      },
      "t_bool": {
        "encoding": "inplace",
        "label": "bool",
        "numberOfBytes": "1"
      },
      "t_bytes32": {
        "encoding": "inplace",
        "label": "bytes32",
        "numberOfBytes": "32"
      },
      "t_mapping(t_address,t_bool)": {
        "encoding": "mapping",
        "key": "t_address",
        "label": "mapping(address => bool)",
        "numberOfBytes": "32",
        "value": "t_bool"
      },
      "t_mapping(t_bytes32,t_struct(RoleData)853_storage)": {
        "encoding": "mapping",
        "key": "t_bytes32",
        "label": "mapping(bytes32 => struct AccessControl.RoleData)",
        "numberOfBytes": "32",
        "value": "t_struct(RoleData)853_storage"
      },
      "t_struct(RoleData)853_storage": {
        "encoding": "inplace",
        "label": "struct AccessControl.RoleData",
        "members": [
          {
            "astId": 850,
            "contract": "contracts/Governance/AccessControlManager.sol:AccessControlManager",
            "label": "members",
            "offset": 0,
            "slot": "0",
            "type": "t_mapping(t_address,t_bool)"
          },
          {
            "astId": 852,
            "contract": "contracts/Governance/AccessControlManager.sol:AccessControlManager",
            "label": "adminRole",
            "offset": 0,
            "slot": "1",
            "type": "t_bytes32"
          }
        ],
        "numberOfBytes": "64"
      }
    }
  }
}