{
  "address": "0xC966F36ca1737dB057166914cD584aD282813410",
  "abi": [
    {
      "inputs": [],
      "stateMutability": "nonpayable",
      "type": "constructor"
    },
    {
      "anonymous": false,
      "inputs": [
        {
          "indexed": true,
          "internalType": "bytes32",
          "name": "role",
          "type": "bytes32"
        },
        {
          "indexed": true,
          "internalType": "bytes32",
          "name": "previousAdminRole",
          "type": "bytes32"
        },
        {
          "indexed": true,
          "internalType": "bytes32",
          "name": "newAdminRole",
          "type": "bytes32"
        }
      ],
      "name": "RoleAdminChanged",
      "type": "event"
    },
    {
      "anonymous": false,
      "inputs": [
        {
          "indexed": true,
          "internalType": "bytes32",
          "name": "role",
          "type": "bytes32"
        },
        {
          "indexed": true,
          "internalType": "address",
          "name": "account",
          "type": "address"
        },
        {
          "indexed": true,
          "internalType": "address",
          "name": "sender",
          "type": "address"
        }
      ],
      "name": "RoleGranted",
      "type": "event"
    },
    {
      "anonymous": false,
      "inputs": [
        {
          "indexed": true,
          "internalType": "bytes32",
          "name": "role",
          "type": "bytes32"
        },
        {
          "indexed": true,
          "internalType": "address",
          "name": "account",
          "type": "address"
        },
        {
          "indexed": true,
          "internalType": "address",
          "name": "sender",
          "type": "address"
        }
      ],
      "name": "RoleRevoked",
      "type": "event"
    },
    {
      "inputs": [],
      "name": "DEFAULT_ADMIN_ROLE",
      "outputs": [
        {
          "internalType": "bytes32",
          "name": "",
          "type": "bytes32"
        }
      ],
      "stateMutability": "view",
      "type": "function"
    },
    {
      "inputs": [
        {
          "internalType": "bytes32",
          "name": "role",
          "type": "bytes32"
        }
      ],
      "name": "getRoleAdmin",
      "outputs": [
        {
          "internalType": "bytes32",
          "name": "",
          "type": "bytes32"
        }
      ],
      "stateMutability": "view",
      "type": "function"
    },
    {
      "inputs": [
        {
          "internalType": "address",
          "name": "contractAddress",
          "type": "address"
        },
        {
          "internalType": "string",
          "name": "functionSig",
          "type": "string"
        },
        {
          "internalType": "address",
          "name": "accountToPermit",
          "type": "address"
        }
      ],
      "name": "giveCallPermission",
      "outputs": [],
      "stateMutability": "nonpayable",
      "type": "function"
    },
    {
      "inputs": [
        {
          "internalType": "bytes32",
          "name": "role",
          "type": "bytes32"
        },
        {
          "internalType": "address",
          "name": "account",
          "type": "address"
        }
      ],
      "name": "grantRole",
      "outputs": [],
      "stateMutability": "nonpayable",
      "type": "function"
    },
    {
      "inputs": [
        {
          "internalType": "bytes32",
          "name": "role",
          "type": "bytes32"
        },
        {
          "internalType": "address",
          "name": "account",
          "type": "address"
        }
      ],
      "name": "hasRole",
      "outputs": [
        {
          "internalType": "bool",
          "name": "",
          "type": "bool"
        }
      ],
      "stateMutability": "view",
      "type": "function"
    },
    {
      "inputs": [
        {
          "internalType": "address",
          "name": "caller",
          "type": "address"
        },
        {
          "internalType": "string",
          "name": "functionSig",
          "type": "string"
        }
      ],
      "name": "isAllowedToCall",
      "outputs": [
        {
          "internalType": "bool",
          "name": "",
          "type": "bool"
        }
      ],
      "stateMutability": "view",
      "type": "function"
    },
    {
      "inputs": [
        {
          "internalType": "bytes32",
          "name": "role",
          "type": "bytes32"
        },
        {
          "internalType": "address",
          "name": "account",
          "type": "address"
        }
      ],
      "name": "renounceRole",
      "outputs": [],
      "stateMutability": "nonpayable",
      "type": "function"
    },
    {
      "inputs": [
        {
          "internalType": "address",
          "name": "contractAddress",
          "type": "address"
        },
        {
          "internalType": "string",
          "name": "functionSig",
          "type": "string"
        },
        {
          "internalType": "address",
          "name": "accountToRevoke",
          "type": "address"
        }
      ],
      "name": "revokeCallPermission",
      "outputs": [],
      "stateMutability": "nonpayable",
      "type": "function"
    },
    {
      "inputs": [
        {
          "internalType": "bytes32",
          "name": "role",
          "type": "bytes32"
        },
        {
          "internalType": "address",
          "name": "account",
          "type": "address"
        }
      ],
      "name": "revokeRole",
      "outputs": [],
      "stateMutability": "nonpayable",
      "type": "function"
    },
    {
      "inputs": [
        {
          "internalType": "bytes4",
          "name": "interfaceId",
          "type": "bytes4"
        }
      ],
      "name": "supportsInterface",
      "outputs": [
        {
          "internalType": "bool",
          "name": "",
          "type": "bool"
        }
      ],
      "stateMutability": "view",
      "type": "function"
    }
  ],
  "transactionHash": "0x1eca287849e36d0671df49c6ba87070f97193959cce206b9da1e5915d0ed97d3",
  "args": [],
  "numDeployments": 1,
  "solcInputHash": "b99a7f89699fcc7fa0a8aaf9060ec476",
  "bytecode": "0x608060405234801561001057600080fd5b5061001c600033610021565b6100cd565b61002b828261002f565b5050565b6000828152602081815260408083206001600160a01b038516845290915290205460ff1661002b576000828152602081815260408083206001600160a01b03851684529091529020805460ff191660011790556100893390565b6001600160a01b0316816001600160a01b0316837f2f8788117e7eff1d82e926ec794901d17c78024a50270940304540a733656f0d60405160405180910390a45050565b610aaf806100dc6000396000f3fe608060405234801561001057600080fd5b506004361061009e5760003560e01c8063545f7a3211610066578063545f7a3214610137578063584f6b601461014a57806391d148541461015d578063a217fddf14610170578063d547741f1461017857600080fd5b806301ffc9a7146100a357806318c5e8ab146100cb578063248a9ca3146100de5780632f2ff15d1461010f57806336568abe14610124575b600080fd5b6100b66100b13660046106f3565b61018b565b60405190151581526020015b60405180910390f35b6100b66100d93660046107dc565b6101c2565b6101016100ec36600461082a565b60009081526020819052604090206001015490565b6040519081526020016100c2565b61012261011d366004610843565b610247565b005b610122610132366004610843565b610271565b61012261014536600461086f565b6102f4565b61012261015836600461086f565b610331565b6100b661016b366004610843565b6103a8565b610101600081565b610122610186366004610843565b6103d1565b60006001600160e01b03198216637965db0b60e01b14806101bc57506301ffc9a760e01b6001600160e01b03198316145b92915050565b60008033836040516020016101d89291906108f9565b6040516020818303038152906040528051906020012090506101fa81856103a8565b156102095760019150506101bc565b60405161021d906000908590602001610931565b60405160208183030381529060405280519060200120905061023f81856103a8565b949350505050565b600082815260208190526040902060010154610262816103f6565b61026c8383610403565b505050565b6001600160a01b03811633146102e65760405162461bcd60e51b815260206004820152602f60248201527f416363657373436f6e74726f6c3a2063616e206f6e6c792072656e6f756e636560448201526e103937b632b9903337b91039b2b63360891b60648201526084015b60405180910390fd5b6102f08282610487565b5050565b600083836040516020016103099291906108f9565b60405160208183030381529060405280519060200120905061032b81836103d1565b50505050565b60006001600160a01b03841661037257604051610355906000908590602001610931565b60405160208183030381529060405280519060200120905061039e565b83836040516020016103859291906108f9565b6040516020818303038152906040528051906020012090505b61032b8183610247565b6000918252602082815260408084206001600160a01b0393909316845291905290205460ff1690565b6000828152602081905260409020600101546103ec816103f6565b61026c8383610487565b61040081336104ec565b50565b61040d82826103a8565b6102f0576000828152602081815260408083206001600160a01b03851684529091529020805460ff191660011790556104433390565b6001600160a01b0316816001600160a01b0316837f2f8788117e7eff1d82e926ec794901d17c78024a50270940304540a733656f0d60405160405180910390a45050565b61049182826103a8565b156102f0576000828152602081815260408083206001600160a01b0385168085529252808320805460ff1916905551339285917ff6391f5c32d9c69d2a47ea670b442974b53935d1edc7fd64eb21e047a839171b9190a45050565b6104f682826103a8565b6102f05761050e816001600160a01b03166014610550565b610519836020610550565b60405160200161052a929190610957565b60408051601f198184030181529082905262461bcd60e51b82526102dd916004016109cc565b6060600061055f836002610a15565b61056a906002610a34565b67ffffffffffffffff81111561058257610582610739565b6040519080825280601f01601f1916602001820160405280156105ac576020820181803683370190505b509050600360fc1b816000815181106105c7576105c7610a4c565b60200101906001600160f81b031916908160001a905350600f60fb1b816001815181106105f6576105f6610a4c565b60200101906001600160f81b031916908160001a905350600061061a846002610a15565b610625906001610a34565b90505b600181111561069d576f181899199a1a9b1b9c1cb0b131b232b360811b85600f166010811061065957610659610a4c565b1a60f81b82828151811061066f5761066f610a4c565b60200101906001600160f81b031916908160001a90535060049490941c9361069681610a62565b9050610628565b5083156106ec5760405162461bcd60e51b815260206004820181905260248201527f537472696e67733a20686578206c656e67746820696e73756666696369656e7460448201526064016102dd565b9392505050565b60006020828403121561070557600080fd5b81356001600160e01b0319811681146106ec57600080fd5b80356001600160a01b038116811461073457600080fd5b919050565b634e487b7160e01b600052604160045260246000fd5b600082601f83011261076057600080fd5b813567ffffffffffffffff8082111561077b5761077b610739565b604051601f8301601f19908116603f011681019082821181831017156107a3576107a3610739565b816040528381528660208588010111156107bc57600080fd5b836020870160208301376000602085830101528094505050505092915050565b600080604083850312156107ef57600080fd5b6107f88361071d565b9150602083013567ffffffffffffffff81111561081457600080fd5b6108208582860161074f565b9150509250929050565b60006020828403121561083c57600080fd5b5035919050565b6000806040838503121561085657600080fd5b823591506108666020840161071d565b90509250929050565b60008060006060848603121561088457600080fd5b61088d8461071d565b9250602084013567ffffffffffffffff8111156108a957600080fd5b6108b58682870161074f565b9250506108c46040850161071d565b90509250925092565b60005b838110156108e85781810151838201526020016108d0565b8381111561032b5750506000910152565b6bffffffffffffffffffffffff198360601b168152600082516109238160148501602087016108cd565b919091016014019392505050565b828152600082516109498160208501602087016108cd565b919091016020019392505050565b7f416363657373436f6e74726f6c3a206163636f756e742000000000000000000081526000835161098f8160178501602088016108cd565b7001034b99036b4b9b9b4b733903937b6329607d1b60179184019182015283516109c08160288401602088016108cd565b01602801949350505050565b60208152600082518060208401526109eb8160408501602087016108cd565b601f01601f19169190910160400192915050565b634e487b7160e01b600052601160045260246000fd5b6000816000190483118215151615610a2f57610a2f6109ff565b500290565b60008219821115610a4757610a476109ff565b500190565b634e487b7160e01b600052603260045260246000fd5b600081610a7157610a716109ff565b50600019019056fea2646970667358221220a5e8cf726010e71db7888fd7d05147e29ff6fcdf7b51f87e614cfee02e295d9a64736f6c634300080d0033",
  "devdoc": {
    "author": "0xLucian",
    "details": "This contract is a wrapper of OpenZeppelin AccessControl\t\textending it in a way to standartize access control\t\twithin Venus Smart Contract Ecosystem",
    "kind": "dev",
    "methods": {
      "getRoleAdmin(bytes32)": {
        "details": "Returns the admin role that controls `role`. See {grantRole} and {revokeRole}. To change a role's admin, use {_setRoleAdmin}."
      },
      "giveCallPermission(address,string,address)": {
        "details": "this function can be called only from Role Admin or DEFAULT_ADMIN_ROLE \t\tMay emit a {RoleGranted} event.",
        "params": {
          "accountToPermit": "account that will be given access to the contract function",
          "contractAddress": "address of contract for which call permissions will be granted NOTE: if contractAddress is zero address, we give the account DEFAULT_ADMIN_ROLE,      meaning that this account can access the certain function on ANY contract managed by this ACL",
          "functionSig": "signature e.g. \"functionName(uint,bool)\""
        }
      },
      "grantRole(bytes32,address)": {
        "details": "Grants `role` to `account`. If `account` had not been already granted `role`, emits a {RoleGranted} event. Requirements: - the caller must have ``role``'s admin role. May emit a {RoleGranted} event."
      },
      "hasRole(bytes32,address)": {
        "details": "Returns `true` if `account` has been granted `role`."
      },
      "isAllowedToCall(address,string)": {
        "details": "Since the contract is calling itself this function, we can get contracts address with msg.sender",
        "params": {
          "caller": "contract for which call permissions will be checked",
          "functionSig": "signature e.g. \"functionName(uint,bool)\""
        },
        "returns": {
          "_0": "false if the user account cannot call the particular contract function"
        }
      },
      "renounceRole(bytes32,address)": {
        "details": "Revokes `role` from the calling account. Roles are often managed via {grantRole} and {revokeRole}: this function's purpose is to provide a mechanism for accounts to lose their privileges if they are compromised (such as when a trusted device is misplaced). If the calling account had been revoked `role`, emits a {RoleRevoked} event. Requirements: - the caller must be `account`. May emit a {RoleRevoked} event."
      },
      "revokeCallPermission(address,string,address)": {
        "details": "this function can be called only from Role Admin or DEFAULT_ADMIN_ROLE \t\tMay emit a {RoleRevoked} event.",
        "params": {
          "contractAddress": "address of contract for which call permissions will be revoked",
          "functionSig": "signature e.g. \"functionName(uint,bool)\""
        }
      },
      "revokeRole(bytes32,address)": {
        "details": "Revokes `role` from `account`. If `account` had been granted `role`, emits a {RoleRevoked} event. Requirements: - the caller must have ``role``'s admin role. May emit a {RoleRevoked} event."
      },
      "supportsInterface(bytes4)": {
        "details": "See {IERC165-supportsInterface}."
      }
    },
    "title": "Venus Access Control Contract",
    "version": 1
  },
  "userdoc": {
    "kind": "user",
    "methods": {
      "giveCallPermission(address,string,address)": {
        "notice": "Gives a function call permission to one single account"
      },
      "isAllowedToCall(address,string)": {
        "notice": "Verifies if the given account can call a praticular contract's function"
      },
      "revokeCallPermission(address,string,address)": {
        "notice": "Revokes an account's permission to a particular function call"
      }
    },
    "version": 1
  },
  "storageLayout": {
    "storage": [
      {
        "astId": 858,
        "contract": "contracts/Governance/AccessControlManager.sol:AccessControlManager",
        "label": "_roles",
        "offset": 0,
        "slot": "0",
        "type": "t_mapping(t_bytes32,t_struct(RoleData)853_storage)"
      }
    ],
    "types": {
      "t_address": {
        "encoding": "inplace",
        "label": "address",
        "numberOfBytes": "20"
      },
      "t_bool": {
        "encoding": "inplace",
        "label": "bool",
        "numberOfBytes": "1"
      },
      "t_bytes32": {
        "encoding": "inplace",
        "label": "bytes32",
        "numberOfBytes": "32"
      },
      "t_mapping(t_address,t_bool)": {
        "encoding": "mapping",
        "key": "t_address",
        "label": "mapping(address => bool)",
        "numberOfBytes": "32",
        "value": "t_bool"
      },
      "t_mapping(t_bytes32,t_struct(RoleData)853_storage)": {
        "encoding": "mapping",
        "key": "t_bytes32",
        "label": "mapping(bytes32 => struct AccessControl.RoleData)",
        "numberOfBytes": "32",
        "value": "t_struct(RoleData)853_storage"
      },
      "t_struct(RoleData)853_storage": {
        "encoding": "inplace",
        "label": "struct AccessControl.RoleData",
        "members": [
          {
            "astId": 850,
            "contract": "contracts/Governance/AccessControlManager.sol:AccessControlManager",
            "label": "members",
            "offset": 0,
            "slot": "0",
            "type": "t_mapping(t_address,t_bool)"
          },
          {
            "astId": 852,
            "contract": "contracts/Governance/AccessControlManager.sol:AccessControlManager",
            "label": "adminRole",
            "offset": 0,
            "slot": "1",
            "type": "t_bytes32"
          }
        ],
        "numberOfBytes": "64"
      }
    }
  }
}