{
  "address": "0x4a471468cdABA84CEA885aF72129F2e974C3649B",
  "abi": [
    {
      "inputs": [],
      "stateMutability": "nonpayable",
      "type": "constructor"
    },
    {
      "anonymous": false,
      "inputs": [
        {
          "indexed": false,
          "internalType": "address",
          "name": "account",
          "type": "address"
        },
        {
          "indexed": false,
          "internalType": "address",
          "name": "contractAddress",
          "type": "address"
        },
        {
          "indexed": false,
          "internalType": "string",
          "name": "functionSig",
          "type": "string"
        }
      ],
      "name": "PermissionGranted",
      "type": "event"
    },
    {
      "anonymous": false,
      "inputs": [
        {
          "indexed": false,
          "internalType": "address",
          "name": "account",
          "type": "address"
        },
        {
          "indexed": false,
          "internalType": "address",
          "name": "contractAddress",
          "type": "address"
        },
        {
          "indexed": false,
          "internalType": "string",
          "name": "functionSig",
          "type": "string"
        }
      ],
      "name": "PermissionRevoked",
      "type": "event"
    },
    {
      "anonymous": false,
      "inputs": [
        {
          "indexed": true,
          "internalType": "bytes32",
          "name": "role",
          "type": "bytes32"
        },
        {
          "indexed": true,
          "internalType": "bytes32",
          "name": "previousAdminRole",
          "type": "bytes32"
        },
        {
          "indexed": true,
          "internalType": "bytes32",
          "name": "newAdminRole",
          "type": "bytes32"
        }
      ],
      "name": "RoleAdminChanged",
      "type": "event"
    },
    {
      "anonymous": false,
      "inputs": [
        {
          "indexed": true,
          "internalType": "bytes32",
          "name": "role",
          "type": "bytes32"
        },
        {
          "indexed": true,
          "internalType": "address",
          "name": "account",
          "type": "address"
        },
        {
          "indexed": true,
          "internalType": "address",
          "name": "sender",
          "type": "address"
        }
      ],
      "name": "RoleGranted",
      "type": "event"
    },
    {
      "anonymous": false,
      "inputs": [
        {
          "indexed": true,
          "internalType": "bytes32",
          "name": "role",
          "type": "bytes32"
        },
        {
          "indexed": true,
          "internalType": "address",
          "name": "account",
          "type": "address"
        },
        {
          "indexed": true,
          "internalType": "address",
          "name": "sender",
          "type": "address"
        }
      ],
      "name": "RoleRevoked",
      "type": "event"
    },
    {
      "inputs": [],
      "name": "DEFAULT_ADMIN_ROLE",
      "outputs": [
        {
          "internalType": "bytes32",
          "name": "",
          "type": "bytes32"
        }
      ],
      "stateMutability": "view",
      "type": "function"
    },
    {
      "inputs": [
        {
          "internalType": "bytes32",
          "name": "role",
          "type": "bytes32"
        }
      ],
      "name": "getRoleAdmin",
      "outputs": [
        {
          "internalType": "bytes32",
          "name": "",
          "type": "bytes32"
        }
      ],
      "stateMutability": "view",
      "type": "function"
    },
    {
      "inputs": [
        {
          "internalType": "address",
          "name": "contractAddress",
          "type": "address"
        },
        {
          "internalType": "string",
          "name": "functionSig",
          "type": "string"
        },
        {
          "internalType": "address",
          "name": "accountToPermit",
          "type": "address"
        }
      ],
      "name": "giveCallPermission",
      "outputs": [],
      "stateMutability": "nonpayable",
      "type": "function"
    },
    {
      "inputs": [
        {
          "internalType": "bytes32",
          "name": "role",
          "type": "bytes32"
        },
        {
          "internalType": "address",
          "name": "account",
          "type": "address"
        }
      ],
      "name": "grantRole",
      "outputs": [],
      "stateMutability": "nonpayable",
      "type": "function"
    },
    {
      "inputs": [
        {
          "internalType": "address",
          "name": "account",
          "type": "address"
        },
        {
          "internalType": "address",
          "name": "contractAddress",
          "type": "address"
        },
        {
          "internalType": "string",
          "name": "functionSig",
          "type": "string"
        }
      ],
      "name": "hasPermission",
      "outputs": [
        {
          "internalType": "bool",
          "name": "",
          "type": "bool"
        }
      ],
      "stateMutability": "view",
      "type": "function"
    },
    {
      "inputs": [
        {
          "internalType": "bytes32",
          "name": "role",
          "type": "bytes32"
        },
        {
          "internalType": "address",
          "name": "account",
          "type": "address"
        }
      ],
      "name": "hasRole",
      "outputs": [
        {
          "internalType": "bool",
          "name": "",
          "type": "bool"
        }
      ],
      "stateMutability": "view",
      "type": "function"
    },
    {
      "inputs": [
        {
          "internalType": "address",
          "name": "account",
          "type": "address"
        },
        {
          "internalType": "string",
          "name": "functionSig",
          "type": "string"
        }
      ],
      "name": "isAllowedToCall",
      "outputs": [
        {
          "internalType": "bool",
          "name": "",
          "type": "bool"
        }
      ],
      "stateMutability": "view",
      "type": "function"
    },
    {
      "inputs": [
        {
          "internalType": "bytes32",
          "name": "role",
          "type": "bytes32"
        },
        {
          "internalType": "address",
          "name": "account",
          "type": "address"
        }
      ],
      "name": "renounceRole",
      "outputs": [],
      "stateMutability": "nonpayable",
      "type": "function"
    },
    {
      "inputs": [
        {
          "internalType": "address",
          "name": "contractAddress",
          "type": "address"
        },
        {
          "internalType": "string",
          "name": "functionSig",
          "type": "string"
        },
        {
          "internalType": "address",
          "name": "accountToRevoke",
          "type": "address"
        }
      ],
      "name": "revokeCallPermission",
      "outputs": [],
      "stateMutability": "nonpayable",
      "type": "function"
    },
    {
      "inputs": [
        {
          "internalType": "bytes32",
          "name": "role",
          "type": "bytes32"
        },
        {
          "internalType": "address",
          "name": "account",
          "type": "address"
        }
      ],
      "name": "revokeRole",
      "outputs": [],
      "stateMutability": "nonpayable",
      "type": "function"
    },
    {
      "inputs": [
        {
          "internalType": "bytes4",
          "name": "interfaceId",
          "type": "bytes4"
        }
      ],
      "name": "supportsInterface",
      "outputs": [
        {
          "internalType": "bool",
          "name": "",
          "type": "bool"
        }
      ],
      "stateMutability": "view",
      "type": "function"
    }
  ],
  "transactionHash": "0x72784205daa57f46acde78f852e9d70445a13e0acd0d04c1f87b8630582bb7a6",
  "args": [],
  "numDeployments": 1,
  "solcInputHash": "6e56fddf756318c4a86c8f359f7cd8f6",
  "bytecode": "0x608060405234801561001057600080fd5b5061001c600033610021565b6100cd565b61002b828261002f565b5050565b6000828152602081815260408083206001600160a01b038516845290915290205460ff1661002b576000828152602081815260408083206001600160a01b03851684529091529020805460ff191660011790556100893390565b6001600160a01b0316816001600160a01b0316837f2f8788117e7eff1d82e926ec794901d17c78024a50270940304540a733656f0d60405160405180910390a45050565b610b96806100dc6000396000f3fe608060405234801561001057600080fd5b50600436106100a95760003560e01c8063545f7a3211610071578063545f7a3214610142578063584f6b601461015557806382bfd0f01461016857806391d148541461017b578063a217fddf1461018e578063d547741f1461019657600080fd5b806301ffc9a7146100ae57806318c5e8ab146100d6578063248a9ca3146100e95780632f2ff15d1461011a57806336568abe1461012f575b600080fd5b6100c16100bc366004610793565b6101a9565b60405190151581526020015b60405180910390f35b6100c16100e4366004610822565b6101e0565b61010c6100f7366004610875565b60009081526020819052604090206001015490565b6040519081526020016100cd565b61012d61012836600461088e565b61026c565b005b61012d61013d36600461088e565b610296565b61012d6101503660046108ba565b610319565b61012d6101633660046108ba565b610396565b6100c161017636600461091f565b610404565b6100c161018936600461088e565b610448565b61010c600081565b61012d6101a436600461088e565b610471565b60006001600160e01b03198216637965db0b60e01b14806101da57506301ffc9a760e01b6001600160e01b03198316145b92915050565b6000803384846040516020016101f893929190610980565b60405160208183030381529060405280519060200120905061021a8186610448565b15610229576001915050610265565b6000848460405160200161023f93929190610980565b6040516020818303038152906040528051906020012090506102618186610448565b9150505b9392505050565b60008281526020819052604090206001015461028781610496565b61029183836104a3565b505050565b6001600160a01b038116331461030b5760405162461bcd60e51b815260206004820152602f60248201527f416363657373436f6e74726f6c3a2063616e206f6e6c792072656e6f756e636560448201526e103937b632b9903337b91039b2b63360891b60648201526084015b60405180910390fd5b6103158282610527565b5050565b600084848460405160200161033093929190610980565b6040516020818303038152906040528051906020012090506103528183610471565b7f55426a61e90ac7d7d1fc886b67b420ade8c8b535e68d655394bc271e3a12b8e28286868660405161038794939291906109ac565b60405180910390a15050505050565b60008484846040516020016103ad93929190610980565b6040516020818303038152906040528051906020012090506103cf818361026c565b7f69c5ce2d658fea352a2464f87ffbe1f09746c918a91da0994044c3767d641b3f8286868660405161038794939291906109ac565b60008084848460405160200161041c93929190610980565b60405160208183030381529060405280519060200120905061043e8187610448565b9695505050505050565b6000918252602082815260408084206001600160a01b0393909316845291905290205460ff1690565b60008281526020819052604090206001015461048c81610496565b6102918383610527565b6104a0813361058c565b50565b6104ad8282610448565b610315576000828152602081815260408083206001600160a01b03851684529091529020805460ff191660011790556104e33390565b6001600160a01b0316816001600160a01b0316837f2f8788117e7eff1d82e926ec794901d17c78024a50270940304540a733656f0d60405160405180910390a45050565b6105318282610448565b15610315576000828152602081815260408083206001600160a01b0385168085529252808320805460ff1916905551339285917ff6391f5c32d9c69d2a47ea670b442974b53935d1edc7fd64eb21e047a839171b9190a45050565b6105968282610448565b610315576105a3816105e5565b6105ae8360206105f7565b6040516020016105bf929190610a28565b60408051601f198184030181529082905262461bcd60e51b825261030291600401610a9d565b60606101da6001600160a01b03831660145b60606000610606836002610ae6565b610611906002610b05565b67ffffffffffffffff81111561062957610629610b1d565b6040519080825280601f01601f191660200182016040528015610653576020820181803683370190505b509050600360fc1b8160008151811061066e5761066e610b33565b60200101906001600160f81b031916908160001a905350600f60fb1b8160018151811061069d5761069d610b33565b60200101906001600160f81b031916908160001a90535060006106c1846002610ae6565b6106cc906001610b05565b90505b6001811115610744576f181899199a1a9b1b9c1cb0b131b232b360811b85600f166010811061070057610700610b33565b1a60f81b82828151811061071657610716610b33565b60200101906001600160f81b031916908160001a90535060049490941c9361073d81610b49565b90506106cf565b5083156102655760405162461bcd60e51b815260206004820181905260248201527f537472696e67733a20686578206c656e67746820696e73756666696369656e746044820152606401610302565b6000602082840312156107a557600080fd5b81356001600160e01b03198116811461026557600080fd5b80356001600160a01b03811681146107d457600080fd5b919050565b60008083601f8401126107eb57600080fd5b50813567ffffffffffffffff81111561080357600080fd5b60208301915083602082850101111561081b57600080fd5b9250929050565b60008060006040848603121561083757600080fd5b610840846107bd565b9250602084013567ffffffffffffffff81111561085c57600080fd5b610868868287016107d9565b9497909650939450505050565b60006020828403121561088757600080fd5b5035919050565b600080604083850312156108a157600080fd5b823591506108b1602084016107bd565b90509250929050565b600080600080606085870312156108d057600080fd5b6108d9856107bd565b9350602085013567ffffffffffffffff8111156108f557600080fd5b610901878288016107d9565b90945092506109149050604086016107bd565b905092959194509250565b6000806000806060858703121561093557600080fd5b61093e856107bd565b935061094c602086016107bd565b9250604085013567ffffffffffffffff81111561096857600080fd5b610974878288016107d9565b95989497509550505050565b6bffffffffffffffffffffffff198460601b168152818360148301376000910160140190815292915050565b6001600160a01b0385811682528416602082015260606040820181905281018290526000828460808401376000608084840101526080601f19601f850116830101905095945050505050565b60005b83811015610a135781810151838201526020016109fb565b83811115610a22576000848401525b50505050565b7f416363657373436f6e74726f6c3a206163636f756e7420000000000000000000815260008351610a608160178501602088016109f8565b7001034b99036b4b9b9b4b733903937b6329607d1b6017918401918201528351610a918160288401602088016109f8565b01602801949350505050565b6020815260008251806020840152610abc8160408501602087016109f8565b601f01601f19169190910160400192915050565b634e487b7160e01b600052601160045260246000fd5b6000816000190483118215151615610b0057610b00610ad0565b500290565b60008219821115610b1857610b18610ad0565b500190565b634e487b7160e01b600052604160045260246000fd5b634e487b7160e01b600052603260045260246000fd5b600081610b5857610b58610ad0565b50600019019056fea2646970667358221220c0f2eda4b8a07de9a2d7c87743d6262f355761827601d1b9a76b7943ea0a388164736f6c634300080d0033",
  "devdoc": {
    "author": "0xLucian",
    "details": "This contract is a wrapper of OpenZeppelin AccessControl\t\textending it in a way to standartize access control\t\twithin Venus Smart Contract Ecosystem",
    "events": {
      "PermissionGranted(address,address,string)": {
        "details": "If contract address is 0x000..0 this means that the account is a default admin of this function and can call any contract function with this signature"
      }
    },
    "kind": "dev",
    "methods": {
      "getRoleAdmin(bytes32)": {
        "details": "Returns the admin role that controls `role`. See {grantRole} and {revokeRole}. To change a role's admin, use {_setRoleAdmin}."
      },
      "giveCallPermission(address,string,address)": {
        "custom:event": "Emits a {RoleGranted} and {PermissionGranted} events.",
        "details": "this function can be called only from Role Admin or DEFAULT_ADMIN_ROLEif contractAddress is zero address, the account can access the specified function      on **any** contract managed by this ACL",
        "params": {
          "accountToPermit": "account that will be given access to the contract function",
          "contractAddress": "address of contract for which call permissions will be granted",
          "functionSig": "signature e.g. \"functionName(uint256,bool)\""
        }
      },
      "grantRole(bytes32,address)": {
        "details": "Grants `role` to `account`. If `account` had not been already granted `role`, emits a {RoleGranted} event. Requirements: - the caller must have ``role``'s admin role. May emit a {RoleGranted} event."
      },
      "hasPermission(address,address,string)": {
        "details": "This function is used as a view function to check permissions rather than contract hook for access restriction check.",
        "params": {
          "account": "for which call permissions will be checked against",
          "contractAddress": "address of the restricted contract",
          "functionSig": "signature of the restricted function e.g. \"functionName(uint256,bool)\""
        },
        "returns": {
          "_0": "false if the user account cannot call the particular contract function"
        }
      },
      "hasRole(bytes32,address)": {
        "details": "Returns `true` if `account` has been granted `role`."
      },
      "isAllowedToCall(address,string)": {
        "details": "Since restricted contracts using this function as a permission hook, we can get contracts address with msg.sender",
        "params": {
          "account": "for which call permissions will be checked",
          "functionSig": "restricted function signature e.g. \"functionName(uint256,bool)\""
        },
        "returns": {
          "_0": "false if the user account cannot call the particular contract function"
        }
      },
      "renounceRole(bytes32,address)": {
        "details": "Revokes `role` from the calling account. Roles are often managed via {grantRole} and {revokeRole}: this function's purpose is to provide a mechanism for accounts to lose their privileges if they are compromised (such as when a trusted device is misplaced). If the calling account had been revoked `role`, emits a {RoleRevoked} event. Requirements: - the caller must be `account`. May emit a {RoleRevoked} event."
      },
      "revokeCallPermission(address,string,address)": {
        "custom:event": "Emits {RoleRevoked} and {PermissionRevoked} events.",
        "details": "this function can be called only from Role Admin or DEFAULT_ADMIN_ROLE \t\tMay emit a {RoleRevoked} event.",
        "params": {
          "contractAddress": "address of contract for which call permissions will be revoked",
          "functionSig": "signature e.g. \"functionName(uint256,bool)\""
        }
      },
      "revokeRole(bytes32,address)": {
        "details": "Revokes `role` from `account`. If `account` had been granted `role`, emits a {RoleRevoked} event. Requirements: - the caller must have ``role``'s admin role. May emit a {RoleRevoked} event."
      },
      "supportsInterface(bytes4)": {
        "details": "See {IERC165-supportsInterface}."
      }
    },
    "title": "Venus Access Control Contract",
    "version": 1
  },
  "userdoc": {
    "events": {
      "PermissionGranted(address,address,string)": {
        "notice": "Emitted when an account is given a permission to a certain contract function"
      },
      "PermissionRevoked(address,address,string)": {
        "notice": "Emitted when an account is revoked a permission to a certain contract function"
      }
    },
    "kind": "user",
    "methods": {
      "giveCallPermission(address,string,address)": {
        "notice": "Gives a function call permission to one single account"
      },
      "hasPermission(address,address,string)": {
        "notice": "Verifies if the given account can call a contract's guarded function"
      },
      "isAllowedToCall(address,string)": {
        "notice": "Verifies if the given account can call a contract's guarded function"
      },
      "revokeCallPermission(address,string,address)": {
        "notice": "Revokes an account's permission to a particular function call"
      }
    },
    "version": 1
  },
  "storageLayout": {
    "storage": [
      {
        "astId": 1225,
        "contract": "contracts/Governance/AccessControlManager.sol:AccessControlManager",
        "label": "_roles",
        "offset": 0,
        "slot": "0",
        "type": "t_mapping(t_bytes32,t_struct(RoleData)1220_storage)"
      }
    ],
    "types": {
      "t_address": {
        "encoding": "inplace",
        "label": "address",
        "numberOfBytes": "20"
      },
      "t_bool": {
        "encoding": "inplace",
        "label": "bool",
        "numberOfBytes": "1"
      },
      "t_bytes32": {
        "encoding": "inplace",
        "label": "bytes32",
        "numberOfBytes": "32"
      },
      "t_mapping(t_address,t_bool)": {
        "encoding": "mapping",
        "key": "t_address",
        "label": "mapping(address => bool)",
        "numberOfBytes": "32",
        "value": "t_bool"
      },
      "t_mapping(t_bytes32,t_struct(RoleData)1220_storage)": {
        "encoding": "mapping",
        "key": "t_bytes32",
        "label": "mapping(bytes32 => struct AccessControl.RoleData)",
        "numberOfBytes": "32",
        "value": "t_struct(RoleData)1220_storage"
      },
      "t_struct(RoleData)1220_storage": {
        "encoding": "inplace",
        "label": "struct AccessControl.RoleData",
        "members": [
          {
            "astId": 1217,
            "contract": "contracts/Governance/AccessControlManager.sol:AccessControlManager",
            "label": "members",
            "offset": 0,
            "slot": "0",
            "type": "t_mapping(t_address,t_bool)"
          },
          {
            "astId": 1219,
            "contract": "contracts/Governance/AccessControlManager.sol:AccessControlManager",
            "label": "adminRole",
            "offset": 0,
            "slot": "1",
            "type": "t_bytes32"
          }
        ],
        "numberOfBytes": "64"
      }
    }
  }
}