{
  "address": "0x6C6805Bd10772662002799DB37394c51f1f255be",
  "abi": [
    {
      "inputs": [
        {
          "internalType": "address",
          "name": "poolRegistry_",
          "type": "address"
        },
        {
          "internalType": "address",
          "name": "accessControl_",
          "type": "address"
        }
      ],
      "stateMutability": "nonpayable",
      "type": "constructor"
    },
    {
      "inputs": [
        {
          "internalType": "address",
          "name": "market",
          "type": "address"
        },
        {
          "internalType": "enum ComptrollerV1Storage.Action",
          "name": "action",
          "type": "uint8"
        }
      ],
      "name": "ActionPaused",
      "type": "error"
    },
    {
      "inputs": [
        {
          "internalType": "address",
          "name": "market",
          "type": "address"
        },
        {
          "internalType": "uint256",
          "name": "cap",
          "type": "uint256"
        }
      ],
      "name": "BorrowCapExceeded",
      "type": "error"
    },
    {
      "inputs": [
        {
          "internalType": "uint256",
          "name": "expectedLessThanOrEqualTo",
          "type": "uint256"
        },
        {
          "internalType": "uint256",
          "name": "actual",
          "type": "uint256"
        }
      ],
      "name": "CollateralExceedsThreshold",
      "type": "error"
    },
    {
      "inputs": [],
      "name": "ComptrollerMismatch",
      "type": "error"
    },
    {
      "inputs": [
        {
          "internalType": "uint256",
          "name": "collateralToSeize",
          "type": "uint256"
        },
        {
          "internalType": "uint256",
          "name": "availableCollateral",
          "type": "uint256"
        }
      ],
      "name": "InsufficientCollateral",
      "type": "error"
    },
    {
      "inputs": [],
      "name": "InsufficientLiquidity",
      "type": "error"
    },
    {
      "inputs": [],
      "name": "InsufficientShortfall",
      "type": "error"
    },
    {
      "inputs": [],
      "name": "InvalidCollateralFactor",
      "type": "error"
    },
    {
      "inputs": [],
      "name": "InvalidLiquidationThreshold",
      "type": "error"
    },
    {
      "inputs": [
        {
          "internalType": "address",
          "name": "market",
          "type": "address"
        }
      ],
      "name": "MarketAlreadyListed",
      "type": "error"
    },
    {
      "inputs": [
        {
          "internalType": "address",
          "name": "market",
          "type": "address"
        }
      ],
      "name": "MarketNotListed",
      "type": "error"
    },
    {
      "inputs": [
        {
          "internalType": "uint256",
          "name": "expectedGreaterThan",
          "type": "uint256"
        },
        {
          "internalType": "uint256",
          "name": "actual",
          "type": "uint256"
        }
      ],
      "name": "MinimalCollateralViolated",
      "type": "error"
    },
    {
      "inputs": [],
      "name": "NonzeroBorrowBalance",
      "type": "error"
    },
    {
      "inputs": [
        {
          "internalType": "address",
          "name": "vToken",
          "type": "address"
        }
      ],
      "name": "PriceError",
      "type": "error"
    },
    {
      "inputs": [
        {
          "internalType": "address",
          "name": "vToken",
          "type": "address"
        },
        {
          "internalType": "address",
          "name": "user",
          "type": "address"
        }
      ],
      "name": "SnapshotError",
      "type": "error"
    },
    {
      "inputs": [
        {
          "internalType": "address",
          "name": "market",
          "type": "address"
        },
        {
          "internalType": "uint256",
          "name": "cap",
          "type": "uint256"
        }
      ],
      "name": "SupplyCapExceeded",
      "type": "error"
    },
    {
      "inputs": [],
      "name": "TooMuchRepay",
      "type": "error"
    },
    {
      "inputs": [
        {
          "internalType": "address",
          "name": "sender",
          "type": "address"
        },
        {
          "internalType": "address",
          "name": "calledContract",
          "type": "address"
        },
        {
          "internalType": "string",
          "name": "methodSignature",
          "type": "string"
        }
      ],
      "name": "Unauthorized",
      "type": "error"
    },
    {
      "inputs": [
        {
          "internalType": "address",
          "name": "expectedSender",
          "type": "address"
        },
        {
          "internalType": "address",
          "name": "actualSender",
          "type": "address"
        }
      ],
      "name": "UnexpectedSender",
      "type": "error"
    },
    {
      "anonymous": false,
      "inputs": [
        {
          "indexed": false,
          "internalType": "contract VToken",
          "name": "vToken",
          "type": "address"
        },
        {
          "indexed": false,
          "internalType": "enum ComptrollerV1Storage.Action",
          "name": "action",
          "type": "uint8"
        },
        {
          "indexed": false,
          "internalType": "bool",
          "name": "pauseState",
          "type": "bool"
        }
      ],
      "name": "ActionPausedMarket",
      "type": "event"
    },
    {
      "anonymous": false,
      "inputs": [
        {
          "indexed": false,
          "internalType": "uint8",
          "name": "version",
          "type": "uint8"
        }
      ],
      "name": "Initialized",
      "type": "event"
    },
    {
      "anonymous": false,
      "inputs": [
        {
          "indexed": false,
          "internalType": "contract VToken",
          "name": "vToken",
          "type": "address"
        },
        {
          "indexed": false,
          "internalType": "address",
          "name": "account",
          "type": "address"
        }
      ],
      "name": "MarketEntered",
      "type": "event"
    },
    {
      "anonymous": false,
      "inputs": [
        {
          "indexed": false,
          "internalType": "contract VToken",
          "name": "vToken",
          "type": "address"
        },
        {
          "indexed": false,
          "internalType": "address",
          "name": "account",
          "type": "address"
        }
      ],
      "name": "MarketExited",
      "type": "event"
    },
    {
      "anonymous": false,
      "inputs": [
        {
          "indexed": true,
          "internalType": "contract VToken",
          "name": "vToken",
          "type": "address"
        },
        {
          "indexed": false,
          "internalType": "uint256",
          "name": "newBorrowCap",
          "type": "uint256"
        }
      ],
      "name": "NewBorrowCap",
      "type": "event"
    },
    {
      "anonymous": false,
      "inputs": [
        {
          "indexed": false,
          "internalType": "address",
          "name": "oldBorrowCapGuardian",
          "type": "address"
        },
        {
          "indexed": false,
          "internalType": "address",
          "name": "newBorrowCapGuardian",
          "type": "address"
        }
      ],
      "name": "NewBorrowCapGuardian",
      "type": "event"
    },
    {
      "anonymous": false,
      "inputs": [
        {
          "indexed": false,
          "internalType": "uint256",
          "name": "oldCloseFactorMantissa",
          "type": "uint256"
        },
        {
          "indexed": false,
          "internalType": "uint256",
          "name": "newCloseFactorMantissa",
          "type": "uint256"
        }
      ],
      "name": "NewCloseFactor",
      "type": "event"
    },
    {
      "anonymous": false,
      "inputs": [
        {
          "indexed": false,
          "internalType": "contract VToken",
          "name": "vToken",
          "type": "address"
        },
        {
          "indexed": false,
          "internalType": "uint256",
          "name": "oldCollateralFactorMantissa",
          "type": "uint256"
        },
        {
          "indexed": false,
          "internalType": "uint256",
          "name": "newCollateralFactorMantissa",
          "type": "uint256"
        }
      ],
      "name": "NewCollateralFactor",
      "type": "event"
    },
    {
      "anonymous": false,
      "inputs": [
        {
          "indexed": false,
          "internalType": "uint256",
          "name": "oldLiquidationIncentiveMantissa",
          "type": "uint256"
        },
        {
          "indexed": false,
          "internalType": "uint256",
          "name": "newLiquidationIncentiveMantissa",
          "type": "uint256"
        }
      ],
      "name": "NewLiquidationIncentive",
      "type": "event"
    },
    {
      "anonymous": false,
      "inputs": [
        {
          "indexed": false,
          "internalType": "contract VToken",
          "name": "vToken",
          "type": "address"
        },
        {
          "indexed": false,
          "internalType": "uint256",
          "name": "oldLiquidationThresholdMantissa",
          "type": "uint256"
        },
        {
          "indexed": false,
          "internalType": "uint256",
          "name": "newLiquidationThresholdMantissa",
          "type": "uint256"
        }
      ],
      "name": "NewLiquidationThreshold",
      "type": "event"
    },
    {
      "anonymous": false,
      "inputs": [
        {
          "indexed": false,
          "internalType": "uint256",
          "name": "oldMinLiquidatableCollateral",
          "type": "uint256"
        },
        {
          "indexed": false,
          "internalType": "uint256",
          "name": "newMinLiquidatableCollateral",
          "type": "uint256"
        }
      ],
      "name": "NewMinLiquidatableCollateral",
      "type": "event"
    },
    {
      "anonymous": false,
      "inputs": [
        {
          "indexed": false,
          "internalType": "contract PriceOracle",
          "name": "oldPriceOracle",
          "type": "address"
        },
        {
          "indexed": false,
          "internalType": "contract PriceOracle",
          "name": "newPriceOracle",
          "type": "address"
        }
      ],
      "name": "NewPriceOracle",
      "type": "event"
    },
    {
      "anonymous": false,
      "inputs": [
        {
          "indexed": true,
          "internalType": "address",
          "name": "rewardsDistributor",
          "type": "address"
        }
      ],
      "name": "NewRewardsDistributor",
      "type": "event"
    },
    {
      "anonymous": false,
      "inputs": [
        {
          "indexed": true,
          "internalType": "contract VToken",
          "name": "vToken",
          "type": "address"
        },
        {
          "indexed": false,
          "internalType": "uint256",
          "name": "newSupplyCap",
          "type": "uint256"
        }
      ],
      "name": "NewSupplyCap",
      "type": "event"
    },
    {
      "anonymous": false,
      "inputs": [
        {
          "indexed": true,
          "internalType": "address",
          "name": "previousOwner",
          "type": "address"
        },
        {
          "indexed": true,
          "internalType": "address",
          "name": "newOwner",
          "type": "address"
        }
      ],
      "name": "OwnershipTransferStarted",
      "type": "event"
    },
    {
      "anonymous": false,
      "inputs": [
        {
          "indexed": true,
          "internalType": "address",
          "name": "previousOwner",
          "type": "address"
        },
        {
          "indexed": true,
          "internalType": "address",
          "name": "newOwner",
          "type": "address"
        }
      ],
      "name": "OwnershipTransferred",
      "type": "event"
    },
    {
      "inputs": [],
      "name": "acceptOwnership",
      "outputs": [],
      "stateMutability": "nonpayable",
      "type": "function"
    },
    {
      "inputs": [],
      "name": "accessControl",
      "outputs": [
        {
          "internalType": "address",
          "name": "",
          "type": "address"
        }
      ],
      "stateMutability": "view",
      "type": "function"
    },
    {
      "inputs": [
        {
          "internalType": "address",
          "name": "",
          "type": "address"
        },
        {
          "internalType": "uint256",
          "name": "",
          "type": "uint256"
        }
      ],
      "name": "accountAssets",
      "outputs": [
        {
          "internalType": "contract VToken",
          "name": "",
          "type": "address"
        }
      ],
      "stateMutability": "view",
      "type": "function"
    },
    {
      "inputs": [
        {
          "internalType": "address",
          "name": "market",
          "type": "address"
        },
        {
          "internalType": "enum ComptrollerV1Storage.Action",
          "name": "action",
          "type": "uint8"
        }
      ],
      "name": "actionPaused",
      "outputs": [
        {
          "internalType": "bool",
          "name": "",
          "type": "bool"
        }
      ],
      "stateMutability": "view",
      "type": "function"
    },
    {
      "inputs": [
        {
          "internalType": "contract RewardsDistributor",
          "name": "_rewardsDistributor",
          "type": "address"
        }
      ],
      "name": "addRewardsDistributor",
      "outputs": [],
      "stateMutability": "nonpayable",
      "type": "function"
    },
    {
      "inputs": [
        {
          "internalType": "uint256",
          "name": "",
          "type": "uint256"
        }
      ],
      "name": "allMarkets",
      "outputs": [
        {
          "internalType": "contract VToken",
          "name": "",
          "type": "address"
        }
      ],
      "stateMutability": "view",
      "type": "function"
    },
    {
      "inputs": [],
      "name": "borrowCapGuardian",
      "outputs": [
        {
          "internalType": "address",
          "name": "",
          "type": "address"
        }
      ],
      "stateMutability": "view",
      "type": "function"
    },
    {
      "inputs": [
        {
          "internalType": "address",
          "name": "",
          "type": "address"
        }
      ],
      "name": "borrowCaps",
      "outputs": [
        {
          "internalType": "uint256",
          "name": "",
          "type": "uint256"
        }
      ],
      "stateMutability": "view",
      "type": "function"
    },
    {
      "inputs": [
        {
          "internalType": "address",
          "name": "",
          "type": "address"
        }
      ],
      "name": "borrowGuardianPaused",
      "outputs": [
        {
          "internalType": "bool",
          "name": "",
          "type": "bool"
        }
      ],
      "stateMutability": "view",
      "type": "function"
    },
    {
      "inputs": [
        {
          "internalType": "address",
          "name": "account",
          "type": "address"
        },
        {
          "internalType": "contract VToken",
          "name": "vToken",
          "type": "address"
        }
      ],
      "name": "checkMembership",
      "outputs": [
        {
          "internalType": "bool",
          "name": "",
          "type": "bool"
        }
      ],
      "stateMutability": "view",
      "type": "function"
    },
    {
      "inputs": [],
      "name": "closeFactorMantissa",
      "outputs": [
        {
          "internalType": "uint256",
          "name": "",
          "type": "uint256"
        }
      ],
      "stateMutability": "view",
      "type": "function"
    },
    {
      "inputs": [
        {
          "internalType": "address[]",
          "name": "vTokens",
          "type": "address[]"
        }
      ],
      "name": "enterMarkets",
      "outputs": [
        {
          "internalType": "uint256[]",
          "name": "",
          "type": "uint256[]"
        }
      ],
      "stateMutability": "nonpayable",
      "type": "function"
    },
    {
      "inputs": [
        {
          "internalType": "address",
          "name": "vTokenAddress",
          "type": "address"
        }
      ],
      "name": "exitMarket",
      "outputs": [
        {
          "internalType": "uint256",
          "name": "",
          "type": "uint256"
        }
      ],
      "stateMutability": "nonpayable",
      "type": "function"
    },
    {
      "inputs": [
        {
          "internalType": "address",
          "name": "account",
          "type": "address"
        }
      ],
      "name": "getAccountLiquidity",
      "outputs": [
        {
          "internalType": "uint256",
          "name": "error",
          "type": "uint256"
        },
        {
          "internalType": "uint256",
          "name": "liquidity",
          "type": "uint256"
        },
        {
          "internalType": "uint256",
          "name": "shortfall",
          "type": "uint256"
        }
      ],
      "stateMutability": "view",
      "type": "function"
    },
    {
      "inputs": [],
      "name": "getAllMarkets",
      "outputs": [
        {
          "internalType": "contract VToken[]",
          "name": "",
          "type": "address[]"
        }
      ],
      "stateMutability": "view",
      "type": "function"
    },
    {
      "inputs": [
        {
          "internalType": "address",
          "name": "account",
          "type": "address"
        }
      ],
      "name": "getAssetsIn",
      "outputs": [
        {
          "internalType": "contract VToken[]",
          "name": "",
          "type": "address[]"
        }
      ],
      "stateMutability": "view",
      "type": "function"
    },
    {
      "inputs": [
        {
          "internalType": "address",
          "name": "account",
          "type": "address"
        },
        {
          "internalType": "address",
          "name": "vTokenModify",
          "type": "address"
        },
        {
          "internalType": "uint256",
          "name": "redeemTokens",
          "type": "uint256"
        },
        {
          "internalType": "uint256",
          "name": "borrowAmount",
          "type": "uint256"
        }
      ],
      "name": "getHypotheticalAccountLiquidity",
      "outputs": [
        {
          "internalType": "uint256",
          "name": "error",
          "type": "uint256"
        },
        {
          "internalType": "uint256",
          "name": "liquidity",
          "type": "uint256"
        },
        {
          "internalType": "uint256",
          "name": "shortfall",
          "type": "uint256"
        }
      ],
      "stateMutability": "view",
      "type": "function"
    },
    {
      "inputs": [],
      "name": "getRewardDistributors",
      "outputs": [
        {
          "internalType": "contract RewardsDistributor[]",
          "name": "",
          "type": "address[]"
        }
      ],
      "stateMutability": "view",
      "type": "function"
    },
    {
      "inputs": [
        {
          "internalType": "address",
          "name": "vToken",
          "type": "address"
        }
      ],
      "name": "getRewardsByMarket",
      "outputs": [
        {
          "components": [
            {
              "internalType": "address",
              "name": "rewardToken",
              "type": "address"
            },
            {
              "internalType": "uint256",
              "name": "supplySpeed",
              "type": "uint256"
            },
            {
              "internalType": "uint256",
              "name": "borrowSpeed",
              "type": "uint256"
            }
          ],
          "internalType": "struct Comptroller.RewardSpeeds[]",
          "name": "rewardSpeeds",
          "type": "tuple[]"
        }
      ],
      "stateMutability": "view",
      "type": "function"
    },
    {
      "inputs": [
        {
          "internalType": "address",
          "name": "user",
          "type": "address"
        }
      ],
      "name": "healAccount",
      "outputs": [],
      "stateMutability": "nonpayable",
      "type": "function"
    },
    {
      "inputs": [],
      "name": "initialize",
      "outputs": [],
      "stateMutability": "nonpayable",
      "type": "function"
    },
    {
      "inputs": [],
      "name": "isComptroller",
      "outputs": [
        {
          "internalType": "bool",
          "name": "",
          "type": "bool"
        }
      ],
      "stateMutability": "view",
      "type": "function"
    },
    {
      "inputs": [
        {
          "internalType": "contract VToken",
          "name": "vToken",
          "type": "address"
        }
      ],
      "name": "isDeprecated",
      "outputs": [
        {
          "internalType": "bool",
          "name": "",
          "type": "bool"
        }
      ],
      "stateMutability": "view",
      "type": "function"
    },
    {
      "inputs": [
        {
          "internalType": "contract VToken",
          "name": "vToken",
          "type": "address"
        }
      ],
      "name": "isMarketListed",
      "outputs": [
        {
          "internalType": "bool",
          "name": "",
          "type": "bool"
        }
      ],
      "stateMutability": "view",
      "type": "function"
    },
    {
      "inputs": [
        {
          "internalType": "address",
          "name": "borrower",
          "type": "address"
        },
        {
          "components": [
            {
              "internalType": "contract VToken",
              "name": "vTokenCollateral",
              "type": "address"
            },
            {
              "internalType": "contract VToken",
              "name": "vTokenBorrowed",
              "type": "address"
            },
            {
              "internalType": "uint256",
              "name": "repayAmount",
              "type": "uint256"
            }
          ],
          "internalType": "struct Comptroller.LiquidationOrder[]",
          "name": "orders",
          "type": "tuple[]"
        }
      ],
      "name": "liquidateAccount",
      "outputs": [],
      "stateMutability": "nonpayable",
      "type": "function"
    },
    {
      "inputs": [
        {
          "internalType": "address",
          "name": "vTokenBorrowed",
          "type": "address"
        },
        {
          "internalType": "address",
          "name": "vTokenCollateral",
          "type": "address"
        },
        {
          "internalType": "uint256",
          "name": "actualRepayAmount",
          "type": "uint256"
        }
      ],
      "name": "liquidateCalculateSeizeTokens",
      "outputs": [
        {
          "internalType": "uint256",
          "name": "error",
          "type": "uint256"
        },
        {
          "internalType": "uint256",
          "name": "tokensToSeize",
          "type": "uint256"
        }
      ],
      "stateMutability": "view",
      "type": "function"
    },
    {
      "inputs": [],
      "name": "liquidationIncentiveMantissa",
      "outputs": [
        {
          "internalType": "uint256",
          "name": "",
          "type": "uint256"
        }
      ],
      "stateMutability": "view",
      "type": "function"
    },
    {
      "inputs": [
        {
          "internalType": "address",
          "name": "",
          "type": "address"
        }
      ],
      "name": "markets",
      "outputs": [
        {
          "internalType": "bool",
          "name": "isListed",
          "type": "bool"
        },
        {
          "internalType": "uint256",
          "name": "collateralFactorMantissa",
          "type": "uint256"
        },
        {
          "internalType": "uint256",
          "name": "liquidationThresholdMantissa",
          "type": "uint256"
        }
      ],
      "stateMutability": "view",
      "type": "function"
    },
    {
      "inputs": [],
      "name": "maxAssets",
      "outputs": [
        {
          "internalType": "uint256",
          "name": "",
          "type": "uint256"
        }
      ],
      "stateMutability": "view",
      "type": "function"
    },
    {
      "inputs": [],
      "name": "minLiquidatableCollateral",
      "outputs": [
        {
          "internalType": "uint256",
          "name": "",
          "type": "uint256"
        }
      ],
      "stateMutability": "view",
      "type": "function"
    },
    {
      "inputs": [
        {
          "internalType": "address",
          "name": "",
          "type": "address"
        }
      ],
      "name": "mintGuardianPaused",
      "outputs": [
        {
          "internalType": "bool",
          "name": "",
          "type": "bool"
        }
      ],
      "stateMutability": "view",
      "type": "function"
    },
    {
      "inputs": [],
      "name": "oracle",
      "outputs": [
        {
          "internalType": "contract PriceOracle",
          "name": "",
          "type": "address"
        }
      ],
      "stateMutability": "view",
      "type": "function"
    },
    {
      "inputs": [],
      "name": "owner",
      "outputs": [
        {
          "internalType": "address",
          "name": "",
          "type": "address"
        }
      ],
      "stateMutability": "view",
      "type": "function"
    },
    {
      "inputs": [],
      "name": "pauseGuardian",
      "outputs": [
        {
          "internalType": "address",
          "name": "",
          "type": "address"
        }
      ],
      "stateMutability": "view",
      "type": "function"
    },
    {
      "inputs": [],
      "name": "pendingOwner",
      "outputs": [
        {
          "internalType": "address",
          "name": "",
          "type": "address"
        }
      ],
      "stateMutability": "view",
      "type": "function"
    },
    {
      "inputs": [],
      "name": "poolRegistry",
      "outputs": [
        {
          "internalType": "address",
          "name": "",
          "type": "address"
        }
      ],
      "stateMutability": "view",
      "type": "function"
    },
    {
      "inputs": [
        {
          "internalType": "address",
          "name": "vToken",
          "type": "address"
        },
        {
          "internalType": "address",
          "name": "borrower",
          "type": "address"
        },
        {
          "internalType": "uint256",
          "name": "borrowAmount",
          "type": "uint256"
        }
      ],
      "name": "preBorrowHook",
      "outputs": [],
      "stateMutability": "nonpayable",
      "type": "function"
    },
    {
      "inputs": [
        {
          "internalType": "address",
          "name": "vTokenBorrowed",
          "type": "address"
        },
        {
          "internalType": "address",
          "name": "vTokenCollateral",
          "type": "address"
        },
        {
          "internalType": "address",
          "name": "liquidator",
          "type": "address"
        },
        {
          "internalType": "address",
          "name": "borrower",
          "type": "address"
        },
        {
          "internalType": "uint256",
          "name": "repayAmount",
          "type": "uint256"
        },
        {
          "internalType": "bool",
          "name": "skipLiquidityCheck",
          "type": "bool"
        }
      ],
      "name": "preLiquidateHook",
      "outputs": [],
      "stateMutability": "nonpayable",
      "type": "function"
    },
    {
      "inputs": [
        {
          "internalType": "address",
          "name": "vToken",
          "type": "address"
        },
        {
          "internalType": "address",
          "name": "minter",
          "type": "address"
        },
        {
          "internalType": "uint256",
          "name": "mintAmount",
          "type": "uint256"
        }
      ],
      "name": "preMintHook",
      "outputs": [],
      "stateMutability": "nonpayable",
      "type": "function"
    },
    {
      "inputs": [
        {
          "internalType": "address",
          "name": "vToken",
          "type": "address"
        },
        {
          "internalType": "address",
          "name": "redeemer",
          "type": "address"
        },
        {
          "internalType": "uint256",
          "name": "redeemTokens",
          "type": "uint256"
        }
      ],
      "name": "preRedeemHook",
      "outputs": [],
      "stateMutability": "nonpayable",
      "type": "function"
    },
    {
      "inputs": [
        {
          "internalType": "address",
          "name": "vToken",
          "type": "address"
        },
        {
          "internalType": "address",
          "name": "payer",
          "type": "address"
        },
        {
          "internalType": "address",
          "name": "borrower",
          "type": "address"
        },
        {
          "internalType": "uint256",
          "name": "repayAmount",
          "type": "uint256"
        }
      ],
      "name": "preRepayHook",
      "outputs": [],
      "stateMutability": "nonpayable",
      "type": "function"
    },
    {
      "inputs": [
        {
          "internalType": "address",
          "name": "vTokenCollateral",
          "type": "address"
        },
        {
          "internalType": "address",
          "name": "seizerContract",
          "type": "address"
        },
        {
          "internalType": "address",
          "name": "liquidator",
          "type": "address"
        },
        {
          "internalType": "address",
          "name": "borrower",
          "type": "address"
        },
        {
          "internalType": "uint256",
          "name": "seizeTokens",
          "type": "uint256"
        }
      ],
      "name": "preSeizeHook",
      "outputs": [],
      "stateMutability": "nonpayable",
      "type": "function"
    },
    {
      "inputs": [
        {
          "internalType": "address",
          "name": "vToken",
          "type": "address"
        },
        {
          "internalType": "address",
          "name": "src",
          "type": "address"
        },
        {
          "internalType": "address",
          "name": "dst",
          "type": "address"
        },
        {
          "internalType": "uint256",
          "name": "transferTokens",
          "type": "uint256"
        }
      ],
      "name": "preTransferHook",
      "outputs": [],
      "stateMutability": "nonpayable",
      "type": "function"
    },
    {
      "inputs": [],
      "name": "renounceOwnership",
      "outputs": [],
      "stateMutability": "nonpayable",
      "type": "function"
    },
    {
      "inputs": [],
      "name": "seizeGuardianPaused",
      "outputs": [
        {
          "internalType": "bool",
          "name": "",
          "type": "bool"
        }
      ],
      "stateMutability": "view",
      "type": "function"
    },
    {
      "inputs": [
        {
          "internalType": "contract VToken[]",
          "name": "marketsList",
          "type": "address[]"
        },
        {
          "internalType": "enum ComptrollerV1Storage.Action[]",
          "name": "actionsList",
          "type": "uint8[]"
        },
        {
          "internalType": "bool",
          "name": "paused",
          "type": "bool"
        }
      ],
      "name": "setActionsPaused",
      "outputs": [],
      "stateMutability": "nonpayable",
      "type": "function"
    },
    {
      "inputs": [
        {
          "internalType": "uint256",
          "name": "newCloseFactorMantissa",
          "type": "uint256"
        }
      ],
      "name": "setCloseFactor",
      "outputs": [],
      "stateMutability": "nonpayable",
      "type": "function"
    },
    {
      "inputs": [
        {
          "internalType": "contract VToken",
          "name": "vToken",
          "type": "address"
        },
        {
          "internalType": "uint256",
          "name": "newCollateralFactorMantissa",
          "type": "uint256"
        },
        {
          "internalType": "uint256",
          "name": "newLiquidationThresholdMantissa",
          "type": "uint256"
        }
      ],
      "name": "setCollateralFactor",
      "outputs": [],
      "stateMutability": "nonpayable",
      "type": "function"
    },
    {
      "inputs": [
        {
          "internalType": "uint256",
          "name": "newLiquidationIncentiveMantissa",
          "type": "uint256"
        }
      ],
      "name": "setLiquidationIncentive",
      "outputs": [],
      "stateMutability": "nonpayable",
      "type": "function"
    },
    {
      "inputs": [
        {
          "internalType": "contract VToken[]",
          "name": "vTokens",
          "type": "address[]"
        },
        {
          "internalType": "uint256[]",
          "name": "newBorrowCaps",
          "type": "uint256[]"
        }
      ],
      "name": "setMarketBorrowCaps",
      "outputs": [],
      "stateMutability": "nonpayable",
      "type": "function"
    },
    {
      "inputs": [
        {
          "internalType": "contract VToken[]",
          "name": "vTokens",
          "type": "address[]"
        },
        {
          "internalType": "uint256[]",
          "name": "newSupplyCaps",
          "type": "uint256[]"
        }
      ],
      "name": "setMarketSupplyCaps",
      "outputs": [],
      "stateMutability": "nonpayable",
      "type": "function"
    },
    {
      "inputs": [
        {
          "internalType": "uint256",
          "name": "newMinLiquidatableCollateral",
          "type": "uint256"
        }
      ],
      "name": "setMinLiquidatableCollateral",
      "outputs": [],
      "stateMutability": "nonpayable",
      "type": "function"
    },
    {
      "inputs": [
        {
          "internalType": "contract PriceOracle",
          "name": "newOracle",
          "type": "address"
        }
      ],
      "name": "setPriceOracle",
      "outputs": [],
      "stateMutability": "nonpayable",
      "type": "function"
    },
    {
      "inputs": [
        {
          "internalType": "address",
          "name": "",
          "type": "address"
        }
      ],
      "name": "supplyCaps",
      "outputs": [
        {
          "internalType": "uint256",
          "name": "",
          "type": "uint256"
        }
      ],
      "stateMutability": "view",
      "type": "function"
    },
    {
      "inputs": [
        {
          "internalType": "contract VToken",
          "name": "vToken",
          "type": "address"
        }
      ],
      "name": "supportMarket",
      "outputs": [],
      "stateMutability": "nonpayable",
      "type": "function"
    },
    {
      "inputs": [],
      "name": "transferGuardianPaused",
      "outputs": [
        {
          "internalType": "bool",
          "name": "",
          "type": "bool"
        }
      ],
      "stateMutability": "view",
      "type": "function"
    },
    {
      "inputs": [
        {
          "internalType": "address",
          "name": "newOwner",
          "type": "address"
        }
      ],
      "name": "transferOwnership",
      "outputs": [],
      "stateMutability": "nonpayable",
      "type": "function"
    }
  ],
  "transactionHash": "0x9c59427526a5e7df3adf0f03eb363b7273723399363ec8419dfcb357d2d63270",
  "args": [
    "0x05e4C8f3dbb6c2eaD4eB1f28611FA7180e79f428",
    "0x86951FD87308c6d767E82b3dBC9d2cBE232d0840"
  ],
  "numDeployments": 1,
  "solcInputHash": "bba6a760c56238281594068d5edc90c8",
  "bytecode": "0x60c06040523480156200001157600080fd5b506040516200530a3803806200530a833981016040819052620000349162000138565b6001600160a01b03808316608052811660a0526200005162000059565b505062000170565b600054610100900460ff1615620000c65760405162461bcd60e51b815260206004820152602760248201527f496e697469616c697a61626c653a20636f6e747261637420697320696e697469604482015266616c697a696e6760c81b606482015260840160405180910390fd5b60005460ff908116101562000119576000805460ff191660ff9081179091556040519081527f7f26b83ff96e1f2b6a682f133852f6798a09c465da95921460cefb38474024989060200160405180910390a15b565b80516001600160a01b03811681146200013357600080fd5b919050565b600080604083850312156200014c57600080fd5b62000157836200011b565b915062000167602084016200011b565b90509250929050565b60805160a051615166620001a4600039600081816103ff0152613c490152600081816107700152612cdf01526151666000f3fe608060405234801561001057600080fd5b50600436106103825760003560e01c80638129fc1c116101de578063b2068e841161010f578063dce15449116100ad578063e87554461161007c578063e87554461461088e578063eccdabc614610897578063ede4edd0146108aa578063f2fde38b146108bd57600080fd5b8063dce1544914610844578063df71403b14610857578063e30c39781461086a578063e85a29601461087b57600080fd5b8063c488847b116100e9578063c488847b146107ed578063cab4f84c14610815578063d136af4414610828578063db5c65de1461083b57600080fd5b8063b2068e841461079a578063c0891ba9146107ba578063c2998238146107cd57600080fd5b806394543c151161017c578063abfceffc11610156578063abfceffc14610744578063ac0b0bb714610757578063afcff50f1461076b578063b0772d0b1461079257600080fd5b806394543c151461071557806394b2294b14610728578063a84310811461073157600080fd5b80638e6470ea116101b85780638e6470ea1461065e5780638e8f294b1461067157806392136395146106c1578063929fe9a1146106d457600080fd5b80638129fc1c1461063157806387f76303146106395780638da5cb5b1461064d57600080fd5b8063520b6c74116102b85780636d0be88d11610256578063731f0c2b11610230578063731f0c2b146105e057806379ba5097146106035780637dc0d1d01461060b5780637eca7def1461061e57600080fd5b80636d0be88d146105a25780636d154ea5146105b5578063715018a6146105d857600080fd5b806356aaee2d1161029257806356aaee2d146105545780635cc4fdeb146105675780635ec88c791461057a57806361252fd11461058d57600080fd5b8063520b6c741461051b57806352d84d1e1461052e578063530e784f1461054157600080fd5b806324a3d622116103255780633d98a1e5116102ff5780633d98a1e5146104985780634a584432146104c45780634ada90af146104e45780634e79238f146104ed57600080fd5b806324a3d6221461045f57806324aaa220146104725780632bce219c1461048557600080fd5b806312348e961161036157806312348e96146103e757806313007d55146103fa578063186db48f1461043957806321af45691461044c57600080fd5b80627e3dd21461038757806302c3bcbb146103a45780630c2995e9146103d2575b600080fd5b61038f600181565b60405190151581526020015b60405180910390f35b6103c46103b23660046146ff565b60a46020526000908152604090205481565b60405190815260200161039b565b6103e56103e036600461471c565b6108d0565b005b6103e56103f536600461476d565b610b2b565b6104217f000000000000000000000000000000000000000000000000000000000000000081565b6040516001600160a01b03909116815260200161039b565b6103e56104473660046147d2565b610b79565b60a154610421906001600160a01b031681565b609d54610421906001600160a01b031681565b6103e561048036600461484c565b610ce9565b6103e56104933660046148d0565b610da4565b61038f6104a63660046146ff565b6001600160a01b03166000908152609c602052604090205460ff1690565b6103c46104d23660046146ff565b60a26020526000908152604090205481565b6103c460995481565b6105006104fb366004614958565b611158565b6040805193845260208401929092529082015260600161039b565b6103e561052936600461476d565b611189565b61042161053c36600461476d565b6111e7565b6103e561054f3660046146ff565b611211565b6103e56105623660046146ff565b61126c565b6103e561057536600461499e565b611590565b6105006105883660046146ff565b6117a4565b6105956117cf565b60405161039b91906149d3565b6103e56105b036600461471c565b611831565b61038f6105c33660046146ff565b609f6020526000908152604090205460ff1681565b6103e5611a40565b61038f6105ee3660046146ff565b609e6020526000908152604090205460ff1681565b6103e5611a54565b609754610421906001600160a01b031681565b6103e561062c366004614a20565b611ace565b6103e5611d73565b609d5461038f90600160a01b900460ff1681565b6033546001600160a01b0316610421565b6103e561066c366004614a99565b611e83565b6106a461067f3660046146ff565b609c6020526000908152604090208054600182015460029092015460ff909116919083565b60408051931515845260208401929092529082015260600161039b565b6103e56106cf3660046146ff565b612019565b61038f6106e2366004614ada565b6001600160a01b038082166000908152609c60209081526040808320938616835260039093019052205460ff1692915050565b61038f6107233660046146ff565b6123d3565b6103c4609a5481565b6103e561073f36600461476d565b61247c565b6105956107523660046146ff565b6124f8565b609d5461038f90600160a81b900460ff1681565b6104217f000000000000000000000000000000000000000000000000000000000000000081565b61059561256e565b6107ad6107a83660046146ff565b6125ce565b60405161039b9190614b13565b6103e56107c8366004614a99565b61284e565b6107e06107db366004614b8b565b612af8565b60405161039b9190614c50565b6108006107fb366004614a99565b612baf565b6040805192835260208301919091520161039b565b6103e56108233660046146ff565b612cda565b6103e56108363660046147d2565b612e86565b6103c460a35481565b610421610852366004614c88565b61303a565b6103e5610865366004614a99565b613072565b6065546001600160a01b0316610421565b61038f610889366004614cc3565b61349f565b6103c460985481565b6103e56108a5366004614cf8565b6134f6565b6103c46108b83660046146ff565b6138bf565b6103e56108cb3660046146ff565b613b34565b6108db846003613ba5565b6097546040516396e85ced60e01b81526001600160a01b038681166004830152909116906396e85ced90602401600060405180830381600087803b15801561092257600080fd5b505af1158015610936573d6000803e3d6000fd5b505050506001600160a01b0384166000908152609c602052604090205460ff1661098357604051635a9a1eb960e11b81526001600160a01b03851660048201526024015b60405180910390fd5b60a65460005b81811015610b235760006040518060200160405280886001600160a01b031663aa5af0fd6040518163ffffffff1660e01b8152600401602060405180830381865afa1580156109dc573d6000803e3d6000fd5b505050506040513d601f19601f82011682018060405250810190610a009190614d5c565b815250905060a68281548110610a1857610a18614d75565b600091825260209091200154604051632352607960e01b81526001600160a01b0389811660048301528351602483015290911690632352607990604401600060405180830381600087803b158015610a6f57600080fd5b505af1158015610a83573d6000803e3d6000fd5b5050505060a68281548110610a9a57610a9a614d75565b600091825260209091200154604051636a95ddef60e01b81526001600160a01b03898116600483015287811660248301528351604483015290911690636a95ddef90606401600060405180830381600087803b158015610af957600080fd5b505af1158015610b0d573d6000803e3d6000fd5b505050505080610b1c90614da1565b9050610989565b505050505050565b610b33613bd5565b609880549082905560408051828152602081018490527f3b9670cf975d26958e754b57098eaa2ac914d8d2a31b83257997b9f346110fd991015b60405180910390a15050565b610b9a60405180606001604052806028815260200161506660289139613c2f565b82818115801590610baa57508082145b610be65760405162461bcd60e51b815260206004820152600d60248201526c1a5b9d985b1a59081a5b9c1d5d609a1b604482015260640161097a565b60005b82811015610ce057848482818110610c0357610c03614d75565b9050602002013560a26000898985818110610c2057610c20614d75565b9050602002016020810190610c3591906146ff565b6001600160a01b03168152602081019190915260400160002055868682818110610c6157610c61614d75565b9050602002016020810190610c7691906146ff565b6001600160a01b03167f6f1951b2aad10f3fc81b86d91105b413a5b3f847a34bbc5ce1904201b14438f6868684818110610cb257610cb2614d75565b90506020020135604051610cc891815260200190565b60405180910390a2610cd981614da1565b9050610be9565b50505050505050565b610d0a6040518060600160405280602a81526020016150df602a9139613c2f565b838260005b82811015610d9a5760005b82811015610d8957610d79898984818110610d3757610d37614d75565b9050602002016020810190610d4c91906146ff565b888884818110610d5e57610d5e614d75565b9050602002016020810190610d739190614dba565b87613ce7565b610d8281614da1565b9050610d1a565b50610d9381614da1565b9050610d0f565b5050505050505050565b6000610db284613e02613e36565b905060a35481600001511115610de95760a3548151604051631a451c0f60e21b81526004810192909252602482015260440161097a565b6000610e0960405180602001604052806099548152508360400151613e85565b82519091508110610e3a578151604051632c1f8ef160e21b815261097a918391600401918252602082015260400190565b8260005b8181101561103357609c6000878784818110610e5c57610e5c614d75565b9050606002016020016020810190610e7491906146ff565b6001600160a01b0316815260208101919091526040016000205460ff16610ee457858582818110610ea757610ea7614d75565b9050606002016020016020810190610ebf91906146ff565b604051635a9a1eb960e11b81526001600160a01b03909116600482015260240161097a565b609c6000878784818110610efa57610efa614d75565b610f1092602060609092020190810191506146ff565b6001600160a01b0316815260208101919091526040016000205460ff16610f5957858582818110610f4357610f43614d75565b610ebf92602060609092020190810191506146ff565b36868683818110610f6c57610f6c614d75565b9050606002019050806020016020810190610f8791906146ff565b6001600160a01b0316638bbdb6db338a6040850135610fa960208701876146ff565b60405160e086901b6001600160e01b03191681526001600160a01b0394851660048201529284166024840152604483019190915290911660648201526001608482015260a401600060405180830381600087803b15801561100957600080fd5b505af115801561101d573d6000803e3d6000fd5b50505050508061102c90614da1565b9050610e3e565b506001600160a01b0386166000908152609b602090815260408083208054825181850281018501909352808352919290919083018282801561109e57602002820191906000526020600020905b81546001600160a01b03168152600190910190602001808311611080575b505083519394506000925050505b8181101561114d5760006110d98483815181106110cb576110cb614d75565b60200260200101518b613ea5565b50915050801561113c5760405162461bcd60e51b815260206004820152602860248201527f4e6f6e7a65726f20626f72726f772062616c616e6365206166746572206c69716044820152673ab4b230ba34b7b760c11b606482015260840161097a565b5061114681614da1565b90506110ac565b505050505050505050565b60008060008061116d88888888613f4c613f80565b608081015160a09091015160009a919950975095505050505050565b6111aa60405180606001604052806025815260200161508e60259139613c2f565b60a380549082905560408051828152602081018490527eb4f4f153ad7f1397564a8830fef092481e8cf6a2cd3ff04f96d10ba51200a59101610b6d565b60a081815481106111f757600080fd5b6000918252602090912001546001600160a01b0316905081565b611219613bd5565b609780546001600160a01b038381166001600160a01b03198316179092556040519116907fd52b2b9b7e9ee655fcb95d2e5b9e0c9f69e7ef2b8e9d2d0ea78402d576d22e2290610b6d9083908590614dd5565b611274613bd5565b6001600160a01b038116600090815260a7602052604090205460ff16156112ce5760405162461bcd60e51b815260206004820152600e60248201526d616c72656164792065786973747360901b604482015260640161097a565b60a65460005b8181101561144c57600060a682815481106112f1576112f1614d75565b600091825260209182902001546040805163f7c618c160e01b815290516001600160a01b039092169263f7c618c1926004808401938290030181865afa15801561133f573d6000803e3d6000fd5b505050506040513d601f19601f820116820180604052508101906113639190614def565b9050836001600160a01b031663f7c618c16040518163ffffffff1660e01b8152600401602060405180830381865afa1580156113a3573d6000803e3d6000fd5b505050506040513d601f19601f820116820180604052508101906113c79190614def565b6001600160a01b0316816001600160a01b03160361143b5760405162461bcd60e51b815260206004820152602b60248201527f6469737472696275746f7220616c72656164792065786973747320776974682060448201526a1d1a1a5cc81c995dd85c9960aa1b606482015260840161097a565b5061144581614da1565b90506112d4565b5060a6805460018082019092557f2da56674729343acc9933752c8c469a244252915242eb6d4c02d11ddd69164a10180546001600160a01b0319166001600160a01b038516908117909155600090815260a760205260408120805460ff191690921790915560a054905b8181101561155657836001600160a01b0316632a869a4d60a083815481106114e0576114e0614d75565b60009182526020909120015460405160e083901b6001600160e01b03191681526001600160a01b039091166004820152602401600060405180830381600087803b15801561152d57600080fd5b505af1158015611541573d6000803e3d6000fd5b505050508061154f90614da1565b90506114b6565b506040516001600160a01b038416907f058fa9577dc29aece41d41c2d3bff2ed4e8d5085762198e8f7faab35039555da90600090a2505050565b6115b16040518060600160405280602c81526020016150b3602c9139613c2f565b6001600160a01b0383166000908152609c60205260409020805460ff166115f657604051635a9a1eb960e11b81526001600160a01b038516600482015260240161097a565b670c7d713b49da000083111561161f576040516302f22cad60e61b815260040160405180910390fd5b8282111561163f5760405162f9474b60e61b815260040160405180910390fd5b82158015906116b9575060975460405163fc57d4df60e01b81526001600160a01b0386811660048301529091169063fc57d4df90602401602060405180830381865afa158015611693573d6000803e3d6000fd5b505050506040513d601f19601f820116820180604052508101906116b79190614d5c565b155b156116e15760405162e52a7d60e41b81526001600160a01b038516600482015260240161097a565b600181015483811461173f5760018201849055604080516001600160a01b0387168152602081018390529081018590527f70483e6592cd5182d45ac970e05bc62cdcc90e9d8ef2c2dbe686cf383bcd7fc59060600160405180910390a15b6002820154838114610b235760028301849055604080516001600160a01b0388168152602081018390529081018590527f9e92c7d5fef69846094f3ddcadcb9402c6ba469c461368714f1cabd8ef48b5919060600160405180910390a1505050505050565b6000806000806117b685613f4c613e36565b608081015160a090910151600097919650945092505050565b606060a680548060200260200160405190810160405280929190818152602001828054801561182757602002820191906000526020600020905b81546001600160a01b03168152600190910190602001808311611809575b5050505050905090565b61183c846006613ba5565b6097546040516396e85ced60e01b81526001600160a01b038681166004830152909116906396e85ced90602401600060405180830381600087803b15801561188357600080fd5b505af1158015611897573d6000803e3d6000fd5b505050506118a68484836141b5565b60a65460005b81811015610b235760a681815481106118c7576118c7614d75565b60009182526020909120015460405163051d1d4f60e11b81526001600160a01b03888116600483015290911690630a3a3a9e90602401600060405180830381600087803b15801561191757600080fd5b505af115801561192b573d6000803e3d6000fd5b5050505060a6818154811061194257611942614d75565b60009182526020909120015460405163db7954fd60e01b81526001600160a01b039091169063db7954fd9061197d9089908990600401614dd5565b600060405180830381600087803b15801561199757600080fd5b505af11580156119ab573d6000803e3d6000fd5b5050505060a681815481106119c2576119c2614d75565b60009182526020909120015460405163db7954fd60e01b81526001600160a01b039091169063db7954fd906119fd9089908890600401614dd5565b600060405180830381600087803b158015611a1757600080fd5b505af1158015611a2b573d6000803e3d6000fd5b5050505080611a3990614da1565b90506118ac565b611a48613bd5565b611a526000614267565b565b60655433906001600160a01b03168114611ac25760405162461bcd60e51b815260206004820152602960248201527f4f776e61626c6532537465703a2063616c6c6572206973206e6f7420746865206044820152683732bb9037bbb732b960b91b606482015260840161097a565b611acb81614267565b50565b611ad9866005613ba5565b6097546040516396e85ced60e01b81526001600160a01b038881166004830152909116906396e85ced90602401600060405180830381600087803b158015611b2057600080fd5b505af1158015611b34573d6000803e3d6000fd5b50506097546040516396e85ced60e01b81526001600160a01b03898116600483015290911692506396e85ced9150602401600060405180830381600087803b158015611b7f57600080fd5b505af1158015611b93573d6000803e3d6000fd5b505050506001600160a01b0386166000908152609c602052604090205460ff16611bdb57604051635a9a1eb960e11b81526001600160a01b038716600482015260240161097a565b6001600160a01b0385166000908152609c602052604090205460ff16611c1f57604051635a9a1eb960e11b81526001600160a01b038616600482015260240161097a565b6040516395dd919360e01b81526001600160a01b038481166004830152600091908816906395dd919390602401602060405180830381865afa158015611c69573d6000803e3d6000fd5b505050506040513d601f19601f82011682018060405250810190611c8d9190614d5c565b90508180611c9f5750611c9f876123d3565b15611ccb5780831115611cc55760405163e46c155960e01b815260040160405180910390fd5b50610b23565b6000611cd985613e02613e36565b905060a354816000015111611d0f5760a3548151604051636e61bb0560e11b81526004810192909252602482015260440161097a565b8060a00151600003611d345760405163095bf33360e01b815260040160405180910390fd5b6000611d50604051806020016040528060985481525084613e85565b90508085111561114d5760405163e46c155960e01b815260040160405180910390fd5b600054610100900460ff1615808015611d935750600054600160ff909116105b80611dad5750303b158015611dad575060005460ff166001145b611e105760405162461bcd60e51b815260206004820152602e60248201527f496e697469616c697a61626c653a20636f6e747261637420697320616c72656160448201526d191e481a5b9a5d1a585b1a5e995960921b606482015260840161097a565b6000805460ff191660011790558015611e33576000805461ff0019166101001790555b611e3b614280565b8015611acb576000805461ff0019169055604051600181527f7f26b83ff96e1f2b6a682f133852f6798a09c465da95921460cefb38474024989060200160405180910390a150565b611e8e836001613ba5565b6097546040516396e85ced60e01b81526001600160a01b038581166004830152909116906396e85ced90602401600060405180830381600087803b158015611ed557600080fd5b505af1158015611ee9573d6000803e3d6000fd5b50505050611ef88383836141b5565b60a65460005b818110156120125760a68181548110611f1957611f19614d75565b60009182526020909120015460405163051d1d4f60e11b81526001600160a01b03878116600483015290911690630a3a3a9e90602401600060405180830381600087803b158015611f6957600080fd5b505af1158015611f7d573d6000803e3d6000fd5b5050505060a68181548110611f9457611f94614d75565b60009182526020909120015460405163db7954fd60e01b81526001600160a01b039091169063db7954fd90611fcf9088908890600401614dd5565b600060405180830381600087803b158015611fe957600080fd5b505af1158015611ffd573d6000803e3d6000fd5b505050508061200b90614da1565b9050611efe565b5050505050565b6001600160a01b0381166000908152609b602090815260408083208054825181850281018501909352808352919290919083018282801561208357602002820191906000526020600020905b81546001600160a01b03168152600190910190602001808311612065575b5050835193945033925060009150505b828110156121b8578381815181106120ad576120ad614d75565b60200260200101516001600160a01b031663a6afed956040518163ffffffff1660e01b81526004016020604051808303816000875af11580156120f4573d6000803e3d6000fd5b505050506040513d601f19601f820116820180604052508101906121189190614d5c565b5060975484516001600160a01b03909116906396e85ced9086908490811061214257612142614d75565b60200260200101516040518263ffffffff1660e01b815260040161217591906001600160a01b0391909116815260200190565b600060405180830381600087803b15801561218f57600080fd5b505af11580156121a3573d6000803e3d6000fd5b50505050806121b190614da1565b9050612093565b5060006121c785613e02613e36565b905060a354816000015111156121fe5760a3548151604051631a451c0f60e21b81526004810192909252602482015260440161097a565b6040805160208082018352835182528251808201845284840151815283519182019093526099548152909160009161223691906142af565b9050600061224483836142f7565b90506122686040518060200160405280670de0b6b3a7640000815250825190511090565b156122935781518351604051631a451c0f60e21b81526004810192909252602482015260440161097a565b60005b8681101561114d5760008882815181106122b2576122b2614d75565b602002602001015190506000806122c9838d613ea5565b509150915060006122da8683613e85565b9050821561234d5760405163b2a02ff160e01b81526001600160a01b038b811660048301528e811660248301526044820185905285169063b2a02ff190606401600060405180830381600087803b15801561233457600080fd5b505af1158015612348573d6000803e3d6000fd5b505050505b81156123be5760405163227f37ff60e11b81526001600160a01b038b811660048301528e81166024830152604482018390528516906344fe6ffe90606401600060405180830381600087803b1580156123a557600080fd5b505af11580156123b9573d6000803e3d6000fd5b505050505b50505050806123cc90614da1565b9050612296565b6001600160a01b0381166000908152609c6020526040812060010154158015612402575061240282600261349f565b80156124765750816001600160a01b031663173b99046040518163ffffffff1660e01b8152600401602060405180830381865afa158015612447573d6000803e3d6000fd5b505050506040513d601f19601f8201168201806040525081019061246b9190614d5c565b670de0b6b3a7640000145b92915050565b6124ba6040518060400160405280602081526020017f7365744c69717569646174696f6e496e63656e746976652875696e7432353629815250613c2f565b609980549082905560408051828152602081018490527faeba5a6c40a8ac138134bff1aaa65debf25971188a58804bad717f82f0ec13169101610b6d565b6001600160a01b0381166000908152609b6020908152604080832080548251818502810185019093528083526060949383018282801561256157602002820191906000526020600020905b81546001600160a01b03168152600190910190602001808311612543575b5093979650505050505050565b606060a0805480602002602001604051908101604052809291908181526020018280548015611827576020028201919060005260206000209081546001600160a01b03168152600190910190602001808311611809575050505050905090565b60a6546060908067ffffffffffffffff8111156125ed576125ed614b75565b60405190808252806020026020018201604052801561264b57816020015b612638604051806060016040528060006001600160a01b0316815260200160008152602001600081525090565b81526020019060019003908161260b5790505b50915060005b8181101561284757600060a6828154811061266e5761266e614d75565b600091825260209182902001546040805163f7c618c160e01b815290516001600160a01b039092169263f7c618c1926004808401938290030181865afa1580156126bc573d6000803e3d6000fd5b505050506040513d601f19601f820116820180604052508101906126e09190614def565b90506040518060600160405280826001600160a01b0316815260200160a6848154811061270f5761270f614d75565b600091825260209091200154604051631d31307360e21b81526001600160a01b038981166004830152909116906374c4c1cc90602401602060405180830381865afa158015612762573d6000803e3d6000fd5b505050506040513d601f19601f820116820180604052508101906127869190614d5c565b815260200160a6848154811061279e5761279e614d75565b600091825260209091200154604051637c05a7c560e01b81526001600160a01b03898116600483015290911690637c05a7c590602401602060405180830381865afa1580156127f1573d6000803e3d6000fd5b505050506040513d601f19601f820116820180604052508101906128159190614d5c565b81525084838151811061282a5761282a614d75565b6020026020010181905250508061284090614da1565b9050612651565b5050919050565b612859836000613ba5565b6001600160a01b0383166000908152609c602052604090205460ff1661289d57604051635a9a1eb960e11b81526001600160a01b038416600482015260240161097a565b6001600160a01b038316600090815260a4602052604090205460001981146129de576000846001600160a01b03166318160ddd6040518163ffffffff1660e01b8152600401602060405180830381865afa1580156128ff573d6000803e3d6000fd5b505050506040513d601f19601f820116820180604052508101906129239190614d5c565b905060006040518060200160405280876001600160a01b031663182df0f56040518163ffffffff1660e01b8152600401602060405180830381865afa158015612970573d6000803e3d6000fd5b505050506040513d601f19601f820116820180604052508101906129949190614d5c565b9052905060006129a5828487614331565b9050838111156129da5760405163db33be3d60e01b81526001600160a01b03881660048201526024810185905260440161097a565b5050505b60a65460005b81811015610b235760a681815481106129ff576129ff614d75565b60009182526020909120015460405163051d1d4f60e11b81526001600160a01b03888116600483015290911690630a3a3a9e90602401600060405180830381600087803b158015612a4f57600080fd5b505af1158015612a63573d6000803e3d6000fd5b5050505060a68181548110612a7a57612a7a614d75565b60009182526020909120015460405163db7954fd60e01b81526001600160a01b039091169063db7954fd90612ab59089908990600401614dd5565b600060405180830381600087803b158015612acf57600080fd5b505af1158015612ae3573d6000803e3d6000fd5b5050505080612af190614da1565b90506129e4565b805160609060008167ffffffffffffffff811115612b1857612b18614b75565b604051908082528060200260200182016040528015612b41578160200160208202803683370190505b50905060005b82811015612ba7576000858281518110612b6357612b63614d75565b60200260200101519050612b77813361435b565b6000838381518110612b8b57612b8b614d75565b602090810291909101015250612ba081614da1565b9050612b47565b509392505050565b6000806000612bbd8661445b565b90506000612bca8661445b565b90506000866001600160a01b031663182df0f56040518163ffffffff1660e01b8152600401602060405180830381865afa158015612c0c573d6000803e3d6000fd5b505050506040513d601f19601f82011682018060405250810190612c309190614d5c565b90506000612c4a6040518060200160405280600081525090565b604080516020808201835260008083528351808301855290815283518083018552609954815284519283019094528882529192612c86916142af565b9250612cae6040518060200160405280888152506040518060200160405280888152506142af565b9150612cba83836142f7565b9050612cc6818b613e85565b60009d909c509a5050505050505050505050565b612d037f00000000000000000000000000000000000000000000000000000000000000006144fa565b6001600160a01b0381166000908152609c602052604090205460ff1615612d485760405163d005ce4760e01b81526001600160a01b038216600482015260240161097a565b806001600160a01b0316633d9ea3a16040518163ffffffff1660e01b8152600401602060405180830381865afa158015612d86573d6000803e3d6000fd5b505050506040513d601f19601f82011682018060405250810190612daa9190614e0c565b506001600160a01b0381166000908152609c60205260408120805460ff19166001908117825581018290556002810191909155612de682614527565b60a65460005b81811015612e805760a68181548110612e0757612e07614d75565b600091825260209091200154604051632a869a4d60e01b81526001600160a01b03868116600483015290911690632a869a4d90602401600060405180830381600087803b158015612e5757600080fd5b505af1158015612e6b573d6000803e3d6000fd5b5050505080612e7990614da1565b9050612dec565b50505050565b612ea760405180606001604052806028815260200161510960289139613c2f565b826000819003612ef55760405162461bcd60e51b8152602060048201526019602482015278696e76616c6964206e756d626572206f66206d61726b65747360381b604482015260640161097a565b808214612f405760405162461bcd60e51b8152602060048201526019602482015278696e76616c6964206e756d626572206f66206d61726b65747360381b604482015260640161097a565b60005b81811015610b2357838382818110612f5d57612f5d614d75565b9050602002013560a46000888885818110612f7a57612f7a614d75565b9050602002016020810190612f8f91906146ff565b6001600160a01b03168152602081019190915260400160002055858582818110612fbb57612fbb614d75565b9050602002016020810190612fd091906146ff565b6001600160a01b03167f9e0ad9cee10bdf36b7fbd38910c0bdff0f275ace679b45b922381c2723d676f885858481811061300c5761300c614d75565b9050602002013560405161302291815260200190565b60405180910390a261303381614da1565b9050612f43565b609b602052816000526040600020818154811061305657600080fd5b6000918252602090912001546001600160a01b03169150829050565b61307d836002613ba5565b6097546040516396e85ced60e01b81526001600160a01b038581166004830152909116906396e85ced90602401600060405180830381600087803b1580156130c457600080fd5b505af11580156130d8573d6000803e3d6000fd5b505050506001600160a01b0383166000908152609c602052604090205460ff1661312057604051635a9a1eb960e11b81526001600160a01b038416600482015260240161097a565b6001600160a01b038084166000908152609c60209081526040808320938616835260039093019052205460ff166131645761315a836144fa565b613164338361435b565b60975460405163fc57d4df60e01b81526001600160a01b0385811660048301529091169063fc57d4df90602401602060405180830381865afa1580156131ae573d6000803e3d6000fd5b505050506040513d601f19601f820116820180604052508101906131d29190614d5c565b6000036131fc5760405162e52a7d60e41b81526001600160a01b038416600482015260240161097a565b6001600160a01b038316600090815260a2602052604090205460001981146132c8576000846001600160a01b03166347bd37186040518163ffffffff1660e01b8152600401602060405180830381865afa15801561325e573d6000803e3d6000fd5b505050506040513d601f19601f820116820180604052508101906132829190614d5c565b905060006132908483614e29565b9050828111156132c557604051632e649eed60e01b81526001600160a01b03871660048201526024810184905260440161097a565b50505b60006132da8486600086613f4c613f80565b60a0810151909150156133005760405163bb55fd2760e01b815260040160405180910390fd5b60006040518060200160405280876001600160a01b031663aa5af0fd6040518163ffffffff1660e01b8152600401602060405180830381865afa15801561334b573d6000803e3d6000fd5b505050506040513d601f19601f8201168201806040525081019061336f9190614d5c565b905260a65490915060005b81811015610d9a5760a6818154811061339557613395614d75565b600091825260209091200154604051632352607960e01b81526001600160a01b038a811660048301528551602483015290911690632352607990604401600060405180830381600087803b1580156133ec57600080fd5b505af1158015613400573d6000803e3d6000fd5b5050505060a6818154811061341757613417614d75565b600091825260209091200154604051636a95ddef60e01b81526001600160a01b038a8116600483015289811660248301528551604483015290911690636a95ddef90606401600060405180830381600087803b15801561347657600080fd5b505af115801561348a573d6000803e3d6000fd5b505050508061349890614da1565b905061337a565b6001600160a01b038216600090815260a560205260408120818360088111156134ca576134ca614e41565b60088111156134db576134db614e41565b815260208101919091526040016000205460ff169392505050565b613501856004613ba5565b6001600160a01b0385166000908152609c602052604090205460ff1661354557604051635a9a1eb960e11b81526001600160a01b038616600482015260240161097a565b306001600160a01b038516036135ed57306001600160a01b0316856001600160a01b0316635fe3b5676040518163ffffffff1660e01b8152600401602060405180830381865afa15801561359d573d6000803e3d6000fd5b505050506040513d601f19601f820116820180604052508101906135c19190614def565b6001600160a01b0316146135e857604051630c73eb0560e01b815260040160405180910390fd5b613725565b6001600160a01b0384166000908152609c602052604090205460ff1661363157604051635a9a1eb960e11b81526001600160a01b038516600482015260240161097a565b836001600160a01b0316635fe3b5676040518163ffffffff1660e01b8152600401602060405180830381865afa15801561366f573d6000803e3d6000fd5b505050506040513d601f19601f820116820180604052508101906136939190614def565b6001600160a01b0316856001600160a01b0316635fe3b5676040518163ffffffff1660e01b8152600401602060405180830381865afa1580156136da573d6000803e3d6000fd5b505050506040513d601f19601f820116820180604052508101906136fe9190614def565b6001600160a01b03161461372557604051630c73eb0560e01b815260040160405180910390fd5b60a65460005b81811015610ce05760a6818154811061374657613746614d75565b60009182526020909120015460405163051d1d4f60e11b81526001600160a01b03898116600483015290911690630a3a3a9e90602401600060405180830381600087803b15801561379657600080fd5b505af11580156137aa573d6000803e3d6000fd5b5050505060a681815481106137c1576137c1614d75565b60009182526020909120015460405163db7954fd60e01b81526001600160a01b039091169063db7954fd906137fc908a908890600401614dd5565b600060405180830381600087803b15801561381657600080fd5b505af115801561382a573d6000803e3d6000fd5b5050505060a6818154811061384157613841614d75565b60009182526020909120015460405163db7954fd60e01b81526001600160a01b039091169063db7954fd9061387c908a908990600401614dd5565b600060405180830381600087803b15801561389657600080fd5b505af11580156138aa573d6000803e3d6000fd5b50505050806138b890614da1565b905061372b565b60006138cc826008613ba5565b816000806138da8333613ea5565b5091509150806000146139005760405163f8a5d66d60e01b815260040160405180910390fd5b61390b8533846141b5565b6001600160a01b0383166000908152609c60209081526040808320338452600381019092529091205460ff166139475750600095945050505050565b3360009081526003820160209081526040808320805460ff19169055609b8252808320805482518185028101850190935280835291929091908301828280156139b957602002820191906000526020600020905b81546001600160a01b0316815260019091019060200180831161399b575b5050835193945083925060009150505b82811015613a1b57876001600160a01b03168482815181106139ed576139ed614d75565b60200260200101516001600160a01b031603613a0b57809150613a1b565b613a1481614da1565b90506139c9565b50818110613a2b57613a2b614e57565b336000908152609b6020526040902080548190613a4a90600190614e6d565b81548110613a5a57613a5a614d75565b9060005260206000200160009054906101000a90046001600160a01b0316818381548110613a8a57613a8a614d75565b9060005260206000200160006101000a8154816001600160a01b0302191690836001600160a01b0316021790555080805480613ac857613ac8614e84565b600082815260209020810160001990810180546001600160a01b03191690550190556040517fe699a64c18b07ac5b7301aa273f36a2287239eb9501d81950672794afba29a0d90613b1c908a903390614dd5565b60405180910390a15060009998505050505050505050565b613b3c613bd5565b606580546001600160a01b0383166001600160a01b03199091168117909155613b6d6033546001600160a01b031690565b6001600160a01b03167f38d16b8cac22d99fc7c124b9cd0de2d3fa1faef420bfe791d8c362d765e2270060405160405180910390a350565b613baf828261349f565b15613bd15781816040516313b3ccb160e31b815260040161097a929190614ebc565b5050565b6033546001600160a01b03163314611a525760405162461bcd60e51b815260206004820181905260248201527f4f776e61626c653a2063616c6c6572206973206e6f7420746865206f776e6572604482015260640161097a565b6040516318c5e8ab60e01b81526000906001600160a01b037f000000000000000000000000000000000000000000000000000000000000000016906318c5e8ab90613c809033908690600401614f26565b602060405180830381865afa158015613c9d573d6000803e3d6000fd5b505050506040513d601f19601f82011682018060405250810190613cc19190614e0c565b905080613bd157333083604051634a3fa29360e01b815260040161097a93929190614f4a565b6001600160a01b0383166000908152609c602052604090205460ff16613d605760405162461bcd60e51b815260206004820152602860248201527f63616e6e6f742070617573652061206d61726b65742074686174206973206e6f6044820152671d081b1a5cdd195960c21b606482015260840161097a565b6001600160a01b038316600090815260a5602052604081208291846008811115613d8c57613d8c614e41565b6008811115613d9d57613d9d614e41565b815260200190815260200160002060006101000a81548160ff0219169083151502179055507f35007a986bcd36d2f73fc7f1b73762e12eadb4406dd163194950fd3b5a6a827d838383604051613df593929190614f76565b60405180910390a1505050565b6040805160208082018352600091829052825180820184526001600160a01b03949094168252609c90522060020154815290565b613e6f6040518060c001604052806000815260200160008152602001600081526020016000815260200160008152602001600081525090565b613e7e83600080600086613f80565b9392505050565b600080613e9284846145f4565b9050613e9d8161461c565b949350505050565b6040516361bfb47160e11b81526001600160a01b03828116600483015260009182918291829187169063c37f68e290602401608060405180830381865afa158015613ef4573d6000803e3d6000fd5b505050506040513d601f19601f82011682018060405250810190613f189190614fa3565b9196509450925090508015613f4457858560405163015e34d960e61b815260040161097a929190614dd5565b509250925092565b6040805160208082018352600091829052825180820184526001600160a01b03949094168252609c90522060010154815290565b613fb96040518060c001604052806000815260200160008152602001600081526020016000815260200160008152602001600081525090565b6001600160a01b0386166000908152609b602090815260408083208054825181850281018501909352808352919290919083018282801561402357602002820191906000526020600020905b81546001600160a01b03168152600190910190602001808311614005575b505083519394506000925050505b8181101561415757600083828151811061404d5761404d614d75565b602002602001015190506000806000614066848e613ea5565b925092509250600060405180602001604052806140828761445b565b815250905060006140a1604051806020016040528085815250836142af565b905060006140bb6140b5888e63ffffffff16565b836142af565b90506140cc81878d60200151614331565b60208c01528a516140e09083908890614331565b8b5260408b01516140f49084908790614331565b8b60400181815250508e6001600160a01b0316876001600160a01b03160361413f57614125818f8d60600151614331565b60608c018190526141399084908f90614331565b60608c01525b505050505050508061415090614da1565b9050614031565b5060008360600151846040015161416e9190614e29565b905080846020015111156141955760208401518190036080850152600060a08501526141a9565b600060808501526020840151810360a08501525b50505095945050505050565b6001600160a01b0383166000908152609c602052604090205460ff166141f957604051635a9a1eb960e11b81526001600160a01b038416600482015260240161097a565b6001600160a01b038084166000908152609c60209081526040808320938616835260039093019052205460ff1661422f57505050565b60006142418385846000613f4c613f80565b60a081015190915015612e805760405163bb55fd2760e01b815260040160405180910390fd5b606580546001600160a01b0319169055611acb81614634565b600054610100900460ff166142a75760405162461bcd60e51b815260040161097a90614fd9565b611a52614686565b6040805160208101909152600081526040518060200160405280670de0b6b3a76400006142e4866000015186600001516146b6565b6142ee9190615024565b90529392505050565b60408051602081019091526000815260405180602001604052806142ee61432a8660000151670de0b6b3a76400006146b6565b85516146c2565b60008061433e85856145f4565b905061435261434c8261461c565b846146ce565b95945050505050565b614366826007613ba5565b6001600160a01b0382166000908152609c60205260409020805460ff166143ab57604051635a9a1eb960e11b81526001600160a01b038416600482015260240161097a565b6001600160a01b038216600090815260038201602052604090205460ff16156143d357505050565b6001600160a01b03828116600090815260038301602090815260408083208054600160ff199091168117909155609b8352818420805491820181558452919092200180546001600160a01b03191692861692909217909155517f3ab23ab0d51cccc0c3085aec51f99228625aa1a922b3a8ca89a26b0f2027a1a590613df59085908590614dd5565b60975460405163fc57d4df60e01b81526001600160a01b038381166004830152600092839291169063fc57d4df90602401602060405180830381865afa1580156144a9573d6000803e3d6000fd5b505050506040513d601f19601f820116820180604052508101906144cd9190614d5c565b9050806000036124765760405162e52a7d60e41b81526001600160a01b038416600482015260240161097a565b336001600160a01b03821614611acb578033604051634e9383fb60e11b815260040161097a929190614dd5565b60a05460005b818110156145a057826001600160a01b031660a0828154811061455257614552614d75565b6000918252602090912001546001600160a01b0316036145905760405163d005ce4760e01b81526001600160a01b038416600482015260240161097a565b61459981614da1565b905061452d565b505060a080546001810182556000919091527f78fdc8d422c49ced035a9edf18d00d3c6a8d81df210f3e5e448e045e77b41e880180546001600160a01b0319166001600160a01b0392909216919091179055565b60408051602081019091526000815260405180602001604052806142ee8560000151856146b6565b805160009061247690670de0b6b3a764000090615024565b603380546001600160a01b038381166001600160a01b0319831681179093556040519116919082907f8be0079c531659141344cd1fd0a4f28419497f9722a3daafe3b4186f6b6457e090600090a35050565b600054610100900460ff166146ad5760405162461bcd60e51b815260040161097a90614fd9565b611a5233614267565b6000613e7e8284615046565b6000613e7e8284615024565b6000613e7e8284614e29565b6001600160a01b0381168114611acb57600080fd5b80356146fa816146da565b919050565b60006020828403121561471157600080fd5b8135613e7e816146da565b6000806000806080858703121561473257600080fd5b843561473d816146da565b9350602085013561474d816146da565b9250604085013561475d816146da565b9396929550929360600135925050565b60006020828403121561477f57600080fd5b5035919050565b60008083601f84011261479857600080fd5b50813567ffffffffffffffff8111156147b057600080fd5b6020830191508360208260051b85010111156147cb57600080fd5b9250929050565b600080600080604085870312156147e857600080fd5b843567ffffffffffffffff8082111561480057600080fd5b61480c88838901614786565b9096509450602087013591508082111561482557600080fd5b5061483287828801614786565b95989497509550505050565b8015158114611acb57600080fd5b60008060008060006060868803121561486457600080fd5b853567ffffffffffffffff8082111561487c57600080fd5b61488889838a01614786565b909750955060208801359150808211156148a157600080fd5b506148ae88828901614786565b90945092505060408601356148c28161483e565b809150509295509295909350565b6000806000604084860312156148e557600080fd5b83356148f0816146da565b9250602084013567ffffffffffffffff8082111561490d57600080fd5b818601915086601f83011261492157600080fd5b81358181111561493057600080fd5b87602060608302850101111561494557600080fd5b6020830194508093505050509250925092565b6000806000806080858703121561496e57600080fd5b8435614979816146da565b93506020850135614989816146da565b93969395505050506040820135916060013590565b6000806000606084860312156149b357600080fd5b83356149be816146da565b95602085013595506040909401359392505050565b6020808252825182820181905260009190848201906040850190845b81811015614a145783516001600160a01b0316835292840192918401916001016149ef565b50909695505050505050565b60008060008060008060c08789031215614a3957600080fd5b8635614a44816146da565b95506020870135614a54816146da565b94506040870135614a64816146da565b93506060870135614a74816146da565b92506080870135915060a0870135614a8b8161483e565b809150509295509295509295565b600080600060608486031215614aae57600080fd5b8335614ab9816146da565b92506020840135614ac9816146da565b929592945050506040919091013590565b60008060408385031215614aed57600080fd5b8235614af8816146da565b91506020830135614b08816146da565b809150509250929050565b602080825282518282018190526000919060409081850190868401855b82811015614b6857815180516001600160a01b0316855286810151878601528501518585015260609093019290850190600101614b30565b5091979650505050505050565b634e487b7160e01b600052604160045260246000fd5b60006020808385031215614b9e57600080fd5b823567ffffffffffffffff80821115614bb657600080fd5b818501915085601f830112614bca57600080fd5b813581811115614bdc57614bdc614b75565b8060051b604051601f19603f83011681018181108582111715614c0157614c01614b75565b604052918252848201925083810185019188831115614c1f57600080fd5b938501935b82851015614c4457614c35856146ef565b84529385019392850192614c24565b98975050505050505050565b6020808252825182820181905260009190848201906040850190845b81811015614a1457835183529284019291840191600101614c6c565b60008060408385031215614c9b57600080fd5b8235614ca6816146da565b946020939093013593505050565b8035600981106146fa57600080fd5b60008060408385031215614cd657600080fd5b8235614ce1816146da565b9150614cef60208401614cb4565b90509250929050565b600080600080600060a08688031215614d1057600080fd5b8535614d1b816146da565b94506020860135614d2b816146da565b93506040860135614d3b816146da565b92506060860135614d4b816146da565b949793965091946080013592915050565b600060208284031215614d6e57600080fd5b5051919050565b634e487b7160e01b600052603260045260246000fd5b634e487b7160e01b600052601160045260246000fd5b600060018201614db357614db3614d8b565b5060010190565b600060208284031215614dcc57600080fd5b613e7e82614cb4565b6001600160a01b0392831681529116602082015260400190565b600060208284031215614e0157600080fd5b8151613e7e816146da565b600060208284031215614e1e57600080fd5b8151613e7e8161483e565b60008219821115614e3c57614e3c614d8b565b500190565b634e487b7160e01b600052602160045260246000fd5b634e487b7160e01b600052600160045260246000fd5b600082821015614e7f57614e7f614d8b565b500390565b634e487b7160e01b600052603160045260246000fd5b60098110614eb857634e487b7160e01b600052602160045260246000fd5b9052565b6001600160a01b038316815260408101613e7e6020830184614e9a565b6000815180845260005b81811015614eff57602081850181015186830182015201614ee3565b81811115614f11576000602083870101525b50601f01601f19169290920160200192915050565b6001600160a01b0383168152604060208201819052600090613e9d90830184614ed9565b6001600160a01b0384811682528316602082015260606040820181905260009061435290830184614ed9565b6001600160a01b038416815260608101614f936020830185614e9a565b8215156040830152949350505050565b60008060008060808587031215614fb957600080fd5b505082516020840151604085015160609095015191969095509092509050565b6020808252602b908201527f496e697469616c697a61626c653a20636f6e7472616374206973206e6f74206960408201526a6e697469616c697a696e6760a81b606082015260800190565b60008261504157634e487b7160e01b600052601260045260246000fd5b500490565b600081600019048311821515161561506057615060614d8b565b50029056fe7365744d61726b6574426f72726f774361707328616464726573735b5d2c75696e743235365b5d297365744d696e4c6971756964617461626c65436f6c6c61746572616c2875696e7432353629736574436f6c6c61746572616c466163746f7228616464726573732c75696e743235362c75696e7432353629736574416374696f6e7350617573656428616464726573735b5d2c75696e743235365b5d2c626f6f6c297365744d61726b6574537570706c794361707328616464726573735b5d2c75696e743235365b5d29a2646970667358221220832433a8acc6fb436a1d2160190db3bb49445507739ac047359bad9fd9184e5364736f6c634300080d0033",
  "devdoc": {
    "author": "Compound",
    "kind": "dev",
    "methods": {
      "acceptOwnership()": {
        "details": "The new owner accepts the ownership transfer."
      },
      "actionPaused(address,uint8)": {
        "params": {
          "action": "Action to check",
          "market": "vToken address"
        },
        "returns": {
          "_0": "paused True if the action is paused otherwise false"
        }
      },
      "addRewardsDistributor(address)": {
        "custom:access": "Only Governance",
        "custom:event": "Emits NewRewardsDistributor with distributor address",
        "details": "Only callable by the admin",
        "params": {
          "_rewardsDistributor": "Address of the RewardDistributor contract to add"
        }
      },
      "checkMembership(address,address)": {
        "params": {
          "account": "The address of the account to check",
          "vToken": "The vToken to check"
        },
        "returns": {
          "_0": "True if the account is in the market specified, otherwise false."
        }
      },
      "constructor": {
        "custom:oz-upgrades-unsafe-allow": "constructor"
      },
      "enterMarkets(address[])": {
        "custom:access": "Not restricted",
        "custom:error": "ActionPaused error is thrown if entering any of the markets is pausedMarketNotListed error is thrown if any of the markets is not listed",
        "custom:event": "MarketEntered is emitted for each market on success",
        "params": {
          "vTokens": "The list of addresses of the vToken markets to be enabled"
        },
        "returns": {
          "_0": "errors An array of NO_ERROR for compatibility with Venus core tooling"
        }
      },
      "exitMarket(address)": {
        "custom:access": "Not restricted",
        "custom:error": "ActionPaused error is thrown if exiting the market is pausedNonzeroBorrowBalance error is thrown if the user has an outstanding borrow in this marketMarketNotListed error is thrown when the market is not listedInsufficientLiquidity error is thrown if exiting the market would lead to user's insolvencySnapshotError is thrown if some vToken fails to return the account's supply and borrowsPriceError is thrown if the oracle returns an incorrect price for some asset",
        "custom:event": "MarketExited is emitted on success",
        "details": "Sender must not have an outstanding borrow balance in the asset,  or be providing necessary collateral for an outstanding borrow.",
        "params": {
          "vTokenAddress": "The address of the asset to be removed"
        },
        "returns": {
          "_0": "error Always NO_ERROR for compatibility with Venus core tooling"
        }
      },
      "getAccountLiquidity(address)": {
        "details": "The interface of this function is intentionally kept compatible with Compound and Venus Core",
        "params": {
          "account": "The account get liquidity for"
        },
        "returns": {
          "error": "Always NO_ERROR for compatibility with Venus core tooling",
          "liquidity": "Account liquidity in excess of collateral requirements,",
          "shortfall": "Account shortfall below collateral requirements"
        }
      },
      "getAllMarkets()": {
        "details": "The automatic getter may be used to access an individual market.",
        "returns": {
          "_0": "markets The list of market addresses"
        }
      },
      "getAssetsIn(address)": {
        "params": {
          "account": "The address of the account to pull assets for"
        },
        "returns": {
          "_0": "A list with the assets the account has entered"
        }
      },
      "getHypotheticalAccountLiquidity(address,address,uint256,uint256)": {
        "details": "The interface of this function is intentionally kept compatible with Compound and Venus Core",
        "params": {
          "account": "The account to determine liquidity for",
          "borrowAmount": "The amount of underlying to hypothetically borrow",
          "redeemTokens": "The number of tokens to hypothetically redeem",
          "vTokenModify": "The market to hypothetically redeem/borrow in"
        },
        "returns": {
          "error": "Always NO_ERROR for compatibility with Venus core tooling",
          "liquidity": "Hypothetical account liquidity in excess of collateral requirements,",
          "shortfall": "Hypothetical account shortfall below collateral requirements"
        }
      },
      "getRewardDistributors()": {
        "returns": {
          "_0": "Array of RewardDistributor addresses"
        }
      },
      "getRewardsByMarket(address)": {
        "params": {
          "vToken": "The vToken to get the reward speeds for"
        },
        "returns": {
          "rewardSpeeds": "Array of total supply and borrow speeds and reward token for all reward distributors"
        }
      },
      "healAccount(address)": {
        "custom:access": "Not restricted",
        "custom:error": "CollateralExceedsThreshold error is thrown when the collateral is too big for healingSnapshotError is thrown if some vToken fails to return the account's supply and borrowsPriceError is thrown if the oracle returns an incorrect price for some asset",
        "params": {
          "user": "account to heal"
        }
      },
      "isDeprecated(address)": {
        "details": "All borrows in a deprecated vToken market can be immediately liquidated",
        "params": {
          "vToken": "The market to check if deprecated"
        },
        "returns": {
          "_0": "deprecated True if the given vToken market has been deprecated"
        }
      },
      "isMarketListed(address)": {
        "params": {
          "vToken": "vToken Address for the market to check"
        },
        "returns": {
          "_0": "listed True if listed otherwise false"
        }
      },
      "liquidateAccount(address,(address,address,uint256)[])": {
        "custom:access": "Not restricted",
        "custom:error": "CollateralExceedsThreshold error is thrown when the collateral is too big for a batch liquidationInsufficientCollateral error is thrown when there is not enough collateral to cover the debtSnapshotError is thrown if some vToken fails to return the account's supply and borrowsPriceError is thrown if the oracle returns an incorrect price for some asset",
        "params": {
          "borrower": "the borrower address",
          "orders": "an array of liquidation orders"
        }
      },
      "liquidateCalculateSeizeTokens(address,address,uint256)": {
        "custom:error": "PriceError if the oracle returns an invalid price",
        "details": "Used in liquidation (called in vToken.liquidateBorrowFresh)",
        "params": {
          "actualRepayAmount": "The amount of vTokenBorrowed underlying to convert into vTokenCollateral tokens",
          "vTokenBorrowed": "The address of the borrowed vToken",
          "vTokenCollateral": "The address of the collateral vToken"
        },
        "returns": {
          "error": "Always NO_ERROR for compatibility with Venus core tooling",
          "tokensToSeize": "Number of vTokenCollateral tokens to be seized in a liquidation"
        }
      },
      "owner()": {
        "details": "Returns the address of the current owner."
      },
      "pendingOwner()": {
        "details": "Returns the address of the pending owner."
      },
      "preBorrowHook(address,address,uint256)": {
        "custom:access": "Not restricted if vToken is enabled as collateral, otherwise only vToken",
        "custom:error": "ActionPaused error is thrown if borrowing is paused in this marketMarketNotListed error is thrown when the market is not listedInsufficientLiquidity error is thrown if there is not enough collateral to borrowBorrowCapExceeded is thrown if the borrow cap will be exceeded should this borrow succeedSnapshotError is thrown if some vToken fails to return the account's supply and borrowsPriceError is thrown if the oracle returns an incorrect price for some asset",
        "params": {
          "borrowAmount": "The amount of underlying the account would borrow",
          "borrower": "The account which would borrow the asset",
          "vToken": "The market to verify the borrow against"
        }
      },
      "preLiquidateHook(address,address,address,address,uint256,bool)": {
        "custom:access": "Not restricted if vToken is enabled as collateral, otherwise only vToken",
        "custom:error": "ActionPaused error is thrown if liquidations are paused in this marketMarketNotListed error is thrown if either collateral or borrowed token is not listedTooMuchRepay error is thrown if the liquidator is trying to repay more than allowed by close factorMinimalCollateralViolated is thrown if the users' total collateral is lower than the threshold for non-batch liquidationsInsufficientShortfall is thrown when trying to liquidate a healthy accountSnapshotError is thrown if some vToken fails to return the account's supply and borrowsPriceError is thrown if the oracle returns an incorrect price for some asset",
        "params": {
          "borrower": "The address of the borrower",
          "liquidator": "The address repaying the borrow and seizing the collateral",
          "repayAmount": "The amount of underlying being repaid",
          "skipLiquidityCheck": "Allows the borrow to be liquidated regardless of the account liquidity",
          "vTokenBorrowed": "Asset which was borrowed by the borrower",
          "vTokenCollateral": "Asset which was used as collateral and will be seized"
        }
      },
      "preMintHook(address,address,uint256)": {
        "custom:access": "Not restricted",
        "custom:error": "ActionPaused error is thrown if supplying to this market is pausedMarketNotListed error is thrown when the market is not listedSupplyCapExceeded error is thrown if the total supply exceeds the cap after minting",
        "params": {
          "mintAmount": "The amount of underlying being supplied to the market in exchange for tokens",
          "minter": "The account which would get the minted tokens",
          "vToken": "The market to verify the mint against"
        }
      },
      "preRedeemHook(address,address,uint256)": {
        "custom:access": "Not restricted",
        "custom:error": "ActionPaused error is thrown if withdrawals are paused in this marketMarketNotListed error is thrown when the market is not listedInsufficientLiquidity error is thrown if the withdrawal would lead to user's insolvencySnapshotError is thrown if some vToken fails to return the account's supply and borrowsPriceError is thrown if the oracle returns an incorrect price for some asset",
        "params": {
          "redeemTokens": "The number of vTokens to exchange for the underlying asset in the market",
          "redeemer": "The account which would redeem the tokens",
          "vToken": "The market to verify the redeem against"
        }
      },
      "preRepayHook(address,address,address,uint256)": {
        "custom:access": "Not restricted",
        "custom:error": "ActionPaused error is thrown if repayments are paused in this marketMarketNotListed error is thrown when the market is not listed",
        "params": {
          "borrower": "The account which would borrowed the asset",
          "payer": "The account which would repay the asset",
          "repayAmount": "The amount of the underlying asset the account would repay",
          "vToken": "The market to verify the repay against"
        }
      },
      "preSeizeHook(address,address,address,address,uint256)": {
        "custom:access": "Not restricted",
        "custom:error": "ActionPaused error is thrown if seizing this type of collateral is pausedMarketNotListed error is thrown if either collateral or borrowed token is not listedComptrollerMismatch error is when seizer contract or seized asset belong to different pools",
        "params": {
          "borrower": "The address of the borrower",
          "liquidator": "The address repaying the borrow and seizing the collateral",
          "seizeTokens": "The number of collateral tokens to seize",
          "seizerContract": "Contract that tries to seize the asset (either borrowed vToken or Comptroller)",
          "vTokenCollateral": "Asset which was used as collateral and will be seized"
        }
      },
      "preTransferHook(address,address,address,uint256)": {
        "custom:access": "Not restricted",
        "custom:error": "ActionPaused error is thrown if withdrawals are paused in this marketMarketNotListed error is thrown when the market is not listedInsufficientLiquidity error is thrown if the withdrawal would lead to user's insolvencySnapshotError is thrown if some vToken fails to return the account's supply and borrowsPriceError is thrown if the oracle returns an incorrect price for some asset",
        "params": {
          "dst": "The account which receives the tokens",
          "src": "The account which sources the tokens",
          "transferTokens": "The number of vTokens to transfer",
          "vToken": "The market to verify the transfer against"
        }
      },
      "renounceOwnership()": {
        "details": "Leaves the contract without owner. It will not be possible to call `onlyOwner` functions anymore. Can only be called by the current owner. NOTE: Renouncing ownership will leave the contract without an owner, thereby removing any functionality that is only available to the owner."
      },
      "setActionsPaused(address[],uint8[],bool)": {
        "custom:access": "Controlled by AccessControlManager",
        "details": "This function is restricted by the AccessControlManager",
        "params": {
          "actionsList": "List of action ids to pause/unpause",
          "marketsList": "Markets to pause/unpause the actions on",
          "paused": "The new paused state (true=paused, false=unpaused)"
        }
      },
      "setCloseFactor(uint256)": {
        "custom:access": "Only Governance",
        "custom:event": "Emits NewCloseFactor on success",
        "params": {
          "newCloseFactorMantissa": "New close factor, scaled by 1e18"
        }
      },
      "setCollateralFactor(address,uint256,uint256)": {
        "custom:access": "Controlled by AccessControlManager",
        "custom:error": "MarketNotListed error is thrown when the market is not listedInvalidCollateralFactor error is thrown when collateral factor is too highInvalidLiquidationThreshold error is thrown when liquidation threshold is higher than collateral factorPriceError is thrown when the oracle returns an invalid price for the asset",
        "custom:event": "Emits NewCollateralFactor when collateral factor is updated    and NewLiquidationThreshold when liquidation threshold is updated",
        "details": "This function is restricted by the AccessControlManager",
        "params": {
          "newCollateralFactorMantissa": "The new collateral factor, scaled by 1e18",
          "newLiquidationThresholdMantissa": "The new liquidation threshold, scaled by 1e18",
          "vToken": "The market to set the factor on"
        }
      },
      "setLiquidationIncentive(uint256)": {
        "custom:access": "Controlled by AccessControlManager",
        "custom:event": "Emits NewLiquidationIncentive on success",
        "details": "This function is restricted by the AccessControlManager",
        "params": {
          "newLiquidationIncentiveMantissa": "New liquidationIncentive scaled by 1e18"
        }
      },
      "setMarketBorrowCaps(address[],uint256[])": {
        "custom:access": "Controlled by AccessControlManager",
        "details": "This function is restricted by the AccessControlManagerA borrow cap of -1 corresponds to unlimited borrowing.",
        "params": {
          "newBorrowCaps": "The new borrow cap values in underlying to be set. A value of -1 corresponds to unlimited borrowing.",
          "vTokens": "The addresses of the markets (tokens) to change the borrow caps for"
        }
      },
      "setMarketSupplyCaps(address[],uint256[])": {
        "custom:access": "Controlled by AccessControlManager",
        "details": "This function is restricted by the AccessControlManagerA supply cap of -1 corresponds to unlimited supply.",
        "params": {
          "newSupplyCaps": "The new supply cap values in underlying to be set. A value of -1 corresponds to unlimited supply.",
          "vTokens": "The addresses of the markets (tokens) to change the supply caps for"
        }
      },
      "setMinLiquidatableCollateral(uint256)": {
        "custom:access": "Controlled by AccessControlManager",
        "details": "This function is restricted by the AccessControlManager",
        "params": {
          "newMinLiquidatableCollateral": "The new min liquidatable collateral (in USD)."
        }
      },
      "setPriceOracle(address)": {
        "custom:event": "Emits NewPriceOracle on success",
        "details": "Only callable by the admin",
        "params": {
          "newOracle": "Address of the new PriceOracle to set"
        }
      },
      "supportMarket(address)": {
        "custom:access": "Only PoolRegistry",
        "custom:error": "MarketAlreadyListed is thrown if the market is already listed in this pool",
        "details": "Only callable by the PoolRegistry",
        "params": {
          "vToken": "The address of the market (token) to list"
        }
      },
      "transferOwnership(address)": {
        "details": "Starts the ownership transfer of the contract to a new account. Replaces the pending transfer if there is one. Can only be called by the current owner."
      }
    },
    "stateVariables": {
      "accessControl": {
        "custom:oz-upgrades-unsafe-allow": "state-variable-immutable"
      },
      "poolRegistry": {
        "custom:oz-upgrades-unsafe-allow": "state-variable-immutable"
      }
    },
    "title": "Compound's Comptroller Contract",
    "version": 1
  },
  "userdoc": {
    "errors": {
      "ActionPaused(address,uint8)": [
        {
          "notice": "Thrown when trying to perform an action that is paused"
        }
      ],
      "BorrowCapExceeded(address,uint256)": [
        {
          "notice": "Thrown if the borrow cap is exceeded"
        }
      ],
      "ComptrollerMismatch()": [
        {
          "notice": "Thrown when a market has an unexpected comptroller"
        }
      ],
      "InsufficientLiquidity()": [
        {
          "notice": "Thrown when the account doesn't have enough liquidity to redeem or borrow"
        }
      ],
      "InsufficientShortfall()": [
        {
          "notice": "Thrown when trying to liquidate a healthy account"
        }
      ],
      "InvalidCollateralFactor()": [
        {
          "notice": "Thrown when collateral factor exceeds the upper bound"
        }
      ],
      "InvalidLiquidationThreshold()": [
        {
          "notice": "Thrown when liquidation threshold exceeds the collateral factor"
        }
      ],
      "MarketAlreadyListed(address)": [
        {
          "notice": "Thrown when trying to add a market that is already listed"
        }
      ],
      "MarketNotListed(address)": [
        {
          "notice": "Thrown when the market is not listed"
        }
      ],
      "MinimalCollateralViolated(uint256,uint256)": [
        {
          "notice": "Throwed during the liquidation if user's total collateral amount is lower than   a predefined threshold. In this case only batch liquidations (either liquidateAccount   or healAccount) are available."
        }
      ],
      "NonzeroBorrowBalance()": [
        {
          "notice": "Thrown if the user is trying to exit a market in which they have an outstanding debt"
        }
      ],
      "PriceError(address)": [
        {
          "notice": "Thrown when the oracle returns an invalid price for some asset"
        }
      ],
      "SnapshotError(address,address)": [
        {
          "notice": "Thrown if VToken unexpectedly returned a nonzero error code while trying to get account snapshot"
        }
      ],
      "SupplyCapExceeded(address,uint256)": [
        {
          "notice": "Thrown if the supply cap is exceeded"
        }
      ],
      "TooMuchRepay()": [
        {
          "notice": "Thrown when trying to repay more than allowed by close factor"
        }
      ],
      "Unauthorized(address,address,string)": [
        {
          "notice": "Thrown when the action is prohibited by AccessControlManager"
        }
      ],
      "UnexpectedSender(address,address)": [
        {
          "notice": "Thrown when the action is only available to specific sender, but the real sender was different"
        }
      ]
    },
    "events": {
      "ActionPausedMarket(address,uint8,bool)": {
        "notice": "Emitted when an action is paused on a market"
      },
      "MarketEntered(address,address)": {
        "notice": "Emitted when an account enters a market"
      },
      "MarketExited(address,address)": {
        "notice": "Emitted when an account exits a market"
      },
      "NewBorrowCap(address,uint256)": {
        "notice": "Emitted when borrow cap for a vToken is changed"
      },
      "NewBorrowCapGuardian(address,address)": {
        "notice": "Emitted when borrow cap guardian is changed"
      },
      "NewCloseFactor(uint256,uint256)": {
        "notice": "Emitted when close factor is changed by admin"
      },
      "NewCollateralFactor(address,uint256,uint256)": {
        "notice": "Emitted when a collateral factor is changed by admin"
      },
      "NewLiquidationIncentive(uint256,uint256)": {
        "notice": "Emitted when liquidation incentive is changed by admin"
      },
      "NewLiquidationThreshold(address,uint256,uint256)": {
        "notice": "Emitted when liquidation threshold is changed by admin"
      },
      "NewMinLiquidatableCollateral(uint256,uint256)": {
        "notice": "Emitted when the collateral threshold (in USD) for non-batch liquidations is changed"
      },
      "NewPriceOracle(address,address)": {
        "notice": "Emitted when price oracle is changed"
      },
      "NewRewardsDistributor(address)": {
        "notice": "Emitted when a rewards distributor is added"
      },
      "NewSupplyCap(address,uint256)": {
        "notice": "Emitted when supply cap for a vToken is changed"
      }
    },
    "kind": "user",
    "methods": {
      "accountAssets(address,uint256)": {
        "notice": "Per-account mapping of \"assets you are in\", capped by maxAssets"
      },
      "actionPaused(address,uint8)": {
        "notice": "Checks if a certain action is paused on a market"
      },
      "addRewardsDistributor(address)": {
        "notice": "Add a new RewardsDistributor and initialize it with all markets"
      },
      "allMarkets(uint256)": {
        "notice": "A list of all markets"
      },
      "checkMembership(address,address)": {
        "notice": "Returns whether the given account is entered in a given market"
      },
      "closeFactorMantissa()": {
        "notice": "Multiplier used to calculate the maximum repayAmount when liquidating a borrow"
      },
      "enterMarkets(address[])": {
        "notice": "Add assets to be included in account liquidity calculation; enabling them to be used as collateral"
      },
      "exitMarket(address)": {
        "notice": "Removes asset from sender's account liquidity calculation; disabeling them as collateral"
      },
      "getAccountLiquidity(address)": {
        "notice": "Determine the current account liquidity with respect to collateral requirements"
      },
      "getAllMarkets()": {
        "notice": "Return all of the markets"
      },
      "getAssetsIn(address)": {
        "notice": "Returns the assets an account has entered"
      },
      "getHypotheticalAccountLiquidity(address,address,uint256,uint256)": {
        "notice": "Determine what the account liquidity would be if the given amounts were redeemed/borrowed"
      },
      "getRewardDistributors()": {
        "notice": "Return all reward distributors for this pool"
      },
      "getRewardsByMarket(address)": {
        "notice": "Returns reward speed given a vToken"
      },
      "healAccount(address)": {
        "notice": "Seizes all the remaining collateral, makes msg.sender repay the existing   borrows, and treats the rest of the debt as bad debt (for each market).   The sender has to repay a certain percentage of the debt, computed as   collateral / (borrows * liquidationIncentive)."
      },
      "isComptroller()": {
        "notice": "Indicator that this is a Comptroller contract (for inspection)"
      },
      "isDeprecated(address)": {
        "notice": "Check if a vToken market has been deprecated"
      },
      "isMarketListed(address)": {
        "notice": "Check if a market is marked as listed (active)"
      },
      "liquidateAccount(address,(address,address,uint256)[])": {
        "notice": "Liquidates all borrows of the borrower. Callable only if the collateral is less than   a predefined threshold, and the account collateral can be seized to cover all borrows. If   the collateral is higher than the threshold, use regular liquidations. If the collateral is   below the threshold, and the account is insolvent, use healAccount."
      },
      "liquidateCalculateSeizeTokens(address,address,uint256)": {
        "notice": "Calculate number of tokens of collateral asset to seize given an underlying amount"
      },
      "liquidationIncentiveMantissa()": {
        "notice": "Multiplier representing the discount on collateral that a liquidator receives"
      },
      "markets(address)": {
        "notice": "Official mapping of vTokens -> Market metadata"
      },
      "maxAssets()": {
        "notice": "Max number of assets a single account can participate in (borrow or use as collateral)"
      },
      "minLiquidatableCollateral()": {
        "notice": "Minimal collateral required for regular (non-batch) liquidations"
      },
      "oracle()": {
        "notice": "Oracle which gives the price of any given asset"
      },
      "pauseGuardian()": {
        "notice": "The Pause Guardian can pause certain actions as a safety mechanism.  Actions which allow users to remove their own assets cannot be paused.  Liquidation / seizing / transfer can only be paused globally, not by market. NOTE: THIS VALUE IS NOT USED IN COMPTROLLER. HOWEVER IT IS ALREADY USED IN COMTROLLERG7 \t\t AND IS CAUSING COMPILATION ERROR IF REMOVED."
      },
      "preBorrowHook(address,address,uint256)": {
        "notice": "Checks if the account should be allowed to borrow the underlying asset of the given market"
      },
      "preLiquidateHook(address,address,address,address,uint256,bool)": {
        "notice": "Checks if the liquidation should be allowed to occur"
      },
      "preMintHook(address,address,uint256)": {
        "notice": "Checks if the account should be allowed to mint tokens in the given market"
      },
      "preRedeemHook(address,address,uint256)": {
        "notice": "Checks if the account should be allowed to redeem tokens in the given market"
      },
      "preRepayHook(address,address,address,uint256)": {
        "notice": "Checks if the account should be allowed to repay a borrow in the given market"
      },
      "preSeizeHook(address,address,address,address,uint256)": {
        "notice": "Checks if the seizing of assets should be allowed to occur"
      },
      "preTransferHook(address,address,address,uint256)": {
        "notice": "Checks if the account should be allowed to transfer tokens in the given market"
      },
      "setActionsPaused(address[],uint8[],bool)": {
        "notice": "Pause/unpause specified actions"
      },
      "setCloseFactor(uint256)": {
        "notice": "Sets the closeFactor to use when liquidating borrows"
      },
      "setCollateralFactor(address,uint256,uint256)": {
        "notice": "Sets the collateralFactor for a market"
      },
      "setLiquidationIncentive(uint256)": {
        "notice": "Sets liquidationIncentive"
      },
      "setMarketBorrowCaps(address[],uint256[])": {
        "notice": "Set the given borrow caps for the given vToken markets. Borrowing that brings total borrows to or above borrow cap will revert."
      },
      "setMarketSupplyCaps(address[],uint256[])": {
        "notice": "Set the given supply caps for the given vToken markets. Supply that brings total Supply to or above supply cap will revert."
      },
      "setMinLiquidatableCollateral(uint256)": {
        "notice": "Set the given collateral threshold for non-batch liquidations. Regular liquidations   will fail if the collateral amount is less than this threshold. Liquidators should use batch   operations like liquidateAccount or healAccount."
      },
      "setPriceOracle(address)": {
        "notice": "Sets a new PriceOracle for the Comptroller"
      },
      "supplyCaps(address)": {
        "notice": "Supply caps enforced by mintAllowed for each vToken address. Defaults to zero which corresponds to minting notAllowed"
      },
      "supportMarket(address)": {
        "notice": "Add the market to the markets mapping and set it as listed"
      }
    },
    "version": 1
  },
  "storageLayout": {
    "storage": [
      {
        "astId": 324,
        "contract": "contracts/Comptroller.sol:Comptroller",
        "label": "_initialized",
        "offset": 0,
        "slot": "0",
        "type": "t_uint8"
      },
      {
        "astId": 327,
        "contract": "contracts/Comptroller.sol:Comptroller",
        "label": "_initializing",
        "offset": 1,
        "slot": "0",
        "type": "t_bool"
      },
      {
        "astId": 1279,
        "contract": "contracts/Comptroller.sol:Comptroller",
        "label": "__gap",
        "offset": 0,
        "slot": "1",
        "type": "t_array(t_uint256)50_storage"
      },
      {
        "astId": 116,
        "contract": "contracts/Comptroller.sol:Comptroller",
        "label": "_owner",
        "offset": 0,
        "slot": "51",
        "type": "t_address"
      },
      {
        "astId": 236,
        "contract": "contracts/Comptroller.sol:Comptroller",
        "label": "__gap",
        "offset": 0,
        "slot": "52",
        "type": "t_array(t_uint256)49_storage"
      },
      {
        "astId": 25,
        "contract": "contracts/Comptroller.sol:Comptroller",
        "label": "_pendingOwner",
        "offset": 0,
        "slot": "101",
        "type": "t_address"
      },
      {
        "astId": 104,
        "contract": "contracts/Comptroller.sol:Comptroller",
        "label": "__gap",
        "offset": 0,
        "slot": "102",
        "type": "t_array(t_uint256)49_storage"
      },
      {
        "astId": 7528,
        "contract": "contracts/Comptroller.sol:Comptroller",
        "label": "oracle",
        "offset": 0,
        "slot": "151",
        "type": "t_contract(PriceOracle)3732"
      },
      {
        "astId": 7531,
        "contract": "contracts/Comptroller.sol:Comptroller",
        "label": "closeFactorMantissa",
        "offset": 0,
        "slot": "152",
        "type": "t_uint256"
      },
      {
        "astId": 7534,
        "contract": "contracts/Comptroller.sol:Comptroller",
        "label": "liquidationIncentiveMantissa",
        "offset": 0,
        "slot": "153",
        "type": "t_uint256"
      },
      {
        "astId": 7537,
        "contract": "contracts/Comptroller.sol:Comptroller",
        "label": "maxAssets",
        "offset": 0,
        "slot": "154",
        "type": "t_uint256"
      },
      {
        "astId": 7544,
        "contract": "contracts/Comptroller.sol:Comptroller",
        "label": "accountAssets",
        "offset": 0,
        "slot": "155",
        "type": "t_mapping(t_address,t_array(t_contract(VToken)17408)dyn_storage)"
      },
      {
        "astId": 7561,
        "contract": "contracts/Comptroller.sol:Comptroller",
        "label": "markets",
        "offset": 0,
        "slot": "156",
        "type": "t_mapping(t_address,t_struct(Market)7555_storage)"
      },
      {
        "astId": 7564,
        "contract": "contracts/Comptroller.sol:Comptroller",
        "label": "pauseGuardian",
        "offset": 0,
        "slot": "157",
        "type": "t_address"
      },
      {
        "astId": 7566,
        "contract": "contracts/Comptroller.sol:Comptroller",
        "label": "transferGuardianPaused",
        "offset": 20,
        "slot": "157",
        "type": "t_bool"
      },
      {
        "astId": 7568,
        "contract": "contracts/Comptroller.sol:Comptroller",
        "label": "seizeGuardianPaused",
        "offset": 21,
        "slot": "157",
        "type": "t_bool"
      },
      {
        "astId": 7572,
        "contract": "contracts/Comptroller.sol:Comptroller",
        "label": "mintGuardianPaused",
        "offset": 0,
        "slot": "158",
        "type": "t_mapping(t_address,t_bool)"
      },
      {
        "astId": 7576,
        "contract": "contracts/Comptroller.sol:Comptroller",
        "label": "borrowGuardianPaused",
        "offset": 0,
        "slot": "159",
        "type": "t_mapping(t_address,t_bool)"
      },
      {
        "astId": 7581,
        "contract": "contracts/Comptroller.sol:Comptroller",
        "label": "allMarkets",
        "offset": 0,
        "slot": "160",
        "type": "t_array(t_contract(VToken)17408)dyn_storage"
      },
      {
        "astId": 7583,
        "contract": "contracts/Comptroller.sol:Comptroller",
        "label": "borrowCapGuardian",
        "offset": 0,
        "slot": "161",
        "type": "t_address"
      },
      {
        "astId": 7587,
        "contract": "contracts/Comptroller.sol:Comptroller",
        "label": "borrowCaps",
        "offset": 0,
        "slot": "162",
        "type": "t_mapping(t_address,t_uint256)"
      },
      {
        "astId": 7590,
        "contract": "contracts/Comptroller.sol:Comptroller",
        "label": "minLiquidatableCollateral",
        "offset": 0,
        "slot": "163",
        "type": "t_uint256"
      },
      {
        "astId": 7595,
        "contract": "contracts/Comptroller.sol:Comptroller",
        "label": "supplyCaps",
        "offset": 0,
        "slot": "164",
        "type": "t_mapping(t_address,t_uint256)"
      },
      {
        "astId": 7613,
        "contract": "contracts/Comptroller.sol:Comptroller",
        "label": "_actionPaused",
        "offset": 0,
        "slot": "165",
        "type": "t_mapping(t_address,t_mapping(t_enum(Action)7605,t_bool))"
      },
      {
        "astId": 4093,
        "contract": "contracts/Comptroller.sol:Comptroller",
        "label": "rewardsDistributors",
        "offset": 0,
        "slot": "166",
        "type": "t_array(t_contract(RewardsDistributor)12489)dyn_storage"
      },
      {
        "astId": 4097,
        "contract": "contracts/Comptroller.sol:Comptroller",
        "label": "rewardsDistributorExists",
        "offset": 0,
        "slot": "167",
        "type": "t_mapping(t_address,t_bool)"
      }
    ],
    "types": {
      "t_address": {
        "encoding": "inplace",
        "label": "address",
        "numberOfBytes": "20"
      },
      "t_array(t_contract(RewardsDistributor)12489)dyn_storage": {
        "base": "t_contract(RewardsDistributor)12489",
        "encoding": "dynamic_array",
        "label": "contract RewardsDistributor[]",
        "numberOfBytes": "32"
      },
      "t_array(t_contract(VToken)17408)dyn_storage": {
        "base": "t_contract(VToken)17408",
        "encoding": "dynamic_array",
        "label": "contract VToken[]",
        "numberOfBytes": "32"
      },
      "t_array(t_uint256)49_storage": {
        "base": "t_uint256",
        "encoding": "inplace",
        "label": "uint256[49]",
        "numberOfBytes": "1568"
      },
      "t_array(t_uint256)50_storage": {
        "base": "t_uint256",
        "encoding": "inplace",
        "label": "uint256[50]",
        "numberOfBytes": "1600"
      },
      "t_bool": {
        "encoding": "inplace",
        "label": "bool",
        "numberOfBytes": "1"
      },
      "t_contract(PriceOracle)3732": {
        "encoding": "inplace",
        "label": "contract PriceOracle",
        "numberOfBytes": "20"
      },
      "t_contract(RewardsDistributor)12489": {
        "encoding": "inplace",
        "label": "contract RewardsDistributor",
        "numberOfBytes": "20"
      },
      "t_contract(VToken)17408": {
        "encoding": "inplace",
        "label": "contract VToken",
        "numberOfBytes": "20"
      },
      "t_enum(Action)7605": {
        "encoding": "inplace",
        "label": "enum ComptrollerV1Storage.Action",
        "numberOfBytes": "1"
      },
      "t_mapping(t_address,t_array(t_contract(VToken)17408)dyn_storage)": {
        "encoding": "mapping",
        "key": "t_address",
        "label": "mapping(address => contract VToken[])",
        "numberOfBytes": "32",
        "value": "t_array(t_contract(VToken)17408)dyn_storage"
      },
      "t_mapping(t_address,t_bool)": {
        "encoding": "mapping",
        "key": "t_address",
        "label": "mapping(address => bool)",
        "numberOfBytes": "32",
        "value": "t_bool"
      },
      "t_mapping(t_address,t_mapping(t_enum(Action)7605,t_bool))": {
        "encoding": "mapping",
        "key": "t_address",
        "label": "mapping(address => mapping(enum ComptrollerV1Storage.Action => bool))",
        "numberOfBytes": "32",
        "value": "t_mapping(t_enum(Action)7605,t_bool)"
      },
      "t_mapping(t_address,t_struct(Market)7555_storage)": {
        "encoding": "mapping",
        "key": "t_address",
        "label": "mapping(address => struct ComptrollerV1Storage.Market)",
        "numberOfBytes": "32",
        "value": "t_struct(Market)7555_storage"
      },
      "t_mapping(t_address,t_uint256)": {
        "encoding": "mapping",
        "key": "t_address",
        "label": "mapping(address => uint256)",
        "numberOfBytes": "32",
        "value": "t_uint256"
      },
      "t_mapping(t_enum(Action)7605,t_bool)": {
        "encoding": "mapping",
        "key": "t_enum(Action)7605",
        "label": "mapping(enum ComptrollerV1Storage.Action => bool)",
        "numberOfBytes": "32",
        "value": "t_bool"
      },
      "t_struct(Market)7555_storage": {
        "encoding": "inplace",
        "label": "struct ComptrollerV1Storage.Market",
        "members": [
          {
            "astId": 7546,
            "contract": "contracts/Comptroller.sol:Comptroller",
            "label": "isListed",
            "offset": 0,
            "slot": "0",
            "type": "t_bool"
          },
          {
            "astId": 7548,
            "contract": "contracts/Comptroller.sol:Comptroller",
            "label": "collateralFactorMantissa",
            "offset": 0,
            "slot": "1",
            "type": "t_uint256"
          },
          {
            "astId": 7550,
            "contract": "contracts/Comptroller.sol:Comptroller",
            "label": "liquidationThresholdMantissa",
            "offset": 0,
            "slot": "2",
            "type": "t_uint256"
          },
          {
            "astId": 7554,
            "contract": "contracts/Comptroller.sol:Comptroller",
            "label": "accountMembership",
            "offset": 0,
            "slot": "3",
            "type": "t_mapping(t_address,t_bool)"
          }
        ],
        "numberOfBytes": "128"
      },
      "t_uint256": {
        "encoding": "inplace",
        "label": "uint256",
        "numberOfBytes": "32"
      },
      "t_uint8": {
        "encoding": "inplace",
        "label": "uint8",
        "numberOfBytes": "1"
      }
    }
  }
}