{
  "address": "0xE60a1F3c5e04B3be9b177Da94bC1ae5dd0c994aD",
  "abi": [
    {
      "inputs": [
        {
          "internalType": "uint256",
          "name": "baseRatePerYear",
          "type": "uint256"
        },
        {
          "internalType": "uint256",
          "name": "multiplierPerYear",
          "type": "uint256"
        },
        {
          "internalType": "uint256",
          "name": "jumpMultiplierPerYear",
          "type": "uint256"
        },
        {
          "internalType": "uint256",
          "name": "kink_",
          "type": "uint256"
        },
        {
          "internalType": "contract IAccessControlManager",
          "name": "accessControlManager_",
          "type": "address"
        }
      ],
      "name": "deploy",
      "outputs": [
        {
          "internalType": "contract JumpRateModelV2",
          "name": "",
          "type": "address"
        }
      ],
      "stateMutability": "nonpayable",
      "type": "function"
    }
  ],
  "transactionHash": "0xe7cfdbffb668b0b1d4ff4a20e2b49fd4b1c40aa417ec54225789b8604c0ee2f6",
  "args": [],
  "numDeployments": 1,
  "solcInputHash": "8fc3d3439b822440c1deeb4764b9d48f",
  "bytecode": "0x608060405234801561001057600080fd5b50610a32806100206000396000f3fe608060405234801561001057600080fd5b506004361061002b5760003560e01c8063cccfa36114610030575b600080fd5b61004361003e3660046100d1565b61005f565b6040516001600160a01b03909116815260200160405180910390f35b6000808686868686604051610073906100c4565b9485526020850193909352604084019190915260608301526001600160a01b0316608082015260a001604051809103906000f0801580156100b8573d6000803e3d6000fd5b50979650505050505050565b6108d28061012b83390190565b600080600080600060a086880312156100e957600080fd5b8535945060208601359350604086013592506060860135915060808601356001600160a01b038116811461011c57600080fd5b80915050929550929590935056fe608060405234801561001057600080fd5b506040516108d23803806108d283398101604081905261002f9161016c565b84848484846001600160a01b03811661008e5760405162461bcd60e51b815260206004820152601360248201527f696e76616c69642041434d206164647265737300000000000000000000000000604482015260640160405180910390fd5b600080546001600160a01b0319166001600160a01b0383161790556100b5858585856100c4565b50505050505050505050610216565b6100d162a06680856101c7565b6002556100e18162a066806101e9565b6100f3670de0b6b3a7640000856101e9565b6100fd91906101c7565b60015561010d62a06680836101c7565b60038190556004829055600254600154604080519283526020830191909152810191909152606081018290527f6960ab234c7ef4b0c9197100f5393cfcde7c453ac910a27bd2000aa1dd4c068d9060800160405180910390a150505050565b600080600080600060a0868803121561018457600080fd5b855160208701516040880151606089015160808a0151939850919650945092506001600160a01b03811681146101b957600080fd5b809150509295509295909350565b6000826101e457634e487b7160e01b600052601260045260246000fd5b500490565b600081600019048311821515161561021157634e487b7160e01b600052601160045260246000fd5b500290565b6106ad806102256000396000f3fe608060405234801561001057600080fd5b50600436106100a95760003560e01c8063a385fb9611610071578063a385fb961461011d578063b4a0bdf314610127578063b816881614610152578063b9f9850a14610165578063f14039de1461016e578063fd2da3391461017757600080fd5b806315f24053146100ae5780632037f3e7146100d45780632191f92a146100e95780636e71e2d8146101015780638726bb8914610114575b600080fd5b6100c16100bc366004610497565b610180565b6040519081526020015b60405180910390f35b6100e76100e23660046104c3565b610197565b005b6100f1600181565b60405190151581526020016100cb565b6100c161010f366004610497565b61026e565b6100c160015481565b6100c162a0668081565b60005461013a906001600160a01b031681565b6040516001600160a01b0390911681526020016100cb565b6100c16101603660046104c3565b6102b1565b6100c160035481565b6100c160025481565b6100c160045481565b600061018d84848461032d565b90505b9392505050565b600060405180606001604052806034815260200161064460349139600080546040516318c5e8ab60e01b815292935090916001600160a01b03909116906318c5e8ab906101ea9033908690600401610542565b602060405180830381865afa158015610207573d6000803e3d6000fd5b505050506040513d601f19601f8201168201806040525081019061022b9190610566565b90508061025a57333083604051634a3fa29360e01b815260040161025193929190610588565b60405180910390fd5b610266868686866103ef565b505050505050565b60008260000361028057506000610190565b8161028b84866105d3565b61029591906105eb565b6102a7670de0b6b3a764000085610602565b61018d9190610621565b6000806102c683670de0b6b3a76400006105eb565b905060006102d587878761032d565b90506000670de0b6b3a76400006102ec8484610602565b6102f69190610621565b9050670de0b6b3a76400008161030d8a8a8a61026e565b6103179190610602565b6103219190610621565b98975050505050505050565b60008061033b85858561026e565b9050600454811161037c57600254670de0b6b3a7640000600154836103609190610602565b61036a9190610621565b61037491906105d3565b915050610190565b6000600254670de0b6b3a764000060015460045461039a9190610602565b6103a49190610621565b6103ae91906105d3565b905060006004548303905081670de0b6b3a7640000600354836103d19190610602565b6103db9190610621565b6103e591906105d3565b9350505050610190565b6103fc62a0668085610621565b60025561040c8162a06680610602565b61041e670de0b6b3a764000085610602565b6104289190610621565b60015561043862a0668083610621565b60038190556004829055600254600154604080519283526020830191909152810191909152606081018290527f6960ab234c7ef4b0c9197100f5393cfcde7c453ac910a27bd2000aa1dd4c068d9060800160405180910390a150505050565b6000806000606084860312156104ac57600080fd5b505081359360208301359350604090920135919050565b600080600080608085870312156104d957600080fd5b5050823594602084013594506040840135936060013592509050565b6000815180845260005b8181101561051b576020818501810151868301820152016104ff565b8181111561052d576000602083870101525b50601f01601f19169290920160200192915050565b6001600160a01b038316815260406020820181905260009061018d908301846104f5565b60006020828403121561057857600080fd5b8151801515811461019057600080fd5b6001600160a01b038481168252831660208201526060604082018190526000906105b4908301846104f5565b95945050505050565b634e487b7160e01b600052601160045260246000fd5b600082198211156105e6576105e66105bd565b500190565b6000828210156105fd576105fd6105bd565b500390565b600081600019048311821515161561061c5761061c6105bd565b500290565b60008261063e57634e487b7160e01b600052601260045260246000fd5b50049056fe7570646174654a756d70526174654d6f64656c2875696e743235362c75696e743235362c75696e743235362c75696e7432353629a26469706673582212206f6d5653ba5094fd533fb0398a80b334d611f3ef52f38bbd9d122d8cea58210864736f6c634300080d0033a26469706673582212203df9f5eebaaf89ad9f43263e618354d471c1b0aeb057218f8ae82a99d6c1888164736f6c634300080d0033",
  "devdoc": {
    "kind": "dev",
    "methods": {},
    "version": 1
  },
  "userdoc": {
    "kind": "user",
    "methods": {},
    "version": 1
  },
  "storageLayout": {
    "storage": [],
    "types": null
  }
}