{
  "address": "0x38Cb5a14F6405AB19820d3d976a51BA3CBD3813A",
  "abi": [
    {
      "inputs": [
        {
          "internalType": "address",
          "name": "_poolRegistry",
          "type": "address"
        },
        {
          "internalType": "address",
          "name": "_accessControl",
          "type": "address"
        }
      ],
      "stateMutability": "nonpayable",
      "type": "constructor"
    },
    {
      "inputs": [
        {
          "internalType": "uint256",
          "name": "expectedLessThanOrEqualTo",
          "type": "uint256"
        },
        {
          "internalType": "uint256",
          "name": "actual",
          "type": "uint256"
        }
      ],
      "name": "CollateralExceedsThreshold",
      "type": "error"
    },
    {
      "inputs": [
        {
          "internalType": "uint256",
          "name": "collateralToSeize",
          "type": "uint256"
        },
        {
          "internalType": "uint256",
          "name": "availableCollateral",
          "type": "uint256"
        }
      ],
      "name": "InsufficientCollateral",
      "type": "error"
    },
    {
      "inputs": [],
      "name": "InvalidCollateralFactor",
      "type": "error"
    },
    {
      "inputs": [],
      "name": "InvalidLiquidationThreshold",
      "type": "error"
    },
    {
      "inputs": [
        {
          "internalType": "enum ComptrollerErrorReporter.Error",
          "name": "err",
          "type": "uint8"
        }
      ],
      "name": "LiquidityComputationFailure",
      "type": "error"
    },
    {
      "inputs": [
        {
          "internalType": "address",
          "name": "market",
          "type": "address"
        }
      ],
      "name": "MarketNotListed",
      "type": "error"
    },
    {
      "inputs": [
        {
          "internalType": "uint256",
          "name": "expectedGreaterThan",
          "type": "uint256"
        },
        {
          "internalType": "uint256",
          "name": "actual",
          "type": "uint256"
        }
      ],
      "name": "MinimalCollateralViolated",
      "type": "error"
    },
    {
      "inputs": [],
      "name": "OnlyAdminAllowed",
      "type": "error"
    },
    {
      "inputs": [],
      "name": "PriceError",
      "type": "error"
    },
    {
      "inputs": [],
      "name": "SnapshotError",
      "type": "error"
    },
    {
      "inputs": [],
      "name": "Unauthorized",
      "type": "error"
    },
    {
      "anonymous": false,
      "inputs": [
        {
          "indexed": false,
          "internalType": "contract VToken",
          "name": "vToken",
          "type": "address"
        },
        {
          "indexed": false,
          "internalType": "enum ComptrollerV1Storage.Action",
          "name": "action",
          "type": "uint8"
        },
        {
          "indexed": false,
          "internalType": "bool",
          "name": "pauseState",
          "type": "bool"
        }
      ],
      "name": "ActionPausedMarket",
      "type": "event"
    },
    {
      "anonymous": false,
      "inputs": [
        {
          "indexed": false,
          "internalType": "uint256",
          "name": "error",
          "type": "uint256"
        },
        {
          "indexed": false,
          "internalType": "uint256",
          "name": "info",
          "type": "uint256"
        },
        {
          "indexed": false,
          "internalType": "uint256",
          "name": "detail",
          "type": "uint256"
        }
      ],
      "name": "Failure",
      "type": "event"
    },
    {
      "anonymous": false,
      "inputs": [
        {
          "indexed": false,
          "internalType": "uint8",
          "name": "version",
          "type": "uint8"
        }
      ],
      "name": "Initialized",
      "type": "event"
    },
    {
      "anonymous": false,
      "inputs": [
        {
          "indexed": false,
          "internalType": "contract VToken",
          "name": "vToken",
          "type": "address"
        },
        {
          "indexed": false,
          "internalType": "address",
          "name": "account",
          "type": "address"
        }
      ],
      "name": "MarketEntered",
      "type": "event"
    },
    {
      "anonymous": false,
      "inputs": [
        {
          "indexed": false,
          "internalType": "contract VToken",
          "name": "vToken",
          "type": "address"
        },
        {
          "indexed": false,
          "internalType": "address",
          "name": "account",
          "type": "address"
        }
      ],
      "name": "MarketExited",
      "type": "event"
    },
    {
      "anonymous": false,
      "inputs": [
        {
          "indexed": false,
          "internalType": "address",
          "name": "oldAdmin",
          "type": "address"
        },
        {
          "indexed": false,
          "internalType": "address",
          "name": "newAdmin",
          "type": "address"
        }
      ],
      "name": "NewAdmin",
      "type": "event"
    },
    {
      "anonymous": false,
      "inputs": [
        {
          "indexed": true,
          "internalType": "contract VToken",
          "name": "vToken",
          "type": "address"
        },
        {
          "indexed": false,
          "internalType": "uint256",
          "name": "newBorrowCap",
          "type": "uint256"
        }
      ],
      "name": "NewBorrowCap",
      "type": "event"
    },
    {
      "anonymous": false,
      "inputs": [
        {
          "indexed": false,
          "internalType": "address",
          "name": "oldBorrowCapGuardian",
          "type": "address"
        },
        {
          "indexed": false,
          "internalType": "address",
          "name": "newBorrowCapGuardian",
          "type": "address"
        }
      ],
      "name": "NewBorrowCapGuardian",
      "type": "event"
    },
    {
      "anonymous": false,
      "inputs": [
        {
          "indexed": false,
          "internalType": "uint256",
          "name": "oldCloseFactorMantissa",
          "type": "uint256"
        },
        {
          "indexed": false,
          "internalType": "uint256",
          "name": "newCloseFactorMantissa",
          "type": "uint256"
        }
      ],
      "name": "NewCloseFactor",
      "type": "event"
    },
    {
      "anonymous": false,
      "inputs": [
        {
          "indexed": false,
          "internalType": "contract VToken",
          "name": "vToken",
          "type": "address"
        },
        {
          "indexed": false,
          "internalType": "uint256",
          "name": "oldCollateralFactorMantissa",
          "type": "uint256"
        },
        {
          "indexed": false,
          "internalType": "uint256",
          "name": "newCollateralFactorMantissa",
          "type": "uint256"
        }
      ],
      "name": "NewCollateralFactor",
      "type": "event"
    },
    {
      "anonymous": false,
      "inputs": [
        {
          "indexed": false,
          "internalType": "uint256",
          "name": "oldLiquidationIncentiveMantissa",
          "type": "uint256"
        },
        {
          "indexed": false,
          "internalType": "uint256",
          "name": "newLiquidationIncentiveMantissa",
          "type": "uint256"
        }
      ],
      "name": "NewLiquidationIncentive",
      "type": "event"
    },
    {
      "anonymous": false,
      "inputs": [
        {
          "indexed": false,
          "internalType": "contract VToken",
          "name": "vToken",
          "type": "address"
        },
        {
          "indexed": false,
          "internalType": "uint256",
          "name": "oldLiquidationThresholdMantissa",
          "type": "uint256"
        },
        {
          "indexed": false,
          "internalType": "uint256",
          "name": "newLiquidationThresholdMantissa",
          "type": "uint256"
        }
      ],
      "name": "NewLiquidationThreshold",
      "type": "event"
    },
    {
      "anonymous": false,
      "inputs": [
        {
          "indexed": false,
          "internalType": "uint256",
          "name": "oldMinLiquidatableCollateral",
          "type": "uint256"
        },
        {
          "indexed": false,
          "internalType": "uint256",
          "name": "newMinLiquidatableCollateral",
          "type": "uint256"
        }
      ],
      "name": "NewMinLiquidatableCollateral",
      "type": "event"
    },
    {
      "anonymous": false,
      "inputs": [
        {
          "indexed": false,
          "internalType": "address",
          "name": "oldPendingAdmin",
          "type": "address"
        },
        {
          "indexed": false,
          "internalType": "address",
          "name": "newPendingAdmin",
          "type": "address"
        }
      ],
      "name": "NewPendingAdmin",
      "type": "event"
    },
    {
      "anonymous": false,
      "inputs": [
        {
          "indexed": false,
          "internalType": "contract PriceOracle",
          "name": "oldPriceOracle",
          "type": "address"
        },
        {
          "indexed": false,
          "internalType": "contract PriceOracle",
          "name": "newPriceOracle",
          "type": "address"
        }
      ],
      "name": "NewPriceOracle",
      "type": "event"
    },
    {
      "anonymous": false,
      "inputs": [
        {
          "indexed": true,
          "internalType": "contract VToken",
          "name": "vToken",
          "type": "address"
        },
        {
          "indexed": false,
          "internalType": "uint256",
          "name": "newSupplyCap",
          "type": "uint256"
        }
      ],
      "name": "NewSupplyCap",
      "type": "event"
    },
    {
      "inputs": [
        {
          "internalType": "contract VToken[]",
          "name": "marketsList",
          "type": "address[]"
        },
        {
          "internalType": "enum ComptrollerV1Storage.Action[]",
          "name": "actionsList",
          "type": "uint8[]"
        },
        {
          "internalType": "bool",
          "name": "paused",
          "type": "bool"
        }
      ],
      "name": "_setActionsPaused",
      "outputs": [],
      "stateMutability": "nonpayable",
      "type": "function"
    },
    {
      "inputs": [
        {
          "internalType": "uint256",
          "name": "newCloseFactorMantissa",
          "type": "uint256"
        }
      ],
      "name": "_setCloseFactor",
      "outputs": [
        {
          "internalType": "uint256",
          "name": "",
          "type": "uint256"
        }
      ],
      "stateMutability": "nonpayable",
      "type": "function"
    },
    {
      "inputs": [
        {
          "internalType": "contract VToken",
          "name": "vToken",
          "type": "address"
        },
        {
          "internalType": "uint256",
          "name": "newCollateralFactorMantissa",
          "type": "uint256"
        },
        {
          "internalType": "uint256",
          "name": "newLiquidationThresholdMantissa",
          "type": "uint256"
        }
      ],
      "name": "_setCollateralFactor",
      "outputs": [
        {
          "internalType": "uint256",
          "name": "",
          "type": "uint256"
        }
      ],
      "stateMutability": "nonpayable",
      "type": "function"
    },
    {
      "inputs": [
        {
          "internalType": "uint256",
          "name": "newLiquidationIncentiveMantissa",
          "type": "uint256"
        }
      ],
      "name": "_setLiquidationIncentive",
      "outputs": [
        {
          "internalType": "uint256",
          "name": "",
          "type": "uint256"
        }
      ],
      "stateMutability": "nonpayable",
      "type": "function"
    },
    {
      "inputs": [
        {
          "internalType": "contract VToken[]",
          "name": "vTokens",
          "type": "address[]"
        },
        {
          "internalType": "uint256[]",
          "name": "newBorrowCaps",
          "type": "uint256[]"
        }
      ],
      "name": "_setMarketBorrowCaps",
      "outputs": [],
      "stateMutability": "nonpayable",
      "type": "function"
    },
    {
      "inputs": [
        {
          "internalType": "contract VToken[]",
          "name": "vTokens",
          "type": "address[]"
        },
        {
          "internalType": "uint256[]",
          "name": "newSupplyCaps",
          "type": "uint256[]"
        }
      ],
      "name": "_setMarketSupplyCaps",
      "outputs": [],
      "stateMutability": "nonpayable",
      "type": "function"
    },
    {
      "inputs": [
        {
          "internalType": "uint256",
          "name": "newMinLiquidatableCollateral",
          "type": "uint256"
        }
      ],
      "name": "_setMinLiquidatableCollateral",
      "outputs": [],
      "stateMutability": "nonpayable",
      "type": "function"
    },
    {
      "inputs": [
        {
          "internalType": "contract PriceOracle",
          "name": "newOracle",
          "type": "address"
        }
      ],
      "name": "_setPriceOracle",
      "outputs": [
        {
          "internalType": "uint256",
          "name": "",
          "type": "uint256"
        }
      ],
      "stateMutability": "nonpayable",
      "type": "function"
    },
    {
      "inputs": [
        {
          "internalType": "contract VToken",
          "name": "vToken",
          "type": "address"
        }
      ],
      "name": "_supportMarket",
      "outputs": [
        {
          "internalType": "uint256",
          "name": "",
          "type": "uint256"
        }
      ],
      "stateMutability": "nonpayable",
      "type": "function"
    },
    {
      "inputs": [],
      "name": "acceptAdmin",
      "outputs": [],
      "stateMutability": "nonpayable",
      "type": "function"
    },
    {
      "inputs": [],
      "name": "accessControl",
      "outputs": [
        {
          "internalType": "address",
          "name": "",
          "type": "address"
        }
      ],
      "stateMutability": "view",
      "type": "function"
    },
    {
      "inputs": [
        {
          "internalType": "address",
          "name": "",
          "type": "address"
        },
        {
          "internalType": "uint256",
          "name": "",
          "type": "uint256"
        }
      ],
      "name": "accountAssets",
      "outputs": [
        {
          "internalType": "contract VToken",
          "name": "",
          "type": "address"
        }
      ],
      "stateMutability": "view",
      "type": "function"
    },
    {
      "inputs": [
        {
          "internalType": "address",
          "name": "market",
          "type": "address"
        },
        {
          "internalType": "enum ComptrollerV1Storage.Action",
          "name": "action",
          "type": "uint8"
        }
      ],
      "name": "actionPaused",
      "outputs": [
        {
          "internalType": "bool",
          "name": "",
          "type": "bool"
        }
      ],
      "stateMutability": "view",
      "type": "function"
    },
    {
      "inputs": [
        {
          "internalType": "contract RewardsDistributor",
          "name": "_rewardsDistributor",
          "type": "address"
        }
      ],
      "name": "addRewardsDistributor",
      "outputs": [
        {
          "internalType": "uint256",
          "name": "",
          "type": "uint256"
        }
      ],
      "stateMutability": "nonpayable",
      "type": "function"
    },
    {
      "inputs": [],
      "name": "admin",
      "outputs": [
        {
          "internalType": "address",
          "name": "",
          "type": "address"
        }
      ],
      "stateMutability": "view",
      "type": "function"
    },
    {
      "inputs": [
        {
          "internalType": "uint256",
          "name": "",
          "type": "uint256"
        }
      ],
      "name": "allMarkets",
      "outputs": [
        {
          "internalType": "contract VToken",
          "name": "",
          "type": "address"
        }
      ],
      "stateMutability": "view",
      "type": "function"
    },
    {
      "inputs": [
        {
          "internalType": "address",
          "name": "vToken",
          "type": "address"
        },
        {
          "internalType": "address",
          "name": "borrower",
          "type": "address"
        },
        {
          "internalType": "uint256",
          "name": "borrowAmount",
          "type": "uint256"
        }
      ],
      "name": "borrowAllowed",
      "outputs": [
        {
          "internalType": "uint256",
          "name": "",
          "type": "uint256"
        }
      ],
      "stateMutability": "nonpayable",
      "type": "function"
    },
    {
      "inputs": [],
      "name": "borrowCapGuardian",
      "outputs": [
        {
          "internalType": "address",
          "name": "",
          "type": "address"
        }
      ],
      "stateMutability": "view",
      "type": "function"
    },
    {
      "inputs": [
        {
          "internalType": "address",
          "name": "",
          "type": "address"
        }
      ],
      "name": "borrowCaps",
      "outputs": [
        {
          "internalType": "uint256",
          "name": "",
          "type": "uint256"
        }
      ],
      "stateMutability": "view",
      "type": "function"
    },
    {
      "inputs": [
        {
          "internalType": "address",
          "name": "",
          "type": "address"
        }
      ],
      "name": "borrowGuardianPaused",
      "outputs": [
        {
          "internalType": "bool",
          "name": "",
          "type": "bool"
        }
      ],
      "stateMutability": "view",
      "type": "function"
    },
    {
      "inputs": [
        {
          "internalType": "address",
          "name": "vToken",
          "type": "address"
        },
        {
          "internalType": "address",
          "name": "borrower",
          "type": "address"
        },
        {
          "internalType": "uint256",
          "name": "borrowAmount",
          "type": "uint256"
        }
      ],
      "name": "borrowVerify",
      "outputs": [],
      "stateMutability": "nonpayable",
      "type": "function"
    },
    {
      "inputs": [
        {
          "internalType": "address",
          "name": "account",
          "type": "address"
        },
        {
          "internalType": "contract VToken",
          "name": "vToken",
          "type": "address"
        }
      ],
      "name": "checkMembership",
      "outputs": [
        {
          "internalType": "bool",
          "name": "",
          "type": "bool"
        }
      ],
      "stateMutability": "view",
      "type": "function"
    },
    {
      "inputs": [],
      "name": "closeFactorMantissa",
      "outputs": [
        {
          "internalType": "uint256",
          "name": "",
          "type": "uint256"
        }
      ],
      "stateMutability": "view",
      "type": "function"
    },
    {
      "inputs": [
        {
          "internalType": "address[]",
          "name": "vTokens",
          "type": "address[]"
        }
      ],
      "name": "enterMarkets",
      "outputs": [
        {
          "internalType": "uint256[]",
          "name": "",
          "type": "uint256[]"
        }
      ],
      "stateMutability": "nonpayable",
      "type": "function"
    },
    {
      "inputs": [
        {
          "internalType": "address",
          "name": "vTokenAddress",
          "type": "address"
        }
      ],
      "name": "exitMarket",
      "outputs": [
        {
          "internalType": "uint256",
          "name": "",
          "type": "uint256"
        }
      ],
      "stateMutability": "nonpayable",
      "type": "function"
    },
    {
      "inputs": [
        {
          "internalType": "address",
          "name": "account",
          "type": "address"
        }
      ],
      "name": "getAccountLiquidity",
      "outputs": [
        {
          "internalType": "uint256",
          "name": "",
          "type": "uint256"
        },
        {
          "internalType": "uint256",
          "name": "",
          "type": "uint256"
        },
        {
          "internalType": "uint256",
          "name": "",
          "type": "uint256"
        }
      ],
      "stateMutability": "view",
      "type": "function"
    },
    {
      "inputs": [],
      "name": "getAllMarkets",
      "outputs": [
        {
          "internalType": "contract VToken[]",
          "name": "",
          "type": "address[]"
        }
      ],
      "stateMutability": "view",
      "type": "function"
    },
    {
      "inputs": [
        {
          "internalType": "address",
          "name": "account",
          "type": "address"
        }
      ],
      "name": "getAssetsIn",
      "outputs": [
        {
          "internalType": "contract VToken[]",
          "name": "",
          "type": "address[]"
        }
      ],
      "stateMutability": "view",
      "type": "function"
    },
    {
      "inputs": [],
      "name": "getBlockNumber",
      "outputs": [
        {
          "internalType": "uint256",
          "name": "",
          "type": "uint256"
        }
      ],
      "stateMutability": "view",
      "type": "function"
    },
    {
      "inputs": [
        {
          "internalType": "address",
          "name": "account",
          "type": "address"
        },
        {
          "internalType": "address",
          "name": "vTokenModify",
          "type": "address"
        },
        {
          "internalType": "uint256",
          "name": "redeemTokens",
          "type": "uint256"
        },
        {
          "internalType": "uint256",
          "name": "borrowAmount",
          "type": "uint256"
        }
      ],
      "name": "getHypotheticalAccountLiquidity",
      "outputs": [
        {
          "internalType": "uint256",
          "name": "",
          "type": "uint256"
        },
        {
          "internalType": "uint256",
          "name": "",
          "type": "uint256"
        },
        {
          "internalType": "uint256",
          "name": "",
          "type": "uint256"
        }
      ],
      "stateMutability": "view",
      "type": "function"
    },
    {
      "inputs": [
        {
          "internalType": "address",
          "name": "user",
          "type": "address"
        }
      ],
      "name": "healAccount",
      "outputs": [],
      "stateMutability": "nonpayable",
      "type": "function"
    },
    {
      "inputs": [],
      "name": "initialize",
      "outputs": [],
      "stateMutability": "nonpayable",
      "type": "function"
    },
    {
      "inputs": [],
      "name": "isComptroller",
      "outputs": [
        {
          "internalType": "bool",
          "name": "",
          "type": "bool"
        }
      ],
      "stateMutability": "view",
      "type": "function"
    },
    {
      "inputs": [
        {
          "internalType": "contract VToken",
          "name": "vToken",
          "type": "address"
        }
      ],
      "name": "isDeprecated",
      "outputs": [
        {
          "internalType": "bool",
          "name": "",
          "type": "bool"
        }
      ],
      "stateMutability": "view",
      "type": "function"
    },
    {
      "inputs": [
        {
          "internalType": "contract VToken",
          "name": "vToken",
          "type": "address"
        }
      ],
      "name": "isMarketListed",
      "outputs": [
        {
          "internalType": "bool",
          "name": "",
          "type": "bool"
        }
      ],
      "stateMutability": "view",
      "type": "function"
    },
    {
      "inputs": [
        {
          "internalType": "address",
          "name": "borrower",
          "type": "address"
        },
        {
          "components": [
            {
              "internalType": "contract VToken",
              "name": "vTokenCollateral",
              "type": "address"
            },
            {
              "internalType": "contract VToken",
              "name": "vTokenBorrowed",
              "type": "address"
            },
            {
              "internalType": "uint256",
              "name": "repayAmount",
              "type": "uint256"
            }
          ],
          "internalType": "struct Comptroller.LiquidationOrder[]",
          "name": "orders",
          "type": "tuple[]"
        }
      ],
      "name": "liquidateAccount",
      "outputs": [],
      "stateMutability": "nonpayable",
      "type": "function"
    },
    {
      "inputs": [
        {
          "internalType": "address",
          "name": "vTokenBorrowed",
          "type": "address"
        },
        {
          "internalType": "address",
          "name": "vTokenCollateral",
          "type": "address"
        },
        {
          "internalType": "address",
          "name": "liquidator",
          "type": "address"
        },
        {
          "internalType": "address",
          "name": "borrower",
          "type": "address"
        },
        {
          "internalType": "uint256",
          "name": "repayAmount",
          "type": "uint256"
        },
        {
          "internalType": "bool",
          "name": "skipLiquidityCheck",
          "type": "bool"
        }
      ],
      "name": "liquidateBorrowAllowed",
      "outputs": [
        {
          "internalType": "uint256",
          "name": "",
          "type": "uint256"
        }
      ],
      "stateMutability": "nonpayable",
      "type": "function"
    },
    {
      "inputs": [
        {
          "internalType": "address",
          "name": "vTokenBorrowed",
          "type": "address"
        },
        {
          "internalType": "address",
          "name": "vTokenCollateral",
          "type": "address"
        },
        {
          "internalType": "address",
          "name": "liquidator",
          "type": "address"
        },
        {
          "internalType": "address",
          "name": "borrower",
          "type": "address"
        },
        {
          "internalType": "uint256",
          "name": "actualRepayAmount",
          "type": "uint256"
        },
        {
          "internalType": "uint256",
          "name": "seizeTokens",
          "type": "uint256"
        }
      ],
      "name": "liquidateBorrowVerify",
      "outputs": [],
      "stateMutability": "nonpayable",
      "type": "function"
    },
    {
      "inputs": [
        {
          "internalType": "address",
          "name": "vTokenBorrowed",
          "type": "address"
        },
        {
          "internalType": "address",
          "name": "vTokenCollateral",
          "type": "address"
        },
        {
          "internalType": "uint256",
          "name": "actualRepayAmount",
          "type": "uint256"
        }
      ],
      "name": "liquidateCalculateSeizeTokens",
      "outputs": [
        {
          "internalType": "uint256",
          "name": "",
          "type": "uint256"
        },
        {
          "internalType": "uint256",
          "name": "",
          "type": "uint256"
        }
      ],
      "stateMutability": "view",
      "type": "function"
    },
    {
      "inputs": [],
      "name": "liquidationIncentiveMantissa",
      "outputs": [
        {
          "internalType": "uint256",
          "name": "",
          "type": "uint256"
        }
      ],
      "stateMutability": "view",
      "type": "function"
    },
    {
      "inputs": [
        {
          "internalType": "address",
          "name": "",
          "type": "address"
        }
      ],
      "name": "markets",
      "outputs": [
        {
          "internalType": "bool",
          "name": "isListed",
          "type": "bool"
        },
        {
          "internalType": "uint256",
          "name": "collateralFactorMantissa",
          "type": "uint256"
        },
        {
          "internalType": "uint256",
          "name": "liquidationThresholdMantissa",
          "type": "uint256"
        }
      ],
      "stateMutability": "view",
      "type": "function"
    },
    {
      "inputs": [],
      "name": "maxAssets",
      "outputs": [
        {
          "internalType": "uint256",
          "name": "",
          "type": "uint256"
        }
      ],
      "stateMutability": "view",
      "type": "function"
    },
    {
      "inputs": [],
      "name": "minLiquidatableCollateral",
      "outputs": [
        {
          "internalType": "uint256",
          "name": "",
          "type": "uint256"
        }
      ],
      "stateMutability": "view",
      "type": "function"
    },
    {
      "inputs": [
        {
          "internalType": "address",
          "name": "vToken",
          "type": "address"
        },
        {
          "internalType": "address",
          "name": "minter",
          "type": "address"
        },
        {
          "internalType": "uint256",
          "name": "mintAmount",
          "type": "uint256"
        }
      ],
      "name": "mintAllowed",
      "outputs": [
        {
          "internalType": "uint256",
          "name": "",
          "type": "uint256"
        }
      ],
      "stateMutability": "nonpayable",
      "type": "function"
    },
    {
      "inputs": [
        {
          "internalType": "address",
          "name": "",
          "type": "address"
        }
      ],
      "name": "mintGuardianPaused",
      "outputs": [
        {
          "internalType": "bool",
          "name": "",
          "type": "bool"
        }
      ],
      "stateMutability": "view",
      "type": "function"
    },
    {
      "inputs": [
        {
          "internalType": "address",
          "name": "vToken",
          "type": "address"
        },
        {
          "internalType": "address",
          "name": "minter",
          "type": "address"
        },
        {
          "internalType": "uint256",
          "name": "actualMintAmount",
          "type": "uint256"
        },
        {
          "internalType": "uint256",
          "name": "mintTokens",
          "type": "uint256"
        }
      ],
      "name": "mintVerify",
      "outputs": [],
      "stateMutability": "nonpayable",
      "type": "function"
    },
    {
      "inputs": [],
      "name": "oracle",
      "outputs": [
        {
          "internalType": "contract PriceOracle",
          "name": "",
          "type": "address"
        }
      ],
      "stateMutability": "view",
      "type": "function"
    },
    {
      "inputs": [],
      "name": "pauseGuardian",
      "outputs": [
        {
          "internalType": "address",
          "name": "",
          "type": "address"
        }
      ],
      "stateMutability": "view",
      "type": "function"
    },
    {
      "inputs": [],
      "name": "pendingAdmin",
      "outputs": [
        {
          "internalType": "address",
          "name": "",
          "type": "address"
        }
      ],
      "stateMutability": "view",
      "type": "function"
    },
    {
      "inputs": [],
      "name": "poolRegistry",
      "outputs": [
        {
          "internalType": "address",
          "name": "",
          "type": "address"
        }
      ],
      "stateMutability": "view",
      "type": "function"
    },
    {
      "inputs": [
        {
          "internalType": "address",
          "name": "vToken",
          "type": "address"
        },
        {
          "internalType": "address",
          "name": "redeemer",
          "type": "address"
        },
        {
          "internalType": "uint256",
          "name": "redeemTokens",
          "type": "uint256"
        }
      ],
      "name": "redeemAllowed",
      "outputs": [
        {
          "internalType": "uint256",
          "name": "",
          "type": "uint256"
        }
      ],
      "stateMutability": "nonpayable",
      "type": "function"
    },
    {
      "inputs": [
        {
          "internalType": "address",
          "name": "vToken",
          "type": "address"
        },
        {
          "internalType": "address",
          "name": "redeemer",
          "type": "address"
        },
        {
          "internalType": "uint256",
          "name": "redeemAmount",
          "type": "uint256"
        },
        {
          "internalType": "uint256",
          "name": "redeemTokens",
          "type": "uint256"
        }
      ],
      "name": "redeemVerify",
      "outputs": [],
      "stateMutability": "nonpayable",
      "type": "function"
    },
    {
      "inputs": [
        {
          "internalType": "address",
          "name": "vToken",
          "type": "address"
        },
        {
          "internalType": "address",
          "name": "payer",
          "type": "address"
        },
        {
          "internalType": "address",
          "name": "borrower",
          "type": "address"
        },
        {
          "internalType": "uint256",
          "name": "repayAmount",
          "type": "uint256"
        }
      ],
      "name": "repayBorrowAllowed",
      "outputs": [
        {
          "internalType": "uint256",
          "name": "",
          "type": "uint256"
        }
      ],
      "stateMutability": "nonpayable",
      "type": "function"
    },
    {
      "inputs": [
        {
          "internalType": "address",
          "name": "vToken",
          "type": "address"
        },
        {
          "internalType": "address",
          "name": "payer",
          "type": "address"
        },
        {
          "internalType": "address",
          "name": "borrower",
          "type": "address"
        },
        {
          "internalType": "uint256",
          "name": "actualRepayAmount",
          "type": "uint256"
        },
        {
          "internalType": "uint256",
          "name": "borrowerIndex",
          "type": "uint256"
        }
      ],
      "name": "repayBorrowVerify",
      "outputs": [],
      "stateMutability": "nonpayable",
      "type": "function"
    },
    {
      "inputs": [
        {
          "internalType": "address",
          "name": "vTokenCollateral",
          "type": "address"
        },
        {
          "internalType": "address",
          "name": "seizerContract",
          "type": "address"
        },
        {
          "internalType": "address",
          "name": "liquidator",
          "type": "address"
        },
        {
          "internalType": "address",
          "name": "borrower",
          "type": "address"
        },
        {
          "internalType": "uint256",
          "name": "seizeTokens",
          "type": "uint256"
        }
      ],
      "name": "seizeAllowed",
      "outputs": [
        {
          "internalType": "uint256",
          "name": "",
          "type": "uint256"
        }
      ],
      "stateMutability": "nonpayable",
      "type": "function"
    },
    {
      "inputs": [],
      "name": "seizeGuardianPaused",
      "outputs": [
        {
          "internalType": "bool",
          "name": "",
          "type": "bool"
        }
      ],
      "stateMutability": "view",
      "type": "function"
    },
    {
      "inputs": [
        {
          "internalType": "address",
          "name": "vTokenCollateral",
          "type": "address"
        },
        {
          "internalType": "address",
          "name": "vTokenBorrowed",
          "type": "address"
        },
        {
          "internalType": "address",
          "name": "liquidator",
          "type": "address"
        },
        {
          "internalType": "address",
          "name": "borrower",
          "type": "address"
        },
        {
          "internalType": "uint256",
          "name": "seizeTokens",
          "type": "uint256"
        }
      ],
      "name": "seizeVerify",
      "outputs": [],
      "stateMutability": "nonpayable",
      "type": "function"
    },
    {
      "inputs": [
        {
          "internalType": "address",
          "name": "newPendingAdmin_",
          "type": "address"
        }
      ],
      "name": "setPendingAdmin",
      "outputs": [],
      "stateMutability": "nonpayable",
      "type": "function"
    },
    {
      "inputs": [
        {
          "internalType": "address",
          "name": "",
          "type": "address"
        }
      ],
      "name": "supplyCaps",
      "outputs": [
        {
          "internalType": "uint256",
          "name": "",
          "type": "uint256"
        }
      ],
      "stateMutability": "view",
      "type": "function"
    },
    {
      "inputs": [
        {
          "internalType": "address",
          "name": "vToken",
          "type": "address"
        },
        {
          "internalType": "address",
          "name": "src",
          "type": "address"
        },
        {
          "internalType": "address",
          "name": "dst",
          "type": "address"
        },
        {
          "internalType": "uint256",
          "name": "transferTokens",
          "type": "uint256"
        }
      ],
      "name": "transferAllowed",
      "outputs": [
        {
          "internalType": "uint256",
          "name": "",
          "type": "uint256"
        }
      ],
      "stateMutability": "nonpayable",
      "type": "function"
    },
    {
      "inputs": [],
      "name": "transferGuardianPaused",
      "outputs": [
        {
          "internalType": "bool",
          "name": "",
          "type": "bool"
        }
      ],
      "stateMutability": "view",
      "type": "function"
    },
    {
      "inputs": [
        {
          "internalType": "address",
          "name": "vToken",
          "type": "address"
        },
        {
          "internalType": "address",
          "name": "src",
          "type": "address"
        },
        {
          "internalType": "address",
          "name": "dst",
          "type": "address"
        },
        {
          "internalType": "uint256",
          "name": "transferTokens",
          "type": "uint256"
        }
      ],
      "name": "transferVerify",
      "outputs": [],
      "stateMutability": "nonpayable",
      "type": "function"
    }
  ],
  "transactionHash": "0x8b878bca228fb7f55e3df48e8a49bf6e158c8dd2826928f7db2d6c3f296ccd35",
  "args": [
    "0x6e8813dD1a5714182C700A6ba3A05a482b36dEdf",
    "0xef7549b38aa8A4aB658E56f77cB273B2C7E0f621"
  ],
  "numDeployments": 1,
  "solcInputHash": "bfe6cf08237990fb7f580aa34eab6bcb",
  "bytecode": "0x60c06040523480156200001157600080fd5b50604051620055683803806200556883398101604081905262000034916200007b565b603380546001600160a01b031916331790556001600160a01b039182166080521660a052620000b3565b80516001600160a01b03811681146200007657600080fd5b919050565b600080604083850312156200008f57600080fd5b6200009a836200005e565b9150620000aa602084016200005e565b90509250929050565b60805160a05161545e6200010a6000396000818161041801528181610a1401528181610d8d015281816115d8015281816116fd01528181611c6801526137fb01526000818161082001526124a5015261545e6000f3fe608060405234801561001057600080fd5b50600436106103b95760003560e01c80636a56947e116101f4578063afcff50f1161011a578063db5c65de116100ad578063e87554461161007c578063e875544614610920578063eabe7d9114610929578063ede4edd01461093c578063f851a4401461094f57600080fd5b8063db5c65de146108de578063dce15449146108e7578063de87a4e4146108fa578063e85a29601461090d57600080fd5b8063c488847b116100e9578063c488847b1461087d578063d02f7351146108a5578063d61757e8146108b8578063da3d454c146108cb57600080fd5b8063afcff50f1461081b578063b0772d0b14610842578063bdcdc2581461084a578063c29982381461085d57600080fd5b80638e8f294b1161019257806394b2294b1161016157806394b2294b146107cb578063a76b3fda146107d4578063abfceffc146107e7578063ac0b0bb71461080757600080fd5b80638e8f294b146107145780639213639514610764578063929fe9a11461077757806394543c15146107b857600080fd5b8063731f0c2b116101ce578063731f0c2b146106c25780637dc0d1d0146106e55780638129fc1c146106f857806387f763031461070057600080fd5b80636a56947e146106835780636d154ea5146106915780636d35bf91146106b457600080fd5b806342cbb15c116102e457806351a485e41161027757806356aaee2d1161024657806356aaee2d146106375780635c7786051461064a5780635ec88c791461065d578063607ef6c11461067057600080fd5b806351a485e4146105eb57806351dff989146105fe57806352d84d1e1461061157806355ee1fe11461062457600080fd5b80634dd18bf5116102b35780634dd18bf5146105845780634e79238f146105975780634ef4c3e1146105c55780634fd42e17146105d857600080fd5b806342cbb15c1461053f57806347ef3b3b146105455780634a5844321461055b5780634ada90af1461057b57600080fd5b806324008a621161035c5780632bce219c1161032b5780632bce219c146104d9578063317b0b77146104ec5780633d98a1e5146104ff57806341c728b91461052b57600080fd5b806324008a621461048d57806324a3d622146104a057806326782247146104b35780632b5d790c146104c657600080fd5b806313007d551161039857806313007d55146104135780631ac8e5d5146104525780631ededc911461046557806321af45691461047a57600080fd5b80627e3dd2146103be57806302c3bcbb146103db5780630e18b68114610409575b600080fd5b6103c6600181565b60405190151581526020015b60405180910390f35b6103fb6103e9366004614b2c565b60736020526000908152604090205481565b6040519081526020016103d2565b610411610962565b005b61043a7f000000000000000000000000000000000000000000000000000000000000000081565b6040516001600160a01b0390911681526020016103d2565b610411610460366004614b49565b6109b7565b610411610473366004614b62565b5050505050565b60705461043a906001600160a01b031681565b6103fb61049b366004614bbd565b610aec565b606c5461043a906001600160a01b031681565b60655461043a906001600160a01b031681565b6104116104d4366004614c68565b610d2d565b6104116104e7366004614cec565b610ef7565b6103fb6104fa366004614b49565b611211565b6103c661050d366004614b2c565b6001600160a01b03166000908152606b602052604090205460ff1690565b610411610539366004614d74565b50505050565b436103fb565b610411610553366004614dba565b505050505050565b6103fb610569366004614b2c565b60716020526000908152604090205481565b6103fb60685481565b610411610592366004614b2c565b6112ba565b6105aa6105a5366004614d74565b6112ce565b604080519384526020840192909252908201526060016103d2565b6103fb6105d3366004614e28565b6112ff565b6103fb6105e6366004614b49565b611580565b6104116105f9366004614e69565b6116a1565b61041161060c366004614d74565b611964565b61043a61061f366004614b49565b6119b3565b6103fb610632366004614b2c565b6119dd565b6103fb610645366004614b2c565b611a57565b610411610658366004614e28565b505050565b6105aa61066b366004614b2c565b611be1565b61041161067e366004614e69565b611c0c565b610411610539366004614bbd565b6103c661069f366004614b2c565b606e6020526000908152604090205460ff1681565b610411610473366004614ed5565b6103c66106d0366004614b2c565b606d6020526000908152604090205460ff1681565b60665461043a906001600160a01b031681565b610411611e83565b606c546103c690600160a01b900460ff1681565b610747610722366004614b2c565b606b6020526000908152604090208054600182015460029092015460ff909116919083565b6040805193151584526020840192909252908201526060016103d2565b610411610772366004614b2c565b611f93565b6103c6610785366004614f39565b6001600160a01b038082166000908152606b60209081526040808320938616835260039093019052205460ff1692915050565b6103c66107c6366004614b2c565b6123f0565b6103fb60695481565b6103fb6107e2366004614b2c565b612498565b6107fa6107f5366004614b2c565b612690565b6040516103d29190614f72565b606c546103c690600160a81b900460ff1681565b61043a7f000000000000000000000000000000000000000000000000000000000000000081565b6107fa612706565b6103fb610858366004614bbd565b612768565b61087061086b366004614fd5565b612996565b6040516103d2919061508e565b61089061088b366004614e28565b612a5c565b604080519283526020830191909152016103d2565b6103fb6108b3366004614ed5565b612c76565b6103fb6108c63660046150c6565b612ff4565b6103fb6108d9366004614e28565b61329c565b6103fb60725481565b61043a6108f536600461513f565b613756565b6103fb61090836600461516b565b61378e565b6103c661091b3660046151af565b613a75565b6103fb60675481565b6103fb610937366004614e28565b613acc565b6103fb61094a366004614b2c565b613c79565b60335461043a906001600160a01b031681565b6065546001600160a01b0316336001600160a01b03161461099657604051634777b53760e11b815260040160405180910390fd5b6065546109ab906001600160a01b0316613fc9565b6109b56000614028565b565b604080516318c5e8ab60e01b81523360048201526024810191909152602660448201527f5f7365744d696e4c6971756964617461626c65436f6c6c61746572616c2875696064820152656e743235362960d01b60848201526000907f00000000000000000000000000000000000000000000000000000000000000006001600160a01b0316906318c5e8ab9060a401602060405180830381865afa158015610a63573d6000803e3d6000fd5b505050506040513d601f19601f82011682018060405250810190610a8791906151e4565b905080610aa6576040516282b42960e81b815260040160405180910390fd5b607280549083905560408051828152602081018590527eb4f4f153ad7f1397564a8830fef092481e8cf6a2cd3ff04f96d10ba51200a591015b60405180910390a1505050565b6000610af985600361407b565b6066546040516396e85ced60e01b81526001600160a01b038781166004830152909116906396e85ced90602401600060405180830381600087803b158015610b4057600080fd5b505af1158015610b54573d6000803e3d6000fd5b505050506001600160a01b0385166000908152606b602052604090205460ff16610b8057506009610d25565b60005b607554811015610d1f5760006040518060200160405280886001600160a01b031663aa5af0fd6040518163ffffffff1660e01b8152600401602060405180830381865afa158015610bd8573d6000803e3d6000fd5b505050506040513d601f19601f82011682018060405250810190610bfc9190615217565b815250905060758281548110610c1457610c14615230565b600091825260209091200154604051632352607960e01b81526001600160a01b0389811660048301528351602483015290911690632352607990604401600060405180830381600087803b158015610c6b57600080fd5b505af1158015610c7f573d6000803e3d6000fd5b5050505060758281548110610c9657610c96615230565b600091825260209091200154604051636a95ddef60e01b81526001600160a01b03898116600483015287811660248301528351604483015290911690636a95ddef90606401600060405180830381600087803b158015610cf557600080fd5b505af1158015610d09573d6000803e3d6000fd5b505050505080610d189061525c565b9050610b83565b50600090505b949350505050565b604080516318c5e8ab60e01b81523360048201526024810191909152602960448201527f5f736574416374696f6e735061757365642856546f6b656e5b5d2c416374696f6064820152686e5b5d2c626f6f6c2960b81b60848201526000907f00000000000000000000000000000000000000000000000000000000000000006001600160a01b0316906318c5e8ab9060a401602060405180830381865afa158015610ddc573d6000803e3d6000fd5b505050506040513d601f19601f82011682018060405250810190610e0091906151e4565b905080610e605760405162461bcd60e51b815260206004820152602360248201527f6f6e6c7920617574686f7269736564206164647265737365732063616e20706160448201526275736560e81b60648201526084015b60405180910390fd5b60005b85811015610eee5760005b84811015610edd57610ecd888884818110610e8b57610e8b615230565b9050602002016020810190610ea09190614b2c565b878784818110610eb257610eb2615230565b9050602002016020810190610ec79190615275565b866140c9565b610ed68161525c565b9050610e6e565b50610ee78161525c565b9050610e63565b50505050505050565b6000610f05846141d761420b565b905060725481600001511115610f3c576072548151604051631a451c0f60e21b815260048101929092526024820152604401610e57565b6000610f5c60405180602001604052806068548152508360400151614253565b82519091508110610f8d578151604051632c1f8ef160e21b8152610e57918391600401918252602082015260400190565b60005b8381101561106f5736858583818110610fab57610fab615230565b606002919091019150610fc390506020820182614b2c565b6001600160a01b0316638bbdb6db33896040850135610fe56020870187614b2c565b60405160e086901b6001600160e01b03191681526001600160a01b0394851660048201529284166024840152604483019190915290911660648201526001608482015260a401600060405180830381600087803b15801561104557600080fd5b505af1158015611059573d6000803e3d6000fd5b5050505050806110689061525c565b9050610f90565b506001600160a01b0385166000908152606a60209081526040808320805482518185028101850190935280835291929091908301828280156110da57602002820191906000526020600020905b81546001600160a01b031681526001909101906020018083116110bc575b5050505050905060005b8151811015610eee5760008083838151811061110257611102615230565b60209081029190910101516040516361bfb47160e11b81526001600160a01b038b811660048301529091169063c37f68e290602401608060405180830381865afa158015611154573d6000803e3d6000fd5b505050506040513d601f19601f820116820180604052508101906111789190615290565b5092505091508160001461119f5760405163015a83f960e51b815260040160405180910390fd5b80156111fe5760405162461bcd60e51b815260206004820152602860248201527f4e6f6e7a65726f20626f72726f772062616c616e6365206166746572206c69716044820152673ab4b230ba34b7b760c11b6064820152608401610e57565b50508061120a9061525c565b90506110e4565b6033546000906001600160a01b0316331461126e5760405162461bcd60e51b815260206004820152601f60248201527f6f6e6c792061646d696e2063616e2073657420636c6f736520666163746f72006044820152606401610e57565b606780549083905560408051828152602081018590527f3b9670cf975d26958e754b57098eaa2ac914d8d2a31b83257997b9f346110fd991015b60405180910390a160005b9392505050565b6112c261426b565b6112cb81614028565b50565b6000806000806112e38888888861429f6142d3565b608081015160a09091015160009a919950975095505050505050565b600061130c84600061407b565b6001600160a01b0384166000908152606b602052604090205460ff166113365760095b90506112b3565b6001600160a01b038416600090815260736020526040902054806113955760405162461bcd60e51b815260206004820152601660248201527506d61726b657420737570706c792063617020697320360541b6044820152606401610e57565b6000856001600160a01b03166318160ddd6040518163ffffffff1660e01b8152600401602060405180830381865afa1580156113d5573d6000803e3d6000fd5b505050506040513d601f19601f820116820180604052508101906113f99190615217565b90506000611407828661459b565b9050828111156114595760405162461bcd60e51b815260206004820152601960248201527f6d61726b657420737570706c79206361702072656163686564000000000000006044820152606401610e57565b60005b607554811015611572576075818154811061147957611479615230565b60009182526020909120015460405163051d1d4f60e11b81526001600160a01b038a8116600483015290911690630a3a3a9e90602401600060405180830381600087803b1580156114c957600080fd5b505af11580156114dd573d6000803e3d6000fd5b50505050607581815481106114f4576114f4615230565b60009182526020909120015460405163db7954fd60e01b81526001600160a01b039091169063db7954fd9061152f908b908b906004016152c6565b600060405180830381600087803b15801561154957600080fd5b505af115801561155d573d6000803e3d6000fd5b505050508061156b9061525c565b905061145c565b506000979650505050505050565b604080516318c5e8ab60e01b81523360048201526024810191909152601e60448201527f5f7365744c69717569646174696f6e496e63656e746976652875696e74290000606482015260009081906001600160a01b037f000000000000000000000000000000000000000000000000000000000000000016906318c5e8ab90608401602060405180830381865afa15801561161f573d6000803e3d6000fd5b505050506040513d601f19601f8201168201806040525081019061164391906151e4565b905080611656576112b36001600b6145a7565b606880549084905560408051828152602081018690527faeba5a6c40a8ac138134bff1aaa65debf25971188a58804bad717f82f0ec1316910160405180910390a16000949350505050565b604080516318c5e8ab60e01b81523360048201526024810191909152602860448201527f5f7365744d61726b6574537570706c79436170732856546f6b656e5b5d2c75696064820152676e743235365b5d2960c01b60848201527f00000000000000000000000000000000000000000000000000000000000000006001600160a01b0316906318c5e8ab9060a401602060405180830381865afa15801561174c573d6000803e3d6000fd5b505050506040513d601f19601f8201168201806040525081019061177091906151e4565b6117d25760405162461bcd60e51b815260206004820152602d60248201527f6f6e6c792077686974656c6973746564206163636f756e74732063616e20736560448201526c7420737570706c79206361707360981b6064820152608401610e57565b600083900361181f5760405162461bcd60e51b8152602060048201526019602482015278696e76616c6964206e756d626572206f66206d61726b65747360381b6044820152606401610e57565b82811461186a5760405162461bcd60e51b8152602060048201526019602482015278696e76616c6964206e756d626572206f66206d61726b65747360381b6044820152606401610e57565b60005b838110156104735782828281811061188757611887615230565b90506020020135607360008787858181106118a4576118a4615230565b90506020020160208101906118b99190614b2c565b6001600160a01b031681526020810191909152604001600020558484828181106118e5576118e5615230565b90506020020160208101906118fa9190614b2c565b6001600160a01b03167f9e0ad9cee10bdf36b7fbd38910c0bdff0f275ace679b45b922381c2723d676f884848481811061193657611936615230565b9050602002013560405161194c91815260200190565b60405180910390a261195d8161525c565b905061186d565b801580156119725750600082115b156105395760405162461bcd60e51b815260206004820152601160248201527072656465656d546f6b656e73207a65726f60781b6044820152606401610e57565b606f81815481106119c357600080fd5b6000918252602090912001546001600160a01b0316905081565b6033546000906001600160a01b03163314611a04576119fe600160106145a7565b92915050565b606680546001600160a01b038481166001600160a01b03198316179092556040519116907fd52b2b9b7e9ee655fcb95d2e5b9e0c9f69e7ef2b8e9d2d0ea78402d576d22e22906112a890839086906152c6565b6033546000906001600160a01b03163314611a78576119fe600160146145a7565b6001600160a01b03821660009081526076602052604090205460ff1615611ad25760405162461bcd60e51b815260206004820152600e60248201526d616c72656164792065786973747360901b6044820152606401610e57565b6075805460018082019092557f9a8d93986a7b9e6294572ea6736696119c195c1a9f5eae642d3c5fcd44e49dea0180546001600160a01b0319166001600160a01b0385169081179091556000908152607660205260408120805460ff19169092179091555b606f54811015611bd957826001600160a01b0316632a869a4d606f8381548110611b6357611b63615230565b60009182526020909120015460405160e083901b6001600160e01b03191681526001600160a01b039091166004820152602401600060405180830381600087803b158015611bb057600080fd5b505af1158015611bc4573d6000803e3d6000fd5b5050505080611bd29061525c565b9050611b37565b5060006119fe565b600080600080611bf38561429f61420b565b608081015160a090910151600097919650945092505050565b604080516318c5e8ab60e01b81523360048201526024810191909152602860448201527f5f7365744d61726b6574426f72726f77436170732856546f6b656e5b5d2c75696064820152676e743235365b5d2960c01b60848201527f00000000000000000000000000000000000000000000000000000000000000006001600160a01b0316906318c5e8ab9060a401602060405180830381865afa158015611cb7573d6000803e3d6000fd5b505050506040513d601f19601f82011682018060405250810190611cdb91906151e4565b611d3d5760405162461bcd60e51b815260206004820152602d60248201527f6f6e6c792077686974656c6973746564206163636f756e74732063616e20736560448201526c7420626f72726f77206361707360981b6064820152608401610e57565b82818115801590611d4d57508082145b611d895760405162461bcd60e51b815260206004820152600d60248201526c1a5b9d985b1a59081a5b9c1d5d609a1b6044820152606401610e57565b60005b82811015610eee57848482818110611da657611da6615230565b9050602002013560716000898985818110611dc357611dc3615230565b9050602002016020810190611dd89190614b2c565b6001600160a01b03168152602081019190915260400160002055868682818110611e0457611e04615230565b9050602002016020810190611e199190614b2c565b6001600160a01b03167f6f1951b2aad10f3fc81b86d91105b413a5b3f847a34bbc5ce1904201b14438f6868684818110611e5557611e55615230565b90506020020135604051611e6b91815260200190565b60405180910390a2611e7c8161525c565b9050611d8c565b600054610100900460ff1615808015611ea35750600054600160ff909116105b80611ebd5750303b158015611ebd575060005460ff166001145b611f205760405162461bcd60e51b815260206004820152602e60248201527f496e697469616c697a61626c653a20636f6e747261637420697320616c72656160448201526d191e481a5b9a5d1a585b1a5e995960921b6064820152608401610e57565b6000805460ff191660011790558015611f43576000805461ff0019166101001790555b611f4b614620565b80156112cb576000805461ff0019169055604051600181527f7f26b83ff96e1f2b6a682f133852f6798a09c465da95921460cefb38474024989060200160405180910390a150565b6001600160a01b0381166000908152606a6020908152604080832080548251818502810185019093528083529192909190830182828015611ffd57602002820191906000526020600020905b81546001600160a01b03168152600190910190602001808311611fdf575b50505050509050600033905060005b82518110156121325782818151811061202757612027615230565b60200260200101516001600160a01b031663a6afed956040518163ffffffff1660e01b81526004016020604051808303816000875af115801561206e573d6000803e3d6000fd5b505050506040513d601f19601f820116820180604052508101906120929190615217565b5060665483516001600160a01b03909116906396e85ced908590849081106120bc576120bc615230565b60200260200101516040518263ffffffff1660e01b81526004016120ef91906001600160a01b0391909116815260200190565b600060405180830381600087803b15801561210957600080fd5b505af115801561211d573d6000803e3d6000fd5b505050508061212b9061525c565b905061200c565b506000612141846141d761420b565b905060725481600001511115612178576072548151604051631a451c0f60e21b815260048101929092526024820152604401610e57565b604080516020808201835283518252825180820184528484015181528351918201909352606854815290916000916121b0919061464f565b905060006121be8383614697565b90506121e26040518060200160405280670de0b6b3a7640000815250825190511090565b1561220d5781518351604051631a451c0f60e21b815260048101929092526024820152604401610e57565b60005b86518110156123e657600087828151811061222d5761222d615230565b602002602001015190506000806000836001600160a01b031663c37f68e28d6040518263ffffffff1660e01b815260040161227791906001600160a01b0391909116815260200190565b608060405180830381865afa158015612294573d6000803e3d6000fd5b505050506040513d601f19601f820116820180604052508101906122b89190615290565b50925092509250826000146122e05760405163015a83f960e51b815260040160405180910390fd5b60006122ec8783614253565b9050821561235f5760405163b2a02ff160e01b81526001600160a01b038c811660048301528e811660248301526044820185905286169063b2a02ff190606401600060405180830381600087803b15801561234657600080fd5b505af115801561235a573d6000803e3d6000fd5b505050505b81156123d05760405163227f37ff60e11b81526001600160a01b038c811660048301528e81166024830152604482018390528616906344fe6ffe90606401600060405180830381600087803b1580156123b757600080fd5b505af11580156123cb573d6000803e3d6000fd5b505050505b5050505050806123df9061525c565b9050612210565b5050505050505050565b6001600160a01b0381166000908152606b602052604081206001015415801561241f575061241f826002613a75565b80156119fe5750816001600160a01b031663173b99046040518163ffffffff1660e01b8152600401602060405180830381865afa158015612464573d6000803e3d6000fd5b505050506040513d601f19601f820116820180604052508101906124889190615217565b670de0b6b3a76400001492915050565b6000336001600160a01b037f000000000000000000000000000000000000000000000000000000000000000016146125245760405162461bcd60e51b815260206004820152602960248201527f6f6e6c7920706f6f6c52656769737472792063616e2063616c6c205f737570706044820152681bdc9d13585c9ad95d60ba1b6064820152608401610e57565b6001600160a01b0382166000908152606b602052604090205460ff1615612551576119fe600a60116145a7565b816001600160a01b0316633d9ea3a16040518163ffffffff1660e01b8152600401602060405180830381865afa15801561258f573d6000803e3d6000fd5b505050506040513d601f19601f820116820180604052508101906125b391906151e4565b506001600160a01b0382166000908152606b60205260408120805460ff191660019081178255810182905560028101919091556125ef836146d1565b60005b607554811015612688576075818154811061260f5761260f615230565b600091825260209091200154604051632a869a4d60e01b81526001600160a01b03868116600483015290911690632a869a4d90602401600060405180830381600087803b15801561265f57600080fd5b505af1158015612673573d6000803e3d6000fd5b50505050806126819061525c565b90506125f2565b5060006112b3565b6001600160a01b0381166000908152606a602090815260408083208054825181850281018501909352808352606094938301828280156126f957602002820191906000526020600020905b81546001600160a01b031681526001909101906020018083116126db575b5093979650505050505050565b6060606f80548060200260200160405190810160405280929190818152602001828054801561275e57602002820191906000526020600020905b81546001600160a01b03168152600190910190602001808311612740575b5050505050905090565b600061277585600661407b565b6066546040516396e85ced60e01b81526001600160a01b038781166004830152909116906396e85ced90602401600060405180830381600087803b1580156127bc57600080fd5b505af11580156127d0573d6000803e3d6000fd5b5050505060006127e18686856147b7565b905080156127f0579050610d25565b60005b607554811015612989576075818154811061281057612810615230565b60009182526020909120015460405163051d1d4f60e11b81526001600160a01b03898116600483015290911690630a3a3a9e90602401600060405180830381600087803b15801561286057600080fd5b505af1158015612874573d6000803e3d6000fd5b505050506075818154811061288b5761288b615230565b60009182526020909120015460405163db7954fd60e01b81526001600160a01b039091169063db7954fd906128c6908a908a906004016152c6565b600060405180830381600087803b1580156128e057600080fd5b505af11580156128f4573d6000803e3d6000fd5b505050506075818154811061290b5761290b615230565b60009182526020909120015460405163db7954fd60e01b81526001600160a01b039091169063db7954fd90612946908a9089906004016152c6565b600060405180830381600087803b15801561296057600080fd5b505af1158015612974573d6000803e3d6000fd5b50505050806129829061525c565b90506127f3565b5060009695505050505050565b805160609060008167ffffffffffffffff8111156129b6576129b6614fbf565b6040519080825280602002602001820160405280156129df578160200160208202803683370190505b50905060005b82811015612a54576000858281518110612a0157612a01615230565b60200260200101519050612a158133614843565b6013811115612a2657612a26615201565b838381518110612a3857612a38615230565b602090810291909101015250612a4d8161525c565b90506129e5565b509392505050565b60665460405163fc57d4df60e01b81526001600160a01b038581166004830152600092839283929091169063fc57d4df90602401602060405180830381865afa158015612aad573d6000803e3d6000fd5b505050506040513d601f19601f82011682018060405250810190612ad19190615217565b60665460405163fc57d4df60e01b81526001600160a01b0388811660048301529293506000929091169063fc57d4df90602401602060405180830381865afa158015612b21573d6000803e3d6000fd5b505050506040513d601f19601f82011682018060405250810190612b459190615217565b9050811580612b52575080155b15612b6657600d6000935093505050612c6e565b6000866001600160a01b031663182df0f56040518163ffffffff1660e01b8152600401602060405180830381865afa158015612ba6573d6000803e3d6000fd5b505050506040513d601f19601f82011682018060405250810190612bca9190615217565b90506000612be46040518060200160405280600081525090565b604080516020808201835260008083528351808301855290815283518083018552606854815284519283019094528882529192612c209161464f565b9250612c4860405180602001604052808881525060405180602001604052808881525061464f565b9150612c548383614697565b9050612c60818b614253565b600099509750505050505050505b935093915050565b6000612c8386600461407b565b6001600160a01b0386166000908152606b602052604090205460ff16612cad5760095b9050612feb565b306001600160a01b03861603612d4357306001600160a01b0316866001600160a01b0316635fe3b5676040518163ffffffff1660e01b8152600401602060405180830381865afa158015612d05573d6000803e3d6000fd5b505050506040513d601f19601f82011682018060405250810190612d2991906152e0565b6001600160a01b031614612d3e576002612ca6565b612e4c565b6001600160a01b0385166000908152606b602052604090205460ff16612d6a576009612ca6565b846001600160a01b0316635fe3b5676040518163ffffffff1660e01b8152600401602060405180830381865afa158015612da8573d6000803e3d6000fd5b505050506040513d601f19601f82011682018060405250810190612dcc91906152e0565b6001600160a01b0316866001600160a01b0316635fe3b5676040518163ffffffff1660e01b8152600401602060405180830381865afa158015612e13573d6000803e3d6000fd5b505050506040513d601f19601f82011682018060405250810190612e3791906152e0565b6001600160a01b031614612e4c576002612ca6565b60005b607554811015612fe55760758181548110612e6c57612e6c615230565b60009182526020909120015460405163051d1d4f60e11b81526001600160a01b03898116600483015290911690630a3a3a9e90602401600060405180830381600087803b158015612ebc57600080fd5b505af1158015612ed0573d6000803e3d6000fd5b5050505060758181548110612ee757612ee7615230565b60009182526020909120015460405163db7954fd60e01b81526001600160a01b039091169063db7954fd90612f22908a9088906004016152c6565b600060405180830381600087803b158015612f3c57600080fd5b505af1158015612f50573d6000803e3d6000fd5b5050505060758181548110612f6757612f67615230565b60009182526020909120015460405163db7954fd60e01b81526001600160a01b039091169063db7954fd90612fa2908a9089906004016152c6565b600060405180830381600087803b158015612fbc57600080fd5b505af1158015612fd0573d6000803e3d6000fd5b5050505080612fde9061525c565b9050612e4f565b50600090505b95945050505050565b600061300187600561407b565b6066546040516396e85ced60e01b81526001600160a01b038981166004830152909116906396e85ced90602401600060405180830381600087803b15801561304857600080fd5b505af115801561305c573d6000803e3d6000fd5b50506066546040516396e85ced60e01b81526001600160a01b038a8116600483015290911692506396e85ced9150602401600060405180830381600087803b1580156130a757600080fd5b505af11580156130bb573d6000803e3d6000fd5b505050506001600160a01b0387166000908152606b602052604090205460ff16158061310057506001600160a01b0386166000908152606b602052604090205460ff16155b1561310d57506009613292565b6040516395dd919360e01b81526001600160a01b038581166004830152600091908916906395dd919390602401602060405180830381865afa158015613157573d6000803e3d6000fd5b505050506040513d601f19601f8201168201806040525081019061317b9190615217565b9050828061318d575061318d886123f0565b156131fd57838110156131f35760405162461bcd60e51b815260206004820152602860248201527f43616e206e6f74207265706179206d6f7265207468616e2074686520746f74616044820152676c20626f72726f7760c01b6064820152608401610e57565b6000915050613292565b600061320b866141d761420b565b9050607254816000015111613241576072548151604051636e61bb0560e11b815260048101929092526024820152604401610e57565b8060a0015160000361325857600392505050613292565b6000613274604051806020016040528060675481525084614253565b90508086111561328a5760119350505050613292565b600093505050505b9695505050505050565b60006132a984600261407b565b6066546040516396e85ced60e01b81526001600160a01b038681166004830152909116906396e85ced90602401600060405180830381600087803b1580156132f057600080fd5b505af1158015613304573d6000803e3d6000fd5b505050506001600160a01b0384166000908152606b602052604090205460ff1661332f57600961132f565b6001600160a01b038085166000908152606b60209081526040808320938716835260039093019052205460ff1661342c57336001600160a01b038516146133b05760405162461bcd60e51b815260206004820152601560248201527439b2b73232b91036bab9ba103132903b2a37b5b2b760591b6044820152606401610e57565b60006133bc3385614843565b905060008160138111156133d2576133d2615201565b146133f1578060138111156133e9576133e9615201565b9150506112b3565b6001600160a01b038086166000908152606b60209081526040808320938816835260039093019052205460ff1661342a5761342a6152fd565b505b60665460405163fc57d4df60e01b81526001600160a01b0386811660048301529091169063fc57d4df90602401602060405180830381865afa158015613476573d6000803e3d6000fd5b505050506040513d601f19601f8201168201806040525081019061349a9190615217565b6000036134a857600d61132f565b6001600160a01b038416600090815260716020526040902054801561358d576000856001600160a01b03166347bd37186040518163ffffffff1660e01b8152600401602060405180830381865afa158015613507573d6000803e3d6000fd5b505050506040513d601f19601f8201168201806040525081019061352b9190615217565b90506000613539828661459b565b905082811061358a5760405162461bcd60e51b815260206004820152601960248201527f6d61726b657420626f72726f77206361702072656163686564000000000000006044820152606401610e57565b50505b600061359f858760008761429f6142d3565b60a0810151909150156135b7576004925050506112b3565b60005b6075548110156129895760006040518060200160405280896001600160a01b031663aa5af0fd6040518163ffffffff1660e01b8152600401602060405180830381865afa15801561360f573d6000803e3d6000fd5b505050506040513d601f19601f820116820180604052508101906136339190615217565b81525090506075828154811061364b5761364b615230565b600091825260209091200154604051632352607960e01b81526001600160a01b038a811660048301528351602483015290911690632352607990604401600060405180830381600087803b1580156136a257600080fd5b505af11580156136b6573d6000803e3d6000fd5b50505050607582815481106136cd576136cd615230565b600091825260209091200154604051636a95ddef60e01b81526001600160a01b038a8116600483015289811660248301528351604483015290911690636a95ddef90606401600060405180830381600087803b15801561372c57600080fd5b505af1158015613740573d6000803e3d6000fd5b50505050508061374f9061525c565b90506135ba565b606a602052816000526040600020818154811061377257600080fd5b6000918252602090912001546001600160a01b03169150829050565b604080516318c5e8ab60e01b81523360048201526024810191909152602c60448201527f5f736574436f6c6c61746572616c466163746f722856546f6b656e2c75696e7460648201526b3235362c75696e743235362960a01b608482015260009081906001600160a01b037f000000000000000000000000000000000000000000000000000000000000000016906318c5e8ab9060a401602060405180830381865afa158015613842573d6000803e3d6000fd5b505050506040513d601f19601f8201168201806040525081019061386691906151e4565b905080613885576040516282b42960e81b815260040160405180910390fd5b6001600160a01b0385166000908152606b60205260409020805460ff166138ca57604051635a9a1eb960e11b81526001600160a01b0387166004820152602401610e57565b670c7d713b49da00008511156138f3576040516302f22cad60e61b815260040160405180910390fd5b848411156139135760405162f9474b60e61b815260040160405180910390fd5b841580159061398d575060665460405163fc57d4df60e01b81526001600160a01b0388811660048301529091169063fc57d4df90602401602060405180830381865afa158015613967573d6000803e3d6000fd5b505050506040513d601f19601f8201168201806040525081019061398b9190615217565b155b156139ab576040516348fa9b2b60e11b815260040160405180910390fd5b6001810154858114613a095760018201869055604080516001600160a01b0389168152602081018390529081018790527f70483e6592cd5182d45ac970e05bc62cdcc90e9d8ef2c2dbe686cf383bcd7fc59060600160405180910390a15b6002820154858114613a675760028301869055604080516001600160a01b038a168152602081018390529081018790527f9e92c7d5fef69846094f3ddcadcb9402c6ba469c461368714f1cabd8ef48b5919060600160405180910390a15b600098975050505050505050565b6001600160a01b038216600090815260746020526040812081836008811115613aa057613aa0615201565b6008811115613ab157613ab1615201565b815260208101919091526040016000205460ff169392505050565b6000613ad984600161407b565b6066546040516396e85ced60e01b81526001600160a01b038681166004830152909116906396e85ced90602401600060405180830381600087803b158015613b2057600080fd5b505af1158015613b34573d6000803e3d6000fd5b505050506000613b458585856147b7565b90508015613b545790506112b3565b60005b607554811015613c6d5760758181548110613b7457613b74615230565b60009182526020909120015460405163051d1d4f60e11b81526001600160a01b03888116600483015290911690630a3a3a9e90602401600060405180830381600087803b158015613bc457600080fd5b505af1158015613bd8573d6000803e3d6000fd5b5050505060758181548110613bef57613bef615230565b60009182526020909120015460405163db7954fd60e01b81526001600160a01b039091169063db7954fd90613c2a90899089906004016152c6565b600060405180830381600087803b158015613c4457600080fd5b505af1158015613c58573d6000803e3d6000fd5b5050505080613c669061525c565b9050613b57565b50600095945050505050565b6000613c8682600861407b565b6040516361bfb47160e11b81523360048201528290600090819081906001600160a01b0385169063c37f68e290602401608060405180830381865afa158015613cd3573d6000803e3d6000fd5b505050506040513d601f19601f82011682018060405250810190613cf79190615290565b5092509250925082600014613d5c5760405162461bcd60e51b815260206004820152602560248201527f657869744d61726b65743a206765744163636f756e74536e617073686f742066604482015264185a5b195960da1b6064820152608401610e57565b8015613d6e57613292600c60026145a7565b6000613d7b8733856147b7565b90508015613d9b57613d90600e600383614946565b979650505050505050565b6001600160a01b0385166000908152606b60209081526040808320338452600381019092529091205460ff16613dda5760005b98975050505050505050565b3360009081526003820160209081526040808320805460ff19169055606a825280832080548251818502810185019093528083529192909190830182828015613e4c57602002820191906000526020600020905b81546001600160a01b03168152600190910190602001808311613e2e575b5050835193945083925060009150505b82811015613eae57896001600160a01b0316848281518110613e8057613e80615230565b60200260200101516001600160a01b031603613e9e57809150613eae565b613ea78161525c565b9050613e5c565b50818110613ebe57613ebe6152fd565b336000908152606a6020526040902080548190613edd90600190615313565b81548110613eed57613eed615230565b9060005260206000200160009054906101000a90046001600160a01b0316818381548110613f1d57613f1d615230565b9060005260206000200160006101000a8154816001600160a01b0302191690836001600160a01b0316021790555080805480613f5b57613f5b61532a565b600082815260209020810160001990810180546001600160a01b03191690550190556040517fe699a64c18b07ac5b7301aa273f36a2287239eb9501d81950672794afba29a0d90613faf908c9033906152c6565b60405180910390a160009c9b505050505050505050505050565b603380546001600160a01b038381166001600160a01b03198316179092556040519116907ff9ffabca9c8276e99321725bcb43fb076a6c66a54b7f21c4e8146d8519b417dc9061401c90839085906152c6565b60405180910390a15050565b606580546001600160a01b038381166001600160a01b03198316179092556040519116907fca4f2f25d0898edd99413412fb94012f9e54ec8142f9b093e7720646a95b16a99061401c90839085906152c6565b6140858282613a75565b156140c55760405162461bcd60e51b815260206004820152601060248201526f1858dd1a5bdb881a5cc81c185d5cd95960821b6044820152606401610e57565b5050565b6001600160a01b0383166000908152606b602052604090205460ff166141425760405162461bcd60e51b815260206004820152602860248201527f63616e6e6f742070617573652061206d61726b65742074686174206973206e6f6044820152671d081b1a5cdd195960c21b6064820152608401610e57565b6001600160a01b0383166000908152607460205260408120829184600881111561416e5761416e615201565b600881111561417f5761417f615201565b815260200190815260200160002060006101000a81548160ff0219169083151502179055507f35007a986bcd36d2f73fc7f1b73762e12eadb4406dd163194950fd3b5a6a827d838383604051610adf93929190615340565b6040805160208082018352600091829052825180820184526001600160a01b03949094168252606b90522060020154815290565b6142446040518060c001604052806000815260200160008152602001600081526020016000815260200160008152602001600081525090565b6112b3836000806000866142d3565b60008061426084846149be565b9050610d25816149e6565b6033546001600160a01b0316336001600160a01b0316146109b557604051634777b53760e11b815260040160405180910390fd5b6040805160208082018352600091829052825180820184526001600160a01b03949094168252606b90522060010154815290565b61430c6040518060c001604052806000815260200160008152602001600081526020016000815260200160008152602001600081525090565b6001600160a01b0386166000908152606a602090815260408083208054825181850281018501909352808352919290919083018282801561437657602002820191906000526020600020905b81546001600160a01b03168152600190910190602001808311614358575b5050505050905060005b815181101561453e57600082828151811061439d5761439d615230565b60200260200101519050600080600080846001600160a01b031663c37f68e28e6040518263ffffffff1660e01b81526004016143e891906001600160a01b0391909116815260200190565b608060405180830381865afa158015614405573d6000803e3d6000fd5b505050506040513d601f19601f820116820180604052508101906144299190615290565b9350935093509350836000146144525760405163015a83f960e51b815260040160405180910390fd5b60006040518060200160405280614468886149fe565b815250905060006144876040518060200160405280858152508361464f565b905060006144a161449b898e63ffffffff16565b8361464f565b90506144b281878d60200151614a93565b60208c01528a516144c69083908890614a93565b8b5260408b01516144da9084908790614a93565b8b60400181815250508e6001600160a01b0316886001600160a01b0316036145255761450b818f8d60600151614a93565b60608c0181905261451f9084908f90614a93565b60608c01525b5050505050505050806145379061525c565b9050614380565b506000826060015183604001516145559190615384565b9050808360200151111561457c5760208301518190036080840152600060a0840152614590565b600060808401526020830151810360a08401525b505095945050505050565b60006112b38284615384565b60007f45b96fe442630264581b197e84bbada861235052c5a1aadfff9ea4e40a969aa08360138111156145dc576145dc615201565b8360148111156145ee576145ee615201565b60408051928352602083019190915260009082015260600160405180910390a18260138111156112b3576112b3615201565b600054610100900460ff166146475760405162461bcd60e51b8152600401610e579061539c565b6109b5614ab4565b6040805160208101909152600081526040518060200160405280670de0b6b3a764000061468486600001518660000151614aef565b61468e91906153e7565b90529392505050565b604080516020810190915260008152604051806020016040528061468e6146ca8660000151670de0b6b3a7640000614aef565b8551614afb565b60005b606f5481101561476457816001600160a01b0316606f82815481106146fb576146fb615230565b6000918252602090912001546001600160a01b0316036147545760405162461bcd60e51b81526020600482015260146024820152731b585c9ad95d08185b1c9958591e48185919195960621b6044820152606401610e57565b61475d8161525c565b90506146d4565b50606f80546001810182556000919091527f39f2babe526038520877fc7c33d81accf578af4a06c5fa6b0d038cae36e127110180546001600160a01b0319166001600160a01b0392909216919091179055565b6001600160a01b0383166000908152606b602052604081205460ff166147de57600961132f565b6001600160a01b038085166000908152606b60209081526040808320938716835260039093019052205460ff1661481657600061132f565b6000614828848685600061429f6142d3565b60a08101519091501561483c5760046133e9565b6000612feb565b600061485083600761407b565b6001600160a01b0383166000908152606b60205260409020805460ff1661487b5760099150506119fe565b6001600160a01b038316600090815260038201602052604090205460ff1615156001036148ac5760009150506119fe565b6001600160a01b03838116600090815260038301602090815260408083208054600160ff199091168117909155606a8352818420805491820181558452919092200180546001600160a01b03191692871692909217909155517f3ab23ab0d51cccc0c3085aec51f99228625aa1a922b3a8ca89a26b0f2027a1a59061493490869086906152c6565b60405180910390a15060009392505050565b60007f45b96fe442630264581b197e84bbada861235052c5a1aadfff9ea4e40a969aa084601381111561497b5761497b615201565b84601481111561498d5761498d615201565b604080519283526020830191909152810184905260600160405180910390a1836013811115610d2557610d25615201565b604080516020810190915260008152604051806020016040528061468e856000015185614aef565b80516000906119fe90670de0b6b3a7640000906153e7565b60665460405163fc57d4df60e01b81526001600160a01b038381166004830152600092839291169063fc57d4df90602401602060405180830381865afa158015614a4c573d6000803e3d6000fd5b505050506040513d601f19601f82011682018060405250810190614a709190615217565b9050806000036119fe576040516348fa9b2b60e11b815260040160405180910390fd5b600080614aa085856149be565b9050612feb614aae826149e6565b8461459b565b600054610100900460ff16614adb5760405162461bcd60e51b8152600401610e579061539c565b603380546001600160a01b03191633179055565b60006112b38284615409565b60006112b382846153e7565b6001600160a01b03811681146112cb57600080fd5b8035614b2781614b07565b919050565b600060208284031215614b3e57600080fd5b81356112b381614b07565b600060208284031215614b5b57600080fd5b5035919050565b600080600080600060a08688031215614b7a57600080fd5b8535614b8581614b07565b94506020860135614b9581614b07565b93506040860135614ba581614b07565b94979396509394606081013594506080013592915050565b60008060008060808587031215614bd357600080fd5b8435614bde81614b07565b93506020850135614bee81614b07565b92506040850135614bfe81614b07565b9396929550929360600135925050565b60008083601f840112614c2057600080fd5b50813567ffffffffffffffff811115614c3857600080fd5b6020830191508360208260051b8501011115614c5357600080fd5b9250929050565b80151581146112cb57600080fd5b600080600080600060608688031215614c8057600080fd5b853567ffffffffffffffff80821115614c9857600080fd5b614ca489838a01614c0e565b90975095506020880135915080821115614cbd57600080fd5b50614cca88828901614c0e565b9094509250506040860135614cde81614c5a565b809150509295509295909350565b600080600060408486031215614d0157600080fd5b8335614d0c81614b07565b9250602084013567ffffffffffffffff80821115614d2957600080fd5b818601915086601f830112614d3d57600080fd5b813581811115614d4c57600080fd5b876020606083028501011115614d6157600080fd5b6020830194508093505050509250925092565b60008060008060808587031215614d8a57600080fd5b8435614d9581614b07565b93506020850135614da581614b07565b93969395505050506040820135916060013590565b60008060008060008060c08789031215614dd357600080fd5b8635614dde81614b07565b95506020870135614dee81614b07565b94506040870135614dfe81614b07565b93506060870135614e0e81614b07565b9598949750929560808101359460a0909101359350915050565b600080600060608486031215614e3d57600080fd5b8335614e4881614b07565b92506020840135614e5881614b07565b929592945050506040919091013590565b60008060008060408587031215614e7f57600080fd5b843567ffffffffffffffff80821115614e9757600080fd5b614ea388838901614c0e565b90965094506020870135915080821115614ebc57600080fd5b50614ec987828801614c0e565b95989497509550505050565b600080600080600060a08688031215614eed57600080fd5b8535614ef881614b07565b94506020860135614f0881614b07565b93506040860135614f1881614b07565b92506060860135614f2881614b07565b949793965091946080013592915050565b60008060408385031215614f4c57600080fd5b8235614f5781614b07565b91506020830135614f6781614b07565b809150509250929050565b6020808252825182820181905260009190848201906040850190845b81811015614fb35783516001600160a01b031683529284019291840191600101614f8e565b50909695505050505050565b634e487b7160e01b600052604160045260246000fd5b60006020808385031215614fe857600080fd5b823567ffffffffffffffff8082111561500057600080fd5b818501915085601f83011261501457600080fd5b81358181111561502657615026614fbf565b8060051b604051601f19603f8301168101818110858211171561504b5761504b614fbf565b60405291825284820192508381018501918883111561506957600080fd5b938501935b82851015613dce5761507f85614b1c565b8452938501939285019261506e565b6020808252825182820181905260009190848201906040850190845b81811015614fb3578351835292840192918401916001016150aa565b60008060008060008060c087890312156150df57600080fd5b86356150ea81614b07565b955060208701356150fa81614b07565b9450604087013561510a81614b07565b9350606087013561511a81614b07565b92506080870135915060a087013561513181614c5a565b809150509295509295509295565b6000806040838503121561515257600080fd5b823561515d81614b07565b946020939093013593505050565b60008060006060848603121561518057600080fd5b833561518b81614b07565b95602085013595506040909401359392505050565b803560098110614b2757600080fd5b600080604083850312156151c257600080fd5b82356151cd81614b07565b91506151db602084016151a0565b90509250929050565b6000602082840312156151f657600080fd5b81516112b381614c5a565b634e487b7160e01b600052602160045260246000fd5b60006020828403121561522957600080fd5b5051919050565b634e487b7160e01b600052603260045260246000fd5b634e487b7160e01b600052601160045260246000fd5b60006001820161526e5761526e615246565b5060010190565b60006020828403121561528757600080fd5b6112b3826151a0565b600080600080608085870312156152a657600080fd5b505082516020840151604085015160609095015191969095509092509050565b6001600160a01b0392831681529116602082015260400190565b6000602082840312156152f257600080fd5b81516112b381614b07565b634e487b7160e01b600052600160045260246000fd5b60008282101561532557615325615246565b500390565b634e487b7160e01b600052603160045260246000fd5b6001600160a01b0384168152606081016009841061536e57634e487b7160e01b600052602160045260246000fd5b8360208301528215156040830152949350505050565b6000821982111561539757615397615246565b500190565b6020808252602b908201527f496e697469616c697a61626c653a20636f6e7472616374206973206e6f74206960408201526a6e697469616c697a696e6760a81b606082015260800190565b60008261540457634e487b7160e01b600052601260045260246000fd5b500490565b600081600019048311821515161561542357615423615246565b50029056fea26469706673582212203f9dad2eb418fa4a3e86dd3706b097ee08f8466ffc33309be1c9b00fdfb928b464736f6c634300080d0033",
  "devdoc": {
    "author": "Compound",
    "kind": "dev",
    "methods": {
      "_setActionsPaused(address[],uint8[],bool)": {
        "params": {
          "actionsList": "List of action ids to pause/unpause",
          "marketsList": "Markets to pause/unpause the actions on",
          "paused": "The new paused state (true=paused, false=unpaused)"
        }
      },
      "_setCloseFactor(uint256)": {
        "details": "Admin function to set closeFactor",
        "params": {
          "newCloseFactorMantissa": "New close factor, scaled by 1e18"
        },
        "returns": {
          "_0": "uint 0=success, otherwise a failure"
        }
      },
      "_setCollateralFactor(address,uint256,uint256)": {
        "details": "Restricted function to set per-market collateralFactor",
        "params": {
          "newCollateralFactorMantissa": "The new collateral factor, scaled by 1e18",
          "newLiquidationThresholdMantissa": "The new liquidation threshold, scaled by 1e18",
          "vToken": "The market to set the factor on"
        },
        "returns": {
          "_0": "uint 0=success, otherwise a failure. (See ErrorReporter for details)"
        }
      },
      "_setLiquidationIncentive(uint256)": {
        "details": "Admin function to set liquidationIncentive",
        "params": {
          "newLiquidationIncentiveMantissa": "New liquidationIncentive scaled by 1e18"
        },
        "returns": {
          "_0": "uint 0=success, otherwise a failure. (See ErrorReporter for details)"
        }
      },
      "_setMarketBorrowCaps(address[],uint256[])": {
        "details": "Admin or borrowCapGuardian function to set the borrow caps. A borrow cap of 0 corresponds to unlimited borrowing.",
        "params": {
          "newBorrowCaps": "The new borrow cap values in underlying to be set. A value of 0 corresponds to unlimited borrowing.",
          "vTokens": "The addresses of the markets (tokens) to change the borrow caps for"
        }
      },
      "_setMarketSupplyCaps(address[],uint256[])": {
        "details": "Admin function to set the supply caps. A supply cap of 0 corresponds to Minting NotAllowed.",
        "params": {
          "newSupplyCaps": "The new supply cap values in underlying to be set. A value of 0 corresponds to Minting NotAllowed.",
          "vTokens": "The addresses of the markets (tokens) to change the supply caps for"
        }
      },
      "_setMinLiquidatableCollateral(uint256)": {
        "details": "this funciton access is managed by AccessControlManager",
        "params": {
          "newMinLiquidatableCollateral": "The new min liquidatable collateral (in USD)."
        }
      },
      "_setPriceOracle(address)": {
        "details": "Admin function to set a new price oracle",
        "returns": {
          "_0": "uint 0=success, otherwise a failure (see ErrorReporter.sol for details)"
        }
      },
      "_supportMarket(address)": {
        "details": "Admin function to set isListed and add support for the market",
        "params": {
          "vToken": "The address of the market (token) to list"
        },
        "returns": {
          "_0": "uint 0=success, otherwise a failure. (See enum Error for details)"
        }
      },
      "acceptAdmin()": {
        "details": "Admin function for pending admin to accept role and update admin"
      },
      "actionPaused(address,uint8)": {
        "params": {
          "action": "Action to check",
          "market": "vToken address"
        },
        "returns": {
          "_0": "true if the action is paused"
        }
      },
      "borrowAllowed(address,address,uint256)": {
        "params": {
          "borrowAmount": "The amount of underlying the account would borrow",
          "borrower": "The account which would borrow the asset",
          "vToken": "The market to verify the borrow against"
        },
        "returns": {
          "_0": "0 if the borrow is allowed, otherwise a semi-opaque error code (See ErrorReporter.sol)"
        }
      },
      "borrowVerify(address,address,uint256)": {
        "params": {
          "borrowAmount": "The amount of the underlying asset requested to borrow",
          "borrower": "The address borrowing the underlying",
          "vToken": "Asset whose underlying is being borrowed"
        }
      },
      "checkMembership(address,address)": {
        "params": {
          "account": "The address of the account to check",
          "vToken": "The vToken to check"
        },
        "returns": {
          "_0": "True if the account is in the asset, otherwise false."
        }
      },
      "enterMarkets(address[])": {
        "params": {
          "vTokens": "The list of addresses of the vToken markets to be enabled"
        },
        "returns": {
          "_0": "Success indicator for whether each corresponding market was entered"
        }
      },
      "exitMarket(address)": {
        "details": "Sender must not have an outstanding borrow balance in the asset,  or be providing necessary collateral for an outstanding borrow.",
        "params": {
          "vTokenAddress": "The address of the asset to be removed"
        },
        "returns": {
          "_0": "Whether or not the account successfully exited the market"
        }
      },
      "getAccountLiquidity(address)": {
        "details": "The interface of this function is intentionally kept compatible with Compound and Venus Core",
        "returns": {
          "_0": "(possible error code (semi-opaque), account liquidity in excess of collateral requirements,          account shortfall below collateral requirements)"
        }
      },
      "getAllMarkets()": {
        "details": "The automatic getter may be used to access an individual market.",
        "returns": {
          "_0": "The list of market addresses"
        }
      },
      "getAssetsIn(address)": {
        "params": {
          "account": "The address of the account to pull assets for"
        },
        "returns": {
          "_0": "A dynamic list with the assets the account has entered"
        }
      },
      "getHypotheticalAccountLiquidity(address,address,uint256,uint256)": {
        "details": "The interface of this function is intentionally kept compatible with Compound and Venus Core",
        "params": {
          "account": "The account to determine liquidity for",
          "borrowAmount": "The amount of underlying to hypothetically borrow",
          "redeemTokens": "The number of tokens to hypothetically redeem",
          "vTokenModify": "The market to hypothetically redeem/borrow in"
        },
        "returns": {
          "_0": "(possible error code (semi-opaque), hypothetical account liquidity in excess of collateral requirements,          hypothetical account shortfall below collateral requirements)"
        }
      },
      "healAccount(address)": {
        "details": "Reverts in case of failure",
        "params": {
          "user": "account to heal"
        }
      },
      "isDeprecated(address)": {
        "details": "All borrows in a deprecated vToken market can be immediately liquidated",
        "params": {
          "vToken": "The market to check if deprecated"
        }
      },
      "liquidateAccount(address,(address,address,uint256)[])": {
        "params": {
          "borrower": "the borrower address",
          "orders": "an array of liquidation orders"
        }
      },
      "liquidateBorrowAllowed(address,address,address,address,uint256,bool)": {
        "params": {
          "borrower": "The address of the borrower",
          "liquidator": "The address repaying the borrow and seizing the collateral",
          "repayAmount": "The amount of underlying being repaid",
          "skipLiquidityCheck": "Allows the borrow to be liquidated regardless of the account liquidity",
          "vTokenBorrowed": "Asset which was borrowed by the borrower",
          "vTokenCollateral": "Asset which was used as collateral and will be seized"
        }
      },
      "liquidateBorrowVerify(address,address,address,address,uint256,uint256)": {
        "params": {
          "actualRepayAmount": "The amount of underlying being repaid",
          "borrower": "The address of the borrower",
          "liquidator": "The address repaying the borrow and seizing the collateral",
          "vTokenBorrowed": "Asset which was borrowed by the borrower",
          "vTokenCollateral": "Asset which was used as collateral and will be seized"
        }
      },
      "liquidateCalculateSeizeTokens(address,address,uint256)": {
        "details": "Used in liquidation (called in vToken.liquidateBorrowFresh)",
        "params": {
          "actualRepayAmount": "The amount of vTokenBorrowed underlying to convert into vTokenCollateral tokens",
          "vTokenBorrowed": "The address of the borrowed vToken",
          "vTokenCollateral": "The address of the collateral vToken"
        },
        "returns": {
          "_0": "(errorCode, number of vTokenCollateral tokens to be seized in a liquidation)"
        }
      },
      "mintAllowed(address,address,uint256)": {
        "params": {
          "mintAmount": "The amount of underlying being supplied to the market in exchange for tokens",
          "minter": "The account which would get the minted tokens",
          "vToken": "The market to verify the mint against"
        },
        "returns": {
          "_0": "0 if the mint is allowed, otherwise a semi-opaque error code (See ErrorReporter.sol)"
        }
      },
      "mintVerify(address,address,uint256,uint256)": {
        "params": {
          "actualMintAmount": "The amount of the underlying asset being minted",
          "mintTokens": "The number of tokens being minted",
          "minter": "The address minting the tokens",
          "vToken": "Asset being minted"
        }
      },
      "redeemAllowed(address,address,uint256)": {
        "params": {
          "redeemTokens": "The number of vTokens to exchange for the underlying asset in the market",
          "redeemer": "The account which would redeem the tokens",
          "vToken": "The market to verify the redeem against"
        },
        "returns": {
          "_0": "0 if the redeem is allowed, otherwise a semi-opaque error code (See ErrorReporter.sol)"
        }
      },
      "redeemVerify(address,address,uint256,uint256)": {
        "params": {
          "redeemAmount": "The amount of the underlying asset being redeemed",
          "redeemTokens": "The number of tokens being redeemed",
          "redeemer": "The address redeeming the tokens",
          "vToken": "Asset being redeemed"
        }
      },
      "repayBorrowAllowed(address,address,address,uint256)": {
        "params": {
          "borrower": "The account which would borrowed the asset",
          "payer": "The account which would repay the asset",
          "repayAmount": "The amount of the underlying asset the account would repay",
          "vToken": "The market to verify the repay against"
        },
        "returns": {
          "_0": "0 if the repay is allowed, otherwise a semi-opaque error code (See ErrorReporter.sol)"
        }
      },
      "repayBorrowVerify(address,address,address,uint256,uint256)": {
        "params": {
          "actualRepayAmount": "The amount of underlying being repaid",
          "borrower": "The address of the borrower",
          "payer": "The address repaying the borrow",
          "vToken": "Asset being repaid"
        }
      },
      "seizeAllowed(address,address,address,address,uint256)": {
        "params": {
          "borrower": "The address of the borrower",
          "liquidator": "The address repaying the borrow and seizing the collateral",
          "seizeTokens": "The number of collateral tokens to seize",
          "seizerContract": "Contract that tries to seize the asset (either borrowed vToken or Comptroller)",
          "vTokenCollateral": "Asset which was used as collateral and will be seized"
        }
      },
      "seizeVerify(address,address,address,address,uint256)": {
        "params": {
          "borrower": "The address of the borrower",
          "liquidator": "The address repaying the borrow and seizing the collateral",
          "seizeTokens": "The number of collateral tokens to seize",
          "vTokenBorrowed": "Asset which was borrowed by the borrower",
          "vTokenCollateral": "Asset which was used as collateral and will be seized"
        }
      },
      "setPendingAdmin(address)": {
        "details": "Admin function to begin change of admin. The newPendingAdmin must call `_acceptAdmin` to finalize the transfer.",
        "params": {
          "newPendingAdmin_": "New pending admin."
        }
      },
      "transferAllowed(address,address,address,uint256)": {
        "params": {
          "dst": "The account which receives the tokens",
          "src": "The account which sources the tokens",
          "transferTokens": "The number of vTokens to transfer",
          "vToken": "The market to verify the transfer against"
        },
        "returns": {
          "_0": "0 if the transfer is allowed, otherwise a semi-opaque error code (See ErrorReporter.sol)"
        }
      },
      "transferVerify(address,address,address,uint256)": {
        "params": {
          "dst": "The account which receives the tokens",
          "src": "The account which sources the tokens",
          "transferTokens": "The number of vTokens to transfer",
          "vToken": "Asset being transferred"
        }
      }
    },
    "title": "Compound's Comptroller Contract",
    "version": 1
  },
  "userdoc": {
    "errors": {
      "MinimalCollateralViolated(uint256,uint256)": [
        {
          "notice": "Throwed during the liquidation if user's total collateral amount is lower than   a predefined threshold. In this case only batch liquidations (either liquidateAccount   or healAccount) are available."
        }
      ],
      "OnlyAdminAllowed()": [
        {
          "notice": "Thrown if the caller is not authorized to perform an action"
        }
      ]
    },
    "events": {
      "ActionPausedMarket(address,uint8,bool)": {
        "notice": "Emitted when an action is paused on a market"
      },
      "MarketEntered(address,address)": {
        "notice": "Emitted when an account enters a market"
      },
      "MarketExited(address,address)": {
        "notice": "Emitted when an account exits a market"
      },
      "NewAdmin(address,address)": {
        "notice": "Emitted when pendingAdmin is accepted, which means admin is updated"
      },
      "NewBorrowCap(address,uint256)": {
        "notice": "Emitted when borrow cap for a vToken is changed"
      },
      "NewBorrowCapGuardian(address,address)": {
        "notice": "Emitted when borrow cap guardian is changed"
      },
      "NewCloseFactor(uint256,uint256)": {
        "notice": "Emitted when close factor is changed by admin"
      },
      "NewCollateralFactor(address,uint256,uint256)": {
        "notice": "Emitted when a collateral factor is changed by admin"
      },
      "NewLiquidationIncentive(uint256,uint256)": {
        "notice": "Emitted when liquidation incentive is changed by admin"
      },
      "NewLiquidationThreshold(address,uint256,uint256)": {
        "notice": "Emitted when liquidation threshold is changed by admin"
      },
      "NewMinLiquidatableCollateral(uint256,uint256)": {
        "notice": "Emitted when the collateral threshold (in USD) for non-batch liquidations is changed"
      },
      "NewPendingAdmin(address,address)": {
        "notice": "Emitted when pendingAdmin is changed"
      },
      "NewPriceOracle(address,address)": {
        "notice": "Emitted when price oracle is changed"
      },
      "NewSupplyCap(address,uint256)": {
        "notice": "Emitted when supply cap for a vToken is changed"
      }
    },
    "kind": "user",
    "methods": {
      "_setActionsPaused(address[],uint8[],bool)": {
        "notice": "Pause/unpause certain actions"
      },
      "_setCloseFactor(uint256)": {
        "notice": "Sets the closeFactor used when liquidating borrows"
      },
      "_setCollateralFactor(address,uint256,uint256)": {
        "notice": "Sets the collateralFactor for a market"
      },
      "_setLiquidationIncentive(uint256)": {
        "notice": "Sets liquidationIncentive"
      },
      "_setMarketBorrowCaps(address[],uint256[])": {
        "notice": "Set the given borrow caps for the given vToken markets. Borrowing that brings total borrows to or above borrow cap will revert."
      },
      "_setMarketSupplyCaps(address[],uint256[])": {
        "notice": "Set the given supply caps for the given vToken markets. Supply that brings total Supply to or above supply cap will revert."
      },
      "_setMinLiquidatableCollateral(uint256)": {
        "notice": "Set the given collateral threshold for non-batch liquidations. Regular liquidations   will fail if the collateral amount is less than this threshold. Liquidators should use batch   operations like liquidateAccount or healAccount."
      },
      "_setPriceOracle(address)": {
        "notice": "Sets a new price oracle for the comptroller"
      },
      "_supportMarket(address)": {
        "notice": "Add the market to the markets mapping and set it as listed"
      },
      "acceptAdmin()": {
        "notice": "Accepts transfer of admin rights. msg.sender must be pendingAdmin"
      },
      "accountAssets(address,uint256)": {
        "notice": "Per-account mapping of \"assets you are in\", capped by maxAssets"
      },
      "actionPaused(address,uint8)": {
        "notice": "Checks if a certain action is paused on a market"
      },
      "admin()": {
        "notice": "Administrator for this contract"
      },
      "allMarkets(uint256)": {
        "notice": "A list of all markets"
      },
      "borrowAllowed(address,address,uint256)": {
        "notice": "Checks if the account should be allowed to borrow the underlying asset of the given market"
      },
      "borrowVerify(address,address,uint256)": {
        "notice": "Validates borrow and reverts on rejection. May emit logs."
      },
      "checkMembership(address,address)": {
        "notice": "Returns whether the given account is entered in the given asset"
      },
      "closeFactorMantissa()": {
        "notice": "Multiplier used to calculate the maximum repayAmount when liquidating a borrow"
      },
      "enterMarkets(address[])": {
        "notice": "Add assets to be included in account liquidity calculation"
      },
      "exitMarket(address)": {
        "notice": "Removes asset from sender's account liquidity calculation"
      },
      "getAccountLiquidity(address)": {
        "notice": "Determine the current account liquidity wrt collateral requirements"
      },
      "getAllMarkets()": {
        "notice": "Return all of the markets"
      },
      "getAssetsIn(address)": {
        "notice": "Returns the assets an account has entered"
      },
      "getHypotheticalAccountLiquidity(address,address,uint256,uint256)": {
        "notice": "Determine what the account liquidity would be if the given amounts were redeemed/borrowed"
      },
      "healAccount(address)": {
        "notice": "Seizes all the remaining collateral, makes msg.sender repay the existing   borrows, and treats the rest of the debt as bad debt (for each market).   The sender has to repay a certain percentage of the debt, computed as   collateral / (borrows * liquidationIncentive)."
      },
      "isComptroller()": {
        "notice": "Indicator that this is a Comptroller contract (for inspection)"
      },
      "isDeprecated(address)": {
        "notice": "Returns true if the given vToken market has been deprecated"
      },
      "liquidateAccount(address,(address,address,uint256)[])": {
        "notice": "Liquidates all borrows of the borrower. Callable only if the collateral is less than   a predefined threshold, and the account collateral can be seized to cover all borrows. If   the collateral is higher than the threshold, use regular liquidations. If the collateral is   below the threshold, and the account is insolvent, use healAccount."
      },
      "liquidateBorrowAllowed(address,address,address,address,uint256,bool)": {
        "notice": "Checks if the liquidation should be allowed to occur"
      },
      "liquidateBorrowVerify(address,address,address,address,uint256,uint256)": {
        "notice": "Validates liquidateBorrow and reverts on rejection. May emit logs."
      },
      "liquidateCalculateSeizeTokens(address,address,uint256)": {
        "notice": "Calculate number of tokens of collateral asset to seize given an underlying amount"
      },
      "liquidationIncentiveMantissa()": {
        "notice": "Multiplier representing the discount on collateral that a liquidator receives"
      },
      "markets(address)": {
        "notice": "Official mapping of vTokens -> Market metadata"
      },
      "maxAssets()": {
        "notice": "Max number of assets a single account can participate in (borrow or use as collateral)"
      },
      "minLiquidatableCollateral()": {
        "notice": "Minimal collateral required for regular (non-batch) liquidations"
      },
      "mintAllowed(address,address,uint256)": {
        "notice": "Checks if the account should be allowed to mint tokens in the given market"
      },
      "mintVerify(address,address,uint256,uint256)": {
        "notice": "Validates mint and reverts on rejection. May emit logs."
      },
      "oracle()": {
        "notice": "Oracle which gives the price of any given asset"
      },
      "pauseGuardian()": {
        "notice": "The Pause Guardian can pause certain actions as a safety mechanism.  Actions which allow users to remove their own assets cannot be paused.  Liquidation / seizing / transfer can only be paused globally, not by market. NOTE: THIS VALUE IS NOT USED IN COMPTROLLER. HOWEVER IT IS ALREADY USED IN COMTROLLERG7 \t\t AND IS CAUSING COMPILATION ERROR IF REMOVED."
      },
      "pendingAdmin()": {
        "notice": "Pending administrator for this contract"
      },
      "redeemAllowed(address,address,uint256)": {
        "notice": "Checks if the account should be allowed to redeem tokens in the given market"
      },
      "redeemVerify(address,address,uint256,uint256)": {
        "notice": "Validates redeem and reverts on rejection. May emit logs."
      },
      "repayBorrowAllowed(address,address,address,uint256)": {
        "notice": "Checks if the account should be allowed to repay a borrow in the given market"
      },
      "repayBorrowVerify(address,address,address,uint256,uint256)": {
        "notice": "Validates repayBorrow and reverts on rejection. May emit logs."
      },
      "seizeAllowed(address,address,address,address,uint256)": {
        "notice": "Checks if the seizing of assets should be allowed to occur"
      },
      "seizeVerify(address,address,address,address,uint256)": {
        "notice": "Validates seize and reverts on rejection. May emit logs."
      },
      "setPendingAdmin(address)": {
        "notice": "Begins transfer of admin rights. The newPendingAdmin must call `_acceptAdmin` to finalize the transfer."
      },
      "supplyCaps(address)": {
        "notice": "Supply caps enforced by mintAllowed for each vToken address. Defaults to zero which corresponds to minting notAllowed"
      },
      "transferAllowed(address,address,address,uint256)": {
        "notice": "Checks if the account should be allowed to transfer tokens in the given market"
      },
      "transferVerify(address,address,address,uint256)": {
        "notice": "Validates transfer and reverts on rejection. May emit logs."
      }
    },
    "version": 1
  },
  "storageLayout": {
    "storage": [
      {
        "astId": 218,
        "contract": "contracts/Comptroller.sol:Comptroller",
        "label": "_initialized",
        "offset": 0,
        "slot": "0",
        "type": "t_uint8"
      },
      {
        "astId": 221,
        "contract": "contracts/Comptroller.sol:Comptroller",
        "label": "_initializing",
        "offset": 1,
        "slot": "0",
        "type": "t_bool"
      },
      {
        "astId": 832,
        "contract": "contracts/Comptroller.sol:Comptroller",
        "label": "__gap",
        "offset": 0,
        "slot": "1",
        "type": "t_array(t_uint256)50_storage"
      },
      {
        "astId": 19616,
        "contract": "contracts/Comptroller.sol:Comptroller",
        "label": "admin",
        "offset": 0,
        "slot": "51",
        "type": "t_address"
      },
      {
        "astId": 19621,
        "contract": "contracts/Comptroller.sol:Comptroller",
        "label": "__gap",
        "offset": 0,
        "slot": "52",
        "type": "t_array(t_uint256)49_storage"
      },
      {
        "astId": 19624,
        "contract": "contracts/Comptroller.sol:Comptroller",
        "label": "pendingAdmin",
        "offset": 0,
        "slot": "101",
        "type": "t_address"
      },
      {
        "astId": 9767,
        "contract": "contracts/Comptroller.sol:Comptroller",
        "label": "oracle",
        "offset": 0,
        "slot": "102",
        "type": "t_contract(PriceOracle)5734"
      },
      {
        "astId": 9770,
        "contract": "contracts/Comptroller.sol:Comptroller",
        "label": "closeFactorMantissa",
        "offset": 0,
        "slot": "103",
        "type": "t_uint256"
      },
      {
        "astId": 9773,
        "contract": "contracts/Comptroller.sol:Comptroller",
        "label": "liquidationIncentiveMantissa",
        "offset": 0,
        "slot": "104",
        "type": "t_uint256"
      },
      {
        "astId": 9776,
        "contract": "contracts/Comptroller.sol:Comptroller",
        "label": "maxAssets",
        "offset": 0,
        "slot": "105",
        "type": "t_uint256"
      },
      {
        "astId": 9783,
        "contract": "contracts/Comptroller.sol:Comptroller",
        "label": "accountAssets",
        "offset": 0,
        "slot": "106",
        "type": "t_mapping(t_address,t_array(t_contract(VToken)18949)dyn_storage)"
      },
      {
        "astId": 9800,
        "contract": "contracts/Comptroller.sol:Comptroller",
        "label": "markets",
        "offset": 0,
        "slot": "107",
        "type": "t_mapping(t_address,t_struct(Market)9794_storage)"
      },
      {
        "astId": 9803,
        "contract": "contracts/Comptroller.sol:Comptroller",
        "label": "pauseGuardian",
        "offset": 0,
        "slot": "108",
        "type": "t_address"
      },
      {
        "astId": 9805,
        "contract": "contracts/Comptroller.sol:Comptroller",
        "label": "transferGuardianPaused",
        "offset": 20,
        "slot": "108",
        "type": "t_bool"
      },
      {
        "astId": 9807,
        "contract": "contracts/Comptroller.sol:Comptroller",
        "label": "seizeGuardianPaused",
        "offset": 21,
        "slot": "108",
        "type": "t_bool"
      },
      {
        "astId": 9811,
        "contract": "contracts/Comptroller.sol:Comptroller",
        "label": "mintGuardianPaused",
        "offset": 0,
        "slot": "109",
        "type": "t_mapping(t_address,t_bool)"
      },
      {
        "astId": 9815,
        "contract": "contracts/Comptroller.sol:Comptroller",
        "label": "borrowGuardianPaused",
        "offset": 0,
        "slot": "110",
        "type": "t_mapping(t_address,t_bool)"
      },
      {
        "astId": 9820,
        "contract": "contracts/Comptroller.sol:Comptroller",
        "label": "allMarkets",
        "offset": 0,
        "slot": "111",
        "type": "t_array(t_contract(VToken)18949)dyn_storage"
      },
      {
        "astId": 9822,
        "contract": "contracts/Comptroller.sol:Comptroller",
        "label": "borrowCapGuardian",
        "offset": 0,
        "slot": "112",
        "type": "t_address"
      },
      {
        "astId": 9826,
        "contract": "contracts/Comptroller.sol:Comptroller",
        "label": "borrowCaps",
        "offset": 0,
        "slot": "113",
        "type": "t_mapping(t_address,t_uint256)"
      },
      {
        "astId": 9829,
        "contract": "contracts/Comptroller.sol:Comptroller",
        "label": "minLiquidatableCollateral",
        "offset": 0,
        "slot": "114",
        "type": "t_uint256"
      },
      {
        "astId": 9834,
        "contract": "contracts/Comptroller.sol:Comptroller",
        "label": "supplyCaps",
        "offset": 0,
        "slot": "115",
        "type": "t_mapping(t_address,t_uint256)"
      },
      {
        "astId": 9852,
        "contract": "contracts/Comptroller.sol:Comptroller",
        "label": "_actionPaused",
        "offset": 0,
        "slot": "116",
        "type": "t_mapping(t_address,t_mapping(t_enum(Action)9844,t_bool))"
      },
      {
        "astId": 6161,
        "contract": "contracts/Comptroller.sol:Comptroller",
        "label": "rewardsDistributors",
        "offset": 0,
        "slot": "117",
        "type": "t_array(t_contract(RewardsDistributor)14091)dyn_storage"
      },
      {
        "astId": 6165,
        "contract": "contracts/Comptroller.sol:Comptroller",
        "label": "rewardsDistributorExists",
        "offset": 0,
        "slot": "118",
        "type": "t_mapping(t_address,t_bool)"
      }
    ],
    "types": {
      "t_address": {
        "encoding": "inplace",
        "label": "address",
        "numberOfBytes": "20"
      },
      "t_array(t_contract(RewardsDistributor)14091)dyn_storage": {
        "base": "t_contract(RewardsDistributor)14091",
        "encoding": "dynamic_array",
        "label": "contract RewardsDistributor[]",
        "numberOfBytes": "32"
      },
      "t_array(t_contract(VToken)18949)dyn_storage": {
        "base": "t_contract(VToken)18949",
        "encoding": "dynamic_array",
        "label": "contract VToken[]",
        "numberOfBytes": "32"
      },
      "t_array(t_uint256)49_storage": {
        "base": "t_uint256",
        "encoding": "inplace",
        "label": "uint256[49]",
        "numberOfBytes": "1568"
      },
      "t_array(t_uint256)50_storage": {
        "base": "t_uint256",
        "encoding": "inplace",
        "label": "uint256[50]",
        "numberOfBytes": "1600"
      },
      "t_bool": {
        "encoding": "inplace",
        "label": "bool",
        "numberOfBytes": "1"
      },
      "t_contract(PriceOracle)5734": {
        "encoding": "inplace",
        "label": "contract PriceOracle",
        "numberOfBytes": "20"
      },
      "t_contract(RewardsDistributor)14091": {
        "encoding": "inplace",
        "label": "contract RewardsDistributor",
        "numberOfBytes": "20"
      },
      "t_contract(VToken)18949": {
        "encoding": "inplace",
        "label": "contract VToken",
        "numberOfBytes": "20"
      },
      "t_enum(Action)9844": {
        "encoding": "inplace",
        "label": "enum ComptrollerV1Storage.Action",
        "numberOfBytes": "1"
      },
      "t_mapping(t_address,t_array(t_contract(VToken)18949)dyn_storage)": {
        "encoding": "mapping",
        "key": "t_address",
        "label": "mapping(address => contract VToken[])",
        "numberOfBytes": "32",
        "value": "t_array(t_contract(VToken)18949)dyn_storage"
      },
      "t_mapping(t_address,t_bool)": {
        "encoding": "mapping",
        "key": "t_address",
        "label": "mapping(address => bool)",
        "numberOfBytes": "32",
        "value": "t_bool"
      },
      "t_mapping(t_address,t_mapping(t_enum(Action)9844,t_bool))": {
        "encoding": "mapping",
        "key": "t_address",
        "label": "mapping(address => mapping(enum ComptrollerV1Storage.Action => bool))",
        "numberOfBytes": "32",
        "value": "t_mapping(t_enum(Action)9844,t_bool)"
      },
      "t_mapping(t_address,t_struct(Market)9794_storage)": {
        "encoding": "mapping",
        "key": "t_address",
        "label": "mapping(address => struct ComptrollerV1Storage.Market)",
        "numberOfBytes": "32",
        "value": "t_struct(Market)9794_storage"
      },
      "t_mapping(t_address,t_uint256)": {
        "encoding": "mapping",
        "key": "t_address",
        "label": "mapping(address => uint256)",
        "numberOfBytes": "32",
        "value": "t_uint256"
      },
      "t_mapping(t_enum(Action)9844,t_bool)": {
        "encoding": "mapping",
        "key": "t_enum(Action)9844",
        "label": "mapping(enum ComptrollerV1Storage.Action => bool)",
        "numberOfBytes": "32",
        "value": "t_bool"
      },
      "t_struct(Market)9794_storage": {
        "encoding": "inplace",
        "label": "struct ComptrollerV1Storage.Market",
        "members": [
          {
            "astId": 9785,
            "contract": "contracts/Comptroller.sol:Comptroller",
            "label": "isListed",
            "offset": 0,
            "slot": "0",
            "type": "t_bool"
          },
          {
            "astId": 9787,
            "contract": "contracts/Comptroller.sol:Comptroller",
            "label": "collateralFactorMantissa",
            "offset": 0,
            "slot": "1",
            "type": "t_uint256"
          },
          {
            "astId": 9789,
            "contract": "contracts/Comptroller.sol:Comptroller",
            "label": "liquidationThresholdMantissa",
            "offset": 0,
            "slot": "2",
            "type": "t_uint256"
          },
          {
            "astId": 9793,
            "contract": "contracts/Comptroller.sol:Comptroller",
            "label": "accountMembership",
            "offset": 0,
            "slot": "3",
            "type": "t_mapping(t_address,t_bool)"
          }
        ],
        "numberOfBytes": "128"
      },
      "t_uint256": {
        "encoding": "inplace",
        "label": "uint256",
        "numberOfBytes": "32"
      },
      "t_uint8": {
        "encoding": "inplace",
        "label": "uint8",
        "numberOfBytes": "1"
      }
    }
  }
}