{
  "address": "0xd085C4336945220A69d3B7551C115c1d8bb4fedD",
  "abi": [
    {
      "inputs": [
        {
          "internalType": "address",
          "name": "poolRegistryAddress",
          "type": "address"
        }
      ],
      "name": "getAllPools",
      "outputs": [
        {
          "components": [
            {
              "internalType": "string",
              "name": "name",
              "type": "string"
            },
            {
              "internalType": "address",
              "name": "creator",
              "type": "address"
            },
            {
              "internalType": "address",
              "name": "comptroller",
              "type": "address"
            },
            {
              "internalType": "uint256",
              "name": "blockPosted",
              "type": "uint256"
            },
            {
              "internalType": "uint256",
              "name": "timestampPosted",
              "type": "uint256"
            },
            {
              "internalType": "enum PoolRegistryInterface.RiskRating",
              "name": "riskRating",
              "type": "uint8"
            },
            {
              "internalType": "string",
              "name": "category",
              "type": "string"
            },
            {
              "internalType": "string",
              "name": "logoURL",
              "type": "string"
            },
            {
              "internalType": "string",
              "name": "description",
              "type": "string"
            },
            {
              "internalType": "address",
              "name": "priceOracle",
              "type": "address"
            },
            {
              "internalType": "uint256",
              "name": "closeFactor",
              "type": "uint256"
            },
            {
              "internalType": "uint256",
              "name": "liquidationIncentive",
              "type": "uint256"
            },
            {
              "internalType": "uint256",
              "name": "minLiquidatableCollateral",
              "type": "uint256"
            },
            {
              "components": [
                {
                  "internalType": "address",
                  "name": "vToken",
                  "type": "address"
                },
                {
                  "internalType": "uint256",
                  "name": "exchangeRateCurrent",
                  "type": "uint256"
                },
                {
                  "internalType": "uint256",
                  "name": "supplyRatePerBlock",
                  "type": "uint256"
                },
                {
                  "internalType": "uint256",
                  "name": "borrowRatePerBlock",
                  "type": "uint256"
                },
                {
                  "internalType": "uint256",
                  "name": "reserveFactorMantissa",
                  "type": "uint256"
                },
                {
                  "internalType": "uint256",
                  "name": "totalBorrows",
                  "type": "uint256"
                },
                {
                  "internalType": "uint256",
                  "name": "totalReserves",
                  "type": "uint256"
                },
                {
                  "internalType": "uint256",
                  "name": "totalSupply",
                  "type": "uint256"
                },
                {
                  "internalType": "uint256",
                  "name": "totalCash",
                  "type": "uint256"
                },
                {
                  "internalType": "bool",
                  "name": "isListed",
                  "type": "bool"
                },
                {
                  "internalType": "uint256",
                  "name": "collateralFactorMantissa",
                  "type": "uint256"
                },
                {
                  "internalType": "address",
                  "name": "underlyingAssetAddress",
                  "type": "address"
                },
                {
                  "internalType": "uint256",
                  "name": "vTokenDecimals",
                  "type": "uint256"
                },
                {
                  "internalType": "uint256",
                  "name": "underlyingDecimals",
                  "type": "uint256"
                }
              ],
              "internalType": "struct PoolLens.VTokenMetadata[]",
              "name": "vTokens",
              "type": "tuple[]"
            }
          ],
          "internalType": "struct PoolLens.PoolData[]",
          "name": "",
          "type": "tuple[]"
        }
      ],
      "stateMutability": "view",
      "type": "function"
    },
    {
      "inputs": [
        {
          "internalType": "address",
          "name": "account",
          "type": "address"
        },
        {
          "internalType": "address",
          "name": "comptrollerAddress",
          "type": "address"
        }
      ],
      "name": "getPendingRewards",
      "outputs": [
        {
          "components": [
            {
              "internalType": "address",
              "name": "distributorAddress",
              "type": "address"
            },
            {
              "internalType": "address",
              "name": "rewardTokenAddress",
              "type": "address"
            },
            {
              "internalType": "uint256",
              "name": "totalRewards",
              "type": "uint256"
            },
            {
              "components": [
                {
                  "internalType": "address",
                  "name": "vTokenAddress",
                  "type": "address"
                },
                {
                  "internalType": "uint256",
                  "name": "amount",
                  "type": "uint256"
                }
              ],
              "internalType": "struct PoolLens.PendingReward[]",
              "name": "pendingRewards",
              "type": "tuple[]"
            }
          ],
          "internalType": "struct PoolLens.RewardSummary[]",
          "name": "",
          "type": "tuple[]"
        }
      ],
      "stateMutability": "view",
      "type": "function"
    },
    {
      "inputs": [
        {
          "internalType": "address",
          "name": "poolRegistryAddress",
          "type": "address"
        },
        {
          "internalType": "address",
          "name": "comptroller",
          "type": "address"
        }
      ],
      "name": "getPoolByComptroller",
      "outputs": [
        {
          "components": [
            {
              "internalType": "string",
              "name": "name",
              "type": "string"
            },
            {
              "internalType": "address",
              "name": "creator",
              "type": "address"
            },
            {
              "internalType": "address",
              "name": "comptroller",
              "type": "address"
            },
            {
              "internalType": "uint256",
              "name": "blockPosted",
              "type": "uint256"
            },
            {
              "internalType": "uint256",
              "name": "timestampPosted",
              "type": "uint256"
            },
            {
              "internalType": "enum PoolRegistryInterface.RiskRating",
              "name": "riskRating",
              "type": "uint8"
            },
            {
              "internalType": "string",
              "name": "category",
              "type": "string"
            },
            {
              "internalType": "string",
              "name": "logoURL",
              "type": "string"
            },
            {
              "internalType": "string",
              "name": "description",
              "type": "string"
            },
            {
              "internalType": "address",
              "name": "priceOracle",
              "type": "address"
            },
            {
              "internalType": "uint256",
              "name": "closeFactor",
              "type": "uint256"
            },
            {
              "internalType": "uint256",
              "name": "liquidationIncentive",
              "type": "uint256"
            },
            {
              "internalType": "uint256",
              "name": "minLiquidatableCollateral",
              "type": "uint256"
            },
            {
              "components": [
                {
                  "internalType": "address",
                  "name": "vToken",
                  "type": "address"
                },
                {
                  "internalType": "uint256",
                  "name": "exchangeRateCurrent",
                  "type": "uint256"
                },
                {
                  "internalType": "uint256",
                  "name": "supplyRatePerBlock",
                  "type": "uint256"
                },
                {
                  "internalType": "uint256",
                  "name": "borrowRatePerBlock",
                  "type": "uint256"
                },
                {
                  "internalType": "uint256",
                  "name": "reserveFactorMantissa",
                  "type": "uint256"
                },
                {
                  "internalType": "uint256",
                  "name": "totalBorrows",
                  "type": "uint256"
                },
                {
                  "internalType": "uint256",
                  "name": "totalReserves",
                  "type": "uint256"
                },
                {
                  "internalType": "uint256",
                  "name": "totalSupply",
                  "type": "uint256"
                },
                {
                  "internalType": "uint256",
                  "name": "totalCash",
                  "type": "uint256"
                },
                {
                  "internalType": "bool",
                  "name": "isListed",
                  "type": "bool"
                },
                {
                  "internalType": "uint256",
                  "name": "collateralFactorMantissa",
                  "type": "uint256"
                },
                {
                  "internalType": "address",
                  "name": "underlyingAssetAddress",
                  "type": "address"
                },
                {
                  "internalType": "uint256",
                  "name": "vTokenDecimals",
                  "type": "uint256"
                },
                {
                  "internalType": "uint256",
                  "name": "underlyingDecimals",
                  "type": "uint256"
                }
              ],
              "internalType": "struct PoolLens.VTokenMetadata[]",
              "name": "vTokens",
              "type": "tuple[]"
            }
          ],
          "internalType": "struct PoolLens.PoolData",
          "name": "",
          "type": "tuple"
        }
      ],
      "stateMutability": "view",
      "type": "function"
    },
    {
      "inputs": [
        {
          "internalType": "address",
          "name": "poolRegistryAddress",
          "type": "address"
        },
        {
          "components": [
            {
              "internalType": "string",
              "name": "name",
              "type": "string"
            },
            {
              "internalType": "address",
              "name": "creator",
              "type": "address"
            },
            {
              "internalType": "address",
              "name": "comptroller",
              "type": "address"
            },
            {
              "internalType": "uint256",
              "name": "blockPosted",
              "type": "uint256"
            },
            {
              "internalType": "uint256",
              "name": "timestampPosted",
              "type": "uint256"
            }
          ],
          "internalType": "struct PoolRegistryInterface.VenusPool",
          "name": "venusPool",
          "type": "tuple"
        }
      ],
      "name": "getPoolDataFromVenusPool",
      "outputs": [
        {
          "components": [
            {
              "internalType": "string",
              "name": "name",
              "type": "string"
            },
            {
              "internalType": "address",
              "name": "creator",
              "type": "address"
            },
            {
              "internalType": "address",
              "name": "comptroller",
              "type": "address"
            },
            {
              "internalType": "uint256",
              "name": "blockPosted",
              "type": "uint256"
            },
            {
              "internalType": "uint256",
              "name": "timestampPosted",
              "type": "uint256"
            },
            {
              "internalType": "enum PoolRegistryInterface.RiskRating",
              "name": "riskRating",
              "type": "uint8"
            },
            {
              "internalType": "string",
              "name": "category",
              "type": "string"
            },
            {
              "internalType": "string",
              "name": "logoURL",
              "type": "string"
            },
            {
              "internalType": "string",
              "name": "description",
              "type": "string"
            },
            {
              "internalType": "address",
              "name": "priceOracle",
              "type": "address"
            },
            {
              "internalType": "uint256",
              "name": "closeFactor",
              "type": "uint256"
            },
            {
              "internalType": "uint256",
              "name": "liquidationIncentive",
              "type": "uint256"
            },
            {
              "internalType": "uint256",
              "name": "minLiquidatableCollateral",
              "type": "uint256"
            },
            {
              "components": [
                {
                  "internalType": "address",
                  "name": "vToken",
                  "type": "address"
                },
                {
                  "internalType": "uint256",
                  "name": "exchangeRateCurrent",
                  "type": "uint256"
                },
                {
                  "internalType": "uint256",
                  "name": "supplyRatePerBlock",
                  "type": "uint256"
                },
                {
                  "internalType": "uint256",
                  "name": "borrowRatePerBlock",
                  "type": "uint256"
                },
                {
                  "internalType": "uint256",
                  "name": "reserveFactorMantissa",
                  "type": "uint256"
                },
                {
                  "internalType": "uint256",
                  "name": "totalBorrows",
                  "type": "uint256"
                },
                {
                  "internalType": "uint256",
                  "name": "totalReserves",
                  "type": "uint256"
                },
                {
                  "internalType": "uint256",
                  "name": "totalSupply",
                  "type": "uint256"
                },
                {
                  "internalType": "uint256",
                  "name": "totalCash",
                  "type": "uint256"
                },
                {
                  "internalType": "bool",
                  "name": "isListed",
                  "type": "bool"
                },
                {
                  "internalType": "uint256",
                  "name": "collateralFactorMantissa",
                  "type": "uint256"
                },
                {
                  "internalType": "address",
                  "name": "underlyingAssetAddress",
                  "type": "address"
                },
                {
                  "internalType": "uint256",
                  "name": "vTokenDecimals",
                  "type": "uint256"
                },
                {
                  "internalType": "uint256",
                  "name": "underlyingDecimals",
                  "type": "uint256"
                }
              ],
              "internalType": "struct PoolLens.VTokenMetadata[]",
              "name": "vTokens",
              "type": "tuple[]"
            }
          ],
          "internalType": "struct PoolLens.PoolData",
          "name": "",
          "type": "tuple"
        }
      ],
      "stateMutability": "view",
      "type": "function"
    },
    {
      "inputs": [
        {
          "internalType": "address",
          "name": "poolRegistryAddress",
          "type": "address"
        },
        {
          "internalType": "address",
          "name": "asset",
          "type": "address"
        }
      ],
      "name": "getPoolsSupportedByAsset",
      "outputs": [
        {
          "internalType": "address[]",
          "name": "",
          "type": "address[]"
        }
      ],
      "stateMutability": "view",
      "type": "function"
    },
    {
      "inputs": [
        {
          "internalType": "address",
          "name": "poolRegistryAddress",
          "type": "address"
        },
        {
          "internalType": "address",
          "name": "comptroller",
          "type": "address"
        },
        {
          "internalType": "address",
          "name": "asset",
          "type": "address"
        }
      ],
      "name": "getVTokenForAsset",
      "outputs": [
        {
          "internalType": "address",
          "name": "",
          "type": "address"
        }
      ],
      "stateMutability": "view",
      "type": "function"
    },
    {
      "inputs": [
        {
          "internalType": "contract VToken",
          "name": "vToken",
          "type": "address"
        },
        {
          "internalType": "address",
          "name": "account",
          "type": "address"
        }
      ],
      "name": "vTokenBalances",
      "outputs": [
        {
          "components": [
            {
              "internalType": "address",
              "name": "vToken",
              "type": "address"
            },
            {
              "internalType": "uint256",
              "name": "balanceOf",
              "type": "uint256"
            },
            {
              "internalType": "uint256",
              "name": "borrowBalanceCurrent",
              "type": "uint256"
            },
            {
              "internalType": "uint256",
              "name": "balanceOfUnderlying",
              "type": "uint256"
            },
            {
              "internalType": "uint256",
              "name": "tokenBalance",
              "type": "uint256"
            },
            {
              "internalType": "uint256",
              "name": "tokenAllowance",
              "type": "uint256"
            }
          ],
          "internalType": "struct PoolLens.VTokenBalances",
          "name": "",
          "type": "tuple"
        }
      ],
      "stateMutability": "nonpayable",
      "type": "function"
    },
    {
      "inputs": [
        {
          "internalType": "contract VToken[]",
          "name": "vTokens",
          "type": "address[]"
        },
        {
          "internalType": "address",
          "name": "account",
          "type": "address"
        }
      ],
      "name": "vTokenBalancesAll",
      "outputs": [
        {
          "components": [
            {
              "internalType": "address",
              "name": "vToken",
              "type": "address"
            },
            {
              "internalType": "uint256",
              "name": "balanceOf",
              "type": "uint256"
            },
            {
              "internalType": "uint256",
              "name": "borrowBalanceCurrent",
              "type": "uint256"
            },
            {
              "internalType": "uint256",
              "name": "balanceOfUnderlying",
              "type": "uint256"
            },
            {
              "internalType": "uint256",
              "name": "tokenBalance",
              "type": "uint256"
            },
            {
              "internalType": "uint256",
              "name": "tokenAllowance",
              "type": "uint256"
            }
          ],
          "internalType": "struct PoolLens.VTokenBalances[]",
          "name": "",
          "type": "tuple[]"
        }
      ],
      "stateMutability": "nonpayable",
      "type": "function"
    },
    {
      "inputs": [
        {
          "internalType": "contract VToken",
          "name": "vToken",
          "type": "address"
        }
      ],
      "name": "vTokenMetadata",
      "outputs": [
        {
          "components": [
            {
              "internalType": "address",
              "name": "vToken",
              "type": "address"
            },
            {
              "internalType": "uint256",
              "name": "exchangeRateCurrent",
              "type": "uint256"
            },
            {
              "internalType": "uint256",
              "name": "supplyRatePerBlock",
              "type": "uint256"
            },
            {
              "internalType": "uint256",
              "name": "borrowRatePerBlock",
              "type": "uint256"
            },
            {
              "internalType": "uint256",
              "name": "reserveFactorMantissa",
              "type": "uint256"
            },
            {
              "internalType": "uint256",
              "name": "totalBorrows",
              "type": "uint256"
            },
            {
              "internalType": "uint256",
              "name": "totalReserves",
              "type": "uint256"
            },
            {
              "internalType": "uint256",
              "name": "totalSupply",
              "type": "uint256"
            },
            {
              "internalType": "uint256",
              "name": "totalCash",
              "type": "uint256"
            },
            {
              "internalType": "bool",
              "name": "isListed",
              "type": "bool"
            },
            {
              "internalType": "uint256",
              "name": "collateralFactorMantissa",
              "type": "uint256"
            },
            {
              "internalType": "address",
              "name": "underlyingAssetAddress",
              "type": "address"
            },
            {
              "internalType": "uint256",
              "name": "vTokenDecimals",
              "type": "uint256"
            },
            {
              "internalType": "uint256",
              "name": "underlyingDecimals",
              "type": "uint256"
            }
          ],
          "internalType": "struct PoolLens.VTokenMetadata",
          "name": "",
          "type": "tuple"
        }
      ],
      "stateMutability": "view",
      "type": "function"
    },
    {
      "inputs": [
        {
          "internalType": "contract VToken[]",
          "name": "vTokens",
          "type": "address[]"
        }
      ],
      "name": "vTokenMetadataAll",
      "outputs": [
        {
          "components": [
            {
              "internalType": "address",
              "name": "vToken",
              "type": "address"
            },
            {
              "internalType": "uint256",
              "name": "exchangeRateCurrent",
              "type": "uint256"
            },
            {
              "internalType": "uint256",
              "name": "supplyRatePerBlock",
              "type": "uint256"
            },
            {
              "internalType": "uint256",
              "name": "borrowRatePerBlock",
              "type": "uint256"
            },
            {
              "internalType": "uint256",
              "name": "reserveFactorMantissa",
              "type": "uint256"
            },
            {
              "internalType": "uint256",
              "name": "totalBorrows",
              "type": "uint256"
            },
            {
              "internalType": "uint256",
              "name": "totalReserves",
              "type": "uint256"
            },
            {
              "internalType": "uint256",
              "name": "totalSupply",
              "type": "uint256"
            },
            {
              "internalType": "uint256",
              "name": "totalCash",
              "type": "uint256"
            },
            {
              "internalType": "bool",
              "name": "isListed",
              "type": "bool"
            },
            {
              "internalType": "uint256",
              "name": "collateralFactorMantissa",
              "type": "uint256"
            },
            {
              "internalType": "address",
              "name": "underlyingAssetAddress",
              "type": "address"
            },
            {
              "internalType": "uint256",
              "name": "vTokenDecimals",
              "type": "uint256"
            },
            {
              "internalType": "uint256",
              "name": "underlyingDecimals",
              "type": "uint256"
            }
          ],
          "internalType": "struct PoolLens.VTokenMetadata[]",
          "name": "",
          "type": "tuple[]"
        }
      ],
      "stateMutability": "view",
      "type": "function"
    },
    {
      "inputs": [
        {
          "internalType": "contract VToken",
          "name": "vToken",
          "type": "address"
        }
      ],
      "name": "vTokenUnderlyingPrice",
      "outputs": [
        {
          "components": [
            {
              "internalType": "address",
              "name": "vToken",
              "type": "address"
            },
            {
              "internalType": "uint256",
              "name": "underlyingPrice",
              "type": "uint256"
            }
          ],
          "internalType": "struct PoolLens.VTokenUnderlyingPrice",
          "name": "",
          "type": "tuple"
        }
      ],
      "stateMutability": "view",
      "type": "function"
    },
    {
      "inputs": [
        {
          "internalType": "contract VToken[]",
          "name": "vTokens",
          "type": "address[]"
        }
      ],
      "name": "vTokenUnderlyingPriceAll",
      "outputs": [
        {
          "components": [
            {
              "internalType": "address",
              "name": "vToken",
              "type": "address"
            },
            {
              "internalType": "uint256",
              "name": "underlyingPrice",
              "type": "uint256"
            }
          ],
          "internalType": "struct PoolLens.VTokenUnderlyingPrice[]",
          "name": "",
          "type": "tuple[]"
        }
      ],
      "stateMutability": "view",
      "type": "function"
    }
  ],
  "transactionHash": "0x10d63f486ff40dc9f5abccc490e371c72526292332a1bfef26ac70fbb25c585c",
  "args": [],
  "numDeployments": 1,
  "solcInputHash": "3afa63f4b3b666de692967b58795bf6e",
  "bytecode": "0x608060405234801561001057600080fd5b506135d1806100206000396000f3fe608060405234801561001057600080fd5b50600436106100b45760003560e01c80637c51b642116100715780637c51b642146101805780637c84e3b3146101a0578063aa5dbd23146101c0578063b3124239146101e0578063d77ebf9614610200578063e0a67f111461022057600080fd5b80630d3ae318146100b95780631f884fdf146100e2578063345954dc1461010257806347d86a811461012257806355dd9515146101355780637a27db5714610160575b600080fd5b6100cc6100c73660046126eb565b610240565b6040516100d99190612a8d565b60405180910390f35b6100f56100f0366004612aeb565b610590565b6040516100d99190612b2c565b610115610110366004612b8c565b610661565b6040516100d99190612ba9565b6100cc610130366004612c0b565b61079d565b610148610143366004612c44565b610824565b6040516001600160a01b0390911681526020016100d9565b61017361016e366004612c0b565b6108a4565b6040516100d99190612c8f565b61019361018e366004612d69565b610bba565b6040516100d99190612df4565b6101b36101ae366004612b8c565b610c7c565b6040516100d99190612e42565b6101d36101ce366004612b8c565b610de6565b6040516100d99190612e62565b6101f36101ee366004612c0b565b6113e7565b6040516100d99190612e71565b61021361020e366004612c0b565b6116ce565b6040516100d99190612e7f565b61023361022e366004612ee3565b611741565b6040516100d99190612f7c565b6102486124d2565b6000826040015190506000816001600160a01b031663b0772d0b6040518163ffffffff1660e01b8152600401600060405180830381865afa158015610291573d6000803e3d6000fd5b505050506040513d6000823e601f3d908101601f191682016040526102b99190810190612fbf565b905060006102c682611741565b60408681015190516328ebbe8b60e21b81526001600160a01b039182166004820152919250879160009183169063a3aefa2c90602401600060405180830381865afa158015610319573d6000803e3d6000fd5b505050506040513d6000823e601f3d908101601f191682016040526103419190810190613092565b90506000876040015190506000604051806101c001604052808a6000015181526020018a602001516001600160a01b031681526020018a604001516001600160a01b031681526020018a6060015181526020018a608001518152602001846000015160048111156103b4576103b461283e565b8152602001846020015181526020018460400151815260200184606001518152602001836001600160a01b0316637dc0d1d06040518163ffffffff1660e01b8152600401602060405180830381865afa158015610415573d6000803e3d6000fd5b505050506040513d601f19601f82011682018060405250810190610439919061315d565b6001600160a01b03168152602001836001600160a01b031663e87554466040518163ffffffff1660e01b8152600401602060405180830381865afa158015610485573d6000803e3d6000fd5b505050506040513d601f19601f820116820180604052508101906104a9919061317a565b8152602001836001600160a01b0316634ada90af6040518163ffffffff1660e01b8152600401602060405180830381865afa1580156104ec573d6000803e3d6000fd5b505050506040513d601f19601f82011682018060405250810190610510919061317a565b8152602001836001600160a01b031663db5c65de6040518163ffffffff1660e01b8152600401602060405180830381865afa158015610553573d6000803e3d6000fd5b505050506040513d601f19601f82011682018060405250810190610577919061317a565b8152602001959095525092955050505050505b92915050565b6060816000816001600160401b038111156105ad576105ad612634565b6040519080825280602002602001820160405280156105f257816020015b60408051808201909152600080825260208201528152602001906001900390816105cb5790505b50905060005b828110156106585761062a86868381811061061557610615613193565b90506020020160208101906101ae9190612b8c565b82828151811061063c5761063c613193565b602002602001018190525080610651906131bf565b90506105f8565b50949350505050565b606060008290506000816001600160a01b031663d88ff1f46040518163ffffffff1660e01b8152600401600060405180830381865afa1580156106a8573d6000803e3d6000fd5b505050506040513d6000823e601f3d908101601f191682016040526106d0919081019061325b565b80519091506000816001600160401b038111156106ef576106ef612634565b60405190808252806020026020018201604052801561072857816020015b6107156124d2565b81526020019060019003908161070d5790505b50905060005b8281101561079357600084828151811061074a5761074a613193565b6020026020010151905060006107608983610240565b90508084848151811061077557610775613193565b602002602001018190525050508061078c906131bf565b905061072e565b5095945050505050565b6107a56124d2565b604051637aee632d60e01b81526001600160a01b038381166004830152849161081c91839190821690637aee632d90602401600060405180830381865afa1580156107f4573d6000803e3d6000fd5b505050506040513d6000823e601f3d908101601f191682016040526100c7919081019061330b565b949350505050565b60405163266e0a7f60e01b81526001600160a01b0383811660048301528281166024830152600091859182169063266e0a7f90604401602060405180830381865afa158015610877573d6000803e3d6000fd5b505050506040513d601f19601f8201168201806040525081019061089b919061315d565b95945050505050565b60606000826001600160a01b031663b0772d0b6040518163ffffffff1660e01b8152600401600060405180830381865afa1580156108e6573d6000803e3d6000fd5b505050506040513d6000823e601f3d908101601f1916820160405261090e9190810190612fbf565b90506000836001600160a01b03166361252fd16040518163ffffffff1660e01b8152600401600060405180830381865afa158015610950573d6000803e3d6000fd5b505050506040513d6000823e601f3d908101601f19168201604052610978919081019061333f565b9050600081516001600160401b0381111561099557610995612634565b6040519080825280602002602001820160405280156109e657816020015b60408051608081018252600080825260208083018290529282015260608082015282526000199092019101816109b35790505b50905060005b8251811015610793576040805160808101825260008082526020820181905291810191909152606080820152838281518110610a2a57610a2a613193565b60209081029190910101516001600160a01b031681528351849083908110610a5457610a54613193565b60200260200101516001600160a01b031663f7c618c16040518163ffffffff1660e01b8152600401602060405180830381865afa158015610a99573d6000803e3d6000fd5b505050506040513d601f19601f82011682018060405250810190610abd919061315d565b6001600160a01b031660208201528351849083908110610adf57610adf613193565b6020908102919091010151604051631627ee8960e01b81526001600160a01b038a8116600483015290911690631627ee8990602401602060405180830381865afa158015610b31573d6000803e3d6000fd5b505050506040513d601f19601f82011682018060405250810190610b55919061317a565b816040018181525050610b828886868581518110610b7557610b75613193565b60200260200101516117ff565b816060018190525080838381518110610b9d57610b9d613193565b60200260200101819052505080610bb3906131bf565b90506109ec565b6060826000816001600160401b03811115610bd757610bd7612634565b604051908082528060200260200182016040528015610c1057816020015b610bfd61254a565b815260200190600190039081610bf55790505b50905060005b8281101561079357610c4e878783818110610c3357610c33613193565b9050602002016020810190610c489190612b8c565b866113e7565b828281518110610c6057610c60613193565b602002602001018190525080610c75906131bf565b9050610c16565b60408051808201909152600080825260208201526000826001600160a01b0316635fe3b5676040518163ffffffff1660e01b8152600401602060405180830381865afa158015610cd0573d6000803e3d6000fd5b505050506040513d601f19601f82011682018060405250810190610cf4919061315d565b90506000816001600160a01b0316637dc0d1d06040518163ffffffff1660e01b8152600401602060405180830381865afa158015610d36573d6000803e3d6000fd5b505050506040513d601f19601f82011682018060405250810190610d5a919061315d565b6040805180820182526001600160a01b03808816808352925163fc57d4df60e01b815260048101939093529293509160208301919084169063fc57d4df90602401602060405180830381865afa158015610db8573d6000803e3d6000fd5b505050506040513d601f19601f82011682018060405250810190610ddc919061317a565b9052949350505050565b610dee612589565b6000826001600160a01b031663182df0f56040518163ffffffff1660e01b8152600401602060405180830381865afa158015610e2e573d6000803e3d6000fd5b505050506040513d601f19601f82011682018060405250810190610e52919061317a565b90506000836001600160a01b0316635fe3b5676040518163ffffffff1660e01b8152600401602060405180830381865afa158015610e94573d6000803e3d6000fd5b505050506040513d601f19601f82011682018060405250810190610eb8919061315d565b604051638e8f294b60e01b81526001600160a01b03868116600483015291925082916000918291841690638e8f294b906024016040805180830381865afa158015610f07573d6000803e3d6000fd5b505050506040513d601f19601f82011682018060405250810190610f2b91906133cd565b91509150600080886001600160a01b0316636f307dc36040518163ffffffff1660e01b8152600401602060405180830381865afa158015610f70573d6000803e3d6000fd5b505050506040513d601f19601f82011682018060405250810190610f94919061315d565b9150886001600160a01b0316636f307dc36040518163ffffffff1660e01b8152600401602060405180830381865afa158015610fd4573d6000803e3d6000fd5b505050506040513d601f19601f82011682018060405250810190610ff8919061315d565b6001600160a01b031663313ce5676040518163ffffffff1660e01b8152600401602060405180830381865afa158015611035573d6000803e3d6000fd5b505050506040513d601f19601f820116820180604052508101906110599190613400565b60ff169050604051806101c001604052808a6001600160a01b031681526020018881526020018a6001600160a01b031663ae9d70b06040518163ffffffff1660e01b8152600401602060405180830381865afa1580156110bd573d6000803e3d6000fd5b505050506040513d601f19601f820116820180604052508101906110e1919061317a565b81526020018a6001600160a01b031663f8f9da286040518163ffffffff1660e01b8152600401602060405180830381865afa158015611124573d6000803e3d6000fd5b505050506040513d601f19601f82011682018060405250810190611148919061317a565b81526020018a6001600160a01b031663173b99046040518163ffffffff1660e01b8152600401602060405180830381865afa15801561118b573d6000803e3d6000fd5b505050506040513d601f19601f820116820180604052508101906111af919061317a565b81526020018a6001600160a01b03166347bd37186040518163ffffffff1660e01b8152600401602060405180830381865afa1580156111f2573d6000803e3d6000fd5b505050506040513d601f19601f82011682018060405250810190611216919061317a565b81526020018a6001600160a01b0316638f840ddd6040518163ffffffff1660e01b8152600401602060405180830381865afa158015611259573d6000803e3d6000fd5b505050506040513d601f19601f8201168201806040525081019061127d919061317a565b81526020018a6001600160a01b03166318160ddd6040518163ffffffff1660e01b8152600401602060405180830381865afa1580156112c0573d6000803e3d6000fd5b505050506040513d601f19601f820116820180604052508101906112e4919061317a565b81526020018a6001600160a01b0316633b1d21a26040518163ffffffff1660e01b8152600401602060405180830381865afa158015611327573d6000803e3d6000fd5b505050506040513d601f19601f8201168201806040525081019061134b919061317a565b81526020018515158152602001848152602001836001600160a01b031681526020018a6001600160a01b031663313ce5676040518163ffffffff1660e01b8152600401602060405180830381865afa1580156113ab573d6000803e3d6000fd5b505050506040513d601f19601f820116820180604052508101906113cf9190613400565b60ff1681526020019190915298975050505050505050565b6113ef61254a565b6040516370a0823160e01b81526001600160a01b038381166004830152600091908516906370a0823190602401602060405180830381865afa158015611439573d6000803e3d6000fd5b505050506040513d601f19601f8201168201806040525081019061145d919061317a565b6040516305eff7ef60e21b81526001600160a01b0385811660048301529192506000918616906317bfdfbc906024016020604051808303816000875af11580156114ab573d6000803e3d6000fd5b505050506040513d601f19601f820116820180604052508101906114cf919061317a565b604051633af9e66960e01b81526001600160a01b038681166004830152919250600091871690633af9e669906024016020604051808303816000875af115801561151d573d6000803e3d6000fd5b505050506040513d601f19601f82011682018060405250810190611541919061317a565b90506000806000886001600160a01b0316636f307dc36040518163ffffffff1660e01b8152600401602060405180830381865afa158015611586573d6000803e3d6000fd5b505050506040513d601f19601f820116820180604052508101906115aa919061315d565b6040516370a0823160e01b81526001600160a01b038a81166004830152919250908216906370a0823190602401602060405180830381865afa1580156115f4573d6000803e3d6000fd5b505050506040513d601f19601f82011682018060405250810190611618919061317a565b604051636eb1769f60e11b81526001600160a01b038a811660048301528b811660248301529194509082169063dd62ed3e90604401602060405180830381865afa15801561166a573d6000803e3d6000fd5b505050506040513d601f19601f8201168201806040525081019061168e919061317a565b6040805160c0810182526001600160a01b038c168152602081019890985287019590955250506060840191909152608083015260a0820152905092915050565b604051631e6db74760e31b81526001600160a01b038281166004830152606091849182169063f36dba3890602401600060405180830381865afa158015611719573d6000803e3d6000fd5b505050506040513d6000823e601f3d908101601f1916820160405261081c9190810190613423565b80516060906000816001600160401b0381111561176057611760612634565b60405190808252806020026020018201604052801561179957816020015b611786612589565b81526020019060019003908161177e5790505b50905060005b828110156117f7576117c98582815181106117bc576117bc613193565b6020026020010151610de6565b8282815181106117db576117db613193565b6020026020010181905250806117f0906131bf565b905061179f565b509392505050565b6060600083516001600160401b0381111561181c5761181c612634565b60405190808252806020026020018201604052801561186157816020015b604080518082019091526000808252602082015281526020019060019003908161183a5790505b50905060005b8451811015610658576040805180820190915260008082526020820152846001600160a01b0316632c427b578784815181106118a5576118a5613193565b60200260200101516040518263ffffffff1660e01b81526004016118d891906001600160a01b0391909116815260200190565b6040805180830381865afa1580156118f4573d6000803e3d6000fd5b505050506040513d601f19601f8201168201806040525081019061191891906134c8565b63ffffffff166020808401919091526001600160e01b03909116825260408051808201909152600080825291810191909152856001600160a01b03166392a1823588858151811061196b5761196b613193565b60200260200101516040518263ffffffff1660e01b815260040161199e91906001600160a01b0391909116815260200190565b6040805180830381865afa1580156119ba573d6000803e3d6000fd5b505050506040513d601f19601f820116820180604052508101906119de91906134c8565b63ffffffff166020808401919091526001600160e01b03909116825260408051918201905287516000919081908a9087908110611a1d57611a1d613193565b60200260200101516001600160a01b031663aa5af0fd6040518163ffffffff1660e01b8152600401602060405180830381865afa158015611a62573d6000803e3d6000fd5b505050506040513d601f19601f82011682018060405250810190611a86919061317a565b8152509050611ab0888581518110611aa057611aa0613193565b6020026020010151888584611bab565b611ad4888581518110611ac557611ac5613193565b60200260200101518884611e01565b6000611afc898681518110611aeb57611aeb613193565b6020026020010151898c878661204d565b90506000611b258a8781518110611b1557611b15613193565b60200260200101518a8d876121a0565b60408051808201909152600080825260208201529091508a8781518110611b4e57611b4e613193565b60209081029190910101516001600160a01b03168152611b6e82846134fd565b602082015287518190899089908110611b8957611b89613193565b602002602001018190525050505050505080611ba4906131bf565b9050611867565b604051637c05a7c560e01b81526001600160a01b03858116600483015260009190851690637c05a7c590602401602060405180830381865afa158015611bf5573d6000803e3d6000fd5b505050506040513d601f19601f82011682018060405250810190611c19919061317a565b905060004390506000611c3682866020015163ffffffff16612356565b9050600081118015611c485750600083115b15611dae576000611cba886001600160a01b03166347bd37186040518163ffffffff1660e01b8152600401602060405180830381865afa158015611c90573d6000803e3d6000fd5b505050506040513d601f19601f82011682018060405250810190611cb4919061317a565b86612369565b90506000611cc88386612387565b90506000808311611ce85760405180602001604052806000815250611cf2565b611cf28284612393565b90506000611d1b60405180602001604052808b600001516001600160e01b0316815250836123d8565b9050611d568160000151604051806040016040528060138152602001726e657720696e646578206f766572666c6f777360681b815250612404565b6001600160e01b03168952604080518082019091526016815275626c6f636b206e756d626572206f766572666c6f777360501b6020820152611d9990879061243c565b63ffffffff1660208a015250611df892505050565b8015611df857611dec8260405180604001604052806016815260200175626c6f636b206e756d626572206f766572666c6f777360501b81525061243c565b63ffffffff1660208601525b50505050505050565b604051631d31307360e21b81526001600160a01b038481166004830152600091908416906374c4c1cc90602401602060405180830381865afa158015611e4b573d6000803e3d6000fd5b505050506040513d601f19601f82011682018060405250810190611e6f919061317a565b905060004390506000611e8c82856020015163ffffffff16612356565b9050600081118015611e9e5750600083115b15611ffb576000866001600160a01b03166318160ddd6040518163ffffffff1660e01b8152600401602060405180830381865afa158015611ee3573d6000803e3d6000fd5b505050506040513d601f19601f82011682018060405250810190611f07919061317a565b90506000611f158386612387565b90506000808311611f355760405180602001604052806000815250611f3f565b611f3f8284612393565b90506000611f6860405180602001604052808a600001516001600160e01b0316815250836123d8565b9050611fa38160000151604051806040016040528060138152602001726e657720696e646578206f766572666c6f777360681b815250612404565b6001600160e01b03168852604080518082019091526016815275626c6f636b206e756d626572206f766572666c6f777360501b6020820152611fe690879061243c565b63ffffffff1660208901525061204592505050565b8015612045576120398260405180604001604052806016815260200175626c6f636b206e756d626572206f766572666c6f777360501b81525061243c565b63ffffffff1660208501525b505050505050565b604080516020808201835284516001600160e01b031682528251908101928390526336fe846560e11b9092526001600160a01b0387811660248401528581166044840152600092839181908916636dfd08ca60648301602060405180830381865afa1580156120c0573d6000803e3d6000fd5b505050506040513d601f19601f820116820180604052508101906120e4919061317a565b90528051909150156121925760006120fc8383612464565b6040516395dd919360e01b81526001600160a01b03898116600483015291925060009161217791908c16906395dd919390602401602060405180830381865afa15801561214d573d6000803e3d6000fd5b505050506040513d601f19601f82011682018060405250810190612171919061317a565b87612369565b905060006121858284612490565b955061089b945050505050565b506000979650505050505050565b604080516020808201835283516001600160e01b0316825282519081019283905263552c097160e01b9092526001600160a01b038681166024840152848116604484015260009283918190881663552c097160648301602060405180830381865afa158015612213573d6000803e3d6000fd5b505050506040513d601f19601f82011682018060405250810190612237919061317a565b9052805190915015801561224b5750815115155b156122be57856001600160a01b031663f9c6c0136040518163ffffffff1660e01b8152600401602060405180830381865afa15801561228e573d6000803e3d6000fd5b505050506040513d601f19601f820116820180604052508101906122b29190613515565b6001600160e01b031681525b60006122ca8383612464565b6040516370a0823160e01b81526001600160a01b0388811660048301529192506000918a16906370a0823190602401602060405180830381865afa158015612316573d6000803e3d6000fd5b505050506040513d601f19601f8201168201806040525081019061233a919061317a565b905060006123488284612490565b9a9950505050505050505050565b60006123628284613530565b9392505050565b600061236261238084670de0b6b3a7640000612387565b83516124ba565b60006123628284613547565b60408051602081019091526000815260405180602001604052806123cf6123c9866ec097ce7bc90715b34b9f1000000000612387565b856124ba565b90529392505050565b60408051602081019091526000815260405180602001604052806123cf856000015185600001516124c6565b600081600160e01b84106124345760405162461bcd60e51b815260040161242b9190613566565b60405180910390fd5b509192915050565b60008164010000000084106124345760405162461bcd60e51b815260040161242b9190613566565b60408051602081019091526000815260405180602001604052806123cf85600001518560000151612356565b60006ec097ce7bc90715b34b9f10000000006124b0848460000151612387565b6123629190613579565b60006123628284613579565b600061236282846134fd565b604080516101c08101825260608082526000602083018190529282018390528101829052608081018290529060a0820190815260200160608152602001606081526020016060815260200160006001600160a01b03168152602001600081526020016000815260200160008152602001606081525090565b6040518060c0016040528060006001600160a01b0316815260200160008152602001600081526020016000815260200160008152602001600081525090565b604051806101c0016040528060006001600160a01b0316815260200160008152602001600081526020016000815260200160008152602001600081526020016000815260200160008152602001600081526020016000151581526020016000815260200160006001600160a01b0316815260200160008152602001600081525090565b6001600160a01b038116811461262157600080fd5b50565b803561262f8161260c565b919050565b634e487b7160e01b600052604160045260246000fd5b60405160a081016001600160401b038111828210171561266c5761266c612634565b60405290565b604051608081016001600160401b038111828210171561266c5761266c612634565b604051601f8201601f191681016001600160401b03811182821017156126bc576126bc612634565b604052919050565b60006001600160401b038211156126dd576126dd612634565b50601f01601f191660200190565b600080604083850312156126fe57600080fd5b82356127098161260c565b91506020838101356001600160401b038082111561272657600080fd5b9085019060a0828803121561273a57600080fd5b61274261264a565b82358281111561275157600080fd5b83019150601f8201881361276457600080fd5b8135612777612772826126c4565b612694565b818152898683860101111561278b57600080fd5b8186850187830137600086838301015280835250506127ab848401612624565b848201526127bb60408401612624565b60408201526060830135606082015260808301356080820152809450505050509250929050565b60005b838110156127fd5781810151838201526020016127e5565b8381111561280c576000848401525b50505050565b6000815180845261282a8160208601602086016127e2565b601f01601f19169290920160200192915050565b634e487b7160e01b600052602160045260246000fd5b6005811061287257634e487b7160e01b600052602160045260246000fd5b9052565b80516001600160a01b031682526020810151602083015260408101516040830152606081015160608301526080810151608083015260a081015160a083015260c081015160c083015260e081015160e0830152610100808201518184015250610120808201516128e98285018215159052565b50506101408181015190830152610160808201516001600160a01b03169083015261018080820151908301526101a090810151910152565b600081518084526020808501945080840160005b8381101561295c57612948878351612876565b6101c0969096019590820190600101612935565b509495945050505050565b60006101c0825181855261297d82860182612812565b915050602083015161299a60208601826001600160a01b03169052565b5060408301516129b560408601826001600160a01b03169052565b50606083015160608501526080830151608085015260a08301516129dc60a0860182612854565b5060c083015184820360c08601526129f48282612812565b91505060e083015184820360e0860152612a0e8282612812565b9150506101008084015185830382870152612a298382612812565b9250505061012080840151612a48828701826001600160a01b03169052565b50506101408381015190850152610160808401519085015261018080840151908501526101a08084015185830382870152612a838382612921565b9695505050505050565b6020815260006123626020830184612967565b60008083601f840112612ab257600080fd5b5081356001600160401b03811115612ac957600080fd5b6020830191508360208260051b8501011115612ae457600080fd5b9250929050565b60008060208385031215612afe57600080fd5b82356001600160401b03811115612b1457600080fd5b612b2085828601612aa0565b90969095509350505050565b602080825282518282018190526000919060409081850190868401855b82811015612b7f57612b6f84835180516001600160a01b03168252602090810151910152565b9284019290850190600101612b49565b5091979650505050505050565b600060208284031215612b9e57600080fd5b81356123628161260c565b6000602080830181845280855180835260408601915060408160051b870101925083870160005b82811015612bfe57603f19888603018452612bec858351612967565b94509285019290850190600101612bd0565b5092979650505050505050565b60008060408385031215612c1e57600080fd5b8235612c298161260c565b91506020830135612c398161260c565b809150509250929050565b600080600060608486031215612c5957600080fd5b8335612c648161260c565b92506020840135612c748161260c565b91506040840135612c848161260c565b809150509250925092565b60006020808301818452808551808352604092508286019150828160051b8701018488016000805b84811015612d5a57898403603f19018652825180516001600160a01b03908116865289820151168986015287810151888601526060908101516080918601829052805191860182905289019060a086019084905b80821015612d4557612d3183855180516001600160a01b03168252602090810151910152565b928b0192918a019160019190910190612d0b565b50509689019694505091870191600101612cb7565b50919998505050505050505050565b600080600060408486031215612d7e57600080fd5b83356001600160401b03811115612d9457600080fd5b612da086828701612aa0565b9094509250506020840135612c848161260c565b80516001600160a01b031682526020808201519083015260408082015190830152606080820151908301526080808201519083015260a090810151910152565b6020808252825182820181905260009190848201906040850190845b81811015612e3657612e23838551612db4565b9284019260c09290920191600101612e10565b50909695505050505050565b81516001600160a01b03168152602080830151908201526040810161058a565b6101c0810161058a8284612876565b60c0810161058a8284612db4565b6020808252825182820181905260009190848201906040850190845b81811015612e365783516001600160a01b031683529284019291840191600101612e9b565b60006001600160401b03821115612ed957612ed9612634565b5060051b60200190565b60006020808385031215612ef657600080fd5b82356001600160401b03811115612f0c57600080fd5b8301601f81018513612f1d57600080fd5b8035612f2b61277282612ec0565b81815260059190911b82018301908381019087831115612f4a57600080fd5b928401925b82841015612f71578335612f628161260c565b82529284019290840190612f4f565b979650505050505050565b6020808252825182820181905260009190848201906040850190845b81811015612e3657612fab838551612876565b928401926101c09290920191600101612f98565b60006020808385031215612fd257600080fd5b82516001600160401b03811115612fe857600080fd5b8301601f81018513612ff957600080fd5b805161300761277282612ec0565b81815260059190911b8201830190838101908783111561302657600080fd5b928401925b82841015612f7157835161303e8161260c565b8252928401929084019061302b565b600082601f83011261305e57600080fd5b815161306c612772826126c4565b81815284602083860101111561308157600080fd5b61081c8260208301602087016127e2565b6000602082840312156130a457600080fd5b81516001600160401b03808211156130bb57600080fd5b90830190608082860312156130cf57600080fd5b6130d7612672565b8251600581106130e657600080fd5b81526020830151828111156130fa57600080fd5b6131068782860161304d565b60208301525060408301518281111561311e57600080fd5b61312a8782860161304d565b60408301525060608301518281111561314257600080fd5b61314e8782860161304d565b60608301525095945050505050565b60006020828403121561316f57600080fd5b81516123628161260c565b60006020828403121561318c57600080fd5b5051919050565b634e487b7160e01b600052603260045260246000fd5b634e487b7160e01b600052601160045260246000fd5b6000600182016131d1576131d16131a9565b5060010190565b600060a082840312156131ea57600080fd5b6131f261264a565b905081516001600160401b0381111561320a57600080fd5b6132168482850161304d565b82525060208201516132278161260c565b6020820152604082015161323a8161260c565b80604083015250606082015160608201526080820151608082015292915050565b6000602080838503121561326e57600080fd5b82516001600160401b038082111561328557600080fd5b818501915085601f83011261329957600080fd5b81516132a761277282612ec0565b81815260059190911b830184019084810190888311156132c657600080fd5b8585015b838110156132fe578051858111156132e25760008081fd5b6132f08b89838a01016131d8565b8452509186019186016132ca565b5098975050505050505050565b60006020828403121561331d57600080fd5b81516001600160401b0381111561333357600080fd5b61081c848285016131d8565b6000602080838503121561335257600080fd5b82516001600160401b0381111561336857600080fd5b8301601f8101851361337957600080fd5b805161338761277282612ec0565b81815260059190911b820183019083810190878311156133a657600080fd5b928401925b82841015612f715783516133be8161260c565b825292840192908401906133ab565b600080604083850312156133e057600080fd5b825180151581146133f057600080fd5b6020939093015192949293505050565b60006020828403121561341257600080fd5b815160ff8116811461236257600080fd5b6000602080838503121561343657600080fd5b82516001600160401b0381111561344c57600080fd5b8301601f8101851361345d57600080fd5b805161346b61277282612ec0565b81815260059190911b8201830190838101908783111561348a57600080fd5b928401925b82841015612f715783516134a28161260c565b8252928401929084019061348f565b80516001600160e01b038116811461262f57600080fd5b600080604083850312156134db57600080fd5b6134e4836134b1565b9150602083015163ffffffff81168114612c3957600080fd5b60008219821115613510576135106131a9565b500190565b60006020828403121561352757600080fd5b612362826134b1565b600082821015613542576135426131a9565b500390565b6000816000190483118215151615613561576135616131a9565b500290565b6020815260006123626020830184612812565b60008261359657634e487b7160e01b600052601260045260246000fd5b50049056fea2646970667358221220cc55a3c73b575d126d274c18de9e1f192ee9cec80476d91ccb4bd8de9aca88e564736f6c634300080d0033",
  "devdoc": {
    "kind": "dev",
    "methods": {
      "getAllPools(address)": {
        "details": "This function is not designed to be called in a transaction: it is too gas-intensive.",
        "params": {
          "poolRegistryAddress": "The address of Pool."
        }
      },
      "getPendingRewards(address,address)": {
        "params": {
          "account": "The user account.",
          "comptrollerAddress": "address"
        },
        "returns": {
          "_0": "Pending rewards array"
        }
      },
      "getPoolByComptroller(address,address)": {
        "params": {
          "comptroller": "The Comptroller implementation address.",
          "poolRegistryAddress": "The address of Pool."
        }
      },
      "getPoolDataFromVenusPool(address,(string,address,address,uint256,uint256))": {
        "params": {
          "venusPool": "The VenusPool Object from PoolRegistry."
        }
      },
      "getPoolsSupportedByAsset(address,address)": {
        "params": {
          "asset": "The underlyingAsset of VToken.",
          "poolRegistryAddress": "The address of Pool."
        }
      },
      "getVTokenForAsset(address,address,address)": {
        "params": {
          "asset": "The underlyingAsset of VToken.",
          "comptroller": "The pool comptroller.",
          "poolRegistryAddress": "The address of Pool."
        }
      },
      "vTokenBalances(address,address)": {
        "params": {
          "account": "The user Account.",
          "vToken": "The vTokenAddress."
        }
      },
      "vTokenBalancesAll(address[],address)": {
        "params": {
          "account": "The user Account.",
          "vTokens": "The list of vToken Addresses."
        }
      },
      "vTokenMetadata(address)": {
        "params": {
          "vToken": "The address of vToken."
        }
      },
      "vTokenMetadataAll(address[])": {
        "params": {
          "vTokens": "The list of vToken Addresses."
        }
      },
      "vTokenUnderlyingPrice(address)": {
        "params": {
          "vToken": "The vToken Addresses."
        }
      },
      "vTokenUnderlyingPriceAll(address[])": {
        "params": {
          "vTokens": "The list of vToken Addresses."
        }
      }
    },
    "version": 1
  },
  "userdoc": {
    "kind": "user",
    "methods": {
      "getAllPools(address)": {
        "notice": "Returns arrays of all Venus pools' data."
      },
      "getPendingRewards(address,address)": {
        "notice": "Returns the pending rewards for a user for a given pool."
      },
      "getPoolByComptroller(address,address)": {
        "notice": "Returns Venus pool Unitroller (Comptroller proxy) contract addresses."
      },
      "getPoolDataFromVenusPool(address,(string,address,address,uint256,uint256))": {
        "notice": "Returns enriched PoolData."
      },
      "getPoolsSupportedByAsset(address,address)": {
        "notice": "Returns all Pools supported by an Asset."
      },
      "getVTokenForAsset(address,address,address)": {
        "notice": "Returns VToken in a Pool for an Asset."
      },
      "vTokenBalances(address,address)": {
        "notice": "Returns the BalanceInfo of VToken."
      },
      "vTokenBalancesAll(address[],address)": {
        "notice": "Returns the BalanceInfo of all VTokens."
      },
      "vTokenMetadata(address)": {
        "notice": "Returns the metadata of VToken."
      },
      "vTokenMetadataAll(address[])": {
        "notice": "Returns the metadata of all VTokens."
      },
      "vTokenUnderlyingPrice(address)": {
        "notice": "Returns the underlyingPrice of VToken."
      },
      "vTokenUnderlyingPriceAll(address[])": {
        "notice": "Returns the underlyingPrice Info of all VTokens."
      }
    },
    "version": 1
  },
  "storageLayout": {
    "storage": [],
    "types": null
  }
}