{
  "address": "0xFAFb200B50a5953ec78F8Cae9Eaa0653C370A8BB",
  "abi": [
    {
      "anonymous": false,
      "inputs": [
        {
          "indexed": false,
          "internalType": "address",
          "name": "comptroller",
          "type": "address"
        },
        {
          "indexed": false,
          "internalType": "address",
          "name": "asset",
          "type": "address"
        },
        {
          "indexed": false,
          "internalType": "uint256",
          "name": "amount",
          "type": "uint256"
        }
      ],
      "name": "AssetsReservesUpdated",
      "type": "event"
    },
    {
      "anonymous": false,
      "inputs": [
        {
          "indexed": false,
          "internalType": "uint8",
          "name": "version",
          "type": "uint8"
        }
      ],
      "name": "Initialized",
      "type": "event"
    },
    {
      "anonymous": false,
      "inputs": [
        {
          "indexed": true,
          "internalType": "address",
          "name": "previousOwner",
          "type": "address"
        },
        {
          "indexed": true,
          "internalType": "address",
          "name": "newOwner",
          "type": "address"
        }
      ],
      "name": "OwnershipTransferred",
      "type": "event"
    },
    {
      "inputs": [
        {
          "internalType": "address",
          "name": "comptroller",
          "type": "address"
        },
        {
          "internalType": "address",
          "name": "asset",
          "type": "address"
        }
      ],
      "name": "getPoolAssetReserve",
      "outputs": [
        {
          "internalType": "uint256",
          "name": "",
          "type": "uint256"
        }
      ],
      "stateMutability": "view",
      "type": "function"
    },
    {
      "inputs": [
        {
          "internalType": "address",
          "name": "comptroller",
          "type": "address"
        }
      ],
      "name": "getPoolReserve",
      "outputs": [
        {
          "internalType": "uint256",
          "name": "",
          "type": "uint256"
        }
      ],
      "stateMutability": "view",
      "type": "function"
    },
    {
      "inputs": [
        {
          "internalType": "address",
          "name": "_pancakeSwapRouter",
          "type": "address"
        },
        {
          "internalType": "uint256",
          "name": "_amountOutMin",
          "type": "uint256"
        },
        {
          "internalType": "uint256",
          "name": "_minAmountToConvert",
          "type": "uint256"
        },
        {
          "internalType": "address",
          "name": "_convertableBaseAsset",
          "type": "address"
        },
        {
          "internalType": "address",
          "name": "_accessControl",
          "type": "address"
        }
      ],
      "name": "initialize",
      "outputs": [],
      "stateMutability": "nonpayable",
      "type": "function"
    },
    {
      "inputs": [],
      "name": "owner",
      "outputs": [
        {
          "internalType": "address",
          "name": "",
          "type": "address"
        }
      ],
      "stateMutability": "view",
      "type": "function"
    },
    {
      "inputs": [],
      "name": "renounceOwnership",
      "outputs": [],
      "stateMutability": "nonpayable",
      "type": "function"
    },
    {
      "inputs": [
        {
          "internalType": "uint256",
          "name": "_amountOutMin",
          "type": "uint256"
        }
      ],
      "name": "setAmountOutMin",
      "outputs": [],
      "stateMutability": "nonpayable",
      "type": "function"
    },
    {
      "inputs": [
        {
          "internalType": "address",
          "name": "_auctionContractAddress",
          "type": "address"
        }
      ],
      "name": "setAuctionContractAddress",
      "outputs": [],
      "stateMutability": "nonpayable",
      "type": "function"
    },
    {
      "inputs": [
        {
          "internalType": "address",
          "name": "_convertableBaseAsset",
          "type": "address"
        }
      ],
      "name": "setConvertableBaseAsset",
      "outputs": [],
      "stateMutability": "nonpayable",
      "type": "function"
    },
    {
      "inputs": [
        {
          "internalType": "uint256",
          "name": "_minAmountToConvert",
          "type": "uint256"
        }
      ],
      "name": "setMinAmountToConvert",
      "outputs": [],
      "stateMutability": "nonpayable",
      "type": "function"
    },
    {
      "inputs": [
        {
          "internalType": "address",
          "name": "_pancakeSwapRouter",
          "type": "address"
        }
      ],
      "name": "setPancakeSwapRouter",
      "outputs": [],
      "stateMutability": "nonpayable",
      "type": "function"
    },
    {
      "inputs": [
        {
          "internalType": "address",
          "name": "_poolRegistry",
          "type": "address"
        }
      ],
      "name": "setPoolRegistry",
      "outputs": [],
      "stateMutability": "nonpayable",
      "type": "function"
    },
    {
      "inputs": [],
      "name": "swapAllPoolsAssets",
      "outputs": [
        {
          "internalType": "uint256",
          "name": "",
          "type": "uint256"
        }
      ],
      "stateMutability": "nonpayable",
      "type": "function"
    },
    {
      "inputs": [
        {
          "components": [
            {
              "internalType": "string",
              "name": "name",
              "type": "string"
            },
            {
              "internalType": "address",
              "name": "creator",
              "type": "address"
            },
            {
              "internalType": "address",
              "name": "comptroller",
              "type": "address"
            },
            {
              "internalType": "uint256",
              "name": "blockPosted",
              "type": "uint256"
            },
            {
              "internalType": "uint256",
              "name": "timestampPosted",
              "type": "uint256"
            }
          ],
          "internalType": "struct PoolRegistry.VenusPool[]",
          "name": "venusPools",
          "type": "tuple[]"
        }
      ],
      "name": "swapPoolsAssets",
      "outputs": [
        {
          "internalType": "uint256",
          "name": "",
          "type": "uint256"
        }
      ],
      "stateMutability": "nonpayable",
      "type": "function"
    },
    {
      "inputs": [
        {
          "internalType": "address",
          "name": "newOwner",
          "type": "address"
        }
      ],
      "name": "transferOwnership",
      "outputs": [],
      "stateMutability": "nonpayable",
      "type": "function"
    },
    {
      "inputs": [
        {
          "internalType": "address",
          "name": "comptroller",
          "type": "address"
        },
        {
          "internalType": "uint256",
          "name": "amount",
          "type": "uint256"
        }
      ],
      "name": "transferReserveForAuction",
      "outputs": [
        {
          "internalType": "uint256",
          "name": "",
          "type": "uint256"
        }
      ],
      "stateMutability": "nonpayable",
      "type": "function"
    },
    {
      "inputs": [
        {
          "internalType": "address",
          "name": "comptroller",
          "type": "address"
        },
        {
          "internalType": "address",
          "name": "asset",
          "type": "address"
        }
      ],
      "name": "updateAssetsState",
      "outputs": [],
      "stateMutability": "nonpayable",
      "type": "function"
    }
  ],
  "transactionHash": "0xeb60d84bf67b6f9a98c315e5cf4e616687cc2e6d100248360afd4d74b43bbd43",
  "args": [],
  "numDeployments": 1,
  "solcInputHash": "bfe6cf08237990fb7f580aa34eab6bcb",
  "bytecode": "0x608060405234801561001057600080fd5b50612166806100206000396000f3fe608060405234801561001057600080fd5b50600436106101005760003560e01c8063715018a611610097578063a627c68911610066578063a627c68914610206578063aac59a7514610219578063ea6a76c11461022c578063f2fde38b1461023f57600080fd5b8063715018a6146101bd578063746460a9146101c55780637b77cd6a146101d85780638da5cb5b146101eb57600080fd5b806331d8e455116100d357806331d8e4551461017c5780634dd9584a1461018f5780635bfc52ad146101a25780636fb05275146101aa57600080fd5b806303b54d52146101055780630a9837c51461011a5780631496e0bf146101405780632c6ea66814610153575b600080fd5b61011861011336600461184d565b610252565b005b61012d6101283660046118ac565b61045e565b6040519081526020015b60405180910390f35b61011861014e3660046118d8565b6106bd565b61012d6101613660046118f1565b6001600160a01b03166000908152609e602052604090205490565b61011861018a3660046118f1565b6106ca565b61011861019d3660046118f1565b61075e565b61012d6107ae565b61012d6101b836600461190e565b61089e565b61011861096f565b6101186101d33660046118d8565b610983565b6101186101e63660046118f1565b6109b0565b6033546040516001600160a01b039091168152602001610137565b6101186102143660046118f1565b610a41565b61011861022736600461190e565b610ac1565b61012d61023a366004611a03565b610cb3565b61011861024d3660046118f1565b610e52565b600054610100900460ff16158080156102725750600054600160ff909116105b8061028c5750303b15801561028c575060005460ff166001145b6102f45760405162461bcd60e51b815260206004820152602e60248201527f496e697469616c697a61626c653a20636f6e747261637420697320616c72656160448201526d191e481a5b9a5d1a585b1a5e995960921b60648201526084015b60405180910390fd5b6000805460ff191660011790558015610317576000805461ff0019166101001790555b6001600160a01b03861661033d5760405162461bcd60e51b81526004016102eb90611b62565b6001600160a01b0383166103a15760405162461bcd60e51b815260206004820152602560248201527f5269736b2046756e643a2042617365206173736574206164647265737320696e6044820152641d985b1a5960da1b60648201526084016102eb565b600084116103c15760405162461bcd60e51b81526004016102eb90611ba9565b6103c9610ecb565b609880546001600160a01b038089166001600160a01b031992831617909255609a8790556099869055609b8054868416908316179055609d8054928516929091169190911790558015610456576000805461ff0019169055604051600181527f7f26b83ff96e1f2b6a682f133852f6798a09c465da95921460cefb38474024989060200160405180910390a15b505050505050565b609d54604080516318c5e8ab60e01b81523360048201526024810191909152602a60448201527f7472616e7366657252657365727665466f7241756374696f6e2875696e743235606482015269362c75696e743235362960b01b608482015260009182916001600160a01b03909116906318c5e8ab9060a401602060405180830381865afa1580156104f4573d6000803e3d6000fd5b505050506040513d601f19601f820116820180604052508101906105189190611bf0565b90508061057c5760405162461bcd60e51b815260206004820152602c60248201527f5269736b2066756e643a204e6f7420617574686f72697a656420746f2074726160448201526b3739b332b910333ab732399760a11b60648201526084016102eb565b609c546001600160a01b03166105e95760405162461bcd60e51b815260206004820152602c60248201527f5269736b2046756e643a2041756374696f6e20636f6e747261637420696e766160448201526b3634b21030b2323932b9b99760a11b60648201526084016102eb565b6001600160a01b0384166000908152609e602052604090205483111561065f5760405162461bcd60e51b815260206004820152602560248201527f5269736b2046756e643a20496e73756666696369656e7420706f6f6c2072657360448201526432b93b329760d91b60648201526084016102eb565b6001600160a01b0384166000908152609e6020526040902054610683908490611c28565b6001600160a01b038086166000908152609e6020526040902091909155609c54609b546106b592908116911685610efa565b509092915050565b6106c5610f62565b609a55565b6106d2610f62565b6001600160a01b03811661073c5760405162461bcd60e51b815260206004820152602b60248201527f5269736b2046756e643a2041756374696f6e20636f6e7472616374206164647260448201526a195cdcc81a5b9d985b1a5960aa1b60648201526084016102eb565b609c80546001600160a01b0319166001600160a01b0392909216919091179055565b610766610f62565b6001600160a01b03811661078c5760405162461bcd60e51b81526004016102eb90611b62565b609880546001600160a01b0319166001600160a01b0392909216919091179055565b6097546000906001600160a01b03166108135760405162461bcd60e51b815260206004820152602160248201527f5269736b2066756e643a20496e76616c696420706f6f6c2072656769737472796044820152601760f91b60648201526084016102eb565b60975460408051633623fc7d60e21b815290516001600160a01b0390921691600091839163d88ff1f49160048082019286929091908290030181865afa158015610861573d6000803e3d6000fd5b505050506040513d6000823e601f3d908101601f191682016040526108899190810190611c76565b9050600061089682610cb3565b949350505050565b6000826001600160a01b0316627e3dd26040518163ffffffff1660e01b8152600401602060405180830381865afa1580156108dd573d6000803e3d6000fd5b505050506040513d601f19601f820116820180604052508101906109019190611bf0565b61091d5760405162461bcd60e51b81526004016102eb90611dc2565b6001600160a01b0382166109435760405162461bcd60e51b81526004016102eb90611e0d565b506001600160a01b03918216600090815260666020908152604080832093909416825291909152205490565b610977610f62565b6109816000610fbc565b565b61098b610f62565b600081116109ab5760405162461bcd60e51b81526004016102eb90611ba9565b609955565b6109b8610f62565b6001600160a01b038116610a1f5760405162461bcd60e51b815260206004820152602860248201527f5269736b2046756e643a20506f6f6c2072656769737472792061646472657373604482015267081a5b9d985b1a5960c21b60648201526084016102eb565b609780546001600160a01b0319166001600160a01b0392909216919091179055565b610a49610f62565b6001600160a01b038116610a9f5760405162461bcd60e51b815260206004820181905260248201527f5269736b2046756e643a204173736574206164647265737320696e76616c696460448201526064016102eb565b609b80546001600160a01b0319166001600160a01b0392909216919091179055565b816001600160a01b0316627e3dd26040518163ffffffff1660e01b8152600401602060405180830381865afa158015610afe573d6000803e3d6000fd5b505050506040513d601f19601f82011682018060405250810190610b229190611bf0565b610b3e5760405162461bcd60e51b81526004016102eb90611dc2565b6001600160a01b038116610b645760405162461bcd60e51b81526004016102eb90611e0d565b6040516370a0823160e01b81523060048201526000906001600160a01b038316906370a0823190602401602060405180830381865afa158015610bab573d6000803e3d6000fd5b505050506040513d601f19601f82011682018060405250810190610bcf9190611e52565b6001600160a01b03831660009081526065602052604090205490915080821115610cad576001600160a01b0383166000908152606560205260408120805483850392839291610c1f908490611e6b565b90915550506001600160a01b03808616600090815260666020908152604080832093881683529290529081208054839290610c5b908490611e6b565b9091555050604080516001600160a01b038088168252861660208201529081018290527fc39e3e80c0219fde334a8cb5d8468b628482e23388b6e809c90cb00c63c8ce389060600160405180910390a1505b50505050565b60008060005b8351811015610e4b5760006001600160a01b0316848281518110610cdf57610cdf611e83565b6020026020010151604001516001600160a01b031614610e3b576000848281518110610d0d57610d0d611e83565b6020026020010151604001516001600160a01b031663b0772d0b6040518163ffffffff1660e01b8152600401600060405180830381865afa158015610d56573d6000803e3d6000fd5b505050506040513d6000823e601f3d908101601f19168201604052610d7e9190810190611e99565b905060005b8151811015610e38576000868481518110610da057610da0611e83565b60200260200101516040015190506000838381518110610dc257610dc2611e83565b602002602001015190506000610dd8828461100e565b6001600160a01b0384166000908152609e6020526040902054909150610dff908290611e6b565b6001600160a01b0384166000908152609e6020526040902055610e228188611e6b565b965050505080610e3190611f28565b9050610d83565b50505b610e4481611f28565b9050610cb9565b5092915050565b610e5a610f62565b6001600160a01b038116610ebf5760405162461bcd60e51b815260206004820152602660248201527f4f776e61626c653a206e6577206f776e657220697320746865207a65726f206160448201526564647265737360d01b60648201526084016102eb565b610ec881610fbc565b50565b600054610100900460ff16610ef25760405162461bcd60e51b81526004016102eb90611f41565b61098161141b565b6040516001600160a01b038316602482015260448101829052610f5d90849063a9059cbb60e01b906064015b60408051601f198184030181529190526020810180516001600160e01b03166001600160e01b03199093169290921790915261144b565b505050565b6033546001600160a01b031633146109815760405162461bcd60e51b815260206004820181905260248201527f4f776e61626c653a2063616c6c6572206973206e6f7420746865206f776e657260448201526064016102eb565b603380546001600160a01b038381166001600160a01b0319831681179093556040519116919082907f8be0079c531659141344cd1fd0a4f28419497f9722a3daafe3b4186f6b6457e090600090a35050565b6000806000846001600160a01b0316636f307dc36040518163ffffffff1660e01b8152600401602060405180830381865afa158015611051573d6000803e3d6000fd5b505050506040513d601f19601f820116820180604052508101906110759190611f8c565b6001600160a01b0380861660008181526066602090815260408083209486168352938152908390205483516307dc0d1d60e41b81529351949550939192637dc0d1d092600480830193928290030181865afa1580156110d8573d6000803e3d6000fd5b505050506040513d601f19601f820116820180604052508101906110fc9190611f8c565b6040516396e85ced60e01b81526001600160a01b03888116600483015291909116906396e85ced90602401600060405180830381600087803b15801561114157600080fd5b505af1158015611155573d6000803e3d6000fd5b505050506000856001600160a01b0316637dc0d1d06040518163ffffffff1660e01b8152600401602060405180830381865afa158015611199573d6000803e3d6000fd5b505050506040513d601f19601f820116820180604052508101906111bd9190611f8c565b60405163fc57d4df60e01b81526001600160a01b038981166004830152919091169063fc57d4df90602401602060405180830381865afa158015611205573d6000803e3d6000fd5b505050506040513d601f19601f820116820180604052508101906112299190611e52565b90508115611410576040805160208101909152818152600061124b828561151d565b9050609954811061140d576001600160a01b0385166000908152606560205260408120805486929061127e908490611c28565b90915550506001600160a01b038089166000908152606660209081526040808320938916835292905290812080548692906112ba908490611c28565b9091555050609b546001600160a01b0386811691161461140957604080516002808252606082018352600092602083019080368337019050509050858160008151811061130957611309611e83565b6001600160a01b039283166020918202929092010152609b5482519116908290600190811061133a5761133a611e83565b6001600160a01b03928316602091820292909201015260985461136291888116911687611535565b609854609a546040516338ed173960e01b81526000926001600160a01b0316916338ed17399161139c918a91879030904290600401611fa9565b6000604051808303816000875af11580156113bb573d6000803e3d6000fd5b505050506040513d6000823e601f3d908101601f191682016040526113e3919081019061201a565b9050806001815181106113f8576113f8611e83565b60200260200101519750505061140d565b8395505b50505b509195945050505050565b600054610100900460ff166114425760405162461bcd60e51b81526004016102eb90611f41565b61098133610fbc565b60006114a0826040518060400160405280602081526020017f5361666545524332303a206c6f772d6c6576656c2063616c6c206661696c6564815250856001600160a01b031661164a9092919063ffffffff16565b805190915015610f5d57808060200190518101906114be9190611bf0565b610f5d5760405162461bcd60e51b815260206004820152602a60248201527f5361666545524332303a204552433230206f7065726174696f6e20646964206e6044820152691bdd081cdd58d8d9595960b21b60648201526084016102eb565b60008061152a8484611663565b905061089681611694565b8015806115af5750604051636eb1769f60e11b81523060048201526001600160a01b03838116602483015284169063dd62ed3e90604401602060405180830381865afa158015611589573d6000803e3d6000fd5b505050506040513d601f19601f820116820180604052508101906115ad9190611e52565b155b61161a5760405162461bcd60e51b815260206004820152603660248201527f5361666545524332303a20617070726f76652066726f6d206e6f6e2d7a65726f60448201527520746f206e6f6e2d7a65726f20616c6c6f77616e636560501b60648201526084016102eb565b6040516001600160a01b038316602482015260448101829052610f5d90849063095ea7b360e01b90606401610f26565b606061165984846000856116b2565b90505b9392505050565b604080516020810190915260008152604051806020016040528061168b8560000151856117e3565b90529392505050565b80516000906116ac90670de0b6b3a7640000906120a0565b92915050565b6060824710156117135760405162461bcd60e51b815260206004820152602660248201527f416464726573733a20696e73756666696369656e742062616c616e636520666f6044820152651c8818d85b1b60d21b60648201526084016102eb565b6001600160a01b0385163b61176a5760405162461bcd60e51b815260206004820152601d60248201527f416464726573733a2063616c6c20746f206e6f6e2d636f6e747261637400000060448201526064016102eb565b600080866001600160a01b0316858760405161178691906120c2565b60006040518083038185875af1925050503d80600081146117c3576040519150601f19603f3d011682016040523d82523d6000602084013e6117c8565b606091505b50915091506117d88282866117ef565b979650505050505050565b600061165c82846120de565b606083156117fe57508161165c565b82511561180e5782518084602001fd5b8160405162461bcd60e51b81526004016102eb91906120fd565b6001600160a01b0381168114610ec857600080fd5b803561184881611828565b919050565b600080600080600060a0868803121561186557600080fd5b853561187081611828565b94506020860135935060408601359250606086013561188e81611828565b9150608086013561189e81611828565b809150509295509295909350565b600080604083850312156118bf57600080fd5b82356118ca81611828565b946020939093013593505050565b6000602082840312156118ea57600080fd5b5035919050565b60006020828403121561190357600080fd5b813561165c81611828565b6000806040838503121561192157600080fd5b823561192c81611828565b9150602083013561193c81611828565b809150509250929050565b634e487b7160e01b600052604160045260246000fd5b60405160a0810167ffffffffffffffff8111828210171561198057611980611947565b60405290565b604051601f8201601f1916810167ffffffffffffffff811182821017156119af576119af611947565b604052919050565b600067ffffffffffffffff8211156119d1576119d1611947565b5060051b60200190565b600067ffffffffffffffff8211156119f5576119f5611947565b50601f01601f191660200190565b60006020808385031215611a1657600080fd5b823567ffffffffffffffff80821115611a2e57600080fd5b818501915085601f830112611a4257600080fd5b8135611a55611a50826119b7565b611986565b81815260059190911b83018401908481019088831115611a7457600080fd5b8585015b83811015611b5557803585811115611a8f57600080fd5b860160a0818c03601f19011215611aa65760008081fd5b611aae61195d565b8882013587811115611ac05760008081fd5b8201603f81018d13611ad25760008081fd5b898101356040611ae4611a50836119db565b8281528f82848601011115611af95760008081fd5b828285018e83013760008184018e01528452611b1685820161183d565b8c85015260609250611b2983860161183d565b90840152506080838101359183019190915260a090920135918101919091528352918601918601611a78565b5098975050505050505050565b60208082526027908201527f5269736b2046756e643a2050616e63616b6520737761702061646472657373206040820152661a5b9d985b1a5960ca1b606082015260800190565b60208082526027908201527f5269736b2046756e643a20496e76616c6964206d696e20616d6f757420746f2060408201526618dbdb9d995c9d60ca1b606082015260800190565b600060208284031215611c0257600080fd5b8151801515811461165c57600080fd5b634e487b7160e01b600052601160045260246000fd5b600082821015611c3a57611c3a611c12565b500390565b60005b83811015611c5a578181015183820152602001611c42565b83811115610cad5750506000910152565b805161184881611828565b60006020808385031215611c8957600080fd5b825167ffffffffffffffff80821115611ca157600080fd5b818501915085601f830112611cb557600080fd5b8151611cc3611a50826119b7565b81815260059190911b83018401908481019088831115611ce257600080fd5b8585015b83811015611b5557805185811115611cfd57600080fd5b860160a0818c03601f19011215611d145760008081fd5b611d1c61195d565b8882015187811115611d2e5760008081fd5b8201603f81018d13611d405760008081fd5b898101516040611d52611a50836119db565b8281528f82848601011115611d675760008081fd5b611d76838e8301848701611c3f565b8452611d83858201611c6b565b8c85015260609250611d96838601611c6b565b90840152506080838101519183019190915260a090920151918101919091528352918601918601611ce6565b6020808252602b908201527f5265736572766548656c706572733a20436f6d7074726f6c6c6572206164647260408201526a195cdcc81a5b9d985b1a5960aa1b606082015260800190565b60208082526025908201527f5265736572766548656c706572733a204173736574206164647265737320696e6040820152641d985b1a5960da1b606082015260800190565b600060208284031215611e6457600080fd5b5051919050565b60008219821115611e7e57611e7e611c12565b500190565b634e487b7160e01b600052603260045260246000fd5b60006020808385031215611eac57600080fd5b825167ffffffffffffffff811115611ec357600080fd5b8301601f81018513611ed457600080fd5b8051611ee2611a50826119b7565b81815260059190911b82018301908381019087831115611f0157600080fd5b928401925b828410156117d8578351611f1981611828565b82529284019290840190611f06565b600060018201611f3a57611f3a611c12565b5060010190565b6020808252602b908201527f496e697469616c697a61626c653a20636f6e7472616374206973206e6f74206960408201526a6e697469616c697a696e6760a81b606082015260800190565b600060208284031215611f9e57600080fd5b815161165c81611828565b600060a082018783526020878185015260a0604085015281875180845260c086019150828901935060005b81811015611ff95784516001600160a01b031683529383019391830191600101611fd4565b50506001600160a01b03969096166060850152505050608001529392505050565b6000602080838503121561202d57600080fd5b825167ffffffffffffffff81111561204457600080fd5b8301601f8101851361205557600080fd5b8051612063611a50826119b7565b81815260059190911b8201830190838101908783111561208257600080fd5b928401925b828410156117d857835182529284019290840190612087565b6000826120bd57634e487b7160e01b600052601260045260246000fd5b500490565b600082516120d4818460208701611c3f565b9190910192915050565b60008160001904831182151516156120f8576120f8611c12565b500290565b602081526000825180602084015261211c816040850160208701611c3f565b601f01601f1916919091016040019291505056fea2646970667358221220e14c1191d731c255d7fe520e17e4939249b11879e13809566ba8f2336339526164736f6c634300080d0033",
  "devdoc": {
    "details": "This contract does not support BNB.",
    "kind": "dev",
    "methods": {
      "getPoolAssetReserve(address,address)": {
        "details": "Get the Amount of the asset in the risk fund for the specific pool.",
        "params": {
          "asset": "Asset address.",
          "comptroller": "Comptroller address(pool)."
        },
        "returns": {
          "_0": "Asset's reserve in risk fund."
        }
      },
      "getPoolReserve(address)": {
        "details": "Get pool reserve by pool id.",
        "params": {
          "comptroller": "comptroller of the pool."
        },
        "returns": {
          "_0": "Number reserved tokens."
        }
      },
      "initialize(address,uint256,uint256,address,address)": {
        "details": "Initializes the deployer to owner.",
        "params": {
          "_accessControl": "Address of the access control contract.",
          "_amountOutMin": "Min amount out for the pancake swap.",
          "_convertableBaseAsset": "Address of the base asset",
          "_minAmountToConvert": "Asset should be worth of min amount to convert into base asset",
          "_pancakeSwapRouter": "Address of the pancake swap router."
        }
      },
      "owner()": {
        "details": "Returns the address of the current owner."
      },
      "renounceOwnership()": {
        "details": "Leaves the contract without owner. It will not be possible to call `onlyOwner` functions anymore. Can only be called by the current owner. NOTE: Renouncing ownership will leave the contract without an owner, thereby removing any functionality that is only available to the owner."
      },
      "setAmountOutMin(uint256)": {
        "details": "Min amount out setter",
        "params": {
          "_amountOutMin": "Min amount out for the pancake swap."
        }
      },
      "setAuctionContractAddress(address)": {
        "details": "Auction contract address setter",
        "params": {
          "_auctionContractAddress": "Address of the auction contract."
        }
      },
      "setConvertableBaseAsset(address)": {
        "details": "convertable base asset setter",
        "params": {
          "_convertableBaseAsset": "Address of the asset."
        }
      },
      "setMinAmountToConvert(uint256)": {
        "details": "Min amout to convert setter",
        "params": {
          "_minAmountToConvert": "Min amout to convert."
        }
      },
      "setPancakeSwapRouter(address)": {
        "details": "Pancake swap router address setter",
        "params": {
          "_pancakeSwapRouter": "Address of the pancake swap router."
        }
      },
      "setPoolRegistry(address)": {
        "details": "Pool registry setter",
        "params": {
          "_poolRegistry": "Address of the pool registry."
        }
      },
      "swapAllPoolsAssets()": {
        "details": "Swap assets of all pools into base asset's tokens.",
        "returns": {
          "_0": "Number of swapped tokens."
        }
      },
      "swapPoolsAssets((string,address,address,uint256,uint256)[])": {
        "details": "Swap assets of selected pools into base tokens.",
        "params": {
          "venusPools": "Array of Pools to swap"
        },
        "returns": {
          "_0": "Number of swapped tokens."
        }
      },
      "transferOwnership(address)": {
        "details": "Transfers ownership of the contract to a new account (`newOwner`). Can only be called by the current owner."
      },
      "transferReserveForAuction(address,uint256)": {
        "details": "Transfer tokens for auction.",
        "params": {
          "amount": "Amount to be transferred to auction contract.",
          "comptroller": "comptroller of the pool."
        },
        "returns": {
          "_0": "Number reserved tokens."
        }
      },
      "updateAssetsState(address,address)": {
        "details": "Update the reserve of the asset for the specific pool after transferring to risk fund.",
        "params": {
          "asset": "Asset address.",
          "comptroller": "Comptroller address(pool)."
        }
      }
    },
    "version": 1
  },
  "userdoc": {
    "kind": "user",
    "methods": {},
    "version": 1
  },
  "storageLayout": {
    "storage": [
      {
        "astId": 218,
        "contract": "contracts/RiskFund/RiskFund.sol:RiskFund",
        "label": "_initialized",
        "offset": 0,
        "slot": "0",
        "type": "t_uint8"
      },
      {
        "astId": 221,
        "contract": "contracts/RiskFund/RiskFund.sol:RiskFund",
        "label": "_initializing",
        "offset": 1,
        "slot": "0",
        "type": "t_bool"
      },
      {
        "astId": 832,
        "contract": "contracts/RiskFund/RiskFund.sol:RiskFund",
        "label": "__gap",
        "offset": 0,
        "slot": "1",
        "type": "t_array(t_uint256)50_storage"
      },
      {
        "astId": 10,
        "contract": "contracts/RiskFund/RiskFund.sol:RiskFund",
        "label": "_owner",
        "offset": 0,
        "slot": "51",
        "type": "t_address"
      },
      {
        "astId": 130,
        "contract": "contracts/RiskFund/RiskFund.sol:RiskFund",
        "label": "__gap",
        "offset": 0,
        "slot": "52",
        "type": "t_array(t_uint256)49_storage"
      },
      {
        "astId": 14310,
        "contract": "contracts/RiskFund/RiskFund.sol:RiskFund",
        "label": "assetsReserves",
        "offset": 0,
        "slot": "101",
        "type": "t_mapping(t_address,t_uint256)"
      },
      {
        "astId": 14316,
        "contract": "contracts/RiskFund/RiskFund.sol:RiskFund",
        "label": "poolsAssetsReserves",
        "offset": 0,
        "slot": "102",
        "type": "t_mapping(t_address,t_mapping(t_address,t_uint256))"
      },
      {
        "astId": 14446,
        "contract": "contracts/RiskFund/RiskFund.sol:RiskFund",
        "label": "__gap",
        "offset": 0,
        "slot": "103",
        "type": "t_array(t_uint256)48_storage"
      },
      {
        "astId": 14470,
        "contract": "contracts/RiskFund/RiskFund.sol:RiskFund",
        "label": "poolRegistry",
        "offset": 0,
        "slot": "151",
        "type": "t_address"
      },
      {
        "astId": 14472,
        "contract": "contracts/RiskFund/RiskFund.sol:RiskFund",
        "label": "pancakeSwapRouter",
        "offset": 0,
        "slot": "152",
        "type": "t_address"
      },
      {
        "astId": 14474,
        "contract": "contracts/RiskFund/RiskFund.sol:RiskFund",
        "label": "minAmountToConvert",
        "offset": 0,
        "slot": "153",
        "type": "t_uint256"
      },
      {
        "astId": 14476,
        "contract": "contracts/RiskFund/RiskFund.sol:RiskFund",
        "label": "amountOutMin",
        "offset": 0,
        "slot": "154",
        "type": "t_uint256"
      },
      {
        "astId": 14478,
        "contract": "contracts/RiskFund/RiskFund.sol:RiskFund",
        "label": "convertableBaseAsset",
        "offset": 0,
        "slot": "155",
        "type": "t_address"
      },
      {
        "astId": 14480,
        "contract": "contracts/RiskFund/RiskFund.sol:RiskFund",
        "label": "auctionContractAddress",
        "offset": 0,
        "slot": "156",
        "type": "t_address"
      },
      {
        "astId": 14482,
        "contract": "contracts/RiskFund/RiskFund.sol:RiskFund",
        "label": "accessControl",
        "offset": 0,
        "slot": "157",
        "type": "t_address"
      },
      {
        "astId": 14486,
        "contract": "contracts/RiskFund/RiskFund.sol:RiskFund",
        "label": "poolReserves",
        "offset": 0,
        "slot": "158",
        "type": "t_mapping(t_address,t_uint256)"
      }
    ],
    "types": {
      "t_address": {
        "encoding": "inplace",
        "label": "address",
        "numberOfBytes": "20"
      },
      "t_array(t_uint256)48_storage": {
        "base": "t_uint256",
        "encoding": "inplace",
        "label": "uint256[48]",
        "numberOfBytes": "1536"
      },
      "t_array(t_uint256)49_storage": {
        "base": "t_uint256",
        "encoding": "inplace",
        "label": "uint256[49]",
        "numberOfBytes": "1568"
      },
      "t_array(t_uint256)50_storage": {
        "base": "t_uint256",
        "encoding": "inplace",
        "label": "uint256[50]",
        "numberOfBytes": "1600"
      },
      "t_bool": {
        "encoding": "inplace",
        "label": "bool",
        "numberOfBytes": "1"
      },
      "t_mapping(t_address,t_mapping(t_address,t_uint256))": {
        "encoding": "mapping",
        "key": "t_address",
        "label": "mapping(address => mapping(address => uint256))",
        "numberOfBytes": "32",
        "value": "t_mapping(t_address,t_uint256)"
      },
      "t_mapping(t_address,t_uint256)": {
        "encoding": "mapping",
        "key": "t_address",
        "label": "mapping(address => uint256)",
        "numberOfBytes": "32",
        "value": "t_uint256"
      },
      "t_uint256": {
        "encoding": "inplace",
        "label": "uint256",
        "numberOfBytes": "32"
      },
      "t_uint8": {
        "encoding": "inplace",
        "label": "uint8",
        "numberOfBytes": "1"
      }
    }
  }
}