{
  "address": "0x5d253904BE28182E1405F813db3aE6Dc1660ca44",
  "abi": [
    {
      "anonymous": false,
      "inputs": [
        {
          "indexed": false,
          "internalType": "uint8",
          "name": "version",
          "type": "uint8"
        }
      ],
      "name": "Initialized",
      "type": "event"
    },
    {
      "anonymous": false,
      "inputs": [
        {
          "indexed": true,
          "internalType": "address",
          "name": "previousOwner",
          "type": "address"
        },
        {
          "indexed": true,
          "internalType": "address",
          "name": "newOwner",
          "type": "address"
        }
      ],
      "name": "OwnershipTransferred",
      "type": "event"
    },
    {
      "inputs": [
        {
          "internalType": "uint256",
          "name": "poolId",
          "type": "uint256"
        }
      ],
      "name": "getPoolReserve",
      "outputs": [
        {
          "internalType": "uint256",
          "name": "",
          "type": "uint256"
        }
      ],
      "stateMutability": "view",
      "type": "function"
    },
    {
      "inputs": [
        {
          "internalType": "address",
          "name": "_pancakeSwapRouter",
          "type": "address"
        },
        {
          "internalType": "uint256",
          "name": "_amountOutMin",
          "type": "uint256"
        },
        {
          "internalType": "uint256",
          "name": "_minAmountToConvert",
          "type": "uint256"
        },
        {
          "internalType": "address",
          "name": "_convertableBUSDAddress",
          "type": "address"
        },
        {
          "internalType": "address",
          "name": "_accessControl",
          "type": "address"
        }
      ],
      "name": "initialize",
      "outputs": [],
      "stateMutability": "nonpayable",
      "type": "function"
    },
    {
      "inputs": [],
      "name": "owner",
      "outputs": [
        {
          "internalType": "address",
          "name": "",
          "type": "address"
        }
      ],
      "stateMutability": "view",
      "type": "function"
    },
    {
      "inputs": [],
      "name": "renounceOwnership",
      "outputs": [],
      "stateMutability": "nonpayable",
      "type": "function"
    },
    {
      "inputs": [
        {
          "internalType": "uint256",
          "name": "_amountOutMin",
          "type": "uint256"
        }
      ],
      "name": "setAmountOutMin",
      "outputs": [],
      "stateMutability": "nonpayable",
      "type": "function"
    },
    {
      "inputs": [
        {
          "internalType": "address",
          "name": "_auctionContractAddress",
          "type": "address"
        }
      ],
      "name": "setAuctionContractAddress",
      "outputs": [],
      "stateMutability": "nonpayable",
      "type": "function"
    },
    {
      "inputs": [
        {
          "internalType": "uint256",
          "name": "_minAmountToConvert",
          "type": "uint256"
        }
      ],
      "name": "setMinAmountToConvert",
      "outputs": [],
      "stateMutability": "nonpayable",
      "type": "function"
    },
    {
      "inputs": [
        {
          "internalType": "address",
          "name": "_pancakeSwapRouter",
          "type": "address"
        }
      ],
      "name": "setPancakeSwapRouter",
      "outputs": [],
      "stateMutability": "nonpayable",
      "type": "function"
    },
    {
      "inputs": [
        {
          "internalType": "address",
          "name": "_poolRegistry",
          "type": "address"
        }
      ],
      "name": "setPoolRegistry",
      "outputs": [],
      "stateMutability": "nonpayable",
      "type": "function"
    },
    {
      "inputs": [],
      "name": "swapAllPoolsAssets",
      "outputs": [
        {
          "internalType": "uint256",
          "name": "",
          "type": "uint256"
        }
      ],
      "stateMutability": "nonpayable",
      "type": "function"
    },
    {
      "inputs": [
        {
          "components": [
            {
              "internalType": "uint256",
              "name": "poolId",
              "type": "uint256"
            },
            {
              "internalType": "string",
              "name": "name",
              "type": "string"
            },
            {
              "internalType": "address",
              "name": "creator",
              "type": "address"
            },
            {
              "internalType": "address",
              "name": "comptroller",
              "type": "address"
            },
            {
              "internalType": "uint256",
              "name": "blockPosted",
              "type": "uint256"
            },
            {
              "internalType": "uint256",
              "name": "timestampPosted",
              "type": "uint256"
            }
          ],
          "internalType": "struct PoolRegistry.VenusPool[]",
          "name": "venusPools",
          "type": "tuple[]"
        }
      ],
      "name": "swapPoolsAssets",
      "outputs": [
        {
          "internalType": "uint256",
          "name": "",
          "type": "uint256"
        }
      ],
      "stateMutability": "nonpayable",
      "type": "function"
    },
    {
      "inputs": [
        {
          "internalType": "address",
          "name": "newOwner",
          "type": "address"
        }
      ],
      "name": "transferOwnership",
      "outputs": [],
      "stateMutability": "nonpayable",
      "type": "function"
    },
    {
      "inputs": [
        {
          "internalType": "uint256",
          "name": "poolId",
          "type": "uint256"
        },
        {
          "internalType": "uint256",
          "name": "amount",
          "type": "uint256"
        }
      ],
      "name": "transferReserveForAuction",
      "outputs": [
        {
          "internalType": "uint256",
          "name": "",
          "type": "uint256"
        }
      ],
      "stateMutability": "nonpayable",
      "type": "function"
    }
  ],
  "transactionHash": "0x17e16e10abbe952b8fcadfa1477ae4e0879eb148f2aca9efa35227fb245afeee",
  "args": [],
  "numDeployments": 1,
  "solcInputHash": "b99a7f89699fcc7fa0a8aaf9060ec476",
  "bytecode": "0x608060405234801561001057600080fd5b50611bff806100206000396000f3fe608060405234801561001057600080fd5b50600436106100cf5760003560e01c80635bfc52ad1161008c5780637b77cd6a116100665780637b77cd6a1461018b57806381fe4d2e1461019e5780638da5cb5b146101b1578063f2fde38b146101cc57600080fd5b80635bfc52ad14610168578063715018a614610170578063746460a91461017857600080fd5b806303b54d52146100d45780630e40c183146100e95780630f0054d31461011c5780631496e0bf1461012f57806331d8e455146101425780634dd9584a14610155575b600080fd5b6100e76100e236600461139c565b6101df565b005b6101096100f73660046113fb565b6000908152606c602052604090205490565b6040519081526020015b60405180910390f35b61010961012a366004611414565b6103dd565b6100e761013d3660046113fb565b610622565b6100e7610150366004611436565b61062f565b6100e7610163366004611436565b6106c3565b610109610713565b6100e7610803565b6100e76101863660046113fb565b610817565b6100e7610199366004611436565b610844565b6101096101ac36600461150f565b6108d5565b6033546040516001600160a01b039091168152602001610113565b6100e76101da366004611436565b610aa4565b600054610100900460ff16158080156101ff5750600054600160ff909116105b806102195750303b158015610219575060005460ff166001145b6102815760405162461bcd60e51b815260206004820152602e60248201527f496e697469616c697a61626c653a20636f6e747261637420697320616c72656160448201526d191e481a5b9a5d1a585b1a5e995960921b60648201526084015b60405180910390fd5b6000805460ff1916600117905580156102a4576000805461ff0019166101001790555b6001600160a01b0386166102ca5760405162461bcd60e51b81526004016102789061167b565b6001600160a01b0383166103205760405162461bcd60e51b815260206004820152601f60248201527f5269736b2046756e643a2042555344206164647265737320696e76616c6964006044820152606401610278565b600084116103405760405162461bcd60e51b8152600401610278906116c2565b610348610b1d565b606680546001600160a01b038089166001600160a01b0319928316179092556068879055606786905560698054868416908316179055606b80549285169290911691909117905580156103d5576000805461ff0019169055604051600181527f7f26b83ff96e1f2b6a682f133852f6798a09c465da95921460cefb38474024989060200160405180910390a15b505050505050565b606b54604080516318c5e8ab60e01b81523360048201526024810191909152602a60448201527f7472616e7366657252657365727665466f7241756374696f6e2875696e743235606482015269362c75696e743235362960b01b608482015260009182916001600160a01b03909116906318c5e8ab9060a401602060405180830381865afa158015610473573d6000803e3d6000fd5b505050506040513d601f19601f820116820180604052508101906104979190611709565b9050806104fb5760405162461bcd60e51b815260206004820152602c60248201527f5269736b2066756e643a204e6f7420617574686f72697a656420746f2074726160448201526b3739b332b910333ab732399760a11b6064820152608401610278565b606a546001600160a01b03166105685760405162461bcd60e51b815260206004820152602c60248201527f5269736b2046756e643a2041756374696f6e20636f6e747261637420696e766160448201526b3634b21030b2323932b9b99760a11b6064820152608401610278565b6000848152606c60205260409020548311156105d45760405162461bcd60e51b815260206004820152602560248201527f5269736b2046756e643a20496e73756666696369656e7420706f6f6c2072657360448201526432b93b329760d91b6064820152608401610278565b6000848152606c60205260409020546105ee908490611741565b6000858152606c6020526040902055606a5460695461061a916001600160a01b03918216911685610b4c565b509092915050565b61062a610ba3565b606855565b610637610ba3565b6001600160a01b0381166106a15760405162461bcd60e51b815260206004820152602b60248201527f5269736b2046756e643a2041756374696f6e20636f6e7472616374206164647260448201526a195cdcc81a5b9d985b1a5960aa1b6064820152608401610278565b606a80546001600160a01b0319166001600160a01b0392909216919091179055565b6106cb610ba3565b6001600160a01b0381166106f15760405162461bcd60e51b81526004016102789061167b565b606680546001600160a01b0319166001600160a01b0392909216919091179055565b6065546000906001600160a01b03166107785760405162461bcd60e51b815260206004820152602160248201527f5269736b2066756e643a20496e76616c696420706f6f6c2072656769737472796044820152601760f91b6064820152608401610278565b60655460408051633623fc7d60e21b815290516001600160a01b0390921691600091839163d88ff1f49160048082019286929091908290030181865afa1580156107c6573d6000803e3d6000fd5b505050506040513d6000823e601f3d908101601f191682016040526107ee9190810190611793565b905060006107fb826108d5565b949350505050565b61080b610ba3565b6108156000610bfd565b565b61081f610ba3565b6000811161083f5760405162461bcd60e51b8152600401610278906116c2565b606755565b61084c610ba3565b6001600160a01b0381166108b35760405162461bcd60e51b815260206004820152602860248201527f5269736b2046756e643a20506f6f6c2072656769737472792061646472657373604482015267081a5b9d985b1a5960c21b6064820152608401610278565b606580546001600160a01b0319166001600160a01b0392909216919091179055565b60008060005b8351811015610a9d5760006001600160a01b0316848281518110610901576109016118eb565b6020026020010151606001516001600160a01b031614610a8d57600084828151811061092f5761092f6118eb565b6020026020010151606001516001600160a01b031663b0772d0b6040518163ffffffff1660e01b8152600401600060405180830381865afa158015610978573d6000803e3d6000fd5b505050506040513d6000823e601f3d908101601f191682016040526109a09190810190611901565b905060005b8151811015610a8a5760008684815181106109c2576109c26118eb565b602002602001015160600151905060008383815181106109e4576109e46118eb565b6020026020010151905060006109fa8284610c4f565b905080606c60008b8981518110610a1357610a136118eb565b602002602001015160000151815260200190815260200160002054610a389190611990565b606c60008b8981518110610a4e57610a4e6118eb565b60209081029190910181015151825281019190915260400160002055610a748188611990565b965050505080610a83906119a8565b90506109a5565b50505b610a96816119a8565b90506108db565b5092915050565b610aac610ba3565b6001600160a01b038116610b115760405162461bcd60e51b815260206004820152602660248201527f4f776e61626c653a206e6577206f776e657220697320746865207a65726f206160448201526564647265737360d01b6064820152608401610278565b610b1a81610bfd565b50565b600054610100900460ff16610b445760405162461bcd60e51b8152600401610278906119c1565b61081561107f565b604080516001600160a01b038416602482015260448082018490528251808303909101815260649091019091526020810180516001600160e01b031663a9059cbb60e01b179052610b9e9084906110af565b505050565b6033546001600160a01b031633146108155760405162461bcd60e51b815260206004820181905260248201527f4f776e61626c653a2063616c6c6572206973206e6f7420746865206f776e65726044820152606401610278565b603380546001600160a01b038381166001600160a01b0319831681179093556040519116919082907f8be0079c531659141344cd1fd0a4f28419497f9722a3daafe3b4186f6b6457e090600090a35050565b6000806000846001600160a01b0316636f307dc36040518163ffffffff1660e01b8152600401602060405180830381865afa158015610c92573d6000803e3d6000fd5b505050506040513d601f19601f82011682018060405250810190610cb69190611a0c565b6040516370a0823160e01b81523060048201529091506000906001600160a01b038316906370a0823190602401602060405180830381865afa158015610d00573d6000803e3d6000fd5b505050506040513d601f19601f82011682018060405250810190610d249190611a29565b9050846001600160a01b0316637dc0d1d06040518163ffffffff1660e01b8152600401602060405180830381865afa158015610d64573d6000803e3d6000fd5b505050506040513d601f19601f82011682018060405250810190610d889190611a0c565b6040516396e85ced60e01b81526001600160a01b03888116600483015291909116906396e85ced90602401600060405180830381600087803b158015610dcd57600080fd5b505af1158015610de1573d6000803e3d6000fd5b505050506000856001600160a01b0316637dc0d1d06040518163ffffffff1660e01b8152600401602060405180830381865afa158015610e25573d6000803e3d6000fd5b505050506040513d601f19601f82011682018060405250810190610e499190611a0c565b60405163fc57d4df60e01b81526001600160a01b038981166004830152919091169063fc57d4df90602401602060405180830381865afa158015610e91573d6000803e3d6000fd5b505050506040513d601f19601f82011682018060405250810190610eb59190611a29565b905081156110745760408051602081019091528181526000610ed78285611181565b90506067548110611071576040805160028082526060820183526000926020830190803683370190505090508581600081518110610f1757610f176118eb565b6001600160a01b039283166020918202929092010152606954825191169082906001908110610f4857610f486118eb565b6001600160a01b03928316602091820292909201015260665460405163095ea7b360e01b81529082166004820152602481018790529087169063095ea7b3906044016020604051808303816000875af1158015610fa9573d6000803e3d6000fd5b505050506040513d601f19601f82011682018060405250810190610fcd9190611709565b506066546068546040516338ed173960e01b81526000926001600160a01b0316916338ed173991611008918a91879030904290600401611a42565b6000604051808303816000875af1158015611027573d6000803e3d6000fd5b505050506040513d6000823e601f3d908101601f1916820160405261104f9190810190611ab3565b905080600181518110611064576110646118eb565b6020026020010151975050505b50505b509195945050505050565b600054610100900460ff166110a65760405162461bcd60e51b8152600401610278906119c1565b61081533610bfd565b6000611104826040518060400160405280602081526020017f5361666545524332303a206c6f772d6c6576656c2063616c6c206661696c6564815250856001600160a01b03166111999092919063ffffffff16565b805190915015610b9e57808060200190518101906111229190611709565b610b9e5760405162461bcd60e51b815260206004820152602a60248201527f5361666545524332303a204552433230206f7065726174696f6e20646964206e6044820152691bdd081cdd58d8d9595960b21b6064820152608401610278565b60008061118e84846111b2565b90506107fb816111e3565b60606111a88484600085611201565b90505b9392505050565b60408051602081019091526000815260405180602001604052806111da856000015185611332565b90529392505050565b80516000906111fb90670de0b6b3a764000090611b39565b92915050565b6060824710156112625760405162461bcd60e51b815260206004820152602660248201527f416464726573733a20696e73756666696369656e742062616c616e636520666f6044820152651c8818d85b1b60d21b6064820152608401610278565b6001600160a01b0385163b6112b95760405162461bcd60e51b815260206004820152601d60248201527f416464726573733a2063616c6c20746f206e6f6e2d636f6e74726163740000006044820152606401610278565b600080866001600160a01b031685876040516112d59190611b5b565b60006040518083038185875af1925050503d8060008114611312576040519150601f19603f3d011682016040523d82523d6000602084013e611317565b606091505b509150915061132782828661133e565b979650505050505050565b60006111ab8284611b77565b6060831561134d5750816111ab565b82511561135d5782518084602001fd5b8160405162461bcd60e51b81526004016102789190611b96565b6001600160a01b0381168114610b1a57600080fd5b803561139781611377565b919050565b600080600080600060a086880312156113b457600080fd5b85356113bf81611377565b9450602086013593506040860135925060608601356113dd81611377565b915060808601356113ed81611377565b809150509295509295909350565b60006020828403121561140d57600080fd5b5035919050565b6000806040838503121561142757600080fd5b50508035926020909101359150565b60006020828403121561144857600080fd5b81356111ab81611377565b634e487b7160e01b600052604160045260246000fd5b60405160c0810167ffffffffffffffff8111828210171561148c5761148c611453565b60405290565b604051601f8201601f1916810167ffffffffffffffff811182821017156114bb576114bb611453565b604052919050565b600067ffffffffffffffff8211156114dd576114dd611453565b5060051b60200190565b600067ffffffffffffffff82111561150157611501611453565b50601f01601f191660200190565b6000602080838503121561152257600080fd5b823567ffffffffffffffff8082111561153a57600080fd5b818501915085601f83011261154e57600080fd5b813561156161155c826114c3565b611492565b81815260059190911b8301840190848101908883111561158057600080fd5b8585015b8381101561166e5780358581111561159b57600080fd5b860160c0818c03601f190112156115b25760008081fd5b6115ba611469565b888201358152604080830135888111156115d45760008081fd5b8301603f81018e136115e65760008081fd5b8a8101356115f661155c826114e7565b8181528f8483850101111561160b5760008081fd5b818484018e83013760008d8383010152808d860152505050606061163081850161138c565b828401526080915061164382850161138c565b9083015260a0838101359183019190915260c090920135918101919091528352918601918601611584565b5098975050505050505050565b60208082526027908201527f5269736b2046756e643a2050616e63616b6520737761702061646472657373206040820152661a5b9d985b1a5960ca1b606082015260800190565b60208082526027908201527f5269736b2046756e643a20496e76616c6964206d696e20616d6f757420746f2060408201526618dbdb9d995c9d60ca1b606082015260800190565b60006020828403121561171b57600080fd5b815180151581146111ab57600080fd5b634e487b7160e01b600052601160045260246000fd5b6000828210156117535761175361172b565b500390565b60005b8381101561177357818101518382015260200161175b565b83811115611782576000848401525b50505050565b805161139781611377565b600060208083850312156117a657600080fd5b825167ffffffffffffffff808211156117be57600080fd5b818501915085601f8301126117d257600080fd5b81516117e061155c826114c3565b81815260059190911b830184019084810190888311156117ff57600080fd5b8585015b8381101561166e5780518581111561181a57600080fd5b860160c0818c03601f190112156118315760008081fd5b611839611469565b888201518152604080830151888111156118535760008081fd5b8301603f81018e136118655760008081fd5b8a81015161187561155c826114e7565b8181528f8483850101111561188a5760008081fd5b611899828e8301868601611758565b848d015250606090506118ad848201611788565b82840152608091506118c0828501611788565b9083015260a0838101519183019190915260c090920151918101919091528352918601918601611803565b634e487b7160e01b600052603260045260246000fd5b6000602080838503121561191457600080fd5b825167ffffffffffffffff81111561192b57600080fd5b8301601f8101851361193c57600080fd5b805161194a61155c826114c3565b81815260059190911b8201830190838101908783111561196957600080fd5b928401925b8284101561132757835161198181611377565b8252928401929084019061196e565b600082198211156119a3576119a361172b565b500190565b6000600182016119ba576119ba61172b565b5060010190565b6020808252602b908201527f496e697469616c697a61626c653a20636f6e7472616374206973206e6f74206960408201526a6e697469616c697a696e6760a81b606082015260800190565b600060208284031215611a1e57600080fd5b81516111ab81611377565b600060208284031215611a3b57600080fd5b5051919050565b600060a082018783526020878185015260a0604085015281875180845260c086019150828901935060005b81811015611a925784516001600160a01b031683529383019391830191600101611a6d565b50506001600160a01b03969096166060850152505050608001529392505050565b60006020808385031215611ac657600080fd5b825167ffffffffffffffff811115611add57600080fd5b8301601f81018513611aee57600080fd5b8051611afc61155c826114c3565b81815260059190911b82018301908381019087831115611b1b57600080fd5b928401925b8284101561132757835182529284019290840190611b20565b600082611b5657634e487b7160e01b600052601260045260246000fd5b500490565b60008251611b6d818460208701611758565b9190910192915050565b6000816000190483118215151615611b9157611b9161172b565b500290565b6020815260008251806020840152611bb5816040850160208701611758565b601f01601f1916919091016040019291505056fea26469706673582212208eec92e16ef617df015e4081f38c0f961f5acbbd50abce17f17a5c960eec569364736f6c634300080d0033",
  "devdoc": {
    "details": "This contract does not support BNB.",
    "kind": "dev",
    "methods": {
      "getPoolReserve(uint256)": {
        "details": "Get pool reserve by pool id.",
        "params": {
          "poolId": "Id of the pool."
        },
        "returns": {
          "_0": "Number reserved tokens."
        }
      },
      "initialize(address,uint256,uint256,address,address)": {
        "details": "Initializes the deployer to owner.",
        "params": {
          "_accessControl": "Address of the access control contract.",
          "_amountOutMin": "Min amount out for the pancake swap.",
          "_convertableBUSDAddress": "Address of the BUSD",
          "_minAmountToConvert": "Asset should be worth of min amount to convert to BUSD",
          "_pancakeSwapRouter": "Address of the pancake swap router."
        }
      },
      "owner()": {
        "details": "Returns the address of the current owner."
      },
      "renounceOwnership()": {
        "details": "Leaves the contract without owner. It will not be possible to call `onlyOwner` functions anymore. Can only be called by the current owner. NOTE: Renouncing ownership will leave the contract without an owner, thereby removing any functionality that is only available to the owner."
      },
      "setAmountOutMin(uint256)": {
        "details": "Min amount out setter",
        "params": {
          "_amountOutMin": "Min amount out for the pancake swap."
        }
      },
      "setAuctionContractAddress(address)": {
        "details": "Auction contract address setter",
        "params": {
          "_auctionContractAddress": "Address of the auction contract."
        }
      },
      "setMinAmountToConvert(uint256)": {
        "details": "Min amout to convert setter",
        "params": {
          "_minAmountToConvert": "Min amout to convert."
        }
      },
      "setPancakeSwapRouter(address)": {
        "details": "Pancake swap router address setter",
        "params": {
          "_pancakeSwapRouter": "Address of the pancake swap router."
        }
      },
      "setPoolRegistry(address)": {
        "details": "Pool registry setter",
        "params": {
          "_poolRegistry": "Address of the pool registry."
        }
      },
      "swapAllPoolsAssets()": {
        "details": "Swap assets of all pools into BUSD tokens.",
        "returns": {
          "_0": "Number of BUSD tokens."
        }
      },
      "swapPoolsAssets((uint256,string,address,address,uint256,uint256)[])": {
        "details": "Swap assets of selected pools into BUSD tokens.",
        "params": {
          "venusPools": "Array of Pools to swap for BUSD"
        },
        "returns": {
          "_0": "Number of BUSD tokens."
        }
      },
      "transferOwnership(address)": {
        "details": "Transfers ownership of the contract to a new account (`newOwner`). Can only be called by the current owner."
      },
      "transferReserveForAuction(uint256,uint256)": {
        "details": "Transfer tokens for auction.",
        "params": {
          "amount": "Amount to be transferred to auction contract.",
          "poolId": "Id of the pool."
        },
        "returns": {
          "_0": "Number reserved tokens."
        }
      }
    },
    "version": 1
  },
  "userdoc": {
    "kind": "user",
    "methods": {},
    "version": 1
  },
  "storageLayout": {
    "storage": [
      {
        "astId": 218,
        "contract": "contracts/RiskFund/RiskFund.sol:RiskFund",
        "label": "_initialized",
        "offset": 0,
        "slot": "0",
        "type": "t_uint8"
      },
      {
        "astId": 221,
        "contract": "contracts/RiskFund/RiskFund.sol:RiskFund",
        "label": "_initializing",
        "offset": 1,
        "slot": "0",
        "type": "t_bool"
      },
      {
        "astId": 832,
        "contract": "contracts/RiskFund/RiskFund.sol:RiskFund",
        "label": "__gap",
        "offset": 0,
        "slot": "1",
        "type": "t_array(t_uint256)50_storage"
      },
      {
        "astId": 10,
        "contract": "contracts/RiskFund/RiskFund.sol:RiskFund",
        "label": "_owner",
        "offset": 0,
        "slot": "51",
        "type": "t_address"
      },
      {
        "astId": 130,
        "contract": "contracts/RiskFund/RiskFund.sol:RiskFund",
        "label": "__gap",
        "offset": 0,
        "slot": "52",
        "type": "t_array(t_uint256)49_storage"
      },
      {
        "astId": 14535,
        "contract": "contracts/RiskFund/RiskFund.sol:RiskFund",
        "label": "poolRegistry",
        "offset": 0,
        "slot": "101",
        "type": "t_address"
      },
      {
        "astId": 14537,
        "contract": "contracts/RiskFund/RiskFund.sol:RiskFund",
        "label": "pancakeSwapRouter",
        "offset": 0,
        "slot": "102",
        "type": "t_address"
      },
      {
        "astId": 14539,
        "contract": "contracts/RiskFund/RiskFund.sol:RiskFund",
        "label": "minAmountToConvert",
        "offset": 0,
        "slot": "103",
        "type": "t_uint256"
      },
      {
        "astId": 14541,
        "contract": "contracts/RiskFund/RiskFund.sol:RiskFund",
        "label": "amountOutMin",
        "offset": 0,
        "slot": "104",
        "type": "t_uint256"
      },
      {
        "astId": 14543,
        "contract": "contracts/RiskFund/RiskFund.sol:RiskFund",
        "label": "convertableBUSDAddress",
        "offset": 0,
        "slot": "105",
        "type": "t_address"
      },
      {
        "astId": 14545,
        "contract": "contracts/RiskFund/RiskFund.sol:RiskFund",
        "label": "auctionContractAddress",
        "offset": 0,
        "slot": "106",
        "type": "t_address"
      },
      {
        "astId": 14547,
        "contract": "contracts/RiskFund/RiskFund.sol:RiskFund",
        "label": "accessControl",
        "offset": 0,
        "slot": "107",
        "type": "t_address"
      },
      {
        "astId": 14551,
        "contract": "contracts/RiskFund/RiskFund.sol:RiskFund",
        "label": "poolReserves",
        "offset": 0,
        "slot": "108",
        "type": "t_mapping(t_uint256,t_uint256)"
      }
    ],
    "types": {
      "t_address": {
        "encoding": "inplace",
        "label": "address",
        "numberOfBytes": "20"
      },
      "t_array(t_uint256)49_storage": {
        "base": "t_uint256",
        "encoding": "inplace",
        "label": "uint256[49]",
        "numberOfBytes": "1568"
      },
      "t_array(t_uint256)50_storage": {
        "base": "t_uint256",
        "encoding": "inplace",
        "label": "uint256[50]",
        "numberOfBytes": "1600"
      },
      "t_bool": {
        "encoding": "inplace",
        "label": "bool",
        "numberOfBytes": "1"
      },
      "t_mapping(t_uint256,t_uint256)": {
        "encoding": "mapping",
        "key": "t_uint256",
        "label": "mapping(uint256 => uint256)",
        "numberOfBytes": "32",
        "value": "t_uint256"
      },
      "t_uint256": {
        "encoding": "inplace",
        "label": "uint256",
        "numberOfBytes": "32"
      },
      "t_uint8": {
        "encoding": "inplace",
        "label": "uint8",
        "numberOfBytes": "1"
      }
    }
  }
}