{
  "address": "0x056c38DA67Cbd9396eE4E4ba5fC64eed80238F7D",
  "abi": [
    {
      "anonymous": false,
      "inputs": [
        {
          "indexed": false,
          "internalType": "address",
          "name": "comptroller",
          "type": "address"
        },
        {
          "indexed": false,
          "internalType": "address",
          "name": "highestBidder",
          "type": "address"
        },
        {
          "indexed": false,
          "internalType": "uint256",
          "name": "highestBidBps",
          "type": "uint256"
        },
        {
          "indexed": false,
          "internalType": "uint256",
          "name": "seizedRiskFind",
          "type": "uint256"
        },
        {
          "indexed": false,
          "internalType": "contract VToken[]",
          "name": "markets",
          "type": "address[]"
        },
        {
          "indexed": false,
          "internalType": "uint256[]",
          "name": "marketDebt",
          "type": "uint256[]"
        }
      ],
      "name": "AuctionClosed",
      "type": "event"
    },
    {
      "anonymous": false,
      "inputs": [
        {
          "indexed": false,
          "internalType": "address",
          "name": "comptroller",
          "type": "address"
        }
      ],
      "name": "AuctionRestarted",
      "type": "event"
    },
    {
      "anonymous": false,
      "inputs": [
        {
          "indexed": false,
          "internalType": "address",
          "name": "comptroller",
          "type": "address"
        },
        {
          "indexed": false,
          "internalType": "uint256",
          "name": "startBlock",
          "type": "uint256"
        },
        {
          "indexed": false,
          "internalType": "enum Shortfall.AuctionType",
          "name": "auctionType",
          "type": "uint8"
        },
        {
          "indexed": false,
          "internalType": "contract VToken[]",
          "name": "markets",
          "type": "address[]"
        },
        {
          "indexed": false,
          "internalType": "uint256[]",
          "name": "marketsDebt",
          "type": "uint256[]"
        },
        {
          "indexed": false,
          "internalType": "uint256",
          "name": "seizedRiskFund",
          "type": "uint256"
        },
        {
          "indexed": false,
          "internalType": "uint256",
          "name": "startBidBps",
          "type": "uint256"
        }
      ],
      "name": "AuctionStarted",
      "type": "event"
    },
    {
      "anonymous": false,
      "inputs": [
        {
          "indexed": false,
          "internalType": "address",
          "name": "comptroller",
          "type": "address"
        },
        {
          "indexed": false,
          "internalType": "uint256",
          "name": "bidBps",
          "type": "uint256"
        },
        {
          "indexed": false,
          "internalType": "address",
          "name": "bidder",
          "type": "address"
        }
      ],
      "name": "BidPlaced",
      "type": "event"
    },
    {
      "anonymous": false,
      "inputs": [
        {
          "indexed": false,
          "internalType": "uint8",
          "name": "version",
          "type": "uint8"
        }
      ],
      "name": "Initialized",
      "type": "event"
    },
    {
      "anonymous": false,
      "inputs": [
        {
          "indexed": true,
          "internalType": "address",
          "name": "previousOwner",
          "type": "address"
        },
        {
          "indexed": true,
          "internalType": "address",
          "name": "newOwner",
          "type": "address"
        }
      ],
      "name": "OwnershipTransferred",
      "type": "event"
    },
    {
      "inputs": [
        {
          "internalType": "address",
          "name": "",
          "type": "address"
        }
      ],
      "name": "auctions",
      "outputs": [
        {
          "internalType": "uint256",
          "name": "startBlock",
          "type": "uint256"
        },
        {
          "internalType": "enum Shortfall.AuctionType",
          "name": "auctionType",
          "type": "uint8"
        },
        {
          "internalType": "enum Shortfall.AuctionStatus",
          "name": "status",
          "type": "uint8"
        },
        {
          "internalType": "uint256",
          "name": "seizedRiskFund",
          "type": "uint256"
        },
        {
          "internalType": "address",
          "name": "highestBidder",
          "type": "address"
        },
        {
          "internalType": "uint256",
          "name": "highestBidBps",
          "type": "uint256"
        },
        {
          "internalType": "uint256",
          "name": "highestBidBlock",
          "type": "uint256"
        },
        {
          "internalType": "uint256",
          "name": "startBidBps",
          "type": "uint256"
        }
      ],
      "stateMutability": "view",
      "type": "function"
    },
    {
      "inputs": [
        {
          "internalType": "address",
          "name": "comptroller",
          "type": "address"
        }
      ],
      "name": "closeAuction",
      "outputs": [],
      "stateMutability": "nonpayable",
      "type": "function"
    },
    {
      "inputs": [
        {
          "internalType": "contract IERC20",
          "name": "_BUSD",
          "type": "address"
        },
        {
          "internalType": "contract IRiskFund",
          "name": "_riskFund",
          "type": "address"
        },
        {
          "internalType": "uint256",
          "name": "_minimumPoolBadDebt",
          "type": "uint256"
        }
      ],
      "name": "initialize",
      "outputs": [],
      "stateMutability": "nonpayable",
      "type": "function"
    },
    {
      "inputs": [],
      "name": "minimumPoolBadDebt",
      "outputs": [
        {
          "internalType": "uint256",
          "name": "",
          "type": "uint256"
        }
      ],
      "stateMutability": "view",
      "type": "function"
    },
    {
      "inputs": [],
      "name": "nextBidderBlockLimit",
      "outputs": [
        {
          "internalType": "uint256",
          "name": "",
          "type": "uint256"
        }
      ],
      "stateMutability": "view",
      "type": "function"
    },
    {
      "inputs": [],
      "name": "owner",
      "outputs": [
        {
          "internalType": "address",
          "name": "",
          "type": "address"
        }
      ],
      "stateMutability": "view",
      "type": "function"
    },
    {
      "inputs": [
        {
          "internalType": "address",
          "name": "comptroller",
          "type": "address"
        },
        {
          "internalType": "uint256",
          "name": "bidBps",
          "type": "uint256"
        }
      ],
      "name": "placeBid",
      "outputs": [],
      "stateMutability": "nonpayable",
      "type": "function"
    },
    {
      "inputs": [],
      "name": "poolRegistry",
      "outputs": [
        {
          "internalType": "address",
          "name": "",
          "type": "address"
        }
      ],
      "stateMutability": "view",
      "type": "function"
    },
    {
      "inputs": [],
      "name": "renounceOwnership",
      "outputs": [],
      "stateMutability": "nonpayable",
      "type": "function"
    },
    {
      "inputs": [
        {
          "internalType": "address",
          "name": "comptroller",
          "type": "address"
        }
      ],
      "name": "restartAuction",
      "outputs": [],
      "stateMutability": "nonpayable",
      "type": "function"
    },
    {
      "inputs": [
        {
          "internalType": "address",
          "name": "_poolRegistry",
          "type": "address"
        }
      ],
      "name": "setPoolRegistry",
      "outputs": [],
      "stateMutability": "nonpayable",
      "type": "function"
    },
    {
      "inputs": [
        {
          "internalType": "address",
          "name": "comptroller",
          "type": "address"
        }
      ],
      "name": "startAuction",
      "outputs": [],
      "stateMutability": "nonpayable",
      "type": "function"
    },
    {
      "inputs": [
        {
          "internalType": "address",
          "name": "newOwner",
          "type": "address"
        }
      ],
      "name": "transferOwnership",
      "outputs": [],
      "stateMutability": "nonpayable",
      "type": "function"
    },
    {
      "inputs": [
        {
          "internalType": "uint256",
          "name": "_minimumPoolBadDebt",
          "type": "uint256"
        }
      ],
      "name": "updateMinimumPoolBadDebt",
      "outputs": [],
      "stateMutability": "nonpayable",
      "type": "function"
    },
    {
      "inputs": [],
      "name": "waitForFirstBidder",
      "outputs": [
        {
          "internalType": "uint256",
          "name": "",
          "type": "uint256"
        }
      ],
      "stateMutability": "view",
      "type": "function"
    }
  ],
  "transactionHash": "0xa84dd4515450d57b0ec63c33a4405da9c36b379491e0dc11e128e35a2a9857c6",
  "args": [],
  "numDeployments": 1,
  "solcInputHash": "bfe6cf08237990fb7f580aa34eab6bcb",
  "bytecode": "0x608060405234801561001057600080fd5b50612485806100206000396000f3fe608060405234801561001057600080fd5b50600436106100f55760003560e01c8063715018a6116100975780638da5cb5b116100665780638da5cb5b14610216578063afcff50f1461023b578063d98b9bb51461024e578063f2fde38b1461026157600080fd5b8063715018a6146101eb57806373d73f40146101f35780637b77cd6a146101fb578063892149a31461020e57600080fd5b8063264ad3d4116100d3578063264ad3d41461019b5780634075fa0f146101b25780634b34e566146101c557806351b2fd01146101d857600080fd5b80630db011d0146100fa5780631794bb3c1461010f5780631d59410a14610122575b600080fd5b61010d610108366004611f7b565b610274565b005b61010d61011d366004611f9f565b6103c2565b61017e610130366004611f7b565b609b602052600090815260409020805460018201546003830154600484015460058501546006860154600790960154949560ff8086169661010090960416946001600160a01b039093169288565b60405161019298979695949392919061200a565b60405180910390f35b6101a460995481565b604051908152602001610192565b61010d6101c0366004611f7b565b610513565b61010d6101d3366004611f7b565b610cb2565b61010d6101e6366004612069565b61155a565b61010d611567565b6101a4600a81565b61010d610209366004611f7b565b61157b565b6101a4606481565b6033546001600160a01b03165b6040516001600160a01b039091168152602001610192565b609754610223906001600160a01b031681565b61010d61025c366004612082565b6115ed565b61010d61026f366004611f7b565b611ced565b6001600160a01b0381166000908152609b602052604090208054158015906102b85750600180820154610100900460ff1660028111156102b6576102b6611fe0565b145b6102dd5760405162461bcd60e51b81526004016102d4906120ae565b60405180910390fd5b80546102eb906064906120f1565b43118015610304575060048101546001600160a01b0316155b6103685760405162461bcd60e51b815260206004820152602f60248201527f796f75206e65656420746f207761697420666f72206d6f72652074696d65206660448201526e37b9103334b939ba103134b23232b960891b60648201526084016102d4565b60018101805461ff001916610200179055604080516001600160a01b038416815290517fb65e37e6b8d040e4a5b1dc148e21f7a271642ceee30b71afeb826c816024f43e9181900360200190a16103be82610513565b5050565b600054610100900460ff16158080156103e25750600054600160ff909116105b806103fc5750303b1580156103fc575060005460ff166001145b61045f5760405162461bcd60e51b815260206004820152602e60248201527f496e697469616c697a61626c653a20636f6e747261637420697320616c72656160448201526d191e481a5b9a5d1a585b1a5e995960921b60648201526084016102d4565b6000805460ff191660011790558015610482576000805461ff0019166101001790555b61048a611d66565b610492611d95565b6099829055609a80546001600160a01b038087166001600160a01b0319928316179092556098805492861692909116919091179055801561050d576000805461ff0019169055604051600181527f7f26b83ff96e1f2b6a682f133852f6798a09c465da95921460cefb38474024989060200160405180910390a15b50505050565b61051b611dc4565b6001600160a01b0381166000908152609b60205260409020805415801561055f575060006001820154610100900460ff16600281111561055d5761055d611fe0565b145b80610587575060026001820154610100900460ff16600281111561058557610585611fe0565b145b6105c95760405162461bcd60e51b815260206004820152601360248201527261756374696f6e206973206f6e2d676f696e6760681b60448201526064016102d4565b60005b60028201548110156106345760008260020182815481106105ef576105ef612109565b60009182526020808320909101546001600160a01b0316825260088501905260408120819055600584018190556006840155508061062c8161211f565b9150506105cc565b50610643600282016000611ece565b600082905060008390506000826001600160a01b031663b0772d0b6040518163ffffffff1660e01b8152600401600060405180830381865afa15801561068d573d6000803e3d6000fd5b505050506040513d6000823e601f3d908101601f191682016040526106b5919081019061215e565b90506000826001600160a01b0316637dc0d1d06040518163ffffffff1660e01b8152600401602060405180830381865afa1580156106f7573d6000803e3d6000fd5b505050506040513d601f19601f8201168201806040525081019061071b9190612223565b9050600080835167ffffffffffffffff81111561073a5761073a612138565b604051908082528060200260200182016040528015610763578160200160208202803683370190505b509050835167ffffffffffffffff81111561078057610780612138565b6040519080825280602002602001820160405280156107a9578160200160208202803683370190505b5080516107c09160028a0191602090910190611eec565b5060005b8451811015610a6b5760008582815181106107e1576107e1612109565b60200260200101516001600160a01b031663bbcac5576040518163ffffffff1660e01b8152600401602060405180830381865afa158015610826573d6000803e3d6000fd5b505050506040513d601f19601f8201168201806040525081019061084a9190612240565b9050846001600160a01b03166396e85ced87848151811061086d5761086d612109565b60200260200101516040518263ffffffff1660e01b81526004016108a091906001600160a01b0391909116815260200190565b600060405180830381600087803b1580156108ba57600080fd5b505af11580156108ce573d6000803e3d6000fd5b505050506000670de0b6b3a764000082876001600160a01b031663fc57d4df8a87815181106108ff576108ff612109565b60200260200101516040518263ffffffff1660e01b815260040161093291906001600160a01b0391909116815260200190565b602060405180830381865afa15801561094f573d6000803e3d6000fd5b505050506040513d601f19601f820116820180604052508101906109739190612240565b61097d9190612259565b6109879190612278565b905061099381866120f1565b94508683815181106109a7576109a7612109565b60200260200101518a60020184815481106109c4576109c4612109565b9060005260206000200160006101000a8154816001600160a01b0302191690836001600160a01b03160217905550818a6008016000898681518110610a0b57610a0b612109565b60200260200101516001600160a01b03166001600160a01b031681526020019081526020016000208190555081848481518110610a4a57610a4a612109565b60200260200101818152505050508080610a639061211f565b9150506107c4565b50609954821015610abe5760405162461bcd60e51b815260206004820152601860248201527f706f6f6c20626164206465627420697320746f6f206c6f77000000000000000060448201526064016102d4565b60985460405163058dd4cd60e31b81526001600160a01b038a811660048301526000921690632c6ea66890602401602060405180830381865afa158015610b09573d6000803e3d6000fd5b505050506040513d601f19601f82011682018060405250810190610b2d9190612240565b90508080612710610b406103e887612259565b610b4a9190612278565b610b5490866120f1565b10610b96578381610b696103e861271061229a565b610b739190612259565b610b7d9190612278565b60078a01555060018801805460ff191690556000610bf2565b80600085612710610ba9826103e8612259565b610bb39190612278565b610bbd91906120f1565b905082811015610bcb578091505b610bd5828461229a565b60018c8101805460ff1916909117905561271060078d0155925050505b610bfc818361229a565b60038a01554389556001808a01805461ff00191661010083021790555060008960040160006101000a8154816001600160a01b0302191690836001600160a01b031602179055507f56c1f0c5ea96c78d614c0246b1915086a325f09ce15526bd5d69b50232d681328a8a600001548b60010160009054906101000a900460ff168c600201878e600301548f60070154604051610c9e979695949392919061232a565b60405180910390a150505050505050505050565b600260655403610d045760405162461bcd60e51b815260206004820152601f60248201527f5265656e7472616e637947756172643a207265656e7472616e742063616c6c0060448201526064016102d4565b60026065556001600160a01b0381166000908152609b60205260409020805415801590610d4d5750600180820154610100900460ff166002811115610d4b57610d4b611fe0565b145b610d695760405162461bcd60e51b81526004016102d4906120ae565b600a8160060154610d7a91906120f1565b43118015610d94575060048101546001600160a01b031615155b610df65760405162461bcd60e51b815260206004820152602d60248201527f77616974696e6720666f72206e657874206269646465722e2063616e6e6f742060448201526c31b637b9b29030bab1ba34b7b760991b60648201526084016102d4565b600281015460009067ffffffffffffffff811115610e1657610e16612138565b604051908082528060200260200182016040528015610e3f578160200160208202803683370190505b5060018301805461ff001916610200179055905060005b600283015481101561126a576000836002018281548110610e7957610e79612109565b600091825260208083209091015460408051636f307dc360e01b815290516001600160a01b0390921694508492636f307dc3926004808401938290030181865afa158015610ecb573d6000803e3d6000fd5b505050506040513d601f19601f82011682018060405250810190610eef9190612223565b9050600060018087015460ff1690811115610f0c57610f0c611fe0565b036110385760006127108660050154876008016000896002018881548110610f3657610f36612109565b60009182526020808320909101546001600160a01b03168352820192909252604001902054610f659190612259565b610f6f9190612278565b9050816001600160a01b031663a9059cbb876002018681548110610f9557610f95612109565b60009182526020909120015460405160e083901b6001600160e01b03191681526001600160a01b039091166004820152602481018490526044016020604051808303816000875af1158015610fee573d6000803e3d6000fd5b505050506040513d601f19601f820116820180604052508101906110129190612389565b508085858151811061102657611026612109565b60200260200101818152505050611189565b806001600160a01b031663a9059cbb86600201858154811061105c5761105c612109565b9060005260206000200160009054906101000a90046001600160a01b031687600801600089600201888154811061109557611095612109565b6000918252602080832091909101546001600160a01b039081168452908301939093526040918201902054905160e085901b6001600160e01b031916815292909116600483015260248201526044016020604051808303816000875af1158015611103573d6000803e3d6000fd5b505050506040513d601f19601f820116820180604052508101906111279190612389565b5084600801600086600201858154811061114357611143612109565b60009182526020808320909101546001600160a01b03168352820192909252604001902054845185908590811061117c5761117c612109565b6020026020010181815250505b84600201838154811061119e5761119e612109565b60009182526020822001546002870180546001600160a01b039092169263ef60450c9260088a019290889081106111d7576111d7612109565b60009182526020808320909101546001600160a01b0316835282019290925260409081019091205490516001600160e01b031960e084901b168152611223919060040190815260200190565b600060405180830381600087803b15801561123d57600080fd5b505af1158015611251573d6000803e3d6000fd5b50505050505080806112629061211f565b915050610e56565b506003820154600060018085015460ff169081111561128b5761128b611fe0565b0361138d57609854604051630a9837c560e01b81526001600160a01b0386811660048301526024820184905290911690630a9837c5906044016020604051808303816000875af11580156112e3573d6000803e3d6000fd5b505050506040513d601f19601f820116820180604052508101906113079190612240565b50609a5460048481015460405163a9059cbb60e01b81526001600160a01b0391821692810192909252602482018490529091169063a9059cbb906044016020604051808303816000875af1158015611363573d6000803e3d6000fd5b505050506040513d601f19601f820116820180604052508101906113879190612389565b506114f8565b612710836005015484600301546113a49190612259565b6113ae9190612278565b905060008184600301546113c2919061229a565b60985460038601549192506001600160a01b031690630a9837c59087906113ea90859061229a565b6040516001600160e01b031960e085901b1681526001600160a01b03909216600483015260248201526044016020604051808303816000875af1158015611435573d6000803e3d6000fd5b505050506040513d601f19601f820116820180604052508101906114599190612240565b50609a54600485015460038601546001600160a01b039283169263a9059cbb92169061148690859061229a565b6040516001600160e01b031960e085901b1681526001600160a01b03909216600483015260248201526044016020604051808303816000875af11580156114d1573d6000803e3d6000fd5b505050506040513d601f19601f820116820180604052508101906114f59190612389565b50505b600483015460058401546040517fe3909036d6edbf20a6684c2f2171151d74b64ee00f11422b8fcbd841a826f0d1926115479288926001600160a01b0390921691869060028a019089906123ab565b60405180910390a1505060016065555050565b611562611dc4565b609955565b61156f611dc4565b6115796000611e1e565b565b611583611dc4565b6001600160a01b0381166115cb5760405162461bcd60e51b815260206004820152600f60248201526e696e76616c6964206164647265737360881b60448201526064016102d4565b609780546001600160a01b0319166001600160a01b0392909216919091179055565b60026065540361163f5760405162461bcd60e51b815260206004820152601f60248201527f5265656e7472616e637947756172643a207265656e7472616e742063616c6c0060448201526064016102d4565b60026065556001600160a01b0382166000908152609b602052604090208054158015906116885750600180820154610100900460ff16600281111561168657611686611fe0565b145b6116a45760405162461bcd60e51b81526004016102d4906120ae565b6127108211156117055760405162461bcd60e51b815260206004820152602660248201527f626173697320706f696e74732063616e6e6f74206265206d6f7265207468616e60448201526502031303030360d41b60648201526084016102d4565b600060018083015460ff169081111561172057611720611fe0565b14801561176c575060048101546001600160a01b0316158015906117475750806005015482115b8061176c575060048101546001600160a01b031615801561176c575080600701548210155b806117d7575060018181015460ff168181111561178b5761178b611fe0565b1480156117d7575060048101546001600160a01b0316158015906117b25750806005015482105b806117d7575060048101546001600160a01b03161580156117d7575080600701548211155b6118235760405162461bcd60e51b815260206004820152601b60248201527f796f757220626964206973206e6f74207468652068696768657374000000000060448201526064016102d4565b60005b6002820154811015611c7357600082600201828154811061184957611849612109565b600091825260208083209091015460408051636f307dc360e01b815290516001600160a01b0390921694508492636f307dc3926004808401938290030181865afa15801561189b573d6000803e3d6000fd5b505050506040513d601f19601f820116820180604052508101906118bf9190612223565b9050600060018086015460ff16908111156118dc576118dc611fe0565b03611aaf5760048401546001600160a01b0316156119d4576000612710856005015486600801600088600201888154811061191957611919612109565b60009182526020808320909101546001600160a01b031683528201929092526040019020546119489190612259565b6119529190612278565b60048681015460405163a9059cbb60e01b81526001600160a01b0391821692810192909252602482018390529192509083169063a9059cbb906044016020604051808303816000875af11580156119ad573d6000803e3d6000fd5b505050506040513d601f19601f820116820180604052508101906119d19190612389565b50505b6000612710868660080160008860020188815481106119f5576119f5612109565b60009182526020808320909101546001600160a01b03168352820192909252604001902054611a249190612259565b611a2e9190612278565b6040516323b872dd60e01b8152336004820152306024820152604481018290529091506001600160a01b038316906323b872dd906064016020604051808303816000875af1158015611a84573d6000803e3d6000fd5b505050506040513d601f19601f82011682018060405250810190611aa89190612389565b5050611c5e565b60048401546001600160a01b031615611b9857806001600160a01b031663a9059cbb8560040160009054906101000a90046001600160a01b0316866008016000886002018881548110611b0457611b04612109565b6000918252602080832091909101546001600160a01b039081168452908301939093526040918201902054905160e085901b6001600160e01b031916815292909116600483015260248201526044016020604051808303816000875af1158015611b72573d6000803e3d6000fd5b505050506040513d601f19601f82011682018060405250810190611b969190612389565b505b806001600160a01b03166323b872dd3330876008016000896002018981548110611bc457611bc4612109565b6000918252602080832091909101546001600160a01b039081168452908301939093526040918201902054905160e086901b6001600160e01b031916815293821660048501529116602483015260448201526064016020604051808303816000875af1158015611c38573d6000803e3d6000fd5b505050506040513d601f19601f82011682018060405250810190611c5c9190612389565b505b50508080611c6b9061211f565b915050611826565b506004810180546001600160a01b0319163390811790915560058201839055436006830155604080516001600160a01b038616815260208101859052908101919091527f6f25148c4fd0f2b2e4d416a26d37d4376c0b65a426b57a537356a5e1e9d03fda9060600160405180910390a15050600160655550565b611cf5611dc4565b6001600160a01b038116611d5a5760405162461bcd60e51b815260206004820152602660248201527f4f776e61626c653a206e6577206f776e657220697320746865207a65726f206160448201526564647265737360d01b60648201526084016102d4565b611d6381611e1e565b50565b600054610100900460ff16611d8d5760405162461bcd60e51b81526004016102d490612404565b611579611e70565b600054610100900460ff16611dbc5760405162461bcd60e51b81526004016102d490612404565b611579611ea0565b6033546001600160a01b031633146115795760405162461bcd60e51b815260206004820181905260248201527f4f776e61626c653a2063616c6c6572206973206e6f7420746865206f776e657260448201526064016102d4565b603380546001600160a01b038381166001600160a01b0319831681179093556040519116919082907f8be0079c531659141344cd1fd0a4f28419497f9722a3daafe3b4186f6b6457e090600090a35050565b600054610100900460ff16611e975760405162461bcd60e51b81526004016102d490612404565b61157933611e1e565b600054610100900460ff16611ec75760405162461bcd60e51b81526004016102d490612404565b6001606555565b5080546000825590600052602060002090810190611d639190611f51565b828054828255906000526020600020908101928215611f41579160200282015b82811115611f4157825182546001600160a01b0319166001600160a01b03909116178255602090920191600190910190611f0c565b50611f4d929150611f51565b5090565b5b80821115611f4d5760008155600101611f52565b6001600160a01b0381168114611d6357600080fd5b600060208284031215611f8d57600080fd5b8135611f9881611f66565b9392505050565b600080600060608486031215611fb457600080fd5b8335611fbf81611f66565b92506020840135611fcf81611f66565b929592945050506040919091013590565b634e487b7160e01b600052602160045260246000fd5b6002811061200657612006611fe0565b9052565b888152610100810161201f602083018a611ff6565b6003881061202f5761202f611fe0565b604082019790975260608101959095526001600160a01b0393909316608085015260a084019190915260c083015260e09091015292915050565b60006020828403121561207b57600080fd5b5035919050565b6000806040838503121561209557600080fd5b82356120a081611f66565b946020939093013593505050565b60208082526013908201527237379037b716b3b7b4b7339030bab1ba34b7b760691b604082015260600190565b634e487b7160e01b600052601160045260246000fd5b60008219821115612104576121046120db565b500190565b634e487b7160e01b600052603260045260246000fd5b600060018201612131576121316120db565b5060010190565b634e487b7160e01b600052604160045260246000fd5b805161215981611f66565b919050565b6000602080838503121561217157600080fd5b825167ffffffffffffffff8082111561218957600080fd5b818501915085601f83011261219d57600080fd5b8151818111156121af576121af612138565b8060051b604051601f19603f830116810181811085821117156121d4576121d4612138565b6040529182528482019250838101850191888311156121f257600080fd5b938501935b82851015612217576122088561214e565b845293850193928501926121f7565b98975050505050505050565b60006020828403121561223557600080fd5b8151611f9881611f66565b60006020828403121561225257600080fd5b5051919050565b6000816000190483118215151615612273576122736120db565b500290565b60008261229557634e487b7160e01b600052601260045260246000fd5b500490565b6000828210156122ac576122ac6120db565b500390565b6000815480845260208085019450836000528060002060005b838110156122ef5781546001600160a01b0316875295820195600191820191016122ca565b509495945050505050565b600081518084526020808501945080840160005b838110156122ef5781518752958201959082019060010161230e565b6001600160a01b03881681526020810187905261234a6040820187611ff6565b60e06060820152600061236060e08301876122b1565b828103608084015261237281876122fa565b60a0840195909552505060c0015295945050505050565b60006020828403121561239b57600080fd5b81518015158114611f9857600080fd5b6001600160a01b03878116825286166020820152604081018590526060810184905260c0608082018190526000906123e5908301856122b1565b82810360a08401526123f781856122fa565b9998505050505050505050565b6020808252602b908201527f496e697469616c697a61626c653a20636f6e7472616374206973206e6f74206960408201526a6e697469616c697a696e6760a81b60608201526080019056fea264697066735822122027c6b15b2733ebb88c239f3e6616a2fb87e2e72182f9f1da5ea2c1dd6e0e399464736f6c634300080d0033",
  "devdoc": {
    "kind": "dev",
    "methods": {
      "closeAuction(address)": {
        "params": {
          "comptroller": "comptroller of the pool"
        }
      },
      "initialize(address,address,uint256)": {
        "params": {
          "_minimumPoolBadDebt": "Minimum bad debt in BUSD for a pool to start auction"
        }
      },
      "owner()": {
        "details": "Returns the address of the current owner."
      },
      "placeBid(address,uint256)": {
        "params": {
          "bidBps": "The bid m% or n%",
          "comptroller": "comptroller of the pool"
        }
      },
      "renounceOwnership()": {
        "details": "Leaves the contract without owner. It will not be possible to call `onlyOwner` functions anymore. Can only be called by the current owner. NOTE: Renouncing ownership will leave the contract without an owner, thereby removing any functionality that is only available to the owner."
      },
      "restartAuction(address)": {
        "params": {
          "comptroller": "ID of the pool"
        }
      },
      "setPoolRegistry(address)": {
        "params": {
          "_poolRegistry": "Address of pool registry contract"
        }
      },
      "startAuction(address)": {
        "params": {
          "comptroller": "comptroller of the pool"
        }
      },
      "transferOwnership(address)": {
        "details": "Transfers ownership of the contract to a new account (`newOwner`). Can only be called by the current owner."
      },
      "updateMinimumPoolBadDebt(uint256)": {
        "params": {
          "_minimumPoolBadDebt": "Minimum bad debt in BUSD for a pool to start auction"
        }
      }
    },
    "version": 1
  },
  "userdoc": {
    "events": {
      "AuctionClosed(address,address,uint256,uint256,address[],uint256[])": {
        "notice": "Emitted when a auction is completed"
      },
      "AuctionRestarted(address)": {
        "notice": "Emitted when a auction is restarted"
      },
      "AuctionStarted(address,uint256,uint8,address[],uint256[],uint256,uint256)": {
        "notice": "Emitted when a auction starts"
      },
      "BidPlaced(address,uint256,address)": {
        "notice": "Emitted when a bid is placed"
      }
    },
    "kind": "user",
    "methods": {
      "auctions(address)": {
        "notice": "Auctions for each pool"
      },
      "closeAuction(address)": {
        "notice": "Close an auction"
      },
      "initialize(address,address,uint256)": {
        "notice": "Initalize the shortfall contract"
      },
      "minimumPoolBadDebt()": {
        "notice": "Minimum USD debt in pool for shortfall to trigger"
      },
      "nextBidderBlockLimit()": {
        "notice": "Time to wait for next bidder. wait for 10 blocks"
      },
      "placeBid(address,uint256)": {
        "notice": "Place a bid in a auction"
      },
      "poolRegistry()": {
        "notice": "Pool registry address"
      },
      "restartAuction(address)": {
        "notice": "Restart an auction"
      },
      "setPoolRegistry(address)": {
        "notice": "After Pool Registry is deployed we need to set the pool registry address"
      },
      "startAuction(address)": {
        "notice": "Start a auction"
      },
      "updateMinimumPoolBadDebt(uint256)": {
        "notice": "Update minimum pool bad debt to start auction"
      },
      "waitForFirstBidder()": {
        "notice": "Time to wait for first bidder. wait for 100 blocks"
      }
    },
    "version": 1
  },
  "storageLayout": {
    "storage": [
      {
        "astId": 218,
        "contract": "contracts/Shortfall/Shortfall.sol:Shortfall",
        "label": "_initialized",
        "offset": 0,
        "slot": "0",
        "type": "t_uint8"
      },
      {
        "astId": 221,
        "contract": "contracts/Shortfall/Shortfall.sol:Shortfall",
        "label": "_initializing",
        "offset": 1,
        "slot": "0",
        "type": "t_bool"
      },
      {
        "astId": 832,
        "contract": "contracts/Shortfall/Shortfall.sol:Shortfall",
        "label": "__gap",
        "offset": 0,
        "slot": "1",
        "type": "t_array(t_uint256)50_storage"
      },
      {
        "astId": 10,
        "contract": "contracts/Shortfall/Shortfall.sol:Shortfall",
        "label": "_owner",
        "offset": 0,
        "slot": "51",
        "type": "t_address"
      },
      {
        "astId": 130,
        "contract": "contracts/Shortfall/Shortfall.sol:Shortfall",
        "label": "__gap",
        "offset": 0,
        "slot": "52",
        "type": "t_array(t_uint256)49_storage"
      },
      {
        "astId": 503,
        "contract": "contracts/Shortfall/Shortfall.sol:Shortfall",
        "label": "_status",
        "offset": 0,
        "slot": "101",
        "type": "t_uint256"
      },
      {
        "astId": 547,
        "contract": "contracts/Shortfall/Shortfall.sol:Shortfall",
        "label": "__gap",
        "offset": 0,
        "slot": "102",
        "type": "t_array(t_uint256)49_storage"
      },
      {
        "astId": 15180,
        "contract": "contracts/Shortfall/Shortfall.sol:Shortfall",
        "label": "poolRegistry",
        "offset": 0,
        "slot": "151",
        "type": "t_address"
      },
      {
        "astId": 15184,
        "contract": "contracts/Shortfall/Shortfall.sol:Shortfall",
        "label": "riskFund",
        "offset": 0,
        "slot": "152",
        "type": "t_contract(IRiskFund)14132"
      },
      {
        "astId": 15187,
        "contract": "contracts/Shortfall/Shortfall.sol:Shortfall",
        "label": "minimumPoolBadDebt",
        "offset": 0,
        "slot": "153",
        "type": "t_uint256"
      },
      {
        "astId": 15207,
        "contract": "contracts/Shortfall/Shortfall.sol:Shortfall",
        "label": "BUSD",
        "offset": 0,
        "slot": "154",
        "type": "t_contract(IERC20)2465"
      },
      {
        "astId": 15213,
        "contract": "contracts/Shortfall/Shortfall.sol:Shortfall",
        "label": "auctions",
        "offset": 0,
        "slot": "155",
        "type": "t_mapping(t_address,t_struct(Auction)15124_storage)"
      }
    ],
    "types": {
      "t_address": {
        "encoding": "inplace",
        "label": "address",
        "numberOfBytes": "20"
      },
      "t_array(t_contract(VToken)18949)dyn_storage": {
        "base": "t_contract(VToken)18949",
        "encoding": "dynamic_array",
        "label": "contract VToken[]",
        "numberOfBytes": "32"
      },
      "t_array(t_uint256)49_storage": {
        "base": "t_uint256",
        "encoding": "inplace",
        "label": "uint256[49]",
        "numberOfBytes": "1568"
      },
      "t_array(t_uint256)50_storage": {
        "base": "t_uint256",
        "encoding": "inplace",
        "label": "uint256[50]",
        "numberOfBytes": "1600"
      },
      "t_bool": {
        "encoding": "inplace",
        "label": "bool",
        "numberOfBytes": "1"
      },
      "t_contract(IERC20)2465": {
        "encoding": "inplace",
        "label": "contract IERC20",
        "numberOfBytes": "20"
      },
      "t_contract(IRiskFund)14132": {
        "encoding": "inplace",
        "label": "contract IRiskFund",
        "numberOfBytes": "20"
      },
      "t_contract(VToken)18949": {
        "encoding": "inplace",
        "label": "contract VToken",
        "numberOfBytes": "20"
      },
      "t_enum(AuctionStatus)15096": {
        "encoding": "inplace",
        "label": "enum Shortfall.AuctionStatus",
        "numberOfBytes": "1"
      },
      "t_enum(AuctionType)15092": {
        "encoding": "inplace",
        "label": "enum Shortfall.AuctionType",
        "numberOfBytes": "1"
      },
      "t_mapping(t_address,t_struct(Auction)15124_storage)": {
        "encoding": "mapping",
        "key": "t_address",
        "label": "mapping(address => struct Shortfall.Auction)",
        "numberOfBytes": "32",
        "value": "t_struct(Auction)15124_storage"
      },
      "t_mapping(t_contract(VToken)18949,t_uint256)": {
        "encoding": "mapping",
        "key": "t_contract(VToken)18949",
        "label": "mapping(contract VToken => uint256)",
        "numberOfBytes": "32",
        "value": "t_uint256"
      },
      "t_struct(Auction)15124_storage": {
        "encoding": "inplace",
        "label": "struct Shortfall.Auction",
        "members": [
          {
            "astId": 15098,
            "contract": "contracts/Shortfall/Shortfall.sol:Shortfall",
            "label": "startBlock",
            "offset": 0,
            "slot": "0",
            "type": "t_uint256"
          },
          {
            "astId": 15101,
            "contract": "contracts/Shortfall/Shortfall.sol:Shortfall",
            "label": "auctionType",
            "offset": 0,
            "slot": "1",
            "type": "t_enum(AuctionType)15092"
          },
          {
            "astId": 15104,
            "contract": "contracts/Shortfall/Shortfall.sol:Shortfall",
            "label": "status",
            "offset": 1,
            "slot": "1",
            "type": "t_enum(AuctionStatus)15096"
          },
          {
            "astId": 15108,
            "contract": "contracts/Shortfall/Shortfall.sol:Shortfall",
            "label": "markets",
            "offset": 0,
            "slot": "2",
            "type": "t_array(t_contract(VToken)18949)dyn_storage"
          },
          {
            "astId": 15110,
            "contract": "contracts/Shortfall/Shortfall.sol:Shortfall",
            "label": "seizedRiskFund",
            "offset": 0,
            "slot": "3",
            "type": "t_uint256"
          },
          {
            "astId": 15112,
            "contract": "contracts/Shortfall/Shortfall.sol:Shortfall",
            "label": "highestBidder",
            "offset": 0,
            "slot": "4",
            "type": "t_address"
          },
          {
            "astId": 15114,
            "contract": "contracts/Shortfall/Shortfall.sol:Shortfall",
            "label": "highestBidBps",
            "offset": 0,
            "slot": "5",
            "type": "t_uint256"
          },
          {
            "astId": 15116,
            "contract": "contracts/Shortfall/Shortfall.sol:Shortfall",
            "label": "highestBidBlock",
            "offset": 0,
            "slot": "6",
            "type": "t_uint256"
          },
          {
            "astId": 15118,
            "contract": "contracts/Shortfall/Shortfall.sol:Shortfall",
            "label": "startBidBps",
            "offset": 0,
            "slot": "7",
            "type": "t_uint256"
          },
          {
            "astId": 15123,
            "contract": "contracts/Shortfall/Shortfall.sol:Shortfall",
            "label": "marketDebt",
            "offset": 0,
            "slot": "8",
            "type": "t_mapping(t_contract(VToken)18949,t_uint256)"
          }
        ],
        "numberOfBytes": "288"
      },
      "t_uint256": {
        "encoding": "inplace",
        "label": "uint256",
        "numberOfBytes": "32"
      },
      "t_uint8": {
        "encoding": "inplace",
        "label": "uint8",
        "numberOfBytes": "1"
      }
    }
  }
}