{
  "address": "0xF7f32E2A5f72Ef8f1C3992eFE7bf1AcEd4eFc848",
  "abi": [
    {
      "inputs": [],
      "stateMutability": "nonpayable",
      "type": "constructor"
    },
    {
      "anonymous": false,
      "inputs": [
        {
          "indexed": true,
          "internalType": "address",
          "name": "comptroller",
          "type": "address"
        },
        {
          "indexed": true,
          "internalType": "address",
          "name": "highestBidder",
          "type": "address"
        },
        {
          "indexed": false,
          "internalType": "uint256",
          "name": "highestBidBps",
          "type": "uint256"
        },
        {
          "indexed": false,
          "internalType": "uint256",
          "name": "seizedRiskFind",
          "type": "uint256"
        },
        {
          "indexed": false,
          "internalType": "contract VToken[]",
          "name": "markets",
          "type": "address[]"
        },
        {
          "indexed": false,
          "internalType": "uint256[]",
          "name": "marketDebt",
          "type": "uint256[]"
        }
      ],
      "name": "AuctionClosed",
      "type": "event"
    },
    {
      "anonymous": false,
      "inputs": [
        {
          "indexed": true,
          "internalType": "address",
          "name": "comptroller",
          "type": "address"
        }
      ],
      "name": "AuctionRestarted",
      "type": "event"
    },
    {
      "anonymous": false,
      "inputs": [
        {
          "indexed": true,
          "internalType": "address",
          "name": "comptroller",
          "type": "address"
        },
        {
          "indexed": false,
          "internalType": "uint256",
          "name": "startBlock",
          "type": "uint256"
        },
        {
          "indexed": false,
          "internalType": "enum Shortfall.AuctionType",
          "name": "auctionType",
          "type": "uint8"
        },
        {
          "indexed": false,
          "internalType": "contract VToken[]",
          "name": "markets",
          "type": "address[]"
        },
        {
          "indexed": false,
          "internalType": "uint256[]",
          "name": "marketsDebt",
          "type": "uint256[]"
        },
        {
          "indexed": false,
          "internalType": "uint256",
          "name": "seizedRiskFund",
          "type": "uint256"
        },
        {
          "indexed": false,
          "internalType": "uint256",
          "name": "startBidBps",
          "type": "uint256"
        }
      ],
      "name": "AuctionStarted",
      "type": "event"
    },
    {
      "anonymous": false,
      "inputs": [
        {
          "indexed": true,
          "internalType": "address",
          "name": "comptroller",
          "type": "address"
        },
        {
          "indexed": false,
          "internalType": "uint256",
          "name": "bidBps",
          "type": "uint256"
        },
        {
          "indexed": true,
          "internalType": "address",
          "name": "bidder",
          "type": "address"
        }
      ],
      "name": "BidPlaced",
      "type": "event"
    },
    {
      "anonymous": false,
      "inputs": [
        {
          "indexed": true,
          "internalType": "address",
          "name": "oldBaseAsset",
          "type": "address"
        },
        {
          "indexed": true,
          "internalType": "address",
          "name": "newBaseAsset",
          "type": "address"
        }
      ],
      "name": "ConvertableBaseAssetUpdated",
      "type": "event"
    },
    {
      "anonymous": false,
      "inputs": [
        {
          "indexed": false,
          "internalType": "uint8",
          "name": "version",
          "type": "uint8"
        }
      ],
      "name": "Initialized",
      "type": "event"
    },
    {
      "anonymous": false,
      "inputs": [
        {
          "indexed": false,
          "internalType": "uint256",
          "name": "oldMinimumPoolBadDebt",
          "type": "uint256"
        },
        {
          "indexed": false,
          "internalType": "uint256",
          "name": "newMinimumPoolBadDebt",
          "type": "uint256"
        }
      ],
      "name": "MinimumPoolBadDebtUpdated",
      "type": "event"
    },
    {
      "anonymous": false,
      "inputs": [
        {
          "indexed": true,
          "internalType": "address",
          "name": "previousOwner",
          "type": "address"
        },
        {
          "indexed": true,
          "internalType": "address",
          "name": "newOwner",
          "type": "address"
        }
      ],
      "name": "OwnershipTransferStarted",
      "type": "event"
    },
    {
      "anonymous": false,
      "inputs": [
        {
          "indexed": true,
          "internalType": "address",
          "name": "previousOwner",
          "type": "address"
        },
        {
          "indexed": true,
          "internalType": "address",
          "name": "newOwner",
          "type": "address"
        }
      ],
      "name": "OwnershipTransferred",
      "type": "event"
    },
    {
      "anonymous": false,
      "inputs": [
        {
          "indexed": true,
          "internalType": "address",
          "name": "oldPoolRegistry",
          "type": "address"
        },
        {
          "indexed": true,
          "internalType": "address",
          "name": "newPoolRegistry",
          "type": "address"
        }
      ],
      "name": "PoolRegistryUpdated",
      "type": "event"
    },
    {
      "inputs": [],
      "name": "acceptOwnership",
      "outputs": [],
      "stateMutability": "nonpayable",
      "type": "function"
    },
    {
      "inputs": [
        {
          "internalType": "address",
          "name": "",
          "type": "address"
        }
      ],
      "name": "auctions",
      "outputs": [
        {
          "internalType": "uint256",
          "name": "startBlock",
          "type": "uint256"
        },
        {
          "internalType": "enum Shortfall.AuctionType",
          "name": "auctionType",
          "type": "uint8"
        },
        {
          "internalType": "enum Shortfall.AuctionStatus",
          "name": "status",
          "type": "uint8"
        },
        {
          "internalType": "uint256",
          "name": "seizedRiskFund",
          "type": "uint256"
        },
        {
          "internalType": "address",
          "name": "highestBidder",
          "type": "address"
        },
        {
          "internalType": "uint256",
          "name": "highestBidBps",
          "type": "uint256"
        },
        {
          "internalType": "uint256",
          "name": "highestBidBlock",
          "type": "uint256"
        },
        {
          "internalType": "uint256",
          "name": "startBidBps",
          "type": "uint256"
        }
      ],
      "stateMutability": "view",
      "type": "function"
    },
    {
      "inputs": [
        {
          "internalType": "address",
          "name": "comptroller",
          "type": "address"
        }
      ],
      "name": "closeAuction",
      "outputs": [],
      "stateMutability": "nonpayable",
      "type": "function"
    },
    {
      "inputs": [
        {
          "internalType": "address",
          "name": "_convertibleBaseAsset",
          "type": "address"
        },
        {
          "internalType": "contract IRiskFund",
          "name": "_riskFund",
          "type": "address"
        },
        {
          "internalType": "uint256",
          "name": "_minimumPoolBadDebt",
          "type": "uint256"
        }
      ],
      "name": "initialize",
      "outputs": [],
      "stateMutability": "nonpayable",
      "type": "function"
    },
    {
      "inputs": [],
      "name": "minimumPoolBadDebt",
      "outputs": [
        {
          "internalType": "uint256",
          "name": "",
          "type": "uint256"
        }
      ],
      "stateMutability": "view",
      "type": "function"
    },
    {
      "inputs": [],
      "name": "nextBidderBlockLimit",
      "outputs": [
        {
          "internalType": "uint256",
          "name": "",
          "type": "uint256"
        }
      ],
      "stateMutability": "view",
      "type": "function"
    },
    {
      "inputs": [],
      "name": "owner",
      "outputs": [
        {
          "internalType": "address",
          "name": "",
          "type": "address"
        }
      ],
      "stateMutability": "view",
      "type": "function"
    },
    {
      "inputs": [],
      "name": "pendingOwner",
      "outputs": [
        {
          "internalType": "address",
          "name": "",
          "type": "address"
        }
      ],
      "stateMutability": "view",
      "type": "function"
    },
    {
      "inputs": [
        {
          "internalType": "address",
          "name": "comptroller",
          "type": "address"
        },
        {
          "internalType": "uint256",
          "name": "bidBps",
          "type": "uint256"
        }
      ],
      "name": "placeBid",
      "outputs": [],
      "stateMutability": "nonpayable",
      "type": "function"
    },
    {
      "inputs": [],
      "name": "poolRegistry",
      "outputs": [
        {
          "internalType": "address",
          "name": "",
          "type": "address"
        }
      ],
      "stateMutability": "view",
      "type": "function"
    },
    {
      "inputs": [],
      "name": "renounceOwnership",
      "outputs": [],
      "stateMutability": "nonpayable",
      "type": "function"
    },
    {
      "inputs": [
        {
          "internalType": "address",
          "name": "comptroller",
          "type": "address"
        }
      ],
      "name": "restartAuction",
      "outputs": [],
      "stateMutability": "nonpayable",
      "type": "function"
    },
    {
      "inputs": [
        {
          "internalType": "address",
          "name": "_convertibleBaseAsset",
          "type": "address"
        }
      ],
      "name": "setConvertableBaseAsset",
      "outputs": [],
      "stateMutability": "nonpayable",
      "type": "function"
    },
    {
      "inputs": [
        {
          "internalType": "address",
          "name": "_poolRegistry",
          "type": "address"
        }
      ],
      "name": "setPoolRegistry",
      "outputs": [],
      "stateMutability": "nonpayable",
      "type": "function"
    },
    {
      "inputs": [
        {
          "internalType": "address",
          "name": "comptroller",
          "type": "address"
        }
      ],
      "name": "startAuction",
      "outputs": [],
      "stateMutability": "nonpayable",
      "type": "function"
    },
    {
      "inputs": [
        {
          "internalType": "address",
          "name": "newOwner",
          "type": "address"
        }
      ],
      "name": "transferOwnership",
      "outputs": [],
      "stateMutability": "nonpayable",
      "type": "function"
    },
    {
      "inputs": [
        {
          "internalType": "uint256",
          "name": "_minimumPoolBadDebt",
          "type": "uint256"
        }
      ],
      "name": "updateMinimumPoolBadDebt",
      "outputs": [],
      "stateMutability": "nonpayable",
      "type": "function"
    },
    {
      "inputs": [],
      "name": "waitForFirstBidder",
      "outputs": [
        {
          "internalType": "uint256",
          "name": "",
          "type": "uint256"
        }
      ],
      "stateMutability": "view",
      "type": "function"
    }
  ],
  "transactionHash": "0xe11580b2f57a51ac8c2a43e1caa5d17cfd3eef634e694ae08cada5800744531d",
  "args": [],
  "numDeployments": 1,
  "solcInputHash": "39eb8f31da9b4d9c16abde8f5ab5340d",
  "bytecode": "0x60806040523480156200001157600080fd5b506200001c62000022565b620000e4565b600054610100900460ff16156200008f5760405162461bcd60e51b815260206004820152602760248201527f496e697469616c697a61626c653a20636f6e747261637420697320696e697469604482015266616c697a696e6760c81b606482015260840160405180910390fd5b60005460ff9081161015620000e2576000805460ff191660ff9081179091556040519081527f7f26b83ff96e1f2b6a682f133852f6798a09c465da95921460cefb38474024989060200160405180910390a15b565b61257780620000f46000396000f3fe608060405234801561001057600080fd5b50600436106101165760003560e01c806379ba5097116100a2578063a627c68911610071578063a627c68914610264578063afcff50f14610277578063d98b9bb51461028a578063e30c39781461029d578063f2fde38b146102ae57600080fd5b806379ba50971461021c5780637b77cd6a14610224578063892149a3146102375780638da5cb5b1461023f57600080fd5b80634075fa0f116100e95780634075fa0f146101d35780634b34e566146101e657806351b2fd01146101f9578063715018a61461020c57806373d73f401461021457600080fd5b80630db011d01461011b5780631794bb3c146101305780631d59410a14610143578063264ad3d4146101bc575b600080fd5b61012e61012936600461202b565b6102c1565b005b61012e61013e36600461204f565b610407565b61019f61015136600461202b565b60cd602052600090815260409020805460018201546003830154600484015460058501546006860154600790960154949560ff8086169661010090960416946001600160a01b039093169288565b6040516101b39897969594939291906120ba565b60405180910390f35b6101c560cb5481565b6040519081526020016101b3565b61012e6101e136600461202b565b610558565b61012e6101f436600461202b565b610c24565b61012e610207366004612119565b61126a565b61012e6112b7565b6101c5600a81565b61012e6112cb565b61012e61023236600461202b565b611342565b6101c5606481565b6033546001600160a01b03165b6040516001600160a01b0390911681526020016101b3565b61012e61027236600461202b565b6113e4565b60c95461024c906001600160a01b031681565b61012e610298366004612132565b611494565b6065546001600160a01b031661024c565b61012e6102bc36600461202b565b61195f565b6001600160a01b038116600090815260cd602052604090208054158015906103055750600180820154610100900460ff16600281111561030357610303612090565b145b61032a5760405162461bcd60e51b81526004016103219061215e565b60405180910390fd5b8054610338906064906121a1565b43118015610351575060048101546001600160a01b0316155b6103b55760405162461bcd60e51b815260206004820152602f60248201527f796f75206e65656420746f207761697420666f72206d6f72652074696d65206660448201526e37b9103334b939ba103134b23232b960891b6064820152608401610321565b60018101805461ff0019166102001790556040516001600160a01b038316907fb65e37e6b8d040e4a5b1dc148e21f7a271642ceee30b71afeb826c816024f43e90600090a261040382610558565b5050565b600054610100900460ff16158080156104275750600054600160ff909116105b806104415750303b158015610441575060005460ff166001145b6104a45760405162461bcd60e51b815260206004820152602e60248201527f496e697469616c697a61626c653a20636f6e747261637420697320616c72656160448201526d191e481a5b9a5d1a585b1a5e995960921b6064820152608401610321565b6000805460ff1916600117905580156104c7576000805461ff0019166101001790555b6104cf6119d0565b6104d76119ff565b60cb82905560cc80546001600160a01b038087166001600160a01b03199283161790925560ca8054928616929091169190911790558015610552576000805461ff0019169055604051600181527f7f26b83ff96e1f2b6a682f133852f6798a09c465da95921460cefb38474024989060200160405180910390a15b50505050565b610560611a2e565b6001600160a01b038116600090815260cd6020526040902080541580156105a4575060006001820154610100900460ff1660028111156105a2576105a2612090565b145b806105cc575060026001820154610100900460ff1660028111156105ca576105ca612090565b145b61060e5760405162461bcd60e51b815260206004820152601360248201527261756374696f6e206973206f6e2d676f696e6760681b6044820152606401610321565b600060058201819055600682018190556002820154905b81811015610679576000836002018281548110610644576106446121b9565b60009182526020808320909101546001600160a01b03168252600886019052604081205550610672816121cf565b9050610625565b50610688600283016000611f7e565b600061069384611a88565b90508051915060006106a485611af6565b90506000808467ffffffffffffffff8111156106c2576106c26121e8565b6040519080825280602002602001820160405280156106eb578160200160208202803683370190505b5090508467ffffffffffffffff811115610707576107076121e8565b604051908082528060200260200182016040528015610730578160200160208202803683370190505b508051610747916002890191602090910190611f9c565b5060005b858110156109ef576000858281518110610767576107676121b9565b60200260200101516001600160a01b031663bbcac5576040518163ffffffff1660e01b8152600401602060405180830381865afa1580156107ac573d6000803e3d6000fd5b505050506040513d601f19601f820116820180604052508101906107d091906121fe565b9050846001600160a01b03166396e85ced8784815181106107f3576107f36121b9565b60200260200101516040518263ffffffff1660e01b815260040161082691906001600160a01b0391909116815260200190565b600060405180830381600087803b15801561084057600080fd5b505af1158015610854573d6000803e3d6000fd5b505050506000670de0b6b3a764000082876001600160a01b031663fc57d4df8a8781518110610885576108856121b9565b60200260200101516040518263ffffffff1660e01b81526004016108b891906001600160a01b0391909116815260200190565b602060405180830381865afa1580156108d5573d6000803e3d6000fd5b505050506040513d601f19601f820116820180604052508101906108f991906121fe565b6109039190612217565b61090d9190612236565b905061091981866121a1565b945086838151811061092d5761092d6121b9565b602002602001015189600201848154811061094a5761094a6121b9565b9060005260206000200160006101000a8154816001600160a01b0302191690836001600160a01b0316021790555081896008016000898681518110610991576109916121b9565b60200260200101516001600160a01b03166001600160a01b0316815260200190815260200160002081905550818484815181106109d0576109d06121b9565b6020026020010181815250505050806109e8906121cf565b905061074b565b5060cb54821015610a425760405162461bcd60e51b815260206004820152601860248201527f706f6f6c20626164206465627420697320746f6f206c6f7700000000000000006044820152606401610321565b60ca5460405163058dd4cd60e31b81526001600160a01b0389811660048301526000921690632c6ea66890602401602060405180830381865afa158015610a8d573d6000803e3d6000fd5b505050506040513d601f19601f82011682018060405250810190610ab191906121fe565b9050806000612710610ac56103e887612217565b610acf9190612236565b610ad990866121a1565b9050828110610b3557610af06103e86127106121a1565b610afa9086612217565b82610b0761271080612217565b610b119190612217565b610b1b9190612236565b60078a015560018901805460ff1916905560009150610b5c565b80610b408184612258565b60018b8101805460ff1916909117905561271060078c01559250505b610b668284612258565b60038a01554389556001808a01805461ff00191661010083021790555060008960040160006101000a8154816001600160a01b0302191690836001600160a01b03160217905550896001600160a01b03167f56c1f0c5ea96c78d614c0246b1915086a325f09ce15526bd5d69b50232d681328a600001548b60010160009054906101000a900460ff168c600201888e600301548f60070154604051610c10969594939291906122e8565b60405180910390a250505050505050505050565b610c2c611b5a565b6001600160a01b038116600090815260cd60205260409020805415801590610c705750600180820154610100900460ff166002811115610c6e57610c6e612090565b145b610c8c5760405162461bcd60e51b81526004016103219061215e565b600a8160060154610c9d91906121a1565b43118015610cb7575060048101546001600160a01b031615155b610d195760405162461bcd60e51b815260206004820152602d60248201527f77616974696e6720666f72206e657874206269646465722e2063616e6e6f742060448201526c31b637b9b29030bab1ba34b7b760991b6064820152608401610321565b600281015460008167ffffffffffffffff811115610d3957610d396121e8565b604051908082528060200260200182016040528015610d62578160200160208202803683370190505b5060018401805461ff001916610200179055905060005b82811015611084576000846002018281548110610d9857610d986121b9565b600091825260208083209091015460408051636f307dc360e01b815290516001600160a01b0390921694508492636f307dc3926004808401938290030181865afa158015610dea573d6000803e3d6000fd5b505050506040513d601f19601f82011682018060405250810190610e0e9190612336565b9050600060018088015460ff1690811115610e2b57610e2b612090565b03610eec57600061271087600501548860080160008a6002018881548110610e5557610e556121b9565b60009182526020808320909101546001600160a01b03168352820192909252604001902054610e849190612217565b610e8e9190612236565b9050610ec7876002018581548110610ea857610ea86121b9565b6000918252602090912001546001600160a01b03848116911683611bb3565b80858581518110610eda57610eda6121b9565b60200260200101818152505050610fd2565b610f71866002018481548110610f0457610f046121b9565b9060005260206000200160009054906101000a90046001600160a01b0316876008016000896002018781548110610f3d57610f3d6121b9565b60009182526020808320909101546001600160a01b0390811684529083019390935260409091019020549084169190611bb3565b856008016000876002018581548110610f8c57610f8c6121b9565b60009182526020808320909101546001600160a01b031683528201929092526040019020548451859085908110610fc557610fc56121b9565b6020026020010181815250505b856002018381548110610fe757610fe76121b9565b60009182526020909120015484516001600160a01b039091169063ef60450c90869086908110611019576110196121b9565b60200260200101516040518263ffffffff1660e01b815260040161103f91815260200190565b600060405180830381600087803b15801561105957600080fd5b505af115801561106d573d6000803e3d6000fd5b5050505050508061107d906121cf565b9050610d79565b506003830154600060018086015460ff16908111156110a5576110a5612090565b036111465760ca54604051630a9837c560e01b81526001600160a01b0387811660048301526024820184905290911690630a9837c5906044016020604051808303816000875af11580156110fd573d6000803e3d6000fd5b505050506040513d601f19601f8201168201806040525081019061112191906121fe565b50600484015460cc54611141916001600160a01b03918216911683611bb3565b611200565b6127108460050154856003015461115d9190612217565b6111679190612236565b60ca54604051630a9837c560e01b81526001600160a01b03888116600483015260248201849052929350911690630a9837c5906044016020604051808303816000875af11580156111bc573d6000803e3d6000fd5b505050506040513d601f19601f820116820180604052508101906111e091906121fe565b50600484015460cc54611200916001600160a01b03918216911683611bb3565b600484015460058501546040516001600160a01b03928316928816917fe3909036d6edbf20a6684c2f2171151d74b64ee00f11422b8fcbd841a826f0d1916112519190869060028b01908990612353565b60405180910390a3505050506112676001609755565b50565b611272611a2e565b60cb80549082905560408051828152602081018490527f85814f0246fcd999c88af70c9e6238211e79444ff07ec745b80aed19ddb268c8910160405180910390a15050565b6112bf611a2e565b6112c96000611c22565b565b60655433906001600160a01b031681146113395760405162461bcd60e51b815260206004820152602960248201527f4f776e61626c6532537465703a2063616c6c6572206973206e6f7420746865206044820152683732bb9037bbb732b960b91b6064820152608401610321565b61126781611c22565b61134a611a2e565b6001600160a01b0381166113925760405162461bcd60e51b815260206004820152600f60248201526e696e76616c6964206164647265737360881b6044820152606401610321565b60c980546001600160a01b038381166001600160a01b0319831681179093556040519116919082907fa87b964d321035d2165e484ff4b722dd6eae30606c0b98887d2ed1a34e594bfe90600090a35050565b6113ec611a2e565b6001600160a01b0381166114425760405162461bcd60e51b815260206004820181905260248201527f53686f727466616c6c3a204173736574206164647265737320696e76616c69646044820152606401610321565b60cc80546001600160a01b038381166001600160a01b0319831681179093556040519116919082907f44f9ff9dd70d44985d95a1633bdd8306def4372909dc6fd545972e624441cfd690600090a35050565b61149c611b5a565b6001600160a01b038216600090815260cd602052604090208054158015906114e05750600180820154610100900460ff1660028111156114de576114de612090565b145b6114fc5760405162461bcd60e51b81526004016103219061215e565b61271082111561155d5760405162461bcd60e51b815260206004820152602660248201527f626173697320706f696e74732063616e6e6f74206265206d6f7265207468616e60448201526502031303030360d41b6064820152608401610321565b600060018083015460ff169081111561157857611578612090565b1480156115c4575060048101546001600160a01b03161580159061159f5750806005015482115b806115c4575060048101546001600160a01b03161580156115c4575080600701548210155b8061162f575060018181015460ff16818111156115e3576115e3612090565b14801561162f575060048101546001600160a01b03161580159061160a5750806005015482105b8061162f575060048101546001600160a01b031615801561162f575080600701548211155b61167b5760405162461bcd60e51b815260206004820152601b60248201527f796f757220626964206973206e6f7420746865206869676865737400000000006044820152606401610321565b600281015460005b818110156118f05760008360020182815481106116a2576116a26121b9565b600091825260208083209091015460408051636f307dc360e01b815290516001600160a01b0390921694508492636f307dc3926004808401938290030181865afa1580156116f4573d6000803e3d6000fd5b505050506040513d601f19601f820116820180604052508101906117189190612336565b9050600060018087015460ff169081111561173557611735612090565b036118435760048501546001600160a01b0316156117cc5760006127108660050154876008016000896002018881548110611772576117726121b9565b60009182526020808320909101546001600160a01b031683528201929092526040019020546117a19190612217565b6117ab9190612236565b60048701549091506117ca906001600160a01b03848116911683611bb3565b505b6000612710878760080160008960020188815481106117ed576117ed6121b9565b60009182526020808320909101546001600160a01b0316835282019290925260400190205461181c9190612217565b6118269190612236565b905061183d6001600160a01b038316333084611c3b565b506118dd565b60048501546001600160a01b031615611888576004850154600286018054611888926001600160a01b03169160088901916000919088908110610f3d57610f3d6121b9565b6118dd33308760080160008960020188815481106118a8576118a86121b9565b60009182526020808320909101546001600160a01b039081168452908301939093526040909101902054908516929190611c3b565b5050806118e9906121cf565b9050611683565b506004820180546001600160a01b03191633908117909155600583018490554360068401556040518481526001600160a01b038616907f6f25148c4fd0f2b2e4d416a26d37d4376c0b65a426b57a537356a5e1e9d03fda9060200160405180910390a350506104036001609755565b611967611a2e565b606580546001600160a01b0383166001600160a01b031990911681179091556119986033546001600160a01b031690565b6001600160a01b03167f38d16b8cac22d99fc7c124b9cd0de2d3fa1faef420bfe791d8c362d765e2270060405160405180910390a350565b600054610100900460ff166119f75760405162461bcd60e51b815260040161032190612384565b6112c9611c73565b600054610100900460ff16611a265760405162461bcd60e51b815260040161032190612384565b6112c9611ca3565b6033546001600160a01b031633146112c95760405162461bcd60e51b815260206004820181905260248201527f4f776e61626c653a2063616c6c6572206973206e6f7420746865206f776e65726044820152606401610321565b6060816001600160a01b031663b0772d0b6040518163ffffffff1660e01b8152600401600060405180830381865afa158015611ac8573d6000803e3d6000fd5b505050506040513d6000823e601f3d908101601f19168201604052611af091908101906123df565b92915050565b6000816001600160a01b0316637dc0d1d06040518163ffffffff1660e01b8152600401602060405180830381865afa158015611b36573d6000803e3d6000fd5b505050506040513d601f19601f82011682018060405250810190611af09190612336565b600260975403611bac5760405162461bcd60e51b815260206004820152601f60248201527f5265656e7472616e637947756172643a207265656e7472616e742063616c6c006044820152606401610321565b6002609755565b6040516001600160a01b038316602482015260448101829052611c1690849063a9059cbb60e01b906064015b60408051601f198184030181529190526020810180516001600160e01b03166001600160e01b031990931692909217909152611cca565b505050565b6001609755565b606580546001600160a01b031916905561126781611d9c565b6040516001600160a01b03808516602483015283166044820152606481018290526105529085906323b872dd60e01b90608401611bdf565b600054610100900460ff16611c9a5760405162461bcd60e51b815260040161032190612384565b6112c933611c22565b600054610100900460ff16611c1b5760405162461bcd60e51b815260040161032190612384565b6000611d1f826040518060400160405280602081526020017f5361666545524332303a206c6f772d6c6576656c2063616c6c206661696c6564815250856001600160a01b0316611dee9092919063ffffffff16565b805190915015611c165780806020019051810190611d3d91906124a4565b611c165760405162461bcd60e51b815260206004820152602a60248201527f5361666545524332303a204552433230206f7065726174696f6e20646964206e6044820152691bdd081cdd58d8d9595960b21b6064820152608401610321565b603380546001600160a01b038381166001600160a01b0319831681179093556040519116919082907f8be0079c531659141344cd1fd0a4f28419497f9722a3daafe3b4186f6b6457e090600090a35050565b6060611dfd8484600085611e05565b949350505050565b606082471015611e665760405162461bcd60e51b815260206004820152602660248201527f416464726573733a20696e73756666696369656e742062616c616e636520666f6044820152651c8818d85b1b60d21b6064820152608401610321565b600080866001600160a01b03168587604051611e8291906124f2565b60006040518083038185875af1925050503d8060008114611ebf576040519150601f19603f3d011682016040523d82523d6000602084013e611ec4565b606091505b5091509150611ed587838387611ee0565b979650505050505050565b60608315611f4f578251600003611f48576001600160a01b0385163b611f485760405162461bcd60e51b815260206004820152601d60248201527f416464726573733a2063616c6c20746f206e6f6e2d636f6e74726163740000006044820152606401610321565b5081611dfd565b611dfd8383815115611f645781518083602001fd5b8060405162461bcd60e51b8152600401610321919061250e565b50805460008255906000526020600020908101906112679190612001565b828054828255906000526020600020908101928215611ff1579160200282015b82811115611ff157825182546001600160a01b0319166001600160a01b03909116178255602090920191600190910190611fbc565b50611ffd929150612001565b5090565b5b80821115611ffd5760008155600101612002565b6001600160a01b038116811461126757600080fd5b60006020828403121561203d57600080fd5b813561204881612016565b9392505050565b60008060006060848603121561206457600080fd5b833561206f81612016565b9250602084013561207f81612016565b929592945050506040919091013590565b634e487b7160e01b600052602160045260246000fd5b600281106120b6576120b6612090565b9052565b88815261010081016120cf602083018a6120a6565b600388106120df576120df612090565b604082019790975260608101959095526001600160a01b0393909316608085015260a084019190915260c083015260e09091015292915050565b60006020828403121561212b57600080fd5b5035919050565b6000806040838503121561214557600080fd5b823561215081612016565b946020939093013593505050565b60208082526013908201527237379037b716b3b7b4b7339030bab1ba34b7b760691b604082015260600190565b634e487b7160e01b600052601160045260246000fd5b600082198211156121b4576121b461218b565b500190565b634e487b7160e01b600052603260045260246000fd5b6000600182016121e1576121e161218b565b5060010190565b634e487b7160e01b600052604160045260246000fd5b60006020828403121561221057600080fd5b5051919050565b60008160001904831182151516156122315761223161218b565b500290565b60008261225357634e487b7160e01b600052601260045260246000fd5b500490565b60008282101561226a5761226a61218b565b500390565b6000815480845260208085019450836000528060002060005b838110156122ad5781546001600160a01b031687529582019560019182019101612288565b509495945050505050565b600081518084526020808501945080840160005b838110156122ad578151875295820195908201906001016122cc565b8681526122f860208201876120a6565b60c06040820152600061230e60c083018761226f565b828103606084015261232081876122b8565b6080840195909552505060a00152949350505050565b60006020828403121561234857600080fd5b815161204881612016565b848152836020820152608060408201526000612372608083018561226f565b8281036060840152611ed581856122b8565b6020808252602b908201527f496e697469616c697a61626c653a20636f6e7472616374206973206e6f74206960408201526a6e697469616c697a696e6760a81b606082015260800190565b80516123da81612016565b919050565b600060208083850312156123f257600080fd5b825167ffffffffffffffff8082111561240a57600080fd5b818501915085601f83011261241e57600080fd5b815181811115612430576124306121e8565b8060051b604051601f19603f83011681018181108582111715612455576124556121e8565b60405291825284820192508381018501918883111561247357600080fd5b938501935b8285101561249857612489856123cf565b84529385019392850192612478565b98975050505050505050565b6000602082840312156124b657600080fd5b8151801515811461204857600080fd5b60005b838110156124e15781810151838201526020016124c9565b838111156105525750506000910152565b600082516125048184602087016124c6565b9190910192915050565b602081526000825180602084015261252d8160408501602087016124c6565b601f01601f1916919091016040019291505056fea264697066735822122077b4d9b5407d3268bca906284c35a029c95eecb7511ec6c586367792481ce31364736f6c634300080d0033",
  "devdoc": {
    "kind": "dev",
    "methods": {
      "acceptOwnership()": {
        "details": "The new owner accepts the ownership transfer."
      },
      "closeAuction(address)": {
        "custom:events": "Emits AuctionClosed event on successful close",
        "params": {
          "comptroller": "Comptroller address of the pool"
        }
      },
      "constructor": {
        "custom:oz-upgrades-unsafe-allow": "constructor"
      },
      "initialize(address,address,uint256)": {
        "params": {
          "_minimumPoolBadDebt": "Minimum bad debt in BUSD for a pool to start auction"
        }
      },
      "owner()": {
        "details": "Returns the address of the current owner."
      },
      "pendingOwner()": {
        "details": "Returns the address of the pending owner."
      },
      "placeBid(address,uint256)": {
        "custom:events": "Emits BidPlaced event on success",
        "params": {
          "bidBps": "The bid percent of the risk fund or bad debt depending on auction type",
          "comptroller": "Comptroller address of the pool"
        }
      },
      "renounceOwnership()": {
        "details": "Leaves the contract without owner. It will not be possible to call `onlyOwner` functions anymore. Can only be called by the current owner. NOTE: Renouncing ownership will leave the contract without an owner, thereby removing any functionality that is only available to the owner."
      },
      "restartAuction(address)": {
        "custom:events": "Emits AuctionRestarted event on successful restart",
        "params": {
          "comptroller": "Address of the pool"
        }
      },
      "setConvertableBaseAsset(address)": {
        "details": "Convertible base asset setter",
        "params": {
          "_convertibleBaseAsset": "Address of the asset."
        }
      },
      "setPoolRegistry(address)": {
        "custom:access": "Restricted to owner",
        "custom:events": "Emits PoolRegistryUpdated on success",
        "details": "After Pool Registry is deployed we need to set the pool registry address",
        "params": {
          "_poolRegistry": "Address of pool registry contract"
        }
      },
      "startAuction(address)": {
        "custom:access": "Restricted to owner",
        "custom:events": "Emits AuctionStarted event on success",
        "params": {
          "comptroller": "Comptroller address of the pool"
        }
      },
      "transferOwnership(address)": {
        "details": "Starts the ownership transfer of the contract to a new account. Replaces the pending transfer if there is one. Can only be called by the current owner."
      },
      "updateMinimumPoolBadDebt(uint256)": {
        "custom:access": "Restricted to owner",
        "custom:events": "Emits MinimumPoolBadDebtUpdated on success",
        "params": {
          "_minimumPoolBadDebt": "Minimum bad debt in BUSD for a pool to start auction"
        }
      }
    },
    "version": 1
  },
  "userdoc": {
    "events": {
      "AuctionClosed(address,address,uint256,uint256,address[],uint256[])": {
        "notice": "Emitted when a auction is completed"
      },
      "AuctionRestarted(address)": {
        "notice": "Emitted when a auction is restarted"
      },
      "AuctionStarted(address,uint256,uint8,address[],uint256[],uint256,uint256)": {
        "notice": "Emitted when a auction starts"
      },
      "BidPlaced(address,uint256,address)": {
        "notice": "Emitted when a bid is placed"
      },
      "ConvertableBaseAssetUpdated(address,address)": {
        "notice": "Emitted when convertible base asset address is updated"
      },
      "MinimumPoolBadDebtUpdated(uint256,uint256)": {
        "notice": "Emitted when minimum pool bad debt is updated"
      },
      "PoolRegistryUpdated(address,address)": {
        "notice": "Emitted when pool registry address is updated"
      }
    },
    "kind": "user",
    "methods": {
      "auctions(address)": {
        "notice": "Auctions for each pool"
      },
      "closeAuction(address)": {
        "notice": "Close an auction"
      },
      "initialize(address,address,uint256)": {
        "notice": "Initalize the shortfall contract"
      },
      "minimumPoolBadDebt()": {
        "notice": "Minimum USD debt in pool for shortfall to trigger"
      },
      "nextBidderBlockLimit()": {
        "notice": "Time to wait for next bidder. wait for 10 blocks"
      },
      "placeBid(address,uint256)": {
        "notice": "Place a bid greater than the previous in an ongoing auction"
      },
      "poolRegistry()": {
        "notice": "Pool registry address"
      },
      "restartAuction(address)": {
        "notice": "Restart an auction"
      },
      "setPoolRegistry(address)": {
        "notice": "Sets the pool registry this shortfall supports"
      },
      "startAuction(address)": {
        "notice": "Start a auction when there is not currently one active"
      },
      "updateMinimumPoolBadDebt(uint256)": {
        "notice": "Update minimum pool bad debt to start auction"
      },
      "waitForFirstBidder()": {
        "notice": "Time to wait for first bidder. wait for 100 blocks"
      }
    },
    "version": 1
  },
  "storageLayout": {
    "storage": [
      {
        "astId": 324,
        "contract": "contracts/Shortfall/Shortfall.sol:Shortfall",
        "label": "_initialized",
        "offset": 0,
        "slot": "0",
        "type": "t_uint8"
      },
      {
        "astId": 327,
        "contract": "contracts/Shortfall/Shortfall.sol:Shortfall",
        "label": "_initializing",
        "offset": 1,
        "slot": "0",
        "type": "t_bool"
      },
      {
        "astId": 1279,
        "contract": "contracts/Shortfall/Shortfall.sol:Shortfall",
        "label": "__gap",
        "offset": 0,
        "slot": "1",
        "type": "t_array(t_uint256)50_storage"
      },
      {
        "astId": 116,
        "contract": "contracts/Shortfall/Shortfall.sol:Shortfall",
        "label": "_owner",
        "offset": 0,
        "slot": "51",
        "type": "t_address"
      },
      {
        "astId": 236,
        "contract": "contracts/Shortfall/Shortfall.sol:Shortfall",
        "label": "__gap",
        "offset": 0,
        "slot": "52",
        "type": "t_array(t_uint256)49_storage"
      },
      {
        "astId": 25,
        "contract": "contracts/Shortfall/Shortfall.sol:Shortfall",
        "label": "_pendingOwner",
        "offset": 0,
        "slot": "101",
        "type": "t_address"
      },
      {
        "astId": 104,
        "contract": "contracts/Shortfall/Shortfall.sol:Shortfall",
        "label": "__gap",
        "offset": 0,
        "slot": "102",
        "type": "t_array(t_uint256)49_storage"
      },
      {
        "astId": 500,
        "contract": "contracts/Shortfall/Shortfall.sol:Shortfall",
        "label": "_status",
        "offset": 0,
        "slot": "151",
        "type": "t_uint256"
      },
      {
        "astId": 558,
        "contract": "contracts/Shortfall/Shortfall.sol:Shortfall",
        "label": "__gap",
        "offset": 0,
        "slot": "152",
        "type": "t_array(t_uint256)49_storage"
      },
      {
        "astId": 13589,
        "contract": "contracts/Shortfall/Shortfall.sol:Shortfall",
        "label": "poolRegistry",
        "offset": 0,
        "slot": "201",
        "type": "t_address"
      },
      {
        "astId": 13593,
        "contract": "contracts/Shortfall/Shortfall.sol:Shortfall",
        "label": "riskFund",
        "offset": 0,
        "slot": "202",
        "type": "t_contract(IRiskFund)12554"
      },
      {
        "astId": 13596,
        "contract": "contracts/Shortfall/Shortfall.sol:Shortfall",
        "label": "minimumPoolBadDebt",
        "offset": 0,
        "slot": "203",
        "type": "t_uint256"
      },
      {
        "astId": 13615,
        "contract": "contracts/Shortfall/Shortfall.sol:Shortfall",
        "label": "convertibleBaseAsset",
        "offset": 0,
        "slot": "204",
        "type": "t_address"
      },
      {
        "astId": 13621,
        "contract": "contracts/Shortfall/Shortfall.sol:Shortfall",
        "label": "auctions",
        "offset": 0,
        "slot": "205",
        "type": "t_mapping(t_address,t_struct(Auction)13586_storage)"
      }
    ],
    "types": {
      "t_address": {
        "encoding": "inplace",
        "label": "address",
        "numberOfBytes": "20"
      },
      "t_array(t_contract(VToken)17445)dyn_storage": {
        "base": "t_contract(VToken)17445",
        "encoding": "dynamic_array",
        "label": "contract VToken[]",
        "numberOfBytes": "32"
      },
      "t_array(t_uint256)49_storage": {
        "base": "t_uint256",
        "encoding": "inplace",
        "label": "uint256[49]",
        "numberOfBytes": "1568"
      },
      "t_array(t_uint256)50_storage": {
        "base": "t_uint256",
        "encoding": "inplace",
        "label": "uint256[50]",
        "numberOfBytes": "1600"
      },
      "t_bool": {
        "encoding": "inplace",
        "label": "bool",
        "numberOfBytes": "1"
      },
      "t_contract(IRiskFund)12554": {
        "encoding": "inplace",
        "label": "contract IRiskFund",
        "numberOfBytes": "20"
      },
      "t_contract(VToken)17445": {
        "encoding": "inplace",
        "label": "contract VToken",
        "numberOfBytes": "20"
      },
      "t_enum(AuctionStatus)13558": {
        "encoding": "inplace",
        "label": "enum Shortfall.AuctionStatus",
        "numberOfBytes": "1"
      },
      "t_enum(AuctionType)13554": {
        "encoding": "inplace",
        "label": "enum Shortfall.AuctionType",
        "numberOfBytes": "1"
      },
      "t_mapping(t_address,t_struct(Auction)13586_storage)": {
        "encoding": "mapping",
        "key": "t_address",
        "label": "mapping(address => struct Shortfall.Auction)",
        "numberOfBytes": "32",
        "value": "t_struct(Auction)13586_storage"
      },
      "t_mapping(t_contract(VToken)17445,t_uint256)": {
        "encoding": "mapping",
        "key": "t_contract(VToken)17445",
        "label": "mapping(contract VToken => uint256)",
        "numberOfBytes": "32",
        "value": "t_uint256"
      },
      "t_struct(Auction)13586_storage": {
        "encoding": "inplace",
        "label": "struct Shortfall.Auction",
        "members": [
          {
            "astId": 13560,
            "contract": "contracts/Shortfall/Shortfall.sol:Shortfall",
            "label": "startBlock",
            "offset": 0,
            "slot": "0",
            "type": "t_uint256"
          },
          {
            "astId": 13563,
            "contract": "contracts/Shortfall/Shortfall.sol:Shortfall",
            "label": "auctionType",
            "offset": 0,
            "slot": "1",
            "type": "t_enum(AuctionType)13554"
          },
          {
            "astId": 13566,
            "contract": "contracts/Shortfall/Shortfall.sol:Shortfall",
            "label": "status",
            "offset": 1,
            "slot": "1",
            "type": "t_enum(AuctionStatus)13558"
          },
          {
            "astId": 13570,
            "contract": "contracts/Shortfall/Shortfall.sol:Shortfall",
            "label": "markets",
            "offset": 0,
            "slot": "2",
            "type": "t_array(t_contract(VToken)17445)dyn_storage"
          },
          {
            "astId": 13572,
            "contract": "contracts/Shortfall/Shortfall.sol:Shortfall",
            "label": "seizedRiskFund",
            "offset": 0,
            "slot": "3",
            "type": "t_uint256"
          },
          {
            "astId": 13574,
            "contract": "contracts/Shortfall/Shortfall.sol:Shortfall",
            "label": "highestBidder",
            "offset": 0,
            "slot": "4",
            "type": "t_address"
          },
          {
            "astId": 13576,
            "contract": "contracts/Shortfall/Shortfall.sol:Shortfall",
            "label": "highestBidBps",
            "offset": 0,
            "slot": "5",
            "type": "t_uint256"
          },
          {
            "astId": 13578,
            "contract": "contracts/Shortfall/Shortfall.sol:Shortfall",
            "label": "highestBidBlock",
            "offset": 0,
            "slot": "6",
            "type": "t_uint256"
          },
          {
            "astId": 13580,
            "contract": "contracts/Shortfall/Shortfall.sol:Shortfall",
            "label": "startBidBps",
            "offset": 0,
            "slot": "7",
            "type": "t_uint256"
          },
          {
            "astId": 13585,
            "contract": "contracts/Shortfall/Shortfall.sol:Shortfall",
            "label": "marketDebt",
            "offset": 0,
            "slot": "8",
            "type": "t_mapping(t_contract(VToken)17445,t_uint256)"
          }
        ],
        "numberOfBytes": "288"
      },
      "t_uint256": {
        "encoding": "inplace",
        "label": "uint256",
        "numberOfBytes": "32"
      },
      "t_uint8": {
        "encoding": "inplace",
        "label": "uint8",
        "numberOfBytes": "1"
      }
    }
  }
}