{
  "address": "0xb5f15671d988366C825EeDb9b4AFc57E9550367f",
  "abi": [
    {
      "anonymous": false,
      "inputs": [
        {
          "indexed": false,
          "internalType": "uint256",
          "name": "poolId",
          "type": "uint256"
        },
        {
          "indexed": false,
          "internalType": "address",
          "name": "highestBidder",
          "type": "address"
        },
        {
          "indexed": false,
          "internalType": "uint256",
          "name": "highestBidBps",
          "type": "uint256"
        },
        {
          "indexed": false,
          "internalType": "uint256",
          "name": "seizedRiskFind",
          "type": "uint256"
        },
        {
          "indexed": false,
          "internalType": "contract VToken[]",
          "name": "markets",
          "type": "address[]"
        },
        {
          "indexed": false,
          "internalType": "uint256[]",
          "name": "marketDebt",
          "type": "uint256[]"
        }
      ],
      "name": "AuctionClosed",
      "type": "event"
    },
    {
      "anonymous": false,
      "inputs": [
        {
          "indexed": false,
          "internalType": "uint256",
          "name": "poolId",
          "type": "uint256"
        }
      ],
      "name": "AuctionRestarted",
      "type": "event"
    },
    {
      "anonymous": false,
      "inputs": [
        {
          "indexed": false,
          "internalType": "uint256",
          "name": "poolId",
          "type": "uint256"
        },
        {
          "indexed": false,
          "internalType": "uint256",
          "name": "startBlock",
          "type": "uint256"
        },
        {
          "indexed": false,
          "internalType": "enum Shortfall.AuctionType",
          "name": "auctionType",
          "type": "uint8"
        },
        {
          "indexed": false,
          "internalType": "contract VToken[]",
          "name": "markets",
          "type": "address[]"
        },
        {
          "indexed": false,
          "internalType": "uint256[]",
          "name": "marketsDebt",
          "type": "uint256[]"
        },
        {
          "indexed": false,
          "internalType": "uint256",
          "name": "seizedRiskFund",
          "type": "uint256"
        },
        {
          "indexed": false,
          "internalType": "uint256",
          "name": "startBidBps",
          "type": "uint256"
        }
      ],
      "name": "AuctionStarted",
      "type": "event"
    },
    {
      "anonymous": false,
      "inputs": [
        {
          "indexed": false,
          "internalType": "uint256",
          "name": "poolId",
          "type": "uint256"
        },
        {
          "indexed": false,
          "internalType": "uint256",
          "name": "bidBps",
          "type": "uint256"
        },
        {
          "indexed": false,
          "internalType": "address",
          "name": "bidder",
          "type": "address"
        }
      ],
      "name": "BidPlaced",
      "type": "event"
    },
    {
      "anonymous": false,
      "inputs": [
        {
          "indexed": false,
          "internalType": "uint8",
          "name": "version",
          "type": "uint8"
        }
      ],
      "name": "Initialized",
      "type": "event"
    },
    {
      "anonymous": false,
      "inputs": [
        {
          "indexed": true,
          "internalType": "address",
          "name": "previousOwner",
          "type": "address"
        },
        {
          "indexed": true,
          "internalType": "address",
          "name": "newOwner",
          "type": "address"
        }
      ],
      "name": "OwnershipTransferred",
      "type": "event"
    },
    {
      "inputs": [
        {
          "internalType": "uint256",
          "name": "",
          "type": "uint256"
        }
      ],
      "name": "auctions",
      "outputs": [
        {
          "internalType": "uint256",
          "name": "startBlock",
          "type": "uint256"
        },
        {
          "internalType": "enum Shortfall.AuctionType",
          "name": "auctionType",
          "type": "uint8"
        },
        {
          "internalType": "enum Shortfall.AuctionStatus",
          "name": "status",
          "type": "uint8"
        },
        {
          "internalType": "uint256",
          "name": "seizedRiskFund",
          "type": "uint256"
        },
        {
          "internalType": "address",
          "name": "highestBidder",
          "type": "address"
        },
        {
          "internalType": "uint256",
          "name": "highestBidBps",
          "type": "uint256"
        },
        {
          "internalType": "uint256",
          "name": "highestBidBlock",
          "type": "uint256"
        },
        {
          "internalType": "uint256",
          "name": "startBidBps",
          "type": "uint256"
        }
      ],
      "stateMutability": "view",
      "type": "function"
    },
    {
      "inputs": [
        {
          "internalType": "uint256",
          "name": "poolId",
          "type": "uint256"
        }
      ],
      "name": "closeAuction",
      "outputs": [],
      "stateMutability": "nonpayable",
      "type": "function"
    },
    {
      "inputs": [
        {
          "internalType": "uint256",
          "name": "",
          "type": "uint256"
        }
      ],
      "name": "comptrollers",
      "outputs": [
        {
          "internalType": "contract ComptrollerInterface",
          "name": "",
          "type": "address"
        }
      ],
      "stateMutability": "view",
      "type": "function"
    },
    {
      "inputs": [
        {
          "internalType": "contract IERC20",
          "name": "_BUSD",
          "type": "address"
        },
        {
          "internalType": "contract IRiskFund",
          "name": "_riskFund",
          "type": "address"
        },
        {
          "internalType": "uint256",
          "name": "_minimumPoolBadDebt",
          "type": "uint256"
        }
      ],
      "name": "initialize",
      "outputs": [],
      "stateMutability": "nonpayable",
      "type": "function"
    },
    {
      "inputs": [],
      "name": "minimumPoolBadDebt",
      "outputs": [
        {
          "internalType": "uint256",
          "name": "",
          "type": "uint256"
        }
      ],
      "stateMutability": "view",
      "type": "function"
    },
    {
      "inputs": [],
      "name": "nextBidderBlockLimit",
      "outputs": [
        {
          "internalType": "uint256",
          "name": "",
          "type": "uint256"
        }
      ],
      "stateMutability": "view",
      "type": "function"
    },
    {
      "inputs": [],
      "name": "owner",
      "outputs": [
        {
          "internalType": "address",
          "name": "",
          "type": "address"
        }
      ],
      "stateMutability": "view",
      "type": "function"
    },
    {
      "inputs": [
        {
          "internalType": "uint256",
          "name": "poolId",
          "type": "uint256"
        },
        {
          "internalType": "uint256",
          "name": "bidBps",
          "type": "uint256"
        }
      ],
      "name": "placeBid",
      "outputs": [],
      "stateMutability": "nonpayable",
      "type": "function"
    },
    {
      "inputs": [],
      "name": "poolRegistry",
      "outputs": [
        {
          "internalType": "address",
          "name": "",
          "type": "address"
        }
      ],
      "stateMutability": "view",
      "type": "function"
    },
    {
      "inputs": [],
      "name": "renounceOwnership",
      "outputs": [],
      "stateMutability": "nonpayable",
      "type": "function"
    },
    {
      "inputs": [
        {
          "internalType": "uint256",
          "name": "poolId",
          "type": "uint256"
        }
      ],
      "name": "restartAuction",
      "outputs": [],
      "stateMutability": "nonpayable",
      "type": "function"
    },
    {
      "inputs": [
        {
          "internalType": "uint256",
          "name": "poolId",
          "type": "uint256"
        },
        {
          "internalType": "contract ComptrollerInterface",
          "name": "_comptroller",
          "type": "address"
        }
      ],
      "name": "setPoolComptroller",
      "outputs": [],
      "stateMutability": "nonpayable",
      "type": "function"
    },
    {
      "inputs": [
        {
          "internalType": "address",
          "name": "_poolRegistry",
          "type": "address"
        }
      ],
      "name": "setPoolRegistry",
      "outputs": [],
      "stateMutability": "nonpayable",
      "type": "function"
    },
    {
      "inputs": [
        {
          "internalType": "uint256",
          "name": "poolId",
          "type": "uint256"
        }
      ],
      "name": "startAuction",
      "outputs": [],
      "stateMutability": "nonpayable",
      "type": "function"
    },
    {
      "inputs": [
        {
          "internalType": "address",
          "name": "newOwner",
          "type": "address"
        }
      ],
      "name": "transferOwnership",
      "outputs": [],
      "stateMutability": "nonpayable",
      "type": "function"
    },
    {
      "inputs": [
        {
          "internalType": "uint256",
          "name": "_minimumPoolBadDebt",
          "type": "uint256"
        }
      ],
      "name": "updateMinimumPoolBadDebt",
      "outputs": [],
      "stateMutability": "nonpayable",
      "type": "function"
    },
    {
      "inputs": [],
      "name": "waitForFirstBidder",
      "outputs": [
        {
          "internalType": "uint256",
          "name": "",
          "type": "uint256"
        }
      ],
      "stateMutability": "view",
      "type": "function"
    }
  ],
  "transactionHash": "0x212c63a699c3e0a1085323ab6f6ac5a0716580ba00c90765dea01d0af8122318",
  "args": [],
  "numDeployments": 1,
  "solcInputHash": "b99a7f89699fcc7fa0a8aaf9060ec476",
  "bytecode": "0x608060405234801561001057600080fd5b50612581806100206000396000f3fe608060405234801561001057600080fd5b506004361061010b5760003560e01c80636d56d264116100a2578063892149a311610071578063892149a3146102745780638da5cb5b1461027c578063afcff50f1461028d578063d25ccf53146102a0578063f2fde38b146102b357600080fd5b80636d56d2641461023e578063715018a61461025157806373d73f40146102595780637b77cd6a1461026157600080fd5b806351b2fd01116100de57806351b2fd0114610167578063571a26a01461017a57806357c90de5146101ea5780636acc13f3146101fd57600080fd5b8063065de74c146101105780631794bb3c14610125578063236ed8f314610138578063264ad3d41461014b575b600080fd5b61012361011e36600461204d565b6102c6565b005b61012361013336600461207b565b610a6c565b61012361014636600461204d565b610bbd565b610154609a5481565b6040519081526020015b60405180910390f35b61012361017536600461204d565b611452565b6101d661018836600461204d565b609c602052600090815260409020805460018201546003830154600484015460058501546006860154600790960154949560ff8086169661010090960416946001600160a01b039093169288565b60405161015e9897969594939291906120e6565b6101236101f8366004612145565b61145f565b61022661020b36600461204d565b6097602052600090815260409020546001600160a01b031681565b6040516001600160a01b03909116815260200161015e565b61012361024c366004612167565b611b4c565b610123611c1c565b610154600a81565b61012361026f366004612197565b611c30565b610154606481565b6033546001600160a01b0316610226565b609854610226906001600160a01b031681565b6101236102ae36600461204d565b611ca2565b6101236102c1366004612197565b611dd4565b6102ce611e4d565b6000818152609c6020908152604080832060979092529091205481546001600160a01b0390911690158015610320575060006001830154610100900460ff16600281111561031e5761031e6120bc565b145b80610348575060026001830154610100900460ff166002811115610346576103466120bc565b145b61038f5760405162461bcd60e51b815260206004820152601360248201527261756374696f6e206973206f6e2d676f696e6760681b60448201526064015b60405180910390fd5b60005b60028301548110156103fa5760008360020182815481106103b5576103b56121bb565b60009182526020808320909101546001600160a01b031682526008860190526040812081905560058501819055600685015550806103f2816121e7565b915050610392565b50610409600283016000611fb5565b6000816001600160a01b031663b0772d0b6040518163ffffffff1660e01b8152600401600060405180830381865afa158015610449573d6000803e3d6000fd5b505050506040513d6000823e601f3d908101601f191682016040526104719190810190612226565b90506000826001600160a01b0316637dc0d1d06040518163ffffffff1660e01b8152600401602060405180830381865afa1580156104b3573d6000803e3d6000fd5b505050506040513d601f19601f820116820180604052508101906104d791906122eb565b9050600080835167ffffffffffffffff8111156104f6576104f6612200565b60405190808252806020026020018201604052801561051f578160200160208202803683370190505b509050835167ffffffffffffffff81111561053c5761053c612200565b604051908082528060200260200182016040528015610565578160200160208202803683370190505b50805161057c916002890191602090910190611fd3565b5060005b845181101561082757600085828151811061059d5761059d6121bb565b60200260200101516001600160a01b031663bbcac5576040518163ffffffff1660e01b8152600401602060405180830381865afa1580156105e2573d6000803e3d6000fd5b505050506040513d601f19601f820116820180604052508101906106069190612308565b9050846001600160a01b03166396e85ced878481518110610629576106296121bb565b60200260200101516040518263ffffffff1660e01b815260040161065c91906001600160a01b0391909116815260200190565b600060405180830381600087803b15801561067657600080fd5b505af115801561068a573d6000803e3d6000fd5b505050506000670de0b6b3a764000082876001600160a01b031663fc57d4df8a87815181106106bb576106bb6121bb565b60200260200101516040518263ffffffff1660e01b81526004016106ee91906001600160a01b0391909116815260200190565b602060405180830381865afa15801561070b573d6000803e3d6000fd5b505050506040513d601f19601f8201168201806040525081019061072f9190612308565b6107399190612321565b6107439190612340565b905061074f8186612362565b9450868381518110610763576107636121bb565b6020026020010151896002018481548110610780576107806121bb565b9060005260206000200160006101000a8154816001600160a01b0302191690836001600160a01b03160217905550818960080160008986815181106107c7576107c76121bb565b60200260200101516001600160a01b03166001600160a01b031681526020019081526020016000208190555081848481518110610806576108066121bb565b6020026020010181815250505050808061081f906121e7565b915050610580565b50609a5482101561087a5760405162461bcd60e51b815260206004820152601860248201527f706f6f6c20626164206465627420697320746f6f206c6f7700000000000000006044820152606401610386565b609954604051630e40c18360e01b8152600481018990526000916001600160a01b031690630e40c18390602401602060405180830381865afa1580156108c4573d6000803e3d6000fd5b505050506040513d601f19601f820116820180604052508101906108e89190612308565b905080806127106108fb6103e887612321565b6109059190612340565b61090f9086612362565b106109515783816109246103e861271061237a565b61092e9190612321565b6109389190612340565b60078901555060018701805460ff1916905560006109ad565b80600085612710610964826103e8612321565b61096e9190612340565b6109789190612362565b905082811015610986578091505b610990828461237a565b60018b8101805460ff1916909117905561271060078c0155925050505b6109b7818361237a565b60038901554388556001808901805461ff00191661010083021790555060008860040160006101000a8154816001600160a01b0302191690836001600160a01b031602179055507fa430dae0b672aa86e0ec9de2f86a5c148f90234a1e730cf96825e2099b721a138989600001548a60010160009054906101000a900460ff168b600201878d600301548e60070154604051610a59979695949392919061240a565b60405180910390a1505050505050505050565b600054610100900460ff1615808015610a8c5750600054600160ff909116105b80610aa65750303b158015610aa6575060005460ff166001145b610b095760405162461bcd60e51b815260206004820152602e60248201527f496e697469616c697a61626c653a20636f6e747261637420697320616c72656160448201526d191e481a5b9a5d1a585b1a5e995960921b6064820152608401610386565b6000805460ff191660011790558015610b2c576000805461ff0019166101001790555b610b34611ea7565b610b3c611ed6565b609a829055609b80546001600160a01b038087166001600160a01b03199283161790925560998054928616929091169190911790558015610bb7576000805461ff0019169055604051600181527f7f26b83ff96e1f2b6a682f133852f6798a09c465da95921460cefb38474024989060200160405180910390a15b50505050565b600260655403610c0f5760405162461bcd60e51b815260206004820152601f60248201527f5265656e7472616e637947756172643a207265656e7472616e742063616c6c006044820152606401610386565b60026065556000818152609c60205260409020805415801590610c4e5750600180820154610100900460ff166002811115610c4c57610c4c6120bc565b145b610c6a5760405162461bcd60e51b81526004016103869061245f565b600a8160060154610c7b9190612362565b43118015610c95575060048101546001600160a01b031615155b610cf75760405162461bcd60e51b815260206004820152602d60248201527f77616974696e6720666f72206e657874206269646465722e2063616e6e6f742060448201526c31b637b9b29030bab1ba34b7b760991b6064820152608401610386565b600281015460009067ffffffffffffffff811115610d1757610d17612200565b604051908082528060200260200182016040528015610d40578160200160208202803683370190505b5060018301805461ff001916610200179055905060005b600283015481101561116b576000836002018281548110610d7a57610d7a6121bb565b600091825260208083209091015460408051636f307dc360e01b815290516001600160a01b0390921694508492636f307dc3926004808401938290030181865afa158015610dcc573d6000803e3d6000fd5b505050506040513d601f19601f82011682018060405250810190610df091906122eb565b9050600060018087015460ff1690811115610e0d57610e0d6120bc565b03610f395760006127108660050154876008016000896002018881548110610e3757610e376121bb565b60009182526020808320909101546001600160a01b03168352820192909252604001902054610e669190612321565b610e709190612340565b9050816001600160a01b031663a9059cbb876002018681548110610e9657610e966121bb565b60009182526020909120015460405160e083901b6001600160e01b03191681526001600160a01b039091166004820152602481018490526044016020604051808303816000875af1158015610eef573d6000803e3d6000fd5b505050506040513d601f19601f82011682018060405250810190610f13919061248c565b5080858581518110610f2757610f276121bb565b6020026020010181815250505061108a565b806001600160a01b031663a9059cbb866002018581548110610f5d57610f5d6121bb565b9060005260206000200160009054906101000a90046001600160a01b0316876008016000896002018881548110610f9657610f966121bb565b6000918252602080832091909101546001600160a01b039081168452908301939093526040918201902054905160e085901b6001600160e01b031916815292909116600483015260248201526044016020604051808303816000875af1158015611004573d6000803e3d6000fd5b505050506040513d601f19601f82011682018060405250810190611028919061248c565b50846008016000866002018581548110611044576110446121bb565b60009182526020808320909101546001600160a01b03168352820192909252604001902054845185908590811061107d5761107d6121bb565b6020026020010181815250505b84600201838154811061109f5761109f6121bb565b60009182526020822001546002870180546001600160a01b039092169263ef60450c9260088a019290889081106110d8576110d86121bb565b60009182526020808320909101546001600160a01b0316835282019290925260409081019091205490516001600160e01b031960e084901b168152611124919060040190815260200190565b600060405180830381600087803b15801561113e57600080fd5b505af1158015611152573d6000803e3d6000fd5b5050505050508080611163906121e7565b915050610d57565b506003820154600060018085015460ff169081111561118c5761118c6120bc565b0361128d57609954604051630f0054d360e01b815260048101869052602481018390526001600160a01b0390911690630f0054d3906044016020604051808303816000875af11580156111e3573d6000803e3d6000fd5b505050506040513d601f19601f820116820180604052508101906112079190612308565b50609b5460048481015460405163a9059cbb60e01b81526001600160a01b0391821692810192909252602482018490529091169063a9059cbb906044016020604051808303816000875af1158015611263573d6000803e3d6000fd5b505050506040513d601f19601f82011682018060405250810190611287919061248c565b506113f0565b612710836005015484600301546112a49190612321565b6112ae9190612340565b905060008184600301546112c2919061237a565b60995460038601549192506001600160a01b031690630f0054d39087906112ea90859061237a565b6040516001600160e01b031960e085901b168152600481019290925260248201526044016020604051808303816000875af115801561132d573d6000803e3d6000fd5b505050506040513d601f19601f820116820180604052508101906113519190612308565b50609b54600485015460038601546001600160a01b039283169263a9059cbb92169061137e90859061237a565b6040516001600160e01b031960e085901b1681526001600160a01b03909216600483015260248201526044016020604051808303816000875af11580156113c9573d6000803e3d6000fd5b505050506040513d601f19601f820116820180604052508101906113ed919061248c565b50505b600483015460058401546040517f0b66f7338b279cf06e31f30bd2a9aa62be44f50541858bc77aab62d092787f549261143f9288926001600160a01b0390921691869060028a019089906124ae565b60405180910390a1505060016065555050565b61145a611e4d565b609a55565b6002606554036114b15760405162461bcd60e51b815260206004820152601f60248201527f5265656e7472616e637947756172643a207265656e7472616e742063616c6c006044820152606401610386565b60026065556000828152609c602052604090208054158015906114f05750600180820154610100900460ff1660028111156114ee576114ee6120bc565b145b61150c5760405162461bcd60e51b81526004016103869061245f565b61271082111561156d5760405162461bcd60e51b815260206004820152602660248201527f626173697320706f696e74732063616e6e6f74206265206d6f7265207468616e60448201526502031303030360d41b6064820152608401610386565b600060018083015460ff1690811115611588576115886120bc565b1480156115d4575060048101546001600160a01b0316158015906115af5750806005015482115b806115d4575060048101546001600160a01b03161580156115d4575080600701548210155b8061163f575060018181015460ff16818111156115f3576115f36120bc565b14801561163f575060048101546001600160a01b03161580159061161a5750806005015482105b8061163f575060048101546001600160a01b031615801561163f575080600701548211155b61168b5760405162461bcd60e51b815260206004820152601b60248201527f796f757220626964206973206e6f7420746865206869676865737400000000006044820152606401610386565b60005b6002820154811015611adb5760008260020182815481106116b1576116b16121bb565b600091825260208083209091015460408051636f307dc360e01b815290516001600160a01b0390921694508492636f307dc3926004808401938290030181865afa158015611703573d6000803e3d6000fd5b505050506040513d601f19601f8201168201806040525081019061172791906122eb565b9050600060018086015460ff1690811115611744576117446120bc565b036119175760048401546001600160a01b03161561183c5760006127108560050154866008016000886002018881548110611781576117816121bb565b60009182526020808320909101546001600160a01b031683528201929092526040019020546117b09190612321565b6117ba9190612340565b60048681015460405163a9059cbb60e01b81526001600160a01b0391821692810192909252602482018390529192509083169063a9059cbb906044016020604051808303816000875af1158015611815573d6000803e3d6000fd5b505050506040513d601f19601f82011682018060405250810190611839919061248c565b50505b60006127108686600801600088600201888154811061185d5761185d6121bb565b60009182526020808320909101546001600160a01b0316835282019290925260400190205461188c9190612321565b6118969190612340565b6040516323b872dd60e01b8152336004820152306024820152604481018290529091506001600160a01b038316906323b872dd906064016020604051808303816000875af11580156118ec573d6000803e3d6000fd5b505050506040513d601f19601f82011682018060405250810190611910919061248c565b5050611ac6565b60048401546001600160a01b031615611a0057806001600160a01b031663a9059cbb8560040160009054906101000a90046001600160a01b031686600801600088600201888154811061196c5761196c6121bb565b6000918252602080832091909101546001600160a01b039081168452908301939093526040918201902054905160e085901b6001600160e01b031916815292909116600483015260248201526044016020604051808303816000875af11580156119da573d6000803e3d6000fd5b505050506040513d601f19601f820116820180604052508101906119fe919061248c565b505b806001600160a01b03166323b872dd3330876008016000896002018981548110611a2c57611a2c6121bb565b6000918252602080832091909101546001600160a01b039081168452908301939093526040918201902054905160e086901b6001600160e01b031916815293821660048501529116602483015260448201526064016020604051808303816000875af1158015611aa0573d6000803e3d6000fd5b505050506040513d601f19601f82011682018060405250810190611ac4919061248c565b505b50508080611ad3906121e7565b91505061168e565b506004810180546001600160a01b03191633908117909155600582018390554360068301556040805185815260208101859052908101919091527fbfbf2db1f7880e9487cbceeb181c4dce363d0ad1b6e73f5aa494ffb5d91914969060600160405180910390a15050600160655550565b6098546001600160a01b03163314611ba65760405162461bcd60e51b815260206004820152601b60248201527f63616c6c6572206973206e6f7420706f6f6c20726567697374727900000000006044820152606401610386565b6001600160a01b038116611bee5760405162461bcd60e51b815260206004820152600f60248201526e696e76616c6964206164647265737360881b6044820152606401610386565b60009182526097602052604090912080546001600160a01b0319166001600160a01b03909216919091179055565b611c24611e4d565b611c2e6000611f05565b565b611c38611e4d565b6001600160a01b038116611c805760405162461bcd60e51b815260206004820152600f60248201526e696e76616c6964206164647265737360881b6044820152606401610386565b609880546001600160a01b0319166001600160a01b0392909216919091179055565b6000818152609c60205260409020805415801590611cdc5750600180820154610100900460ff166002811115611cda57611cda6120bc565b145b611cf85760405162461bcd60e51b81526004016103869061245f565b8054611d0690606490612362565b43118015611d1f575060048101546001600160a01b0316155b611d835760405162461bcd60e51b815260206004820152602f60248201527f796f75206e65656420746f207761697420666f72206d6f72652074696d65206660448201526e37b9103334b939ba103134b23232b960891b6064820152608401610386565b60018101805461ff0019166102001790556040805183815290517f35c97a20933cebd006e81c4cede8d93c80bc49e0557b784f18879ea9b70418e89181900360200190a1611dd0826102c6565b5050565b611ddc611e4d565b6001600160a01b038116611e415760405162461bcd60e51b815260206004820152602660248201527f4f776e61626c653a206e6577206f776e657220697320746865207a65726f206160448201526564647265737360d01b6064820152608401610386565b611e4a81611f05565b50565b6033546001600160a01b03163314611c2e5760405162461bcd60e51b815260206004820181905260248201527f4f776e61626c653a2063616c6c6572206973206e6f7420746865206f776e65726044820152606401610386565b600054610100900460ff16611ece5760405162461bcd60e51b815260040161038690612500565b611c2e611f57565b600054610100900460ff16611efd5760405162461bcd60e51b815260040161038690612500565b611c2e611f87565b603380546001600160a01b038381166001600160a01b0319831681179093556040519116919082907f8be0079c531659141344cd1fd0a4f28419497f9722a3daafe3b4186f6b6457e090600090a35050565b600054610100900460ff16611f7e5760405162461bcd60e51b815260040161038690612500565b611c2e33611f05565b600054610100900460ff16611fae5760405162461bcd60e51b815260040161038690612500565b6001606555565b5080546000825590600052602060002090810190611e4a9190612038565b828054828255906000526020600020908101928215612028579160200282015b8281111561202857825182546001600160a01b0319166001600160a01b03909116178255602090920191600190910190611ff3565b50612034929150612038565b5090565b5b808211156120345760008155600101612039565b60006020828403121561205f57600080fd5b5035919050565b6001600160a01b0381168114611e4a57600080fd5b60008060006060848603121561209057600080fd5b833561209b81612066565b925060208401356120ab81612066565b929592945050506040919091013590565b634e487b7160e01b600052602160045260246000fd5b600281106120e2576120e26120bc565b9052565b88815261010081016120fb602083018a6120d2565b6003881061210b5761210b6120bc565b604082019790975260608101959095526001600160a01b0393909316608085015260a084019190915260c083015260e09091015292915050565b6000806040838503121561215857600080fd5b50508035926020909101359150565b6000806040838503121561217a57600080fd5b82359150602083013561218c81612066565b809150509250929050565b6000602082840312156121a957600080fd5b81356121b481612066565b9392505050565b634e487b7160e01b600052603260045260246000fd5b634e487b7160e01b600052601160045260246000fd5b6000600182016121f9576121f96121d1565b5060010190565b634e487b7160e01b600052604160045260246000fd5b805161222181612066565b919050565b6000602080838503121561223957600080fd5b825167ffffffffffffffff8082111561225157600080fd5b818501915085601f83011261226557600080fd5b81518181111561227757612277612200565b8060051b604051601f19603f8301168101818110858211171561229c5761229c612200565b6040529182528482019250838101850191888311156122ba57600080fd5b938501935b828510156122df576122d085612216565b845293850193928501926122bf565b98975050505050505050565b6000602082840312156122fd57600080fd5b81516121b481612066565b60006020828403121561231a57600080fd5b5051919050565b600081600019048311821515161561233b5761233b6121d1565b500290565b60008261235d57634e487b7160e01b600052601260045260246000fd5b500490565b60008219821115612375576123756121d1565b500190565b60008282101561238c5761238c6121d1565b500390565b6000815480845260208085019450836000528060002060005b838110156123cf5781546001600160a01b0316875295820195600191820191016123aa565b509495945050505050565b600081518084526020808501945080840160005b838110156123cf578151875295820195908201906001016123ee565b87815286602082015261242060408201876120d2565b60e06060820152600061243660e0830187612391565b828103608084015261244881876123da565b60a0840195909552505060c0015295945050505050565b60208082526013908201527237379037b716b3b7b4b7339030bab1ba34b7b760691b604082015260600190565b60006020828403121561249e57600080fd5b815180151581146121b457600080fd5b86815260018060a01b038616602082015284604082015283606082015260c0608082015260006124e160c0830185612391565b82810360a08401526124f381856123da565b9998505050505050505050565b6020808252602b908201527f496e697469616c697a61626c653a20636f6e7472616374206973206e6f74206960408201526a6e697469616c697a696e6760a81b60608201526080019056fea2646970667358221220be2e3130664a4090e0c3f8d2eca50e909663078eb3beab16be60f2807b6d97f064736f6c634300080d0033",
  "devdoc": {
    "kind": "dev",
    "methods": {
      "closeAuction(uint256)": {
        "params": {
          "poolId": "ID of the pool"
        }
      },
      "initialize(address,address,uint256)": {
        "params": {
          "_minimumPoolBadDebt": "Minimum bad debt in BUSD for a pool to start auction"
        }
      },
      "owner()": {
        "details": "Returns the address of the current owner."
      },
      "placeBid(uint256,uint256)": {
        "params": {
          "bidBps": "The bid m% or n%",
          "poolId": "ID of the pool"
        }
      },
      "renounceOwnership()": {
        "details": "Leaves the contract without owner. It will not be possible to call `onlyOwner` functions anymore. Can only be called by the current owner. NOTE: Renouncing ownership will leave the contract without an owner, thereby removing any functionality that is only available to the owner."
      },
      "restartAuction(uint256)": {
        "params": {
          "poolId": "ID of the pool"
        }
      },
      "setPoolComptroller(uint256,address)": {
        "params": {
          "_comptroller": "Comptroller address of the new pool",
          "poolId": "ID of the new pool"
        }
      },
      "setPoolRegistry(address)": {
        "params": {
          "_poolRegistry": "Address of pool registry contract"
        }
      },
      "startAuction(uint256)": {
        "params": {
          "poolId": "ID of the pool"
        }
      },
      "transferOwnership(address)": {
        "details": "Transfers ownership of the contract to a new account (`newOwner`). Can only be called by the current owner."
      },
      "updateMinimumPoolBadDebt(uint256)": {
        "params": {
          "_minimumPoolBadDebt": "Minimum bad debt in BUSD for a pool to start auction"
        }
      }
    },
    "version": 1
  },
  "userdoc": {
    "events": {
      "AuctionClosed(uint256,address,uint256,uint256,address[],uint256[])": {
        "notice": "Emitted when a auction is completed"
      },
      "AuctionRestarted(uint256)": {
        "notice": "Emitted when a auction is restarted"
      },
      "AuctionStarted(uint256,uint256,uint8,address[],uint256[],uint256,uint256)": {
        "notice": "Emitted when a auction starts"
      },
      "BidPlaced(uint256,uint256,address)": {
        "notice": "Emitted when a bid is placed"
      }
    },
    "kind": "user",
    "methods": {
      "auctions(uint256)": {
        "notice": "Auctions for each pool"
      },
      "closeAuction(uint256)": {
        "notice": "Close an auction"
      },
      "comptrollers(uint256)": {
        "notice": "Pool ID to comptroller address mapping"
      },
      "initialize(address,address,uint256)": {
        "notice": "Initalize the shortfall contract"
      },
      "minimumPoolBadDebt()": {
        "notice": "Minimum USD debt in pool for shortfall to trigger "
      },
      "nextBidderBlockLimit()": {
        "notice": "Time to wait for next bidder. wait for 10 blocks"
      },
      "placeBid(uint256,uint256)": {
        "notice": "Place a bid in a auction"
      },
      "poolRegistry()": {
        "notice": "Pool registry address"
      },
      "restartAuction(uint256)": {
        "notice": "Restart an auction"
      },
      "setPoolComptroller(uint256,address)": {
        "notice": "Called by pool registry contract whenever a new isolated pool is created"
      },
      "setPoolRegistry(address)": {
        "notice": "After Pool Registry is deployed we need to set the pool registry address"
      },
      "startAuction(uint256)": {
        "notice": "Start a auction"
      },
      "updateMinimumPoolBadDebt(uint256)": {
        "notice": "Update minimum pool bad debt to start auction"
      },
      "waitForFirstBidder()": {
        "notice": "Time to wait for first bidder. wait for 100 blocks"
      }
    },
    "version": 1
  },
  "storageLayout": {
    "storage": [
      {
        "astId": 218,
        "contract": "contracts/Shortfall/Shortfall.sol:Shortfall",
        "label": "_initialized",
        "offset": 0,
        "slot": "0",
        "type": "t_uint8"
      },
      {
        "astId": 221,
        "contract": "contracts/Shortfall/Shortfall.sol:Shortfall",
        "label": "_initializing",
        "offset": 1,
        "slot": "0",
        "type": "t_bool"
      },
      {
        "astId": 832,
        "contract": "contracts/Shortfall/Shortfall.sol:Shortfall",
        "label": "__gap",
        "offset": 0,
        "slot": "1",
        "type": "t_array(t_uint256)50_storage"
      },
      {
        "astId": 10,
        "contract": "contracts/Shortfall/Shortfall.sol:Shortfall",
        "label": "_owner",
        "offset": 0,
        "slot": "51",
        "type": "t_address"
      },
      {
        "astId": 130,
        "contract": "contracts/Shortfall/Shortfall.sol:Shortfall",
        "label": "__gap",
        "offset": 0,
        "slot": "52",
        "type": "t_array(t_uint256)49_storage"
      },
      {
        "astId": 503,
        "contract": "contracts/Shortfall/Shortfall.sol:Shortfall",
        "label": "_status",
        "offset": 0,
        "slot": "101",
        "type": "t_uint256"
      },
      {
        "astId": 547,
        "contract": "contracts/Shortfall/Shortfall.sol:Shortfall",
        "label": "__gap",
        "offset": 0,
        "slot": "102",
        "type": "t_array(t_uint256)49_storage"
      },
      {
        "astId": 15209,
        "contract": "contracts/Shortfall/Shortfall.sol:Shortfall",
        "label": "comptrollers",
        "offset": 0,
        "slot": "151",
        "type": "t_mapping(t_uint256,t_contract(ComptrollerInterface)9717)"
      },
      {
        "astId": 15212,
        "contract": "contracts/Shortfall/Shortfall.sol:Shortfall",
        "label": "poolRegistry",
        "offset": 0,
        "slot": "152",
        "type": "t_address"
      },
      {
        "astId": 15216,
        "contract": "contracts/Shortfall/Shortfall.sol:Shortfall",
        "label": "riskFund",
        "offset": 0,
        "slot": "153",
        "type": "t_contract(IRiskFund)14372"
      },
      {
        "astId": 15219,
        "contract": "contracts/Shortfall/Shortfall.sol:Shortfall",
        "label": "minimumPoolBadDebt",
        "offset": 0,
        "slot": "154",
        "type": "t_uint256"
      },
      {
        "astId": 15239,
        "contract": "contracts/Shortfall/Shortfall.sol:Shortfall",
        "label": "BUSD",
        "offset": 0,
        "slot": "155",
        "type": "t_contract(IERC20)2465"
      },
      {
        "astId": 15245,
        "contract": "contracts/Shortfall/Shortfall.sol:Shortfall",
        "label": "auctions",
        "offset": 0,
        "slot": "156",
        "type": "t_mapping(t_uint256,t_struct(Auction)15150_storage)"
      }
    ],
    "types": {
      "t_address": {
        "encoding": "inplace",
        "label": "address",
        "numberOfBytes": "20"
      },
      "t_array(t_contract(VToken)20825)dyn_storage": {
        "base": "t_contract(VToken)20825",
        "encoding": "dynamic_array",
        "label": "contract VToken[]",
        "numberOfBytes": "32"
      },
      "t_array(t_uint256)49_storage": {
        "base": "t_uint256",
        "encoding": "inplace",
        "label": "uint256[49]",
        "numberOfBytes": "1568"
      },
      "t_array(t_uint256)50_storage": {
        "base": "t_uint256",
        "encoding": "inplace",
        "label": "uint256[50]",
        "numberOfBytes": "1600"
      },
      "t_bool": {
        "encoding": "inplace",
        "label": "bool",
        "numberOfBytes": "1"
      },
      "t_contract(ComptrollerInterface)9717": {
        "encoding": "inplace",
        "label": "contract ComptrollerInterface",
        "numberOfBytes": "20"
      },
      "t_contract(IERC20)2465": {
        "encoding": "inplace",
        "label": "contract IERC20",
        "numberOfBytes": "20"
      },
      "t_contract(IRiskFund)14372": {
        "encoding": "inplace",
        "label": "contract IRiskFund",
        "numberOfBytes": "20"
      },
      "t_contract(VToken)20825": {
        "encoding": "inplace",
        "label": "contract VToken",
        "numberOfBytes": "20"
      },
      "t_enum(AuctionStatus)15122": {
        "encoding": "inplace",
        "label": "enum Shortfall.AuctionStatus",
        "numberOfBytes": "1"
      },
      "t_enum(AuctionType)15118": {
        "encoding": "inplace",
        "label": "enum Shortfall.AuctionType",
        "numberOfBytes": "1"
      },
      "t_mapping(t_contract(VToken)20825,t_uint256)": {
        "encoding": "mapping",
        "key": "t_contract(VToken)20825",
        "label": "mapping(contract VToken => uint256)",
        "numberOfBytes": "32",
        "value": "t_uint256"
      },
      "t_mapping(t_uint256,t_contract(ComptrollerInterface)9717)": {
        "encoding": "mapping",
        "key": "t_uint256",
        "label": "mapping(uint256 => contract ComptrollerInterface)",
        "numberOfBytes": "32",
        "value": "t_contract(ComptrollerInterface)9717"
      },
      "t_mapping(t_uint256,t_struct(Auction)15150_storage)": {
        "encoding": "mapping",
        "key": "t_uint256",
        "label": "mapping(uint256 => struct Shortfall.Auction)",
        "numberOfBytes": "32",
        "value": "t_struct(Auction)15150_storage"
      },
      "t_struct(Auction)15150_storage": {
        "encoding": "inplace",
        "label": "struct Shortfall.Auction",
        "members": [
          {
            "astId": 15124,
            "contract": "contracts/Shortfall/Shortfall.sol:Shortfall",
            "label": "startBlock",
            "offset": 0,
            "slot": "0",
            "type": "t_uint256"
          },
          {
            "astId": 15127,
            "contract": "contracts/Shortfall/Shortfall.sol:Shortfall",
            "label": "auctionType",
            "offset": 0,
            "slot": "1",
            "type": "t_enum(AuctionType)15118"
          },
          {
            "astId": 15130,
            "contract": "contracts/Shortfall/Shortfall.sol:Shortfall",
            "label": "status",
            "offset": 1,
            "slot": "1",
            "type": "t_enum(AuctionStatus)15122"
          },
          {
            "astId": 15134,
            "contract": "contracts/Shortfall/Shortfall.sol:Shortfall",
            "label": "markets",
            "offset": 0,
            "slot": "2",
            "type": "t_array(t_contract(VToken)20825)dyn_storage"
          },
          {
            "astId": 15136,
            "contract": "contracts/Shortfall/Shortfall.sol:Shortfall",
            "label": "seizedRiskFund",
            "offset": 0,
            "slot": "3",
            "type": "t_uint256"
          },
          {
            "astId": 15138,
            "contract": "contracts/Shortfall/Shortfall.sol:Shortfall",
            "label": "highestBidder",
            "offset": 0,
            "slot": "4",
            "type": "t_address"
          },
          {
            "astId": 15140,
            "contract": "contracts/Shortfall/Shortfall.sol:Shortfall",
            "label": "highestBidBps",
            "offset": 0,
            "slot": "5",
            "type": "t_uint256"
          },
          {
            "astId": 15142,
            "contract": "contracts/Shortfall/Shortfall.sol:Shortfall",
            "label": "highestBidBlock",
            "offset": 0,
            "slot": "6",
            "type": "t_uint256"
          },
          {
            "astId": 15144,
            "contract": "contracts/Shortfall/Shortfall.sol:Shortfall",
            "label": "startBidBps",
            "offset": 0,
            "slot": "7",
            "type": "t_uint256"
          },
          {
            "astId": 15149,
            "contract": "contracts/Shortfall/Shortfall.sol:Shortfall",
            "label": "marketDebt",
            "offset": 0,
            "slot": "8",
            "type": "t_mapping(t_contract(VToken)20825,t_uint256)"
          }
        ],
        "numberOfBytes": "288"
      },
      "t_uint256": {
        "encoding": "inplace",
        "label": "uint256",
        "numberOfBytes": "32"
      },
      "t_uint8": {
        "encoding": "inplace",
        "label": "uint8",
        "numberOfBytes": "1"
      }
    }
  }
}