{
  "address": "0x2eCD2985EA77b80BBF6579552480504f4E432160",
  "abi": [
    {
      "inputs": [
        {
          "internalType": "address",
          "name": "WBNB_",
          "type": "address"
        },
        {
          "internalType": "address",
          "name": "factory_",
          "type": "address"
        }
      ],
      "stateMutability": "nonpayable",
      "type": "constructor"
    },
    {
      "inputs": [
        {
          "internalType": "uint256",
          "name": "amount",
          "type": "uint256"
        },
        {
          "internalType": "uint256",
          "name": "amountMax",
          "type": "uint256"
        }
      ],
      "name": "ExcessiveInputAmount",
      "type": "error"
    },
    {
      "inputs": [],
      "name": "IdenticalAddresses",
      "type": "error"
    },
    {
      "inputs": [
        {
          "internalType": "uint256",
          "name": "amountIn",
          "type": "uint256"
        },
        {
          "internalType": "uint256",
          "name": "amountIntMax",
          "type": "uint256"
        }
      ],
      "name": "InputAmountAboveMaximum",
      "type": "error"
    },
    {
      "inputs": [],
      "name": "InsufficientInputAmount",
      "type": "error"
    },
    {
      "inputs": [],
      "name": "InsufficientLiquidity",
      "type": "error"
    },
    {
      "inputs": [],
      "name": "InsufficientOutputAmount",
      "type": "error"
    },
    {
      "inputs": [],
      "name": "InvalidPath",
      "type": "error"
    },
    {
      "inputs": [
        {
          "internalType": "uint256",
          "name": "amountOut",
          "type": "uint256"
        },
        {
          "internalType": "uint256",
          "name": "amountOutMin",
          "type": "uint256"
        }
      ],
      "name": "OutputAmountBelowMinimum",
      "type": "error"
    },
    {
      "inputs": [
        {
          "internalType": "address",
          "name": "repayer",
          "type": "address"
        },
        {
          "internalType": "address",
          "name": "vToken",
          "type": "address"
        },
        {
          "internalType": "uint256",
          "name": "errorCode",
          "type": "uint256"
        }
      ],
      "name": "RepayError",
      "type": "error"
    },
    {
      "inputs": [
        {
          "internalType": "address",
          "name": "supplier",
          "type": "address"
        },
        {
          "internalType": "address",
          "name": "vToken",
          "type": "address"
        },
        {
          "internalType": "uint256",
          "name": "errorCode",
          "type": "uint256"
        }
      ],
      "name": "SupplyError",
      "type": "error"
    },
    {
      "inputs": [
        {
          "internalType": "uint256",
          "name": "deadline",
          "type": "uint256"
        },
        {
          "internalType": "uint256",
          "name": "currentBlock",
          "type": "uint256"
        }
      ],
      "name": "SwapDeadlineExpire",
      "type": "error"
    },
    {
      "inputs": [
        {
          "internalType": "address",
          "name": "vToken",
          "type": "address"
        }
      ],
      "name": "VTokenNotListed",
      "type": "error"
    },
    {
      "inputs": [
        {
          "internalType": "address",
          "name": "expectedAdddress",
          "type": "address"
        },
        {
          "internalType": "address",
          "name": "passedAddress",
          "type": "address"
        }
      ],
      "name": "WrongAddress",
      "type": "error"
    },
    {
      "inputs": [],
      "name": "ZeroAddress",
      "type": "error"
    },
    {
      "anonymous": false,
      "inputs": [
        {
          "indexed": false,
          "internalType": "uint8",
          "name": "version",
          "type": "uint8"
        }
      ],
      "name": "Initialized",
      "type": "event"
    },
    {
      "anonymous": false,
      "inputs": [
        {
          "indexed": true,
          "internalType": "address",
          "name": "previousOwner",
          "type": "address"
        },
        {
          "indexed": true,
          "internalType": "address",
          "name": "newOwner",
          "type": "address"
        }
      ],
      "name": "OwnershipTransferStarted",
      "type": "event"
    },
    {
      "anonymous": false,
      "inputs": [
        {
          "indexed": true,
          "internalType": "address",
          "name": "previousOwner",
          "type": "address"
        },
        {
          "indexed": true,
          "internalType": "address",
          "name": "newOwner",
          "type": "address"
        }
      ],
      "name": "OwnershipTransferred",
      "type": "event"
    },
    {
      "anonymous": false,
      "inputs": [
        {
          "indexed": true,
          "internalType": "address",
          "name": "swapper",
          "type": "address"
        },
        {
          "indexed": true,
          "internalType": "address[]",
          "name": "path",
          "type": "address[]"
        },
        {
          "indexed": true,
          "internalType": "uint256[]",
          "name": "amounts",
          "type": "uint256[]"
        }
      ],
      "name": "SwapBnbForTokens",
      "type": "event"
    },
    {
      "anonymous": false,
      "inputs": [
        {
          "indexed": true,
          "internalType": "address",
          "name": "swapper",
          "type": "address"
        },
        {
          "indexed": true,
          "internalType": "address[]",
          "name": "path",
          "type": "address[]"
        },
        {
          "indexed": true,
          "internalType": "uint256[]",
          "name": "amounts",
          "type": "uint256[]"
        }
      ],
      "name": "SwapTokensForBnb",
      "type": "event"
    },
    {
      "anonymous": false,
      "inputs": [
        {
          "indexed": true,
          "internalType": "address",
          "name": "swapper",
          "type": "address"
        },
        {
          "indexed": true,
          "internalType": "address[]",
          "name": "path",
          "type": "address[]"
        },
        {
          "indexed": true,
          "internalType": "uint256[]",
          "name": "amounts",
          "type": "uint256[]"
        }
      ],
      "name": "SwapTokensForTokens",
      "type": "event"
    },
    {
      "anonymous": false,
      "inputs": [
        {
          "indexed": true,
          "internalType": "address",
          "name": "token",
          "type": "address"
        },
        {
          "indexed": true,
          "internalType": "address",
          "name": "to",
          "type": "address"
        },
        {
          "indexed": false,
          "internalType": "uint256",
          "name": "sweepAmount",
          "type": "uint256"
        }
      ],
      "name": "SweepToken",
      "type": "event"
    },
    {
      "inputs": [],
      "name": "WBNB",
      "outputs": [
        {
          "internalType": "address",
          "name": "",
          "type": "address"
        }
      ],
      "stateMutability": "view",
      "type": "function"
    },
    {
      "inputs": [],
      "name": "acceptOwnership",
      "outputs": [],
      "stateMutability": "nonpayable",
      "type": "function"
    },
    {
      "inputs": [],
      "name": "comptrollerAddress",
      "outputs": [
        {
          "internalType": "address",
          "name": "",
          "type": "address"
        }
      ],
      "stateMutability": "view",
      "type": "function"
    },
    {
      "inputs": [],
      "name": "factory",
      "outputs": [
        {
          "internalType": "address",
          "name": "",
          "type": "address"
        }
      ],
      "stateMutability": "view",
      "type": "function"
    },
    {
      "inputs": [
        {
          "internalType": "uint256",
          "name": "amountOut",
          "type": "uint256"
        },
        {
          "internalType": "uint256",
          "name": "reserveIn",
          "type": "uint256"
        },
        {
          "internalType": "uint256",
          "name": "reserveOut",
          "type": "uint256"
        }
      ],
      "name": "getAmountIn",
      "outputs": [
        {
          "internalType": "uint256",
          "name": "amountIn",
          "type": "uint256"
        }
      ],
      "stateMutability": "pure",
      "type": "function"
    },
    {
      "inputs": [
        {
          "internalType": "uint256",
          "name": "amountIn",
          "type": "uint256"
        },
        {
          "internalType": "uint256",
          "name": "reserveIn",
          "type": "uint256"
        },
        {
          "internalType": "uint256",
          "name": "reserveOut",
          "type": "uint256"
        }
      ],
      "name": "getAmountOut",
      "outputs": [
        {
          "internalType": "uint256",
          "name": "amountOut",
          "type": "uint256"
        }
      ],
      "stateMutability": "pure",
      "type": "function"
    },
    {
      "inputs": [
        {
          "internalType": "uint256",
          "name": "amountOut",
          "type": "uint256"
        },
        {
          "internalType": "address[]",
          "name": "path",
          "type": "address[]"
        }
      ],
      "name": "getAmountsIn",
      "outputs": [
        {
          "internalType": "uint256[]",
          "name": "amounts",
          "type": "uint256[]"
        }
      ],
      "stateMutability": "view",
      "type": "function"
    },
    {
      "inputs": [
        {
          "internalType": "uint256",
          "name": "amountIn",
          "type": "uint256"
        },
        {
          "internalType": "address[]",
          "name": "path",
          "type": "address[]"
        }
      ],
      "name": "getAmountsOut",
      "outputs": [
        {
          "internalType": "uint256[]",
          "name": "amounts",
          "type": "uint256[]"
        }
      ],
      "stateMutability": "view",
      "type": "function"
    },
    {
      "inputs": [
        {
          "internalType": "address",
          "name": "_comptrollerAddress",
          "type": "address"
        }
      ],
      "name": "initialize",
      "outputs": [],
      "stateMutability": "nonpayable",
      "type": "function"
    },
    {
      "inputs": [],
      "name": "owner",
      "outputs": [
        {
          "internalType": "address",
          "name": "",
          "type": "address"
        }
      ],
      "stateMutability": "view",
      "type": "function"
    },
    {
      "inputs": [],
      "name": "pendingOwner",
      "outputs": [
        {
          "internalType": "address",
          "name": "",
          "type": "address"
        }
      ],
      "stateMutability": "view",
      "type": "function"
    },
    {
      "inputs": [
        {
          "internalType": "uint256",
          "name": "amountA",
          "type": "uint256"
        },
        {
          "internalType": "uint256",
          "name": "reserveA",
          "type": "uint256"
        },
        {
          "internalType": "uint256",
          "name": "reserveB",
          "type": "uint256"
        }
      ],
      "name": "quote",
      "outputs": [
        {
          "internalType": "uint256",
          "name": "amountB",
          "type": "uint256"
        }
      ],
      "stateMutability": "pure",
      "type": "function"
    },
    {
      "inputs": [],
      "name": "renounceOwnership",
      "outputs": [],
      "stateMutability": "nonpayable",
      "type": "function"
    },
    {
      "inputs": [
        {
          "internalType": "address",
          "name": "vTokenAddress",
          "type": "address"
        },
        {
          "internalType": "uint256",
          "name": "amountIn",
          "type": "uint256"
        },
        {
          "internalType": "uint256",
          "name": "amountOutMin",
          "type": "uint256"
        },
        {
          "internalType": "address[]",
          "name": "path",
          "type": "address[]"
        },
        {
          "internalType": "uint256",
          "name": "deadline",
          "type": "uint256"
        }
      ],
      "name": "swapAndRepay",
      "outputs": [],
      "stateMutability": "nonpayable",
      "type": "function"
    },
    {
      "inputs": [
        {
          "internalType": "address",
          "name": "vTokenAddress",
          "type": "address"
        },
        {
          "internalType": "uint256",
          "name": "amountIn",
          "type": "uint256"
        },
        {
          "internalType": "uint256",
          "name": "amountOutMin",
          "type": "uint256"
        },
        {
          "internalType": "address[]",
          "name": "path",
          "type": "address[]"
        },
        {
          "internalType": "uint256",
          "name": "deadline",
          "type": "uint256"
        }
      ],
      "name": "swapAndRepayAtSupportingFee",
      "outputs": [],
      "stateMutability": "nonpayable",
      "type": "function"
    },
    {
      "inputs": [
        {
          "internalType": "address",
          "name": "vTokenAddress",
          "type": "address"
        },
        {
          "internalType": "uint256",
          "name": "amountIn",
          "type": "uint256"
        },
        {
          "internalType": "uint256",
          "name": "amountOutMin",
          "type": "uint256"
        },
        {
          "internalType": "address[]",
          "name": "path",
          "type": "address[]"
        },
        {
          "internalType": "uint256",
          "name": "deadline",
          "type": "uint256"
        }
      ],
      "name": "swapAndSupply",
      "outputs": [],
      "stateMutability": "nonpayable",
      "type": "function"
    },
    {
      "inputs": [
        {
          "internalType": "address",
          "name": "vTokenAddress",
          "type": "address"
        },
        {
          "internalType": "uint256",
          "name": "amountIn",
          "type": "uint256"
        },
        {
          "internalType": "uint256",
          "name": "amountOutMin",
          "type": "uint256"
        },
        {
          "internalType": "address[]",
          "name": "path",
          "type": "address[]"
        },
        {
          "internalType": "uint256",
          "name": "deadline",
          "type": "uint256"
        }
      ],
      "name": "swapAndSupplyAtSupportingFee",
      "outputs": [],
      "stateMutability": "nonpayable",
      "type": "function"
    },
    {
      "inputs": [
        {
          "internalType": "address",
          "name": "vTokenAddress",
          "type": "address"
        },
        {
          "internalType": "uint256",
          "name": "amountOutMin",
          "type": "uint256"
        },
        {
          "internalType": "address[]",
          "name": "path",
          "type": "address[]"
        },
        {
          "internalType": "uint256",
          "name": "deadline",
          "type": "uint256"
        }
      ],
      "name": "swapBnbAndRepay",
      "outputs": [],
      "stateMutability": "payable",
      "type": "function"
    },
    {
      "inputs": [
        {
          "internalType": "address",
          "name": "vTokenAddress",
          "type": "address"
        },
        {
          "internalType": "uint256",
          "name": "amountOutMin",
          "type": "uint256"
        },
        {
          "internalType": "address[]",
          "name": "path",
          "type": "address[]"
        },
        {
          "internalType": "uint256",
          "name": "deadline",
          "type": "uint256"
        }
      ],
      "name": "swapBnbAndRepayAtSupportingFee",
      "outputs": [],
      "stateMutability": "payable",
      "type": "function"
    },
    {
      "inputs": [
        {
          "internalType": "address",
          "name": "vTokenAddress",
          "type": "address"
        },
        {
          "internalType": "uint256",
          "name": "amountOutMin",
          "type": "uint256"
        },
        {
          "internalType": "address[]",
          "name": "path",
          "type": "address[]"
        },
        {
          "internalType": "uint256",
          "name": "deadline",
          "type": "uint256"
        }
      ],
      "name": "swapBnbAndSupply",
      "outputs": [],
      "stateMutability": "payable",
      "type": "function"
    },
    {
      "inputs": [
        {
          "internalType": "address",
          "name": "vTokenAddress",
          "type": "address"
        },
        {
          "internalType": "uint256",
          "name": "amountOutMin",
          "type": "uint256"
        },
        {
          "internalType": "address[]",
          "name": "path",
          "type": "address[]"
        },
        {
          "internalType": "uint256",
          "name": "deadline",
          "type": "uint256"
        }
      ],
      "name": "swapBnbAndSupplyAtSupportingFee",
      "outputs": [],
      "stateMutability": "payable",
      "type": "function"
    },
    {
      "inputs": [
        {
          "internalType": "uint256",
          "name": "amountOut",
          "type": "uint256"
        },
        {
          "internalType": "address[]",
          "name": "path",
          "type": "address[]"
        },
        {
          "internalType": "address",
          "name": "to",
          "type": "address"
        },
        {
          "internalType": "uint256",
          "name": "deadline",
          "type": "uint256"
        }
      ],
      "name": "swapETHForExactTokens",
      "outputs": [
        {
          "internalType": "uint256[]",
          "name": "amounts",
          "type": "uint256[]"
        }
      ],
      "stateMutability": "payable",
      "type": "function"
    },
    {
      "inputs": [
        {
          "internalType": "address",
          "name": "vTokenAddress",
          "type": "address"
        },
        {
          "internalType": "uint256",
          "name": "amountOut",
          "type": "uint256"
        },
        {
          "internalType": "address[]",
          "name": "path",
          "type": "address[]"
        },
        {
          "internalType": "uint256",
          "name": "deadline",
          "type": "uint256"
        }
      ],
      "name": "swapETHForExactTokensAndRepay",
      "outputs": [],
      "stateMutability": "payable",
      "type": "function"
    },
    {
      "inputs": [
        {
          "internalType": "address",
          "name": "vTokenAddress",
          "type": "address"
        },
        {
          "internalType": "uint256",
          "name": "amountOut",
          "type": "uint256"
        },
        {
          "internalType": "address[]",
          "name": "path",
          "type": "address[]"
        },
        {
          "internalType": "uint256",
          "name": "deadline",
          "type": "uint256"
        }
      ],
      "name": "swapETHForExactTokensAndSupply",
      "outputs": [],
      "stateMutability": "payable",
      "type": "function"
    },
    {
      "inputs": [
        {
          "internalType": "uint256",
          "name": "amountOutMin",
          "type": "uint256"
        },
        {
          "internalType": "address[]",
          "name": "path",
          "type": "address[]"
        },
        {
          "internalType": "address",
          "name": "to",
          "type": "address"
        },
        {
          "internalType": "uint256",
          "name": "deadline",
          "type": "uint256"
        }
      ],
      "name": "swapExactETHForTokens",
      "outputs": [
        {
          "internalType": "uint256[]",
          "name": "amounts",
          "type": "uint256[]"
        }
      ],
      "stateMutability": "payable",
      "type": "function"
    },
    {
      "inputs": [
        {
          "internalType": "uint256",
          "name": "amountOutMin",
          "type": "uint256"
        },
        {
          "internalType": "address[]",
          "name": "path",
          "type": "address[]"
        },
        {
          "internalType": "address",
          "name": "to",
          "type": "address"
        },
        {
          "internalType": "uint256",
          "name": "deadline",
          "type": "uint256"
        }
      ],
      "name": "swapExactETHForTokensAtSupportingFee",
      "outputs": [
        {
          "internalType": "uint256[]",
          "name": "amounts",
          "type": "uint256[]"
        }
      ],
      "stateMutability": "payable",
      "type": "function"
    },
    {
      "inputs": [
        {
          "internalType": "uint256",
          "name": "amountIn",
          "type": "uint256"
        },
        {
          "internalType": "uint256",
          "name": "amountOutMin",
          "type": "uint256"
        },
        {
          "internalType": "address[]",
          "name": "path",
          "type": "address[]"
        },
        {
          "internalType": "address",
          "name": "to",
          "type": "address"
        },
        {
          "internalType": "uint256",
          "name": "deadline",
          "type": "uint256"
        }
      ],
      "name": "swapExactTokensForETH",
      "outputs": [
        {
          "internalType": "uint256[]",
          "name": "amounts",
          "type": "uint256[]"
        }
      ],
      "stateMutability": "nonpayable",
      "type": "function"
    },
    {
      "inputs": [
        {
          "internalType": "address",
          "name": "vBNBAddress",
          "type": "address"
        },
        {
          "internalType": "uint256",
          "name": "amountIn",
          "type": "uint256"
        },
        {
          "internalType": "uint256",
          "name": "amountOutMin",
          "type": "uint256"
        },
        {
          "internalType": "address[]",
          "name": "path",
          "type": "address[]"
        },
        {
          "internalType": "uint256",
          "name": "deadline",
          "type": "uint256"
        }
      ],
      "name": "swapExactTokensForETHAndRepay",
      "outputs": [],
      "stateMutability": "payable",
      "type": "function"
    },
    {
      "inputs": [
        {
          "internalType": "address",
          "name": "vBNBAddress",
          "type": "address"
        },
        {
          "internalType": "uint256",
          "name": "amountIn",
          "type": "uint256"
        },
        {
          "internalType": "uint256",
          "name": "amountOutMin",
          "type": "uint256"
        },
        {
          "internalType": "address[]",
          "name": "path",
          "type": "address[]"
        },
        {
          "internalType": "uint256",
          "name": "deadline",
          "type": "uint256"
        }
      ],
      "name": "swapExactTokensForETHAndRepayAtSupportingFee",
      "outputs": [],
      "stateMutability": "payable",
      "type": "function"
    },
    {
      "inputs": [
        {
          "internalType": "uint256",
          "name": "amountIn",
          "type": "uint256"
        },
        {
          "internalType": "uint256",
          "name": "amountOutMin",
          "type": "uint256"
        },
        {
          "internalType": "address[]",
          "name": "path",
          "type": "address[]"
        },
        {
          "internalType": "address",
          "name": "to",
          "type": "address"
        },
        {
          "internalType": "uint256",
          "name": "deadline",
          "type": "uint256"
        }
      ],
      "name": "swapExactTokensForETHAtSupportingFee",
      "outputs": [
        {
          "internalType": "uint256[]",
          "name": "amounts",
          "type": "uint256[]"
        }
      ],
      "stateMutability": "nonpayable",
      "type": "function"
    },
    {
      "inputs": [
        {
          "internalType": "uint256",
          "name": "amountIn",
          "type": "uint256"
        },
        {
          "internalType": "uint256",
          "name": "amountOutMin",
          "type": "uint256"
        },
        {
          "internalType": "address[]",
          "name": "path",
          "type": "address[]"
        },
        {
          "internalType": "address",
          "name": "to",
          "type": "address"
        },
        {
          "internalType": "uint256",
          "name": "deadline",
          "type": "uint256"
        }
      ],
      "name": "swapExactTokensForTokens",
      "outputs": [
        {
          "internalType": "uint256[]",
          "name": "amounts",
          "type": "uint256[]"
        }
      ],
      "stateMutability": "nonpayable",
      "type": "function"
    },
    {
      "inputs": [
        {
          "internalType": "uint256",
          "name": "amountIn",
          "type": "uint256"
        },
        {
          "internalType": "uint256",
          "name": "amountOutMin",
          "type": "uint256"
        },
        {
          "internalType": "address[]",
          "name": "path",
          "type": "address[]"
        },
        {
          "internalType": "address",
          "name": "to",
          "type": "address"
        },
        {
          "internalType": "uint256",
          "name": "deadline",
          "type": "uint256"
        }
      ],
      "name": "swapExactTokensForTokensAtSupportingFee",
      "outputs": [
        {
          "internalType": "uint256[]",
          "name": "amounts",
          "type": "uint256[]"
        }
      ],
      "stateMutability": "nonpayable",
      "type": "function"
    },
    {
      "inputs": [
        {
          "internalType": "uint256",
          "name": "amountOut",
          "type": "uint256"
        },
        {
          "internalType": "uint256",
          "name": "amountInMax",
          "type": "uint256"
        },
        {
          "internalType": "address[]",
          "name": "path",
          "type": "address[]"
        },
        {
          "internalType": "address",
          "name": "to",
          "type": "address"
        },
        {
          "internalType": "uint256",
          "name": "deadline",
          "type": "uint256"
        }
      ],
      "name": "swapTokensForExactETH",
      "outputs": [
        {
          "internalType": "uint256[]",
          "name": "amounts",
          "type": "uint256[]"
        }
      ],
      "stateMutability": "nonpayable",
      "type": "function"
    },
    {
      "inputs": [
        {
          "internalType": "address",
          "name": "vBNBAddress",
          "type": "address"
        },
        {
          "internalType": "uint256",
          "name": "amountOut",
          "type": "uint256"
        },
        {
          "internalType": "uint256",
          "name": "amountInMax",
          "type": "uint256"
        },
        {
          "internalType": "address[]",
          "name": "path",
          "type": "address[]"
        },
        {
          "internalType": "uint256",
          "name": "deadline",
          "type": "uint256"
        }
      ],
      "name": "swapTokensForExactETHAndRepay",
      "outputs": [],
      "stateMutability": "payable",
      "type": "function"
    },
    {
      "inputs": [
        {
          "internalType": "uint256",
          "name": "amountOut",
          "type": "uint256"
        },
        {
          "internalType": "uint256",
          "name": "amountInMax",
          "type": "uint256"
        },
        {
          "internalType": "address[]",
          "name": "path",
          "type": "address[]"
        },
        {
          "internalType": "address",
          "name": "to",
          "type": "address"
        },
        {
          "internalType": "uint256",
          "name": "deadline",
          "type": "uint256"
        }
      ],
      "name": "swapTokensForExactTokens",
      "outputs": [
        {
          "internalType": "uint256[]",
          "name": "amounts",
          "type": "uint256[]"
        }
      ],
      "stateMutability": "nonpayable",
      "type": "function"
    },
    {
      "inputs": [
        {
          "internalType": "address",
          "name": "vTokenAddress",
          "type": "address"
        },
        {
          "internalType": "uint256",
          "name": "amountOut",
          "type": "uint256"
        },
        {
          "internalType": "uint256",
          "name": "amountInMax",
          "type": "uint256"
        },
        {
          "internalType": "address[]",
          "name": "path",
          "type": "address[]"
        },
        {
          "internalType": "uint256",
          "name": "deadline",
          "type": "uint256"
        }
      ],
      "name": "swapTokensForExactTokensAndRepay",
      "outputs": [],
      "stateMutability": "nonpayable",
      "type": "function"
    },
    {
      "inputs": [
        {
          "internalType": "address",
          "name": "vTokenAddress",
          "type": "address"
        },
        {
          "internalType": "uint256",
          "name": "amountOut",
          "type": "uint256"
        },
        {
          "internalType": "uint256",
          "name": "amountInMax",
          "type": "uint256"
        },
        {
          "internalType": "address[]",
          "name": "path",
          "type": "address[]"
        },
        {
          "internalType": "uint256",
          "name": "deadline",
          "type": "uint256"
        }
      ],
      "name": "swapTokensForExactTokensAndSupply",
      "outputs": [],
      "stateMutability": "nonpayable",
      "type": "function"
    },
    {
      "inputs": [
        {
          "internalType": "address",
          "name": "vBNBAddress",
          "type": "address"
        },
        {
          "internalType": "uint256",
          "name": "amountInMax",
          "type": "uint256"
        },
        {
          "internalType": "address[]",
          "name": "path",
          "type": "address[]"
        },
        {
          "internalType": "uint256",
          "name": "deadline",
          "type": "uint256"
        }
      ],
      "name": "swapTokensForFullETHDebtAndRepay",
      "outputs": [],
      "stateMutability": "payable",
      "type": "function"
    },
    {
      "inputs": [
        {
          "internalType": "address",
          "name": "vTokenAddress",
          "type": "address"
        },
        {
          "internalType": "uint256",
          "name": "amountInMax",
          "type": "uint256"
        },
        {
          "internalType": "address[]",
          "name": "path",
          "type": "address[]"
        },
        {
          "internalType": "uint256",
          "name": "deadline",
          "type": "uint256"
        }
      ],
      "name": "swapTokensForFullTokenDebtAndRepay",
      "outputs": [],
      "stateMutability": "nonpayable",
      "type": "function"
    },
    {
      "inputs": [
        {
          "internalType": "contract IERC20Upgradeable",
          "name": "token",
          "type": "address"
        },
        {
          "internalType": "address",
          "name": "to",
          "type": "address"
        },
        {
          "internalType": "uint256",
          "name": "sweepAmount",
          "type": "uint256"
        }
      ],
      "name": "sweepToken",
      "outputs": [],
      "stateMutability": "nonpayable",
      "type": "function"
    },
    {
      "inputs": [
        {
          "internalType": "address",
          "name": "newOwner",
          "type": "address"
        }
      ],
      "name": "transferOwnership",
      "outputs": [],
      "stateMutability": "nonpayable",
      "type": "function"
    },
    {
      "stateMutability": "payable",
      "type": "receive"
    }
  ],
  "transactionHash": "0x56d0f5dbf909f78ce7395a0238c2fab218d868d63d6252cf352fb39b9e2e5d47",
  "args": [
    "0xae13d989daC2f0dEbFf460aC112a837C89BAa7cd",
    "0x182859893230dC89b114d6e2D547BFFE30474a21"
  ],
  "numDeployments": 1,
  "solcInputHash": "8cfa8c128b7ea8dded2884fdc3d60d37",
  "bytecode": "0x60c06040523480156200001157600080fd5b50604051620060d2380380620060d2833981016040819052620000349162000176565b81816001600160a01b03821615806200005457506001600160a01b038116155b15620000735760405163d92e233d60e01b815260040160405180910390fd5b6001600160a01b039182166080521660a0526200008f62000097565b5050620001ae565b600054610100900460ff1615620001045760405162461bcd60e51b815260206004820152602760248201527f496e697469616c697a61626c653a20636f6e747261637420697320696e697469604482015266616c697a696e6760c81b606482015260840160405180910390fd5b60005460ff908116101562000157576000805460ff191660ff9081179091556040519081527f7f26b83ff96e1f2b6a682f133852f6798a09c465da95921460cefb38474024989060200160405180910390a15b565b80516001600160a01b03811681146200017157600080fd5b919050565b600080604083850312156200018a57600080fd5b620001958362000159565b9150620001a56020840162000159565b90509250929050565b60805160a051615e336200029f60003960008181610659015281816111480152818161236601528181612c2501528181612d2c01528181613159015281816132780152818161352f0152818161369f015281816139ef01528181613a8e01528181613cc301528181613e5b015281816140b601528181614b3c01528181614b8c01528181614e3d0152614ff80152600081816102da015281816105df0152818161305e015281816130bf0152818161336f015281816134b901528181613c2c01528181613c8c01528181613d9b01528181613e29015281816140240152818161408501526141a90152615e336000f3fe6080604052600436106102ca5760003560e01c806385f8c25911610179578063cce44ff7116100d6578063e30c39781161008a578063f2fde38b11610064578063f2fde38b14610778578063fb3bdb4114610798578063fbf8cfa9146107ab57600080fd5b8063e30c397814610727578063ec18503314610745578063f2da07a11461076557600080fd5b8063d834e4da116100bb578063d834e4da146106e1578063daaefadc146106f4578063dc6908fe1461070757600080fd5b8063cce44ff7146106ae578063d06ca61f146106c157600080fd5b8063ba2d7a691161012d578063c45a015511610112578063c45a015514610647578063c4d66de81461067b578063ccd2c6d01461069b57600080fd5b8063ba2d7a6914610621578063c0bed4ab1461063457600080fd5b80638da5cb5b1161015e5780638da5cb5b146105af5780638dd95002146105cd578063ad615dec1461060157600080fd5b806385f8c2591461056f5780638803dbee1461058f57600080fd5b80634197420311610227578063715018a6116101db57806379ba5097116101c057806379ba5097146105275780637a968c271461053c5780637ff36ab51461055c57600080fd5b8063715018a6146104f2578063767b047a1461050757600080fd5b8063639219ac1161020c578063639219ac1461047a57806364aff9ec1461049a57806368bde41f146104ba57600080fd5b806341974203146104475780634a25d94a1461045a57600080fd5b80631e5843601161027e5780632256db7a116102635780632256db7a146103f45780632c0f1ef81461041457806338ed17391461042757600080fd5b80631e584360146103c15780631f00ca74146103d457600080fd5b806316a80600116102af57806316a806001461036157806318cbafe5146103815780631cac7c12146103ae57600080fd5b8063054d50d41461030e5780630a68f4fd1461034157600080fd5b3661030957336001600160a01b037f0000000000000000000000000000000000000000000000000000000000000000161461030757610307615633565b005b600080fd5b34801561031a57600080fd5b5061032e610329366004615662565b6107cb565b6040519081526020015b60405180910390f35b34801561034d57600080fd5b5061030761035c3660046156f8565b6107e0565b34801561036d57600080fd5b5061030761037c36600461576a565b610a6e565b34801561038d57600080fd5b506103a161039c3660046157ce565b610d72565b6040516103389190615841565b6103076103bc3660046156f8565b610dd3565b6103076103cf36600461576a565b610eb8565b3480156103e057600080fd5b506103a16103ef3660046158b4565b611141565b34801561040057600080fd5b5061030761040f3660046156f8565b611175565b61030761042236600461576a565b6113c7565b34801561043357600080fd5b506103a16104423660046157ce565b611558565b61030761045536600461576a565b6115ad565b34801561046657600080fd5b506103a16104753660046157ce565b611829565b34801561048657600080fd5b506103076104953660046156f8565b61187c565b3480156104a657600080fd5b506103076104b53660046159a3565b611a0e565b3480156104c657600080fd5b506097546104da906001600160a01b031681565b6040516001600160a01b039091168152602001610338565b3480156104fe57600080fd5b50610307611b3a565b34801561051357600080fd5b506103a16105223660046157ce565b611b4e565b34801561053357600080fd5b50610307611ba3565b34801561054857600080fd5b506103076105573660046156f8565b611c31565b6103a161056a3660046159e4565b611dc5565b34801561057b57600080fd5b5061032e61058a366004615662565b611e24565b34801561059b57600080fd5b506103a16105aa3660046157ce565b611e31565b3480156105bb57600080fd5b506033546001600160a01b03166104da565b3480156105d957600080fd5b506104da7f000000000000000000000000000000000000000000000000000000000000000081565b34801561060d57600080fd5b5061032e61061c366004615662565b611e84565b6103a161062f3660046159e4565b611e91565b6103076106423660046156f8565b611ee5565b34801561065357600080fd5b506104da7f000000000000000000000000000000000000000000000000000000000000000081565b34801561068757600080fd5b50610307610696366004615a4b565b611f37565b6103076106a936600461576a565b6120e3565b6103076106bc36600461576a565b612276565b3480156106cd57600080fd5b506103a16106dc3660046158b4565b61235f565b6103076106ef3660046156f8565b61238c565b61030761070236600461576a565b6123e0565b34801561071357600080fd5b506103076107223660046156f8565b612573565b34801561073357600080fd5b506065546001600160a01b03166104da565b34801561075157600080fd5b506103a16107603660046157ce565b612707565b61030761077336600461576a565b61275c565b34801561078457600080fd5b50610307610793366004615a4b565b6128ed565b6103a16107a63660046159e4565b612976565b3480156107b757600080fd5b506103076107c63660046156f8565b6129c8565b60006107d8848484612b5c565b949350505050565b8042811015610829576040517fff8ffd26000000000000000000000000000000000000000000000000000000008152600481018290524260248201526044015b60405180910390fd5b609754604051638e8f294b60e01b81526001600160a01b03808a1660048301528992600092911690638e8f294b90602401602060405180830381865afa158015610877573d6000803e3d6000fd5b505050506040513d601f19601f8201168201806040525081019061089b9190615a68565b90506001811515146108cb576040516349660aeb60e01b81526001600160a01b0383166004820152602401610820565b600086866108da600182615ab9565b8181106108e9576108e9615ad0565b90506020020160208101906108fe9190615a4b565b6040516370a0823160e01b81523060048201526001600160a01b0391909116906370a0823190602401602060405180830381865afa158015610944573d6000803e3d6000fd5b505050506040513d601f19601f820116820180604052508101906109689190615aff565b90506109778989898930612c1e565b5060008787610987600182615ab9565b81811061099657610996615ad0565b90506020020160208101906109ab9190615a4b565b6040516370a0823160e01b81523060048201526001600160a01b0391909116906370a0823190602401602060405180830381865afa1580156109f1573d6000803e3d6000fd5b505050506040513d601f19601f82011682018060405250810190610a159190615aff565b90506000610a238383615ab9565b9050610a608989610a35600182615ab9565b818110610a4457610a44615ad0565b9050602002016020810190610a599190615a4b565b8d83612e60565b505050505050505050505050565b8042811015610ab2576040517fff8ffd2600000000000000000000000000000000000000000000000000000000815260048101829052426024820152604401610820565b609754604051638e8f294b60e01b81526001600160a01b0380891660048301528892600092911690638e8f294b90602401602060405180830381865afa158015610b00573d6000803e3d6000fd5b505050506040513d601f19601f82011682018060405250810190610b249190615a68565b9050600181151514610b54576040516349660aeb60e01b81526001600160a01b0383166004820152602401610820565b60008686610b63600182615ab9565b818110610b7257610b72615ad0565b9050602002016020810190610b879190615a4b565b6040516370a0823160e01b81523060048201526001600160a01b0391909116906370a0823190602401602060405180830381865afa158015610bcd573d6000803e3d6000fd5b505050506040513d601f19601f82011682018060405250810190610bf19190615aff565b6040517f17bfdfbc0000000000000000000000000000000000000000000000000000000081523360048201529091506000906001600160a01b038b16906317bfdfbc906024016020604051808303816000875af1158015610c56573d6000803e3d6000fd5b505050506040513d601f19601f82011682018060405250810190610c7a9190615aff565b9050610c89818a8a8a30612c1e565b5060008888610c99600182615ab9565b818110610ca857610ca8615ad0565b9050602002016020810190610cbd9190615a4b565b6040516370a0823160e01b81523060048201526001600160a01b0391909116906370a0823190602401602060405180830381865afa158015610d03573d6000803e3d6000fd5b505050506040513d601f19601f82011682018060405250810190610d279190615aff565b90506000610d358483615ab9565b9050610a608a8a610d47600182615ab9565b818110610d5657610d56615ad0565b9050602002016020810190610d6b9190615a4b565b8d83612f5c565b60608142811015610db8576040517fff8ffd2600000000000000000000000000000000000000000000000000000000815260048101829052426024820152604401610820565b610dc788888888886000613052565b98975050505050505050565b8042811015610e17576040517fff8ffd2600000000000000000000000000000000000000000000000000000000815260048101829052426024820152604401610820565b47610e2787878787306001613052565b50476000610e358383615ab9565b6040517fe59746190000000000000000000000000000000000000000000000000000000081523360048201529091506001600160a01b038b169063e59746199083906024016000604051808303818588803b158015610e9357600080fd5b505af1158015610ea7573d6000803e3d6000fd5b505050505050505050505050505050565b8042811015610efc576040517fff8ffd2600000000000000000000000000000000000000000000000000000000815260048101829052426024820152604401610820565b609754604051638e8f294b60e01b81526001600160a01b0380891660048301528892600092911690638e8f294b90602401602060405180830381865afa158015610f4a573d6000803e3d6000fd5b505050506040513d601f19601f82011682018060405250810190610f6e9190615a68565b9050600181151514610f9e576040516349660aeb60e01b81526001600160a01b0383166004820152602401610820565b60008686610fad600182615ab9565b818110610fbc57610fbc615ad0565b9050602002016020810190610fd19190615a4b565b6040516370a0823160e01b81523060048201526001600160a01b0391909116906370a0823190602401602060405180830381865afa158015611017573d6000803e3d6000fd5b505050506040513d601f19601f8201168201806040525081019061103b9190615aff565b905061104b8888883060006134b5565b506000878761105b600182615ab9565b81811061106a5761106a615ad0565b905060200201602081019061107f9190615a4b565b6040516370a0823160e01b81523060048201526001600160a01b0391909116906370a0823190602401602060405180830381865afa1580156110c5573d6000803e3d6000fd5b505050506040513d601f19601f820116820180604052508101906110e99190615aff565b905060006110f78383615ab9565b90506111348989611109600182615ab9565b81811061111857611118615ad0565b905060200201602081019061112d9190615a4b565b8c83612f5c565b5050505050505050505050565b606061116e7f00000000000000000000000000000000000000000000000000000000000000008484613869565b9392505050565b80428110156111b9576040517fff8ffd2600000000000000000000000000000000000000000000000000000000815260048101829052426024820152604401610820565b609754604051638e8f294b60e01b81526001600160a01b03808a1660048301528992600092911690638e8f294b90602401602060405180830381865afa158015611207573d6000803e3d6000fd5b505050506040513d601f19601f8201168201806040525081019061122b9190615a68565b905060018115151461125b576040516349660aeb60e01b81526001600160a01b0383166004820152602401610820565b6000868661126a600182615ab9565b81811061127957611279615ad0565b905060200201602081019061128e9190615a4b565b6040516370a0823160e01b81523060048201526001600160a01b0391909116906370a0823190602401602060405180830381865afa1580156112d4573d6000803e3d6000fd5b505050506040513d601f19601f820116820180604052508101906112f89190615aff565b9050611309898989893060006139e8565b5060008787611319600182615ab9565b81811061132857611328615ad0565b905060200201602081019061133d9190615a4b565b6040516370a0823160e01b81523060048201526001600160a01b0391909116906370a0823190602401602060405180830381865afa158015611383573d6000803e3d6000fd5b505050506040513d601f19601f820116820180604052508101906113a79190615aff565b905060006113b58383615ab9565b9050610a608989610d47600182615ab9565b804281101561140b576040517fff8ffd2600000000000000000000000000000000000000000000000000000000815260048101829052426024820152604401610820565b609754604051638e8f294b60e01b81526001600160a01b0380891660048301528892600092911690638e8f294b90602401602060405180830381865afa158015611459573d6000803e3d6000fd5b505050506040513d601f19601f8201168201806040525081019061147d9190615a68565b90506001811515146114ad576040516349660aeb60e01b81526001600160a01b0383166004820152602401610820565b600086866114bc600182615ab9565b8181106114cb576114cb615ad0565b90506020020160208101906114e09190615a4b565b6040516370a0823160e01b81523060048201526001600160a01b0391909116906370a0823190602401602060405180830381865afa158015611526573d6000803e3d6000fd5b505050506040513d601f19601f8201168201806040525081019061154a9190615aff565b905061104b88888830613c28565b6060814281101561159e576040517fff8ffd2600000000000000000000000000000000000000000000000000000000815260048101829052426024820152604401610820565b610dc7888888888860006139e8565b80428110156115f1576040517fff8ffd2600000000000000000000000000000000000000000000000000000000815260048101829052426024820152604401610820565b609754604051638e8f294b60e01b81526001600160a01b0380891660048301528892600092911690638e8f294b90602401602060405180830381865afa15801561163f573d6000803e3d6000fd5b505050506040513d601f19601f820116820180604052508101906116639190615a68565b9050600181151514611693576040516349660aeb60e01b81526001600160a01b0383166004820152602401610820565b600086866116a2600182615ab9565b8181106116b1576116b1615ad0565b90506020020160208101906116c69190615a4b565b6040516370a0823160e01b81523060048201526001600160a01b0391909116906370a0823190602401602060405180830381865afa15801561170c573d6000803e3d6000fd5b505050506040513d601f19601f820116820180604052508101906117309190615aff565b90506117408888883060006134b5565b5060008787611750600182615ab9565b81811061175f5761175f615ad0565b90506020020160208101906117749190615a4b565b6040516370a0823160e01b81523060048201526001600160a01b0391909116906370a0823190602401602060405180830381865afa1580156117ba573d6000803e3d6000fd5b505050506040513d601f19601f820116820180604052508101906117de9190615aff565b905060006117ec8383615ab9565b905061113489896117fe600182615ab9565b81811061180d5761180d615ad0565b90506020020160208101906118229190615a4b565b8c83612e60565b6060814281101561186f576040517fff8ffd2600000000000000000000000000000000000000000000000000000000815260048101829052426024820152604401610820565b610dc78888888888614018565b80428110156118c0576040517fff8ffd2600000000000000000000000000000000000000000000000000000000815260048101829052426024820152604401610820565b609754604051638e8f294b60e01b81526001600160a01b03808a1660048301528992600092911690638e8f294b90602401602060405180830381865afa15801561190e573d6000803e3d6000fd5b505050506040513d601f19601f820116820180604052508101906119329190615a68565b9050600181151514611962576040516349660aeb60e01b81526001600160a01b0383166004820152602401610820565b60008686611971600182615ab9565b81811061198057611980615ad0565b90506020020160208101906119959190615a4b565b6040516370a0823160e01b81523060048201526001600160a01b0391909116906370a0823190602401602060405180830381865afa1580156119db573d6000803e3d6000fd5b505050506040513d601f19601f820116820180604052508101906119ff9190615aff565b90506113098989898930612c1e565b611a166142d1565b6040516370a0823160e01b81523060048201526000906001600160a01b038516906370a0823190602401602060405180830381865afa158015611a5d573d6000803e3d6000fd5b505050506040513d601f19601f82011682018060405250810190611a819190615aff565b905080821115611ad35760405162461bcd60e51b815260206004820181905260248201527f53776170526f757465723a3a696e73756666696369656e742062616c616e63656044820152606401610820565b611ae76001600160a01b038516848461432b565b826001600160a01b0316846001600160a01b03167f6d25be279134f4ecaa4770aff0c3d916d9e7c5ef37b65ed95dbdba411f5d54d584604051611b2c91815260200190565b60405180910390a350505050565b611b426142d1565b611b4c60006143b0565b565b60608142811015611b94576040517fff8ffd2600000000000000000000000000000000000000000000000000000000815260048101829052426024820152604401610820565b610dc7888888888860016139e8565b60655433906001600160a01b03168114611c255760405162461bcd60e51b815260206004820152602960248201527f4f776e61626c6532537465703a2063616c6c6572206973206e6f74207468652060448201527f6e6577206f776e657200000000000000000000000000000000000000000000006064820152608401610820565b611c2e816143b0565b50565b8042811015611c75576040517fff8ffd2600000000000000000000000000000000000000000000000000000000815260048101829052426024820152604401610820565b609754604051638e8f294b60e01b81526001600160a01b03808a1660048301528992600092911690638e8f294b90602401602060405180830381865afa158015611cc3573d6000803e3d6000fd5b505050506040513d601f19601f82011682018060405250810190611ce79190615a68565b9050600181151514611d17576040516349660aeb60e01b81526001600160a01b0383166004820152602401610820565b60008686611d26600182615ab9565b818110611d3557611d35615ad0565b9050602002016020810190611d4a9190615a4b565b6040516370a0823160e01b81523060048201526001600160a01b0391909116906370a0823190602401602060405180830381865afa158015611d90573d6000803e3d6000fd5b505050506040513d601f19601f82011682018060405250810190611db49190615aff565b9050610977898989893060016139e8565b60608142811015611e0b576040517fff8ffd2600000000000000000000000000000000000000000000000000000000815260048101829052426024820152604401610820565b611e198787878760006134b5565b979650505050505050565b60006107d88484846143e1565b60608142811015611e77576040517fff8ffd2600000000000000000000000000000000000000000000000000000000815260048101829052426024820152604401610820565b610dc78888888888612c1e565b60006107d88484846144b3565b60608142811015611ed7576040517fff8ffd2600000000000000000000000000000000000000000000000000000000815260048101829052426024820152604401610820565b611e198787878760016134b5565b8042811015611f29576040517fff8ffd2600000000000000000000000000000000000000000000000000000000815260048101829052426024820152604401610820565b47610e278787878730614018565b600054610100900460ff1615808015611f575750600054600160ff909116105b80611f715750303b158015611f71575060005460ff166001145b611fe35760405162461bcd60e51b815260206004820152602e60248201527f496e697469616c697a61626c653a20636f6e747261637420697320616c72656160448201527f647920696e697469616c697a65640000000000000000000000000000000000006064820152608401610820565b600080547fffffffffffffffffffffffffffffffffffffffffffffffffffffffffffffff00166001179055801561204157600080547fffffffffffffffffffffffffffffffffffffffffffffffffffffffffffff00ff166101001790555b6120496145c9565b609780547fffffffffffffffffffffffff0000000000000000000000000000000000000000166001600160a01b03841617905580156120df57600080547fffffffffffffffffffffffffffffffffffffffffffffffffffffffffffff00ff169055604051600181527f7f26b83ff96e1f2b6a682f133852f6798a09c465da95921460cefb38474024989060200160405180910390a15b5050565b8042811015612127576040517fff8ffd2600000000000000000000000000000000000000000000000000000000815260048101829052426024820152604401610820565b609754604051638e8f294b60e01b81526001600160a01b0380891660048301528892600092911690638e8f294b90602401602060405180830381865afa158015612175573d6000803e3d6000fd5b505050506040513d601f19601f820116820180604052508101906121999190615a68565b90506001811515146121c9576040516349660aeb60e01b81526001600160a01b0383166004820152602401610820565b600086866121d8600182615ab9565b8181106121e7576121e7615ad0565b90506020020160208101906121fc9190615a4b565b6040516370a0823160e01b81523060048201526001600160a01b0391909116906370a0823190602401602060405180830381865afa158015612242573d6000803e3d6000fd5b505050506040513d601f19601f820116820180604052508101906122669190615aff565b905061104b8888883060016134b5565b80428110156122ba576040517fff8ffd2600000000000000000000000000000000000000000000000000000000815260048101829052426024820152604401610820565b6040517f17bfdfbc00000000000000000000000000000000000000000000000000000000815233600482015247906000906001600160a01b038916906317bfdfbc906024016020604051808303816000875af115801561231e573d6000803e3d6000fd5b505050506040513d601f19601f820116820180604052508101906123429190615aff565b90506123518188888830614018565b50476000610e358483615ab9565b606061116e7f0000000000000000000000000000000000000000000000000000000000000000848461464e565b80428110156123d0576040517fff8ffd2600000000000000000000000000000000000000000000000000000000815260048101829052426024820152604401610820565b47610e2787878787306000613052565b8042811015612424576040517fff8ffd2600000000000000000000000000000000000000000000000000000000815260048101829052426024820152604401610820565b609754604051638e8f294b60e01b81526001600160a01b0380891660048301528892600092911690638e8f294b90602401602060405180830381865afa158015612472573d6000803e3d6000fd5b505050506040513d601f19601f820116820180604052508101906124969190615a68565b90506001811515146124c6576040516349660aeb60e01b81526001600160a01b0383166004820152602401610820565b600086866124d5600182615ab9565b8181106124e4576124e4615ad0565b90506020020160208101906124f99190615a4b565b6040516370a0823160e01b81523060048201526001600160a01b0391909116906370a0823190602401602060405180830381865afa15801561253f573d6000803e3d6000fd5b505050506040513d601f19601f820116820180604052508101906125639190615aff565b90506117408888883060016134b5565b80428110156125b7576040517fff8ffd2600000000000000000000000000000000000000000000000000000000815260048101829052426024820152604401610820565b609754604051638e8f294b60e01b81526001600160a01b03808a1660048301528992600092911690638e8f294b90602401602060405180830381865afa158015612605573d6000803e3d6000fd5b505050506040513d601f19601f820116820180604052508101906126299190615a68565b9050600181151514612659576040516349660aeb60e01b81526001600160a01b0383166004820152602401610820565b60008686612668600182615ab9565b81811061267757612677615ad0565b905060200201602081019061268c9190615a4b565b6040516370a0823160e01b81523060048201526001600160a01b0391909116906370a0823190602401602060405180830381865afa1580156126d2573d6000803e3d6000fd5b505050506040513d601f19601f820116820180604052508101906126f69190615aff565b9050610977898989893060006139e8565b6060814281101561274d576040517fff8ffd2600000000000000000000000000000000000000000000000000000000815260048101829052426024820152604401610820565b610dc788888888886001613052565b80428110156127a0576040517fff8ffd2600000000000000000000000000000000000000000000000000000000815260048101829052426024820152604401610820565b609754604051638e8f294b60e01b81526001600160a01b0380891660048301528892600092911690638e8f294b90602401602060405180830381865afa1580156127ee573d6000803e3d6000fd5b505050506040513d601f19601f820116820180604052508101906128129190615a68565b9050600181151514612842576040516349660aeb60e01b81526001600160a01b0383166004820152602401610820565b60008686612851600182615ab9565b81811061286057612860615ad0565b90506020020160208101906128759190615a4b565b6040516370a0823160e01b81523060048201526001600160a01b0391909116906370a0823190602401602060405180830381865afa1580156128bb573d6000803e3d6000fd5b505050506040513d601f19601f820116820180604052508101906128df9190615aff565b905061174088888830613c28565b6128f56142d1565b606580546001600160a01b0383167fffffffffffffffffffffffff0000000000000000000000000000000000000000909116811790915561293e6033546001600160a01b031690565b6001600160a01b03167f38d16b8cac22d99fc7c124b9cd0de2d3fa1faef420bfe791d8c362d765e2270060405160405180910390a350565b606081428110156129bc576040517fff8ffd2600000000000000000000000000000000000000000000000000000000815260048101829052426024820152604401610820565b611e1987878787613c28565b8042811015612a0c576040517fff8ffd2600000000000000000000000000000000000000000000000000000000815260048101829052426024820152604401610820565b609754604051638e8f294b60e01b81526001600160a01b03808a1660048301528992600092911690638e8f294b90602401602060405180830381865afa158015612a5a573d6000803e3d6000fd5b505050506040513d601f19601f82011682018060405250810190612a7e9190615a68565b9050600181151514612aae576040516349660aeb60e01b81526001600160a01b0383166004820152602401610820565b60008686612abd600182615ab9565b818110612acc57612acc615ad0565b9050602002016020810190612ae19190615a4b565b6040516370a0823160e01b81523060048201526001600160a01b0391909116906370a0823190602401602060405180830381865afa158015612b27573d6000803e3d6000fd5b505050506040513d601f19601f82011682018060405250810190612b4b9190615aff565b9050611309898989893060016139e8565b600083600003612b98576040517f098fb56100000000000000000000000000000000000000000000000000000000815260040160405180910390fd5b82158015612ba4575081155b15612bdb576040517fbb55fd2700000000000000000000000000000000000000000000000000000000815260040160405180910390fd5b6000612be9856103e6615b18565b90506000612bf78483615b18565b9050600082612c08876103e8615b18565b612c129190615b55565b9050611e198183615b6d565b6060612c7e7f00000000000000000000000000000000000000000000000000000000000000008786868080602002602001604051908101604052809392919081815260200183836020028082843760009201919091525061386992505050565b90508481600081518110612c9457612c94615ad0565b60200260200101511115612cfb5780600081518110612cb557612cb5615ad0565b6020026020010151856040517f073dfe81000000000000000000000000000000000000000000000000000000008152600401610820929190918252602082015260400190565b612dc084846000818110612d1157612d11615ad0565b9050602002016020810190612d269190615a4b565b33612da07f000000000000000000000000000000000000000000000000000000000000000088886000818110612d5e57612d5e615ad0565b9050602002016020810190612d739190615a4b565b89896001818110612d8657612d86615ad0565b9050602002016020810190612d9b9190615a4b565b6147ad565b84600081518110612db357612db3615ad0565b60200260200101516148e1565b612dff81858580806020026020016040519081016040528093929190818152602001838360200280828437600092019190915250879250614a59915050565b80604051612e0d9190615ba8565b60405180910390208484604051612e25929190615bde565b6040519081900381209033907fe3466e1395ff69c1cf0afa58afcf34fe012461c9c1c51b9fbcffd27abc2c9f0d90600090a495945050505050565b612e6c83836000614c59565b612e77838383614c59565b6040517f23323e03000000000000000000000000000000000000000000000000000000008152336004820152602481018290526000906001600160a01b038416906323323e03906044016020604051808303816000875af1158015612ee0573d6000803e3d6000fd5b505050506040513d601f19601f82011682018060405250810190612f049190615aff565b90508015612f56576040517f1301fe320000000000000000000000000000000000000000000000000000000081523360048201526001600160a01b038416602482015260448101829052606401610820565b50505050565b612f6883836000614c59565b612f73838383614c59565b6040517f2608f818000000000000000000000000000000000000000000000000000000008152336004820152602481018290526000906001600160a01b03841690632608f818906044016020604051808303816000875af1158015612fdc573d6000803e3d6000fd5b505050506040513d601f19601f820116820180604052508101906130009190615aff565b90508015612f56576040517fbf1ec74d0000000000000000000000000000000000000000000000000000000081523360048201526001600160a01b038416602482015260448101829052606401610820565b60606001600160a01b037f000000000000000000000000000000000000000000000000000000000000000016858561308b600182615ab9565b81811061309a5761309a615ad0565b90506020020160208101906130af9190615a4b565b6001600160a01b031614613154577f000000000000000000000000000000000000000000000000000000000000000085856130eb600182615ab9565b8181106130fa576130fa615ad0565b905060200201602081019061310f9190615a4b565b6040517fd93578600000000000000000000000000000000000000000000000000000000081526001600160a01b03928316600482015291166024820152604401610820565b6131b27f00000000000000000000000000000000000000000000000000000000000000008887878080602002602001604051908101604052809392919081815260200183836020028082843760009201919091525061464e92505050565b90508581600183516131c49190615ab9565b815181106131d4576131d4615ad0565b602002602001015110156132475780600182516131f19190615ab9565b8151811061320157613201615ad0565b6020026020010151866040517f13ff959c000000000000000000000000000000000000000000000000000000008152600401610820929190918252602082015260400190565b6132d28585600081811061325d5761325d615ad0565b90506020020160208101906132729190615a4b565b33612da07f0000000000000000000000000000000000000000000000000000000000000000898960008181106132aa576132aa615ad0565b90506020020160208101906132bf9190615a4b565b8a8a6001818110612d8657612d86615ad0565b60008260018111156132e6576132e6615c20565b0361332f5761332a81868680806020026020016040519081016040528093929190818152602001838360200280828437600092019190915250309250614a59915050565b61336d565b61336d858580806020026020016040519081016040528093929190818152602001838360200280828437600092019190915250309250614dc8915050565b7f00000000000000000000000000000000000000000000000000000000000000006001600160a01b0316632e1a7d4d82600184516133ab9190615ab9565b815181106133bb576133bb615ad0565b60200260200101516040518263ffffffff1660e01b81526004016133e191815260200190565b600060405180830381600087803b1580156133fb57600080fd5b505af115801561340f573d6000803e3d6000fd5b505050506001600160a01b0383163014613453576134538382600184516134369190615ab9565b8151811061344657613446615ad0565b60200260200101516150cd565b806040516134619190615ba8565b60405180910390208585604051613479929190615bde565b6040519081900381209033907f45ab08259ee5e98858bfa51e8a42d8f236ab50b3ee90baba6b07e955f2a5be0d90600090a49695505050505050565b60607f00000000000000000000000000000000000000000000000000000000000000006001600160a01b03811686866000816134f3576134f3615ad0565b90506020020160208101906135089190615a4b565b6001600160a01b03161461352a5780868660008181106130fa576130fa615ad0565b6135887f00000000000000000000000000000000000000000000000000000000000000003488888080602002602001604051908101604052809392919081815260200183836020028082843760009201919091525061464e92505050565b915086826001845161359a9190615ab9565b815181106135aa576135aa615ad0565b6020026020010151101561361d5781600183516135c79190615ab9565b815181106135d7576135d7615ad0565b6020026020010151876040517f13ff959c000000000000000000000000000000000000000000000000000000008152600401610820929190918252602082015260400190565b806001600160a01b031663d0e30db08360008151811061363f5761363f615ad0565b60200260200101516040518263ffffffff1660e01b81526004016000604051808303818588803b15801561367257600080fd5b505af1158015613686573d6000803e3d6000fd5b5050505050806001600160a01b031663a9059cbb6136d17f0000000000000000000000000000000000000000000000000000000000000000898960008181106132aa576132aa615ad0565b846000815181106136e4576136e4615ad0565b60200260200101516040518363ffffffff1660e01b815260040161371d9291906001600160a01b03929092168252602082015260400190565b6020604051808303816000875af115801561373c573d6000803e3d6000fd5b505050506040513d601f19601f820116820180604052508101906137609190615a68565b61376c5761376c615633565b600083600181111561378057613780615c20565b036137c9576137c482878780806020026020016040519081016040528093929190818152602001838360200280828437600092019190915250899250614a59915050565b613807565b613807868680806020026020016040519081016040528093929190818152602001838360200280828437600092019190915250889250614dc8915050565b816040516138159190615ba8565b6040518091039020868660405161382d929190615bde565b6040519081900381209033907fd915ae718505164a3760797139ea5eb1916b38e2345ce693e42b4c66d03185f790600090a45095945050505050565b606060018251116138a6576040517f20db826700000000000000000000000000000000000000000000000000000000815260040160405180910390fd5b815167ffffffffffffffff8111156138c0576138c0615885565b6040519080825280602002602001820160405280156138e9578160200160208202803683370190505b5090508281600183516138fc9190615ab9565b8151811061390c5761390c615ad0565b6020026020010181815250506000600183516139289190615ab9565b90505b80156139e05760008061397b8786613944600187615ab9565b8151811061395457613954615ad0565b602002602001015187868151811061396e5761396e615ad0565b60200260200101516151b0565b915091506139a384848151811061399457613994615ad0565b602002602001015183836143e1565b846139af600186615ab9565b815181106139bf576139bf615ad0565b602002602001018181525050505080806139d890615c4f565b91505061392b565b509392505050565b6060613a487f00000000000000000000000000000000000000000000000000000000000000008887878080602002602001604051908101604052809392919081815260200183836020028082843760009201919091525061464e92505050565b9050858160018351613a5a9190615ab9565b81518110613a6a57613a6a615ad0565b60200260200101511015613a875780600182516131f19190615ab9565b6000613ae87f000000000000000000000000000000000000000000000000000000000000000087876000818110613ac057613ac0615ad0565b9050602002016020810190613ad59190615a4b565b88886001818110612d8657612d86615ad0565b9050613b2a86866000818110613b0057613b00615ad0565b9050602002016020810190613b159190615a4b565b338385600081518110612db357612db3615ad0565b6000836001811115613b3e57613b3e615c20565b03613b8757613b8282878780806020026020016040519081016040528093929190818152602001838360200280828437600092019190915250899250614a59915050565b613bc5565b613bc5868680806020026020016040519081016040528093929190818152602001838360200280828437600092019190915250889250614dc8915050565b81604051613bd39190615ba8565b60405180910390208686604051613beb929190615bde565b6040519081900381209033907fe3466e1395ff69c1cf0afa58afcf34fe012461c9c1c51b9fbcffd27abc2c9f0d90600090a4509695505050505050565b60607f00000000000000000000000000000000000000000000000000000000000000006001600160a01b031684846000818110613c6757613c67615ad0565b9050602002016020810190613c7c9190615a4b565b6001600160a01b031614613cbe577f0000000000000000000000000000000000000000000000000000000000000000848460008181106130fa576130fa615ad0565b613d1c7f00000000000000000000000000000000000000000000000000000000000000008686868080602002602001604051908101604052809392919081815260200183836020028082843760009201919091525061386992505050565b90503481600081518110613d3257613d32615ad0565b60200260200101511115613d995780600081518110613d5357613d53615ad0565b6020026020010151346040517f4c67496b000000000000000000000000000000000000000000000000000000008152600401610820929190918252602082015260400190565b7f00000000000000000000000000000000000000000000000000000000000000006001600160a01b031663d0e30db082600081518110613ddb57613ddb615ad0565b60200260200101516040518263ffffffff1660e01b81526004016000604051808303818588803b158015613e0e57600080fd5b505af1158015613e22573d6000803e3d6000fd5b50505050507f00000000000000000000000000000000000000000000000000000000000000006001600160a01b031663a9059cbb613e8d7f000000000000000000000000000000000000000000000000000000000000000087876000818110613ac057613ac0615ad0565b83600081518110613ea057613ea0615ad0565b60200260200101516040518363ffffffff1660e01b8152600401613ed99291906001600160a01b03929092168252602082015260400190565b6020604051808303816000875af1158015613ef8573d6000803e3d6000fd5b505050506040513d601f19601f82011682018060405250810190613f1c9190615a68565b613f2857613f28615633565b613f6781858580806020026020016040519081016040528093929190818152602001838360200280828437600092019190915250879250614a59915050565b80600081518110613f7a57613f7a615ad0565b6020026020010151341115613fb857613fb83382600081518110613fa057613fa0615ad0565b602002602001015134613fb39190615ab9565b6150cd565b80604051613fc69190615ba8565b60405180910390208484604051613fde929190615bde565b6040519081900381209033907fd915ae718505164a3760797139ea5eb1916b38e2345ce693e42b4c66d03185f790600090a4949350505050565b60606001600160a01b037f0000000000000000000000000000000000000000000000000000000000000000168484614051600182615ab9565b81811061406057614060615ad0565b90506020020160208101906140759190615a4b565b6001600160a01b0316146140b1577f000000000000000000000000000000000000000000000000000000000000000084846130eb600182615ab9565b61410f7f00000000000000000000000000000000000000000000000000000000000000008786868080602002602001604051908101604052809392919081815260200183836020028082843760009201919091525061386992505050565b9050848160008151811061412557614125615ad0565b602002602001015111156141525780600182516141429190615ab9565b81518110612cb557612cb5615ad0565b61416884846000818110612d1157612d11615ad0565b6141a781858580806020026020016040519081016040528093929190818152602001838360200280828437600092019190915250309250614a59915050565b7f00000000000000000000000000000000000000000000000000000000000000006001600160a01b0316632e1a7d4d82600184516141e59190615ab9565b815181106141f5576141f5615ad0565b60200260200101516040518263ffffffff1660e01b815260040161421b91815260200190565b600060405180830381600087803b15801561423557600080fd5b505af1158015614249573d6000803e3d6000fd5b505050506001600160a01b0382163014614270576142708282600184516134369190615ab9565b8060405161427e9190615ba8565b60405180910390208484604051614296929190615bde565b6040519081900381209033907f45ab08259ee5e98858bfa51e8a42d8f236ab50b3ee90baba6b07e955f2a5be0d90600090a495945050505050565b6033546001600160a01b03163314611b4c5760405162461bcd60e51b815260206004820181905260248201527f4f776e61626c653a2063616c6c6572206973206e6f7420746865206f776e65726044820152606401610820565b604080516001600160a01b038416602482015260448082018490528251808303909101815260649091019091526020810180517bffffffffffffffffffffffffffffffffffffffffffffffffffffffff167fa9059cbb000000000000000000000000000000000000000000000000000000001790526143ab90849061528e565b505050565b606580547fffffffffffffffffffffffff0000000000000000000000000000000000000000169055611c2e81615373565b60008360000361441d576040517f42301c2300000000000000000000000000000000000000000000000000000000815260040160405180910390fd5b82158015614429575081155b15614460576040517fbb55fd2700000000000000000000000000000000000000000000000000000000815260040160405180910390fd5b600061446c8585615b18565b614478906103e8615b18565b905060006144868685615ab9565b614492906103e6615b18565b905061449e8183615b6d565b6144a9906001615b55565b9695505050505050565b6000836000036144ef576040517f098fb56100000000000000000000000000000000000000000000000000000000815260040160405180910390fd5b821580156144fb575081155b15614532576040517fbb55fd2700000000000000000000000000000000000000000000000000000000815260040160405180910390fd5b6000831180156145425750600082115b6145b45760405162461bcd60e51b815260206004820152602660248201527f50616e63616b654c6962726172793a20494e53554646494349454e545f4c495160448201527f55494449545900000000000000000000000000000000000000000000000000006064820152608401610820565b826145bf8386615b18565b6107d89190615b6d565b600054610100900460ff166146465760405162461bcd60e51b815260206004820152602b60248201527f496e697469616c697a61626c653a20636f6e7472616374206973206e6f74206960448201527f6e697469616c697a696e670000000000000000000000000000000000000000006064820152608401610820565b611b4c6153dd565b6060600182511161468b576040517f20db826700000000000000000000000000000000000000000000000000000000815260040160405180910390fd5b815167ffffffffffffffff8111156146a5576146a5615885565b6040519080825280602002602001820160405280156146ce578160200160208202803683370190505b50905082816000815181106146e5576146e5615ad0565b60200260200101818152505060005b600183516147029190615ab9565b8110156139e0576000806147488786858151811061472257614722615ad0565b6020026020010151878660016147389190615b55565b8151811061396e5761396e615ad0565b9150915061477084848151811061476157614761615ad0565b60200260200101518383612b5c565b8461477c856001615b55565b8151811061478c5761478c615ad0565b602002602001018181525050505080806147a590615c84565b9150506146f4565b60008060006147bc8585615463565b6040517fffffffffffffffffffffffffffffffffffffffff000000000000000000000000606084811b8216602084015283901b16603482015291935091508690604801604051602081830303815290604052805190602001206040516020016148a19291907fff00000000000000000000000000000000000000000000000000000000000000815260609290921b7fffffffffffffffffffffffffffffffffffffffff00000000000000000000000016600183015260158201527efb7f630766e6a796048ea87d01acd3068e8ff67d078148a3fa3f4a84f69bd5603582015260550190565b604080517fffffffffffffffffffffffffffffffffffffffffffffffffffffffffffffffe081840301815291905280516020909101209695505050505050565b604080516001600160a01b0385811660248301528481166044830152606480830185905283518084039091018152608490920183526020820180517bffffffffffffffffffffffffffffffffffffffffffffffffffffffff167f23b872dd0000000000000000000000000000000000000000000000000000000017905291516000928392908816916149739190615ce8565b6000604051808303816000865af19150503d80600081146149b0576040519150601f19603f3d011682016040523d82523d6000602084013e6149b5565b606091505b50915091508180156149df5750805115806149df5750808060200190518101906149df9190615a68565b614a515760405162461bcd60e51b815260206004820152603160248201527f5472616e7366657248656c7065723a3a7472616e7366657246726f6d3a20747260448201527f616e7366657246726f6d206661696c65640000000000000000000000000000006064820152608401610820565b505050505050565b60005b60018351614a6a9190615ab9565b811015612f5657600080848381518110614a8657614a86615ad0565b602002602001015185846001614a9c9190615b55565b81518110614aac57614aac615ad0565b6020026020010151915091506000614ac48383615463565b509050600087614ad5866001615b55565b81518110614ae557614ae5615ad0565b60200260200101519050600080836001600160a01b0316866001600160a01b031614614b1357826000614b17565b6000835b91509150600060028a51614b2b9190615ab9565b8810614b375788614b85565b614b857f0000000000000000000000000000000000000000000000000000000000000000878c614b688c6002615b55565b81518110614b7857614b78615ad0565b60200260200101516147ad565b9050614bb27f000000000000000000000000000000000000000000000000000000000000000088886147ad565b6001600160a01b031663022c0d9f84848460006040519080825280601f01601f191660200182016040528015614bef576020820181803683370190505b506040518563ffffffff1660e01b8152600401614c0f9493929190615d4e565b600060405180830381600087803b158015614c2957600080fd5b505af1158015614c3d573d6000803e3d6000fd5b505050505050505050505080614c5290615c84565b9050614a5c565b604080516001600160a01b038481166024830152604480830185905283518084039091018152606490920183526020820180517bffffffffffffffffffffffffffffffffffffffffffffffffffffffff167f095ea7b3000000000000000000000000000000000000000000000000000000001790529151600092839290871691614ce39190615ce8565b6000604051808303816000865af19150503d8060008114614d20576040519150601f19603f3d011682016040523d82523d6000602084013e614d25565b606091505b5091509150818015614d4f575080511580614d4f575080806020019051810190614d4f9190615a68565b614dc15760405162461bcd60e51b815260206004820152602b60248201527f5472616e7366657248656c7065723a3a73616665417070726f76653a2061707060448201527f726f7665206661696c65640000000000000000000000000000000000000000006064820152608401610820565b5050505050565b60005b60018351614dd99190615ab9565b8110156143ab57600080848381518110614df557614df5615ad0565b602002602001015185846001614e0b9190615b55565b81518110614e1b57614e1b615ad0565b6020026020010151915091506000614e338383615463565b5090506000614e637f000000000000000000000000000000000000000000000000000000000000000085856147ad565b9050600080600080846001600160a01b0316630902f1ac6040518163ffffffff1660e01b8152600401606060405180830381865afa158015614ea9573d6000803e3d6000fd5b505050506040513d601f19601f82011682018060405250810190614ecd9190615d9a565b506dffffffffffffffffffffffffffff1691506dffffffffffffffffffffffffffff169150600080876001600160a01b03168a6001600160a01b031614614f15578284614f18565b83835b6040516370a0823160e01b81526001600160a01b038a811660048301529294509092506000918c16906370a0823190602401602060405180830381865afa158015614f67573d6000803e3d6000fd5b505050506040513d601f19601f82011682018060405250810190614f8b9190615aff565b9050614f978382615ab9565b9650614fa4878484612b5c565b95505050505050600080856001600160a01b0316886001600160a01b031614614fcf57826000614fd3565b6000835b91509150600060028c51614fe79190615ab9565b8a10614ff3578a615024565b6150247f0000000000000000000000000000000000000000000000000000000000000000898e614b688e6002615b55565b604080516000815260208101918290527f022c0d9f000000000000000000000000000000000000000000000000000000009091529091506001600160a01b0387169063022c0d9f9061507f9086908690869060248101615d4e565b600060405180830381600087803b15801561509957600080fd5b505af11580156150ad573d6000803e3d6000fd5b5050505050505050505050505080806150c590615c84565b915050614dcb565b604080516000808252602082019092526001600160a01b0384169083906040516150f79190615ce8565b60006040518083038185875af1925050503d8060008114615134576040519150601f19603f3d011682016040523d82523d6000602084013e615139565b606091505b50509050806143ab5760405162461bcd60e51b815260206004820152603460248201527f5472616e7366657248656c7065723a3a736166655472616e736665724554483a60448201527f20455448207472616e73666572206661696c65640000000000000000000000006064820152608401610820565b60008060006151bf8585615463565b50905060006151cf8787876147ad565b9050600080826001600160a01b0316630902f1ac6040518163ffffffff1660e01b8152600401606060405180830381865afa158015615212573d6000803e3d6000fd5b505050506040513d601f19601f820116820180604052508101906152369190615d9a565b506dffffffffffffffffffffffffffff1691506dffffffffffffffffffffffffffff169150836001600160a01b0316886001600160a01b03161461527b57808261527e565b81815b909a909950975050505050505050565b60006152e3826040518060400160405280602081526020017f5361666545524332303a206c6f772d6c6576656c2063616c6c206661696c6564815250856001600160a01b03166155209092919063ffffffff16565b8051909150156143ab57808060200190518101906153019190615a68565b6143ab5760405162461bcd60e51b815260206004820152602a60248201527f5361666545524332303a204552433230206f7065726174696f6e20646964206e60448201527f6f742073756363656564000000000000000000000000000000000000000000006064820152608401610820565b603380546001600160a01b038381167fffffffffffffffffffffffff0000000000000000000000000000000000000000831681179093556040519116919082907f8be0079c531659141344cd1fd0a4f28419497f9722a3daafe3b4186f6b6457e090600090a35050565b600054610100900460ff1661545a5760405162461bcd60e51b815260206004820152602b60248201527f496e697469616c697a61626c653a20636f6e7472616374206973206e6f74206960448201527f6e697469616c697a696e670000000000000000000000000000000000000000006064820152608401610820565b611b4c336143b0565b600080826001600160a01b0316846001600160a01b0316036154b1576040517fbd969eb000000000000000000000000000000000000000000000000000000000815260040160405180910390fd5b826001600160a01b0316846001600160a01b0316106154d15782846154d4565b83835b90925090506001600160a01b038216615519576040517fd92e233d00000000000000000000000000000000000000000000000000000000815260040160405180910390fd5b9250929050565b60606107d8848460008585600080866001600160a01b031685876040516155479190615ce8565b60006040518083038185875af1925050503d8060008114615584576040519150601f19603f3d011682016040523d82523d6000602084013e615589565b606091505b5091509150611e1987838387606083156156045782516000036155fd576001600160a01b0385163b6155fd5760405162461bcd60e51b815260206004820152601d60248201527f416464726573733a2063616c6c20746f206e6f6e2d636f6e74726163740000006044820152606401610820565b50816107d8565b6107d883838151156156195781518083602001fd5b8060405162461bcd60e51b81526004016108209190615dea565b7f4e487b7100000000000000000000000000000000000000000000000000000000600052600160045260246000fd5b60008060006060848603121561567757600080fd5b505081359360208301359350604090920135919050565b6001600160a01b0381168114611c2e57600080fd5b80356156ae8161568e565b919050565b60008083601f8401126156c557600080fd5b50813567ffffffffffffffff8111156156dd57600080fd5b6020830191508360208260051b850101111561551957600080fd5b60008060008060008060a0878903121561571157600080fd5b863561571c8161568e565b95506020870135945060408701359350606087013567ffffffffffffffff81111561574657600080fd5b61575289828a016156b3565b979a9699509497949695608090950135949350505050565b60008060008060006080868803121561578257600080fd5b853561578d8161568e565b945060208601359350604086013567ffffffffffffffff8111156157b057600080fd5b6157bc888289016156b3565b96999598509660600135949350505050565b60008060008060008060a087890312156157e757600080fd5b8635955060208701359450604087013567ffffffffffffffff81111561580c57600080fd5b61581889828a016156b3565b909550935050606087013561582c8161568e565b80925050608087013590509295509295509295565b6020808252825182820181905260009190848201906040850190845b818110156158795783518352928401929184019160010161585d565b50909695505050505050565b7f4e487b7100000000000000000000000000000000000000000000000000000000600052604160045260246000fd5b600080604083850312156158c757600080fd5b8235915060208084013567ffffffffffffffff808211156158e757600080fd5b818601915086601f8301126158fb57600080fd5b81358181111561590d5761590d615885565b8060051b6040517fffffffffffffffffffffffffffffffffffffffffffffffffffffffffffffffe0603f8301168101818110858211171561595057615950615885565b60405291825284820192508381018501918983111561596e57600080fd5b938501935b8285101561599357615984856156a3565b84529385019392850192615973565b8096505050505050509250929050565b6000806000606084860312156159b857600080fd5b83356159c38161568e565b925060208401356159d38161568e565b929592945050506040919091013590565b6000806000806000608086880312156159fc57600080fd5b85359450602086013567ffffffffffffffff811115615a1a57600080fd5b615a26888289016156b3565b9095509350506040860135615a3a8161568e565b949793965091946060013592915050565b600060208284031215615a5d57600080fd5b813561116e8161568e565b600060208284031215615a7a57600080fd5b8151801515811461116e57600080fd5b7f4e487b7100000000000000000000000000000000000000000000000000000000600052601160045260246000fd5b600082821015615acb57615acb615a8a565b500390565b7f4e487b7100000000000000000000000000000000000000000000000000000000600052603260045260246000fd5b600060208284031215615b1157600080fd5b5051919050565b6000817fffffffffffffffffffffffffffffffffffffffffffffffffffffffffffffffff0483118215151615615b5057615b50615a8a565b500290565b60008219821115615b6857615b68615a8a565b500190565b600082615ba3577f4e487b7100000000000000000000000000000000000000000000000000000000600052601260045260246000fd5b500490565b815160009082906020808601845b83811015615bd257815185529382019390820190600101615bb6565b50929695505050505050565b60008184825b85811015615c15578135615bf78161568e565b6001600160a01b031683526020928301929190910190600101615be4565b509095945050505050565b7f4e487b7100000000000000000000000000000000000000000000000000000000600052602160045260246000fd5b600081615c5e57615c5e615a8a565b507fffffffffffffffffffffffffffffffffffffffffffffffffffffffffffffffff0190565b60007fffffffffffffffffffffffffffffffffffffffffffffffffffffffffffffffff8203615cb557615cb5615a8a565b5060010190565b60005b83811015615cd7578181015183820152602001615cbf565b83811115612f565750506000910152565b60008251615cfa818460208701615cbc565b9190910192915050565b60008151808452615d1c816020860160208601615cbc565b601f017fffffffffffffffffffffffffffffffffffffffffffffffffffffffffffffffe0169290920160200192915050565b8481528360208201526001600160a01b03831660408201526080606082015260006144a96080830184615d04565b80516dffffffffffffffffffffffffffff811681146156ae57600080fd5b600080600060608486031215615daf57600080fd5b615db884615d7c565b9250615dc660208501615d7c565b9150604084015163ffffffff81168114615ddf57600080fd5b809150509250925092565b60208152600061116e6020830184615d0456fea264697066735822122034d59d318393affa0566250c08c57f254713100c0151113297b91b4825d37b2c64736f6c634300080d0033",
  "devdoc": {
    "author": "0xlucian",
    "details": "For all functions that do not swap native BNB, user must approve this contract with the amount, prior the calling the swap function.",
    "kind": "dev",
    "methods": {
      "acceptOwnership()": {
        "details": "The new owner accepts the ownership transfer."
      },
      "constructor": {
        "custom:oz-upgrades-unsafe-allow": "constructor"
      },
      "owner()": {
        "details": "Returns the address of the current owner."
      },
      "pendingOwner()": {
        "details": "Returns the address of the pending owner."
      },
      "renounceOwnership()": {
        "details": "Leaves the contract without owner. It will not be possible to call `onlyOwner` functions anymore. Can only be called by the current owner. NOTE: Renouncing ownership will leave the contract without an owner, thereby removing any functionality that is only available to the owner."
      },
      "swapAndRepay(address,uint256,uint256,address[],uint256)": {
        "details": "Addresses of underlying assets should be ordered that first asset is the token we are swapping and second asset is the token we receive (and repay)",
        "params": {
          "amountIn": "The amount of tokens to swap.",
          "amountOutMin": "Minimum amount of tokens to receive.",
          "path": "Array with addresses of the underlying assets to be swapped",
          "vTokenAddress": "The address of the vToken contract to repay."
        }
      },
      "swapAndRepayAtSupportingFee(address,uint256,uint256,address[],uint256)": {
        "details": "Addresses of underlying assets should be ordered that first asset is the token we are swapping and second asset is the token we receive (and repay)",
        "params": {
          "amountIn": "The amount of tokens to swap.",
          "amountOutMin": "Minimum amount of tokens to receive.",
          "path": "Array with addresses of the underlying assets to be swapped",
          "vTokenAddress": "The address of the vToken contract to repay."
        }
      },
      "swapAndSupply(address,uint256,uint256,address[],uint256)": {
        "details": "Addresses of underlying assets should be ordered that first asset is the token we are swapping and second asset is the token we receive",
        "params": {
          "amountIn": "The amount of tokens to swap.",
          "amountOutMin": "Minimum amount of tokens to receive.",
          "path": "Array with addresses of the underlying assets to be swapped",
          "vTokenAddress": "The address of the vToken contract for supplying assets."
        }
      },
      "swapAndSupplyAtSupportingFee(address,uint256,uint256,address[],uint256)": {
        "details": "Addresses of underlying assets should be ordered that first asset is the token we are swapping and second asset is the token we receive",
        "params": {
          "amountIn": "The amount of tokens to swap.",
          "amountOutMin": "Minimum amount of tokens to receive.",
          "path": "Array with addresses of the underlying assets to be swapped",
          "vTokenAddress": "The address of the vToken contract for supplying assets."
        }
      },
      "swapBnbAndRepay(address,uint256,address[],uint256)": {
        "details": "The amount to be swapped is obtained from the msg.value, since we are swapping BNBAddresses of underlying assets should be ordered so the swap path tokens are listed first and last asset is the token we receive",
        "params": {
          "amountOutMin": "Minimum amount of tokens to receive.",
          "path": "Array with addresses of the underlying assets to be swapped",
          "vTokenAddress": "The address of the vToken contract to repay."
        }
      },
      "swapBnbAndRepayAtSupportingFee(address,uint256,address[],uint256)": {
        "details": "The amount to be swapped is obtained from the msg.value, since we are swapping BNBAddresses of underlying assets should be ordered so the swap path tokens are listed first and last asset is the token we receive",
        "params": {
          "amountOutMin": "Minimum amount of tokens to receive.",
          "path": "Array with addresses of the underlying assets to be swapped",
          "vTokenAddress": "The address of the vToken contract to repay."
        }
      },
      "swapBnbAndSupply(address,uint256,address[],uint256)": {
        "details": "The amount to be swapped is obtained from the msg.value, since we are swapping BNBAddresses of underlying assets should be ordered that first asset is the token we are swapping and second asset is the token we receiveIn case of swapping native BNB the first asset in path array should be the wBNB address",
        "params": {
          "amountOutMin": "Minimum amount of tokens to receive.",
          "path": "Array with addresses of the underlying assets to be swapped",
          "vTokenAddress": "The address of the vToken contract for supplying assets."
        }
      },
      "swapBnbAndSupplyAtSupportingFee(address,uint256,address[],uint256)": {
        "details": "The amount to be swapped is obtained from the msg.value, since we are swapping BNBAddresses of underlying assets should be ordered that first asset is the token we are swapping and second asset is the token we receiveIn case of swapping native BNB the first asset in path array should be the wBNB address",
        "params": {
          "amountOutMin": "Minimum amount of tokens to receive.",
          "path": "Array with addresses of the underlying assets to be swapped",
          "vTokenAddress": "The address of the vToken contract for supplying assets."
        }
      },
      "swapETHForExactTokens(uint256,address[],address,uint256)": {
        "details": "msg.sender should have already given the router an allowance of at least amountIn on the input token.",
        "params": {
          "amountOut": "The amount of the tokens needs to be as output token.",
          "deadline": "Unix timestamp after which the transaction will revert.*",
          "path": "Array with addresses of the underlying assets to be swapped",
          "to": "Recipient of the output tokens."
        }
      },
      "swapETHForExactTokensAndRepay(address,uint256,address[],uint256)": {
        "details": "Addresses of underlying assets should be ordered that first asset is the token we are swapping and second asset is the token we receiveIn case of swapping native BNB the first asset in path array should be the wBNB address",
        "params": {
          "amountOut": "The amount of the tokens needs to be as output token.",
          "path": "Array with addresses of the underlying assets to be swapped",
          "vTokenAddress": "The address of the vToken contract for supplying assets."
        }
      },
      "swapETHForExactTokensAndSupply(address,uint256,address[],uint256)": {
        "details": "Addresses of underlying assets should be ordered that first asset is the token we are swapping and second asset is the token we receiveIn case of swapping native BNB the first asset in path array should be the wBNB address",
        "params": {
          "amountOut": "The amount of the tokens needs to be as output token.",
          "path": "Array with addresses of the underlying assets to be swapped",
          "vTokenAddress": "The address of the vToken contract for supplying assets."
        }
      },
      "swapExactETHForTokens(uint256,address[],address,uint256)": {
        "details": "amountIn is passed through the msg.value of the transaction",
        "params": {
          "amountOutMin": "The minimum amount of output tokens that must be received for the transaction not to revert.",
          "deadline": "Unix timestamp after which the transaction will revert.",
          "path": "Array with addresses of the underlying assets to be swapped",
          "to": "Recipient of the output tokens."
        }
      },
      "swapExactETHForTokensAtSupportingFee(uint256,address[],address,uint256)": {
        "details": "amountIn is passed through the msg.value of the transaction",
        "params": {
          "amountOutMin": "The minimum amount of output tokens that must be received for the transaction not to revert.",
          "deadline": "Unix timestamp after which the transaction will revert.",
          "path": "Array with addresses of the underlying assets to be swapped",
          "to": "Recipient of the output tokens."
        }
      },
      "swapExactTokensForETH(uint256,uint256,address[],address,uint256)": {
        "details": "msg.sender should have already given the router an allowance of at least amountIn on the input token.",
        "params": {
          "amountIn": "The address of the vToken contract to repay.",
          "amountOutMin": "The minimum amount of output tokens that must be received for the transaction not to revert.",
          "deadline": "Unix timestamp after which the transaction will revert.",
          "path": "Array with addresses of the underlying assets to be swapped",
          "to": "Recipient of the output tokens."
        }
      },
      "swapExactTokensForETHAndRepay(address,uint256,uint256,address[],uint256)": {
        "details": "Addresses of underlying assets should be ordered that first asset is the token we are swapping and second asset is the token we receiveIn case of swapping native BNB the first asset in path array should be the wBNB address",
        "params": {
          "amountIn": "The amount of tokens to swap.",
          "amountOutMin": "Minimum amount of tokens to receive.",
          "path": "Array with addresses of the underlying assets to be swapped",
          "vBNBAddress": "The address of the vToken contract for supplying assets."
        }
      },
      "swapExactTokensForETHAndRepayAtSupportingFee(address,uint256,uint256,address[],uint256)": {
        "details": "Addresses of underlying assets should be ordered that first asset is the token we are swapping and second asset is the token we receiveIn case of swapping native BNB the first asset in path array should be the wBNB address",
        "params": {
          "amountIn": "The amount of tokens to swap.",
          "amountOutMin": "Minimum amount of tokens to receive.",
          "path": "Array with addresses of the underlying assets to be swapped",
          "vBNBAddress": "The address of the vToken contract for supplying assets."
        }
      },
      "swapExactTokensForETHAtSupportingFee(uint256,uint256,address[],address,uint256)": {
        "details": "msg.sender should have already given the router an allowance of at least amountIn on the input token.",
        "params": {
          "amountIn": "The address of the vToken contract to repay.",
          "amountOutMin": "The minimum amount of output tokens that must be received for the transaction not to revert.",
          "deadline": "Unix timestamp after which the transaction will revert.",
          "path": "Array with addresses of the underlying assets to be swapped",
          "to": "Recipient of the output tokens."
        }
      },
      "swapExactTokensForTokens(uint256,uint256,address[],address,uint256)": {
        "details": "msg.sender should have already given the router an allowance of at least amountIn on the input token.",
        "params": {
          "amountIn": "The address of the vToken contract to repay.",
          "amountOutMin": "The minimum amount of output tokens that must be received for the transaction not to revert.",
          "deadline": "Unix timestamp after which the transaction will revert.",
          "path": "Array with addresses of the underlying assets to be swapped",
          "to": "Recipient of the output tokens."
        }
      },
      "swapExactTokensForTokensAtSupportingFee(uint256,uint256,address[],address,uint256)": {
        "details": "msg.sender should have already given the router an allowance of at least amountIn on the input token.",
        "params": {
          "amountIn": "The address of the vToken contract to repay.",
          "amountOutMin": "The minimum amount of output tokens that must be received for the transaction not to revert.",
          "deadline": "Unix timestamp after which the transaction will revert.",
          "path": "Array with addresses of the underlying assets to be swapped",
          "to": "Recipient of the output tokens."
        }
      },
      "swapTokensForExactETH(uint256,uint256,address[],address,uint256)": {
        "details": "msg.sender should have already given the router an allowance of at least amountIn on the input token.",
        "params": {
          "amountInMax": "The maximum amount of input tokens that can be taken for the transaction not to revert.",
          "amountOut": "The amount of the tokens needs to be as output token.",
          "deadline": "Unix timestamp after which the transaction will revert.*",
          "path": "Array with addresses of the underlying assets to be swapped",
          "to": "Recipient of the output tokens."
        }
      },
      "swapTokensForExactETHAndRepay(address,uint256,uint256,address[],uint256)": {
        "details": "Addresses of underlying assets should be ordered that first asset is the token we are swapping and second asset is the token we receiveIn case of swapping native BNB the first asset in path array should be the wBNB address",
        "params": {
          "amountInMax": "The maximum amount of input tokens that can be taken for the transaction not to revert.",
          "amountOut": "The amount of the tokens needs to be as output token.",
          "path": "Array with addresses of the underlying assets to be swapped",
          "vBNBAddress": "The address of the vToken contract for supplying assets."
        }
      },
      "swapTokensForExactTokens(uint256,uint256,address[],address,uint256)": {
        "details": "msg.sender should have already given the router an allowance of at least amountIn on the input token.",
        "params": {
          "amountInMax": "The maximum amount of input tokens that can be taken for the transaction not to revert.",
          "amountOut": "The amount of the tokens needs to be as output token.",
          "deadline": "Unix timestamp after which the transaction will revert.*",
          "path": "Array with addresses of the underlying assets to be swapped",
          "to": "Recipient of the output tokens."
        }
      },
      "swapTokensForExactTokensAndRepay(address,uint256,uint256,address[],uint256)": {
        "details": "Addresses of underlying assets should be ordered that first asset is the token we are swapping and second asset is the token we receiveIn case of swapping native BNB the first asset in path array should be the wBNB address",
        "params": {
          "amountInMax": "The maximum amount of input tokens that can be taken for the transaction not to revert.",
          "amountOut": "The amount of the tokens needs to be as output token.",
          "path": "Array with addresses of the underlying assets to be swapped",
          "vTokenAddress": "The address of the vToken contract for supplying assets."
        }
      },
      "swapTokensForExactTokensAndSupply(address,uint256,uint256,address[],uint256)": {
        "details": "Addresses of underlying assets should be ordered that first asset is the token we are swapping and second asset is the token we receiveIn case of swapping native BNB the first asset in path array should be the wBNB address",
        "params": {
          "amountInMax": "The maximum amount of input tokens that can be taken for the transaction not to revert.",
          "amountOut": "The amount of the tokens needs to be as output token.",
          "path": "Array with addresses of the underlying assets to be swapped",
          "vTokenAddress": "The address of the vToken contract for supplying assets."
        }
      },
      "swapTokensForFullETHDebtAndRepay(address,uint256,address[],uint256)": {
        "details": "Addresses of underlying assets should be ordered that first asset is the token we are swapping and second asset is the token we receiveIn case of swapping native BNB the first asset in path array should be the wBNB address",
        "params": {
          "amountInMax": "The maximum amount of input tokens that can be taken for the transaction not to revert.",
          "path": "Array with addresses of the underlying assets to be swapped",
          "vBNBAddress": "The address of the vToken contract for supplying assets."
        }
      },
      "swapTokensForFullTokenDebtAndRepay(address,uint256,address[],uint256)": {
        "details": "Addresses of underlying assets should be ordered that first asset is the token we are swapping and second asset is the token we receiveIn case of swapping native BNB the first asset in path array should be the wBNB address",
        "params": {
          "amountInMax": "The maximum amount of input tokens that can be taken for the transaction not to revert.",
          "path": "Array with addresses of the underlying assets to be swapped",
          "vTokenAddress": "The address of the vToken contract for supplying assets."
        }
      },
      "sweepToken(address,address,uint256)": {
        "custom:access": "Only Governance",
        "params": {
          "sweepAmount": "The ampunt of the tokens to sweep",
          "token": "The address of the ERC-20 token to sweep"
        }
      },
      "transferOwnership(address)": {
        "details": "Starts the ownership transfer of the contract to a new account. Replaces the pending transfer if there is one. Can only be called by the current owner."
      }
    },
    "title": "Venus's Pancake Swap Integration Contract",
    "version": 1
  },
  "userdoc": {
    "errors": {
      "ExcessiveInputAmount(uint256,uint256)": [
        {
          "notice": "Error thrown when amount is above the msg.value(amountMax)"
        }
      ],
      "IdenticalAddresses()": [
        {
          "notice": "Error thrown if two token addresses are identical"
        }
      ],
      "InputAmountAboveMaximum(uint256,uint256)": [
        {
          "notice": "Error thrown when the amount In is above the amount in maximum"
        }
      ],
      "InsufficientInputAmount()": [
        {
          "notice": "Error thrown where the input amount parameter for a token is 0"
        }
      ],
      "InsufficientLiquidity()": [
        {
          "notice": "Error thrown when the given reserves are equal to 0"
        }
      ],
      "InsufficientOutputAmount()": [
        {
          "notice": "Error thrown when the amount out passed is 0"
        }
      ],
      "InvalidPath()": [
        {
          "notice": "Error thrown when the trade path[] parameter consists of only 1 token (i.e. path.length<2)"
        }
      ],
      "OutputAmountBelowMinimum(uint256,uint256)": [
        {
          "notice": "Error thrown when the amount received from a trade is below the minimum"
        }
      ],
      "RepayError(address,address,uint256)": [
        {
          "notice": "Error indicating that repaying to given market failed."
        }
      ],
      "SupplyError(address,address,uint256)": [
        {
          "notice": "Error indicating that suplying to a given market failed."
        }
      ],
      "SwapDeadlineExpire(uint256,uint256)": [
        {
          "notice": "Error thrown when deadline for swap has expired"
        }
      ],
      "WrongAddress(address,address)": [
        {
          "notice": "Error indicating wBNB address passed is not the expected one."
        }
      ],
      "ZeroAddress()": [
        {
          "notice": "Error thrown if a zero address is passed"
        }
      ]
    },
    "events": {
      "SwapBnbForTokens(address,address[],uint256[])": {
        "notice": "This event is emitted whenever a successful swap (BNB -> token) occurs"
      },
      "SwapTokensForBnb(address,address[],uint256[])": {
        "notice": "This event is emitted whenever a successful swap (token -> BNB) occurs"
      },
      "SwapTokensForTokens(address,address[],uint256[])": {
        "notice": "This event is emitted whenever a successful swap (tokenA -> tokenB) occurs"
      },
      "SweepToken(address,address,uint256)": {
        "notice": "event emitted on sweep token success"
      }
    },
    "kind": "user",
    "methods": {
      "WBNB()": {
        "notice": "Address of WBNB contract."
      },
      "constructor": {
        "notice": "Constructor for the implementation contract. Sets immutable variables."
      },
      "factory()": {
        "notice": "Address of pancake swap factory contract."
      },
      "swapAndRepay(address,uint256,uint256,address[],uint256)": {
        "notice": "Swap token A for token B and repay a borrow from a Venus market"
      },
      "swapAndRepayAtSupportingFee(address,uint256,uint256,address[],uint256)": {
        "notice": "Swap token A for token B and repay a borrow from a Venus market"
      },
      "swapAndSupply(address,uint256,uint256,address[],uint256)": {
        "notice": "Swap token A for token B and supply to a Venus market"
      },
      "swapAndSupplyAtSupportingFee(address,uint256,uint256,address[],uint256)": {
        "notice": "Swap token A for token B and supply to a Venus market"
      },
      "swapBnbAndRepay(address,uint256,address[],uint256)": {
        "notice": "Swap BNB for another token and repay a borrow from a Venus market"
      },
      "swapBnbAndRepayAtSupportingFee(address,uint256,address[],uint256)": {
        "notice": "Swap BNB for another token and repay a borrow from a Venus market"
      },
      "swapBnbAndSupply(address,uint256,address[],uint256)": {
        "notice": "Swap BNB for another token and supply to a Venus market"
      },
      "swapBnbAndSupplyAtSupportingFee(address,uint256,address[],uint256)": {
        "notice": "Swap BNB for another token and supply to a Venus market"
      },
      "swapETHForExactTokens(uint256,address[],address,uint256)": {
        "notice": "Swaps an as ETH as input tokens for as exact amount of tokens as output,         along the route determined by the path. The first element of path is the input WBNB,         the last is the output as token, and any intermediate elements represent intermediate         pairs to trade through (if, for example, a direct pair does not exist)."
      },
      "swapETHForExactTokensAndRepay(address,uint256,address[],uint256)": {
        "notice": "Swap BNB for Exact tokens and repay to a Venus market"
      },
      "swapETHForExactTokensAndSupply(address,uint256,address[],uint256)": {
        "notice": "Swap BNB for Exact tokens and supply to a Venus market"
      },
      "swapExactETHForTokens(uint256,address[],address,uint256)": {
        "notice": "Swaps an exact amount of ETH for as many output tokens as possible,         along the route determined by the path. The first element of path must be WBNB,         the last is the output token, and any intermediate elements represent         intermediate pairs to trade through (if, for example, a direct pair does not exist)."
      },
      "swapExactETHForTokensAtSupportingFee(uint256,address[],address,uint256)": {
        "notice": "Swaps an exact amount of ETH for as many output tokens as possible,         along the route determined by the path. The first element of path must be WBNB,         the last is the output token, and any intermediate elements represent         intermediate pairs to trade through (if, for example, a direct pair does not exist).         This method to swap deflationary tokens which would require supporting fee."
      },
      "swapExactTokensForETH(uint256,uint256,address[],address,uint256)": {
        "notice": "Swaps an exact amount of input tokens for as many output ETH as possible,         along the route determined by the path. The first element of path is the input token,         the last is the output ETH, and any intermediate elements represent intermediate         pairs to trade through (if, for example, a direct pair does not exist)."
      },
      "swapExactTokensForETHAndRepay(address,uint256,uint256,address[],uint256)": {
        "notice": "Swap Exact tokens for BNB and repay to a Venus market"
      },
      "swapExactTokensForETHAndRepayAtSupportingFee(address,uint256,uint256,address[],uint256)": {
        "notice": "Swap Exact tokens for BNB and repay to a Venus market"
      },
      "swapExactTokensForETHAtSupportingFee(uint256,uint256,address[],address,uint256)": {
        "notice": "Swaps an exact amount of input tokens for as many output ETH as possible,         along the route determined by the path. The first element of path is the input token,         the last is the output ETH, and any intermediate elements represent intermediate         pairs to trade through (if, for example, a direct pair does not exist).         This method to swap deflationary tokens which would require supporting fee."
      },
      "swapExactTokensForTokens(uint256,uint256,address[],address,uint256)": {
        "notice": "Swaps an exact amount of input tokens for as many output tokens as possible,         along the route determined by the path. The first element of path is the input token,         the last is the output token, and any intermediate elements represent intermediate         pairs to trade through (if, for example, a direct pair does not exist)."
      },
      "swapExactTokensForTokensAtSupportingFee(uint256,uint256,address[],address,uint256)": {
        "notice": "Swaps an exact amount of input tokens for as many output tokens as possible,         along the route determined by the path. The first element of path is the input token,         the last is the output token, and any intermediate elements represent intermediate         pairs to trade through (if, for example, a direct pair does not exist).         This method to swap deflationary tokens which would require supporting fee."
      },
      "swapTokensForExactETH(uint256,uint256,address[],address,uint256)": {
        "notice": "Swaps an as many amount of input tokens for as exact amount of ETH as output,         along the route determined by the path. The first element of path is the input token,         the last is the output as ETH, and any intermediate elements represent intermediate         pairs to trade through (if, for example, a direct pair does not exist)."
      },
      "swapTokensForExactETHAndRepay(address,uint256,uint256,address[],uint256)": {
        "notice": "Swap tokens for Exact BNB and repay to a Venus market"
      },
      "swapTokensForExactTokens(uint256,uint256,address[],address,uint256)": {
        "notice": "Swaps an as many amount of input tokens for as exact amount of tokens as output,         along the route determined by the path. The first element of path is the input token,         the last is the output token, and any intermediate elements represent intermediate         pairs to trade through (if, for example, a direct pair does not exist)."
      },
      "swapTokensForExactTokensAndRepay(address,uint256,uint256,address[],uint256)": {
        "notice": "Swap tokens for Exact tokens and repay to a Venus market"
      },
      "swapTokensForExactTokensAndSupply(address,uint256,uint256,address[],uint256)": {
        "notice": "Swap tokens for Exact tokens and supply to a Venus market"
      },
      "swapTokensForFullETHDebtAndRepay(address,uint256,address[],uint256)": {
        "notice": "Swap tokens for Exact BNB and repay to a Venus market"
      },
      "swapTokensForFullTokenDebtAndRepay(address,uint256,address[],uint256)": {
        "notice": "Swap tokens for full tokens debt and repay to a Venus market"
      },
      "sweepToken(address,address,uint256)": {
        "notice": "A public function to sweep accidental ERC-20 transfers to this contract. Tokens are sent to admin (timelock)"
      }
    },
    "notice": "This contracts allows users to swap a token for another one and supply/repay with the latter.",
    "version": 1
  },
  "storageLayout": {
    "storage": [
      {
        "astId": 244,
        "contract": "contracts/Swap/SwapRouter.sol:SwapRouter",
        "label": "_initialized",
        "offset": 0,
        "slot": "0",
        "type": "t_uint8"
      },
      {
        "astId": 247,
        "contract": "contracts/Swap/SwapRouter.sol:SwapRouter",
        "label": "_initializing",
        "offset": 1,
        "slot": "0",
        "type": "t_bool"
      },
      {
        "astId": 1199,
        "contract": "contracts/Swap/SwapRouter.sol:SwapRouter",
        "label": "__gap",
        "offset": 0,
        "slot": "1",
        "type": "t_array(t_uint256)50_storage"
      },
      {
        "astId": 116,
        "contract": "contracts/Swap/SwapRouter.sol:SwapRouter",
        "label": "_owner",
        "offset": 0,
        "slot": "51",
        "type": "t_address"
      },
      {
        "astId": 236,
        "contract": "contracts/Swap/SwapRouter.sol:SwapRouter",
        "label": "__gap",
        "offset": 0,
        "slot": "52",
        "type": "t_array(t_uint256)49_storage"
      },
      {
        "astId": 25,
        "contract": "contracts/Swap/SwapRouter.sol:SwapRouter",
        "label": "_pendingOwner",
        "offset": 0,
        "slot": "101",
        "type": "t_address"
      },
      {
        "astId": 104,
        "contract": "contracts/Swap/SwapRouter.sol:SwapRouter",
        "label": "__gap",
        "offset": 0,
        "slot": "102",
        "type": "t_array(t_uint256)49_storage"
      },
      {
        "astId": 3628,
        "contract": "contracts/Swap/SwapRouter.sol:SwapRouter",
        "label": "comptrollerAddress",
        "offset": 0,
        "slot": "151",
        "type": "t_address"
      }
    ],
    "types": {
      "t_address": {
        "encoding": "inplace",
        "label": "address",
        "numberOfBytes": "20"
      },
      "t_array(t_uint256)49_storage": {
        "base": "t_uint256",
        "encoding": "inplace",
        "label": "uint256[49]",
        "numberOfBytes": "1568"
      },
      "t_array(t_uint256)50_storage": {
        "base": "t_uint256",
        "encoding": "inplace",
        "label": "uint256[50]",
        "numberOfBytes": "1600"
      },
      "t_bool": {
        "encoding": "inplace",
        "label": "bool",
        "numberOfBytes": "1"
      },
      "t_uint256": {
        "encoding": "inplace",
        "label": "uint256",
        "numberOfBytes": "32"
      },
      "t_uint8": {
        "encoding": "inplace",
        "label": "uint8",
        "numberOfBytes": "1"
      }
    }
  }
}