{
  "address": "0xAD50B75ae062c9853725ed88eF1E220C0bC44753",
  "abi": [
    {
      "inputs": [],
      "stateMutability": "nonpayable",
      "type": "constructor"
    },
    {
      "inputs": [
        {
          "internalType": "uint256",
          "name": "actualAddAmount",
          "type": "uint256"
        }
      ],
      "name": "AddReservesFactorFreshCheck",
      "type": "error"
    },
    {
      "inputs": [],
      "name": "BorrowCashNotAvailable",
      "type": "error"
    },
    {
      "inputs": [
        {
          "internalType": "uint256",
          "name": "errorCode",
          "type": "uint256"
        }
      ],
      "name": "BorrowComptrollerRejection",
      "type": "error"
    },
    {
      "inputs": [],
      "name": "BorrowFreshnessCheck",
      "type": "error"
    },
    {
      "inputs": [],
      "name": "ForceLiquidateBorrowUnauthorized",
      "type": "error"
    },
    {
      "inputs": [],
      "name": "HealBorrowUnauthorized",
      "type": "error"
    },
    {
      "inputs": [
        {
          "internalType": "uint256",
          "name": "errorCode",
          "type": "uint256"
        }
      ],
      "name": "LiquidateAccrueBorrowInterestFailed",
      "type": "error"
    },
    {
      "inputs": [
        {
          "internalType": "uint256",
          "name": "errorCode",
          "type": "uint256"
        }
      ],
      "name": "LiquidateAccrueCollateralInterestFailed",
      "type": "error"
    },
    {
      "inputs": [],
      "name": "LiquidateCloseAmountIsUintMax",
      "type": "error"
    },
    {
      "inputs": [],
      "name": "LiquidateCloseAmountIsZero",
      "type": "error"
    },
    {
      "inputs": [],
      "name": "LiquidateCollateralFreshnessCheck",
      "type": "error"
    },
    {
      "inputs": [
        {
          "internalType": "uint256",
          "name": "errorCode",
          "type": "uint256"
        }
      ],
      "name": "LiquidateComptrollerRejection",
      "type": "error"
    },
    {
      "inputs": [],
      "name": "LiquidateFreshnessCheck",
      "type": "error"
    },
    {
      "inputs": [],
      "name": "LiquidateLiquidatorIsBorrower",
      "type": "error"
    },
    {
      "inputs": [
        {
          "internalType": "uint256",
          "name": "errorCode",
          "type": "uint256"
        }
      ],
      "name": "LiquidateRepayBorrowFreshFailed",
      "type": "error"
    },
    {
      "inputs": [
        {
          "internalType": "uint256",
          "name": "errorCode",
          "type": "uint256"
        }
      ],
      "name": "LiquidateSeizeComptrollerRejection",
      "type": "error"
    },
    {
      "inputs": [],
      "name": "LiquidateSeizeLiquidatorIsBorrower",
      "type": "error"
    },
    {
      "inputs": [
        {
          "internalType": "uint256",
          "name": "errorCode",
          "type": "uint256"
        }
      ],
      "name": "MintComptrollerRejection",
      "type": "error"
    },
    {
      "inputs": [],
      "name": "MintFreshnessCheck",
      "type": "error"
    },
    {
      "inputs": [],
      "name": "ProtocolSeizeShareTooBig",
      "type": "error"
    },
    {
      "inputs": [
        {
          "internalType": "uint256",
          "name": "errorCode",
          "type": "uint256"
        }
      ],
      "name": "RedeemComptrollerRejection",
      "type": "error"
    },
    {
      "inputs": [],
      "name": "RedeemFreshnessCheck",
      "type": "error"
    },
    {
      "inputs": [],
      "name": "RedeemTransferOutNotPossible",
      "type": "error"
    },
    {
      "inputs": [],
      "name": "ReduceReservesAdminCheck",
      "type": "error"
    },
    {
      "inputs": [],
      "name": "ReduceReservesCashNotAvailable",
      "type": "error"
    },
    {
      "inputs": [],
      "name": "ReduceReservesCashValidation",
      "type": "error"
    },
    {
      "inputs": [],
      "name": "ReduceReservesFreshCheck",
      "type": "error"
    },
    {
      "inputs": [
        {
          "internalType": "uint256",
          "name": "errorCode",
          "type": "uint256"
        }
      ],
      "name": "RepayBorrowComptrollerRejection",
      "type": "error"
    },
    {
      "inputs": [],
      "name": "RepayBorrowFreshnessCheck",
      "type": "error"
    },
    {
      "inputs": [],
      "name": "SetComptrollerOwnerCheck",
      "type": "error"
    },
    {
      "inputs": [],
      "name": "SetInterestRateModelFreshCheck",
      "type": "error"
    },
    {
      "inputs": [],
      "name": "SetInterestRateModelOwnerCheck",
      "type": "error"
    },
    {
      "inputs": [],
      "name": "SetProtocolSeizeShareUnauthorized",
      "type": "error"
    },
    {
      "inputs": [],
      "name": "SetReserveFactorAdminCheck",
      "type": "error"
    },
    {
      "inputs": [],
      "name": "SetReserveFactorBoundsCheck",
      "type": "error"
    },
    {
      "inputs": [],
      "name": "SetReserveFactorFreshCheck",
      "type": "error"
    },
    {
      "inputs": [
        {
          "internalType": "uint256",
          "name": "errorCode",
          "type": "uint256"
        }
      ],
      "name": "TransferComptrollerRejection",
      "type": "error"
    },
    {
      "inputs": [],
      "name": "TransferNotAllowed",
      "type": "error"
    },
    {
      "inputs": [],
      "name": "TransferNotEnough",
      "type": "error"
    },
    {
      "inputs": [],
      "name": "TransferTooMuch",
      "type": "error"
    },
    {
      "anonymous": false,
      "inputs": [
        {
          "indexed": false,
          "internalType": "uint256",
          "name": "cashPrior",
          "type": "uint256"
        },
        {
          "indexed": false,
          "internalType": "uint256",
          "name": "interestAccumulated",
          "type": "uint256"
        },
        {
          "indexed": false,
          "internalType": "uint256",
          "name": "borrowIndex",
          "type": "uint256"
        },
        {
          "indexed": false,
          "internalType": "uint256",
          "name": "totalBorrows",
          "type": "uint256"
        }
      ],
      "name": "AccrueInterest",
      "type": "event"
    },
    {
      "anonymous": false,
      "inputs": [
        {
          "indexed": true,
          "internalType": "address",
          "name": "owner",
          "type": "address"
        },
        {
          "indexed": true,
          "internalType": "address",
          "name": "spender",
          "type": "address"
        },
        {
          "indexed": false,
          "internalType": "uint256",
          "name": "amount",
          "type": "uint256"
        }
      ],
      "name": "Approval",
      "type": "event"
    },
    {
      "anonymous": false,
      "inputs": [
        {
          "indexed": false,
          "internalType": "address",
          "name": "borrower",
          "type": "address"
        },
        {
          "indexed": false,
          "internalType": "uint256",
          "name": "badDebtDelta",
          "type": "uint256"
        },
        {
          "indexed": false,
          "internalType": "uint256",
          "name": "badDebtOld",
          "type": "uint256"
        },
        {
          "indexed": false,
          "internalType": "uint256",
          "name": "badDebtNew",
          "type": "uint256"
        }
      ],
      "name": "BadDebtIncreased",
      "type": "event"
    },
    {
      "anonymous": false,
      "inputs": [
        {
          "indexed": false,
          "internalType": "uint256",
          "name": "badDebtOld",
          "type": "uint256"
        },
        {
          "indexed": false,
          "internalType": "uint256",
          "name": "badDebtNew",
          "type": "uint256"
        }
      ],
      "name": "BadDebtRecovered",
      "type": "event"
    },
    {
      "anonymous": false,
      "inputs": [
        {
          "indexed": false,
          "internalType": "address",
          "name": "borrower",
          "type": "address"
        },
        {
          "indexed": false,
          "internalType": "uint256",
          "name": "borrowAmount",
          "type": "uint256"
        },
        {
          "indexed": false,
          "internalType": "uint256",
          "name": "accountBorrows",
          "type": "uint256"
        },
        {
          "indexed": false,
          "internalType": "uint256",
          "name": "totalBorrows",
          "type": "uint256"
        }
      ],
      "name": "Borrow",
      "type": "event"
    },
    {
      "anonymous": false,
      "inputs": [
        {
          "indexed": false,
          "internalType": "uint8",
          "name": "version",
          "type": "uint8"
        }
      ],
      "name": "Initialized",
      "type": "event"
    },
    {
      "anonymous": false,
      "inputs": [
        {
          "indexed": false,
          "internalType": "address",
          "name": "liquidator",
          "type": "address"
        },
        {
          "indexed": false,
          "internalType": "address",
          "name": "borrower",
          "type": "address"
        },
        {
          "indexed": false,
          "internalType": "uint256",
          "name": "repayAmount",
          "type": "uint256"
        },
        {
          "indexed": false,
          "internalType": "address",
          "name": "vTokenCollateral",
          "type": "address"
        },
        {
          "indexed": false,
          "internalType": "uint256",
          "name": "seizeTokens",
          "type": "uint256"
        }
      ],
      "name": "LiquidateBorrow",
      "type": "event"
    },
    {
      "anonymous": false,
      "inputs": [
        {
          "indexed": false,
          "internalType": "address",
          "name": "minter",
          "type": "address"
        },
        {
          "indexed": false,
          "internalType": "uint256",
          "name": "mintAmount",
          "type": "uint256"
        },
        {
          "indexed": false,
          "internalType": "uint256",
          "name": "mintTokens",
          "type": "uint256"
        }
      ],
      "name": "Mint",
      "type": "event"
    },
    {
      "anonymous": false,
      "inputs": [
        {
          "indexed": false,
          "internalType": "contract AccessControlManager",
          "name": "oldAccessControlManager",
          "type": "address"
        },
        {
          "indexed": false,
          "internalType": "contract AccessControlManager",
          "name": "newAccessControlManager",
          "type": "address"
        }
      ],
      "name": "NewAccessControlManager",
      "type": "event"
    },
    {
      "anonymous": false,
      "inputs": [
        {
          "indexed": false,
          "internalType": "contract ComptrollerInterface",
          "name": "oldComptroller",
          "type": "address"
        },
        {
          "indexed": false,
          "internalType": "contract ComptrollerInterface",
          "name": "newComptroller",
          "type": "address"
        }
      ],
      "name": "NewComptroller",
      "type": "event"
    },
    {
      "anonymous": false,
      "inputs": [
        {
          "indexed": false,
          "internalType": "contract InterestRateModel",
          "name": "oldInterestRateModel",
          "type": "address"
        },
        {
          "indexed": false,
          "internalType": "contract InterestRateModel",
          "name": "newInterestRateModel",
          "type": "address"
        }
      ],
      "name": "NewMarketInterestRateModel",
      "type": "event"
    },
    {
      "anonymous": false,
      "inputs": [
        {
          "indexed": false,
          "internalType": "uint256",
          "name": "oldProtocolSeizeShareMantissa",
          "type": "uint256"
        },
        {
          "indexed": false,
          "internalType": "uint256",
          "name": "newProtocolSeizeShareMantissa",
          "type": "uint256"
        }
      ],
      "name": "NewProtocolSeizeShare",
      "type": "event"
    },
    {
      "anonymous": false,
      "inputs": [
        {
          "indexed": false,
          "internalType": "uint256",
          "name": "oldReserveFactorMantissa",
          "type": "uint256"
        },
        {
          "indexed": false,
          "internalType": "uint256",
          "name": "newReserveFactorMantissa",
          "type": "uint256"
        }
      ],
      "name": "NewReserveFactor",
      "type": "event"
    },
    {
      "anonymous": false,
      "inputs": [
        {
          "indexed": true,
          "internalType": "address",
          "name": "previousOwner",
          "type": "address"
        },
        {
          "indexed": true,
          "internalType": "address",
          "name": "newOwner",
          "type": "address"
        }
      ],
      "name": "OwnershipTransferStarted",
      "type": "event"
    },
    {
      "anonymous": false,
      "inputs": [
        {
          "indexed": true,
          "internalType": "address",
          "name": "previousOwner",
          "type": "address"
        },
        {
          "indexed": true,
          "internalType": "address",
          "name": "newOwner",
          "type": "address"
        }
      ],
      "name": "OwnershipTransferred",
      "type": "event"
    },
    {
      "anonymous": false,
      "inputs": [
        {
          "indexed": false,
          "internalType": "address",
          "name": "redeemer",
          "type": "address"
        },
        {
          "indexed": false,
          "internalType": "uint256",
          "name": "redeemAmount",
          "type": "uint256"
        },
        {
          "indexed": false,
          "internalType": "uint256",
          "name": "redeemTokens",
          "type": "uint256"
        }
      ],
      "name": "Redeem",
      "type": "event"
    },
    {
      "anonymous": false,
      "inputs": [
        {
          "indexed": false,
          "internalType": "address",
          "name": "payer",
          "type": "address"
        },
        {
          "indexed": false,
          "internalType": "address",
          "name": "borrower",
          "type": "address"
        },
        {
          "indexed": false,
          "internalType": "uint256",
          "name": "repayAmount",
          "type": "uint256"
        },
        {
          "indexed": false,
          "internalType": "uint256",
          "name": "accountBorrows",
          "type": "uint256"
        },
        {
          "indexed": false,
          "internalType": "uint256",
          "name": "totalBorrows",
          "type": "uint256"
        }
      ],
      "name": "RepayBorrow",
      "type": "event"
    },
    {
      "anonymous": false,
      "inputs": [
        {
          "indexed": false,
          "internalType": "address",
          "name": "benefactor",
          "type": "address"
        },
        {
          "indexed": false,
          "internalType": "uint256",
          "name": "addAmount",
          "type": "uint256"
        },
        {
          "indexed": false,
          "internalType": "uint256",
          "name": "newTotalReserves",
          "type": "uint256"
        }
      ],
      "name": "ReservesAdded",
      "type": "event"
    },
    {
      "anonymous": false,
      "inputs": [
        {
          "indexed": false,
          "internalType": "address",
          "name": "admin",
          "type": "address"
        },
        {
          "indexed": false,
          "internalType": "uint256",
          "name": "reduceAmount",
          "type": "uint256"
        },
        {
          "indexed": false,
          "internalType": "uint256",
          "name": "newTotalReserves",
          "type": "uint256"
        }
      ],
      "name": "ReservesReduced",
      "type": "event"
    },
    {
      "anonymous": false,
      "inputs": [
        {
          "indexed": true,
          "internalType": "address",
          "name": "from",
          "type": "address"
        },
        {
          "indexed": true,
          "internalType": "address",
          "name": "to",
          "type": "address"
        },
        {
          "indexed": false,
          "internalType": "uint256",
          "name": "amount",
          "type": "uint256"
        }
      ],
      "name": "Transfer",
      "type": "event"
    },
    {
      "inputs": [],
      "name": "NO_ERROR",
      "outputs": [
        {
          "internalType": "uint256",
          "name": "",
          "type": "uint256"
        }
      ],
      "stateMutability": "view",
      "type": "function"
    },
    {
      "inputs": [],
      "name": "acceptOwnership",
      "outputs": [],
      "stateMutability": "nonpayable",
      "type": "function"
    },
    {
      "inputs": [],
      "name": "accessControlManager",
      "outputs": [
        {
          "internalType": "contract AccessControlManager",
          "name": "",
          "type": "address"
        }
      ],
      "stateMutability": "view",
      "type": "function"
    },
    {
      "inputs": [],
      "name": "accrualBlockNumber",
      "outputs": [
        {
          "internalType": "uint256",
          "name": "",
          "type": "uint256"
        }
      ],
      "stateMutability": "view",
      "type": "function"
    },
    {
      "inputs": [],
      "name": "accrueInterest",
      "outputs": [
        {
          "internalType": "uint256",
          "name": "",
          "type": "uint256"
        }
      ],
      "stateMutability": "nonpayable",
      "type": "function"
    },
    {
      "inputs": [
        {
          "internalType": "uint256",
          "name": "addAmount",
          "type": "uint256"
        }
      ],
      "name": "addReserves",
      "outputs": [],
      "stateMutability": "nonpayable",
      "type": "function"
    },
    {
      "inputs": [
        {
          "internalType": "address",
          "name": "owner",
          "type": "address"
        },
        {
          "internalType": "address",
          "name": "spender",
          "type": "address"
        }
      ],
      "name": "allowance",
      "outputs": [
        {
          "internalType": "uint256",
          "name": "",
          "type": "uint256"
        }
      ],
      "stateMutability": "view",
      "type": "function"
    },
    {
      "inputs": [
        {
          "internalType": "address",
          "name": "spender",
          "type": "address"
        },
        {
          "internalType": "uint256",
          "name": "amount",
          "type": "uint256"
        }
      ],
      "name": "approve",
      "outputs": [
        {
          "internalType": "bool",
          "name": "",
          "type": "bool"
        }
      ],
      "stateMutability": "nonpayable",
      "type": "function"
    },
    {
      "inputs": [],
      "name": "badDebt",
      "outputs": [
        {
          "internalType": "uint256",
          "name": "",
          "type": "uint256"
        }
      ],
      "stateMutability": "view",
      "type": "function"
    },
    {
      "inputs": [
        {
          "internalType": "uint256",
          "name": "recoveredAmount_",
          "type": "uint256"
        }
      ],
      "name": "badDebtRecovered",
      "outputs": [],
      "stateMutability": "nonpayable",
      "type": "function"
    },
    {
      "inputs": [
        {
          "internalType": "address",
          "name": "owner",
          "type": "address"
        }
      ],
      "name": "balanceOf",
      "outputs": [
        {
          "internalType": "uint256",
          "name": "",
          "type": "uint256"
        }
      ],
      "stateMutability": "view",
      "type": "function"
    },
    {
      "inputs": [
        {
          "internalType": "address",
          "name": "owner",
          "type": "address"
        }
      ],
      "name": "balanceOfUnderlying",
      "outputs": [
        {
          "internalType": "uint256",
          "name": "",
          "type": "uint256"
        }
      ],
      "stateMutability": "nonpayable",
      "type": "function"
    },
    {
      "inputs": [
        {
          "internalType": "uint256",
          "name": "borrowAmount",
          "type": "uint256"
        }
      ],
      "name": "borrow",
      "outputs": [
        {
          "internalType": "uint256",
          "name": "",
          "type": "uint256"
        }
      ],
      "stateMutability": "nonpayable",
      "type": "function"
    },
    {
      "inputs": [
        {
          "internalType": "address",
          "name": "account",
          "type": "address"
        }
      ],
      "name": "borrowBalanceCurrent",
      "outputs": [
        {
          "internalType": "uint256",
          "name": "",
          "type": "uint256"
        }
      ],
      "stateMutability": "nonpayable",
      "type": "function"
    },
    {
      "inputs": [
        {
          "internalType": "address",
          "name": "account",
          "type": "address"
        }
      ],
      "name": "borrowBalanceStored",
      "outputs": [
        {
          "internalType": "uint256",
          "name": "",
          "type": "uint256"
        }
      ],
      "stateMutability": "view",
      "type": "function"
    },
    {
      "inputs": [],
      "name": "borrowIndex",
      "outputs": [
        {
          "internalType": "uint256",
          "name": "",
          "type": "uint256"
        }
      ],
      "stateMutability": "view",
      "type": "function"
    },
    {
      "inputs": [],
      "name": "borrowRatePerBlock",
      "outputs": [
        {
          "internalType": "uint256",
          "name": "",
          "type": "uint256"
        }
      ],
      "stateMutability": "view",
      "type": "function"
    },
    {
      "inputs": [],
      "name": "comptroller",
      "outputs": [
        {
          "internalType": "contract ComptrollerInterface",
          "name": "",
          "type": "address"
        }
      ],
      "stateMutability": "view",
      "type": "function"
    },
    {
      "inputs": [],
      "name": "decimals",
      "outputs": [
        {
          "internalType": "uint8",
          "name": "",
          "type": "uint8"
        }
      ],
      "stateMutability": "view",
      "type": "function"
    },
    {
      "inputs": [],
      "name": "exchangeRateCurrent",
      "outputs": [
        {
          "internalType": "uint256",
          "name": "",
          "type": "uint256"
        }
      ],
      "stateMutability": "nonpayable",
      "type": "function"
    },
    {
      "inputs": [],
      "name": "exchangeRateStored",
      "outputs": [
        {
          "internalType": "uint256",
          "name": "",
          "type": "uint256"
        }
      ],
      "stateMutability": "view",
      "type": "function"
    },
    {
      "inputs": [
        {
          "internalType": "address",
          "name": "liquidator",
          "type": "address"
        },
        {
          "internalType": "address",
          "name": "borrower",
          "type": "address"
        },
        {
          "internalType": "uint256",
          "name": "repayAmount",
          "type": "uint256"
        },
        {
          "internalType": "contract VTokenInterface",
          "name": "vTokenCollateral",
          "type": "address"
        },
        {
          "internalType": "bool",
          "name": "skipLiquidityCheck",
          "type": "bool"
        }
      ],
      "name": "forceLiquidateBorrow",
      "outputs": [],
      "stateMutability": "nonpayable",
      "type": "function"
    },
    {
      "inputs": [
        {
          "internalType": "address",
          "name": "account",
          "type": "address"
        }
      ],
      "name": "getAccountSnapshot",
      "outputs": [
        {
          "internalType": "uint256",
          "name": "error",
          "type": "uint256"
        },
        {
          "internalType": "uint256",
          "name": "vTokenBalance",
          "type": "uint256"
        },
        {
          "internalType": "uint256",
          "name": "borrowBalance",
          "type": "uint256"
        },
        {
          "internalType": "uint256",
          "name": "exchangeRate",
          "type": "uint256"
        }
      ],
      "stateMutability": "view",
      "type": "function"
    },
    {
      "inputs": [],
      "name": "getCash",
      "outputs": [
        {
          "internalType": "uint256",
          "name": "",
          "type": "uint256"
        }
      ],
      "stateMutability": "view",
      "type": "function"
    },
    {
      "inputs": [
        {
          "internalType": "address",
          "name": "payer",
          "type": "address"
        },
        {
          "internalType": "address",
          "name": "borrower",
          "type": "address"
        },
        {
          "internalType": "uint256",
          "name": "repayAmount",
          "type": "uint256"
        }
      ],
      "name": "healBorrow",
      "outputs": [],
      "stateMutability": "nonpayable",
      "type": "function"
    },
    {
      "inputs": [
        {
          "internalType": "address",
          "name": "underlying_",
          "type": "address"
        },
        {
          "internalType": "contract ComptrollerInterface",
          "name": "comptroller_",
          "type": "address"
        },
        {
          "internalType": "contract InterestRateModel",
          "name": "interestRateModel_",
          "type": "address"
        },
        {
          "internalType": "uint256",
          "name": "initialExchangeRateMantissa_",
          "type": "uint256"
        },
        {
          "internalType": "string",
          "name": "name_",
          "type": "string"
        },
        {
          "internalType": "string",
          "name": "symbol_",
          "type": "string"
        },
        {
          "internalType": "uint8",
          "name": "decimals_",
          "type": "uint8"
        },
        {
          "internalType": "address payable",
          "name": "admin_",
          "type": "address"
        },
        {
          "internalType": "contract AccessControlManager",
          "name": "accessControlManager_",
          "type": "address"
        },
        {
          "components": [
            {
              "internalType": "address",
              "name": "shortfall",
              "type": "address"
            },
            {
              "internalType": "address payable",
              "name": "riskFund",
              "type": "address"
            },
            {
              "internalType": "address payable",
              "name": "protocolShareReserve",
              "type": "address"
            }
          ],
          "internalType": "struct VTokenInterface.RiskManagementInit",
          "name": "riskManagement",
          "type": "tuple"
        }
      ],
      "name": "initialize",
      "outputs": [],
      "stateMutability": "nonpayable",
      "type": "function"
    },
    {
      "inputs": [],
      "name": "interestRateModel",
      "outputs": [
        {
          "internalType": "contract InterestRateModel",
          "name": "",
          "type": "address"
        }
      ],
      "stateMutability": "view",
      "type": "function"
    },
    {
      "inputs": [],
      "name": "isVToken",
      "outputs": [
        {
          "internalType": "bool",
          "name": "",
          "type": "bool"
        }
      ],
      "stateMutability": "view",
      "type": "function"
    },
    {
      "inputs": [
        {
          "internalType": "address",
          "name": "borrower",
          "type": "address"
        },
        {
          "internalType": "uint256",
          "name": "repayAmount",
          "type": "uint256"
        },
        {
          "internalType": "contract VTokenInterface",
          "name": "vTokenCollateral",
          "type": "address"
        }
      ],
      "name": "liquidateBorrow",
      "outputs": [
        {
          "internalType": "uint256",
          "name": "",
          "type": "uint256"
        }
      ],
      "stateMutability": "nonpayable",
      "type": "function"
    },
    {
      "inputs": [
        {
          "internalType": "uint256",
          "name": "mintAmount",
          "type": "uint256"
        }
      ],
      "name": "mint",
      "outputs": [
        {
          "internalType": "uint256",
          "name": "",
          "type": "uint256"
        }
      ],
      "stateMutability": "nonpayable",
      "type": "function"
    },
    {
      "inputs": [
        {
          "internalType": "address",
          "name": "minter",
          "type": "address"
        },
        {
          "internalType": "uint256",
          "name": "mintAmount",
          "type": "uint256"
        }
      ],
      "name": "mintBehalf",
      "outputs": [
        {
          "internalType": "uint256",
          "name": "",
          "type": "uint256"
        }
      ],
      "stateMutability": "nonpayable",
      "type": "function"
    },
    {
      "inputs": [],
      "name": "name",
      "outputs": [
        {
          "internalType": "string",
          "name": "",
          "type": "string"
        }
      ],
      "stateMutability": "view",
      "type": "function"
    },
    {
      "inputs": [],
      "name": "owner",
      "outputs": [
        {
          "internalType": "address",
          "name": "",
          "type": "address"
        }
      ],
      "stateMutability": "view",
      "type": "function"
    },
    {
      "inputs": [],
      "name": "pendingOwner",
      "outputs": [
        {
          "internalType": "address",
          "name": "",
          "type": "address"
        }
      ],
      "stateMutability": "view",
      "type": "function"
    },
    {
      "inputs": [],
      "name": "protocolSeizeShareMantissa",
      "outputs": [
        {
          "internalType": "uint256",
          "name": "",
          "type": "uint256"
        }
      ],
      "stateMutability": "view",
      "type": "function"
    },
    {
      "inputs": [
        {
          "internalType": "uint256",
          "name": "redeemTokens",
          "type": "uint256"
        }
      ],
      "name": "redeem",
      "outputs": [
        {
          "internalType": "uint256",
          "name": "",
          "type": "uint256"
        }
      ],
      "stateMutability": "nonpayable",
      "type": "function"
    },
    {
      "inputs": [
        {
          "internalType": "uint256",
          "name": "redeemAmount",
          "type": "uint256"
        }
      ],
      "name": "redeemUnderlying",
      "outputs": [
        {
          "internalType": "uint256",
          "name": "",
          "type": "uint256"
        }
      ],
      "stateMutability": "nonpayable",
      "type": "function"
    },
    {
      "inputs": [
        {
          "internalType": "uint256",
          "name": "reduceAmount",
          "type": "uint256"
        }
      ],
      "name": "reduceReserves",
      "outputs": [],
      "stateMutability": "nonpayable",
      "type": "function"
    },
    {
      "inputs": [],
      "name": "renounceOwnership",
      "outputs": [],
      "stateMutability": "nonpayable",
      "type": "function"
    },
    {
      "inputs": [
        {
          "internalType": "uint256",
          "name": "repayAmount",
          "type": "uint256"
        }
      ],
      "name": "repayBorrow",
      "outputs": [
        {
          "internalType": "uint256",
          "name": "",
          "type": "uint256"
        }
      ],
      "stateMutability": "nonpayable",
      "type": "function"
    },
    {
      "inputs": [
        {
          "internalType": "address",
          "name": "borrower",
          "type": "address"
        },
        {
          "internalType": "uint256",
          "name": "repayAmount",
          "type": "uint256"
        }
      ],
      "name": "repayBorrowBehalf",
      "outputs": [
        {
          "internalType": "uint256",
          "name": "",
          "type": "uint256"
        }
      ],
      "stateMutability": "nonpayable",
      "type": "function"
    },
    {
      "inputs": [],
      "name": "reserveFactorMantissa",
      "outputs": [
        {
          "internalType": "uint256",
          "name": "",
          "type": "uint256"
        }
      ],
      "stateMutability": "view",
      "type": "function"
    },
    {
      "inputs": [
        {
          "internalType": "address",
          "name": "liquidator",
          "type": "address"
        },
        {
          "internalType": "address",
          "name": "borrower",
          "type": "address"
        },
        {
          "internalType": "uint256",
          "name": "seizeTokens",
          "type": "uint256"
        }
      ],
      "name": "seize",
      "outputs": [],
      "stateMutability": "nonpayable",
      "type": "function"
    },
    {
      "inputs": [
        {
          "internalType": "contract AccessControlManager",
          "name": "newAccessControlManager",
          "type": "address"
        }
      ],
      "name": "setAccessControlAddress",
      "outputs": [],
      "stateMutability": "nonpayable",
      "type": "function"
    },
    {
      "inputs": [
        {
          "internalType": "contract ComptrollerInterface",
          "name": "newComptroller",
          "type": "address"
        }
      ],
      "name": "setComptroller",
      "outputs": [],
      "stateMutability": "nonpayable",
      "type": "function"
    },
    {
      "inputs": [
        {
          "internalType": "contract InterestRateModel",
          "name": "newInterestRateModel",
          "type": "address"
        }
      ],
      "name": "setInterestRateModel",
      "outputs": [],
      "stateMutability": "nonpayable",
      "type": "function"
    },
    {
      "inputs": [
        {
          "internalType": "uint256",
          "name": "newProtocolSeizeShareMantissa_",
          "type": "uint256"
        }
      ],
      "name": "setProtocolSeizeShare",
      "outputs": [],
      "stateMutability": "nonpayable",
      "type": "function"
    },
    {
      "inputs": [
        {
          "internalType": "uint256",
          "name": "newReserveFactorMantissa",
          "type": "uint256"
        }
      ],
      "name": "setReserveFactor",
      "outputs": [],
      "stateMutability": "nonpayable",
      "type": "function"
    },
    {
      "inputs": [],
      "name": "shortfall",
      "outputs": [
        {
          "internalType": "address",
          "name": "",
          "type": "address"
        }
      ],
      "stateMutability": "view",
      "type": "function"
    },
    {
      "inputs": [],
      "name": "supplyRatePerBlock",
      "outputs": [
        {
          "internalType": "uint256",
          "name": "",
          "type": "uint256"
        }
      ],
      "stateMutability": "view",
      "type": "function"
    },
    {
      "inputs": [
        {
          "internalType": "contract IERC20Upgradeable",
          "name": "token",
          "type": "address"
        }
      ],
      "name": "sweepToken",
      "outputs": [],
      "stateMutability": "nonpayable",
      "type": "function"
    },
    {
      "inputs": [],
      "name": "symbol",
      "outputs": [
        {
          "internalType": "string",
          "name": "",
          "type": "string"
        }
      ],
      "stateMutability": "view",
      "type": "function"
    },
    {
      "inputs": [],
      "name": "totalBorrows",
      "outputs": [
        {
          "internalType": "uint256",
          "name": "",
          "type": "uint256"
        }
      ],
      "stateMutability": "view",
      "type": "function"
    },
    {
      "inputs": [],
      "name": "totalBorrowsCurrent",
      "outputs": [
        {
          "internalType": "uint256",
          "name": "",
          "type": "uint256"
        }
      ],
      "stateMutability": "nonpayable",
      "type": "function"
    },
    {
      "inputs": [],
      "name": "totalReserves",
      "outputs": [
        {
          "internalType": "uint256",
          "name": "",
          "type": "uint256"
        }
      ],
      "stateMutability": "view",
      "type": "function"
    },
    {
      "inputs": [],
      "name": "totalSupply",
      "outputs": [
        {
          "internalType": "uint256",
          "name": "",
          "type": "uint256"
        }
      ],
      "stateMutability": "view",
      "type": "function"
    },
    {
      "inputs": [
        {
          "internalType": "address",
          "name": "dst",
          "type": "address"
        },
        {
          "internalType": "uint256",
          "name": "amount",
          "type": "uint256"
        }
      ],
      "name": "transfer",
      "outputs": [
        {
          "internalType": "bool",
          "name": "",
          "type": "bool"
        }
      ],
      "stateMutability": "nonpayable",
      "type": "function"
    },
    {
      "inputs": [
        {
          "internalType": "address",
          "name": "src",
          "type": "address"
        },
        {
          "internalType": "address",
          "name": "dst",
          "type": "address"
        },
        {
          "internalType": "uint256",
          "name": "amount",
          "type": "uint256"
        }
      ],
      "name": "transferFrom",
      "outputs": [
        {
          "internalType": "bool",
          "name": "",
          "type": "bool"
        }
      ],
      "stateMutability": "nonpayable",
      "type": "function"
    },
    {
      "inputs": [
        {
          "internalType": "address",
          "name": "newOwner",
          "type": "address"
        }
      ],
      "name": "transferOwnership",
      "outputs": [],
      "stateMutability": "nonpayable",
      "type": "function"
    },
    {
      "inputs": [],
      "name": "underlying",
      "outputs": [
        {
          "internalType": "address",
          "name": "",
          "type": "address"
        }
      ],
      "stateMutability": "view",
      "type": "function"
    }
  ],
  "transactionHash": "0x85a20cf8936ab0b8ceb50c13e2cf1a52571daa402bca357d94b3001aa91d9672",
  "args": [],
  "numDeployments": 1,
  "solcInputHash": "39eb8f31da9b4d9c16abde8f5ab5340d",
  "bytecode": "0x60806040523480156200001157600080fd5b506200001c62000022565b620000e4565b600054610100900460ff16156200008f5760405162461bcd60e51b815260206004820152602760248201527f496e697469616c697a61626c653a20636f6e747261637420697320696e697469604482015266616c697a696e6760c81b606482015260840160405180910390fd5b60005460ff9081161015620000e2576000805460ff191660ff9081179091556040519081527f7f26b83ff96e1f2b6a682f133852f6798a09c465da95921460cefb38474024989060200160405180910390a15b565b61427d80620000f46000396000f3fe608060405234801561001057600080fd5b50600436106103a45760003560e01c80637821a514116101e9578063b2a02ff11161010f578063dd62ed3e116100ad578063f2fde38b1161007c578063f2fde38b146107b4578063f3fdb15a146107c7578063f5e3c462146107da578063f8f9da28146107ed57600080fd5b8063dd62ed3e14610744578063e30c39781461077d578063e8d56b8b1461078e578063ef60450c146107a157600080fd5b8063bd6d894d116100e9578063bd6d894d146106e3578063c37f68e2146106eb578063c5ebeaec1461071e578063db006a751461073157600080fd5b8063b2a02ff1146106b4578063b4a0bdf3146106c7578063bbcac557146106da57600080fd5b80638f840ddd11610187578063a6afed9511610156578063a6afed9514610688578063a9059cbb14610690578063aa5af0fd146106a3578063ae9d70b0146106ac57600080fd5b80638f840ddd1461065157806395d89b411461065a57806395dd919314610662578063a0712d681461067557600080fd5b80638bad38dd116101c35780638bad38dd146106075780638bbdb6db1461061a5780638bcd40161461062d5780638da5cb5b1461064057600080fd5b80637821a514146105d957806379ba5097146105ec578063852a12e3146105f457600080fd5b80633af9e669116102ce5780636752e7021161026c57806370a082311161023b57806370a082311461058d578063715018a6146105b657806373acee98146105be578063757212f0146105c657600080fd5b80636752e7021461055b57806369ab3250146105645780636c540baf1461056c5780636f307dc31461057557600080fd5b806344fe6ffe116102a857806344fe6ffe1461051957806347a0e3b11461052c57806347bd37181461053f5780635fe3b5671461054857600080fd5b80633af9e669146104f65780633b1d21a2146105095780633d9ea3a11461051157600080fd5b8063182df0f51161034657806323323e031161031557806323323e031461049e57806323b872dd146104b15780632608f818146104c4578063313ce567146104d757600080fd5b8063182df0f51461044557806319b1faef1461044d5780631be19560146104785780631c4469831461048b57600080fd5b80630e752702116103825780630e752702146103ff578063173b99041461042057806317bfdfbc1461042957806318160ddd1461043c57600080fd5b806306fdde03146103a957806307e27959146103c7578063095ea7b3146103dc575b600080fd5b6103b16107f5565b6040516103be9190613c11565b60405180910390f35b6103da6103d5366004613c44565b610883565b005b6103ef6103ea366004613c82565b6108da565b60405190151581526020016103be565b61041261040d366004613c44565b610948565b6040519081526020016103be565b610412609f5481565b610412610437366004613cae565b6109a2565b61041260a45481565b6104126109f7565b60ab54610460906001600160a01b031681565b6040516001600160a01b0390911681526020016103be565b6103da610486366004613cae565b610a06565b6103da610499366004613c44565b610b8d565b6104126104ac366004613c82565b610c9f565b6103ef6104bf366004613ccb565b610cf8565b6104126104d2366004613c82565b610d4a565b609a546104e49060ff1681565b60405160ff90911681526020016103be565b610412610504366004613cae565b610da5565b610412610deb565b6103ef600181565b6103da610527366004613ccb565b610df5565b6103da61053a366004613e36565b610fcf565b61041260a25481565b609c54610460906001600160a01b031681565b61041260a95481565b610412600081565b61041260a05481565b6097546104609061010090046001600160a01b031681565b61041261059b366004613cae565b6001600160a01b0316600090815260a6602052604090205490565b6103da6110f4565b610412611108565b6103da6105d4366004613c44565b611154565b6103da6105e7366004613c44565b611300565b6103da61133e565b610412610602366004613c44565b6113b8565b6103da610615366004613cae565b611411565b6103da610628366004613f29565b611445565b6103da61063b366004613cae565b611484565b6033546001600160a01b0316610460565b61041260a35481565b6103b1611559565b610412610670366004613cae565b611566565b610412610683366004613c44565b611577565b6104126115ba565b6103ef61069e366004613c82565b6117a7565b61041260a15481565b6104126117f8565b6103da6106c2366004613ccb565b611890565b60aa54610460906001600160a01b031681565b61041260a55481565b6104126118da565b6106fe6106f9366004613cae565b61192c565b6040805194855260208501939093529183015260608201526080016103be565b61041261072c366004613c44565b61196d565b61041261073f366004613c44565b6119af565b610412610752366004613f91565b6001600160a01b03918216600090815260a76020908152604080832093909416825291909152205490565b6065546001600160a01b0316610460565b6103da61079c366004613cae565b6119f3565b6103da6107af366004613c44565b611a56565b6103da6107c2366004613cae565b611b7d565b609d54610460906001600160a01b031681565b6104126107e8366004613fca565b611bee565b610412611c08565b609880546108029061400c565b80601f016020809104026020016040519081016040528092919081815260200182805461082e9061400c565b801561087b5780601f106108505761010080835404028352916020019161087b565b820191906000526020600020905b81548152906001019060200180831161085e57829003601f168201915b505050505081565b60975460ff166108ae5760405162461bcd60e51b81526004016108a590614046565b60405180910390fd5b6097805460ff191690556108c06115ba565b506108ca81611c5b565b506097805460ff19166001179055565b33600081815260a7602090815260408083206001600160a01b03871680855292528083208590555191929182907f8c5be1e5ebec7d5bd14f71427d1e84f3dd0314c0f7b2291e5b200ac8c7c3b925906109369087815260200190565b60405180910390a35060019392505050565b60975460009060ff1661096d5760405162461bcd60e51b81526004016108a590614046565b6097805460ff1916905561097f6115ba565b5061098b333384611db4565b50600090506097805460ff19166001179055919050565b60975460009060ff166109c75760405162461bcd60e51b81526004016108a590614046565b6097805460ff191690556109d96115ba565b506109e382611f16565b90506097805460ff19166001179055919050565b6000610a01611f6a565b905090565b6033546001600160a01b03163314610a785760405162461bcd60e51b815260206004820152602f60248201527f56546f6b656e3a3a7377656570546f6b656e3a206f6e6c792061646d696e206360448201526e616e20737765657020746f6b656e7360881b60648201526084016108a5565b6097546001600160a01b03610100909104811690821603610af65760405162461bcd60e51b815260206004820152603260248201527f56546f6b656e3a3a7377656570546f6b656e3a2063616e206e6f74207377656560448201527138103ab73232b9363cb4b733903a37b5b2b760711b60648201526084016108a5565b6040516370a0823160e01b81523060048201526000906001600160a01b038316906370a0823190602401602060405180830381865afa158015610b3d573d6000803e3d6000fd5b505050506040513d601f19601f82011682018060405250810190610b61919061406a565b9050610b89610b786033546001600160a01b031690565b6001600160a01b0384169083611fe3565b5050565b60975460ff16610baf5760405162461bcd60e51b81526004016108a590614046565b6097805460ff1916905560aa54604080516318c5e8ab60e01b81523360048201526024810191909152601960448201527f73657452657365727665466163746f722875696e74323536290000000000000060648201526000916001600160a01b0316906318c5e8ab90608401602060405180830381865afa158015610c38573d6000803e3d6000fd5b505050506040513d601f19601f82011682018060405250810190610c5c9190614083565b905080610c7c57604051631205b57b60e11b815260040160405180910390fd5b610c846115ba565b50610c8e8261204b565b50506097805460ff19166001179055565b60975460009060ff16610cc45760405162461bcd60e51b81526004016108a590614046565b6097805460ff19169055610cd66115ba565b50610ce23384846120d4565b5060006097805460ff1916600117905592915050565b60975460009060ff16610d1d5760405162461bcd60e51b81526004016108a590614046565b6097805460ff19169055610d333385858561225b565b5060016097805460ff191660011790559392505050565b60975460009060ff16610d6f5760405162461bcd60e51b81526004016108a590614046565b6097805460ff19169055610d816115ba565b50610d8d338484611db4565b50600090506097805460ff1916600117905592915050565b6000806040518060200160405280610dbb6118da565b90526001600160a01b038416600090815260a66020526040902054909150610de4908290612448565b9392505050565b6000610a01612460565b60975460ff16610e175760405162461bcd60e51b81526004016108a590614046565b6097805460ff19169055609c546001600160a01b03163314610e4c57604051632c40292560e01b815260040160405180910390fd5b6000610e5783611f16565b60a25490915060008315610ebe57610e6f86856124da565b9050610e7b81836140b6565b91507f1a2a22cb034d26d1854bdc6666a5b91fe25efbbb5dcad3b0355478d6f5c362a1868683600086604051610eb59594939291906140cd565b60405180910390a15b6000610eca82856140b6565b90508015610f905760a5546000610ee183836140fe565b9050610eed83866140b6565b60a582905594507f1a2a22cb034d26d1854bdc6666a5b91fe25efbbb5dcad3b0355478d6f5c362a1308985610f22818b6140b6565b89604051610f349594939291906140cd565b60405180910390a1604080516001600160a01b038a16815260208101859052908101839052606081018290527f90125ffdb441e57c4f6bf69789206424859f206bea5727f2d81ad2470826ef6a9060800160405180910390a150505b50506001600160a01b03909316600090815260a86020526040812090815560a15460019182015560a29390935550506097805460ff1916909117905550565b600054610100900460ff1615808015610fef5750600054600160ff909116105b806110095750303b158015611009575060005460ff166001145b61106c5760405162461bcd60e51b815260206004820152602e60248201527f496e697469616c697a61626c653a20636f6e747261637420697320616c72656160448201526d191e481a5b9a5d1a585b1a5e995960921b60648201526084016108a5565b6000805460ff19166001179055801561108f576000805461ff0019166101001790555b6110a18b8b8b8b8b8b8b8b8b8b6125e8565b80156110e7576000805461ff0019169055604051600181527f7f26b83ff96e1f2b6a682f133852f6798a09c465da95921460cefb38474024989060200160405180910390a15b5050505050505050505050565b6110fc612841565b611106600061289b565b565b60975460009060ff1661112d5760405162461bcd60e51b81526004016108a590614046565b6097805460ff1916905561113f6115ba565b505060a2546097805460ff1916600117905590565b60aa54604080516318c5e8ab60e01b81523360048201526024810191909152601e60448201527f73657450726f746f636f6c5365697a6553686172652875696e7432353629000060648201526000916001600160a01b0316906318c5e8ab90608401602060405180830381865afa1580156111d3573d6000803e3d6000fd5b505050506040513d601f19601f820116820180604052508101906111f79190614083565b905080611217576040516321433a4d60e01b815260040160405180910390fd5b609c5460408051634ada90af60e01b815290516000926001600160a01b031691634ada90af9160048083019260209291908290030181865afa158015611261573d6000803e3d6000fd5b505050506040513d601f19601f82011682018060405250810190611285919061406a565b90508061129a84670de0b6b3a76400006140fe565b11156112b95760405163034dd2c160e11b815260040160405180910390fd5b60a980549084905560408051828152602081018690527ff5815f353a60e815cce7553e4f60c533a59d26b1b5504ea4b6db8d60da3e4da2910160405180910390a150505050565b60975460ff166113225760405162461bcd60e51b81526004016108a590614046565b6097805460ff191690556113346115ba565b50610c8e816128b4565b60655433906001600160a01b031681146113ac5760405162461bcd60e51b815260206004820152602960248201527f4f776e61626c6532537465703a2063616c6c6572206973206e6f7420746865206044820152683732bb9037bbb732b960b91b60648201526084016108a5565b6113b58161289b565b50565b60975460009060ff166113dd5760405162461bcd60e51b81526004016108a590614046565b6097805460ff191690556113ef6115ba565b506113fc33600084612942565b5060006097805460ff19166001179055919050565b6033546001600160a01b0316331461143c5760405163d219dc1f60e01b815260040160405180910390fd5b6113b581612bc4565b609c546001600160a01b0316331461147057604051635c85a5e760e01b815260040160405180910390fd5b61147d8585858585612cd6565b5050505050565b60aa54604080516318c5e8ab60e01b81523360048201526024810191909152601d60448201527f736574496e746572657374526174654d6f64656c28616464726573732900000060648201526000916001600160a01b0316906318c5e8ab90608401602060405180830381865afa158015611503573d6000803e3d6000fd5b505050506040513d601f19601f820116820180604052508101906115279190614083565b9050806115475760405163407fded560e01b815260040160405180910390fd5b61154f6115ba565b50610b8982612db7565b609980546108029061400c565b600061157182611f16565b92915050565b60975460009060ff1661159c5760405162461bcd60e51b81526004016108a590614046565b6097805460ff191690556115ae6115ba565b506113fc3333846120d4565b60a05460009043908181036115d25760009250505090565b60006115dc612460565b60a25460a35460a154609d546040516315f2405360e01b81526004810186905260248101859052604481018490529495509293919290916000916001600160a01b0316906315f2405390606401602060405180830381865afa158015611646573d6000803e3d6000fd5b505050506040513d601f19601f8201168201806040525081019061166a919061406a565b905065048c273950008111156116c25760405162461bcd60e51b815260206004820152601c60248201527f626f72726f772072617465206973206162737572646c7920686967680000000060448201526064016108a5565b60006116ce87896140b6565b905060006116ea60405180602001604052808581525083612ef9565b905060006116f88288612448565b9050600061170688836140fe565b905060006117256040518060200160405280609f54815250848a612f2a565b9050600061173485898a612f2a565b60a08e905560a181905560a284905560a3839055604080518d815260208101879052908101829052606081018590529091507f4dec04e750ca11537cabcd8a9eab06494de08da3735bc8871cd41250e190bc049060800160405180910390a160009d505050505050505050505050505090565b60975460009060ff166117cc5760405162461bcd60e51b81526004016108a590614046565b6097805460ff191690556117e23380858561225b565b5060016097805460ff1916600117905592915050565b609d546000906001600160a01b031663b8168816611814612460565b60a25460a354609f546040516001600160e01b031960e087901b16815260048101949094526024840192909252604483015260648201526084015b602060405180830381865afa15801561186c573d6000803e3d6000fd5b505050506040513d601f19601f82011682018060405250810190610a01919061406a565b60975460ff166118b25760405162461bcd60e51b81526004016108a590614046565b6097805460ff191690556118c833848484612f4b565b50506097805460ff1916600117905550565b60975460009060ff166118ff5760405162461bcd60e51b81526004016108a590614046565b6097805460ff191690556119116115ba565b5061191a611f6a565b90506097805460ff1916600117905590565b6001600160a01b038116600090815260a66020526040812054819081908190819061195687611f16565b61195e611f6a565b93509350935093509193509193565b60975460009060ff166119925760405162461bcd60e51b81526004016108a590614046565b6097805460ff191690556119a46115ba565b506113fc3383613187565b60975460009060ff166119d45760405162461bcd60e51b81526004016108a590614046565b6097805460ff191690556119e66115ba565b506113fc33836000612942565b6033546001600160a01b03163314611a4d5760405162461bcd60e51b815260206004820152601e60248201527f6f6e6c792061646d696e2063616e207365742041434c2061646472657373000060448201526064016108a5565b6113b5816132f5565b60ab546001600160a01b03163314611ac45760405162461bcd60e51b815260206004820152602b60248201527f6f6e6c792073686f727466616c6c20636f6e74726163742063616e207570646160448201526a1d1948189859081919589d60aa1b60648201526084016108a5565b60a554811115611b285760405162461bcd60e51b815260206004820152602960248201527f6d6f7265207468616e206261642064656274207265636f76657265642066726f604482015268369030bab1ba34b7b760b91b60648201526084016108a5565b60a5546000611b3783836140b6565b60a581905560408051848152602081018390529192507f9e19ec7d2b8f8a94df8cc0072453ace318d221e3cbb2731d0eaa0baac856520f910160405180910390a1505050565b611b85612841565b606580546001600160a01b0383166001600160a01b03199091168117909155611bb66033546001600160a01b031690565b6001600160a01b03167f38d16b8cac22d99fc7c124b9cd0de2d3fa1faef420bfe791d8c362d765e2270060405160405180910390a350565b6000611bfe338585856000612cd6565b5060009392505050565b609d546000906001600160a01b03166315f24053611c24612460565b60a25460a3546040516001600160e01b031960e086901b16815260048101939093526024830191909152604482015260640161184f565b60004360a05414611c7f57604051630dff50cb60e41b815260040160405180910390fd5b81611c88612460565b1015611ca757604051633345e99960e01b815260040160405180910390fd5b60a354821115611cca576040516378d2980560e11b815260040160405180910390fd5b8160a354611cd891906140b6565b60a3819055609b54909150611cf6906001600160a01b03168361334f565b609b54609c5460975460405163aac59a7560e01b81526001600160a01b0392831660048201526101009091048216602482015291169063aac59a7590604401600060405180830381600087803b158015611d4f57600080fd5b505af1158015611d63573d6000803e3d6000fd5b5050609b546040517f3bad0c59cf2f06e7314077049f48a93578cd16f5ef92329f1dab1420a99c177e9350611da892506001600160a01b039091169085908590614116565b60405180910390a15050565b609c54604051630c2995e960e01b81523060048201526001600160a01b0385811660248301528481166044830152606482018490526000921690630c2995e990608401600060405180830381600087803b158015611e1157600080fd5b505af1158015611e25573d6000803e3d6000fd5b50505050611e304390565b60a05414611e515760405163c9021e2f60e01b815260040160405180910390fd5b6000611e5c84611f16565b90506000818411611e6d5783611e6f565b815b90506000611e7d87836124da565b90506000611e8b82856140b6565b905060008260a254611e9d91906140b6565b6001600160a01b038916600090815260a860205260409081902084815560a15460019091015560a2829055519091507f1a2a22cb034d26d1854bdc6666a5b91fe25efbbb5dcad3b0355478d6f5c362a190611f01908b908b908790879087906140cd565b60405180910390a15090979650505050505050565b6001600160a01b038116600090815260a86020526040812080548203611f3f5750600092915050565b60a1548154600091611f5091614137565b9050816001015481611f629190614156565b949350505050565b60a454600090808203611f7f575050609e5490565b6000611f89612460565b9050600060a35460a55460a25484611fa191906140fe565b611fab91906140fe565b611fb591906140b6565b9050600083611fcc670de0b6b3a764000084614137565b611fd69190614156565b95945050505050565b5090565b6040516001600160a01b03831660248201526044810182905261204690849063a9059cbb60e01b906064015b60408051601f198184030181529190526020810180516001600160e01b03166001600160e01b03199093169290921790915261336b565b505050565b4360a0541461206d57604051637dfca6b760e11b815260040160405180910390fd5b670de0b6b3a76400008111156120965760405163717220f360e11b815260040160405180910390fd5b609f80549082905560408051828152602081018490527faaa68312e2ea9d50e16af5068410ab56e1a1fd06037b1a35664812c30f8214609101611da8565b609c5460405163c0891ba960e01b81526001600160a01b039091169063c0891ba99061210890309086908690600401614178565b600060405180830381600087803b15801561212257600080fd5b505af1158015612136573d6000803e3d6000fd5b505050506121414390565b60a05414612162576040516338d8859760e01b815260040160405180910390fd5b60006040518060200160405280612177611f6a565b90529050600061218785846124da565b90506000612195828461343d565b90508060a4546121a591906140fe565b60a4556001600160a01b038516600090815260a660205260409020546121cc9082906140fe565b6001600160a01b038616600090815260a660205260409081902091909155517f4c209b5fc8ad50758f13e2e1088ba56a560dff690a1c6fef26394f4c03821c4f9061221c90879085908590614116565b60405180910390a16040518181526001600160a01b038616906000906000805160206142288339815191529060200160405180910390a3505050505050565b609c54604051636d0be88d60e01b81523060048201526001600160a01b03858116602483015284811660448301526064820184905290911690636d0be88d90608401600060405180830381600087803b1580156122b757600080fd5b505af11580156122cb573d6000803e3d6000fd5b50505050816001600160a01b0316836001600160a01b03160361230157604051638cd22d1960e01b815260040160405180910390fd5b6000836001600160a01b0316856001600160a01b031603612325575060001961234d565b506001600160a01b03808416600090815260a760209081526040808320938816835292905220545b600061235983836140b6565b6001600160a01b038616600090815260a66020526040812054919250906123819085906140b6565b6001600160a01b038616600090815260a66020526040812054919250906123a99086906140fe565b6001600160a01b03808916600090815260a6602052604080822086905591891681522081905590506000198414612403576001600160a01b03808816600090815260a760209081526040808320938c168352929052208390555b856001600160a01b0316876001600160a01b03166000805160206142288339815191528760405161243691815260200190565b60405180910390a35050505050505050565b6000806124558484612ef9565b9050611f628161345b565b6097546040516370a0823160e01b815230600482015260009161010090046001600160a01b03169081906370a0823190602401602060405180830381865afa1580156124b0573d6000803e3d6000fd5b505050506040513d601f19601f820116820180604052508101906124d4919061406a565b91505090565b6097546040516370a0823160e01b815230600482015260009161010090046001600160a01b031690829082906370a0823190602401602060405180830381865afa15801561252c573d6000803e3d6000fd5b505050506040513d601f19601f82011682018060405250810190612550919061406a565b90506125676001600160a01b038316863087613473565b6040516370a0823160e01b81523060048201526000906001600160a01b038416906370a0823190602401602060405180830381865afa1580156125ae573d6000803e3d6000fd5b505050506040513d601f19601f820116820180604052508101906125d2919061406a565b90506125de82826140b6565b9695505050505050565b600054610100900460ff1661260f5760405162461bcd60e51b81526004016108a59061419c565b61261761349a565b60a054158015612627575060a154155b61267f5760405162461bcd60e51b815260206004820152602360248201527f6d61726b6574206d6179206f6e6c7920626520696e697469616c697a6564206f6044820152626e636560e81b60648201526084016108a5565b612688826132f5565b609e879055866126f35760405162461bcd60e51b815260206004820152603060248201527f696e697469616c2065786368616e67652072617465206d75737420626520677260448201526f32b0ba32b9103a3430b7103d32b9379760811b60648201526084016108a5565b6126fc89612bc4565b4360a055670de0b6b3a764000060a15561271588612db7565b8551612728906098906020890190613b55565b50845161273c906099906020880190613b55565b50609a8054825160ab80546001600160a01b03199081166001600160a01b039384161790915560208086015160ff8a166001600160a81b031990951694909417610100948416850217909455604080860151609b80549093169084161790915566b1a2bc2ec5000060a95560978054610100600160a81b0319168f84168502179081905581516318160ddd60e01b81529151939004909116926318160ddd926004838101938290030181865afa1580156127fa573d6000803e3d6000fd5b505050506040513d601f19601f8201168201806040525081019061281e919061406a565b506097805460ff191660011790556128358361289b565b50505050505050505050565b6033546001600160a01b031633146111065760405162461bcd60e51b815260206004820181905260248201527f4f776e61626c653a2063616c6c6572206973206e6f7420746865206f776e657260448201526064016108a5565b606580546001600160a01b03191690556113b5816134c9565b600080804360a054146128dd576040516338acf79960e01b8152600481018290526024016108a5565b6128e733856124da565b90508060a3546128f791906140fe565b91508160a3819055507fa91e67c5ea634cd43a12c5a482724b03de01e85ca68702a53d0c2f45cb7c1dc533828460405161293393929190614116565b60405180910390a19392505050565b81158061294d575080155b6129b65760405162461bcd60e51b815260206004820152603460248201527f6f6e65206f662072656465656d546f6b656e73496e206f722072656465656d416044820152736d6f756e74496e206d757374206265207a65726f60601b60648201526084016108a5565b4360a054146129d8576040516397b5cfcd60e01b815260040160405180910390fd5b600060405180602001604052806129ed611f6a565b905290506000808415612a0e57849150612a078386612448565b9050612a1e565b612a18848461343d565b91508390505b81158015612a2c5750600081115b15612a6d5760405162461bcd60e51b815260206004820152601160248201527072656465656d546f6b656e73207a65726f60781b60448201526064016108a5565b609c54604051634732387560e11b81526001600160a01b0390911690638e6470ea90612aa19030908a908790600401614178565b600060405180830381600087803b158015612abb57600080fd5b505af1158015612acf573d6000803e3d6000fd5b5050505080612adc612460565b1015612afb576040516391240a1b60e01b815260040160405180910390fd5b8160a454612b0991906140b6565b60a4556001600160a01b038616600090815260a66020526040902054612b309083906140b6565b6001600160a01b038716600090815260a66020526040902055612b53868261334f565b60405182815230906001600160a01b038816906000805160206142288339815191529060200160405180910390a37fe5b754fb1abb7f01b499791d0b820ae3b6af3424ac1c59768edb53f4ec31a929868284604051612bb493929190614116565b60405180910390a1505050505050565b609c5460408051623f1ee960e11b815290516001600160a01b0392831692841691627e3dd29160048083019260209291908290030181865afa158015612c0e573d6000803e3d6000fd5b505050506040513d601f19601f82011682018060405250810190612c329190614083565b612c7e5760405162461bcd60e51b815260206004820152601c60248201527f6d61726b6572206d6574686f642072657475726e65642066616c73650000000060448201526064016108a5565b609c80546001600160a01b0319166001600160a01b0384811691821790925560408051928416835260208301919091527f7ac369dbd14fa5ea3f473ed67cc9d598964a77501540ba6751eb0b3decf5870d9101611da8565b60975460ff16612cf85760405162461bcd60e51b81526004016108a590614046565b6097805460ff19169055612d0a6115ba565b506000826001600160a01b031663a6afed956040518163ffffffff1660e01b81526004016020604051808303816000875af1158015612d4d573d6000803e3d6000fd5b505050506040513d601f19601f82011682018060405250810190612d71919061406a565b90508015612d9557604051633eea49b760e11b8152600481018290526024016108a5565b612da2868686868661351b565b50506097805460ff1916600117905550505050565b60004360a05414612ddb57604051630be2a5cb60e11b815260040160405180910390fd5b609d60009054906101000a90046001600160a01b03169050816001600160a01b0316632191f92a6040518163ffffffff1660e01b8152600401602060405180830381865afa158015612e31573d6000803e3d6000fd5b505050506040513d601f19601f82011682018060405250810190612e559190614083565b612ea15760405162461bcd60e51b815260206004820152601c60248201527f6d61726b6572206d6574686f642072657475726e65642066616c73650000000060448201526064016108a5565b609d80546001600160a01b0319166001600160a01b0384811691821790925560408051928416835260208301919091527fedffc32e068c7c95dfd4bdfd5c4d939a084d6b11c4199eac8436ed234d72f9269101611da8565b6040805160208101909152600081526040518060200160405280612f21856000015185613956565b90529392505050565b600080612f378585612ef9565b9050611fd6612f458261345b565b84613962565b609c54604051637666d5e360e11b81523060048201526001600160a01b03868116602483015285811660448301528481166064830152608482018490529091169063eccdabc69060a401600060405180830381600087803b158015612faf57600080fd5b505af1158015612fc3573d6000803e3d6000fd5b50505050826001600160a01b0316826001600160a01b031603612ff957604051633a94626760e11b815260040160405180910390fd5b600061301582604051806020016040528060a95481525061396e565b9050600061302382846140b6565b90506000604051806020016040528061303a611f6a565b90529050600061304a8285612448565b905060008160a35461305c91906140fe565b60a381905560a4549091506130729086906140b6565b60a4556001600160a01b038716600090815260a660205260409020546130999087906140b6565b6001600160a01b03808916600090815260a6602052604080822093909355908a16815220546130c99085906140fe565b6001600160a01b03808a16600081815260a6602052604090819020939093559151908916906000805160206142288339815191529061310b9088815260200190565b60405180910390a360405185815230906001600160a01b038916906000805160206142288339815191529060200160405180910390a37fa91e67c5ea634cd43a12c5a482724b03de01e85ca68702a53d0c2f45cb7c1dc530838360405161317493929190614116565b60405180910390a1505050505050505050565b609c5460405163df71403b60e01b81526001600160a01b039091169063df71403b906131bb90309086908690600401614178565b600060405180830381600087803b1580156131d557600080fd5b505af11580156131e9573d6000803e3d6000fd5b505050506131f44390565b60a0541461321557604051630e8d8c6160e21b815260040160405180910390fd5b8061321e612460565b101561323d576040516348c2588160e01b815260040160405180910390fd5b600061324883611f16565b9050600061325683836140fe565b905060008360a25461326891906140fe565b6001600160a01b038616600090815260a86020526040902083815560a15460019091015560a2819055905061329d858561334f565b604080516001600160a01b038716815260208101869052908101839052606081018290527f13ed6866d4e1ee6da46f845c46d7e54120883d75c5ea9a2dacc1c4ca8984ab809060800160405180910390a15050505050565b60aa80546001600160a01b038381166001600160a01b031983168117909355604080519190921680825260208201939093527f66fd58e82f7b31a2a5c30e0888f3093efe4e111b00cd2b0c31fe014601293aa09101611da8565b60975461010090046001600160a01b0316612046818484611fe3565b60006133c0826040518060400160405280602081526020017f5361666545524332303a206c6f772d6c6576656c2063616c6c206661696c6564815250856001600160a01b03166139919092919063ffffffff16565b80519091501561204657808060200190518101906133de9190614083565b6120465760405162461bcd60e51b815260206004820152602a60248201527f5361666545524332303a204552433230206f7065726174696f6e20646964206e6044820152691bdd081cdd58d8d9595960b21b60648201526084016108a5565b6000610de461345484670de0b6b3a7640000613956565b83516139a0565b805160009061157190670de0b6b3a764000090614156565b613494846323b872dd60e01b85858560405160240161200f93929190614178565b50505050565b600054610100900460ff166134c15760405162461bcd60e51b81526004016108a59061419c565b6111066139ac565b603380546001600160a01b038381166001600160a01b0319831681179093556040519116919082907f8be0079c531659141344cd1fd0a4f28419497f9722a3daafe3b4186f6b6457e090600090a35050565b609c54604051637eca7def60e01b81523060048201526001600160a01b038481166024830152878116604483015286811660648301526084820186905283151560a483015290911690637eca7def9060c401600060405180830381600087803b15801561358757600080fd5b505af115801561359b573d6000803e3d6000fd5b505050506135a64390565b60a054146135c7576040516380965b1b60e01b815260040160405180910390fd5b43826001600160a01b0316636c540baf6040518163ffffffff1660e01b8152600401602060405180830381865afa158015613606573d6000803e3d6000fd5b505050506040513d601f19601f8201168201806040525081019061362a919061406a565b1461364857604051631046f38d60e31b815260040160405180910390fd5b846001600160a01b0316846001600160a01b03160361367a57604051631bd1a62160e21b815260040160405180910390fd5b8260000361369b5760405163d29da7ef60e01b815260040160405180910390fd5b60001983036136bd57604051635982c5bb60e11b815260040160405180910390fd5b60006136ca868686611db4565b609c5460405163c488847b60e01b815291925060009182916001600160a01b03169063c488847b9061370490309089908890600401614178565b6040805180830381865afa158015613720573d6000803e3d6000fd5b505050506040513d601f19601f8201168201806040525081019061374491906141e7565b91509150600082146137b45760405162461bcd60e51b815260206004820152603360248201527f4c49515549444154455f434f4d5054524f4c4c45525f43414c43554c4154455f604482015272105353d5539517d4d152569157d19052531151606a1b60648201526084016108a5565b6040516370a0823160e01b81526001600160a01b0388811660048301528291908716906370a0823190602401602060405180830381865afa1580156137fd573d6000803e3d6000fd5b505050506040513d601f19601f82011682018060405250810190613821919061406a565b101561386f5760405162461bcd60e51b815260206004820152601860248201527f4c49515549444154455f5345495a455f544f4f5f4d554348000000000000000060448201526064016108a5565b306001600160a01b038616036138905761388b30898984612f4b565b6138f3565b60405163b2a02ff160e01b81526001600160a01b0386169063b2a02ff1906138c0908b908b908690600401614178565b600060405180830381600087803b1580156138da57600080fd5b505af11580156138ee573d6000803e3d6000fd5b505050505b604080516001600160a01b038a811682528981166020830152818301869052871660608201526080810183905290517f298637f684da70674f26509b10f07ec2fbc77a335ab1e7d6215a4b2484d8bb529181900360a00190a15050505050505050565b6000610de48284614137565b6000610de482846140fe565b6000670de0b6b3a7640000613987848460000151613956565b610de49190614156565b6060611f6284846000856139dc565b6000610de48284614156565b600054610100900460ff166139d35760405162461bcd60e51b81526004016108a59061419c565b6111063361289b565b606082471015613a3d5760405162461bcd60e51b815260206004820152602660248201527f416464726573733a20696e73756666696369656e742062616c616e636520666f6044820152651c8818d85b1b60d21b60648201526084016108a5565b600080866001600160a01b03168587604051613a59919061420b565b60006040518083038185875af1925050503d8060008114613a96576040519150601f19603f3d011682016040523d82523d6000602084013e613a9b565b606091505b5091509150613aac87838387613ab7565b979650505050505050565b60608315613b26578251600003613b1f576001600160a01b0385163b613b1f5760405162461bcd60e51b815260206004820152601d60248201527f416464726573733a2063616c6c20746f206e6f6e2d636f6e747261637400000060448201526064016108a5565b5081611f62565b611f628383815115613b3b5781518083602001fd5b8060405162461bcd60e51b81526004016108a59190613c11565b828054613b619061400c565b90600052602060002090601f016020900481019282613b835760008555613bc9565b82601f10613b9c57805160ff1916838001178555613bc9565b82800160010185558215613bc9579182015b82811115613bc9578251825591602001919060010190613bae565b50611fdf9291505b80821115611fdf5760008155600101613bd1565b60005b83811015613c00578181015183820152602001613be8565b838111156134945750506000910152565b6020815260008251806020840152613c30816040850160208701613be5565b601f01601f19169190910160400192915050565b600060208284031215613c5657600080fd5b5035919050565b6001600160a01b03811681146113b557600080fd5b8035613c7d81613c5d565b919050565b60008060408385031215613c9557600080fd5b8235613ca081613c5d565b946020939093013593505050565b600060208284031215613cc057600080fd5b8135610de481613c5d565b600080600060608486031215613ce057600080fd5b8335613ceb81613c5d565b92506020840135613cfb81613c5d565b929592945050506040919091013590565b634e487b7160e01b600052604160045260246000fd5b600082601f830112613d3357600080fd5b813567ffffffffffffffff80821115613d4e57613d4e613d0c565b604051601f8301601f19908116603f01168101908282118183101715613d7657613d76613d0c565b81604052838152866020858801011115613d8f57600080fd5b836020870160208301376000602085830101528094505050505092915050565b803560ff81168114613c7d57600080fd5b600060608284031215613dd257600080fd5b6040516060810181811067ffffffffffffffff82111715613df557613df5613d0c565b6040529050808235613e0681613c5d565b81526020830135613e1681613c5d565b60208201526040830135613e2981613c5d565b6040919091015292915050565b6000806000806000806000806000806101808b8d031215613e5657600080fd5b613e5f8b613c72565b9950613e6d60208c01613c72565b9850613e7b60408c01613c72565b975060608b0135965060808b013567ffffffffffffffff80821115613e9f57600080fd5b613eab8e838f01613d22565b975060a08d0135915080821115613ec157600080fd5b50613ece8d828e01613d22565b955050613edd60c08c01613daf565b9350613eeb60e08c01613c72565b9250613efa6101008c01613c72565b9150613f0a8c6101208d01613dc0565b90509295989b9194979a5092959850565b80151581146113b557600080fd5b600080600080600060a08688031215613f4157600080fd5b8535613f4c81613c5d565b94506020860135613f5c81613c5d565b9350604086013592506060860135613f7381613c5d565b91506080860135613f8381613f1b565b809150509295509295909350565b60008060408385031215613fa457600080fd5b8235613faf81613c5d565b91506020830135613fbf81613c5d565b809150509250929050565b600080600060608486031215613fdf57600080fd5b8335613fea81613c5d565b925060208401359150604084013561400181613c5d565b809150509250925092565b600181811c9082168061402057607f821691505b60208210810361404057634e487b7160e01b600052602260045260246000fd5b50919050565b6020808252600a90820152691c994b595b9d195c995960b21b604082015260600190565b60006020828403121561407c57600080fd5b5051919050565b60006020828403121561409557600080fd5b8151610de481613f1b565b634e487b7160e01b600052601160045260246000fd5b6000828210156140c8576140c86140a0565b500390565b6001600160a01b03958616815293909416602084015260408301919091526060820152608081019190915260a00190565b60008219821115614111576141116140a0565b500190565b6001600160a01b039390931683526020830191909152604082015260600190565b6000816000190483118215151615614151576141516140a0565b500290565b60008261417357634e487b7160e01b600052601260045260246000fd5b500490565b6001600160a01b039384168152919092166020820152604081019190915260600190565b6020808252602b908201527f496e697469616c697a61626c653a20636f6e7472616374206973206e6f74206960408201526a6e697469616c697a696e6760a81b606082015260800190565b600080604083850312156141fa57600080fd5b505080516020909101519092909150565b6000825161421d818460208701613be5565b919091019291505056feddf252ad1be2c89b69c2b068fc378daa952ba7f163c4a11628f55a4df523b3efa2646970667358221220fa1363b812bb2e7b47797b49218d2dee0a11a758b12f8a5c46bef3aa5aabfefe64736f6c634300080d0033",
  "devdoc": {
    "author": "Venus Dev Team",
    "kind": "dev",
    "methods": {
      "acceptOwnership()": {
        "details": "The new owner accepts the ownership transfer."
      },
      "accrueInterest()": {
        "custom:access": "Not restricted",
        "custom:events": "Emits AccrueInterest event on success",
        "details": "This calculates interest accrued from the last checkpointed block   up to the current block and writes new checkpoint to storage.",
        "returns": {
          "_0": "Always NO_ERROR"
        }
      },
      "addReserves(uint256)": {
        "custom:access": "Not restricted",
        "custom:events": "Emits ReservesAdded event; may emit AccrueInterest",
        "params": {
          "addAmount": "The amount fo underlying token to add as reserves"
        }
      },
      "allowance(address,address)": {
        "params": {
          "owner": "The address of the account which owns the tokens to be spent",
          "spender": "The address of the account which may transfer tokens"
        },
        "returns": {
          "_0": "amount The number of tokens allowed to be spent (-1 means infinite)"
        }
      },
      "approve(address,uint256)": {
        "custom:access": "Not restricted",
        "custom:events": "Emits Approval event",
        "details": "This will overwrite the approval amount for `spender`  and is subject to issues noted [here](https://eips.ethereum.org/EIPS/eip-20#approve)",
        "params": {
          "amount": "The number of tokens that are approved (uint256.max means infinite)",
          "spender": "The address of the account which may transfer tokens"
        },
        "returns": {
          "_0": "success Whether or not the approval succeeded"
        }
      },
      "badDebtRecovered(uint256)": {
        "custom:access": "Only Shortfall contract",
        "custom:events": "Emits BadDebtRecovered event",
        "details": "Called only when bad debt is recovered from auction",
        "params": {
          "recoveredAmount_": "The amount of bad debt recovered"
        }
      },
      "balanceOf(address)": {
        "params": {
          "owner": "The address of the account to query"
        },
        "returns": {
          "_0": "amount The number of tokens owned by `owner`"
        }
      },
      "balanceOfUnderlying(address)": {
        "details": "This also accrues interest in a transaction",
        "params": {
          "owner": "The address of the account to query"
        },
        "returns": {
          "_0": "amount The amount of underlying owned by `owner`"
        }
      },
      "borrow(uint256)": {
        "custom:access": "Not restricted",
        "custom:error": "BorrowCashNotAvailable is thrown when the protocol has insufficient cash",
        "custom:events": "Emits Borrow event; may emit AccrueInterest",
        "params": {
          "borrowAmount": "The amount of the underlying asset to borrow"
        },
        "returns": {
          "_0": "error Always NO_ERROR for compatilibily with Venus core tooling"
        }
      },
      "borrowBalanceCurrent(address)": {
        "params": {
          "account": "The address whose balance should be calculated after updating borrowIndex"
        },
        "returns": {
          "_0": "borrowBalance The calculated balance"
        }
      },
      "borrowBalanceStored(address)": {
        "params": {
          "account": "The address whose balance should be calculated"
        },
        "returns": {
          "_0": "borrowBalance The calculated balance"
        }
      },
      "borrowRatePerBlock()": {
        "returns": {
          "_0": "rate The borrow interest rate per block, scaled by 1e18"
        }
      },
      "constructor": {
        "custom:oz-upgrades-unsafe-allow": "constructor"
      },
      "exchangeRateCurrent()": {
        "returns": {
          "_0": "exchangeRate Calculated exchange rate scaled by 1e18"
        }
      },
      "exchangeRateStored()": {
        "details": "This function does not accrue interest before calculating the exchange rate",
        "returns": {
          "_0": "exchangeRate Calculated exchange rate scaled by 1e18"
        }
      },
      "forceLiquidateBorrow(address,address,uint256,address,bool)": {
        "custom:access": "Only Comptroller",
        "custom:error": "ForceLiquidateBorrowUnauthorized is thrown when the request does not come from ComptrollerLiquidateAccrueCollateralInterestFailed is thrown when it is not possible to accrue interest on the collateral vTokenLiquidateCollateralFreshnessCheck is thrown when interest has not been accrued on the collateral vTokenLiquidateLiquidatorIsBorrower is thrown when trying to liquidate selfLiquidateCloseAmountIsZero is thrown when repayment amount is zeroLiquidateCloseAmountIsUintMax is thrown when repayment amount is UINT_MAX",
        "custom:events": "Emits LiquidateBorrow event; may emit AccrueInterest",
        "params": {
          "borrower": "The borrower of this vToken to be liquidated",
          "liquidator": "The address repaying the borrow and seizing collateral",
          "repayAmount": "The amount of the underlying borrowed asset to repay",
          "skipLiquidityCheck": "If set to true, allows to liquidate up to 100% of the borrow   regardless of the account liquidity",
          "vTokenCollateral": "The market in which to seize collateral from the borrower"
        }
      },
      "getAccountSnapshot(address)": {
        "details": "This is used by comptroller to more efficiently perform liquidity checks.",
        "params": {
          "account": "Address of the account to snapshot"
        },
        "returns": {
          "borrowBalance": "Amount owed in terms of underlying",
          "error": "Always NO_ERROR for compatilibily with Venus core tooling",
          "exchangeRate": "Stored exchange rate",
          "vTokenBalance": "User's balance of vTokens"
        }
      },
      "getCash()": {
        "returns": {
          "_0": "cash The quantity of underlying asset owned by this contract"
        }
      },
      "healBorrow(address,address,uint256)": {
        "custom:access": "Only Comptroller",
        "custom:error": "HealBorrowUnauthorized is thrown when the request does not come from Comptroller",
        "custom:events": "Emits RepayBorrow, BadDebtIncreased events; may emit AccrueInterest",
        "details": "This function does not call any Comptroller hooks (like \"healAllowed\"), because we assume   the Comptroller does all the necessary checks before calling this function.",
        "params": {
          "borrower": "account to heal",
          "payer": "account who repays the debt",
          "repayAmount": "amount to repay"
        }
      },
      "initialize(address,address,address,uint256,string,string,uint8,address,address,(address,address,address))": {
        "params": {
          "admin_": "Address of the administrator of this token",
          "comptroller_": "The address of the Comptroller",
          "decimals_": "ERC-20 decimal precision of this token",
          "initialExchangeRateMantissa_": "The initial exchange rate, scaled by 1e18",
          "interestRateModel_": "The address of the interest rate model",
          "name_": "ERC-20 name of this token",
          "riskManagement": "Addresses of risk fund contracts",
          "symbol_": "ERC-20 symbol of this token",
          "underlying_": "The address of the underlying asset"
        }
      },
      "liquidateBorrow(address,uint256,address)": {
        "custom:access": "Not restricted",
        "custom:error": "LiquidateAccrueCollateralInterestFailed is thrown when it is not possible to accrue interest on the collateral vTokenLiquidateCollateralFreshnessCheck is thrown when interest has not been accrued on the collateral vTokenLiquidateLiquidatorIsBorrower is thrown when trying to liquidate selfLiquidateCloseAmountIsZero is thrown when repayment amount is zeroLiquidateCloseAmountIsUintMax is thrown when repayment amount is UINT_MAX",
        "custom:events": "Emits LiquidateBorrow event; may emit AccrueInterest",
        "params": {
          "borrower": "The borrower of this vToken to be liquidated",
          "repayAmount": "The amount of the underlying borrowed asset to repay",
          "vTokenCollateral": "The market in which to seize collateral from the borrower"
        },
        "returns": {
          "_0": "error Always NO_ERROR for compatilibily with Venus core tooling"
        }
      },
      "mint(uint256)": {
        "custom:access": "Not restricted",
        "custom:events": "Emits Mint and Transfer events; may emit AccrueInterest",
        "details": "Accrues interest whether or not the operation succeeds, unless reverted",
        "params": {
          "mintAmount": "The amount of the underlying asset to supply"
        },
        "returns": {
          "_0": "error Always NO_ERROR for compatilibily with Venus core tooling"
        }
      },
      "mintBehalf(address,uint256)": {
        "custom:access": "Not restricted",
        "custom:events": "Emits Mint and Transfer events; may emit AccrueInterest",
        "details": "Accrues interest whether or not the operation succeeds, unless reverted",
        "params": {
          "mintAmount": "The amount of the underlying asset to supply"
        },
        "returns": {
          "_0": "error Always NO_ERROR for compatilibily with Venus core tooling"
        }
      },
      "owner()": {
        "details": "Returns the address of the current owner."
      },
      "pendingOwner()": {
        "details": "Returns the address of the pending owner."
      },
      "redeem(uint256)": {
        "custom:access": "Not restricted",
        "custom:error": "RedeemTransferOutNotPossible is thrown when the protocol has insufficient cash",
        "custom:events": "Emits Redeem and Transfer events; may emit AccrueInterest",
        "details": "Accrues interest whether or not the operation succeeds, unless reverted",
        "params": {
          "redeemTokens": "The number of vTokens to redeem into underlying"
        },
        "returns": {
          "_0": "error Always NO_ERROR for compatilibily with Venus core tooling"
        }
      },
      "redeemUnderlying(uint256)": {
        "details": "Accrues interest whether or not the operation succeeds, unless reverted",
        "params": {
          "redeemAmount": "The amount of underlying to receive from redeeming vTokens"
        },
        "returns": {
          "_0": "error Always NO_ERROR for compatilibily with Venus core tooling"
        }
      },
      "reduceReserves(uint256)": {
        "custom:access": "Not restricted",
        "custom:error": "ReduceReservesCashNotAvailable is thrown when the vToken does not have sufficient cashReduceReservesCashValidation is thrown when trying to withdraw more cash than the reserves have",
        "custom:events": "Emits ReservesReduced event; may emit AccrueInterest",
        "params": {
          "reduceAmount": "Amount of reduction to reserves"
        }
      },
      "renounceOwnership()": {
        "details": "Leaves the contract without owner. It will not be possible to call `onlyOwner` functions anymore. Can only be called by the current owner. NOTE: Renouncing ownership will leave the contract without an owner, thereby removing any functionality that is only available to the owner."
      },
      "repayBorrow(uint256)": {
        "custom:access": "Not restricted",
        "custom:events": "Emits RepayBorrow event; may emit AccrueInterest",
        "params": {
          "repayAmount": "The amount to repay, or -1 for the full outstanding amount"
        },
        "returns": {
          "_0": "error Always NO_ERROR for compatilibily with Venus core tooling"
        }
      },
      "repayBorrowBehalf(address,uint256)": {
        "custom:access": "Not restricted",
        "custom:events": "Emits RepayBorrow event; may emit AccrueInterest",
        "params": {
          "borrower": "the account with the debt being payed off",
          "repayAmount": "The amount to repay, or -1 for the full outstanding amount"
        },
        "returns": {
          "_0": "error Always NO_ERROR for compatilibily with Venus core tooling"
        }
      },
      "seize(address,address,uint256)": {
        "custom:access": "Not restricted",
        "custom:error": "LiquidateSeizeLiquidatorIsBorrower is thrown when trying to liquidate self",
        "custom:events": "Emits Transfer, ReservesAdded events",
        "details": "Will fail unless called by another vToken during the process of liquidation.  Its absolutely critical to use msg.sender as the borrowed vToken and not a parameter.",
        "params": {
          "borrower": "The account having collateral seized",
          "liquidator": "The account receiving seized collateral",
          "seizeTokens": "The number of vTokens to seize"
        }
      },
      "setAccessControlAddress(address)": {
        "custom:access": "Only Governance",
        "custom:events": "Emits NewAccessControlManager event",
        "details": "Admin function to set address of AccessControlManager",
        "params": {
          "newAccessControlManager": "The new address of the AccessControlManager"
        }
      },
      "setComptroller(address)": {
        "custom:access": "Only Governance",
        "custom:error": "SetComptrollerOwnerCheck is thrown when the call is not from owner",
        "custom:events": "Emits NewComptroller event",
        "details": "Admin function to set a new comptroller"
      },
      "setInterestRateModel(address)": {
        "custom:access": "Controlled by AccessControlManager",
        "custom:error": "SetInterestRateModelOwnerCheck is thrown when the call is not authorized by AccessControlManager",
        "custom:events": "Emits NewMarketInterestRateModel event; may emit AccrueInterest",
        "details": "Admin function to accrue interest and update the interest rate model",
        "params": {
          "newInterestRateModel": "the new interest rate model to use"
        }
      },
      "setProtocolSeizeShare(uint256)": {
        "custom:access": "Controlled by AccessControlManager",
        "custom:error": "SetProtocolSeizeShareUnauthorized is thrown when the call is not authorized by AccessControlManagerProtocolSeizeShareTooBig is thrown when the new seize share is too high",
        "custom:events": "Emits NewProtocolSeizeShare event on success",
        "details": "must be less than liquidation incentive - 1",
        "params": {
          "newProtocolSeizeShareMantissa_": "new protocol share mantissa"
        }
      },
      "setReserveFactor(uint256)": {
        "custom:access": "Controlled by AccessControlManager",
        "custom:error": "SetReserveFactorAdminCheck is thrown when the call is not authorized by AccessControlManagerSetReserveFactorBoundsCheck is thrown when the new reserve factor is too high",
        "custom:events": "Emits NewReserveFactor event; may emit AccrueInterest",
        "details": "Admin function to accrue interest and set a new reserve factor"
      },
      "supplyRatePerBlock()": {
        "returns": {
          "_0": "rate The supply interest rate per block, scaled by 1e18"
        }
      },
      "sweepToken(address)": {
        "custom:access": "Only Governance",
        "params": {
          "token": "The address of the ERC-20 token to sweep"
        }
      },
      "totalBorrowsCurrent()": {
        "returns": {
          "_0": "totalBorrows The total borrows with interest"
        }
      },
      "transfer(address,uint256)": {
        "custom:access": "Not restricted",
        "custom:error": "TransferNotAllowed is thrown if trying to transfer to self",
        "custom:events": "Emits Transfer event on success",
        "params": {
          "amount": "The number of tokens to transfer",
          "dst": "The address of the destination account"
        },
        "returns": {
          "_0": "success True if the transfer suceeded, reverts otherwise"
        }
      },
      "transferFrom(address,address,uint256)": {
        "custom:access": "Not restricted",
        "custom:error": "TransferNotAllowed is thrown if trying to transfer to self",
        "custom:events": "Emits Transfer event on success",
        "params": {
          "amount": "The number of tokens to transfer",
          "dst": "The address of the destination account",
          "src": "The address of the source account"
        },
        "returns": {
          "_0": "success True if the transfer suceeded, reverts otherwise"
        }
      },
      "transferOwnership(address)": {
        "details": "Starts the ownership transfer of the contract to a new account. Replaces the pending transfer if there is one. Can only be called by the current owner."
      }
    },
    "title": "Venus VToken Contract",
    "version": 1
  },
  "userdoc": {
    "events": {
      "AccrueInterest(uint256,uint256,uint256,uint256)": {
        "notice": "Event emitted when interest is accrued"
      },
      "Approval(address,address,uint256)": {
        "notice": "EIP20 Approval event"
      },
      "BadDebtIncreased(address,uint256,uint256,uint256)": {
        "notice": "Event emitted when bad debt is accumulated on a market"
      },
      "BadDebtRecovered(uint256,uint256)": {
        "notice": "Event emitted when bad debt is recovered via an auction"
      },
      "Borrow(address,uint256,uint256,uint256)": {
        "notice": "Event emitted when underlying is borrowed"
      },
      "LiquidateBorrow(address,address,uint256,address,uint256)": {
        "notice": "Event emitted when a borrow is liquidated"
      },
      "Mint(address,uint256,uint256)": {
        "notice": "Event emitted when tokens are minted"
      },
      "NewAccessControlManager(address,address)": {
        "notice": "Event emitted when comptroller is changed"
      },
      "NewComptroller(address,address)": {
        "notice": "Event emitted when comptroller is changed"
      },
      "NewMarketInterestRateModel(address,address)": {
        "notice": "Event emitted when interestRateModel is changed"
      },
      "NewProtocolSeizeShare(uint256,uint256)": {
        "notice": "Event emitted when protocol seize share is changed"
      },
      "NewReserveFactor(uint256,uint256)": {
        "notice": "Event emitted when the reserve factor is changed"
      },
      "Redeem(address,uint256,uint256)": {
        "notice": "Event emitted when tokens are redeemed"
      },
      "RepayBorrow(address,address,uint256,uint256,uint256)": {
        "notice": "Event emitted when a borrow is repaid"
      },
      "ReservesAdded(address,uint256,uint256)": {
        "notice": "Event emitted when the reserves are added"
      },
      "ReservesReduced(address,uint256,uint256)": {
        "notice": "Event emitted when the reserves are reduced"
      },
      "Transfer(address,address,uint256)": {
        "notice": "EIP20 Transfer event"
      }
    },
    "kind": "user",
    "methods": {
      "accessControlManager()": {
        "notice": "Storage of AccessControlManager"
      },
      "accrualBlockNumber()": {
        "notice": "Block number that interest was last accrued at"
      },
      "accrueInterest()": {
        "notice": "Applies accrued interest to total borrows and reserves"
      },
      "addReserves(uint256)": {
        "notice": "The sender adds to reserves."
      },
      "allowance(address,address)": {
        "notice": "Get the current allowance from `owner` for `spender`"
      },
      "approve(address,uint256)": {
        "notice": "Approve `spender` to transfer up to `amount` from `src`"
      },
      "badDebt()": {
        "notice": "Total bad debt of the market"
      },
      "badDebtRecovered(uint256)": {
        "notice": "Updates bad debt"
      },
      "balanceOf(address)": {
        "notice": "Get the token balance of the `owner`"
      },
      "balanceOfUnderlying(address)": {
        "notice": "Get the underlying balance of the `owner`"
      },
      "borrow(uint256)": {
        "notice": "Sender borrows assets from the protocol to their own address"
      },
      "borrowBalanceCurrent(address)": {
        "notice": "Accrue interest to updated borrowIndex and then calculate account's borrow balance using the updated borrowIndex"
      },
      "borrowBalanceStored(address)": {
        "notice": "Return the borrow balance of account based on stored data"
      },
      "borrowIndex()": {
        "notice": "Accumulator of the total earned interest rate since the opening of the market"
      },
      "borrowRatePerBlock()": {
        "notice": "Returns the current per-block borrow interest rate for this vToken"
      },
      "comptroller()": {
        "notice": "Contract which oversees inter-vToken operations"
      },
      "decimals()": {
        "notice": "EIP-20 token decimals for this token"
      },
      "exchangeRateCurrent()": {
        "notice": "Accrue interest then return the up-to-date exchange rate"
      },
      "exchangeRateStored()": {
        "notice": "Calculates the exchange rate from the underlying to the VToken"
      },
      "forceLiquidateBorrow(address,address,uint256,address,bool)": {
        "notice": "The extended version of liquidations, callable only by Comptroller. May skip  the close factor check. The collateral seized is transferred to the liquidator."
      },
      "getAccountSnapshot(address)": {
        "notice": "Get a snapshot of the account's balances, and the cached exchange rate"
      },
      "getCash()": {
        "notice": "Get cash balance of this vToken in the underlying asset"
      },
      "healBorrow(address,address,uint256)": {
        "notice": "Repays a certain amount of debt, treats the rest of the borrow as bad debt, essentially   \"forgiving\" the borrower. Healing is a situation that should rarely happen. However, some pools   may list risky assets or be configured improperly  we want to still handle such cases gracefully.   We assume that Comptroller does the seizing, so this function is only available to Comptroller."
      },
      "initialize(address,address,address,uint256,string,string,uint8,address,address,(address,address,address))": {
        "notice": "Construct a new money market"
      },
      "interestRateModel()": {
        "notice": "Model which tells what the current interest rate should be"
      },
      "isVToken()": {
        "notice": "Indicator that this is a VToken contract (for inspection)"
      },
      "liquidateBorrow(address,uint256,address)": {
        "notice": "The sender liquidates the borrowers collateral.  The collateral seized is transferred to the liquidator."
      },
      "mint(uint256)": {
        "notice": "Sender supplies assets into the market and receives vTokens in exchange"
      },
      "mintBehalf(address,uint256)": {
        "notice": "Sender calls on-behalf of minter. minter supplies assets into the market and receives vTokens in exchange"
      },
      "name()": {
        "notice": "EIP-20 token name for this token"
      },
      "protocolSeizeShareMantissa()": {
        "notice": "Share of seized collateral that is added to reserves"
      },
      "redeem(uint256)": {
        "notice": "Sender redeems vTokens in exchange for the underlying asset"
      },
      "redeemUnderlying(uint256)": {
        "notice": "Sender redeems vTokens in exchange for a specified amount of underlying asset"
      },
      "reduceReserves(uint256)": {
        "notice": "Accrues interest and reduces reserves by transferring to the protocol reserve contract"
      },
      "repayBorrow(uint256)": {
        "notice": "Sender repays their own borrow"
      },
      "repayBorrowBehalf(address,uint256)": {
        "notice": "Sender repays a borrow belonging to borrower"
      },
      "reserveFactorMantissa()": {
        "notice": "Fraction of interest currently set aside for reserves"
      },
      "seize(address,address,uint256)": {
        "notice": "Transfers collateral tokens (this market) to the liquidator."
      },
      "setAccessControlAddress(address)": {
        "notice": "Sets the address of AccessControlManager"
      },
      "setComptroller(address)": {
        "notice": "Sets a new comptroller for the market"
      },
      "setInterestRateModel(address)": {
        "notice": "accrues interest and updates the interest rate model using _setInterestRateModelFresh"
      },
      "setProtocolSeizeShare(uint256)": {
        "notice": "sets protocol share accumulated from liquidations"
      },
      "setReserveFactor(uint256)": {
        "notice": "accrues interest and sets a new reserve factor for the protocol using _setReserveFactorFresh"
      },
      "shortfall()": {
        "notice": "Storage of Shortfall contract address"
      },
      "supplyRatePerBlock()": {
        "notice": "Returns the current per-block supply interest rate for this v"
      },
      "sweepToken(address)": {
        "notice": "A public function to sweep accidental ERC-20 transfers to this contract. Tokens are sent to admin (timelock)"
      },
      "symbol()": {
        "notice": "EIP-20 token symbol for this token"
      },
      "totalBorrows()": {
        "notice": "Total amount of outstanding borrows of the underlying in this market"
      },
      "totalBorrowsCurrent()": {
        "notice": "Returns the current total borrows plus accrued interest"
      },
      "totalReserves()": {
        "notice": "Total amount of reserves of the underlying held in this market"
      },
      "totalSupply()": {
        "notice": "Total number of tokens in circulation"
      },
      "transfer(address,uint256)": {
        "notice": "Transfer `amount` tokens from `msg.sender` to `dst`"
      },
      "transferFrom(address,address,uint256)": {
        "notice": "Transfer `amount` tokens from `src` to `dst`"
      },
      "underlying()": {
        "notice": "Underlying asset for this VToken"
      }
    },
    "version": 1
  },
  "storageLayout": {
    "storage": [
      {
        "astId": 324,
        "contract": "contracts/VToken.sol:VToken",
        "label": "_initialized",
        "offset": 0,
        "slot": "0",
        "type": "t_uint8"
      },
      {
        "astId": 327,
        "contract": "contracts/VToken.sol:VToken",
        "label": "_initializing",
        "offset": 1,
        "slot": "0",
        "type": "t_bool"
      },
      {
        "astId": 1279,
        "contract": "contracts/VToken.sol:VToken",
        "label": "__gap",
        "offset": 0,
        "slot": "1",
        "type": "t_array(t_uint256)50_storage"
      },
      {
        "astId": 116,
        "contract": "contracts/VToken.sol:VToken",
        "label": "_owner",
        "offset": 0,
        "slot": "51",
        "type": "t_address"
      },
      {
        "astId": 236,
        "contract": "contracts/VToken.sol:VToken",
        "label": "__gap",
        "offset": 0,
        "slot": "52",
        "type": "t_array(t_uint256)49_storage"
      },
      {
        "astId": 25,
        "contract": "contracts/VToken.sol:VToken",
        "label": "_pendingOwner",
        "offset": 0,
        "slot": "101",
        "type": "t_address"
      },
      {
        "astId": 104,
        "contract": "contracts/VToken.sol:VToken",
        "label": "__gap",
        "offset": 0,
        "slot": "102",
        "type": "t_array(t_uint256)49_storage"
      },
      {
        "astId": 17456,
        "contract": "contracts/VToken.sol:VToken",
        "label": "_notEntered",
        "offset": 0,
        "slot": "151",
        "type": "t_bool"
      },
      {
        "astId": 17459,
        "contract": "contracts/VToken.sol:VToken",
        "label": "underlying",
        "offset": 1,
        "slot": "151",
        "type": "t_address"
      },
      {
        "astId": 17462,
        "contract": "contracts/VToken.sol:VToken",
        "label": "name",
        "offset": 0,
        "slot": "152",
        "type": "t_string_storage"
      },
      {
        "astId": 17465,
        "contract": "contracts/VToken.sol:VToken",
        "label": "symbol",
        "offset": 0,
        "slot": "153",
        "type": "t_string_storage"
      },
      {
        "astId": 17468,
        "contract": "contracts/VToken.sol:VToken",
        "label": "decimals",
        "offset": 0,
        "slot": "154",
        "type": "t_uint8"
      },
      {
        "astId": 17471,
        "contract": "contracts/VToken.sol:VToken",
        "label": "riskFund",
        "offset": 1,
        "slot": "154",
        "type": "t_address_payable"
      },
      {
        "astId": 17474,
        "contract": "contracts/VToken.sol:VToken",
        "label": "protocolShareReserve",
        "offset": 0,
        "slot": "155",
        "type": "t_address_payable"
      },
      {
        "astId": 17484,
        "contract": "contracts/VToken.sol:VToken",
        "label": "comptroller",
        "offset": 0,
        "slot": "156",
        "type": "t_contract(ComptrollerInterface)8193"
      },
      {
        "astId": 17488,
        "contract": "contracts/VToken.sol:VToken",
        "label": "interestRateModel",
        "offset": 0,
        "slot": "157",
        "type": "t_contract(InterestRateModel)9481"
      },
      {
        "astId": 17490,
        "contract": "contracts/VToken.sol:VToken",
        "label": "initialExchangeRateMantissa",
        "offset": 0,
        "slot": "158",
        "type": "t_uint256"
      },
      {
        "astId": 17493,
        "contract": "contracts/VToken.sol:VToken",
        "label": "reserveFactorMantissa",
        "offset": 0,
        "slot": "159",
        "type": "t_uint256"
      },
      {
        "astId": 17496,
        "contract": "contracts/VToken.sol:VToken",
        "label": "accrualBlockNumber",
        "offset": 0,
        "slot": "160",
        "type": "t_uint256"
      },
      {
        "astId": 17499,
        "contract": "contracts/VToken.sol:VToken",
        "label": "borrowIndex",
        "offset": 0,
        "slot": "161",
        "type": "t_uint256"
      },
      {
        "astId": 17502,
        "contract": "contracts/VToken.sol:VToken",
        "label": "totalBorrows",
        "offset": 0,
        "slot": "162",
        "type": "t_uint256"
      },
      {
        "astId": 17505,
        "contract": "contracts/VToken.sol:VToken",
        "label": "totalReserves",
        "offset": 0,
        "slot": "163",
        "type": "t_uint256"
      },
      {
        "astId": 17508,
        "contract": "contracts/VToken.sol:VToken",
        "label": "totalSupply",
        "offset": 0,
        "slot": "164",
        "type": "t_uint256"
      },
      {
        "astId": 17511,
        "contract": "contracts/VToken.sol:VToken",
        "label": "badDebt",
        "offset": 0,
        "slot": "165",
        "type": "t_uint256"
      },
      {
        "astId": 17515,
        "contract": "contracts/VToken.sol:VToken",
        "label": "accountTokens",
        "offset": 0,
        "slot": "166",
        "type": "t_mapping(t_address,t_uint256)"
      },
      {
        "astId": 17521,
        "contract": "contracts/VToken.sol:VToken",
        "label": "transferAllowances",
        "offset": 0,
        "slot": "167",
        "type": "t_mapping(t_address,t_mapping(t_address,t_uint256))"
      },
      {
        "astId": 17531,
        "contract": "contracts/VToken.sol:VToken",
        "label": "accountBorrows",
        "offset": 0,
        "slot": "168",
        "type": "t_mapping(t_address,t_struct(BorrowSnapshot)17526_storage)"
      },
      {
        "astId": 17534,
        "contract": "contracts/VToken.sol:VToken",
        "label": "protocolSeizeShareMantissa",
        "offset": 0,
        "slot": "169",
        "type": "t_uint256"
      },
      {
        "astId": 17538,
        "contract": "contracts/VToken.sol:VToken",
        "label": "accessControlManager",
        "offset": 0,
        "slot": "170",
        "type": "t_contract(AccessControlManager)9427"
      },
      {
        "astId": 17541,
        "contract": "contracts/VToken.sol:VToken",
        "label": "shortfall",
        "offset": 0,
        "slot": "171",
        "type": "t_address"
      }
    ],
    "types": {
      "t_address": {
        "encoding": "inplace",
        "label": "address",
        "numberOfBytes": "20"
      },
      "t_address_payable": {
        "encoding": "inplace",
        "label": "address payable",
        "numberOfBytes": "20"
      },
      "t_array(t_uint256)49_storage": {
        "base": "t_uint256",
        "encoding": "inplace",
        "label": "uint256[49]",
        "numberOfBytes": "1568"
      },
      "t_array(t_uint256)50_storage": {
        "base": "t_uint256",
        "encoding": "inplace",
        "label": "uint256[50]",
        "numberOfBytes": "1600"
      },
      "t_bool": {
        "encoding": "inplace",
        "label": "bool",
        "numberOfBytes": "1"
      },
      "t_contract(AccessControlManager)9427": {
        "encoding": "inplace",
        "label": "contract AccessControlManager",
        "numberOfBytes": "20"
      },
      "t_contract(ComptrollerInterface)8193": {
        "encoding": "inplace",
        "label": "contract ComptrollerInterface",
        "numberOfBytes": "20"
      },
      "t_contract(InterestRateModel)9481": {
        "encoding": "inplace",
        "label": "contract InterestRateModel",
        "numberOfBytes": "20"
      },
      "t_mapping(t_address,t_mapping(t_address,t_uint256))": {
        "encoding": "mapping",
        "key": "t_address",
        "label": "mapping(address => mapping(address => uint256))",
        "numberOfBytes": "32",
        "value": "t_mapping(t_address,t_uint256)"
      },
      "t_mapping(t_address,t_struct(BorrowSnapshot)17526_storage)": {
        "encoding": "mapping",
        "key": "t_address",
        "label": "mapping(address => struct VTokenStorage.BorrowSnapshot)",
        "numberOfBytes": "32",
        "value": "t_struct(BorrowSnapshot)17526_storage"
      },
      "t_mapping(t_address,t_uint256)": {
        "encoding": "mapping",
        "key": "t_address",
        "label": "mapping(address => uint256)",
        "numberOfBytes": "32",
        "value": "t_uint256"
      },
      "t_string_storage": {
        "encoding": "bytes",
        "label": "string",
        "numberOfBytes": "32"
      },
      "t_struct(BorrowSnapshot)17526_storage": {
        "encoding": "inplace",
        "label": "struct VTokenStorage.BorrowSnapshot",
        "members": [
          {
            "astId": 17523,
            "contract": "contracts/VToken.sol:VToken",
            "label": "principal",
            "offset": 0,
            "slot": "0",
            "type": "t_uint256"
          },
          {
            "astId": 17525,
            "contract": "contracts/VToken.sol:VToken",
            "label": "interestIndex",
            "offset": 0,
            "slot": "1",
            "type": "t_uint256"
          }
        ],
        "numberOfBytes": "64"
      },
      "t_uint256": {
        "encoding": "inplace",
        "label": "uint256",
        "numberOfBytes": "32"
      },
      "t_uint8": {
        "encoding": "inplace",
        "label": "uint8",
        "numberOfBytes": "1"
      }
    }
  }
}