{
  "address": "0xb61a58aCA9F39dEA8C22F4c9a377C68a1Ea3723C",
  "abi": [
    {
      "inputs": [
        {
          "components": [
            {
              "internalType": "address",
              "name": "underlying_",
              "type": "address"
            },
            {
              "internalType": "contract ComptrollerInterface",
              "name": "comptroller_",
              "type": "address"
            },
            {
              "internalType": "contract InterestRateModel",
              "name": "interestRateModel_",
              "type": "address"
            },
            {
              "internalType": "uint256",
              "name": "initialExchangeRateMantissa_",
              "type": "uint256"
            },
            {
              "internalType": "string",
              "name": "name_",
              "type": "string"
            },
            {
              "internalType": "string",
              "name": "symbol_",
              "type": "string"
            },
            {
              "internalType": "uint8",
              "name": "decimals_",
              "type": "uint8"
            },
            {
              "internalType": "address payable",
              "name": "admin_",
              "type": "address"
            },
            {
              "internalType": "contract AccessControlManager",
              "name": "accessControlManager_",
              "type": "address"
            },
            {
              "components": [
                {
                  "internalType": "address",
                  "name": "shortfall",
                  "type": "address"
                },
                {
                  "internalType": "address payable",
                  "name": "riskFund",
                  "type": "address"
                },
                {
                  "internalType": "address payable",
                  "name": "protocolShareReserve",
                  "type": "address"
                }
              ],
              "internalType": "struct VTokenInterface.RiskManagementInit",
              "name": "riskManagement",
              "type": "tuple"
            },
            {
              "internalType": "address",
              "name": "vTokenProxyAdmin_",
              "type": "address"
            },
            {
              "internalType": "address",
              "name": "beaconAddress",
              "type": "address"
            }
          ],
          "internalType": "struct VTokenProxyFactory.VTokenArgs",
          "name": "input",
          "type": "tuple"
        }
      ],
      "name": "deployVTokenProxy",
      "outputs": [
        {
          "internalType": "contract VToken",
          "name": "",
          "type": "address"
        }
      ],
      "stateMutability": "nonpayable",
      "type": "function"
    }
  ],
  "transactionHash": "0x8a2976b987fa5bc40ad8a0fb1f8af30e64664ae2a543a8a3936b8b338d908ad4",
  "args": [],
  "numDeployments": 1,
  "solcInputHash": "39eb8f31da9b4d9c16abde8f5ab5340d",
  "bytecode": "0x608060405234801561001057600080fd5b50610ea1806100206000396000f3fe60806040523480156200001157600080fd5b50600436106200002e5760003560e01c8063b0aa16e11462000033575b600080fd5b6200004a62000044366004620002da565b62000066565b6040516001600160a01b03909116815260200160405180910390f35b6000808261016001516347a0e3b160e01b846000015185602001518660400151876060015188608001518960a001518a60c001518b60e001518c61010001518d6101200151604051602401620000c69a9998979695949392919062000487565b60408051601f198184030181529181526020820180516001600160e01b03166001600160e01b0319909416939093179092529051620001059062000137565b6200011292919062000529565b604051809103906000f0801580156200012f573d6000803e3d6000fd5b509392505050565b610914806200055883390190565b634e487b7160e01b600052604160045260246000fd5b604051610180810167ffffffffffffffff8111828210171562000182576200018262000145565b60405290565b6001600160a01b03811681146200019e57600080fd5b50565b8035620001ae8162000188565b919050565b600082601f830112620001c557600080fd5b813567ffffffffffffffff80821115620001e357620001e362000145565b604051601f8301601f19908116603f011681019082821181831017156200020e576200020e62000145565b816040528381528660208588010111156200022857600080fd5b836020870160208301376000602085830101528094505050505092915050565b803560ff81168114620001ae57600080fd5b6000606082840312156200026d57600080fd5b6040516060810181811067ffffffffffffffff8211171562000293576200029362000145565b6040529050808235620002a68162000188565b81526020830135620002b88162000188565b60208201526040830135620002cd8162000188565b6040919091015292915050565b600060208284031215620002ed57600080fd5b813567ffffffffffffffff808211156200030657600080fd5b908301906101c082860312156200031c57600080fd5b620003266200015b565b6200033183620001a1565b81526200034160208401620001a1565b60208201526200035460408401620001a1565b6040820152606083013560608201526080830135828111156200037657600080fd5b6200038487828601620001b3565b60808301525060a0830135828111156200039d57600080fd5b620003ab87828601620001b3565b60a083015250620003bf60c0840162000248565b60c0820152620003d260e08401620001a1565b60e08201526101009150620003e9828401620001a1565b82820152610120915062000400868385016200025a565b82820152620004136101808401620001a1565b610140820152620004286101a08401620001a1565b61016082015295945050505050565b6000815180845260005b818110156200045f5760208185018101518683018201520162000441565b8181111562000472576000602083870101525b50601f01601f19169290920160200192915050565b6001600160a01b038b811682528a8116602083015289811660408301526060820189905261018060808301819052600091620004c68483018b62000437565b915083820360a0850152620004dc828a62000437565b60ff9890981660c085015295861660e08401525050918316610100830152805183166101208301526020810151831661014083015260400151909116610160909101529695505050505050565b6001600160a01b03831681526040602082018190526000906200054f9083018462000437565b94935050505056fe608060405260405161091438038061091483398101604081905261002291610463565b61002e82826000610035565b505061058d565b61003e83610100565b6040516001600160a01b038416907f1cf3b03a6cf19fa2baba4df148e9dcabedea7f8a5c07840e207e5c089be95d3e90600090a260008251118061007f5750805b156100fb576100f9836001600160a01b0316635c60da1b6040518163ffffffff1660e01b8152600401602060405180830381865afa1580156100c5573d6000803e3d6000fd5b505050506040513d601f19601f820116820180604052508101906100e99190610523565b836102a360201b6100291760201c565b505b505050565b610113816102cf60201b6100551760201c565b6101725760405162461bcd60e51b815260206004820152602560248201527f455243313936373a206e657720626561636f6e206973206e6f74206120636f6e6044820152641d1c9858dd60da1b60648201526084015b60405180910390fd5b6101e6816001600160a01b0316635c60da1b6040518163ffffffff1660e01b8152600401602060405180830381865afa1580156101b3573d6000803e3d6000fd5b505050506040513d601f19601f820116820180604052508101906101d79190610523565b6102cf60201b6100551760201c565b61024b5760405162461bcd60e51b815260206004820152603060248201527f455243313936373a20626561636f6e20696d706c656d656e746174696f6e206960448201526f1cc81b9bdd08184818dbdb9d1c9858dd60821b6064820152608401610169565b806102827fa3f0ad74e5423aebfd80d3ef4346578335a9a72aeaee59ff6cb3582b35133d5060001b6102de60201b6100641760201c565b80546001600160a01b0319166001600160a01b039290921691909117905550565b60606102c883836040518060600160405280602781526020016108ed602791396102e1565b9392505050565b6001600160a01b03163b151590565b90565b6060600080856001600160a01b0316856040516102fe919061053e565b600060405180830381855af49150503d8060008114610339576040519150601f19603f3d011682016040523d82523d6000602084013e61033e565b606091505b5090925090506103508683838761035a565b9695505050505050565b606083156103c95782516000036103c2576001600160a01b0385163b6103c25760405162461bcd60e51b815260206004820152601d60248201527f416464726573733a2063616c6c20746f206e6f6e2d636f6e74726163740000006044820152606401610169565b50816103d3565b6103d383836103db565b949350505050565b8151156103eb5781518083602001fd5b8060405162461bcd60e51b8152600401610169919061055a565b80516001600160a01b038116811461041c57600080fd5b919050565b634e487b7160e01b600052604160045260246000fd5b60005b8381101561045257818101518382015260200161043a565b838111156100f95750506000910152565b6000806040838503121561047657600080fd5b61047f83610405565b60208401519092506001600160401b038082111561049c57600080fd5b818501915085601f8301126104b057600080fd5b8151818111156104c2576104c2610421565b604051601f8201601f19908116603f011681019083821181831017156104ea576104ea610421565b8160405282815288602084870101111561050357600080fd5b610514836020830160208801610437565b80955050505050509250929050565b60006020828403121561053557600080fd5b6102c882610405565b60008251610550818460208701610437565b9190910192915050565b6020815260008251806020840152610579816040850160208701610437565b601f01601f19169190910160400192915050565b6103518061059c6000396000f3fe60806040523661001357610011610017565b005b6100115b610027610022610067565b610100565b565b606061004e83836040518060600160405280602781526020016102f560279139610124565b9392505050565b6001600160a01b03163b151590565b90565b600061009a7fa3f0ad74e5423aebfd80d3ef4346578335a9a72aeaee59ff6cb3582b35133d50546001600160a01b031690565b6001600160a01b0316635c60da1b6040518163ffffffff1660e01b8152600401602060405180830381865afa1580156100d7573d6000803e3d6000fd5b505050506040513d601f19601f820116820180604052508101906100fb919061024c565b905090565b3660008037600080366000845af43d6000803e80801561011f573d6000f35b3d6000fd5b6060600080856001600160a01b03168560405161014191906102a5565b600060405180830381855af49150503d806000811461017c576040519150601f19603f3d011682016040523d82523d6000602084013e610181565b606091505b50915091506101928683838761019c565b9695505050505050565b60608315610210578251600003610209576001600160a01b0385163b6102095760405162461bcd60e51b815260206004820152601d60248201527f416464726573733a2063616c6c20746f206e6f6e2d636f6e747261637400000060448201526064015b60405180910390fd5b508161021a565b61021a8383610222565b949350505050565b8151156102325781518083602001fd5b8060405162461bcd60e51b815260040161020091906102c1565b60006020828403121561025e57600080fd5b81516001600160a01b038116811461004e57600080fd5b60005b83811015610290578181015183820152602001610278565b8381111561029f576000848401525b50505050565b600082516102b7818460208701610275565b9190910192915050565b60208152600082518060208401526102e0816040850160208701610275565b601f01601f1916919091016040019291505056fe416464726573733a206c6f772d6c6576656c2064656c65676174652063616c6c206661696c6564a2646970667358221220c6a100c25c8b261ed07a1543a57ea2cb22c7d69b616dd75407285a1e272d26df64736f6c634300080d0033416464726573733a206c6f772d6c6576656c2064656c65676174652063616c6c206661696c6564a26469706673582212202c03b7cf1e13c70fdad4939fcbcf0e25d8ab03967f860ace79938e64778308f764736f6c634300080d0033",
  "devdoc": {
    "kind": "dev",
    "methods": {},
    "version": 1
  },
  "userdoc": {
    "kind": "user",
    "methods": {},
    "version": 1
  },
  "storageLayout": {
    "storage": [],
    "types": null
  }
}