{
  "address": "0x92B11a8A8f311D1f224e10fA40439052d110617C",
  "abi": [
    {
      "inputs": [
        {
          "internalType": "uint256",
          "name": "baseRatePerYear",
          "type": "uint256"
        },
        {
          "internalType": "uint256",
          "name": "multiplierPerYear",
          "type": "uint256"
        }
      ],
      "name": "deploy",
      "outputs": [
        {
          "internalType": "contract WhitePaperInterestRateModel",
          "name": "",
          "type": "address"
        }
      ],
      "stateMutability": "nonpayable",
      "type": "function"
    }
  ],
  "transactionHash": "0xc81abce9801fc05a7e993c3436e8eaf2e0703d68a242e5f8aeb322163911f099",
  "args": [],
  "numDeployments": 1,
  "solcInputHash": "6e56fddf756318c4a86c8f359f7cd8f6",
  "bytecode": "0x608060405234801561001057600080fd5b5061051f806100206000396000f3fe608060405234801561001057600080fd5b506004361061002b5760003560e01c80635e79bb6014610030575b600080fd5b61004361003e3660046100ad565b61005f565b6040516001600160a01b03909116815260200160405180910390f35b6000808383604051610070906100a0565b9182526020820152604001604051809103906000f080158015610097573d6000803e3d6000fd5b50949350505050565b61041a806100d083390190565b600080604083850312156100c057600080fd5b5050803592602090910135915056fe608060405234801561001057600080fd5b5060405161041a38038061041a83398101604081905261002f91610099565b61003c62201480836100bd565b60015561004c62201480826100bd565b60008190556001546040517ff35fa19c15e9ba782633a5df62a98b20217151addc68e3ff2cd623a48d37ec279261008a928252602082015260400190565b60405180910390a150506100df565b600080604083850312156100ac57600080fd5b505080516020909101519092909150565b6000826100da57634e487b7160e01b600052601260045260246000fd5b500490565b61032c806100ee6000396000f3fe608060405234801561001057600080fd5b506004361061007d5760003560e01c80638726bb891161005b5780638726bb89146100d3578063a385fb96146100dc578063b8168816146100e6578063f14039de146100f957600080fd5b806315f24053146100825780632191f92a146100a85780636e71e2d8146100c0575b600080fd5b610095610090366004610212565b610102565b6040519081526020015b60405180910390f35b6100b0600181565b604051901515815260200161009f565b6100956100ce366004610212565b61014b565b61009560005481565b6100956220148081565b6100956100f436600461023e565b610196565b61009560015481565b60008061011085858561014b565b9050600154670de0b6b3a76400006000548361012c9190610286565b61013691906102a5565b61014091906102c7565b9150505b9392505050565b60008260000361015d57506000610144565b8161016884866102c7565b61017291906102df565b610184670de0b6b3a764000085610286565b61018e91906102a5565b949350505050565b6000806101ab83670de0b6b3a76400006102df565b905060006101ba878787610102565b90506000670de0b6b3a76400006101d18484610286565b6101db91906102a5565b9050670de0b6b3a7640000816101f28a8a8a61014b565b6101fc9190610286565b61020691906102a5565b98975050505050505050565b60008060006060848603121561022757600080fd5b505081359360208301359350604090920135919050565b6000806000806080858703121561025457600080fd5b5050823594602084013594506040840135936060013592509050565b634e487b7160e01b600052601160045260246000fd5b60008160001904831182151516156102a0576102a0610270565b500290565b6000826102c257634e487b7160e01b600052601260045260246000fd5b500490565b600082198211156102da576102da610270565b500190565b6000828210156102f1576102f1610270565b50039056fea264697066735822122024f1d139e8a39a113fa714928700fc10278264a6df1bc13746fbf45cbe6223b764736f6c634300080d0033a2646970667358221220f9c5237fd263e47118b5797529f21047e6ed0f8904a8200bebc67ecc816592e264736f6c634300080d0033",
  "devdoc": {
    "kind": "dev",
    "methods": {},
    "version": 1
  },
  "userdoc": {
    "kind": "user",
    "methods": {},
    "version": 1
  },
  "storageLayout": {
    "storage": [],
    "types": null
  }
}