{
  "address": "0xd953c1F799DB524FDf7698D309117D7ABf095C2E",
  "abi": [
    {
      "inputs": [
        {
          "internalType": "uint256",
          "name": "baseRatePerYear",
          "type": "uint256"
        },
        {
          "internalType": "uint256",
          "name": "multiplierPerYear",
          "type": "uint256"
        }
      ],
      "name": "deploy",
      "outputs": [
        {
          "internalType": "contract WhitePaperInterestRateModel",
          "name": "",
          "type": "address"
        }
      ],
      "stateMutability": "nonpayable",
      "type": "function"
    }
  ],
  "transactionHash": "0x495706a6eeff4f129ba4246b5656d6ca0d8faf731c32f9989f8e901fc5261e71",
  "args": [],
  "numDeployments": 1,
  "solcInputHash": "cd0d5e88a97abee9e5cf3c89ec401256",
  "bytecode": "0x608060405234801561001057600080fd5b506105b8806100206000396000f3fe608060405234801561001057600080fd5b506004361061002b5760003560e01c80635e79bb6014610030575b600080fd5b61004361003e3660046100ad565b61005f565b6040516001600160a01b03909116815260200160405180910390f35b6000808383604051610070906100a0565b9182526020820152604001604051809103906000f080158015610097573d6000803e3d6000fd5b50949350505050565b6104b3806100d083390190565b600080604083850312156100c057600080fd5b5050803592602090910135915056fe60c060405234801561001057600080fd5b506040516104b33803806104b383398101604081905261002f91610099565b61003c62201480836100bd565b60a05261004c62201480826100bd565b608081905260a0516040517ff35fa19c15e9ba782633a5df62a98b20217151addc68e3ff2cd623a48d37ec279261008a928252602082015260400190565b60405180910390a150506100df565b600080604083850312156100ac57600080fd5b505080516020909101519092909150565b6000826100da57634e487b7160e01b600052601260045260246000fd5b500490565b60805160a0516103a26101116000396000818161011c015261015001526000818160d8015261017d01526103a26000f3fe608060405234801561001057600080fd5b506004361061007d5760003560e01c80638726bb891161005b5780638726bb89146100d3578063a385fb96146100fa578063b816881614610104578063f14039de1461011757600080fd5b806315f24053146100825780632191f92a146100a85780636e71e2d8146100c0575b600080fd5b610095610090366004610288565b61013e565b6040519081526020015b60405180910390f35b6100b0600181565b604051901515815260200161009f565b6100956100ce366004610288565b6101c1565b6100957f000000000000000000000000000000000000000000000000000000000000000081565b6100956220148081565b6100956101123660046102b4565b61020c565b6100957f000000000000000000000000000000000000000000000000000000000000000081565b60008061014c8585856101c1565b90507f0000000000000000000000000000000000000000000000000000000000000000670de0b6b3a76400006101a27f0000000000000000000000000000000000000000000000000000000000000000846102fc565b6101ac919061031b565b6101b6919061033d565b9150505b9392505050565b6000826000036101d3575060006101ba565b816101de848661033d565b6101e89190610355565b6101fa670de0b6b3a7640000856102fc565b610204919061031b565b949350505050565b60008061022183670de0b6b3a7640000610355565b9050600061023087878761013e565b90506000670de0b6b3a764000061024784846102fc565b610251919061031b565b9050670de0b6b3a7640000816102688a8a8a6101c1565b61027291906102fc565b61027c919061031b565b98975050505050505050565b60008060006060848603121561029d57600080fd5b505081359360208301359350604090920135919050565b600080600080608085870312156102ca57600080fd5b5050823594602084013594506040840135936060013592509050565b634e487b7160e01b600052601160045260246000fd5b6000816000190483118215151615610316576103166102e6565b500290565b60008261033857634e487b7160e01b600052601260045260246000fd5b500490565b60008219821115610350576103506102e6565b500190565b600082821015610367576103676102e6565b50039056fea26469706673582212202ed8ab752550a6fdfbdb238951fd00ed2d5855cf2dde8919fb67b9a1702da21264736f6c634300080d0033a2646970667358221220be92f7fc306bf472af0e5a728081775d269f3a0aa7a2c2f610ecc940bb3fefa064736f6c634300080d0033",
  "devdoc": {
    "kind": "dev",
    "methods": {},
    "version": 1
  },
  "userdoc": {
    "kind": "user",
    "methods": {},
    "version": 1
  },
  "storageLayout": {
    "storage": [],
    "types": null
  }
}