{
  "address": "0xc8e51418cadc001157506b306C6d0b878f1ff755",
  "abi": [
    {
      "inputs": [
        {
          "internalType": "contract IVToken",
          "name": "vWrappedNativeToken",
          "type": "address"
        }
      ],
      "stateMutability": "nonpayable",
      "type": "constructor"
    },
    {
      "inputs": [],
      "name": "NativeTokenTransferFailed",
      "type": "error"
    },
    {
      "inputs": [],
      "name": "ZeroAddressNotAllowed",
      "type": "error"
    },
    {
      "inputs": [],
      "name": "ZeroValueNotAllowed",
      "type": "error"
    },
    {
      "anonymous": false,
      "inputs": [
        {
          "indexed": true,
          "internalType": "address",
          "name": "previousOwner",
          "type": "address"
        },
        {
          "indexed": true,
          "internalType": "address",
          "name": "newOwner",
          "type": "address"
        }
      ],
      "name": "OwnershipTransferStarted",
      "type": "event"
    },
    {
      "anonymous": false,
      "inputs": [
        {
          "indexed": true,
          "internalType": "address",
          "name": "previousOwner",
          "type": "address"
        },
        {
          "indexed": true,
          "internalType": "address",
          "name": "newOwner",
          "type": "address"
        }
      ],
      "name": "OwnershipTransferred",
      "type": "event"
    },
    {
      "anonymous": false,
      "inputs": [
        {
          "indexed": true,
          "internalType": "address",
          "name": "receiver",
          "type": "address"
        },
        {
          "indexed": false,
          "internalType": "uint256",
          "name": "amount",
          "type": "uint256"
        }
      ],
      "name": "SweepNative",
      "type": "event"
    },
    {
      "anonymous": false,
      "inputs": [
        {
          "indexed": true,
          "internalType": "address",
          "name": "token",
          "type": "address"
        },
        {
          "indexed": true,
          "internalType": "address",
          "name": "receiver",
          "type": "address"
        },
        {
          "indexed": false,
          "internalType": "uint256",
          "name": "amount",
          "type": "uint256"
        }
      ],
      "name": "SweepToken",
      "type": "event"
    },
    {
      "anonymous": false,
      "inputs": [
        {
          "indexed": true,
          "internalType": "address",
          "name": "sender",
          "type": "address"
        },
        {
          "indexed": true,
          "internalType": "address",
          "name": "vToken",
          "type": "address"
        },
        {
          "indexed": false,
          "internalType": "uint256",
          "name": "amount",
          "type": "uint256"
        }
      ],
      "name": "TokensBorrowedAndUnwrapped",
      "type": "event"
    },
    {
      "anonymous": false,
      "inputs": [
        {
          "indexed": true,
          "internalType": "address",
          "name": "sender",
          "type": "address"
        },
        {
          "indexed": true,
          "internalType": "address",
          "name": "vToken",
          "type": "address"
        },
        {
          "indexed": false,
          "internalType": "uint256",
          "name": "amount",
          "type": "uint256"
        }
      ],
      "name": "TokensRedeemedAndUnwrapped",
      "type": "event"
    },
    {
      "anonymous": false,
      "inputs": [
        {
          "indexed": true,
          "internalType": "address",
          "name": "sender",
          "type": "address"
        },
        {
          "indexed": true,
          "internalType": "address",
          "name": "vToken",
          "type": "address"
        },
        {
          "indexed": false,
          "internalType": "uint256",
          "name": "amount",
          "type": "uint256"
        }
      ],
      "name": "TokensWrappedAndRepaid",
      "type": "event"
    },
    {
      "anonymous": false,
      "inputs": [
        {
          "indexed": true,
          "internalType": "address",
          "name": "sender",
          "type": "address"
        },
        {
          "indexed": true,
          "internalType": "address",
          "name": "vToken",
          "type": "address"
        },
        {
          "indexed": false,
          "internalType": "uint256",
          "name": "amount",
          "type": "uint256"
        }
      ],
      "name": "TokensWrappedAndSupplied",
      "type": "event"
    },
    {
      "stateMutability": "payable",
      "type": "fallback"
    },
    {
      "inputs": [],
      "name": "acceptOwnership",
      "outputs": [],
      "stateMutability": "nonpayable",
      "type": "function"
    },
    {
      "inputs": [
        {
          "internalType": "uint256",
          "name": "borrowAmount",
          "type": "uint256"
        }
      ],
      "name": "borrowAndUnwrap",
      "outputs": [],
      "stateMutability": "nonpayable",
      "type": "function"
    },
    {
      "inputs": [],
      "name": "owner",
      "outputs": [
        {
          "internalType": "address",
          "name": "",
          "type": "address"
        }
      ],
      "stateMutability": "view",
      "type": "function"
    },
    {
      "inputs": [],
      "name": "pendingOwner",
      "outputs": [
        {
          "internalType": "address",
          "name": "",
          "type": "address"
        }
      ],
      "stateMutability": "view",
      "type": "function"
    },
    {
      "inputs": [
        {
          "internalType": "uint256",
          "name": "redeemTokens",
          "type": "uint256"
        }
      ],
      "name": "redeemAndUnwrap",
      "outputs": [],
      "stateMutability": "nonpayable",
      "type": "function"
    },
    {
      "inputs": [
        {
          "internalType": "uint256",
          "name": "redeemAmount",
          "type": "uint256"
        }
      ],
      "name": "redeemUnderlyingAndUnwrap",
      "outputs": [],
      "stateMutability": "nonpayable",
      "type": "function"
    },
    {
      "inputs": [],
      "name": "renounceOwnership",
      "outputs": [],
      "stateMutability": "nonpayable",
      "type": "function"
    },
    {
      "inputs": [],
      "name": "sweepNative",
      "outputs": [],
      "stateMutability": "nonpayable",
      "type": "function"
    },
    {
      "inputs": [
        {
          "internalType": "contract IERC20",
          "name": "token",
          "type": "address"
        }
      ],
      "name": "sweepToken",
      "outputs": [],
      "stateMutability": "nonpayable",
      "type": "function"
    },
    {
      "inputs": [
        {
          "internalType": "address",
          "name": "newOwner",
          "type": "address"
        }
      ],
      "name": "transferOwnership",
      "outputs": [],
      "stateMutability": "nonpayable",
      "type": "function"
    },
    {
      "inputs": [],
      "name": "vWNativeToken",
      "outputs": [
        {
          "internalType": "contract IVToken",
          "name": "",
          "type": "address"
        }
      ],
      "stateMutability": "view",
      "type": "function"
    },
    {
      "inputs": [],
      "name": "wNativeToken",
      "outputs": [
        {
          "internalType": "contract IWrappedNative",
          "name": "",
          "type": "address"
        }
      ],
      "stateMutability": "view",
      "type": "function"
    },
    {
      "inputs": [],
      "name": "wrapAndRepay",
      "outputs": [],
      "stateMutability": "payable",
      "type": "function"
    },
    {
      "inputs": [
        {
          "internalType": "address",
          "name": "minter",
          "type": "address"
        }
      ],
      "name": "wrapAndSupply",
      "outputs": [],
      "stateMutability": "payable",
      "type": "function"
    },
    {
      "stateMutability": "payable",
      "type": "receive"
    }
  ],
  "transactionHash": "0xa7363696d3b5084ef6c44d3be9d6e252d18fdeeb55ffed2bde1f643bf591b2fc",
  "args": [
    "0x68a34332983f4Bf866768DD6D6E638b02eF5e1f0"
  ],
  "numDeployments": 1,
  "solcInputHash": "6908ef056fe5b90d510a922d922ed1be",
  "bytecode": "0x60c060405234801561001057600080fd5b50604051611a01380380611a0183398101604081905261002f91610170565b610038336100c8565b6001600255610046816100e4565b6001600160a01b03811660a081905260408051636f307dc360e01b81529051636f307dc39160048082019260209290919082900301816000875af1158015610092573d6000803e3d6000fd5b505050506040513d601f19601f820116820180604052508101906100b69190610170565b6001600160a01b031660805250610194565b600180546001600160a01b03191690556100e18161010b565b50565b6001600160a01b0381166100e1576040516342bcdf7f60e11b815260040160405180910390fd5b600080546001600160a01b038381166001600160a01b0319831681178455604051919092169283917f8be0079c531659141344cd1fd0a4f28419497f9722a3daafe3b4186f6b6457e09190a35050565b6001600160a01b03811681146100e157600080fd5b60006020828403121561018257600080fd5b815161018d8161015b565b9392505050565b60805160a05161179261026f6000396000818161011001528181610479015281816105830152818161069c015281816106e901528181610786015281816107ae015281816109b7015281816109f601528181610a8a01528181610b1801528181610bbe01528181610c8a01528181610edd01528181610f74015261111b01526000818161016001528181610505015281816105fa0152818161067801528181610764015281816109150152818161099301528181610b9c01528181610c1001528181610e4601528181611003015261109d01526117926000f3fe6080604052600436106100d55760003560e01c80638da5cb5b11610079578063ab803a7611610056578063ab803a761461023d578063e30c397814610252578063f2fde38b14610270578063ff0f4abd1461029057005b80638da5cb5b146101ec5780639cc60d441461020a578063a86f82211461022a57005b8063715018a6116100b2578063715018a61461018257806379ba50971461019757806385ceb1e4146101ac57806389f1cf38146101cc57005b80631be19560146100de57806355a490a7146100fe57806359c91f191461014e57005b366100dc57005b005b3480156100ea57600080fd5b506100dc6100f9366004611650565b610298565b34801561010a57600080fd5b506101327f000000000000000000000000000000000000000000000000000000000000000081565b6040516001600160a01b03909116815260200160405180910390f35b34801561015a57600080fd5b506101327f000000000000000000000000000000000000000000000000000000000000000081565b34801561018e57600080fd5b506100dc610389565b3480156101a357600080fd5b506100dc61039d565b3480156101b857600080fd5b506100dc6101c7366004611674565b61041c565b3480156101d857600080fd5b506100dc6101e7366004611674565b610439565b3480156101f857600080fd5b506000546001600160a01b0316610132565b34801561021657600080fd5b506100dc610225366004611674565b61044c565b6100dc610238366004611650565b6105dd565b34801561024957600080fd5b506100dc610824565b34801561025e57600080fd5b506001546001600160a01b0316610132565b34801561027c57600080fd5b506100dc61028b366004611650565b610890565b6100dc610901565b6102a0610cf3565b6040516370a0823160e01b81523060048201526000906001600160a01b038316906370a0823190602401602060405180830381865afa1580156102e7573d6000803e3d6000fd5b505050506040513d601f19601f8201168201806040525081019061030b919061168d565b9050801561038557600080546001600160a01b031690506103366001600160a01b0384168284610d4d565b806001600160a01b0316836001600160a01b03167f6d25be279134f4ecaa4770aff0c3d916d9e7c5ef37b65ed95dbdba411f5d54d58460405161037b91815260200190565b60405180910390a3505b5050565b610391610cf3565b61039b6000610db5565b565b60015433906001600160a01b031681146104105760405162461bcd60e51b815260206004820152602960248201527f4f776e61626c6532537465703a2063616c6c6572206973206e6f7420746865206044820152683732bb9037bbb732b960b91b60648201526084015b60405180910390fd5b61041981610db5565b50565b610424610dce565b61042f816001610e25565b6104196001600255565b610441610dce565b61042f816000610e25565b610454610dce565b61045d81611172565b60405163856e5bb360e01b8152336004820152602481018290527f00000000000000000000000000000000000000000000000000000000000000006001600160a01b03169063856e5bb3906044016020604051808303816000875af11580156104ca573d6000803e3d6000fd5b505050506040513d601f19601f820116820180604052508101906104ee919061168d565b50604051632e1a7d4d60e01b8152600481018290527f00000000000000000000000000000000000000000000000000000000000000006001600160a01b031690632e1a7d4d90602401600060405180830381600087803b15801561055157600080fd5b505af1158015610565573d6000803e3d6000fd5b505050506105733382611193565b6040518181526001600160a01b037f0000000000000000000000000000000000000000000000000000000000000000169033907f3b325d03ea6fc2aa5ba54c0fd65bb0febe127cb8c7ff01f190fcddf2893b80699060200160405180910390a36104196001600255565b6105e5610dce565b6105ee81611221565b346105f881611172565b7f00000000000000000000000000000000000000000000000000000000000000006001600160a01b031663d0e30db0826040518263ffffffff1660e01b81526004016000604051808303818588803b15801561065357600080fd5b505af1158015610667573d6000803e3d6000fd5b506106c39350506001600160a01b037f00000000000000000000000000000000000000000000000000000000000000001691507f0000000000000000000000000000000000000000000000000000000000000000905083611248565b6040516323323e0360e01b81526001600160a01b038381166004830152602482018390527f000000000000000000000000000000000000000000000000000000000000000016906323323e03906044016020604051808303816000875af1158015610732573d6000803e3d6000fd5b505050506040513d601f19601f82011682018060405250810190610756919061168d565b506107ac6001600160a01b037f0000000000000000000000000000000000000000000000000000000000000000167f00000000000000000000000000000000000000000000000000000000000000006000611248565b7f00000000000000000000000000000000000000000000000000000000000000006001600160a01b0316826001600160a01b03167ffc54dd2cff8bcf58b0746818b1d9aac56525760131df031a96427ecd6e5612448360405161081191815260200190565b60405180910390a3506104196001600255565b61082c610cf3565b478015610419576000546001600160a01b03166108498183611193565b806001600160a01b03167f0a1dd7c5bdc40ecbdefc1bfda22f1dfb98c8fc3e3940aab73ad7fba37720d0a08360405161088491815260200190565b60405180910390a25050565b610898610cf3565b600180546001600160a01b0383166001600160a01b031990911681179091556108c96000546001600160a01b031690565b6001600160a01b03167f38d16b8cac22d99fc7c124b9cd0de2d3fa1faef420bfe791d8c362d765e2270060405160405180910390a350565b610909610dce565b3461091381611172565b7f00000000000000000000000000000000000000000000000000000000000000006001600160a01b031663d0e30db0826040518263ffffffff1660e01b81526004016000604051808303818588803b15801561096e57600080fd5b505af1158015610982573d6000803e3d6000fd5b506109de9350506001600160a01b037f00000000000000000000000000000000000000000000000000000000000000001691507f0000000000000000000000000000000000000000000000000000000000000000905083611248565b6040516305eff7ef60e21b81523360048201526000907f00000000000000000000000000000000000000000000000000000000000000006001600160a01b0316906317bfdfbc906024016020604051808303816000875af1158015610a47573d6000803e3d6000fd5b505050506040513d601f19601f82011682018060405250810190610a6b919061168d565b6040516304c11f0360e31b8152336004820152602481018490529091507f00000000000000000000000000000000000000000000000000000000000000006001600160a01b031690632608f818906044016020604051808303816000875af1158015610adb573d6000803e3d6000fd5b505050506040513d601f19601f82011682018060405250810190610aff919061168d565b506040516305eff7ef60e21b81523360048201526000907f00000000000000000000000000000000000000000000000000000000000000006001600160a01b0316906317bfdfbc906024016020604051808303816000875af1158015610b69573d6000803e3d6000fd5b505050506040513d601f19601f82011682018060405250810190610b8d919061168d565b9050610be46001600160a01b037f0000000000000000000000000000000000000000000000000000000000000000167f00000000000000000000000000000000000000000000000000000000000000006000611248565b80158015610bf157508183115b15610c8057604051632e1a7d4d60e01b815282840360048201819052907f00000000000000000000000000000000000000000000000000000000000000006001600160a01b031690632e1a7d4d90602401600060405180830381600087803b158015610c5c57600080fd5b505af1158015610c70573d6000803e3d6000fd5b50505050610c7e3382611193565b505b6001600160a01b037f000000000000000000000000000000000000000000000000000000000000000016337e2a489ca326b23ea0117956ee9d62960c53a81b8f57fafd608e56f57f324168610cd584866116a6565b60405190815260200160405180910390a350505061039b6001600255565b6000546001600160a01b0316331461039b5760405162461bcd60e51b815260206004820181905260248201527f4f776e61626c653a2063616c6c6572206973206e6f7420746865206f776e65726044820152606401610407565b6040516001600160a01b038316602482015260448101829052610db090849063a9059cbb60e01b906064015b60408051601f198184030181529190526020810180516001600160e01b03166001600160e01b0319909316929092179091526112dd565b505050565b600180546001600160a01b0319169055610419816113b2565b6002805403610e1f5760405162461bcd60e51b815260206004820152601f60248201527f5265656e7472616e637947756172643a207265656e7472616e742063616c6c006044820152606401610407565b60028055565b610e2e82611172565b6040516370a0823160e01b81523060048201526000907f00000000000000000000000000000000000000000000000000000000000000006001600160a01b0316906370a0823190602401602060405180830381865afa158015610e95573d6000803e3d6000fd5b505050506040513d601f19601f82011682018060405250810190610eb9919061168d565b90508115610f5857604051636f9d28b760e11b8152336004820152602481018490527f00000000000000000000000000000000000000000000000000000000000000006001600160a01b03169063df3a516e906044016020604051808303816000875af1158015610f2e573d6000803e3d6000fd5b505050506040513d601f19601f82011682018060405250810190610f52919061168d565b50610feb565b604051631085e02960e11b8152336004820152602481018490527f00000000000000000000000000000000000000000000000000000000000000006001600160a01b03169063210bc052906044016020604051808303816000875af1158015610fc5573d6000803e3d6000fd5b505050506040513d601f19601f82011682018060405250810190610fe9919061168d565b505b6040516370a0823160e01b81523060048201526000907f00000000000000000000000000000000000000000000000000000000000000006001600160a01b0316906370a0823190602401602060405180830381865afa158015611052573d6000803e3d6000fd5b505050506040513d601f19601f82011682018060405250810190611076919061168d565b9050600061108483836116a6565b604051632e1a7d4d60e01b8152600481018290529091507f00000000000000000000000000000000000000000000000000000000000000006001600160a01b031690632e1a7d4d90602401600060405180830381600087803b1580156110e957600080fd5b505af11580156110fd573d6000803e3d6000fd5b5050505061110b3382611193565b6040518181526001600160a01b037f0000000000000000000000000000000000000000000000000000000000000000169033907faf321c699f4cc4970eef3edf8fe2a0a395a3f5b62c6e91958cad3d424952436b9060200160405180910390a35050505050565b806000036104195760405163273e150360e21b815260040160405180910390fd5b604080516000808252602082019092526001600160a01b0384169083906040516111bd91906116eb565b60006040518083038185875af1925050503d80600081146111fa576040519150601f19603f3d011682016040523d82523d6000602084013e6111ff565b606091505b5050905080610db057604051630c08bcb960e21b815260040160405180910390fd5b6001600160a01b038116610419576040516342bcdf7f60e11b815260040160405180910390fd5b604080516001600160a01b038416602482015260448082018490528251808303909101815260649091019091526020810180516001600160e01b031663095ea7b360e01b1790526112998482611402565b6112d7576040516001600160a01b0384166024820152600060448201526112cd90859063095ea7b360e01b90606401610d79565b6112d784826112dd565b50505050565b6000611332826040518060400160405280602081526020017f5361666545524332303a206c6f772d6c6576656c2063616c6c206661696c6564815250856001600160a01b03166114ab9092919063ffffffff16565b90508051600014806113535750808060200190518101906113539190611707565b610db05760405162461bcd60e51b815260206004820152602a60248201527f5361666545524332303a204552433230206f7065726174696f6e20646964206e6044820152691bdd081cdd58d8d9595960b21b6064820152608401610407565b600080546001600160a01b038381166001600160a01b0319831681178455604051919092169283917f8be0079c531659141344cd1fd0a4f28419497f9722a3daafe3b4186f6b6457e09190a35050565b6000806000846001600160a01b03168460405161141f91906116eb565b6000604051808303816000865af19150503d806000811461145c576040519150601f19603f3d011682016040523d82523d6000602084013e611461565b606091505b509150915081801561148b57508051158061148b57508080602001905181019061148b9190611707565b80156114a057506001600160a01b0385163b15155b925050505b92915050565b60606114ba84846000856114c2565b949350505050565b6060824710156115235760405162461bcd60e51b815260206004820152602660248201527f416464726573733a20696e73756666696369656e742062616c616e636520666f6044820152651c8818d85b1b60d21b6064820152608401610407565b600080866001600160a01b0316858760405161153f91906116eb565b60006040518083038185875af1925050503d806000811461157c576040519150601f19603f3d011682016040523d82523d6000602084013e611581565b606091505b50915091506115928783838761159d565b979650505050505050565b6060831561160c578251600003611605576001600160a01b0385163b6116055760405162461bcd60e51b815260206004820152601d60248201527f416464726573733a2063616c6c20746f206e6f6e2d636f6e74726163740000006044820152606401610407565b50816114ba565b6114ba83838151156116215781518083602001fd5b8060405162461bcd60e51b81526004016104079190611729565b6001600160a01b038116811461041957600080fd5b60006020828403121561166257600080fd5b813561166d8161163b565b9392505050565b60006020828403121561168657600080fd5b5035919050565b60006020828403121561169f57600080fd5b5051919050565b818103818111156114a557634e487b7160e01b600052601160045260246000fd5b60005b838110156116e25781810151838201526020016116ca565b50506000910152565b600082516116fd8184602087016116c7565b9190910192915050565b60006020828403121561171957600080fd5b8151801515811461166d57600080fd5b60208152600082518060208401526117488160408501602087016116c7565b601f01601f1916919091016040019291505056fea264697066735822122026badf2c9a268d45d0fbf47886e68dcb2fd4bb21faa053e8488bb0723fcc866564736f6c63430008190033",
  "devdoc": {
    "author": "Venus",
    "events": {
      "SweepNative(address,uint256)": {
        "details": "Emitted when native asset is swept from the contract"
      },
      "SweepToken(address,address,uint256)": {
        "details": "Emitted when token is swept from the contract"
      },
      "TokensBorrowedAndUnwrapped(address,address,uint256)": {
        "details": "Emitted when native tokens are borrowed and unwrapped"
      },
      "TokensRedeemedAndUnwrapped(address,address,uint256)": {
        "details": "Emitted when tokens are redeemed and then unwrapped to be sent to user"
      },
      "TokensWrappedAndRepaid(address,address,uint256)": {
        "details": "Emitted when native currency is wrapped and repaid"
      },
      "TokensWrappedAndSupplied(address,address,uint256)": {
        "details": "Emitted when native currency is supplied"
      }
    },
    "kind": "dev",
    "methods": {
      "acceptOwnership()": {
        "details": "The new owner accepts the ownership transfer."
      },
      "borrowAndUnwrap(uint256)": {
        "custom:error": "ZeroValueNotAllowed is thrown if borrowAmount is zero",
        "custom:event": "TokensBorrowedAndUnwrapped is emitted when assets are borrowed from a market and unwrapped",
        "details": "Borrow wNativeToken, unwrap to Native, and send to the user",
        "params": {
          "borrowAmount": "The amount of underlying tokens to borrow"
        }
      },
      "constructor": {
        "params": {
          "vWrappedNativeToken": "Address of wrapped native token market"
        }
      },
      "owner()": {
        "details": "Returns the address of the current owner."
      },
      "pendingOwner()": {
        "details": "Returns the address of the pending owner."
      },
      "redeemAndUnwrap(uint256)": {
        "custom:error": "ZeroValueNotAllowed is thrown if redeemTokens is zero",
        "custom:event": "TokensRedeemedAndUnwrapped is emitted when assets are redeemed from a market and unwrapped",
        "params": {
          "redeemTokens": "The amount of vWNative tokens to redeem"
        }
      },
      "redeemUnderlyingAndUnwrap(uint256)": {
        "custom:error": "ZeroValueNotAllowed is thrown if redeemAmount is zero",
        "custom:event": "TokensRedeemedAndUnwrapped is emitted when assets are redeemed from a market and unwrapped",
        "params": {
          "redeemAmount": "The amount of underlying tokens to redeem"
        }
      },
      "renounceOwnership()": {
        "details": "Leaves the contract without owner. It will not be possible to call `onlyOwner` functions. Can only be called by the current owner. NOTE: Renouncing ownership will leave the contract without an owner, thereby disabling any functionality that is only available to the owner."
      },
      "sweepNative()": {
        "custom:access": "Controlled by Governance",
        "custom:event": "SweepNative is emitted when assets are swept from the contract"
      },
      "sweepToken(address)": {
        "custom:access": "Controlled by Governance",
        "custom:event": "SweepToken emits on success",
        "params": {
          "token": "Address of the token"
        }
      },
      "transferOwnership(address)": {
        "details": "Starts the ownership transfer of the contract to a new account. Replaces the pending transfer if there is one. Can only be called by the current owner."
      },
      "wrapAndRepay()": {
        "custom:error": "ZeroValueNotAllowed is thrown if repayAmount is zero",
        "custom:event": "TokensWrappedAndRepaid is emitted when assets are repaid to a market and unwrapped"
      },
      "wrapAndSupply(address)": {
        "custom:error": "ZeroAddressNotAllowed is thrown if address of minter is zero addressZeroValueNotAllowed is thrown if mintAmount is zero",
        "custom:event": "TokensWrappedAndSupplied is emitted when assets are supplied to the market",
        "params": {
          "minter": "The address on behalf of whom the supply is performed."
        }
      }
    },
    "title": "NativeTokenGateway",
    "version": 1
  },
  "userdoc": {
    "errors": {
      "NativeTokenTransferFailed()": [
        {
          "notice": "Thrown if transfer of native token fails"
        }
      ],
      "ZeroAddressNotAllowed()": [
        {
          "notice": "Thrown if the supplied address is a zero address where it is not allowed"
        }
      ],
      "ZeroValueNotAllowed()": [
        {
          "notice": "Thrown if the supplied value is 0 where it is not allowed"
        }
      ]
    },
    "kind": "user",
    "methods": {
      "constructor": {
        "notice": "Constructor for NativeTokenGateway"
      },
      "redeemAndUnwrap(uint256)": {
        "notice": "Redeem vWNativeToken, unwrap to Native Token, and send to the user"
      },
      "redeemUnderlyingAndUnwrap(uint256)": {
        "notice": "Redeem vWNativeToken, unwrap to Native Token, and send to the user"
      },
      "sweepNative()": {
        "notice": "Sweeps native assets (Native) from the contract and sends them to the owner"
      },
      "sweepToken(address)": {
        "notice": "Sweeps the input token address tokens from the contract and sends them to the owner"
      },
      "vWNativeToken()": {
        "notice": "Address of wrapped native token market"
      },
      "wNativeToken()": {
        "notice": "Address of wrapped native token contract"
      },
      "wrapAndRepay()": {
        "notice": "Wrap Native, repay borrow in the market, and send remaining Native to the user"
      },
      "wrapAndSupply(address)": {
        "notice": "Wrap Native, get wNativeToken, mint vWNativeToken, and supply to the market."
      }
    },
    "notice": "NativeTokenGateway contract facilitates interactions with a vToken market for native tokens (Native or wNativeToken)",
    "version": 1
  },
  "storageLayout": {
    "storage": [
      {
        "astId": 3501,
        "contract": "contracts/Gateway/NativeTokenGateway.sol:NativeTokenGateway",
        "label": "_owner",
        "offset": 0,
        "slot": "0",
        "type": "t_address"
      },
      {
        "astId": 3614,
        "contract": "contracts/Gateway/NativeTokenGateway.sol:NativeTokenGateway",
        "label": "_pendingOwner",
        "offset": 0,
        "slot": "1",
        "type": "t_address"
      },
      {
        "astId": 4238,
        "contract": "contracts/Gateway/NativeTokenGateway.sol:NativeTokenGateway",
        "label": "_status",
        "offset": 0,
        "slot": "2",
        "type": "t_uint256"
      }
    ],
    "types": {
      "t_address": {
        "encoding": "inplace",
        "label": "address",
        "numberOfBytes": "20"
      },
      "t_uint256": {
        "encoding": "inplace",
        "label": "uint256",
        "numberOfBytes": "32"
      }
    }
  }
}