{
  "address": "0xfBa27be0766acb9a60d2cede3d4293193f3b749d",
  "abi": [
    {
      "inputs": [
        {
          "internalType": "uint256",
          "name": "blocksPerYear_",
          "type": "uint256"
        },
        {
          "internalType": "uint256",
          "name": "baseRatePerYear",
          "type": "uint256"
        },
        {
          "internalType": "uint256",
          "name": "multiplierPerYear",
          "type": "uint256"
        },
        {
          "internalType": "uint256",
          "name": "jumpMultiplierPerYear",
          "type": "uint256"
        },
        {
          "internalType": "uint256",
          "name": "kink_",
          "type": "uint256"
        },
        {
          "internalType": "contract IAccessControlManagerV8",
          "name": "accessControlManager_",
          "type": "address"
        }
      ],
      "stateMutability": "nonpayable",
      "type": "constructor"
    },
    {
      "inputs": [
        {
          "internalType": "address",
          "name": "sender",
          "type": "address"
        },
        {
          "internalType": "address",
          "name": "calledContract",
          "type": "address"
        },
        {
          "internalType": "string",
          "name": "methodSignature",
          "type": "string"
        }
      ],
      "name": "Unauthorized",
      "type": "error"
    },
    {
      "anonymous": false,
      "inputs": [
        {
          "indexed": false,
          "internalType": "uint256",
          "name": "baseRatePerBlock",
          "type": "uint256"
        },
        {
          "indexed": false,
          "internalType": "uint256",
          "name": "multiplierPerBlock",
          "type": "uint256"
        },
        {
          "indexed": false,
          "internalType": "uint256",
          "name": "jumpMultiplierPerBlock",
          "type": "uint256"
        },
        {
          "indexed": false,
          "internalType": "uint256",
          "name": "kink",
          "type": "uint256"
        }
      ],
      "name": "NewInterestParams",
      "type": "event"
    },
    {
      "inputs": [],
      "name": "accessControlManager",
      "outputs": [
        {
          "internalType": "contract IAccessControlManagerV8",
          "name": "",
          "type": "address"
        }
      ],
      "stateMutability": "view",
      "type": "function"
    },
    {
      "inputs": [],
      "name": "baseRatePerBlock",
      "outputs": [
        {
          "internalType": "uint256",
          "name": "",
          "type": "uint256"
        }
      ],
      "stateMutability": "view",
      "type": "function"
    },
    {
      "inputs": [],
      "name": "blocksPerYear",
      "outputs": [
        {
          "internalType": "uint256",
          "name": "",
          "type": "uint256"
        }
      ],
      "stateMutability": "view",
      "type": "function"
    },
    {
      "inputs": [
        {
          "internalType": "uint256",
          "name": "cash",
          "type": "uint256"
        },
        {
          "internalType": "uint256",
          "name": "borrows",
          "type": "uint256"
        },
        {
          "internalType": "uint256",
          "name": "reserves",
          "type": "uint256"
        },
        {
          "internalType": "uint256",
          "name": "badDebt",
          "type": "uint256"
        }
      ],
      "name": "getBorrowRate",
      "outputs": [
        {
          "internalType": "uint256",
          "name": "",
          "type": "uint256"
        }
      ],
      "stateMutability": "view",
      "type": "function"
    },
    {
      "inputs": [
        {
          "internalType": "uint256",
          "name": "cash",
          "type": "uint256"
        },
        {
          "internalType": "uint256",
          "name": "borrows",
          "type": "uint256"
        },
        {
          "internalType": "uint256",
          "name": "reserves",
          "type": "uint256"
        },
        {
          "internalType": "uint256",
          "name": "reserveFactorMantissa",
          "type": "uint256"
        },
        {
          "internalType": "uint256",
          "name": "badDebt",
          "type": "uint256"
        }
      ],
      "name": "getSupplyRate",
      "outputs": [
        {
          "internalType": "uint256",
          "name": "",
          "type": "uint256"
        }
      ],
      "stateMutability": "view",
      "type": "function"
    },
    {
      "inputs": [],
      "name": "isInterestRateModel",
      "outputs": [
        {
          "internalType": "bool",
          "name": "",
          "type": "bool"
        }
      ],
      "stateMutability": "pure",
      "type": "function"
    },
    {
      "inputs": [],
      "name": "jumpMultiplierPerBlock",
      "outputs": [
        {
          "internalType": "uint256",
          "name": "",
          "type": "uint256"
        }
      ],
      "stateMutability": "view",
      "type": "function"
    },
    {
      "inputs": [],
      "name": "kink",
      "outputs": [
        {
          "internalType": "uint256",
          "name": "",
          "type": "uint256"
        }
      ],
      "stateMutability": "view",
      "type": "function"
    },
    {
      "inputs": [],
      "name": "multiplierPerBlock",
      "outputs": [
        {
          "internalType": "uint256",
          "name": "",
          "type": "uint256"
        }
      ],
      "stateMutability": "view",
      "type": "function"
    },
    {
      "inputs": [
        {
          "internalType": "uint256",
          "name": "baseRatePerYear",
          "type": "uint256"
        },
        {
          "internalType": "uint256",
          "name": "multiplierPerYear",
          "type": "uint256"
        },
        {
          "internalType": "uint256",
          "name": "jumpMultiplierPerYear",
          "type": "uint256"
        },
        {
          "internalType": "uint256",
          "name": "kink_",
          "type": "uint256"
        }
      ],
      "name": "updateJumpRateModel",
      "outputs": [],
      "stateMutability": "nonpayable",
      "type": "function"
    },
    {
      "inputs": [
        {
          "internalType": "uint256",
          "name": "cash",
          "type": "uint256"
        },
        {
          "internalType": "uint256",
          "name": "borrows",
          "type": "uint256"
        },
        {
          "internalType": "uint256",
          "name": "reserves",
          "type": "uint256"
        },
        {
          "internalType": "uint256",
          "name": "badDebt",
          "type": "uint256"
        }
      ],
      "name": "utilizationRate",
      "outputs": [
        {
          "internalType": "uint256",
          "name": "",
          "type": "uint256"
        }
      ],
      "stateMutability": "pure",
      "type": "function"
    }
  ],
  "transactionHash": "0x019f6cc8b0152b49c73bf5e73432638d433a49eadb78cc83b2492757a5a5dcd9",
  "args": [
    2628000,
    "0",
    "150000000000000000",
    "2500000000000000000",
    "800000000000000000",
    "0xbf705C00578d43B6147ab4eaE04DBBEd1ccCdc96"
  ],
  "numDeployments": 1,
  "solcInputHash": "9b1ce7dc3f6775f0734e7fb93d5ebf4f",
  "bytecode": "0x60a060405234801561001057600080fd5b506040516109b83803806109b883398101604081905261002f916101a9565b8585858585856001600160a01b0381166100905760405162461bcd60e51b815260206004820152601360248201527f696e76616c69642041434d20616464726573730000000000000000000000000060448201526064015b60405180910390fd5b856000036100e05760405162461bcd60e51b815260206004820152601760248201527f496e76616c696420626c6f636b732070657220796561720000000000000000006044820152606401610087565b600080546001600160a01b0319166001600160a01b038316179055608086905261010c8585858561011d565b50505050505050505050505061022f565b60805161012a908561020d565b60025560805161013a908461020d565b60015560805161014a908361020d565b60038190556004829055600254600154604080519283526020830191909152810191909152606081018290527f6960ab234c7ef4b0c9197100f5393cfcde7c453ac910a27bd2000aa1dd4c068d9060800160405180910390a150505050565b60008060008060008060c087890312156101c257600080fd5b86516020880151604089015160608a015160808b015160a08c0151949a50929850909650945092506001600160a01b03811681146101ff57600080fd5b809150509295509295509295565b60008261022a57634e487b7160e01b600052601260045260246000fd5b500490565b60805161075961025f6000396000818161012c0152818161046a0152818161049701526104c401526107596000f3fe608060405234801561001057600080fd5b50600436106100a95760003560e01c80638726bb89116100715780638726bb891461011e578063a385fb9614610127578063b4a0bdf31461014e578063b9f9850a14610179578063f14039de14610182578063fd2da3391461018b57600080fd5b8063073b8a74146100ae5780630cde8d1c146100d45780632037f3e7146100e75780632191f92a146100fc57806370d3c43f1461010b575b600080fd5b6100c16100bc366004610548565b610194565b6040519081526020015b60405180910390f35b6100c16100e236600461057a565b6101ad565b6100fa6100f5366004610548565b610240565b005b604051600181526020016100cb565b6100c1610119366004610548565b610317565b6100c160015481565b6100c17f000000000000000000000000000000000000000000000000000000000000000081565b600054610161906001600160a01b031681565b6040516001600160a01b0390911681526020016100cb565b6100c160035481565b6100c160025481565b6100c160045481565b60006101a2858585856103a0565b90505b949350505050565b6000806101c284670de0b6b3a76400006105cb565b905060006101d2888888876103a0565b90506000670de0b6b3a76400006101e984846105e4565b6101f391906105fb565b90506000610201828a6105e4565b9050600088876102118c8e61061d565b61021b919061061d565b61022591906105cb565b905061023181836105fb565b9b9a5050505050505050505050565b60006040518060600160405280603481526020016106f060349139600080546040516318c5e8ab60e01b815292935090916001600160a01b03909116906318c5e8ab906102939033908690600401610676565b602060405180830381865afa1580156102b0573d6000803e3d6000fd5b505050506040513d601f19601f820116820180604052508101906102d4919061069a565b90508061030357333083604051634a3fa29360e01b81526004016102fa939291906106c3565b60405180910390fd5b61030f86868686610465565b505050505050565b6000610323828561061d565b600003610332575060006101a5565b60008383610340878961061d565b61034a919061061d565b61035491906105cb565b670de0b6b3a7640000610367858861061d565b61037191906105e4565b61037b91906105fb565b9050670de0b6b3a76400008111156101a25750670de0b6b3a764000095945050505050565b6000806103af86868686610317565b6004549091508082116103f357600254670de0b6b3a7640000600154846103d691906105e4565b6103e091906105fb565b6103ea919061061d565b925050506101a5565b6000600254670de0b6b3a76400006001548461040f91906105e4565b61041991906105fb565b610423919061061d565b90506000828403905081670de0b6b3a76400006003548361044491906105e4565b61044e91906105fb565b610458919061061d565b9998505050505050505050565b61048f7f0000000000000000000000000000000000000000000000000000000000000000856105fb565b6002556104bc7f0000000000000000000000000000000000000000000000000000000000000000846105fb565b6001556104e97f0000000000000000000000000000000000000000000000000000000000000000836105fb565b60038190556004829055600254600154604080519283526020830191909152810191909152606081018290527f6960ab234c7ef4b0c9197100f5393cfcde7c453ac910a27bd2000aa1dd4c068d9060800160405180910390a150505050565b6000806000806080858703121561055e57600080fd5b5050823594602084013594506040840135936060013592509050565b600080600080600060a0868803121561059257600080fd5b505083359560208501359550604085013594606081013594506080013592509050565b634e487b7160e01b600052601160045260246000fd5b818103818111156105de576105de6105b5565b92915050565b80820281158282048414176105de576105de6105b5565b60008261061857634e487b7160e01b600052601260045260246000fd5b500490565b808201808211156105de576105de6105b5565b6000815180845260005b818110156106565760208185018101518683018201520161063a565b506000602082860101526020601f19601f83011685010191505092915050565b6001600160a01b03831681526040602082018190526000906101a590830184610630565b6000602082840312156106ac57600080fd5b815180151581146106bc57600080fd5b9392505050565b6001600160a01b038481168252831660208201526060604082018190526000906101a29083018461063056fe7570646174654a756d70526174654d6f64656c2875696e743235362c75696e743235362c75696e743235362c75696e7432353629a2646970667358221220da4826fe31af4d4ed0f9b2bf4cbbd1ad136c3a5426d8b6e3dbf6524c1f7974f664736f6c63430008190033",
  "devdoc": {
    "author": "Arr00",
    "kind": "dev",
    "methods": {
      "getBorrowRate(uint256,uint256,uint256,uint256)": {
        "params": {
          "badDebt": "The amount of badDebt in the market",
          "borrows": "The amount of borrows in the market",
          "cash": "The amount of cash in the market",
          "reserves": "The amount of reserves in the market"
        },
        "returns": {
          "_0": "The borrow rate percentage per block as a mantissa (scaled by 1e18)"
        }
      },
      "getSupplyRate(uint256,uint256,uint256,uint256,uint256)": {
        "params": {
          "badDebt": "The amount of badDebt in the market",
          "borrows": "The amount of borrows in the market",
          "cash": "The amount of cash in the market",
          "reserveFactorMantissa": "The current reserve factor for the market",
          "reserves": "The amount of reserves in the market"
        },
        "returns": {
          "_0": "The supply rate percentage per block as a mantissa (scaled by EXP_SCALE)"
        }
      },
      "isInterestRateModel()": {
        "returns": {
          "_0": "Always true"
        }
      },
      "updateJumpRateModel(uint256,uint256,uint256,uint256)": {
        "custom:access": "Controlled by AccessControlManager",
        "custom:error": "Unauthorized if the sender is not allowed to call this function",
        "params": {
          "baseRatePerYear": "The approximate target base APR, as a mantissa (scaled by EXP_SCALE)",
          "jumpMultiplierPerYear": "The multiplierPerBlock after hitting a specified utilization point",
          "kink_": "The utilization point at which the jump multiplier is applied",
          "multiplierPerYear": "The rate of increase in interest rate wrt utilization (scaled by EXP_SCALE)"
        }
      },
      "utilizationRate(uint256,uint256,uint256,uint256)": {
        "params": {
          "badDebt": "The amount of badDebt in the market",
          "borrows": "The amount of borrows in the market",
          "cash": "The amount of cash in the market",
          "reserves": "The amount of reserves in the market (currently unused)"
        },
        "returns": {
          "_0": "The utilization rate as a mantissa between [0, MANTISSA_ONE]"
        }
      }
    },
    "title": "Compound's JumpRateModel Contract V2 for V2 vTokens",
    "version": 1
  },
  "userdoc": {
    "errors": {
      "Unauthorized(address,address,string)": [
        {
          "notice": "Thrown when the action is prohibited by AccessControlManager"
        }
      ]
    },
    "kind": "user",
    "methods": {
      "accessControlManager()": {
        "notice": "The address of the AccessControlManager contract"
      },
      "baseRatePerBlock()": {
        "notice": "The base interest rate which is the y-intercept when utilization rate is 0"
      },
      "blocksPerYear()": {
        "notice": "The approximate number of blocks per year that is assumed by the interest rate model"
      },
      "getBorrowRate(uint256,uint256,uint256,uint256)": {
        "notice": "Calculates the current borrow rate per block"
      },
      "getSupplyRate(uint256,uint256,uint256,uint256,uint256)": {
        "notice": "Calculates the current supply rate per block"
      },
      "isInterestRateModel()": {
        "notice": "Indicator that this is an InterestRateModel contract (for inspection)"
      },
      "jumpMultiplierPerBlock()": {
        "notice": "The multiplier per block after hitting a specified utilization point"
      },
      "kink()": {
        "notice": "The utilization point at which the jump multiplier is applied"
      },
      "multiplierPerBlock()": {
        "notice": "The multiplier of utilization rate that gives the slope of the interest rate"
      },
      "updateJumpRateModel(uint256,uint256,uint256,uint256)": {
        "notice": "Update the parameters of the interest rate model"
      },
      "utilizationRate(uint256,uint256,uint256,uint256)": {
        "notice": "Calculates the utilization rate of the market: `(borrows + badDebt) / (cash + borrows + badDebt - reserves)`"
      }
    },
    "notice": "Supports only for V2 vTokens",
    "version": 1
  },
  "storageLayout": {
    "storage": [
      {
        "astId": 15786,
        "contract": "contracts/JumpRateModelV2.sol:JumpRateModelV2",
        "label": "accessControlManager",
        "offset": 0,
        "slot": "0",
        "type": "t_contract(IAccessControlManagerV8)7478"
      },
      {
        "astId": 15789,
        "contract": "contracts/JumpRateModelV2.sol:JumpRateModelV2",
        "label": "multiplierPerBlock",
        "offset": 0,
        "slot": "1",
        "type": "t_uint256"
      },
      {
        "astId": 15792,
        "contract": "contracts/JumpRateModelV2.sol:JumpRateModelV2",
        "label": "baseRatePerBlock",
        "offset": 0,
        "slot": "2",
        "type": "t_uint256"
      },
      {
        "astId": 15795,
        "contract": "contracts/JumpRateModelV2.sol:JumpRateModelV2",
        "label": "jumpMultiplierPerBlock",
        "offset": 0,
        "slot": "3",
        "type": "t_uint256"
      },
      {
        "astId": 15798,
        "contract": "contracts/JumpRateModelV2.sol:JumpRateModelV2",
        "label": "kink",
        "offset": 0,
        "slot": "4",
        "type": "t_uint256"
      }
    ],
    "types": {
      "t_contract(IAccessControlManagerV8)7478": {
        "encoding": "inplace",
        "label": "contract IAccessControlManagerV8",
        "numberOfBytes": "20"
      },
      "t_uint256": {
        "encoding": "inplace",
        "label": "uint256",
        "numberOfBytes": "32"
      }
    }
  }
}