{
  "address": "0x08C5378b4E47183c4c02d5226e2751F1043b7100",
  "abi": [
    {
      "inputs": [
        {
          "internalType": "int256",
          "name": "baseRatePerYear_",
          "type": "int256"
        },
        {
          "internalType": "int256",
          "name": "multiplierPerYear_",
          "type": "int256"
        },
        {
          "internalType": "int256",
          "name": "kink1_",
          "type": "int256"
        },
        {
          "internalType": "int256",
          "name": "multiplier2PerYear_",
          "type": "int256"
        },
        {
          "internalType": "int256",
          "name": "baseRate2PerYear_",
          "type": "int256"
        },
        {
          "internalType": "int256",
          "name": "kink2_",
          "type": "int256"
        },
        {
          "internalType": "int256",
          "name": "jumpMultiplierPerYear_",
          "type": "int256"
        },
        {
          "internalType": "bool",
          "name": "timeBased_",
          "type": "bool"
        },
        {
          "internalType": "uint256",
          "name": "blocksPerYear_",
          "type": "uint256"
        }
      ],
      "stateMutability": "nonpayable",
      "type": "constructor"
    },
    {
      "inputs": [],
      "name": "InvalidBlocksPerYear",
      "type": "error"
    },
    {
      "inputs": [],
      "name": "InvalidKink",
      "type": "error"
    },
    {
      "inputs": [],
      "name": "InvalidTimeBasedConfiguration",
      "type": "error"
    },
    {
      "inputs": [],
      "name": "NegativeValueNotAllowed",
      "type": "error"
    },
    {
      "inputs": [],
      "name": "BASE_RATE_2_PER_BLOCK_OR_SECOND",
      "outputs": [
        {
          "internalType": "int256",
          "name": "",
          "type": "int256"
        }
      ],
      "stateMutability": "view",
      "type": "function"
    },
    {
      "inputs": [],
      "name": "BASE_RATE_PER_BLOCK_OR_SECOND",
      "outputs": [
        {
          "internalType": "int256",
          "name": "",
          "type": "int256"
        }
      ],
      "stateMutability": "view",
      "type": "function"
    },
    {
      "inputs": [],
      "name": "JUMP_MULTIPLIER_PER_BLOCK_OR_SECOND",
      "outputs": [
        {
          "internalType": "int256",
          "name": "",
          "type": "int256"
        }
      ],
      "stateMutability": "view",
      "type": "function"
    },
    {
      "inputs": [],
      "name": "KINK_1",
      "outputs": [
        {
          "internalType": "int256",
          "name": "",
          "type": "int256"
        }
      ],
      "stateMutability": "view",
      "type": "function"
    },
    {
      "inputs": [],
      "name": "KINK_2",
      "outputs": [
        {
          "internalType": "int256",
          "name": "",
          "type": "int256"
        }
      ],
      "stateMutability": "view",
      "type": "function"
    },
    {
      "inputs": [],
      "name": "MULTIPLIER_2_PER_BLOCK_OR_SECOND",
      "outputs": [
        {
          "internalType": "int256",
          "name": "",
          "type": "int256"
        }
      ],
      "stateMutability": "view",
      "type": "function"
    },
    {
      "inputs": [],
      "name": "MULTIPLIER_PER_BLOCK_OR_SECOND",
      "outputs": [
        {
          "internalType": "int256",
          "name": "",
          "type": "int256"
        }
      ],
      "stateMutability": "view",
      "type": "function"
    },
    {
      "inputs": [],
      "name": "RATE_1",
      "outputs": [
        {
          "internalType": "int256",
          "name": "",
          "type": "int256"
        }
      ],
      "stateMutability": "view",
      "type": "function"
    },
    {
      "inputs": [],
      "name": "RATE_2",
      "outputs": [
        {
          "internalType": "int256",
          "name": "",
          "type": "int256"
        }
      ],
      "stateMutability": "view",
      "type": "function"
    },
    {
      "inputs": [],
      "name": "blocksOrSecondsPerYear",
      "outputs": [
        {
          "internalType": "uint256",
          "name": "",
          "type": "uint256"
        }
      ],
      "stateMutability": "view",
      "type": "function"
    },
    {
      "inputs": [],
      "name": "getBlockNumberOrTimestamp",
      "outputs": [
        {
          "internalType": "uint256",
          "name": "",
          "type": "uint256"
        }
      ],
      "stateMutability": "view",
      "type": "function"
    },
    {
      "inputs": [
        {
          "internalType": "uint256",
          "name": "cash",
          "type": "uint256"
        },
        {
          "internalType": "uint256",
          "name": "borrows",
          "type": "uint256"
        },
        {
          "internalType": "uint256",
          "name": "reserves",
          "type": "uint256"
        },
        {
          "internalType": "uint256",
          "name": "badDebt",
          "type": "uint256"
        }
      ],
      "name": "getBorrowRate",
      "outputs": [
        {
          "internalType": "uint256",
          "name": "",
          "type": "uint256"
        }
      ],
      "stateMutability": "view",
      "type": "function"
    },
    {
      "inputs": [
        {
          "internalType": "uint256",
          "name": "cash",
          "type": "uint256"
        },
        {
          "internalType": "uint256",
          "name": "borrows",
          "type": "uint256"
        },
        {
          "internalType": "uint256",
          "name": "reserves",
          "type": "uint256"
        },
        {
          "internalType": "uint256",
          "name": "reserveFactorMantissa",
          "type": "uint256"
        },
        {
          "internalType": "uint256",
          "name": "badDebt",
          "type": "uint256"
        }
      ],
      "name": "getSupplyRate",
      "outputs": [
        {
          "internalType": "uint256",
          "name": "",
          "type": "uint256"
        }
      ],
      "stateMutability": "view",
      "type": "function"
    },
    {
      "inputs": [],
      "name": "isInterestRateModel",
      "outputs": [
        {
          "internalType": "bool",
          "name": "",
          "type": "bool"
        }
      ],
      "stateMutability": "pure",
      "type": "function"
    },
    {
      "inputs": [],
      "name": "isTimeBased",
      "outputs": [
        {
          "internalType": "bool",
          "name": "",
          "type": "bool"
        }
      ],
      "stateMutability": "view",
      "type": "function"
    },
    {
      "inputs": [
        {
          "internalType": "uint256",
          "name": "cash",
          "type": "uint256"
        },
        {
          "internalType": "uint256",
          "name": "borrows",
          "type": "uint256"
        },
        {
          "internalType": "uint256",
          "name": "reserves",
          "type": "uint256"
        },
        {
          "internalType": "uint256",
          "name": "badDebt",
          "type": "uint256"
        }
      ],
      "name": "utilizationRate",
      "outputs": [
        {
          "internalType": "uint256",
          "name": "",
          "type": "uint256"
        }
      ],
      "stateMutability": "pure",
      "type": "function"
    }
  ],
  "transactionHash": "0x5c99cbce81045bcdb6b59be7a00e880a6c4dc5ea49cce512ba66233475d713b5",
  "args": [
    "0",
    "100000000000000000",
    "800000000000000000",
    "700000000000000000",
    "0",
    "900000000000000000",
    "800000000000000000",
    false,
    2628000
  ],
  "numDeployments": 1,
  "solcInputHash": "2779d74bb5f3dd850decc06e31b696d8",
  "bytecode": "0x61020060405234801561001157600080fd5b50604051610ca8380380610ca883398101604081905261003091610209565b81818115801561003e575080155b1561005c576040516302723dfb60e21b815260040160405180910390fd5b81801561006857508015155b156100865760405163ae0fcab360e01b815260040160405180910390fd5b81151560a05281610097578061009d565b6301e133805b608052816100b45761020160201b610480176100bf565b61020560201b610484175b6001600160401b031660c052505060008912806100dc5750600085125b156100fa576040516341820e7560e11b815260040160405180910390fd5b868413158061010a575060008713155b1561012857604051637099641d60e11b815260040160405180910390fd5b608051610135818b610298565b61010052610143818a610298565b60e0526101208890526101568188610298565b610140526101648187610298565b610160526101a08590526101788185610298565b6101c0526101005160e05161012051670de0b6b3a76400009291839161019e91906102d4565b6101a89190610298565b6101b2919061030a565b61018052610120516101a0516101605161014051929091039183906101d790846102d4565b6101e19190610298565b6101eb919061030a565b6101e052506103329a5050505050505050505050565b4390565b4290565b60008060008060008060008060006101208a8c03121561022857600080fd5b8951985060208a0151975060408a0151965060608a0151955060808a0151945060a08a0151935060c08a0151925060e08a0151801515811461026957600080fd5b809250506101008a015190509295985092959850929598565b634e487b7160e01b600052601160045260246000fd5b6000826102b557634e487b7160e01b600052601260045260246000fd5b600160ff1b8214600019841416156102cf576102cf610282565b500590565b80820260008212600160ff1b841416156102f0576102f0610282565b818105831482151761030457610304610282565b92915050565b808201828112600083128015821682158216171561032a5761032a610282565b505092915050565b60805160a05160c05160e05161010051610120516101405161016051610180516101a0516101c0516101e051610891610417600039600081816102180152610687015260008181610169015261064d0152600081816101ca0152818161053d0152610624015260008181610109015281816105f301526106a80152600081816102c7015261058a0152600081816102f601526105af0152600081816101f1015281816104a401526105650152600081816101a301526104cf01526000818161027901526104f401526000610454015260006102a00152600061023f01526108916000f3fe608060405234801561001057600080fd5b50600436106100ff5760003560e01c80635d0054c411610097578063c7ad089511610066578063c7ad08951461029b578063d783c4c8146102c2578063e1d146fb146102e9578063ef882f19146102f157600080fd5b80635d0054c4146102135780636857249c1461023a57806370d3c43f14610261578063a22ed0f81461027457600080fd5b80632191f92a116100d35780632191f92a1461018b57806333da32671461019e57806338afe9c4146101c55780633b53e888146101ec57600080fd5b8062084e8914610104578063073b8a741461013e5780630cde8d1c1461015157806310c68e4b14610164575b600080fd5b61012b7f000000000000000000000000000000000000000000000000000000000000000081565b6040519081526020015b60405180910390f35b61012b61014c3660046106e5565b610318565b61012b61015f366004610717565b610331565b61012b7f000000000000000000000000000000000000000000000000000000000000000081565b60015b6040519015158152602001610135565b61012b7f000000000000000000000000000000000000000000000000000000000000000081565b61012b7f000000000000000000000000000000000000000000000000000000000000000081565b61012b7f000000000000000000000000000000000000000000000000000000000000000081565b61012b7f000000000000000000000000000000000000000000000000000000000000000081565b61012b7f000000000000000000000000000000000000000000000000000000000000000081565b61012b61026f3660046106e5565b6103c4565b61012b7f000000000000000000000000000000000000000000000000000000000000000081565b61018e7f000000000000000000000000000000000000000000000000000000000000000081565b61012b7f000000000000000000000000000000000000000000000000000000000000000081565b61012b61044d565b61012b7f000000000000000000000000000000000000000000000000000000000000000081565b600061032685858585610488565b90505b949350505050565b60008061034684670de0b6b3a7640000610768565b9050600061035688888887610488565b90506000670de0b6b3a764000061036d8484610781565b61037791906107ae565b90506000610385828a610781565b9050600088876103958c8e6107c2565b61039f91906107c2565b6103a99190610768565b90506103b581836107ae565b9b9a5050505050505050505050565b60006103d082856107c2565b6000036103df57506000610329565b600083836103ed87896107c2565b6103f791906107c2565b6104019190610768565b670de0b6b3a764000061041485886107c2565b61041e9190610781565b61042891906107ae565b9050670de0b6b3a76400008111156103265750670de0b6b3a764000095945050505050565b600061047b7f000000000000000000000000000000000000000000000000000000000000000063ffffffff16565b905090565b4390565b4290565b600080610497868686866103c4565b9050670de0b6b3a76400007f000000000000000000000000000000000000000000000000000000000000000082121561053b576105327f0000000000000000000000000000000000000000000000000000000000000000826105197f0000000000000000000000000000000000000000000000000000000000000000866107d5565b6105239190610805565b61052d9190610833565b6106cc565b92505050610329565b7f0000000000000000000000000000000000000000000000000000000000000000821215610622577f0000000000000000000000000000000000000000000000000000000000000000820360007f0000000000000000000000000000000000000000000000000000000000000000836105d47f0000000000000000000000000000000000000000000000000000000000000000856107d5565b6105de9190610805565b6105e89190610833565b905061061761052d827f0000000000000000000000000000000000000000000000000000000000000000610833565b945050505050610329565b7f000000000000000000000000000000000000000000000000000000000000000082036000826106727f0000000000000000000000000000000000000000000000000000000000000000846107d5565b61067c9190610805565b9050610617816105237f00000000000000000000000000000000000000000000000000000000000000007f0000000000000000000000000000000000000000000000000000000000000000610833565b6000808083136106dc57806106de565b825b9392505050565b600080600080608085870312156106fb57600080fd5b5050823594602084013594506040840135936060013592509050565b600080600080600060a0868803121561072f57600080fd5b505083359560208501359550604085013594606081013594506080013592509050565b634e487b7160e01b600052601160045260246000fd5b8181038181111561077b5761077b610752565b92915050565b808202811582820484141761077b5761077b610752565b634e487b7160e01b600052601260045260246000fd5b6000826107bd576107bd610798565b500490565b8082018082111561077b5761077b610752565b80820260008212600160ff1b841416156107f1576107f1610752565b818105831482151761077b5761077b610752565b60008261081457610814610798565b600160ff1b82146000198414161561082e5761082e610752565b500590565b808201828112600083128015821682158216171561085357610853610752565b50509291505056fea264697066735822122041efee9a74a0a97d8aa0303dcaa41d2664d817542f0d86ea7ea347b935e7418464736f6c63430008190033",
  "devdoc": {
    "author": "Venus",
    "kind": "dev",
    "methods": {
      "constructor": {
        "params": {
          "baseRate2PerYear_": "The additonal base APR after hitting KINK_1, as a mantissa (scaled by EXP_SCALE)",
          "baseRatePerYear_": "The approximate target base APR, as a mantissa (scaled by EXP_SCALE)",
          "blocksPerYear_": "The number of blocks per year",
          "jumpMultiplierPerYear_": "The multiplier after hitting KINK_2",
          "kink1_": "The utilization point at which the multiplier2 is applied",
          "kink2_": "The utilization point at which the jump multiplier is applied",
          "multiplier2PerYear_": "The rate of increase or decrease in interest rate wrt utilization after hitting KINK_1 (scaled by EXP_SCALE)",
          "multiplierPerYear_": "The rate of increase or decrease in interest rate wrt utilization (scaled by EXP_SCALE)",
          "timeBased_": "A boolean indicating whether the contract is based on time or block."
        }
      },
      "getBlockNumberOrTimestamp()": {
        "details": "Function to simply retrieve block number or block timestamp",
        "returns": {
          "_0": "Current block number or block timestamp"
        }
      },
      "getBorrowRate(uint256,uint256,uint256,uint256)": {
        "params": {
          "badDebt": "The amount of badDebt in the market",
          "borrows": "The amount of borrows in the market",
          "cash": "The amount of cash in the market",
          "reserves": "The amount of reserves in the market"
        },
        "returns": {
          "_0": "The borrow rate percentage per slot (block or second) as a mantissa (scaled by EXP_SCALE)"
        }
      },
      "getSupplyRate(uint256,uint256,uint256,uint256,uint256)": {
        "params": {
          "badDebt": "The amount of badDebt in the market",
          "borrows": "The amount of borrows in the market",
          "cash": "The amount of cash in the market",
          "reserveFactorMantissa": "The current reserve factor for the market",
          "reserves": "The amount of reserves in the market"
        },
        "returns": {
          "_0": "The supply rate percentage per slot (block or second) as a mantissa (scaled by EXP_SCALE)"
        }
      },
      "isInterestRateModel()": {
        "returns": {
          "_0": "Always true"
        }
      },
      "utilizationRate(uint256,uint256,uint256,uint256)": {
        "params": {
          "badDebt": "The amount of badDebt in the market",
          "borrows": "The amount of borrows in the market",
          "cash": "The amount of cash in the market",
          "reserves": "The amount of reserves in the market (currently unused)"
        },
        "returns": {
          "_0": "The utilization rate as a mantissa between [0, MANTISSA_ONE]"
        }
      }
    },
    "title": "TwoKinksInterestRateModel",
    "version": 1
  },
  "userdoc": {
    "errors": {
      "InvalidBlocksPerYear()": [
        {
          "notice": "Thrown when blocks per year is invalid"
        }
      ],
      "InvalidKink()": [
        {
          "notice": "Thrown when the kink points are not in the correct order"
        }
      ],
      "InvalidTimeBasedConfiguration()": [
        {
          "notice": "Thrown when time based but blocks per year is provided"
        }
      ],
      "NegativeValueNotAllowed()": [
        {
          "notice": "Thrown when a negative value is not allowed"
        }
      ]
    },
    "kind": "user",
    "methods": {
      "BASE_RATE_2_PER_BLOCK_OR_SECOND()": {
        "notice": "The base interest rate per block or second which is the y-intercept when utilization rate hits KINK_1 scaled by EXP_SCALE"
      },
      "BASE_RATE_PER_BLOCK_OR_SECOND()": {
        "notice": "The base interest rate per block or second which is the y-intercept when utilization rate is 0 scaled by EXP_SCALE"
      },
      "JUMP_MULTIPLIER_PER_BLOCK_OR_SECOND()": {
        "notice": "The multiplier of utilization rate per block or second that gives the slope 3 of interest rate scaled by EXP_SCALE"
      },
      "KINK_1()": {
        "notice": "The utilization point at which the multiplier2 is applied"
      },
      "KINK_2()": {
        "notice": "The utilization point at which the jump multiplier is applied"
      },
      "MULTIPLIER_2_PER_BLOCK_OR_SECOND()": {
        "notice": "The multiplier of utilization rate per block or second that gives the slope 2 of the interest rate scaled by EXP_SCALE"
      },
      "MULTIPLIER_PER_BLOCK_OR_SECOND()": {
        "notice": "The multiplier of utilization rate per block or second that gives the slope 1 of the interest rate scaled by EXP_SCALE"
      },
      "RATE_1()": {
        "notice": "The maximum kink interest rate scaled by EXP_SCALE"
      },
      "RATE_2()": {
        "notice": "The maximum kink interest rate scaled by EXP_SCALE"
      },
      "blocksOrSecondsPerYear()": {
        "notice": "Stores blocksPerYear if isTimeBased is true else secondsPerYear is stored"
      },
      "constructor": {
        "notice": "Construct an interest rate model"
      },
      "getBorrowRate(uint256,uint256,uint256,uint256)": {
        "notice": "Calculates the current borrow rate per slot (block or second)"
      },
      "getSupplyRate(uint256,uint256,uint256,uint256,uint256)": {
        "notice": "Calculates the current supply rate per slot (block or second)"
      },
      "isInterestRateModel()": {
        "notice": "Indicator that this is an InterestRateModel contract (for inspection)"
      },
      "isTimeBased()": {
        "notice": "Acknowledges if a contract is time based or not"
      },
      "utilizationRate(uint256,uint256,uint256,uint256)": {
        "notice": "Calculates the utilization rate of the market: `(borrows + badDebt) / (cash + borrows + badDebt - reserves)`"
      }
    },
    "notice": "An interest rate model with two different slope increase or decrease each after a certain utilization threshold called **kink** is reached.",
    "version": 1
  },
  "storageLayout": {
    "storage": [
      {
        "astId": 9747,
        "contract": "contracts/TwoKinksInterestRateModel.sol:TwoKinksInterestRateModel",
        "label": "__gap",
        "offset": 0,
        "slot": "0",
        "type": "t_array(t_uint256)48_storage"
      }
    ],
    "types": {
      "t_array(t_uint256)48_storage": {
        "base": "t_uint256",
        "encoding": "inplace",
        "label": "uint256[48]",
        "numberOfBytes": "1536"
      },
      "t_uint256": {
        "encoding": "inplace",
        "label": "uint256",
        "numberOfBytes": "32"
      }
    }
  }
}