{
  "address": "0x9Ed9e848cE1467a6959c0f28538C46252852180A",
  "abi": [
    {
      "inputs": [],
      "name": "Unauthorized",
      "type": "error"
    },
    {
      "inputs": [],
      "name": "run",
      "outputs": [],
      "stateMutability": "nonpayable",
      "type": "function"
    }
  ],
  "transactionHash": "0x07d1f9fd4a58b031a7d04cd299fab32ae8655cc1d38cca88ecdc71c0db11f266",
  "args": [],
  "numDeployments": 1,
  "solcInputHash": "ce71a091fa68a9bdcb85d5727d6fb46f",
  "bytecode": "0x6080604052348015600f57600080fd5b506102858061001f6000396000f3fe608060405234801561001057600080fd5b506004361061002b5760003560e01c8063c040622614610030575b600080fd5b61003861003a565b005b731c4e015bd435efcf4f58d82b0d0fba8fc4f81120331461006d576040516282b42960e81b815260040160405180910390fd5b6040516345e6a00b60e11b815273ce10739590001705f7ff231611ba4a48b282032760048201527386f82bca79774fc04859966917d2291a68b870a990638bcd401690602401600060405180830381600087803b1580156100cd57600080fd5b505af11580156100e1573d6000803e3d6000fd5b50506040516345e6a00b60e11b815273c60db9ed666a30b0683c9e30eb83adde50db9355600482015273034cc5097379b13d3ed5f6c85c8faf20f48ae4809250638bcd40169150602401600060405180830381600087803b15801561014557600080fd5b505af1158015610159573d6000803e3d6000fd5b50506040516345e6a00b60e11b81527341255da851247d67c13a30e1159778eb2c55ddda600482015273e3923805f6e117e51f5387421240a86ef1570abc9250638bcd40169150602401600060405180830381600087803b1580156101bd57600080fd5b505af11580156101d1573d6000803e3d6000fd5b50506040516345e6a00b60e11b81527379c2be1da288dfd2fefa6ff6f1891d5343ccec6d600482015273d36a31acd3d901aed998da6e24e848798378474e9250638bcd40169150602401600060405180830381600087803b15801561023557600080fd5b505af1158015610249573d6000803e3d6000fd5b5050505056fea2646970667358221220e5d406e90ffa7449a2be0360948d539309675e60280eccf2594de7fa484aec8a64736f6c63430008190033",
  "devdoc": {
    "kind": "dev",
    "methods": {},
    "version": 1
  },
  "userdoc": {
    "kind": "user",
    "methods": {},
    "version": 1
  },
  "storageLayout": {
    "storage": [],
    "types": null
  }
}