{
  "address": "0x309004d656071754509a97de0E36774DCe514e65",
  "abi": [
    {
      "inputs": [
        {
          "internalType": "uint256",
          "name": "baseRatePerYear",
          "type": "uint256"
        },
        {
          "internalType": "uint256",
          "name": "multiplierPerYear",
          "type": "uint256"
        },
        {
          "internalType": "uint256",
          "name": "jumpMultiplierPerYear",
          "type": "uint256"
        },
        {
          "internalType": "uint256",
          "name": "kink_",
          "type": "uint256"
        },
        {
          "internalType": "address",
          "name": "owner_",
          "type": "address"
        }
      ],
      "name": "deploy",
      "outputs": [
        {
          "internalType": "contract JumpRateModelV2",
          "name": "",
          "type": "address"
        }
      ],
      "stateMutability": "nonpayable",
      "type": "function"
    }
  ],
  "transactionHash": "0xc111aa5ade38878302addd87076c28916909654ff0f758c63dffac4770bca8e5",
  "args": [],
  "numDeployments": 1,
  "solcInputHash": "d1b77da75230ccb3c5a69b8cee3cb3e7",
  "bytecode": "0x608060405234801561001057600080fd5b5061088d806100206000396000f3fe608060405234801561001057600080fd5b506004361061002b5760003560e01c8063cccfa36114610030575b600080fd5b61004361003e3660046100d1565b61005f565b6040516001600160a01b03909116815260200160405180910390f35b6000808686868686604051610073906100c4565b9485526020850193909352604084019190915260608301526001600160a01b0316608082015260a001604051809103906000f0801580156100b8573d6000803e3d6000fd5b50979650505050505050565b61072d8061012b83390190565b600080600080600060a086880312156100e957600080fd5b8535945060208601359350604086013592506060860135915060808601356001600160a01b038116811461011c57600080fd5b80915050929550929590935056fe608060405234801561001057600080fd5b5060405161072d38038061072d83398101604081905261002f91610112565b600080546001600160a01b0319166001600160a01b038316179055848484848461005b8585858561006a565b505050505050505050506101bc565b610077622014808561016d565b600255610087816220148061018f565b610099670de0b6b3a76400008561018f565b6100a3919061016d565b6001556100b3622014808361016d565b60038190556004829055600254600154604080519283526020830191909152810191909152606081018290527f6960ab234c7ef4b0c9197100f5393cfcde7c453ac910a27bd2000aa1dd4c068d9060800160405180910390a150505050565b600080600080600060a0868803121561012a57600080fd5b855160208701516040880151606089015160808a0151939850919650945092506001600160a01b038116811461015f57600080fd5b809150509295509295909350565b60008261018a57634e487b7160e01b600052601260045260246000fd5b500490565b60008160001904831182151516156101b757634e487b7160e01b600052601160045260246000fd5b500290565b610562806101cb6000396000f3fe608060405234801561001057600080fd5b50600436106100a95760003560e01c80638da5cb5b116100715780638da5cb5b1461011d578063a385fb9614610148578063b816881614610152578063b9f9850a14610165578063f14039de1461016e578063fd2da3391461017757600080fd5b806315f24053146100ae5780632037f3e7146100d45780632191f92a146100e95780636e71e2d8146101015780638726bb8914610114575b600080fd5b6100c16100bc366004610448565b610180565b6040519081526020015b60405180910390f35b6100e76100e2366004610474565b610197565b005b6100f1600181565b60405190151581526020016100cb565b6100c161010f366004610448565b610216565b6100c160015481565b600054610130906001600160a01b031681565b6040516001600160a01b0390911681526020016100cb565b6100c16220148081565b6100c1610160366004610474565b610259565b6100c160035481565b6100c160025481565b6100c160045481565b600061018d8484846102d5565b90505b9392505050565b6000546001600160a01b031633146102045760405162461bcd60e51b815260206004820152602660248201527f6f6e6c7920746865206f776e6572206d61792063616c6c20746869732066756e60448201526531ba34b7b71760d11b606482015260840160405180910390fd5b610210848484846103a0565b50505050565b60008260000361022857506000610190565b8161023384866104bc565b61023d91906104d4565b61024f670de0b6b3a7640000856104eb565b61018d919061050a565b60008061026e83670de0b6b3a76400006104d4565b9050600061027d8787876102d5565b90506000670de0b6b3a764000061029484846104eb565b61029e919061050a565b9050670de0b6b3a7640000816102b58a8a8a610216565b6102bf91906104eb565b6102c9919061050a565b98975050505050505050565b6000806102e3858585610216565b9050600454811161032457600254670de0b6b3a76400006001548361030891906104eb565b610312919061050a565b61031c91906104bc565b915050610190565b6000600254670de0b6b3a764000060015460045461034291906104eb565b61034c919061050a565b61035691906104bc565b905060006004548361036891906104d4565b905081670de0b6b3a76400006003548361038291906104eb565b61038c919061050a565b61039691906104bc565b9350505050610190565b6103ad622014808561050a565b6002556103bd81622014806104eb565b6103cf670de0b6b3a7640000856104eb565b6103d9919061050a565b6001556103e9622014808361050a565b60038190556004829055600254600154604080519283526020830191909152810191909152606081018290527f6960ab234c7ef4b0c9197100f5393cfcde7c453ac910a27bd2000aa1dd4c068d9060800160405180910390a150505050565b60008060006060848603121561045d57600080fd5b505081359360208301359350604090920135919050565b6000806000806080858703121561048a57600080fd5b5050823594602084013594506040840135936060013592509050565b634e487b7160e01b600052601160045260246000fd5b600082198211156104cf576104cf6104a6565b500190565b6000828210156104e6576104e66104a6565b500390565b6000816000190483118215151615610505576105056104a6565b500290565b60008261052757634e487b7160e01b600052601260045260246000fd5b50049056fea264697066735822122020890843191959b3c9f9b0f0a678a2c7dfa3a4cedb0be088a083352b038316d264736f6c634300080d0033a264697066735822122064fd26d149df8cafa83c9f64e1bcf7548de0347527b73616eddfb414a8fcce8564736f6c634300080d0033",
  "devdoc": {
    "kind": "dev",
    "methods": {},
    "version": 1
  },
  "userdoc": {
    "kind": "user",
    "methods": {},
    "version": 1
  },
  "storageLayout": {
    "storage": [],
    "types": null
  }
}