{
  "address": "0x8F394823ae0aC91cCe7461178589f6146deb24CC",
  "abi": [
    {
      "inputs": [],
      "stateMutability": "nonpayable",
      "type": "constructor"
    },
    {
      "inputs": [
        {
          "internalType": "address",
          "name": "",
          "type": "address"
        }
      ],
      "name": "assetPrices",
      "outputs": [
        {
          "internalType": "uint256",
          "name": "",
          "type": "uint256"
        }
      ],
      "stateMutability": "view",
      "type": "function"
    },
    {
      "inputs": [
        {
          "internalType": "contract VBep20",
          "name": "vToken",
          "type": "address"
        }
      ],
      "name": "getUnderlyingPrice",
      "outputs": [
        {
          "internalType": "uint256",
          "name": "",
          "type": "uint256"
        }
      ],
      "stateMutability": "view",
      "type": "function"
    },
    {
      "inputs": [
        {
          "internalType": "address",
          "name": "asset",
          "type": "address"
        },
        {
          "internalType": "uint256",
          "name": "price",
          "type": "uint256"
        }
      ],
      "name": "setPrice",
      "outputs": [],
      "stateMutability": "nonpayable",
      "type": "function"
    },
    {
      "inputs": [
        {
          "internalType": "address",
          "name": "vToken",
          "type": "address"
        }
      ],
      "name": "updatePrice",
      "outputs": [],
      "stateMutability": "nonpayable",
      "type": "function"
    }
  ],
  "transactionHash": "0xbc81dea77269f2b056dc0fc25f3dc49e38cad029c9a1d90631b55459fda22e37",
  "args": [],
  "numDeployments": 1,
  "solcInputHash": "0e0e077a93c87b4d001f993f683fc716",
  "bytecode": "0x608060405234801561001057600080fd5b5061020c806100206000396000f3fe608060405234801561001057600080fd5b506004361061004b5760003560e01c8062e4768b146100505780635e9a523c1461007c57806396e85ced146100ae578063fc57d4df146100bf575b600080fd5b61007a61005e366004610169565b6001600160a01b03909116600090815260208190526040902055565b005b61009c61008a366004610195565b60006020819052908152604090205481565b60405190815260200160405180910390f35b61007a6100bc366004610195565b50565b61009c6100cd366004610195565b6000806000836001600160a01b0316636f307dc36040518163ffffffff1660e01b8152600401602060405180830381865afa158015610110573d6000803e3d6000fd5b505050506040513d601f19601f8201168201806040525081019061013491906101b9565b6001600160a01b0316815260208101919091526040016000205492915050565b6001600160a01b03811681146100bc57600080fd5b6000806040838503121561017c57600080fd5b823561018781610154565b946020939093013593505050565b6000602082840312156101a757600080fd5b81356101b281610154565b9392505050565b6000602082840312156101cb57600080fd5b81516101b28161015456fea26469706673582212203fc1a1c80fa31958473b4077a841cbb1e82c160f8638b3a7a6fe960900ccd0b564736f6c634300080d0033",
  "devdoc": {
    "kind": "dev",
    "methods": {},
    "version": 1
  },
  "userdoc": {
    "kind": "user",
    "methods": {},
    "version": 1
  },
  "storageLayout": {
    "storage": [
      {
        "astId": 18735,
        "contract": "contracts/test/Mocks/MockPriceOracle.sol:MockPriceOracle",
        "label": "assetPrices",
        "offset": 0,
        "slot": "0",
        "type": "t_mapping(t_address,t_uint256)"
      }
    ],
    "types": {
      "t_address": {
        "encoding": "inplace",
        "label": "address",
        "numberOfBytes": "20"
      },
      "t_mapping(t_address,t_uint256)": {
        "encoding": "mapping",
        "key": "t_address",
        "label": "mapping(address => uint256)",
        "numberOfBytes": "32",
        "value": "t_uint256"
      },
      "t_uint256": {
        "encoding": "inplace",
        "label": "uint256",
        "numberOfBytes": "32"
      }
    }
  }
}