{
  "address": "0x1CFe5C6202b59B2ba05F508C8A7c86ce90948a64",
  "abi": [
    {
      "inputs": [
        {
          "internalType": "address",
          "name": "_poolRegistry",
          "type": "address"
        },
        {
          "internalType": "address",
          "name": "_accessControl",
          "type": "address"
        }
      ],
      "stateMutability": "nonpayable",
      "type": "constructor"
    },
    {
      "inputs": [
        {
          "internalType": "uint256",
          "name": "expectedLessThanOrEqualTo",
          "type": "uint256"
        },
        {
          "internalType": "uint256",
          "name": "actual",
          "type": "uint256"
        }
      ],
      "name": "CollateralExceedsThreshold",
      "type": "error"
    },
    {
      "inputs": [
        {
          "internalType": "uint256",
          "name": "collateralToSeize",
          "type": "uint256"
        },
        {
          "internalType": "uint256",
          "name": "availableCollateral",
          "type": "uint256"
        }
      ],
      "name": "InsufficientCollateral",
      "type": "error"
    },
    {
      "inputs": [],
      "name": "InvalidCollateralFactor",
      "type": "error"
    },
    {
      "inputs": [],
      "name": "InvalidLiquidationThreshold",
      "type": "error"
    },
    {
      "inputs": [
        {
          "internalType": "enum ComptrollerErrorReporter.Error",
          "name": "err",
          "type": "uint8"
        }
      ],
      "name": "LiquidityComputationFailure",
      "type": "error"
    },
    {
      "inputs": [
        {
          "internalType": "address",
          "name": "market",
          "type": "address"
        }
      ],
      "name": "MarketNotListed",
      "type": "error"
    },
    {
      "inputs": [
        {
          "internalType": "uint256",
          "name": "expectedGreaterThan",
          "type": "uint256"
        },
        {
          "internalType": "uint256",
          "name": "actual",
          "type": "uint256"
        }
      ],
      "name": "MinimalCollateralViolated",
      "type": "error"
    },
    {
      "inputs": [],
      "name": "PriceError",
      "type": "error"
    },
    {
      "inputs": [],
      "name": "SnapshotError",
      "type": "error"
    },
    {
      "inputs": [],
      "name": "Unauthorized",
      "type": "error"
    },
    {
      "anonymous": false,
      "inputs": [
        {
          "indexed": false,
          "internalType": "string",
          "name": "action",
          "type": "string"
        },
        {
          "indexed": false,
          "internalType": "bool",
          "name": "pauseState",
          "type": "bool"
        }
      ],
      "name": "ActionPaused",
      "type": "event"
    },
    {
      "anonymous": false,
      "inputs": [
        {
          "indexed": false,
          "internalType": "contract VToken",
          "name": "vToken",
          "type": "address"
        },
        {
          "indexed": false,
          "internalType": "enum ComptrollerV1Storage.Action",
          "name": "action",
          "type": "uint8"
        },
        {
          "indexed": false,
          "internalType": "bool",
          "name": "pauseState",
          "type": "bool"
        }
      ],
      "name": "ActionPausedMarket",
      "type": "event"
    },
    {
      "anonymous": false,
      "inputs": [
        {
          "indexed": false,
          "internalType": "uint256",
          "name": "error",
          "type": "uint256"
        },
        {
          "indexed": false,
          "internalType": "uint256",
          "name": "info",
          "type": "uint256"
        },
        {
          "indexed": false,
          "internalType": "uint256",
          "name": "detail",
          "type": "uint256"
        }
      ],
      "name": "Failure",
      "type": "event"
    },
    {
      "anonymous": false,
      "inputs": [
        {
          "indexed": false,
          "internalType": "contract VToken",
          "name": "vToken",
          "type": "address"
        },
        {
          "indexed": false,
          "internalType": "address",
          "name": "account",
          "type": "address"
        }
      ],
      "name": "MarketEntered",
      "type": "event"
    },
    {
      "anonymous": false,
      "inputs": [
        {
          "indexed": false,
          "internalType": "contract VToken",
          "name": "vToken",
          "type": "address"
        },
        {
          "indexed": false,
          "internalType": "address",
          "name": "account",
          "type": "address"
        }
      ],
      "name": "MarketExited",
      "type": "event"
    },
    {
      "anonymous": false,
      "inputs": [
        {
          "indexed": false,
          "internalType": "contract VToken",
          "name": "vToken",
          "type": "address"
        }
      ],
      "name": "MarketListed",
      "type": "event"
    },
    {
      "anonymous": false,
      "inputs": [
        {
          "indexed": true,
          "internalType": "contract VToken",
          "name": "vToken",
          "type": "address"
        },
        {
          "indexed": false,
          "internalType": "uint256",
          "name": "newBorrowCap",
          "type": "uint256"
        }
      ],
      "name": "NewBorrowCap",
      "type": "event"
    },
    {
      "anonymous": false,
      "inputs": [
        {
          "indexed": false,
          "internalType": "address",
          "name": "oldBorrowCapGuardian",
          "type": "address"
        },
        {
          "indexed": false,
          "internalType": "address",
          "name": "newBorrowCapGuardian",
          "type": "address"
        }
      ],
      "name": "NewBorrowCapGuardian",
      "type": "event"
    },
    {
      "anonymous": false,
      "inputs": [
        {
          "indexed": false,
          "internalType": "uint256",
          "name": "oldCloseFactorMantissa",
          "type": "uint256"
        },
        {
          "indexed": false,
          "internalType": "uint256",
          "name": "newCloseFactorMantissa",
          "type": "uint256"
        }
      ],
      "name": "NewCloseFactor",
      "type": "event"
    },
    {
      "anonymous": false,
      "inputs": [
        {
          "indexed": false,
          "internalType": "contract VToken",
          "name": "vToken",
          "type": "address"
        },
        {
          "indexed": false,
          "internalType": "uint256",
          "name": "oldCollateralFactorMantissa",
          "type": "uint256"
        },
        {
          "indexed": false,
          "internalType": "uint256",
          "name": "newCollateralFactorMantissa",
          "type": "uint256"
        }
      ],
      "name": "NewCollateralFactor",
      "type": "event"
    },
    {
      "anonymous": false,
      "inputs": [
        {
          "indexed": false,
          "internalType": "uint256",
          "name": "oldLiquidationIncentiveMantissa",
          "type": "uint256"
        },
        {
          "indexed": false,
          "internalType": "uint256",
          "name": "newLiquidationIncentiveMantissa",
          "type": "uint256"
        }
      ],
      "name": "NewLiquidationIncentive",
      "type": "event"
    },
    {
      "anonymous": false,
      "inputs": [
        {
          "indexed": false,
          "internalType": "contract VToken",
          "name": "vToken",
          "type": "address"
        },
        {
          "indexed": false,
          "internalType": "uint256",
          "name": "oldLiquidationThresholdMantissa",
          "type": "uint256"
        },
        {
          "indexed": false,
          "internalType": "uint256",
          "name": "newLiquidationThresholdMantissa",
          "type": "uint256"
        }
      ],
      "name": "NewLiquidationThreshold",
      "type": "event"
    },
    {
      "anonymous": false,
      "inputs": [
        {
          "indexed": false,
          "internalType": "uint256",
          "name": "oldMinLiquidatableCollateral",
          "type": "uint256"
        },
        {
          "indexed": false,
          "internalType": "uint256",
          "name": "newMinLiquidatableCollateral",
          "type": "uint256"
        }
      ],
      "name": "NewMinLiquidatableCollateral",
      "type": "event"
    },
    {
      "anonymous": false,
      "inputs": [
        {
          "indexed": false,
          "internalType": "contract PriceOracle",
          "name": "oldPriceOracle",
          "type": "address"
        },
        {
          "indexed": false,
          "internalType": "contract PriceOracle",
          "name": "newPriceOracle",
          "type": "address"
        }
      ],
      "name": "NewPriceOracle",
      "type": "event"
    },
    {
      "anonymous": false,
      "inputs": [
        {
          "indexed": true,
          "internalType": "contract VToken",
          "name": "vToken",
          "type": "address"
        },
        {
          "indexed": false,
          "internalType": "uint256",
          "name": "newSupplyCap",
          "type": "uint256"
        }
      ],
      "name": "NewSupplyCap",
      "type": "event"
    },
    {
      "inputs": [
        {
          "internalType": "contract Unitroller",
          "name": "unitroller",
          "type": "address"
        }
      ],
      "name": "_become",
      "outputs": [],
      "stateMutability": "nonpayable",
      "type": "function"
    },
    {
      "inputs": [
        {
          "internalType": "contract VToken[]",
          "name": "marketsList",
          "type": "address[]"
        },
        {
          "internalType": "enum ComptrollerV1Storage.Action[]",
          "name": "actionsList",
          "type": "uint8[]"
        },
        {
          "internalType": "bool",
          "name": "paused",
          "type": "bool"
        }
      ],
      "name": "_setActionsPaused",
      "outputs": [],
      "stateMutability": "nonpayable",
      "type": "function"
    },
    {
      "inputs": [
        {
          "internalType": "uint256",
          "name": "newCloseFactorMantissa",
          "type": "uint256"
        }
      ],
      "name": "_setCloseFactor",
      "outputs": [
        {
          "internalType": "uint256",
          "name": "",
          "type": "uint256"
        }
      ],
      "stateMutability": "nonpayable",
      "type": "function"
    },
    {
      "inputs": [
        {
          "internalType": "contract VToken",
          "name": "vToken",
          "type": "address"
        },
        {
          "internalType": "uint256",
          "name": "newCollateralFactorMantissa",
          "type": "uint256"
        },
        {
          "internalType": "uint256",
          "name": "newLiquidationThresholdMantissa",
          "type": "uint256"
        }
      ],
      "name": "_setCollateralFactor",
      "outputs": [
        {
          "internalType": "uint256",
          "name": "",
          "type": "uint256"
        }
      ],
      "stateMutability": "nonpayable",
      "type": "function"
    },
    {
      "inputs": [
        {
          "internalType": "uint256",
          "name": "newLiquidationIncentiveMantissa",
          "type": "uint256"
        }
      ],
      "name": "_setLiquidationIncentive",
      "outputs": [
        {
          "internalType": "uint256",
          "name": "",
          "type": "uint256"
        }
      ],
      "stateMutability": "nonpayable",
      "type": "function"
    },
    {
      "inputs": [
        {
          "internalType": "contract VToken[]",
          "name": "vTokens",
          "type": "address[]"
        },
        {
          "internalType": "uint256[]",
          "name": "newBorrowCaps",
          "type": "uint256[]"
        }
      ],
      "name": "_setMarketBorrowCaps",
      "outputs": [],
      "stateMutability": "nonpayable",
      "type": "function"
    },
    {
      "inputs": [
        {
          "internalType": "contract VToken[]",
          "name": "vTokens",
          "type": "address[]"
        },
        {
          "internalType": "uint256[]",
          "name": "newSupplyCaps",
          "type": "uint256[]"
        }
      ],
      "name": "_setMarketSupplyCaps",
      "outputs": [],
      "stateMutability": "nonpayable",
      "type": "function"
    },
    {
      "inputs": [
        {
          "internalType": "uint256",
          "name": "newMinLiquidatableCollateral",
          "type": "uint256"
        }
      ],
      "name": "_setMinLiquidatableCollateral",
      "outputs": [],
      "stateMutability": "nonpayable",
      "type": "function"
    },
    {
      "inputs": [
        {
          "internalType": "contract PriceOracle",
          "name": "newOracle",
          "type": "address"
        }
      ],
      "name": "_setPriceOracle",
      "outputs": [
        {
          "internalType": "uint256",
          "name": "",
          "type": "uint256"
        }
      ],
      "stateMutability": "nonpayable",
      "type": "function"
    },
    {
      "inputs": [
        {
          "internalType": "contract VToken",
          "name": "vToken",
          "type": "address"
        }
      ],
      "name": "_supportMarket",
      "outputs": [
        {
          "internalType": "uint256",
          "name": "",
          "type": "uint256"
        }
      ],
      "stateMutability": "nonpayable",
      "type": "function"
    },
    {
      "inputs": [
        {
          "internalType": "address",
          "name": "",
          "type": "address"
        },
        {
          "internalType": "uint256",
          "name": "",
          "type": "uint256"
        }
      ],
      "name": "accountAssets",
      "outputs": [
        {
          "internalType": "contract VToken",
          "name": "",
          "type": "address"
        }
      ],
      "stateMutability": "view",
      "type": "function"
    },
    {
      "inputs": [
        {
          "internalType": "address",
          "name": "market",
          "type": "address"
        },
        {
          "internalType": "enum ComptrollerV1Storage.Action",
          "name": "action",
          "type": "uint8"
        }
      ],
      "name": "actionPaused",
      "outputs": [
        {
          "internalType": "bool",
          "name": "",
          "type": "bool"
        }
      ],
      "stateMutability": "view",
      "type": "function"
    },
    {
      "inputs": [
        {
          "internalType": "contract RewardsDistributor",
          "name": "_rewardsDistributor",
          "type": "address"
        }
      ],
      "name": "addRewardsDistributor",
      "outputs": [
        {
          "internalType": "uint256",
          "name": "",
          "type": "uint256"
        }
      ],
      "stateMutability": "nonpayable",
      "type": "function"
    },
    {
      "inputs": [],
      "name": "admin",
      "outputs": [
        {
          "internalType": "address",
          "name": "",
          "type": "address"
        }
      ],
      "stateMutability": "view",
      "type": "function"
    },
    {
      "inputs": [
        {
          "internalType": "uint256",
          "name": "",
          "type": "uint256"
        }
      ],
      "name": "allMarkets",
      "outputs": [
        {
          "internalType": "contract VToken",
          "name": "",
          "type": "address"
        }
      ],
      "stateMutability": "view",
      "type": "function"
    },
    {
      "inputs": [
        {
          "internalType": "address",
          "name": "vToken",
          "type": "address"
        },
        {
          "internalType": "address",
          "name": "borrower",
          "type": "address"
        },
        {
          "internalType": "uint256",
          "name": "borrowAmount",
          "type": "uint256"
        }
      ],
      "name": "borrowAllowed",
      "outputs": [
        {
          "internalType": "uint256",
          "name": "",
          "type": "uint256"
        }
      ],
      "stateMutability": "nonpayable",
      "type": "function"
    },
    {
      "inputs": [],
      "name": "borrowCapGuardian",
      "outputs": [
        {
          "internalType": "address",
          "name": "",
          "type": "address"
        }
      ],
      "stateMutability": "view",
      "type": "function"
    },
    {
      "inputs": [
        {
          "internalType": "address",
          "name": "",
          "type": "address"
        }
      ],
      "name": "borrowCaps",
      "outputs": [
        {
          "internalType": "uint256",
          "name": "",
          "type": "uint256"
        }
      ],
      "stateMutability": "view",
      "type": "function"
    },
    {
      "inputs": [
        {
          "internalType": "address",
          "name": "",
          "type": "address"
        }
      ],
      "name": "borrowGuardianPaused",
      "outputs": [
        {
          "internalType": "bool",
          "name": "",
          "type": "bool"
        }
      ],
      "stateMutability": "view",
      "type": "function"
    },
    {
      "inputs": [
        {
          "internalType": "address",
          "name": "vToken",
          "type": "address"
        },
        {
          "internalType": "address",
          "name": "borrower",
          "type": "address"
        },
        {
          "internalType": "uint256",
          "name": "borrowAmount",
          "type": "uint256"
        }
      ],
      "name": "borrowVerify",
      "outputs": [],
      "stateMutability": "nonpayable",
      "type": "function"
    },
    {
      "inputs": [
        {
          "internalType": "address",
          "name": "account",
          "type": "address"
        },
        {
          "internalType": "contract VToken",
          "name": "vToken",
          "type": "address"
        }
      ],
      "name": "checkMembership",
      "outputs": [
        {
          "internalType": "bool",
          "name": "",
          "type": "bool"
        }
      ],
      "stateMutability": "view",
      "type": "function"
    },
    {
      "inputs": [],
      "name": "closeFactorMantissa",
      "outputs": [
        {
          "internalType": "uint256",
          "name": "",
          "type": "uint256"
        }
      ],
      "stateMutability": "view",
      "type": "function"
    },
    {
      "inputs": [],
      "name": "comptrollerImplementation",
      "outputs": [
        {
          "internalType": "address",
          "name": "",
          "type": "address"
        }
      ],
      "stateMutability": "view",
      "type": "function"
    },
    {
      "inputs": [
        {
          "internalType": "address[]",
          "name": "vTokens",
          "type": "address[]"
        }
      ],
      "name": "enterMarkets",
      "outputs": [
        {
          "internalType": "uint256[]",
          "name": "",
          "type": "uint256[]"
        }
      ],
      "stateMutability": "nonpayable",
      "type": "function"
    },
    {
      "inputs": [
        {
          "internalType": "address",
          "name": "vTokenAddress",
          "type": "address"
        }
      ],
      "name": "exitMarket",
      "outputs": [
        {
          "internalType": "uint256",
          "name": "",
          "type": "uint256"
        }
      ],
      "stateMutability": "nonpayable",
      "type": "function"
    },
    {
      "inputs": [
        {
          "internalType": "address",
          "name": "account",
          "type": "address"
        }
      ],
      "name": "getAccountLiquidity",
      "outputs": [
        {
          "internalType": "uint256",
          "name": "",
          "type": "uint256"
        },
        {
          "internalType": "uint256",
          "name": "",
          "type": "uint256"
        },
        {
          "internalType": "uint256",
          "name": "",
          "type": "uint256"
        }
      ],
      "stateMutability": "view",
      "type": "function"
    },
    {
      "inputs": [],
      "name": "getAllMarkets",
      "outputs": [
        {
          "internalType": "contract VToken[]",
          "name": "",
          "type": "address[]"
        }
      ],
      "stateMutability": "view",
      "type": "function"
    },
    {
      "inputs": [
        {
          "internalType": "address",
          "name": "account",
          "type": "address"
        }
      ],
      "name": "getAssetsIn",
      "outputs": [
        {
          "internalType": "contract VToken[]",
          "name": "",
          "type": "address[]"
        }
      ],
      "stateMutability": "view",
      "type": "function"
    },
    {
      "inputs": [],
      "name": "getBlockNumber",
      "outputs": [
        {
          "internalType": "uint256",
          "name": "",
          "type": "uint256"
        }
      ],
      "stateMutability": "view",
      "type": "function"
    },
    {
      "inputs": [
        {
          "internalType": "address",
          "name": "account",
          "type": "address"
        },
        {
          "internalType": "address",
          "name": "vTokenModify",
          "type": "address"
        },
        {
          "internalType": "uint256",
          "name": "redeemTokens",
          "type": "uint256"
        },
        {
          "internalType": "uint256",
          "name": "borrowAmount",
          "type": "uint256"
        }
      ],
      "name": "getHypotheticalAccountLiquidity",
      "outputs": [
        {
          "internalType": "uint256",
          "name": "",
          "type": "uint256"
        },
        {
          "internalType": "uint256",
          "name": "",
          "type": "uint256"
        },
        {
          "internalType": "uint256",
          "name": "",
          "type": "uint256"
        }
      ],
      "stateMutability": "view",
      "type": "function"
    },
    {
      "inputs": [
        {
          "internalType": "address",
          "name": "user",
          "type": "address"
        }
      ],
      "name": "healAccount",
      "outputs": [],
      "stateMutability": "nonpayable",
      "type": "function"
    },
    {
      "inputs": [],
      "name": "isComptroller",
      "outputs": [
        {
          "internalType": "bool",
          "name": "",
          "type": "bool"
        }
      ],
      "stateMutability": "view",
      "type": "function"
    },
    {
      "inputs": [
        {
          "internalType": "contract VToken",
          "name": "vToken",
          "type": "address"
        }
      ],
      "name": "isDeprecated",
      "outputs": [
        {
          "internalType": "bool",
          "name": "",
          "type": "bool"
        }
      ],
      "stateMutability": "view",
      "type": "function"
    },
    {
      "inputs": [
        {
          "internalType": "contract VToken",
          "name": "vToken",
          "type": "address"
        }
      ],
      "name": "isMarketListed",
      "outputs": [
        {
          "internalType": "bool",
          "name": "",
          "type": "bool"
        }
      ],
      "stateMutability": "view",
      "type": "function"
    },
    {
      "inputs": [
        {
          "internalType": "address",
          "name": "borrower",
          "type": "address"
        },
        {
          "components": [
            {
              "internalType": "contract VToken",
              "name": "vTokenCollateral",
              "type": "address"
            },
            {
              "internalType": "contract VToken",
              "name": "vTokenBorrowed",
              "type": "address"
            },
            {
              "internalType": "uint256",
              "name": "repayAmount",
              "type": "uint256"
            }
          ],
          "internalType": "struct Comptroller.LiquidationOrder[]",
          "name": "orders",
          "type": "tuple[]"
        }
      ],
      "name": "liquidateAccount",
      "outputs": [],
      "stateMutability": "nonpayable",
      "type": "function"
    },
    {
      "inputs": [
        {
          "internalType": "address",
          "name": "vTokenBorrowed",
          "type": "address"
        },
        {
          "internalType": "address",
          "name": "vTokenCollateral",
          "type": "address"
        },
        {
          "internalType": "address",
          "name": "liquidator",
          "type": "address"
        },
        {
          "internalType": "address",
          "name": "borrower",
          "type": "address"
        },
        {
          "internalType": "uint256",
          "name": "repayAmount",
          "type": "uint256"
        },
        {
          "internalType": "bool",
          "name": "skipLiquidityCheck",
          "type": "bool"
        }
      ],
      "name": "liquidateBorrowAllowed",
      "outputs": [
        {
          "internalType": "uint256",
          "name": "",
          "type": "uint256"
        }
      ],
      "stateMutability": "nonpayable",
      "type": "function"
    },
    {
      "inputs": [
        {
          "internalType": "address",
          "name": "vTokenBorrowed",
          "type": "address"
        },
        {
          "internalType": "address",
          "name": "vTokenCollateral",
          "type": "address"
        },
        {
          "internalType": "address",
          "name": "liquidator",
          "type": "address"
        },
        {
          "internalType": "address",
          "name": "borrower",
          "type": "address"
        },
        {
          "internalType": "uint256",
          "name": "actualRepayAmount",
          "type": "uint256"
        },
        {
          "internalType": "uint256",
          "name": "seizeTokens",
          "type": "uint256"
        }
      ],
      "name": "liquidateBorrowVerify",
      "outputs": [],
      "stateMutability": "nonpayable",
      "type": "function"
    },
    {
      "inputs": [
        {
          "internalType": "address",
          "name": "vTokenBorrowed",
          "type": "address"
        },
        {
          "internalType": "address",
          "name": "vTokenCollateral",
          "type": "address"
        },
        {
          "internalType": "uint256",
          "name": "actualRepayAmount",
          "type": "uint256"
        }
      ],
      "name": "liquidateCalculateSeizeTokens",
      "outputs": [
        {
          "internalType": "uint256",
          "name": "",
          "type": "uint256"
        },
        {
          "internalType": "uint256",
          "name": "",
          "type": "uint256"
        }
      ],
      "stateMutability": "view",
      "type": "function"
    },
    {
      "inputs": [],
      "name": "liquidationIncentiveMantissa",
      "outputs": [
        {
          "internalType": "uint256",
          "name": "",
          "type": "uint256"
        }
      ],
      "stateMutability": "view",
      "type": "function"
    },
    {
      "inputs": [
        {
          "internalType": "address",
          "name": "",
          "type": "address"
        }
      ],
      "name": "markets",
      "outputs": [
        {
          "internalType": "bool",
          "name": "isListed",
          "type": "bool"
        },
        {
          "internalType": "uint256",
          "name": "collateralFactorMantissa",
          "type": "uint256"
        },
        {
          "internalType": "uint256",
          "name": "liquidationThresholdMantissa",
          "type": "uint256"
        }
      ],
      "stateMutability": "view",
      "type": "function"
    },
    {
      "inputs": [],
      "name": "maxAssets",
      "outputs": [
        {
          "internalType": "uint256",
          "name": "",
          "type": "uint256"
        }
      ],
      "stateMutability": "view",
      "type": "function"
    },
    {
      "inputs": [],
      "name": "minLiquidatableCollateral",
      "outputs": [
        {
          "internalType": "uint256",
          "name": "",
          "type": "uint256"
        }
      ],
      "stateMutability": "view",
      "type": "function"
    },
    {
      "inputs": [
        {
          "internalType": "address",
          "name": "vToken",
          "type": "address"
        },
        {
          "internalType": "address",
          "name": "minter",
          "type": "address"
        },
        {
          "internalType": "uint256",
          "name": "mintAmount",
          "type": "uint256"
        }
      ],
      "name": "mintAllowed",
      "outputs": [
        {
          "internalType": "uint256",
          "name": "",
          "type": "uint256"
        }
      ],
      "stateMutability": "nonpayable",
      "type": "function"
    },
    {
      "inputs": [
        {
          "internalType": "address",
          "name": "",
          "type": "address"
        }
      ],
      "name": "mintGuardianPaused",
      "outputs": [
        {
          "internalType": "bool",
          "name": "",
          "type": "bool"
        }
      ],
      "stateMutability": "view",
      "type": "function"
    },
    {
      "inputs": [
        {
          "internalType": "address",
          "name": "vToken",
          "type": "address"
        },
        {
          "internalType": "address",
          "name": "minter",
          "type": "address"
        },
        {
          "internalType": "uint256",
          "name": "actualMintAmount",
          "type": "uint256"
        },
        {
          "internalType": "uint256",
          "name": "mintTokens",
          "type": "uint256"
        }
      ],
      "name": "mintVerify",
      "outputs": [],
      "stateMutability": "nonpayable",
      "type": "function"
    },
    {
      "inputs": [],
      "name": "oracle",
      "outputs": [
        {
          "internalType": "contract PriceOracle",
          "name": "",
          "type": "address"
        }
      ],
      "stateMutability": "view",
      "type": "function"
    },
    {
      "inputs": [],
      "name": "pauseGuardian",
      "outputs": [
        {
          "internalType": "address",
          "name": "",
          "type": "address"
        }
      ],
      "stateMutability": "view",
      "type": "function"
    },
    {
      "inputs": [],
      "name": "pendingAdmin",
      "outputs": [
        {
          "internalType": "address",
          "name": "",
          "type": "address"
        }
      ],
      "stateMutability": "view",
      "type": "function"
    },
    {
      "inputs": [],
      "name": "pendingComptrollerImplementation",
      "outputs": [
        {
          "internalType": "address",
          "name": "",
          "type": "address"
        }
      ],
      "stateMutability": "view",
      "type": "function"
    },
    {
      "inputs": [
        {
          "internalType": "address",
          "name": "vToken",
          "type": "address"
        },
        {
          "internalType": "address",
          "name": "redeemer",
          "type": "address"
        },
        {
          "internalType": "uint256",
          "name": "redeemTokens",
          "type": "uint256"
        }
      ],
      "name": "redeemAllowed",
      "outputs": [
        {
          "internalType": "uint256",
          "name": "",
          "type": "uint256"
        }
      ],
      "stateMutability": "nonpayable",
      "type": "function"
    },
    {
      "inputs": [
        {
          "internalType": "address",
          "name": "vToken",
          "type": "address"
        },
        {
          "internalType": "address",
          "name": "redeemer",
          "type": "address"
        },
        {
          "internalType": "uint256",
          "name": "redeemAmount",
          "type": "uint256"
        },
        {
          "internalType": "uint256",
          "name": "redeemTokens",
          "type": "uint256"
        }
      ],
      "name": "redeemVerify",
      "outputs": [],
      "stateMutability": "nonpayable",
      "type": "function"
    },
    {
      "inputs": [
        {
          "internalType": "address",
          "name": "vToken",
          "type": "address"
        },
        {
          "internalType": "address",
          "name": "payer",
          "type": "address"
        },
        {
          "internalType": "address",
          "name": "borrower",
          "type": "address"
        },
        {
          "internalType": "uint256",
          "name": "repayAmount",
          "type": "uint256"
        }
      ],
      "name": "repayBorrowAllowed",
      "outputs": [
        {
          "internalType": "uint256",
          "name": "",
          "type": "uint256"
        }
      ],
      "stateMutability": "nonpayable",
      "type": "function"
    },
    {
      "inputs": [
        {
          "internalType": "address",
          "name": "vToken",
          "type": "address"
        },
        {
          "internalType": "address",
          "name": "payer",
          "type": "address"
        },
        {
          "internalType": "address",
          "name": "borrower",
          "type": "address"
        },
        {
          "internalType": "uint256",
          "name": "actualRepayAmount",
          "type": "uint256"
        },
        {
          "internalType": "uint256",
          "name": "borrowerIndex",
          "type": "uint256"
        }
      ],
      "name": "repayBorrowVerify",
      "outputs": [],
      "stateMutability": "nonpayable",
      "type": "function"
    },
    {
      "inputs": [
        {
          "internalType": "address",
          "name": "vTokenCollateral",
          "type": "address"
        },
        {
          "internalType": "address",
          "name": "seizerContract",
          "type": "address"
        },
        {
          "internalType": "address",
          "name": "liquidator",
          "type": "address"
        },
        {
          "internalType": "address",
          "name": "borrower",
          "type": "address"
        },
        {
          "internalType": "uint256",
          "name": "seizeTokens",
          "type": "uint256"
        }
      ],
      "name": "seizeAllowed",
      "outputs": [
        {
          "internalType": "uint256",
          "name": "",
          "type": "uint256"
        }
      ],
      "stateMutability": "nonpayable",
      "type": "function"
    },
    {
      "inputs": [],
      "name": "seizeGuardianPaused",
      "outputs": [
        {
          "internalType": "bool",
          "name": "",
          "type": "bool"
        }
      ],
      "stateMutability": "view",
      "type": "function"
    },
    {
      "inputs": [
        {
          "internalType": "address",
          "name": "vTokenCollateral",
          "type": "address"
        },
        {
          "internalType": "address",
          "name": "vTokenBorrowed",
          "type": "address"
        },
        {
          "internalType": "address",
          "name": "liquidator",
          "type": "address"
        },
        {
          "internalType": "address",
          "name": "borrower",
          "type": "address"
        },
        {
          "internalType": "uint256",
          "name": "seizeTokens",
          "type": "uint256"
        }
      ],
      "name": "seizeVerify",
      "outputs": [],
      "stateMutability": "nonpayable",
      "type": "function"
    },
    {
      "inputs": [
        {
          "internalType": "address",
          "name": "",
          "type": "address"
        }
      ],
      "name": "supplyCaps",
      "outputs": [
        {
          "internalType": "uint256",
          "name": "",
          "type": "uint256"
        }
      ],
      "stateMutability": "view",
      "type": "function"
    },
    {
      "inputs": [
        {
          "internalType": "address",
          "name": "vToken",
          "type": "address"
        },
        {
          "internalType": "address",
          "name": "src",
          "type": "address"
        },
        {
          "internalType": "address",
          "name": "dst",
          "type": "address"
        },
        {
          "internalType": "uint256",
          "name": "transferTokens",
          "type": "uint256"
        }
      ],
      "name": "transferAllowed",
      "outputs": [
        {
          "internalType": "uint256",
          "name": "",
          "type": "uint256"
        }
      ],
      "stateMutability": "nonpayable",
      "type": "function"
    },
    {
      "inputs": [],
      "name": "transferGuardianPaused",
      "outputs": [
        {
          "internalType": "bool",
          "name": "",
          "type": "bool"
        }
      ],
      "stateMutability": "view",
      "type": "function"
    },
    {
      "inputs": [
        {
          "internalType": "address",
          "name": "vToken",
          "type": "address"
        },
        {
          "internalType": "address",
          "name": "src",
          "type": "address"
        },
        {
          "internalType": "address",
          "name": "dst",
          "type": "address"
        },
        {
          "internalType": "uint256",
          "name": "transferTokens",
          "type": "uint256"
        }
      ],
      "name": "transferVerify",
      "outputs": [],
      "stateMutability": "nonpayable",
      "type": "function"
    }
  ],
  "transactionHash": "0x303a355d34b2989075764fe07915308c434c4cfb1d4ece2ef155441d08f6f939",
  "args": [
    "0x2Ae316c0D3252fDE765246B27978588C6533629B",
    "0x242eDbD8bB8a7b6F4161a37e58238D9308829894"
  ],
  "numDeployments": 1,
  "solcInputHash": "4c96c4059f6a8b0fb6971d45929b74c0",
  "bytecode": "0x60c06040523480156200001157600080fd5b506040516200538f3803806200538f83398101604081905262000034916200007b565b600080546001600160a01b031916331790556001600160a01b039182166080521660a052620000b3565b80516001600160a01b03811681146200007657600080fd5b919050565b600080604083850312156200008f57600080fd5b6200009a836200005e565b9150620000aa602084016200005e565b90509250929050565b60805160a05161528f620001006000396000818161097101528181610e6f015281816116b1015281816117d701528181611d3c0152818161243001526137c101526000505061528f6000f3fe608060405234801561001057600080fd5b50600436106103a35760003560e01c80636d154ea5116101e9578063bdcdc2581161010f578063dce15449116100ad578063e87554461161007c578063e8755446146108d2578063eabe7d91146108db578063ede4edd0146108ee578063f851a4401461090157600080fd5b8063dce1544914610886578063dcfbc0c714610899578063de87a4e4146108ac578063e85a2960146108bf57600080fd5b8063d02f7351116100e9578063d02f735114610844578063d61757e814610857578063da3d454c1461086a578063db5c65de1461087d57600080fd5b8063bdcdc258146107e9578063c2998238146107fc578063c488847b1461081c57600080fd5b8063929fe9a111610187578063abfceffc11610156578063abfceffc1461079a578063ac0b0bb7146107ba578063b0772d0b146107ce578063bb82aa5e146107d657600080fd5b8063929fe9a11461072a57806394543c151461076b57806394b2294b1461077e578063a76b3fda1461078757600080fd5b80637dc0d1d0116101c35780637dc0d1d0146106a057806387f76303146106b35780638e8f294b146106c7578063921363951461071757600080fd5b80636d154ea51461064c5780636d35bf911461066f578063731f0c2b1461067d57600080fd5b806347ef3b3b116102ce57806351dff9891161026c5780635c7786051161023b5780635c778605146106055780635ec88c7914610618578063607ef6c11461062b5780636a56947e1461063e57600080fd5b806351dff989146105b957806352d84d1e146105cc57806355ee1fe1146105df57806356aaee2d146105f257600080fd5b80634e79238f116102a85780634e79238f146105525780634ef4c3e1146105805780634fd42e171461059357806351a485e4146105a657600080fd5b806347ef3b3b146105135780634a584432146105295780634ada90af1461054957600080fd5b806324a3d62211610346578063317b0b7711610315578063317b0b77146104ba5780633d98a1e5146104cd57806341c728b9146104f957806342cbb15c1461050d57600080fd5b806324a3d6221461046e57806326782247146104815780632b5d790c146104945780632bce219c146104a757600080fd5b80631d504dc6116103825780631d504dc6146104085780631ededc911461041b57806321af45691461043057806324008a621461045b57600080fd5b80627e3dd2146103a857806302c3bcbb146103c55780631ac8e5d5146103f3575b600080fd5b6103b0600181565b60405190151581526020015b60405180910390f35b6103e56103d33660046149a8565b60116020526000908152604090205481565b6040519081526020016103bc565b6104066104013660046149c5565b610914565b005b6104066104163660046149a8565b610a49565b6104066104293660046149de565b5050505050565b600e54610443906001600160a01b031681565b6040516001600160a01b0390911681526020016103bc565b6103e5610469366004614a39565b610bcc565b600a54610443906001600160a01b031681565b600154610443906001600160a01b031681565b6104066104a2366004614ae4565b610e0f565b6104066104b5366004614b68565b610fd4565b6103e56104c83660046149c5565b611300565b6103b06104db3660046149a8565b6001600160a01b031660009081526009602052604090205460ff1690565b610406610507366004614bf0565b50505050565b436103e5565b610406610521366004614c36565b505050505050565b6103e56105373660046149a8565b600f6020526000908152604090205481565b6103e560065481565b610565610560366004614bf0565b6113a7565b604080519384526020840192909252908201526060016103bc565b6103e561058e366004614ca4565b6113d8565b6103e56105a13660046149c5565b611659565b6104066105b4366004614ce5565b61177b565b6104066105c7366004614bf0565b611a3e565b6104436105da3660046149c5565b611a8d565b6103e56105ed3660046149a8565b611ab7565b6103e56106003660046149a8565b611b2f565b610406610613366004614ca4565b505050565b6105656106263660046149a8565b611cb5565b610406610639366004614ce5565b611ce0565b610406610507366004614a39565b6103b061065a3660046149a8565b600c6020526000908152604090205460ff1681565b610406610429366004614d51565b6103b061068b3660046149a8565b600b6020526000908152604090205460ff1681565b600454610443906001600160a01b031681565b600a546103b090600160a01b900460ff1681565b6106fa6106d53660046149a8565b60096020526000908152604090208054600182015460029092015460ff909116919083565b6040805193151584526020840192909252908201526060016103bc565b6104066107253660046149a8565b611f57565b6103b0610738366004614db5565b6001600160a01b038082166000908152600960209081526040808320938616835260039093019052205460ff1692915050565b6103b06107793660046149a8565b612337565b6103e560075481565b6103e56107953660046149a8565b6123df565b6107ad6107a83660046149a8565b61264c565b6040516103bc9190614dee565b600a546103b090600160a81b900460ff1681565b6107ad6126c2565b600254610443906001600160a01b031681565b6103e56107f7366004614a39565b612724565b61080f61080a366004614e51565b612954565b6040516103bc9190614f0a565b61082f61082a366004614ca4565b612a1a565b604080519283526020830191909152016103bc565b6103e5610852366004614d51565b612c38565b6103e5610865366004614f42565b612fb6565b6103e5610878366004614ca4565b61325e565b6103e560105481565b610443610894366004614fbb565b61371c565b600354610443906001600160a01b031681565b6103e56108ba366004614fe7565b613754565b6103b06108cd36600461502b565b613a3d565b6103e560055481565b6103e56108e9366004614ca4565b613a94565b6103e56108fc3660046149a8565b613c43565b600054610443906001600160a01b031681565b604080516318c5e8ab60e01b81523360048201526024810191909152602660448201527f5f7365744d696e4c6971756964617461626c65436f6c6c61746572616c2875696064820152656e743235362960d01b60848201526000907f00000000000000000000000000000000000000000000000000000000000000006001600160a01b0316906318c5e8ab9060a401602060405180830381865afa1580156109c0573d6000803e3d6000fd5b505050506040513d601f19601f820116820180604052508101906109e49190615060565b905080610a03576040516282b42960e81b815260040160405180910390fd5b601080549083905560408051828152602081018590527eb4f4f153ad7f1397564a8830fef092481e8cf6a2cd3ff04f96d10ba51200a591015b60405180910390a1505050565b806001600160a01b031663f851a4406040518163ffffffff1660e01b8152600401602060405180830381865afa158015610a87573d6000803e3d6000fd5b505050506040513d601f19601f82011682018060405250810190610aab919061507d565b6001600160a01b0316336001600160a01b031614610b205760405162461bcd60e51b815260206004820152602760248201527f6f6e6c7920756e6974726f6c6c65722061646d696e2063616e206368616e676560448201526620627261696e7360c81b60648201526084015b60405180910390fd5b806001600160a01b031663c1e803346040518163ffffffff1660e01b81526004016020604051808303816000875af1158015610b60573d6000803e3d6000fd5b505050506040513d601f19601f82011682018060405250810190610b84919061509a565b15610bc95760405162461bcd60e51b815260206004820152601560248201527418da185b99d9481b9bdd08185d5d1a1bdc9a5e9959605a1b6044820152606401610b17565b50565b6000610bd9856003613f93565b600480546040516396e85ced60e01b81526001600160a01b03888116938201939093529116906396e85ced90602401600060405180830381600087803b158015610c2257600080fd5b505af1158015610c36573d6000803e3d6000fd5b505050506001600160a01b03851660009081526009602052604090205460ff16610c6257506009610e07565b60005b601354811015610e015760006040518060200160405280886001600160a01b031663aa5af0fd6040518163ffffffff1660e01b8152600401602060405180830381865afa158015610cba573d6000803e3d6000fd5b505050506040513d601f19601f82011682018060405250810190610cde919061509a565b815250905060138281548110610cf657610cf66150c9565b600091825260209091200154604051632352607960e01b81526001600160a01b0389811660048301528351602483015290911690632352607990604401600060405180830381600087803b158015610d4d57600080fd5b505af1158015610d61573d6000803e3d6000fd5b5050505060138281548110610d7857610d786150c9565b600091825260209091200154604051636a95ddef60e01b81526001600160a01b03898116600483015287811660248301528351604483015290911690636a95ddef90606401600060405180830381600087803b158015610dd757600080fd5b505af1158015610deb573d6000803e3d6000fd5b505050505080610dfa906150f5565b9050610c65565b50600090505b949350505050565b604080516318c5e8ab60e01b81523360048201526024810191909152602960448201527f5f736574416374696f6e735061757365642856546f6b656e5b5d2c416374696f6064820152686e5b5d2c626f6f6c2960b81b60848201526000907f00000000000000000000000000000000000000000000000000000000000000006001600160a01b0316906318c5e8ab9060a401602060405180830381865afa158015610ebe573d6000803e3d6000fd5b505050506040513d601f19601f82011682018060405250810190610ee29190615060565b905080610f3d5760405162461bcd60e51b815260206004820152602360248201527f6f6e6c7920617574686f7269736564206164647265737365732063616e20706160448201526275736560e81b6064820152608401610b17565b60005b85811015610fcb5760005b84811015610fba57610faa888884818110610f6857610f686150c9565b9050602002016020810190610f7d91906149a8565b878784818110610f8f57610f8f6150c9565b9050602002016020810190610fa4919061510e565b86613fe1565b610fb3816150f5565b9050610f4b565b50610fc4816150f5565b9050610f40565b50505050505050565b6000610fe2846140ef614123565b905060105481600001511115611019576010548151604051631a451c0f60e21b815260048101929092526024820152604401610b17565b60006110396040518060200160405280600654815250836040015161416b565b8251909150811061106a578151604051632c1f8ef160e21b8152610b17918391600401918252602082015260400190565b60005b8381101561115e5736858583818110611088576110886150c9565b6060029190910191506110a0905060208201826149a8565b6001600160a01b0316638bbdb6db338960408501356110c260208701876149a8565b60405160e086901b6001600160e01b03191681526001600160a01b0394851660048201529284166024840152604483019190915290911660648201526001608482015260a4016020604051808303816000875af1158015611127573d6000803e3d6000fd5b505050506040513d601f19601f8201168201806040525081019061114b919061509a565b505080611157906150f5565b905061106d565b506001600160a01b0385166000908152600860209081526040808320805482518185028101850190935280835291929091908301828280156111c957602002820191906000526020600020905b81546001600160a01b031681526001909101906020018083116111ab575b5050505050905060005b8151811015610fcb576000808383815181106111f1576111f16150c9565b60209081029190910101516040516361bfb47160e11b81526001600160a01b038b811660048301529091169063c37f68e290602401608060405180830381865afa158015611243573d6000803e3d6000fd5b505050506040513d601f19601f820116820180604052508101906112679190615129565b5092505091508160001461128e5760405163015a83f960e51b815260040160405180910390fd5b80156112ed5760405162461bcd60e51b815260206004820152602860248201527f4e6f6e7a65726f20626f72726f772062616c616e6365206166746572206c69716044820152673ab4b230ba34b7b760c11b6064820152608401610b17565b5050806112f9906150f5565b90506111d3565b600080546001600160a01b0316331461135b5760405162461bcd60e51b815260206004820152601f60248201527f6f6e6c792061646d696e2063616e2073657420636c6f736520666163746f72006044820152606401610b17565b600580549083905560408051828152602081018590527f3b9670cf975d26958e754b57098eaa2ac914d8d2a31b83257997b9f346110fd991015b60405180910390a160005b9392505050565b6000806000806113bc888888886141836141b7565b608081015160a09091015160009a919950975095505050505050565b60006113e5846000613f93565b6001600160a01b03841660009081526009602052604090205460ff1661140f5760095b90506113a0565b6001600160a01b0384166000908152601160205260409020548061146e5760405162461bcd60e51b815260206004820152601660248201527506d61726b657420737570706c792063617020697320360541b6044820152606401610b17565b6000856001600160a01b03166318160ddd6040518163ffffffff1660e01b8152600401602060405180830381865afa1580156114ae573d6000803e3d6000fd5b505050506040513d601f19601f820116820180604052508101906114d2919061509a565b905060006114e0828661447f565b9050828111156115325760405162461bcd60e51b815260206004820152601960248201527f6d61726b657420737570706c79206361702072656163686564000000000000006044820152606401610b17565b60005b60135481101561164b5760138181548110611552576115526150c9565b60009182526020909120015460405163051d1d4f60e11b81526001600160a01b038a8116600483015290911690630a3a3a9e90602401600060405180830381600087803b1580156115a257600080fd5b505af11580156115b6573d6000803e3d6000fd5b50505050601381815481106115cd576115cd6150c9565b60009182526020909120015460405163db7954fd60e01b81526001600160a01b039091169063db7954fd90611608908b908b9060040161515f565b600060405180830381600087803b15801561162257600080fd5b505af1158015611636573d6000803e3d6000fd5b5050505080611644906150f5565b9050611535565b506000979650505050505050565b604080516318c5e8ab60e01b81523360048201526024810191909152601e60448201527f5f7365744c69717569646174696f6e496e63656e746976652875696e74290000606482015260009081906001600160a01b037f000000000000000000000000000000000000000000000000000000000000000016906318c5e8ab90608401602060405180830381865afa1580156116f8573d6000803e3d6000fd5b505050506040513d601f19601f8201168201806040525081019061171c9190615060565b90508061172f576113a06001600b61448b565b600680549084905560408051828152602081018690527faeba5a6c40a8ac138134bff1aaa65debf25971188a58804bad717f82f0ec131691015b60405180910390a16000949350505050565b604080516318c5e8ab60e01b81523360048201526024810191909152602860448201527f5f7365744d61726b6574537570706c79436170732856546f6b656e5b5d2c75696064820152676e743235365b5d2960c01b60848201527f00000000000000000000000000000000000000000000000000000000000000006001600160a01b0316906318c5e8ab9060a401602060405180830381865afa158015611826573d6000803e3d6000fd5b505050506040513d601f19601f8201168201806040525081019061184a9190615060565b6118ac5760405162461bcd60e51b815260206004820152602d60248201527f6f6e6c792077686974656c6973746564206163636f756e74732063616e20736560448201526c7420737570706c79206361707360981b6064820152608401610b17565b60008390036118f95760405162461bcd60e51b8152602060048201526019602482015278696e76616c6964206e756d626572206f66206d61726b65747360381b6044820152606401610b17565b8281146119445760405162461bcd60e51b8152602060048201526019602482015278696e76616c6964206e756d626572206f66206d61726b65747360381b6044820152606401610b17565b60005b8381101561042957828282818110611961576119616150c9565b905060200201356011600087878581811061197e5761197e6150c9565b905060200201602081019061199391906149a8565b6001600160a01b031681526020810191909152604001600020558484828181106119bf576119bf6150c9565b90506020020160208101906119d491906149a8565b6001600160a01b03167f9e0ad9cee10bdf36b7fbd38910c0bdff0f275ace679b45b922381c2723d676f8848484818110611a1057611a106150c9565b90506020020135604051611a2691815260200190565b60405180910390a2611a37816150f5565b9050611947565b80158015611a4c5750600082115b156105075760405162461bcd60e51b815260206004820152601160248201527072656465656d546f6b656e73207a65726f60781b6044820152606401610b17565b600d8181548110611a9d57600080fd5b6000918252602090912001546001600160a01b0316905081565b600080546001600160a01b03163314611adc57611ad66001601061448b565b92915050565b600480546001600160a01b038481166001600160a01b03198316179092556040519116907fd52b2b9b7e9ee655fcb95d2e5b9e0c9f69e7ef2b8e9d2d0ea78402d576d22e2290611395908390869061515f565b600080546001600160a01b03163314611b4e57611ad66001601461448b565b6001600160a01b03821660009081526014602052604090205460ff1615611ba85760405162461bcd60e51b815260206004820152600e60248201526d616c72656164792065786973747360901b6044820152606401610b17565b6013805460018082019092557f66de8ffda797e3de9c05e8fc57b3bf0ec28a930d40b0d285d93c06501cf6a0900180546001600160a01b0319166001600160a01b0385169081179091556000908152601460205260408120805460ff19169092179091555b600d54811015611caf57826001600160a01b0316632a869a4d600d8381548110611c3957611c396150c9565b60009182526020909120015460405160e083901b6001600160e01b03191681526001600160a01b039091166004820152602401600060405180830381600087803b158015611c8657600080fd5b505af1158015611c9a573d6000803e3d6000fd5b5050505080611ca8906150f5565b9050611c0d565b50919050565b600080600080611cc785614183614123565b608081015160a090910151600097919650945092505050565b604080516318c5e8ab60e01b81523360048201526024810191909152602860448201527f5f7365744d61726b6574426f72726f77436170732856546f6b656e5b5d2c75696064820152676e743235365b5d2960c01b60848201527f00000000000000000000000000000000000000000000000000000000000000006001600160a01b0316906318c5e8ab9060a401602060405180830381865afa158015611d8b573d6000803e3d6000fd5b505050506040513d601f19601f82011682018060405250810190611daf9190615060565b611e115760405162461bcd60e51b815260206004820152602d60248201527f6f6e6c792077686974656c6973746564206163636f756e74732063616e20736560448201526c7420626f72726f77206361707360981b6064820152608401610b17565b82818115801590611e2157508082145b611e5d5760405162461bcd60e51b815260206004820152600d60248201526c1a5b9d985b1a59081a5b9c1d5d609a1b6044820152606401610b17565b60005b82811015610fcb57848482818110611e7a57611e7a6150c9565b90506020020135600f6000898985818110611e9757611e976150c9565b9050602002016020810190611eac91906149a8565b6001600160a01b03168152602081019190915260400160002055868682818110611ed857611ed86150c9565b9050602002016020810190611eed91906149a8565b6001600160a01b03167f6f1951b2aad10f3fc81b86d91105b413a5b3f847a34bbc5ce1904201b14438f6868684818110611f2957611f296150c9565b90506020020135604051611f3f91815260200190565b60405180910390a2611f50816150f5565b9050611e60565b6001600160a01b038116600090815260086020908152604080832080548251818502810185019093528083529192909190830182828015611fc157602002820191906000526020600020905b81546001600160a01b03168152600190910190602001808311611fa3575b50505050509050600033905060005b825181101561206757828181518110611feb57611feb6150c9565b60200260200101516001600160a01b031663a6afed956040518163ffffffff1660e01b81526004016020604051808303816000875af1158015612032573d6000803e3d6000fd5b505050506040513d601f19601f82011682018060405250810190612056919061509a565b50612060816150f5565b9050611fd0565b506000612076846140ef614123565b9050601054816000015111156120ad576010548151604051631a451c0f60e21b815260048101929092526024820152604401610b17565b604080516020808201835283518252825180820184528484015181528351918201909352600654815290916000916120e59190614504565b905060006120f3838361454c565b90506121176040518060200160405280670de0b6b3a7640000815250825190511090565b156121425781518351604051631a451c0f60e21b815260048101929092526024820152604401610b17565b60005b865181101561232d576000878281518110612162576121626150c9565b602002602001015190506000806000836001600160a01b031663c37f68e28d6040518263ffffffff1660e01b81526004016121ac91906001600160a01b0391909116815260200190565b608060405180830381865afa1580156121c9573d6000803e3d6000fd5b505050506040513d601f19601f820116820180604052508101906121ed9190615129565b50925092509250826000146122155760405163015a83f960e51b815260040160405180910390fd5b6000612221878361416b565b905082156122a65760405163b2a02ff160e01b81526001600160a01b038c811660048301528e811660248301526044820185905286169063b2a02ff1906064016020604051808303816000875af1158015612280573d6000803e3d6000fd5b505050506040513d601f19601f820116820180604052508101906122a4919061509a565b505b81156123175760405163227f37ff60e11b81526001600160a01b038c811660048301528e81166024830152604482018390528616906344fe6ffe90606401600060405180830381600087803b1580156122fe57600080fd5b505af1158015612312573d6000803e3d6000fd5b505050505b505050505080612326906150f5565b9050612145565b5050505050505050565b6001600160a01b0381166000908152600960205260408120600101541580156123665750612366826002613a3d565b8015611ad65750816001600160a01b031663173b99046040518163ffffffff1660e01b8152600401602060405180830381865afa1580156123ab573d6000803e3d6000fd5b505050506040513d601f19601f820116820180604052508101906123cf919061509a565b670de0b6b3a76400001492915050565b604080516318c5e8ab60e01b8152336004820152602481019190915260166044820152755f737570706f72744d61726b65742856546f6b656e2960501b606482015260009081906001600160a01b037f000000000000000000000000000000000000000000000000000000000000000016906318c5e8ab90608401602060405180830381865afa158015612477573d6000803e3d6000fd5b505050506040513d601f19601f8201168201806040525081019061249b9190615060565b9050806124ae576113a06001601261448b565b6001600160a01b03831660009081526009602052604090205460ff16156124db576113a0600a601161448b565b826001600160a01b0316633d9ea3a16040518163ffffffff1660e01b8152600401602060405180830381865afa158015612519573d6000803e3d6000fd5b505050506040513d601f19601f8201168201806040525081019061253d9190615060565b506001600160a01b0383166000908152600960205260408120805460ff1916600190811782558101829055600281019190915561257984614586565b60005b6013548110156126125760138181548110612599576125996150c9565b600091825260209091200154604051632a869a4d60e01b81526001600160a01b03878116600483015290911690632a869a4d90602401600060405180830381600087803b1580156125e957600080fd5b505af11580156125fd573d6000803e3d6000fd5b505050508061260b906150f5565b905061257c565b506040516001600160a01b03851681527fcf583bb0c569eb967f806b11601c4cb93c10310485c67add5f8362c2f212321f90602001611769565b6001600160a01b03811660009081526008602090815260408083208054825181850281018501909352808352606094938301828280156126b557602002820191906000526020600020905b81546001600160a01b03168152600190910190602001808311612697575b5093979650505050505050565b6060600d80548060200260200160405190810160405280929190818152602001828054801561271a57602002820191906000526020600020905b81546001600160a01b031681526001909101906020018083116126fc575b5050505050905090565b6000612731856006613f93565b600480546040516396e85ced60e01b81526001600160a01b03888116938201939093529116906396e85ced90602401600060405180830381600087803b15801561277a57600080fd5b505af115801561278e573d6000803e3d6000fd5b50505050600061279f86868561466c565b905080156127ae579050610e07565b60005b60135481101561294757601381815481106127ce576127ce6150c9565b60009182526020909120015460405163051d1d4f60e11b81526001600160a01b03898116600483015290911690630a3a3a9e90602401600060405180830381600087803b15801561281e57600080fd5b505af1158015612832573d6000803e3d6000fd5b5050505060138181548110612849576128496150c9565b60009182526020909120015460405163db7954fd60e01b81526001600160a01b039091169063db7954fd90612884908a908a9060040161515f565b600060405180830381600087803b15801561289e57600080fd5b505af11580156128b2573d6000803e3d6000fd5b50505050601381815481106128c9576128c96150c9565b60009182526020909120015460405163db7954fd60e01b81526001600160a01b039091169063db7954fd90612904908a90899060040161515f565b600060405180830381600087803b15801561291e57600080fd5b505af1158015612932573d6000803e3d6000fd5b5050505080612940906150f5565b90506127b1565b5060009695505050505050565b805160609060008167ffffffffffffffff81111561297457612974614e3b565b60405190808252806020026020018201604052801561299d578160200160208202803683370190505b50905060005b82811015612a125760008582815181106129bf576129bf6150c9565b602002602001015190506129d381336146f8565b60138111156129e4576129e46150b3565b8383815181106129f6576129f66150c9565b602090810291909101015250612a0b816150f5565b90506129a3565b509392505050565b6004805460405163fc57d4df60e01b81526001600160a01b03868116938201939093526000928392839291169063fc57d4df90602401602060405180830381865afa158015612a6d573d6000803e3d6000fd5b505050506040513d601f19601f82011682018060405250810190612a91919061509a565b6004805460405163fc57d4df60e01b81526001600160a01b038981169382019390935292935060009291169063fc57d4df90602401602060405180830381865afa158015612ae3573d6000803e3d6000fd5b505050506040513d601f19601f82011682018060405250810190612b07919061509a565b9050811580612b14575080155b15612b2857600d6000935093505050612c30565b6000866001600160a01b031663182df0f56040518163ffffffff1660e01b8152600401602060405180830381865afa158015612b68573d6000803e3d6000fd5b505050506040513d601f19601f82011682018060405250810190612b8c919061509a565b90506000612ba66040518060200160405280600081525090565b604080516020808201835260008083528351808301855290815283518083018552600654815284519283019094528882529192612be291614504565b9250612c0a604051806020016040528088815250604051806020016040528088815250614504565b9150612c16838361454c565b9050612c22818b61416b565b600099509750505050505050505b935093915050565b6000612c45866004613f93565b6001600160a01b03861660009081526009602052604090205460ff16612c6f5760095b9050612fad565b306001600160a01b03861603612d0557306001600160a01b0316866001600160a01b0316635fe3b5676040518163ffffffff1660e01b8152600401602060405180830381865afa158015612cc7573d6000803e3d6000fd5b505050506040513d601f19601f82011682018060405250810190612ceb919061507d565b6001600160a01b031614612d00576002612c68565b612e0e565b6001600160a01b03851660009081526009602052604090205460ff16612d2c576009612c68565b846001600160a01b0316635fe3b5676040518163ffffffff1660e01b8152600401602060405180830381865afa158015612d6a573d6000803e3d6000fd5b505050506040513d601f19601f82011682018060405250810190612d8e919061507d565b6001600160a01b0316866001600160a01b0316635fe3b5676040518163ffffffff1660e01b8152600401602060405180830381865afa158015612dd5573d6000803e3d6000fd5b505050506040513d601f19601f82011682018060405250810190612df9919061507d565b6001600160a01b031614612e0e576002612c68565b60005b601354811015612fa75760138181548110612e2e57612e2e6150c9565b60009182526020909120015460405163051d1d4f60e11b81526001600160a01b03898116600483015290911690630a3a3a9e90602401600060405180830381600087803b158015612e7e57600080fd5b505af1158015612e92573d6000803e3d6000fd5b5050505060138181548110612ea957612ea96150c9565b60009182526020909120015460405163db7954fd60e01b81526001600160a01b039091169063db7954fd90612ee4908a90889060040161515f565b600060405180830381600087803b158015612efe57600080fd5b505af1158015612f12573d6000803e3d6000fd5b5050505060138181548110612f2957612f296150c9565b60009182526020909120015460405163db7954fd60e01b81526001600160a01b039091169063db7954fd90612f64908a90899060040161515f565b600060405180830381600087803b158015612f7e57600080fd5b505af1158015612f92573d6000803e3d6000fd5b5050505080612fa0906150f5565b9050612e11565b50600090505b95945050505050565b6000612fc3876005613f93565b600480546040516396e85ced60e01b81526001600160a01b038a8116938201939093529116906396e85ced90602401600060405180830381600087803b15801561300c57600080fd5b505af1158015613020573d6000803e3d6000fd5b5050600480546040516396e85ced60e01b81526001600160a01b038b811693820193909352911692506396e85ced9150602401600060405180830381600087803b15801561306d57600080fd5b505af1158015613081573d6000803e3d6000fd5b505050506001600160a01b03871660009081526009602052604090205460ff1615806130c657506001600160a01b03861660009081526009602052604090205460ff16155b156130d357506009613254565b6040516395dd919360e01b81526001600160a01b038581166004830152600091908916906395dd919390602401602060405180830381865afa15801561311d573d6000803e3d6000fd5b505050506040513d601f19601f82011682018060405250810190613141919061509a565b90508280613153575061315388612337565b156131c357838110156131b95760405162461bcd60e51b815260206004820152602860248201527f43616e206e6f74207265706179206d6f7265207468616e2074686520746f74616044820152676c20626f72726f7760c01b6064820152608401610b17565b6000915050613254565b60006131d1866140ef614123565b9050601054816000015111613207576010548151604051636e61bb0560e11b815260048101929092526024820152604401610b17565b8060a0015160000361321e57600392505050613254565b600061323a60405180602001604052806005548152508461416b565b9050808611156132505760119350505050613254565b5050505b9695505050505050565b600061326b846002613f93565b600480546040516396e85ced60e01b81526001600160a01b03878116938201939093529116906396e85ced90602401600060405180830381600087803b1580156132b457600080fd5b505af11580156132c8573d6000803e3d6000fd5b505050506001600160a01b03841660009081526009602052604090205460ff166132f3576009611408565b6001600160a01b038085166000908152600960209081526040808320938716835260039093019052205460ff166133f057336001600160a01b038516146133745760405162461bcd60e51b815260206004820152601560248201527439b2b73232b91036bab9ba103132903b2a37b5b2b760591b6044820152606401610b17565b600061338033856146f8565b90506000816013811115613396576133966150b3565b146133b5578060138111156133ad576133ad6150b3565b9150506113a0565b6001600160a01b038086166000908152600960209081526040808320938816835260039093019052205460ff166133ee576133ee615179565b505b6004805460405163fc57d4df60e01b81526001600160a01b038781169382019390935291169063fc57d4df90602401602060405180830381865afa15801561343c573d6000803e3d6000fd5b505050506040513d601f19601f82011682018060405250810190613460919061509a565b60000361346e57600d611408565b6001600160a01b0384166000908152600f60205260409020548015613553576000856001600160a01b03166347bd37186040518163ffffffff1660e01b8152600401602060405180830381865afa1580156134cd573d6000803e3d6000fd5b505050506040513d601f19601f820116820180604052508101906134f1919061509a565b905060006134ff828661447f565b90508281106135505760405162461bcd60e51b815260206004820152601960248201527f6d61726b657420626f72726f77206361702072656163686564000000000000006044820152606401610b17565b50505b600061356585876000876141836141b7565b60a08101519091501561357d576004925050506113a0565b60005b6013548110156129475760006040518060200160405280896001600160a01b031663aa5af0fd6040518163ffffffff1660e01b8152600401602060405180830381865afa1580156135d5573d6000803e3d6000fd5b505050506040513d601f19601f820116820180604052508101906135f9919061509a565b815250905060138281548110613611576136116150c9565b600091825260209091200154604051632352607960e01b81526001600160a01b038a811660048301528351602483015290911690632352607990604401600060405180830381600087803b15801561366857600080fd5b505af115801561367c573d6000803e3d6000fd5b5050505060138281548110613693576136936150c9565b600091825260209091200154604051636a95ddef60e01b81526001600160a01b038a8116600483015289811660248301528351604483015290911690636a95ddef90606401600060405180830381600087803b1580156136f257600080fd5b505af1158015613706573d6000803e3d6000fd5b505050505080613715906150f5565b9050613580565b6008602052816000526040600020818154811061373857600080fd5b6000918252602090912001546001600160a01b03169150829050565b604080516318c5e8ab60e01b81523360048201526024810191909152602c60448201527f5f736574436f6c6c61746572616c466163746f722856546f6b656e2c75696e7460648201526b3235362c75696e743235362960a01b608482015260009081906001600160a01b037f000000000000000000000000000000000000000000000000000000000000000016906318c5e8ab9060a401602060405180830381865afa158015613808573d6000803e3d6000fd5b505050506040513d601f19601f8201168201806040525081019061382c9190615060565b90508061384b576040516282b42960e81b815260040160405180910390fd5b6001600160a01b0385166000908152600960205260409020805460ff1661389057604051635a9a1eb960e11b81526001600160a01b0387166004820152602401610b17565b670c7d713b49da00008511156138b9576040516302f22cad60e61b815260040160405180910390fd5b848411156138d95760405162f9474b60e61b815260040160405180910390fd5b841580159061395557506004805460405163fc57d4df60e01b81526001600160a01b038981169382019390935291169063fc57d4df90602401602060405180830381865afa15801561392f573d6000803e3d6000fd5b505050506040513d601f19601f82011682018060405250810190613953919061509a565b155b15613973576040516348fa9b2b60e11b815260040160405180910390fd5b60018101548581146139d15760018201869055604080516001600160a01b0389168152602081018390529081018790527f70483e6592cd5182d45ac970e05bc62cdcc90e9d8ef2c2dbe686cf383bcd7fc59060600160405180910390a15b6002820154858114613a2f5760028301869055604080516001600160a01b038a168152602081018390529081018790527f9e92c7d5fef69846094f3ddcadcb9402c6ba469c461368714f1cabd8ef48b5919060600160405180910390a15b600098975050505050505050565b6001600160a01b038216600090815260126020526040812081836008811115613a6857613a686150b3565b6008811115613a7957613a796150b3565b815260208101919091526040016000205460ff169392505050565b6000613aa1846001613f93565b600480546040516396e85ced60e01b81526001600160a01b03878116938201939093529116906396e85ced90602401600060405180830381600087803b158015613aea57600080fd5b505af1158015613afe573d6000803e3d6000fd5b505050506000613b0f85858561466c565b90508015613b1e5790506113a0565b60005b601354811015613c375760138181548110613b3e57613b3e6150c9565b60009182526020909120015460405163051d1d4f60e11b81526001600160a01b03888116600483015290911690630a3a3a9e90602401600060405180830381600087803b158015613b8e57600080fd5b505af1158015613ba2573d6000803e3d6000fd5b5050505060138181548110613bb957613bb96150c9565b60009182526020909120015460405163db7954fd60e01b81526001600160a01b039091169063db7954fd90613bf4908990899060040161515f565b600060405180830381600087803b158015613c0e57600080fd5b505af1158015613c22573d6000803e3d6000fd5b5050505080613c30906150f5565b9050613b21565b50600095945050505050565b6000613c50826008613f93565b6040516361bfb47160e11b81523360048201528290600090819081906001600160a01b0385169063c37f68e290602401608060405180830381865afa158015613c9d573d6000803e3d6000fd5b505050506040513d601f19601f82011682018060405250810190613cc19190615129565b5092509250925082600014613d265760405162461bcd60e51b815260206004820152602560248201527f657869744d61726b65743a206765744163636f756e74536e617073686f742066604482015264185a5b195960da1b6064820152608401610b17565b8015613d3857613254600c600261448b565b6000613d4587338561466c565b90508015613d6557613d5a600e6003836147fb565b979650505050505050565b6001600160a01b0385166000908152600960209081526040808320338452600381019092529091205460ff16613da45760005b98975050505050505050565b3360009081526003820160209081526040808320805460ff191690556008825280832080548251818502810185019093528083529192909190830182828015613e1657602002820191906000526020600020905b81546001600160a01b03168152600190910190602001808311613df8575b5050835193945083925060009150505b82811015613e7857896001600160a01b0316848281518110613e4a57613e4a6150c9565b60200260200101516001600160a01b031603613e6857809150613e78565b613e71816150f5565b9050613e26565b50818110613e8857613e88615179565b33600090815260086020526040902080548190613ea79060019061518f565b81548110613eb757613eb76150c9565b9060005260206000200160009054906101000a90046001600160a01b0316818381548110613ee757613ee76150c9565b9060005260206000200160006101000a8154816001600160a01b0302191690836001600160a01b0316021790555080805480613f2557613f256151a6565b600082815260209020810160001990810180546001600160a01b03191690550190556040517fe699a64c18b07ac5b7301aa273f36a2287239eb9501d81950672794afba29a0d90613f79908c90339061515f565b60405180910390a160009c9b505050505050505050505050565b613f9d8282613a3d565b15613fdd5760405162461bcd60e51b815260206004820152601060248201526f1858dd1a5bdb881a5cc81c185d5cd95960821b6044820152606401610b17565b5050565b6001600160a01b03831660009081526009602052604090205460ff1661405a5760405162461bcd60e51b815260206004820152602860248201527f63616e6e6f742070617573652061206d61726b65742074686174206973206e6f6044820152671d081b1a5cdd195960c21b6064820152608401610b17565b6001600160a01b03831660009081526012602052604081208291846008811115614086576140866150b3565b6008811115614097576140976150b3565b815260200190815260200160002060006101000a81548160ff0219169083151502179055507f35007a986bcd36d2f73fc7f1b73762e12eadb4406dd163194950fd3b5a6a827d838383604051610a3c939291906151bc565b6040805160208082018352600091829052825180820184526001600160a01b03949094168252600990522060020154815290565b61415c6040518060c001604052806000815260200160008152602001600081526020016000815260200160008152602001600081525090565b6113a0836000806000866141b7565b6000806141788484614873565b9050610e078161489b565b6040805160208082018352600091829052825180820184526001600160a01b03949094168252600990522060010154815290565b6141f06040518060c001604052806000815260200160008152602001600081526020016000815260200160008152602001600081525090565b6001600160a01b03861660009081526008602090815260408083208054825181850281018501909352808352919290919083018282801561425a57602002820191906000526020600020905b81546001600160a01b0316815260019091019060200180831161423c575b5050505050905060005b8151811015614422576000828281518110614281576142816150c9565b60200260200101519050600080600080846001600160a01b031663c37f68e28e6040518263ffffffff1660e01b81526004016142cc91906001600160a01b0391909116815260200190565b608060405180830381865afa1580156142e9573d6000803e3d6000fd5b505050506040513d601f19601f8201168201806040525081019061430d9190615129565b9350935093509350836000146143365760405163015a83f960e51b815260040160405180910390fd5b6000604051806020016040528061434c886148b3565b8152509050600061436b60405180602001604052808581525083614504565b9050600061438561437f898e63ffffffff16565b83614504565b905061439681878d6020015161494a565b60208c01528a516143aa908390889061494a565b8b5260408b01516143be908490879061494a565b8b60400181815250508e6001600160a01b0316886001600160a01b031603614409576143ef818f8d6060015161494a565b60608c018190526144039084908f9061494a565b60608c01525b50505050505050508061441b906150f5565b9050614264565b506000826060015183604001516144399190615200565b905080836020015111156144605760208301518190036080840152600060a0840152614474565b600060808401526020830151810360a08401525b505095945050505050565b60006113a08284615200565b60007f45b96fe442630264581b197e84bbada861235052c5a1aadfff9ea4e40a969aa08360138111156144c0576144c06150b3565b8360148111156144d2576144d26150b3565b60408051928352602083019190915260009082015260600160405180910390a18260138111156113a0576113a06150b3565b6040805160208101909152600081526040518060200160405280670de0b6b3a76400006145398660000151866000015161496b565b6145439190615218565b90529392505050565b604080516020810190915260008152604051806020016040528061454361457f8660000151670de0b6b3a764000061496b565b8551614977565b60005b600d5481101561461957816001600160a01b0316600d82815481106145b0576145b06150c9565b6000918252602090912001546001600160a01b0316036146095760405162461bcd60e51b81526020600482015260146024820152731b585c9ad95d08185b1c9958591e48185919195960621b6044820152606401610b17565b614612816150f5565b9050614589565b50600d80546001810182556000919091527fd7b6990105719101dabeb77144f2a3385c8033acd3af97e9423a695e81ad1eb50180546001600160a01b0319166001600160a01b0392909216919091179055565b6001600160a01b03831660009081526009602052604081205460ff16614693576009611408565b6001600160a01b038085166000908152600960209081526040808320938716835260039093019052205460ff166146cb576000611408565b60006146dd84868560006141836141b7565b60a0810151909150156146f15760046133ad565b6000612fad565b6000614705836007613f93565b6001600160a01b0383166000908152600960205260409020805460ff16614730576009915050611ad6565b6001600160a01b038316600090815260038201602052604090205460ff161515600103614761576000915050611ad6565b6001600160a01b03838116600090815260038301602090815260408083208054600160ff19909116811790915560088352818420805491820181558452919092200180546001600160a01b03191692871692909217909155517f3ab23ab0d51cccc0c3085aec51f99228625aa1a922b3a8ca89a26b0f2027a1a5906147e9908690869061515f565b60405180910390a15060009392505050565b60007f45b96fe442630264581b197e84bbada861235052c5a1aadfff9ea4e40a969aa0846013811115614830576148306150b3565b846014811115614842576148426150b3565b604080519283526020830191909152810184905260600160405180910390a1836013811115610e0757610e076150b3565b604080516020810190915260008152604051806020016040528061454385600001518561496b565b8051600090611ad690670de0b6b3a764000090615218565b6004805460405163fc57d4df60e01b81526001600160a01b03848116938201939093526000928392169063fc57d4df90602401602060405180830381865afa158015614903573d6000803e3d6000fd5b505050506040513d601f19601f82011682018060405250810190614927919061509a565b905080600003611ad6576040516348fa9b2b60e11b815260040160405180910390fd5b6000806149578585614873565b9050612fad6149658261489b565b8461447f565b60006113a0828461523a565b60006113a08284615218565b6001600160a01b0381168114610bc957600080fd5b80356149a381614983565b919050565b6000602082840312156149ba57600080fd5b81356113a081614983565b6000602082840312156149d757600080fd5b5035919050565b600080600080600060a086880312156149f657600080fd5b8535614a0181614983565b94506020860135614a1181614983565b93506040860135614a2181614983565b94979396509394606081013594506080013592915050565b60008060008060808587031215614a4f57600080fd5b8435614a5a81614983565b93506020850135614a6a81614983565b92506040850135614a7a81614983565b9396929550929360600135925050565b60008083601f840112614a9c57600080fd5b50813567ffffffffffffffff811115614ab457600080fd5b6020830191508360208260051b8501011115614acf57600080fd5b9250929050565b8015158114610bc957600080fd5b600080600080600060608688031215614afc57600080fd5b853567ffffffffffffffff80821115614b1457600080fd5b614b2089838a01614a8a565b90975095506020880135915080821115614b3957600080fd5b50614b4688828901614a8a565b9094509250506040860135614b5a81614ad6565b809150509295509295909350565b600080600060408486031215614b7d57600080fd5b8335614b8881614983565b9250602084013567ffffffffffffffff80821115614ba557600080fd5b818601915086601f830112614bb957600080fd5b813581811115614bc857600080fd5b876020606083028501011115614bdd57600080fd5b6020830194508093505050509250925092565b60008060008060808587031215614c0657600080fd5b8435614c1181614983565b93506020850135614c2181614983565b93969395505050506040820135916060013590565b60008060008060008060c08789031215614c4f57600080fd5b8635614c5a81614983565b95506020870135614c6a81614983565b94506040870135614c7a81614983565b93506060870135614c8a81614983565b9598949750929560808101359460a0909101359350915050565b600080600060608486031215614cb957600080fd5b8335614cc481614983565b92506020840135614cd481614983565b929592945050506040919091013590565b60008060008060408587031215614cfb57600080fd5b843567ffffffffffffffff80821115614d1357600080fd5b614d1f88838901614a8a565b90965094506020870135915080821115614d3857600080fd5b50614d4587828801614a8a565b95989497509550505050565b600080600080600060a08688031215614d6957600080fd5b8535614d7481614983565b94506020860135614d8481614983565b93506040860135614d9481614983565b92506060860135614da481614983565b949793965091946080013592915050565b60008060408385031215614dc857600080fd5b8235614dd381614983565b91506020830135614de381614983565b809150509250929050565b6020808252825182820181905260009190848201906040850190845b81811015614e2f5783516001600160a01b031683529284019291840191600101614e0a565b50909695505050505050565b634e487b7160e01b600052604160045260246000fd5b60006020808385031215614e6457600080fd5b823567ffffffffffffffff80821115614e7c57600080fd5b818501915085601f830112614e9057600080fd5b813581811115614ea257614ea2614e3b565b8060051b604051601f19603f83011681018181108582111715614ec757614ec7614e3b565b604052918252848201925083810185019188831115614ee557600080fd5b938501935b82851015613d9857614efb85614998565b84529385019392850192614eea565b6020808252825182820181905260009190848201906040850190845b81811015614e2f57835183529284019291840191600101614f26565b60008060008060008060c08789031215614f5b57600080fd5b8635614f6681614983565b95506020870135614f7681614983565b94506040870135614f8681614983565b93506060870135614f9681614983565b92506080870135915060a0870135614fad81614ad6565b809150509295509295509295565b60008060408385031215614fce57600080fd5b8235614fd981614983565b946020939093013593505050565b600080600060608486031215614ffc57600080fd5b833561500781614983565b95602085013595506040909401359392505050565b8035600981106149a357600080fd5b6000806040838503121561503e57600080fd5b823561504981614983565b91506150576020840161501c565b90509250929050565b60006020828403121561507257600080fd5b81516113a081614ad6565b60006020828403121561508f57600080fd5b81516113a081614983565b6000602082840312156150ac57600080fd5b5051919050565b634e487b7160e01b600052602160045260246000fd5b634e487b7160e01b600052603260045260246000fd5b634e487b7160e01b600052601160045260246000fd5b600060018201615107576151076150df565b5060010190565b60006020828403121561512057600080fd5b6113a08261501c565b6000806000806080858703121561513f57600080fd5b505082516020840151604085015160609095015191969095509092509050565b6001600160a01b0392831681529116602082015260400190565b634e487b7160e01b600052600160045260246000fd5b6000828210156151a1576151a16150df565b500390565b634e487b7160e01b600052603160045260246000fd5b6001600160a01b038416815260608101600984106151ea57634e487b7160e01b600052602160045260246000fd5b8360208301528215156040830152949350505050565b60008219821115615213576152136150df565b500190565b60008261523557634e487b7160e01b600052601260045260246000fd5b500490565b6000816000190483118215151615615254576152546150df565b50029056fea2646970667358221220ed4053628785e9a0cf121b693395d9741a963530cf81edf0de2b01b43fe1ef3e64736f6c634300080d0033",
  "devdoc": {
    "author": "Compound",
    "kind": "dev",
    "methods": {
      "_setActionsPaused(address[],uint8[],bool)": {
        "params": {
          "actionsList": "List of action ids to pause/unpause",
          "marketsList": "Markets to pause/unpause the actions on",
          "paused": "The new paused state (true=paused, false=unpaused)"
        }
      },
      "_setCloseFactor(uint256)": {
        "details": "Admin function to set closeFactor",
        "params": {
          "newCloseFactorMantissa": "New close factor, scaled by 1e18"
        },
        "returns": {
          "_0": "uint 0=success, otherwise a failure"
        }
      },
      "_setCollateralFactor(address,uint256,uint256)": {
        "details": "Restricted function to set per-market collateralFactor",
        "params": {
          "newCollateralFactorMantissa": "The new collateral factor, scaled by 1e18",
          "newLiquidationThresholdMantissa": "The new liquidation threshold, scaled by 1e18",
          "vToken": "The market to set the factor on"
        },
        "returns": {
          "_0": "uint 0=success, otherwise a failure. (See ErrorReporter for details)"
        }
      },
      "_setLiquidationIncentive(uint256)": {
        "details": "Admin function to set liquidationIncentive",
        "params": {
          "newLiquidationIncentiveMantissa": "New liquidationIncentive scaled by 1e18"
        },
        "returns": {
          "_0": "uint 0=success, otherwise a failure. (See ErrorReporter for details)"
        }
      },
      "_setMarketBorrowCaps(address[],uint256[])": {
        "details": "Admin or borrowCapGuardian function to set the borrow caps. A borrow cap of 0 corresponds to unlimited borrowing.",
        "params": {
          "newBorrowCaps": "The new borrow cap values in underlying to be set. A value of 0 corresponds to unlimited borrowing.",
          "vTokens": "The addresses of the markets (tokens) to change the borrow caps for"
        }
      },
      "_setMarketSupplyCaps(address[],uint256[])": {
        "details": "Admin function to set the supply caps. A supply cap of 0 corresponds to Minting NotAllowed.",
        "params": {
          "newSupplyCaps": "The new supply cap values in underlying to be set. A value of 0 corresponds to Minting NotAllowed.",
          "vTokens": "The addresses of the markets (tokens) to change the supply caps for"
        }
      },
      "_setMinLiquidatableCollateral(uint256)": {
        "details": "this funciton access is managed by AccessControlManager",
        "params": {
          "newMinLiquidatableCollateral": "The new min liquidatable collateral (in USD)."
        }
      },
      "_setPriceOracle(address)": {
        "details": "Admin function to set a new price oracle",
        "returns": {
          "_0": "uint 0=success, otherwise a failure (see ErrorReporter.sol for details)"
        }
      },
      "_supportMarket(address)": {
        "details": "Admin function to set isListed and add support for the market",
        "params": {
          "vToken": "The address of the market (token) to list"
        },
        "returns": {
          "_0": "uint 0=success, otherwise a failure. (See enum Error for details)"
        }
      },
      "actionPaused(address,uint8)": {
        "params": {
          "action": "Action to check",
          "market": "vToken address"
        },
        "returns": {
          "_0": "true if the action is paused"
        }
      },
      "borrowAllowed(address,address,uint256)": {
        "params": {
          "borrowAmount": "The amount of underlying the account would borrow",
          "borrower": "The account which would borrow the asset",
          "vToken": "The market to verify the borrow against"
        },
        "returns": {
          "_0": "0 if the borrow is allowed, otherwise a semi-opaque error code (See ErrorReporter.sol)"
        }
      },
      "borrowVerify(address,address,uint256)": {
        "params": {
          "borrowAmount": "The amount of the underlying asset requested to borrow",
          "borrower": "The address borrowing the underlying",
          "vToken": "Asset whose underlying is being borrowed"
        }
      },
      "checkMembership(address,address)": {
        "params": {
          "account": "The address of the account to check",
          "vToken": "The vToken to check"
        },
        "returns": {
          "_0": "True if the account is in the asset, otherwise false."
        }
      },
      "enterMarkets(address[])": {
        "params": {
          "vTokens": "The list of addresses of the vToken markets to be enabled"
        },
        "returns": {
          "_0": "Success indicator for whether each corresponding market was entered"
        }
      },
      "exitMarket(address)": {
        "details": "Sender must not have an outstanding borrow balance in the asset,  or be providing necessary collateral for an outstanding borrow.",
        "params": {
          "vTokenAddress": "The address of the asset to be removed"
        },
        "returns": {
          "_0": "Whether or not the account successfully exited the market"
        }
      },
      "getAccountLiquidity(address)": {
        "details": "The interface of this function is intentionally kept compatible with Compound and Venus Core",
        "returns": {
          "_0": "(possible error code (semi-opaque), account liquidity in excess of collateral requirements,          account shortfall below collateral requirements)"
        }
      },
      "getAllMarkets()": {
        "details": "The automatic getter may be used to access an individual market.",
        "returns": {
          "_0": "The list of market addresses"
        }
      },
      "getAssetsIn(address)": {
        "params": {
          "account": "The address of the account to pull assets for"
        },
        "returns": {
          "_0": "A dynamic list with the assets the account has entered"
        }
      },
      "getHypotheticalAccountLiquidity(address,address,uint256,uint256)": {
        "details": "The interface of this function is intentionally kept compatible with Compound and Venus Core",
        "params": {
          "account": "The account to determine liquidity for",
          "borrowAmount": "The amount of underlying to hypothetically borrow",
          "redeemTokens": "The number of tokens to hypothetically redeem",
          "vTokenModify": "The market to hypothetically redeem/borrow in"
        },
        "returns": {
          "_0": "(possible error code (semi-opaque), hypothetical account liquidity in excess of collateral requirements,          hypothetical account shortfall below collateral requirements)"
        }
      },
      "healAccount(address)": {
        "details": "Reverts in case of failure",
        "params": {
          "user": "account to heal"
        }
      },
      "isDeprecated(address)": {
        "details": "All borrows in a deprecated vToken market can be immediately liquidated",
        "params": {
          "vToken": "The market to check if deprecated"
        }
      },
      "liquidateAccount(address,(address,address,uint256)[])": {
        "params": {
          "borrower": "the borrower address",
          "orders": "an array of liquidation orders"
        }
      },
      "liquidateBorrowAllowed(address,address,address,address,uint256,bool)": {
        "params": {
          "borrower": "The address of the borrower",
          "liquidator": "The address repaying the borrow and seizing the collateral",
          "repayAmount": "The amount of underlying being repaid",
          "skipLiquidityCheck": "Allows the borrow to be liquidated regardless of the account liquidity",
          "vTokenBorrowed": "Asset which was borrowed by the borrower",
          "vTokenCollateral": "Asset which was used as collateral and will be seized"
        }
      },
      "liquidateBorrowVerify(address,address,address,address,uint256,uint256)": {
        "params": {
          "actualRepayAmount": "The amount of underlying being repaid",
          "borrower": "The address of the borrower",
          "liquidator": "The address repaying the borrow and seizing the collateral",
          "vTokenBorrowed": "Asset which was borrowed by the borrower",
          "vTokenCollateral": "Asset which was used as collateral and will be seized"
        }
      },
      "liquidateCalculateSeizeTokens(address,address,uint256)": {
        "details": "Used in liquidation (called in vToken.liquidateBorrowFresh)",
        "params": {
          "actualRepayAmount": "The amount of vTokenBorrowed underlying to convert into vTokenCollateral tokens",
          "vTokenBorrowed": "The address of the borrowed vToken",
          "vTokenCollateral": "The address of the collateral vToken"
        },
        "returns": {
          "_0": "(errorCode, number of vTokenCollateral tokens to be seized in a liquidation)"
        }
      },
      "mintAllowed(address,address,uint256)": {
        "params": {
          "mintAmount": "The amount of underlying being supplied to the market in exchange for tokens",
          "minter": "The account which would get the minted tokens",
          "vToken": "The market to verify the mint against"
        },
        "returns": {
          "_0": "0 if the mint is allowed, otherwise a semi-opaque error code (See ErrorReporter.sol)"
        }
      },
      "mintVerify(address,address,uint256,uint256)": {
        "params": {
          "actualMintAmount": "The amount of the underlying asset being minted",
          "mintTokens": "The number of tokens being minted",
          "minter": "The address minting the tokens",
          "vToken": "Asset being minted"
        }
      },
      "redeemAllowed(address,address,uint256)": {
        "params": {
          "redeemTokens": "The number of vTokens to exchange for the underlying asset in the market",
          "redeemer": "The account which would redeem the tokens",
          "vToken": "The market to verify the redeem against"
        },
        "returns": {
          "_0": "0 if the redeem is allowed, otherwise a semi-opaque error code (See ErrorReporter.sol)"
        }
      },
      "redeemVerify(address,address,uint256,uint256)": {
        "params": {
          "redeemAmount": "The amount of the underlying asset being redeemed",
          "redeemTokens": "The number of tokens being redeemed",
          "redeemer": "The address redeeming the tokens",
          "vToken": "Asset being redeemed"
        }
      },
      "repayBorrowAllowed(address,address,address,uint256)": {
        "params": {
          "borrower": "The account which would borrowed the asset",
          "payer": "The account which would repay the asset",
          "repayAmount": "The amount of the underlying asset the account would repay",
          "vToken": "The market to verify the repay against"
        },
        "returns": {
          "_0": "0 if the repay is allowed, otherwise a semi-opaque error code (See ErrorReporter.sol)"
        }
      },
      "repayBorrowVerify(address,address,address,uint256,uint256)": {
        "params": {
          "actualRepayAmount": "The amount of underlying being repaid",
          "borrower": "The address of the borrower",
          "payer": "The address repaying the borrow",
          "vToken": "Asset being repaid"
        }
      },
      "seizeAllowed(address,address,address,address,uint256)": {
        "params": {
          "borrower": "The address of the borrower",
          "liquidator": "The address repaying the borrow and seizing the collateral",
          "seizeTokens": "The number of collateral tokens to seize",
          "seizerContract": "Contract that tries to seize the asset (either borrowed vToken or Comptroller)",
          "vTokenCollateral": "Asset which was used as collateral and will be seized"
        }
      },
      "seizeVerify(address,address,address,address,uint256)": {
        "params": {
          "borrower": "The address of the borrower",
          "liquidator": "The address repaying the borrow and seizing the collateral",
          "seizeTokens": "The number of collateral tokens to seize",
          "vTokenBorrowed": "Asset which was borrowed by the borrower",
          "vTokenCollateral": "Asset which was used as collateral and will be seized"
        }
      },
      "transferAllowed(address,address,address,uint256)": {
        "params": {
          "dst": "The account which receives the tokens",
          "src": "The account which sources the tokens",
          "transferTokens": "The number of vTokens to transfer",
          "vToken": "The market to verify the transfer against"
        },
        "returns": {
          "_0": "0 if the transfer is allowed, otherwise a semi-opaque error code (See ErrorReporter.sol)"
        }
      },
      "transferVerify(address,address,address,uint256)": {
        "params": {
          "dst": "The account which receives the tokens",
          "src": "The account which sources the tokens",
          "transferTokens": "The number of vTokens to transfer",
          "vToken": "Asset being transferred"
        }
      }
    },
    "title": "Compound's Comptroller Contract",
    "version": 1
  },
  "userdoc": {
    "errors": {
      "MinimalCollateralViolated(uint256,uint256)": [
        {
          "notice": "Throwed during the liquidation if user's total collateral amount is lower than   a predefined threshold. In this case only batch liquidations (either liquidateAccount   or healAccount) are available."
        }
      ]
    },
    "events": {
      "ActionPaused(string,bool)": {
        "notice": "Emitted when an action is paused globally"
      },
      "ActionPausedMarket(address,uint8,bool)": {
        "notice": "Emitted when an action is paused on a market"
      },
      "MarketEntered(address,address)": {
        "notice": "Emitted when an account enters a market"
      },
      "MarketExited(address,address)": {
        "notice": "Emitted when an account exits a market"
      },
      "MarketListed(address)": {
        "notice": "Emitted when an admin supports a market"
      },
      "NewBorrowCap(address,uint256)": {
        "notice": "Emitted when borrow cap for a vToken is changed"
      },
      "NewBorrowCapGuardian(address,address)": {
        "notice": "Emitted when borrow cap guardian is changed"
      },
      "NewCloseFactor(uint256,uint256)": {
        "notice": "Emitted when close factor is changed by admin"
      },
      "NewCollateralFactor(address,uint256,uint256)": {
        "notice": "Emitted when a collateral factor is changed by admin"
      },
      "NewLiquidationIncentive(uint256,uint256)": {
        "notice": "Emitted when liquidation incentive is changed by admin"
      },
      "NewLiquidationThreshold(address,uint256,uint256)": {
        "notice": "Emitted when liquidation threshold is changed by admin"
      },
      "NewMinLiquidatableCollateral(uint256,uint256)": {
        "notice": "Emitted when the collateral threshold (in USD) for non-batch liquidations is changed"
      },
      "NewPriceOracle(address,address)": {
        "notice": "Emitted when price oracle is changed"
      },
      "NewSupplyCap(address,uint256)": {
        "notice": "Emitted when supply cap for a vToken is changed"
      }
    },
    "kind": "user",
    "methods": {
      "_setActionsPaused(address[],uint8[],bool)": {
        "notice": "Pause/unpause certain actions"
      },
      "_setCloseFactor(uint256)": {
        "notice": "Sets the closeFactor used when liquidating borrows"
      },
      "_setCollateralFactor(address,uint256,uint256)": {
        "notice": "Sets the collateralFactor for a market"
      },
      "_setLiquidationIncentive(uint256)": {
        "notice": "Sets liquidationIncentive"
      },
      "_setMarketBorrowCaps(address[],uint256[])": {
        "notice": "Set the given borrow caps for the given vToken markets. Borrowing that brings total borrows to or above borrow cap will revert."
      },
      "_setMarketSupplyCaps(address[],uint256[])": {
        "notice": "Set the given supply caps for the given vToken markets. Supply that brings total Supply to or above supply cap will revert."
      },
      "_setMinLiquidatableCollateral(uint256)": {
        "notice": "Set the given collateral threshold for non-batch liquidations. Regular liquidations   will fail if the collateral amount is less than this threshold. Liquidators should use batch   operations like liquidateAccount or healAccount."
      },
      "_setPriceOracle(address)": {
        "notice": "Sets a new price oracle for the comptroller"
      },
      "_supportMarket(address)": {
        "notice": "Add the market to the markets mapping and set it as listed"
      },
      "accountAssets(address,uint256)": {
        "notice": "Per-account mapping of \"assets you are in\", capped by maxAssets"
      },
      "actionPaused(address,uint8)": {
        "notice": "Checks if a certain action is paused on a market"
      },
      "admin()": {
        "notice": "Administrator for this contract"
      },
      "allMarkets(uint256)": {
        "notice": "A list of all markets"
      },
      "borrowAllowed(address,address,uint256)": {
        "notice": "Checks if the account should be allowed to borrow the underlying asset of the given market"
      },
      "borrowVerify(address,address,uint256)": {
        "notice": "Validates borrow and reverts on rejection. May emit logs."
      },
      "checkMembership(address,address)": {
        "notice": "Returns whether the given account is entered in the given asset"
      },
      "closeFactorMantissa()": {
        "notice": "Multiplier used to calculate the maximum repayAmount when liquidating a borrow"
      },
      "comptrollerImplementation()": {
        "notice": "Active brains of Unitroller"
      },
      "enterMarkets(address[])": {
        "notice": "Add assets to be included in account liquidity calculation"
      },
      "exitMarket(address)": {
        "notice": "Removes asset from sender's account liquidity calculation"
      },
      "getAccountLiquidity(address)": {
        "notice": "Determine the current account liquidity wrt collateral requirements"
      },
      "getAllMarkets()": {
        "notice": "Return all of the markets"
      },
      "getAssetsIn(address)": {
        "notice": "Returns the assets an account has entered"
      },
      "getHypotheticalAccountLiquidity(address,address,uint256,uint256)": {
        "notice": "Determine what the account liquidity would be if the given amounts were redeemed/borrowed"
      },
      "healAccount(address)": {
        "notice": "Seizes all the remaining collateral, makes msg.sender repay the existing   borrows, and treats the rest of the debt as bad debt (for each market).   The sender has to repay a certain percentage of the debt, computed as   collateral / (borrows * liquidationIncentive)."
      },
      "isComptroller()": {
        "notice": "Indicator that this is a Comptroller contract (for inspection)"
      },
      "isDeprecated(address)": {
        "notice": "Returns true if the given vToken market has been deprecated"
      },
      "liquidateAccount(address,(address,address,uint256)[])": {
        "notice": "Liquidates all borrows of the borrower. Callable only if the collateral is less than   a predefined threshold, and the account collateral can be seized to cover all borrows. If   the collateral is higher than the threshold, use regular liquidations. If the collateral is   below the threshold, and the account is insolvent, use healAccount."
      },
      "liquidateBorrowAllowed(address,address,address,address,uint256,bool)": {
        "notice": "Checks if the liquidation should be allowed to occur"
      },
      "liquidateBorrowVerify(address,address,address,address,uint256,uint256)": {
        "notice": "Validates liquidateBorrow and reverts on rejection. May emit logs."
      },
      "liquidateCalculateSeizeTokens(address,address,uint256)": {
        "notice": "Calculate number of tokens of collateral asset to seize given an underlying amount"
      },
      "liquidationIncentiveMantissa()": {
        "notice": "Multiplier representing the discount on collateral that a liquidator receives"
      },
      "markets(address)": {
        "notice": "Official mapping of vTokens -> Market metadata"
      },
      "maxAssets()": {
        "notice": "Max number of assets a single account can participate in (borrow or use as collateral)"
      },
      "minLiquidatableCollateral()": {
        "notice": "Minimal collateral required for regular (non-batch) liquidations"
      },
      "mintAllowed(address,address,uint256)": {
        "notice": "Checks if the account should be allowed to mint tokens in the given market"
      },
      "mintVerify(address,address,uint256,uint256)": {
        "notice": "Validates mint and reverts on rejection. May emit logs."
      },
      "oracle()": {
        "notice": "Oracle which gives the price of any given asset"
      },
      "pauseGuardian()": {
        "notice": "The Pause Guardian can pause certain actions as a safety mechanism.  Actions which allow users to remove their own assets cannot be paused.  Liquidation / seizing / transfer can only be paused globally, not by market. NOTE: THIS VALUE IS NOT USED IN COMPTROLLER. HOWEVER IT IS ALREADY USED IN COMTROLLERG7 \t\t AND IS CAUSING COMPILATION ERROR IF REMOVED."
      },
      "pendingAdmin()": {
        "notice": "Pending administrator for this contract"
      },
      "pendingComptrollerImplementation()": {
        "notice": "Pending brains of Unitroller"
      },
      "redeemAllowed(address,address,uint256)": {
        "notice": "Checks if the account should be allowed to redeem tokens in the given market"
      },
      "redeemVerify(address,address,uint256,uint256)": {
        "notice": "Validates redeem and reverts on rejection. May emit logs."
      },
      "repayBorrowAllowed(address,address,address,uint256)": {
        "notice": "Checks if the account should be allowed to repay a borrow in the given market"
      },
      "repayBorrowVerify(address,address,address,uint256,uint256)": {
        "notice": "Validates repayBorrow and reverts on rejection. May emit logs."
      },
      "seizeAllowed(address,address,address,address,uint256)": {
        "notice": "Checks if the seizing of assets should be allowed to occur"
      },
      "seizeVerify(address,address,address,address,uint256)": {
        "notice": "Validates seize and reverts on rejection. May emit logs."
      },
      "supplyCaps(address)": {
        "notice": "Supply caps enforced by mintAllowed for each vToken address. Defaults to zero which corresponds to minting notAllowed"
      },
      "transferAllowed(address,address,address,uint256)": {
        "notice": "Checks if the account should be allowed to transfer tokens in the given market"
      },
      "transferVerify(address,address,address,uint256)": {
        "notice": "Validates transfer and reverts on rejection. May emit logs."
      }
    },
    "version": 1
  },
  "storageLayout": {
    "storage": [
      {
        "astId": 6764,
        "contract": "contracts/Comptroller.sol:Comptroller",
        "label": "admin",
        "offset": 0,
        "slot": "0",
        "type": "t_address"
      },
      {
        "astId": 6767,
        "contract": "contracts/Comptroller.sol:Comptroller",
        "label": "pendingAdmin",
        "offset": 0,
        "slot": "1",
        "type": "t_address"
      },
      {
        "astId": 6770,
        "contract": "contracts/Comptroller.sol:Comptroller",
        "label": "comptrollerImplementation",
        "offset": 0,
        "slot": "2",
        "type": "t_address"
      },
      {
        "astId": 6773,
        "contract": "contracts/Comptroller.sol:Comptroller",
        "label": "pendingComptrollerImplementation",
        "offset": 0,
        "slot": "3",
        "type": "t_address"
      },
      {
        "astId": 6780,
        "contract": "contracts/Comptroller.sol:Comptroller",
        "label": "oracle",
        "offset": 0,
        "slot": "4",
        "type": "t_contract(PriceOracle)10053"
      },
      {
        "astId": 6783,
        "contract": "contracts/Comptroller.sol:Comptroller",
        "label": "closeFactorMantissa",
        "offset": 0,
        "slot": "5",
        "type": "t_uint256"
      },
      {
        "astId": 6786,
        "contract": "contracts/Comptroller.sol:Comptroller",
        "label": "liquidationIncentiveMantissa",
        "offset": 0,
        "slot": "6",
        "type": "t_uint256"
      },
      {
        "astId": 6789,
        "contract": "contracts/Comptroller.sol:Comptroller",
        "label": "maxAssets",
        "offset": 0,
        "slot": "7",
        "type": "t_uint256"
      },
      {
        "astId": 6796,
        "contract": "contracts/Comptroller.sol:Comptroller",
        "label": "accountAssets",
        "offset": 0,
        "slot": "8",
        "type": "t_mapping(t_address,t_array(t_contract(VToken)17665)dyn_storage)"
      },
      {
        "astId": 6813,
        "contract": "contracts/Comptroller.sol:Comptroller",
        "label": "markets",
        "offset": 0,
        "slot": "9",
        "type": "t_mapping(t_address,t_struct(Market)6807_storage)"
      },
      {
        "astId": 6816,
        "contract": "contracts/Comptroller.sol:Comptroller",
        "label": "pauseGuardian",
        "offset": 0,
        "slot": "10",
        "type": "t_address"
      },
      {
        "astId": 6818,
        "contract": "contracts/Comptroller.sol:Comptroller",
        "label": "transferGuardianPaused",
        "offset": 20,
        "slot": "10",
        "type": "t_bool"
      },
      {
        "astId": 6820,
        "contract": "contracts/Comptroller.sol:Comptroller",
        "label": "seizeGuardianPaused",
        "offset": 21,
        "slot": "10",
        "type": "t_bool"
      },
      {
        "astId": 6824,
        "contract": "contracts/Comptroller.sol:Comptroller",
        "label": "mintGuardianPaused",
        "offset": 0,
        "slot": "11",
        "type": "t_mapping(t_address,t_bool)"
      },
      {
        "astId": 6828,
        "contract": "contracts/Comptroller.sol:Comptroller",
        "label": "borrowGuardianPaused",
        "offset": 0,
        "slot": "12",
        "type": "t_mapping(t_address,t_bool)"
      },
      {
        "astId": 6833,
        "contract": "contracts/Comptroller.sol:Comptroller",
        "label": "allMarkets",
        "offset": 0,
        "slot": "13",
        "type": "t_array(t_contract(VToken)17665)dyn_storage"
      },
      {
        "astId": 6835,
        "contract": "contracts/Comptroller.sol:Comptroller",
        "label": "borrowCapGuardian",
        "offset": 0,
        "slot": "14",
        "type": "t_address"
      },
      {
        "astId": 6839,
        "contract": "contracts/Comptroller.sol:Comptroller",
        "label": "borrowCaps",
        "offset": 0,
        "slot": "15",
        "type": "t_mapping(t_address,t_uint256)"
      },
      {
        "astId": 6842,
        "contract": "contracts/Comptroller.sol:Comptroller",
        "label": "minLiquidatableCollateral",
        "offset": 0,
        "slot": "16",
        "type": "t_uint256"
      },
      {
        "astId": 6847,
        "contract": "contracts/Comptroller.sol:Comptroller",
        "label": "supplyCaps",
        "offset": 0,
        "slot": "17",
        "type": "t_mapping(t_address,t_uint256)"
      },
      {
        "astId": 6865,
        "contract": "contracts/Comptroller.sol:Comptroller",
        "label": "_actionPaused",
        "offset": 0,
        "slot": "18",
        "type": "t_mapping(t_address,t_mapping(t_enum(Action)6857,t_bool))"
      },
      {
        "astId": 3142,
        "contract": "contracts/Comptroller.sol:Comptroller",
        "label": "rewardsDistributors",
        "offset": 0,
        "slot": "19",
        "type": "t_array(t_contract(RewardsDistributor)11331)dyn_storage"
      },
      {
        "astId": 3146,
        "contract": "contracts/Comptroller.sol:Comptroller",
        "label": "rewardsDistributorExists",
        "offset": 0,
        "slot": "20",
        "type": "t_mapping(t_address,t_bool)"
      }
    ],
    "types": {
      "t_address": {
        "encoding": "inplace",
        "label": "address",
        "numberOfBytes": "20"
      },
      "t_array(t_contract(RewardsDistributor)11331)dyn_storage": {
        "base": "t_contract(RewardsDistributor)11331",
        "encoding": "dynamic_array",
        "label": "contract RewardsDistributor[]",
        "numberOfBytes": "32"
      },
      "t_array(t_contract(VToken)17665)dyn_storage": {
        "base": "t_contract(VToken)17665",
        "encoding": "dynamic_array",
        "label": "contract VToken[]",
        "numberOfBytes": "32"
      },
      "t_bool": {
        "encoding": "inplace",
        "label": "bool",
        "numberOfBytes": "1"
      },
      "t_contract(PriceOracle)10053": {
        "encoding": "inplace",
        "label": "contract PriceOracle",
        "numberOfBytes": "20"
      },
      "t_contract(RewardsDistributor)11331": {
        "encoding": "inplace",
        "label": "contract RewardsDistributor",
        "numberOfBytes": "20"
      },
      "t_contract(VToken)17665": {
        "encoding": "inplace",
        "label": "contract VToken",
        "numberOfBytes": "20"
      },
      "t_enum(Action)6857": {
        "encoding": "inplace",
        "label": "enum ComptrollerV1Storage.Action",
        "numberOfBytes": "1"
      },
      "t_mapping(t_address,t_array(t_contract(VToken)17665)dyn_storage)": {
        "encoding": "mapping",
        "key": "t_address",
        "label": "mapping(address => contract VToken[])",
        "numberOfBytes": "32",
        "value": "t_array(t_contract(VToken)17665)dyn_storage"
      },
      "t_mapping(t_address,t_bool)": {
        "encoding": "mapping",
        "key": "t_address",
        "label": "mapping(address => bool)",
        "numberOfBytes": "32",
        "value": "t_bool"
      },
      "t_mapping(t_address,t_mapping(t_enum(Action)6857,t_bool))": {
        "encoding": "mapping",
        "key": "t_address",
        "label": "mapping(address => mapping(enum ComptrollerV1Storage.Action => bool))",
        "numberOfBytes": "32",
        "value": "t_mapping(t_enum(Action)6857,t_bool)"
      },
      "t_mapping(t_address,t_struct(Market)6807_storage)": {
        "encoding": "mapping",
        "key": "t_address",
        "label": "mapping(address => struct ComptrollerV1Storage.Market)",
        "numberOfBytes": "32",
        "value": "t_struct(Market)6807_storage"
      },
      "t_mapping(t_address,t_uint256)": {
        "encoding": "mapping",
        "key": "t_address",
        "label": "mapping(address => uint256)",
        "numberOfBytes": "32",
        "value": "t_uint256"
      },
      "t_mapping(t_enum(Action)6857,t_bool)": {
        "encoding": "mapping",
        "key": "t_enum(Action)6857",
        "label": "mapping(enum ComptrollerV1Storage.Action => bool)",
        "numberOfBytes": "32",
        "value": "t_bool"
      },
      "t_struct(Market)6807_storage": {
        "encoding": "inplace",
        "label": "struct ComptrollerV1Storage.Market",
        "members": [
          {
            "astId": 6798,
            "contract": "contracts/Comptroller.sol:Comptroller",
            "label": "isListed",
            "offset": 0,
            "slot": "0",
            "type": "t_bool"
          },
          {
            "astId": 6800,
            "contract": "contracts/Comptroller.sol:Comptroller",
            "label": "collateralFactorMantissa",
            "offset": 0,
            "slot": "1",
            "type": "t_uint256"
          },
          {
            "astId": 6802,
            "contract": "contracts/Comptroller.sol:Comptroller",
            "label": "liquidationThresholdMantissa",
            "offset": 0,
            "slot": "2",
            "type": "t_uint256"
          },
          {
            "astId": 6806,
            "contract": "contracts/Comptroller.sol:Comptroller",
            "label": "accountMembership",
            "offset": 0,
            "slot": "3",
            "type": "t_mapping(t_address,t_bool)"
          }
        ],
        "numberOfBytes": "128"
      },
      "t_uint256": {
        "encoding": "inplace",
        "label": "uint256",
        "numberOfBytes": "32"
      }
    }
  }
}