{
  "address": "0x688CAd8DC17d60d586f082De97797902F901b240",
  "abi": [
    {
      "anonymous": false,
      "inputs": [
        {
          "indexed": false,
          "internalType": "address",
          "name": "comptroller",
          "type": "address"
        },
        {
          "indexed": false,
          "internalType": "address",
          "name": "asset",
          "type": "address"
        },
        {
          "indexed": false,
          "internalType": "uint256",
          "name": "amount",
          "type": "uint256"
        }
      ],
      "name": "AssetsReservesUpdated",
      "type": "event"
    },
    {
      "anonymous": false,
      "inputs": [
        {
          "indexed": false,
          "internalType": "uint8",
          "name": "version",
          "type": "uint8"
        }
      ],
      "name": "Initialized",
      "type": "event"
    },
    {
      "anonymous": false,
      "inputs": [
        {
          "indexed": true,
          "internalType": "address",
          "name": "previousOwner",
          "type": "address"
        },
        {
          "indexed": true,
          "internalType": "address",
          "name": "newOwner",
          "type": "address"
        }
      ],
      "name": "OwnershipTransferred",
      "type": "event"
    },
    {
      "inputs": [
        {
          "internalType": "address",
          "name": "comptroller",
          "type": "address"
        },
        {
          "internalType": "address",
          "name": "asset",
          "type": "address"
        }
      ],
      "name": "getPoolAssetReserve",
      "outputs": [
        {
          "internalType": "uint256",
          "name": "",
          "type": "uint256"
        }
      ],
      "stateMutability": "view",
      "type": "function"
    },
    {
      "inputs": [
        {
          "internalType": "address",
          "name": "_protocolIncome",
          "type": "address"
        },
        {
          "internalType": "address",
          "name": "_riskFund",
          "type": "address"
        }
      ],
      "name": "initialize",
      "outputs": [],
      "stateMutability": "nonpayable",
      "type": "function"
    },
    {
      "inputs": [],
      "name": "owner",
      "outputs": [
        {
          "internalType": "address",
          "name": "",
          "type": "address"
        }
      ],
      "stateMutability": "view",
      "type": "function"
    },
    {
      "inputs": [
        {
          "internalType": "address",
          "name": "comptroller",
          "type": "address"
        },
        {
          "internalType": "address",
          "name": "asset",
          "type": "address"
        },
        {
          "internalType": "uint256",
          "name": "amount",
          "type": "uint256"
        }
      ],
      "name": "releaseFunds",
      "outputs": [
        {
          "internalType": "uint256",
          "name": "",
          "type": "uint256"
        }
      ],
      "stateMutability": "nonpayable",
      "type": "function"
    },
    {
      "inputs": [],
      "name": "renounceOwnership",
      "outputs": [],
      "stateMutability": "nonpayable",
      "type": "function"
    },
    {
      "inputs": [
        {
          "internalType": "address",
          "name": "newOwner",
          "type": "address"
        }
      ],
      "name": "transferOwnership",
      "outputs": [],
      "stateMutability": "nonpayable",
      "type": "function"
    },
    {
      "inputs": [
        {
          "internalType": "address",
          "name": "comptroller",
          "type": "address"
        },
        {
          "internalType": "address",
          "name": "asset",
          "type": "address"
        }
      ],
      "name": "updateAssetsState",
      "outputs": [],
      "stateMutability": "nonpayable",
      "type": "function"
    }
  ],
  "transactionHash": "0x40cd8c58cfb6277ac48c33fc6097f4df915882db76de1102a0b6e011bdcddfdf",
  "args": [],
  "numDeployments": 1,
  "solcInputHash": "bfe6cf08237990fb7f580aa34eab6bcb",
  "bytecode": "0x608060405234801561001057600080fd5b5061104a806100206000396000f3fe608060405234801561001057600080fd5b506004361061007d5760003560e01c80638bbdf2af1161005b5780638bbdf2af146100c55780638da5cb5b146100d8578063aac59a75146100f3578063f2fde38b1461010657600080fd5b8063485cc955146100825780636fb0527514610097578063715018a6146100bd575b600080fd5b610095610090366004610d73565b610119565b005b6100aa6100a5366004610d73565b61034b565b6040519081526020015b60405180910390f35b61009561041c565b6100aa6100d3366004610da6565b610430565b6033546040516001600160a01b0390911681526020016100b4565b610095610101366004610d73565b6106b4565b610095610114366004610de2565b6108a6565b600054610100900460ff16158080156101395750600054600160ff909116105b806101535750303b158015610153575060005460ff166001145b6101bb5760405162461bcd60e51b815260206004820152602e60248201527f496e697469616c697a61626c653a20636f6e747261637420697320616c72656160448201526d191e481a5b9a5d1a585b1a5e995960921b60648201526084015b60405180910390fd5b6000805460ff1916600117905580156101de576000805461ff0019166101001790555b6001600160a01b03831661025a5760405162461bcd60e51b815260206004820152603760248201527f50726f746f636f6c5368617265526573657276653a204c69717569646174656460448201527f20736861726573206164647265737320696e76616c696400000000000000000060648201526084016101b2565b6001600160a01b0382166102c85760405162461bcd60e51b815260206004820152602f60248201527f50726f746f636f6c5368617265526573657276653a205269736b2046756e642060448201526e1859191c995cdcc81a5b9d985b1a59608a1b60648201526084016101b2565b6102d061091f565b609780546001600160a01b038086166001600160a01b03199283161790925560988054928516929091169190911790558015610346576000805461ff0019169055604051600181527f7f26b83ff96e1f2b6a682f133852f6798a09c465da95921460cefb38474024989060200160405180910390a15b505050565b6000826001600160a01b0316627e3dd26040518163ffffffff1660e01b8152600401602060405180830381865afa15801561038a573d6000803e3d6000fd5b505050506040513d601f19601f820116820180604052508101906103ae9190610dfd565b6103ca5760405162461bcd60e51b81526004016101b290610e1f565b6001600160a01b0382166103f05760405162461bcd60e51b81526004016101b290610e6a565b506001600160a01b03918216600090815260666020908152604080832093909416825291909152205490565b61042461094e565b61042e60006109a8565b565b600061043a61094e565b6001600160a01b0383166104a45760405162461bcd60e51b815260206004820152602b60248201527f50726f746f636f6c5368617265526573657276653a204173736574206164647260448201526a195cdcc81a5b9d985b1a5960aa1b60648201526084016101b2565b6001600160a01b038085166000908152606660209081526040808320938716835292905220548211156105315760405162461bcd60e51b815260206004820152602f60248201527f50726f746f636f6c5368617265526573657276653a20496e737566666963696560448201526e6e7420706f6f6c2062616c616e636560881b60648201526084016101b2565b6001600160a01b03831660009081526065602052604081208054849290610559908490610ec5565b90915550506001600160a01b03808516600090815260666020908152604080832093871683529290529081208054849290610595908490610ec5565b9091555050609754604080516020808201835285825282519081019092526105fe926001600160a01b0316916105ec91906105e790806105de670de0b6b3a76400006046610edc565b905260646109fa565b610a2b565b516001600160a01b0386169190610a6a565b60985460408051602080820183528582528251908101909252610642926001600160a01b0316916105ec91906105e790806105de670de0b6b3a7640000601e610edc565b60985460405163aac59a7560e01b81526001600160a01b03868116600483015285811660248301529091169063aac59a7590604401600060405180830381600087803b15801561069157600080fd5b505af11580156106a5573d6000803e3d6000fd5b505050508190505b9392505050565b816001600160a01b0316627e3dd26040518163ffffffff1660e01b8152600401602060405180830381865afa1580156106f1573d6000803e3d6000fd5b505050506040513d601f19601f820116820180604052508101906107159190610dfd565b6107315760405162461bcd60e51b81526004016101b290610e1f565b6001600160a01b0381166107575760405162461bcd60e51b81526004016101b290610e6a565b6040516370a0823160e01b81523060048201526000906001600160a01b038316906370a0823190602401602060405180830381865afa15801561079e573d6000803e3d6000fd5b505050506040513d601f19601f820116820180604052508101906107c29190610efb565b6001600160a01b038316600090815260656020526040902054909150808211156108a0576001600160a01b0383166000908152606560205260408120805483850392839291610812908490610f14565b90915550506001600160a01b0380861660009081526066602090815260408083209388168352929052908120805483929061084e908490610f14565b9091555050604080516001600160a01b038088168252861660208201529081018290527fc39e3e80c0219fde334a8cb5d8468b628482e23388b6e809c90cb00c63c8ce389060600160405180910390a1505b50505050565b6108ae61094e565b6001600160a01b0381166109135760405162461bcd60e51b815260206004820152602660248201527f4f776e61626c653a206e6577206f776e657220697320746865207a65726f206160448201526564647265737360d01b60648201526084016101b2565b61091c816109a8565b50565b600054610100900460ff166109465760405162461bcd60e51b81526004016101b290610f2c565b61042e610abc565b6033546001600160a01b0316331461042e5760405162461bcd60e51b815260206004820181905260248201527f4f776e61626c653a2063616c6c6572206973206e6f7420746865206f776e657260448201526064016101b2565b603380546001600160a01b038381166001600160a01b0319831681179093556040519116919082907f8be0079c531659141344cd1fd0a4f28419497f9722a3daafe3b4186f6b6457e090600090a35050565b6040805160208101909152600081526040518060200160405280610a22856000015185610aec565b90529392505050565b6040805160208101909152600081526040518060200160405280670de0b6b3a7640000610a6086600001518660000151610af8565b610a229190610f77565b604080516001600160a01b038416602482015260448082018490528251808303909101815260649091019091526020810180516001600160e01b031663a9059cbb60e01b179052610346908490610b04565b600054610100900460ff16610ae35760405162461bcd60e51b81526004016101b290610f2c565b61042e336109a8565b60006106ad8284610f77565b60006106ad8284610edc565b6000610b59826040518060400160405280602081526020017f5361666545524332303a206c6f772d6c6576656c2063616c6c206661696c6564815250856001600160a01b0316610bd69092919063ffffffff16565b8051909150156103465780806020019051810190610b779190610dfd565b6103465760405162461bcd60e51b815260206004820152602a60248201527f5361666545524332303a204552433230206f7065726174696f6e20646964206e6044820152691bdd081cdd58d8d9595960b21b60648201526084016101b2565b6060610be58484600085610bed565b949350505050565b606082471015610c4e5760405162461bcd60e51b815260206004820152602660248201527f416464726573733a20696e73756666696369656e742062616c616e636520666f6044820152651c8818d85b1b60d21b60648201526084016101b2565b6001600160a01b0385163b610ca55760405162461bcd60e51b815260206004820152601d60248201527f416464726573733a2063616c6c20746f206e6f6e2d636f6e747261637400000060448201526064016101b2565b600080866001600160a01b03168587604051610cc19190610fc5565b60006040518083038185875af1925050503d8060008114610cfe576040519150601f19603f3d011682016040523d82523d6000602084013e610d03565b606091505b5091509150610d13828286610d1e565b979650505050505050565b60608315610d2d5750816106ad565b825115610d3d5782518084602001fd5b8160405162461bcd60e51b81526004016101b29190610fe1565b80356001600160a01b0381168114610d6e57600080fd5b919050565b60008060408385031215610d8657600080fd5b610d8f83610d57565b9150610d9d60208401610d57565b90509250929050565b600080600060608486031215610dbb57600080fd5b610dc484610d57565b9250610dd260208501610d57565b9150604084013590509250925092565b600060208284031215610df457600080fd5b6106ad82610d57565b600060208284031215610e0f57600080fd5b815180151581146106ad57600080fd5b6020808252602b908201527f5265736572766548656c706572733a20436f6d7074726f6c6c6572206164647260408201526a195cdcc81a5b9d985b1a5960aa1b606082015260800190565b60208082526025908201527f5265736572766548656c706572733a204173736574206164647265737320696e6040820152641d985b1a5960da1b606082015260800190565b634e487b7160e01b600052601160045260246000fd5b600082821015610ed757610ed7610eaf565b500390565b6000816000190483118215151615610ef657610ef6610eaf565b500290565b600060208284031215610f0d57600080fd5b5051919050565b60008219821115610f2757610f27610eaf565b500190565b6020808252602b908201527f496e697469616c697a61626c653a20636f6e7472616374206973206e6f74206960408201526a6e697469616c697a696e6760a81b606082015260800190565b600082610f9457634e487b7160e01b600052601260045260246000fd5b500490565b60005b83811015610fb4578181015183820152602001610f9c565b838111156108a05750506000910152565b60008251610fd7818460208701610f99565b9190910192915050565b6020815260008251806020840152611000816040850160208701610f99565b601f01601f1916919091016040019291505056fea2646970667358221220bb9f79cb725a92974541cd28d62ee8532ec8055ca8d2ecda359b138b585f642064736f6c634300080d0033",
  "devdoc": {
    "kind": "dev",
    "methods": {
      "getPoolAssetReserve(address,address)": {
        "details": "Get the Amount of the asset in the risk fund for the specific pool.",
        "params": {
          "asset": "Asset address.",
          "comptroller": "Comptroller address(pool)."
        },
        "returns": {
          "_0": "Asset's reserve in risk fund."
        }
      },
      "initialize(address,address)": {
        "details": "Initializes the deployer to owner.",
        "params": {
          "_protocolIncome": "remaining protocol income.",
          "_riskFund": "Risk fund address."
        }
      },
      "owner()": {
        "details": "Returns the address of the current owner."
      },
      "releaseFunds(address,address,uint256)": {
        "details": "Release funds",
        "params": {
          "amount": "Amount to release.",
          "asset": "Asset to be released."
        },
        "returns": {
          "_0": "Number of total released tokens."
        }
      },
      "renounceOwnership()": {
        "details": "Leaves the contract without owner. It will not be possible to call `onlyOwner` functions anymore. Can only be called by the current owner. NOTE: Renouncing ownership will leave the contract without an owner, thereby removing any functionality that is only available to the owner."
      },
      "transferOwnership(address)": {
        "details": "Transfers ownership of the contract to a new account (`newOwner`). Can only be called by the current owner."
      },
      "updateAssetsState(address,address)": {
        "details": "Update the reserve of the asset for the specific pool after transferring to risk fund.",
        "params": {
          "asset": "Asset address.",
          "comptroller": "Comptroller address(pool)."
        }
      }
    },
    "version": 1
  },
  "userdoc": {
    "kind": "user",
    "methods": {},
    "version": 1
  },
  "storageLayout": {
    "storage": [
      {
        "astId": 218,
        "contract": "contracts/RiskFund/ProtocolShareReserve.sol:ProtocolShareReserve",
        "label": "_initialized",
        "offset": 0,
        "slot": "0",
        "type": "t_uint8"
      },
      {
        "astId": 221,
        "contract": "contracts/RiskFund/ProtocolShareReserve.sol:ProtocolShareReserve",
        "label": "_initializing",
        "offset": 1,
        "slot": "0",
        "type": "t_bool"
      },
      {
        "astId": 832,
        "contract": "contracts/RiskFund/ProtocolShareReserve.sol:ProtocolShareReserve",
        "label": "__gap",
        "offset": 0,
        "slot": "1",
        "type": "t_array(t_uint256)50_storage"
      },
      {
        "astId": 10,
        "contract": "contracts/RiskFund/ProtocolShareReserve.sol:ProtocolShareReserve",
        "label": "_owner",
        "offset": 0,
        "slot": "51",
        "type": "t_address"
      },
      {
        "astId": 130,
        "contract": "contracts/RiskFund/ProtocolShareReserve.sol:ProtocolShareReserve",
        "label": "__gap",
        "offset": 0,
        "slot": "52",
        "type": "t_array(t_uint256)49_storage"
      },
      {
        "astId": 14310,
        "contract": "contracts/RiskFund/ProtocolShareReserve.sol:ProtocolShareReserve",
        "label": "assetsReserves",
        "offset": 0,
        "slot": "101",
        "type": "t_mapping(t_address,t_uint256)"
      },
      {
        "astId": 14316,
        "contract": "contracts/RiskFund/ProtocolShareReserve.sol:ProtocolShareReserve",
        "label": "poolsAssetsReserves",
        "offset": 0,
        "slot": "102",
        "type": "t_mapping(t_address,t_mapping(t_address,t_uint256))"
      },
      {
        "astId": 14446,
        "contract": "contracts/RiskFund/ProtocolShareReserve.sol:ProtocolShareReserve",
        "label": "__gap",
        "offset": 0,
        "slot": "103",
        "type": "t_array(t_uint256)48_storage"
      },
      {
        "astId": 14151,
        "contract": "contracts/RiskFund/ProtocolShareReserve.sol:ProtocolShareReserve",
        "label": "protocolIncome",
        "offset": 0,
        "slot": "151",
        "type": "t_address"
      },
      {
        "astId": 14153,
        "contract": "contracts/RiskFund/ProtocolShareReserve.sol:ProtocolShareReserve",
        "label": "riskFund",
        "offset": 0,
        "slot": "152",
        "type": "t_address"
      }
    ],
    "types": {
      "t_address": {
        "encoding": "inplace",
        "label": "address",
        "numberOfBytes": "20"
      },
      "t_array(t_uint256)48_storage": {
        "base": "t_uint256",
        "encoding": "inplace",
        "label": "uint256[48]",
        "numberOfBytes": "1536"
      },
      "t_array(t_uint256)49_storage": {
        "base": "t_uint256",
        "encoding": "inplace",
        "label": "uint256[49]",
        "numberOfBytes": "1568"
      },
      "t_array(t_uint256)50_storage": {
        "base": "t_uint256",
        "encoding": "inplace",
        "label": "uint256[50]",
        "numberOfBytes": "1600"
      },
      "t_bool": {
        "encoding": "inplace",
        "label": "bool",
        "numberOfBytes": "1"
      },
      "t_mapping(t_address,t_mapping(t_address,t_uint256))": {
        "encoding": "mapping",
        "key": "t_address",
        "label": "mapping(address => mapping(address => uint256))",
        "numberOfBytes": "32",
        "value": "t_mapping(t_address,t_uint256)"
      },
      "t_mapping(t_address,t_uint256)": {
        "encoding": "mapping",
        "key": "t_address",
        "label": "mapping(address => uint256)",
        "numberOfBytes": "32",
        "value": "t_uint256"
      },
      "t_uint256": {
        "encoding": "inplace",
        "label": "uint256",
        "numberOfBytes": "32"
      },
      "t_uint8": {
        "encoding": "inplace",
        "label": "uint8",
        "numberOfBytes": "1"
      }
    }
  }
}