{
  "address": "0xDF0323739C7318f6055c7c2D4bB2237D8Cd5D461",
  "abi": [
    {
      "anonymous": false,
      "inputs": [
        {
          "indexed": false,
          "internalType": "uint8",
          "name": "version",
          "type": "uint8"
        }
      ],
      "name": "Initialized",
      "type": "event"
    },
    {
      "anonymous": false,
      "inputs": [
        {
          "indexed": true,
          "internalType": "address",
          "name": "previousOwner",
          "type": "address"
        },
        {
          "indexed": true,
          "internalType": "address",
          "name": "newOwner",
          "type": "address"
        }
      ],
      "name": "OwnershipTransferred",
      "type": "event"
    },
    {
      "inputs": [
        {
          "internalType": "address",
          "name": "_liquidatedShares",
          "type": "address"
        },
        {
          "internalType": "address",
          "name": "_riskFund",
          "type": "address"
        }
      ],
      "name": "initialize",
      "outputs": [],
      "stateMutability": "nonpayable",
      "type": "function"
    },
    {
      "inputs": [],
      "name": "owner",
      "outputs": [
        {
          "internalType": "address",
          "name": "",
          "type": "address"
        }
      ],
      "stateMutability": "view",
      "type": "function"
    },
    {
      "inputs": [
        {
          "internalType": "address",
          "name": "asset",
          "type": "address"
        },
        {
          "internalType": "uint256",
          "name": "amount",
          "type": "uint256"
        }
      ],
      "name": "releaseFunds",
      "outputs": [
        {
          "internalType": "uint256",
          "name": "",
          "type": "uint256"
        }
      ],
      "stateMutability": "nonpayable",
      "type": "function"
    },
    {
      "inputs": [],
      "name": "renounceOwnership",
      "outputs": [],
      "stateMutability": "nonpayable",
      "type": "function"
    },
    {
      "inputs": [
        {
          "internalType": "address",
          "name": "newOwner",
          "type": "address"
        }
      ],
      "name": "transferOwnership",
      "outputs": [],
      "stateMutability": "nonpayable",
      "type": "function"
    }
  ],
  "transactionHash": "0xad47c2f16d4bae806b0e9b26ae633bef1251fd0b18e6d5df66f49bdcce515e1a",
  "args": [],
  "numDeployments": 1,
  "solcInputHash": "d1b77da75230ccb3c5a69b8cee3cb3e7",
  "bytecode": "0x608060405234801561001057600080fd5b50610be7806100206000396000f3fe608060405234801561001057600080fd5b50600436106100575760003560e01c8063485cc9551461005c578063715018a6146100715780638da5cb5b14610079578063d6e982e514610099578063f2fde38b146100ba575b600080fd5b61006f61006a3660046109e5565b6100cd565b005b61006f610305565b6033546040516001600160a01b0390911681526020015b60405180910390f35b6100ac6100a7366004610a18565b610319565b604051908152602001610090565b61006f6100c8366004610a42565b610511565b600054610100900460ff16158080156100ed5750600054600160ff909116105b806101075750303b158015610107575060005460ff166001145b61016f5760405162461bcd60e51b815260206004820152602e60248201527f496e697469616c697a61626c653a20636f6e747261637420697320616c72656160448201526d191e481a5b9a5d1a585b1a5e995960921b60648201526084015b60405180910390fd5b6000805460ff191660011790558015610192576000805461ff0019166101001790555b6001600160a01b03831661020e5760405162461bcd60e51b815260206004820152603d60248201527f4c697175696461746564207368617265732052657365727665733a204c69717560448201527f69646174656420736861726573206164647265737320696e76616c69640000006064820152608401610166565b6001600160a01b0382166102825760405162461bcd60e51b815260206004820152603560248201527f4c697175696461746564207368617265732052657365727665733a205269736b60448201527408119d5b99081859191c995cdcc81a5b9d985b1a59605a1b6064820152608401610166565b61028a61058a565b606580546001600160a01b038086166001600160a01b03199283161790925560668054928516929091169190911790558015610300576000805461ff0019169055604051600181527f7f26b83ff96e1f2b6a682f133852f6798a09c465da95921460cefb38474024989060200160405180910390a15b505050565b61030d6105b9565b6103176000610613565b565b60006103236105b9565b6001600160a01b0383166103935760405162461bcd60e51b815260206004820152603160248201527f4c697175696461746564207368617265732052657365727665733a20417373656044820152701d081859191c995cdcc81a5b9d985b1a59607a1b6064820152608401610166565b6040516370a0823160e01b81523060048201526001600160a01b038416906370a0823190602401602060405180830381865afa1580156103d7573d6000803e3d6000fd5b505050506040513d601f19601f820116820180604052508101906103fb9190610a5d565b8211156104635760405162461bcd60e51b815260206004820152603060248201527f4c697175696461746564207368617265732052657365727665733a20496e737560448201526f6666696369656e742062616c616e636560801b6064820152608401610166565b606554604080516020808201835285825282519081019092526104c7926001600160a01b0316916104b591906104b090806104a7670de0b6b3a76400006046610a76565b90526064610665565b610696565b516001600160a01b03861691906106d5565b6066546040805160208082018352858252825190810190925261050b926001600160a01b0316916104b591906104b090806104a7670de0b6b3a7640000601e610a76565b50919050565b6105196105b9565b6001600160a01b03811661057e5760405162461bcd60e51b815260206004820152602660248201527f4f776e61626c653a206e6577206f776e657220697320746865207a65726f206160448201526564647265737360d01b6064820152608401610166565b61058781610613565b50565b600054610100900460ff166105b15760405162461bcd60e51b815260040161016690610aa3565b610317610727565b6033546001600160a01b031633146103175760405162461bcd60e51b815260206004820181905260248201527f4f776e61626c653a2063616c6c6572206973206e6f7420746865206f776e65726044820152606401610166565b603380546001600160a01b038381166001600160a01b0319831681179093556040519116919082907f8be0079c531659141344cd1fd0a4f28419497f9722a3daafe3b4186f6b6457e090600090a35050565b604080516020810190915260008152604051806020016040528061068d856000015185610757565b90529392505050565b6040805160208101909152600081526040518060200160405280670de0b6b3a76400006106cb8660000151866000015161076a565b61068d9190610aee565b604080516001600160a01b038416602482015260448082018490528251808303909101815260649091019091526020810180516001600160e01b031663a9059cbb60e01b179052610300908490610776565b600054610100900460ff1661074e5760405162461bcd60e51b815260040161016690610aa3565b61031733610613565b60006107638284610aee565b9392505050565b60006107638284610a76565b60006107cb826040518060400160405280602081526020017f5361666545524332303a206c6f772d6c6576656c2063616c6c206661696c6564815250856001600160a01b03166108489092919063ffffffff16565b80519091501561030057808060200190518101906107e99190610b10565b6103005760405162461bcd60e51b815260206004820152602a60248201527f5361666545524332303a204552433230206f7065726174696f6e20646964206e6044820152691bdd081cdd58d8d9595960b21b6064820152608401610166565b6060610857848460008561085f565b949350505050565b6060824710156108c05760405162461bcd60e51b815260206004820152602660248201527f416464726573733a20696e73756666696369656e742062616c616e636520666f6044820152651c8818d85b1b60d21b6064820152608401610166565b6001600160a01b0385163b6109175760405162461bcd60e51b815260206004820152601d60248201527f416464726573733a2063616c6c20746f206e6f6e2d636f6e74726163740000006044820152606401610166565b600080866001600160a01b031685876040516109339190610b62565b60006040518083038185875af1925050503d8060008114610970576040519150601f19603f3d011682016040523d82523d6000602084013e610975565b606091505b5091509150610985828286610990565b979650505050505050565b6060831561099f575081610763565b8251156109af5782518084602001fd5b8160405162461bcd60e51b81526004016101669190610b7e565b80356001600160a01b03811681146109e057600080fd5b919050565b600080604083850312156109f857600080fd5b610a01836109c9565b9150610a0f602084016109c9565b90509250929050565b60008060408385031215610a2b57600080fd5b610a34836109c9565b946020939093013593505050565b600060208284031215610a5457600080fd5b610763826109c9565b600060208284031215610a6f57600080fd5b5051919050565b6000816000190483118215151615610a9e57634e487b7160e01b600052601160045260246000fd5b500290565b6020808252602b908201527f496e697469616c697a61626c653a20636f6e7472616374206973206e6f74206960408201526a6e697469616c697a696e6760a81b606082015260800190565b600082610b0b57634e487b7160e01b600052601260045260246000fd5b500490565b600060208284031215610b2257600080fd5b8151801515811461076357600080fd5b60005b83811015610b4d578181015183820152602001610b35565b83811115610b5c576000848401525b50505050565b60008251610b74818460208701610b32565b9190910192915050565b6020815260008251806020840152610b9d816040850160208701610b32565b601f01601f1916919091016040019291505056fea264697066735822122010789a427522b7e1ca82989c3d4d11763026b08715a9a9969a611399be2b145364736f6c634300080d0033",
  "devdoc": {
    "kind": "dev",
    "methods": {
      "initialize(address,address)": {
        "details": "Initializes the deployer to owner.",
        "params": {
          "_liquidatedShares": "Liquidated shares address.",
          "_riskFund": "Risk fund address."
        }
      },
      "owner()": {
        "details": "Returns the address of the current owner."
      },
      "releaseFunds(address,uint256)": {
        "details": "Release funds",
        "params": {
          "amount": "Amount to release.",
          "asset": "Asset to be released."
        },
        "returns": {
          "_0": "Number of total released tokens."
        }
      },
      "renounceOwnership()": {
        "details": "Leaves the contract without owner. It will not be possible to call `onlyOwner` functions anymore. Can only be called by the current owner. NOTE: Renouncing ownership will leave the contract without an owner, thereby removing any functionality that is only available to the owner."
      },
      "transferOwnership(address)": {
        "details": "Transfers ownership of the contract to a new account (`newOwner`). Can only be called by the current owner."
      }
    },
    "version": 1
  },
  "userdoc": {
    "kind": "user",
    "methods": {},
    "version": 1
  },
  "storageLayout": {
    "storage": [
      {
        "astId": 218,
        "contract": "contracts/RiskFund/ProtocolShareReserve.sol:ProtocolShareReserve",
        "label": "_initialized",
        "offset": 0,
        "slot": "0",
        "type": "t_uint8"
      },
      {
        "astId": 221,
        "contract": "contracts/RiskFund/ProtocolShareReserve.sol:ProtocolShareReserve",
        "label": "_initializing",
        "offset": 1,
        "slot": "0",
        "type": "t_bool"
      },
      {
        "astId": 705,
        "contract": "contracts/RiskFund/ProtocolShareReserve.sol:ProtocolShareReserve",
        "label": "__gap",
        "offset": 0,
        "slot": "1",
        "type": "t_array(t_uint256)50_storage"
      },
      {
        "astId": 10,
        "contract": "contracts/RiskFund/ProtocolShareReserve.sol:ProtocolShareReserve",
        "label": "_owner",
        "offset": 0,
        "slot": "51",
        "type": "t_address"
      },
      {
        "astId": 130,
        "contract": "contracts/RiskFund/ProtocolShareReserve.sol:ProtocolShareReserve",
        "label": "__gap",
        "offset": 0,
        "slot": "52",
        "type": "t_array(t_uint256)49_storage"
      },
      {
        "astId": 11940,
        "contract": "contracts/RiskFund/ProtocolShareReserve.sol:ProtocolShareReserve",
        "label": "liquidatedShares",
        "offset": 0,
        "slot": "101",
        "type": "t_address"
      },
      {
        "astId": 11942,
        "contract": "contracts/RiskFund/ProtocolShareReserve.sol:ProtocolShareReserve",
        "label": "riskFund",
        "offset": 0,
        "slot": "102",
        "type": "t_address"
      }
    ],
    "types": {
      "t_address": {
        "encoding": "inplace",
        "label": "address",
        "numberOfBytes": "20"
      },
      "t_array(t_uint256)49_storage": {
        "base": "t_uint256",
        "encoding": "inplace",
        "label": "uint256[49]",
        "numberOfBytes": "1568"
      },
      "t_array(t_uint256)50_storage": {
        "base": "t_uint256",
        "encoding": "inplace",
        "label": "uint256[50]",
        "numberOfBytes": "1600"
      },
      "t_bool": {
        "encoding": "inplace",
        "label": "bool",
        "numberOfBytes": "1"
      },
      "t_uint256": {
        "encoding": "inplace",
        "label": "uint256",
        "numberOfBytes": "32"
      },
      "t_uint8": {
        "encoding": "inplace",
        "label": "uint8",
        "numberOfBytes": "1"
      }
    }
  }
}